{
  "_format": "hh-sol-artifact-1",
  "contractName": "Reader",
  "sourceName": "contracts/reader/Reader.sol",
  "abi": [
    {
      "inputs": [
        {
          "internalType": "address",
          "name": "poolCreator_",
          "type": "address"
        },
        {
          "internalType": "address",
          "name": "inverseStateService_",
          "type": "address"
        }
      ],
      "stateMutability": "nonpayable",
      "type": "constructor"
    },
    {
      "inputs": [
        {
          "internalType": "address",
          "name": "liquidityPool",
          "type": "address"
        },
        {
          "internalType": "uint256",
          "name": "perpetualIndex",
          "type": "uint256"
        },
        {
          "internalType": "address",
          "name": "account",
          "type": "address"
        }
      ],
      "name": "getAccountStorage",
      "outputs": [
        {
          "internalType": "bool",
          "name": "isSynced",
          "type": "bool"
        },
        {
          "components": [
            {
              "internalType": "int256",
              "name": "cash",
              "type": "int256"
            },
            {
              "internalType": "int256",
              "name": "position",
              "type": "int256"
            },
            {
              "internalType": "int256",
              "name": "availableMargin",
              "type": "int256"
            },
            {
              "internalType": "int256",
              "name": "margin",
              "type": "int256"
            },
            {
              "internalType": "int256",
              "name": "settleableMargin",
              "type": "int256"
            },
            {
              "internalType": "bool",
              "name": "isInitialMarginSafe",
              "type": "bool"
            },
            {
              "internalType": "bool",
              "name": "isMaintenanceMarginSafe",
              "type": "bool"
            },
            {
              "internalType": "bool",
              "name": "isMarginSafe",
              "type": "bool"
            },
            {
              "internalType": "int256",
              "name": "targetLeverage",
              "type": "int256"
            }
          ],
          "internalType": "struct Reader.AccountReaderResult",
          "name": "accountStorage",
          "type": "tuple"
        }
      ],
      "stateMutability": "nonpayable",
      "type": "function"
    },
    {
      "inputs": [
        {
          "internalType": "address",
          "name": "liquidityPool",
          "type": "address"
        },
        {
          "internalType": "uint256",
          "name": "perpetualIndex",
          "type": "uint256"
        },
        {
          "internalType": "uint256",
          "name": "begin",
          "type": "uint256"
        },
        {
          "internalType": "uint256",
          "name": "end",
          "type": "uint256"
        }
      ],
      "name": "getAccountsInfo",
      "outputs": [
        {
          "internalType": "bool",
          "name": "isSynced",
          "type": "bool"
        },
        {
          "components": [
            {
              "internalType": "address",
              "name": "account",
              "type": "address"
            },
            {
              "internalType": "int256",
              "name": "position",
              "type": "int256"
            },
            {
              "internalType": "int256",
              "name": "margin",
              "type": "int256"
            },
            {
              "internalType": "bool",
              "name": "isSafe",
              "type": "bool"
            },
            {
              "internalType": "int256",
              "name": "availableCash",
              "type": "int256"
            }
          ],
          "internalType": "struct Reader.AccountsResult[]",
          "name": "result",
          "type": "tuple[]"
        }
      ],
      "stateMutability": "nonpayable",
      "type": "function"
    },
    {
      "inputs": [
        {
          "internalType": "address",
          "name": "liquidityPool",
          "type": "address"
        },
        {
          "internalType": "uint256",
          "name": "perpetualIndex",
          "type": "uint256"
        },
        {
          "internalType": "address[]",
          "name": "accounts",
          "type": "address[]"
        }
      ],
      "name": "getAccountsInfoByAddress",
      "outputs": [
        {
          "internalType": "bool",
          "name": "isSynced",
          "type": "bool"
        },
        {
          "components": [
            {
              "internalType": "address",
              "name": "account",
              "type": "address"
            },
            {
              "internalType": "int256",
              "name": "position",
              "type": "int256"
            },
            {
              "internalType": "int256",
              "name": "margin",
              "type": "int256"
            },
            {
              "internalType": "bool",
              "name": "isSafe",
              "type": "bool"
            },
            {
              "internalType": "int256",
              "name": "availableCash",
              "type": "int256"
            }
          ],
          "internalType": "struct Reader.AccountsResult[]",
          "name": "result",
          "type": "tuple[]"
        }
      ],
      "stateMutability": "nonpayable",
      "type": "function"
    },
    {
      "inputs": [
        {
          "internalType": "address",
          "name": "proxy",
          "type": "address"
        }
      ],
      "name": "getImplementation",
      "outputs": [
        {
          "internalType": "address",
          "name": "",
          "type": "address"
        }
      ],
      "stateMutability": "view",
      "type": "function"
    },
    {
      "inputs": [],
      "name": "getL1BlockNumber",
      "outputs": [
        {
          "internalType": "uint256",
          "name": "",
          "type": "uint256"
        }
      ],
      "stateMutability": "view",
      "type": "function"
    },
    {
      "inputs": [
        {
          "internalType": "address",
          "name": "liquidityPool",
          "type": "address"
        }
      ],
      "name": "getLiquidityPoolStorage",
      "outputs": [
        {
          "internalType": "bool",
          "name": "isSynced",
          "type": "bool"
        },
        {
          "components": [
            {
              "internalType": "bool",
              "name": "isRunning",
              "type": "bool"
            },
            {
              "internalType": "bool",
              "name": "isFastCreationEnabled",
              "type": "bool"
            },
            {
              "internalType": "address[7]",
              "name": "addresses",
              "type": "address[7]"
            },
            {
              "internalType": "int256[5]",
              "name": "intNums",
              "type": "int256[5]"
            },
            {
              "internalType": "uint256[6]",
              "name": "uintNums",
              "type": "uint256[6]"
            },
            {
              "components": [
                {
                  "internalType": "enum PerpetualState",
                  "name": "state",
                  "type": "uint8"
                },
                {
                  "internalType": "address",
                  "name": "oracle",
                  "type": "address"
                },
                {
                  "internalType": "int256[39]",
                  "name": "nums",
                  "type": "int256[39]"
                },
                {
                  "internalType": "uint256",
                  "name": "symbol",
                  "type": "uint256"
                },
                {
                  "internalType": "string",
                  "name": "underlyingAsset",
                  "type": "string"
                },
                {
                  "internalType": "bool",
                  "name": "isMarketClosed",
                  "type": "bool"
                },
                {
                  "internalType": "bool",
                  "name": "isTerminated",
                  "type": "bool"
                },
                {
                  "internalType": "int256",
                  "name": "ammCashBalance",
                  "type": "int256"
                },
                {
                  "internalType": "int256",
                  "name": "ammPositionAmount",
                  "type": "int256"
                },
                {
                  "internalType": "bool",
                  "name": "isInversePerpetual",
                  "type": "bool"
                }
              ],
              "internalType": "struct Reader.PerpetualReaderResult[]",
              "name": "perpetuals",
              "type": "tuple[]"
            },
            {
              "internalType": "bool",
              "name": "isAMMMaintenanceSafe",
              "type": "bool"
            }
          ],
          "internalType": "struct Reader.LiquidityPoolReaderResult",
          "name": "pool",
          "type": "tuple"
        }
      ],
      "stateMutability": "nonpayable",
      "type": "function"
    },
    {
      "inputs": [
        {
          "internalType": "address",
          "name": "liquidityPool",
          "type": "address"
        }
      ],
      "name": "getPoolMargin",
      "outputs": [
        {
          "internalType": "bool",
          "name": "isSynced",
          "type": "bool"
        },
        {
          "internalType": "int256",
          "name": "poolMargin",
          "type": "int256"
        },
        {
          "internalType": "bool",
          "name": "isSafe",
          "type": "bool"
        }
      ],
      "stateMutability": "nonpayable",
      "type": "function"
    },
    {
      "inputs": [],
      "name": "inverseStateService",
      "outputs": [
        {
          "internalType": "contract IInverseStateService",
          "name": "",
          "type": "address"
        }
      ],
      "stateMutability": "view",
      "type": "function"
    },
    {
      "inputs": [
        {
          "internalType": "address",
          "name": "liquidityPool",
          "type": "address"
        }
      ],
      "name": "isAMMMaintenanceSafe",
      "outputs": [
        {
          "internalType": "bool",
          "name": "",
          "type": "bool"
        }
      ],
      "stateMutability": "nonpayable",
      "type": "function"
    },
    {
      "inputs": [],
      "name": "poolCreator",
      "outputs": [
        {
          "internalType": "address",
          "name": "",
          "type": "address"
        }
      ],
      "stateMutability": "view",
      "type": "function"
    },
    {
      "inputs": [
        {
          "internalType": "address",
          "name": "liquidityPool",
          "type": "address"
        },
        {
          "internalType": "int256",
          "name": "cashToAdd",
          "type": "int256"
        },
        {
          "internalType": "int256",
          "name": "shareToMint",
          "type": "int256"
        }
      ],
      "name": "queryAddLiquidity",
      "outputs": [
        {
          "internalType": "bool",
          "name": "isSynced",
          "type": "bool"
        },
        {
          "internalType": "int256",
          "name": "cashToAddResult",
          "type": "int256"
        },
        {
          "internalType": "int256",
          "name": "shareToMintResult",
          "type": "int256"
        }
      ],
      "stateMutability": "nonpayable",
      "type": "function"
    },
    {
      "inputs": [
        {
          "internalType": "address",
          "name": "liquidityPool",
          "type": "address"
        },
        {
          "internalType": "int256",
          "name": "shareToRemove",
          "type": "int256"
        },
        {
          "internalType": "int256",
          "name": "cashToReturn",
          "type": "int256"
        }
      ],
      "name": "queryRemoveLiquidity",
      "outputs": [
        {
          "internalType": "bool",
          "name": "isSynced",
          "type": "bool"
        },
        {
          "internalType": "int256",
          "name": "shareToRemoveResult",
          "type": "int256"
        },
        {
          "internalType": "int256",
          "name": "cashToReturnResult",
          "type": "int256"
        }
      ],
      "stateMutability": "nonpayable",
      "type": "function"
    },
    {
      "inputs": [
        {
          "internalType": "address",
          "name": "liquidityPool",
          "type": "address"
        },
        {
          "internalType": "uint256",
          "name": "perpetualIndex",
          "type": "uint256"
        },
        {
          "internalType": "address",
          "name": "trader",
          "type": "address"
        },
        {
          "internalType": "int256",
          "name": "amount",
          "type": "int256"
        },
        {
          "internalType": "address",
          "name": "referrer",
          "type": "address"
        },
        {
          "internalType": "uint32",
          "name": "flags",
          "type": "uint32"
        }
      ],
      "name": "queryTrade",
      "outputs": [
        {
          "internalType": "bool",
          "name": "isSynced",
          "type": "bool"
        },
        {
          "internalType": "int256",
          "name": "tradePrice",
          "type": "int256"
        },
        {
          "internalType": "int256",
          "name": "totalFee",
          "type": "int256"
        },
        {
          "internalType": "int256",
          "name": "cost",
          "type": "int256"
        }
      ],
      "stateMutability": "nonpayable",
      "type": "function"
    },
    {
      "inputs": [
        {
          "internalType": "address[]",
          "name": "oracles",
          "type": "address[]"
        }
      ],
      "name": "readIndexPrices",
      "outputs": [
        {
          "internalType": "bool[]",
          "name": "isSuccess",
          "type": "bool[]"
        },
        {
          "internalType": "int256[]",
          "name": "indexPrices",
          "type": "int256[]"
        },
        {
          "internalType": "uint256[]",
          "name": "timestamps",
          "type": "uint256[]"
        }
      ],
      "stateMutability": "nonpayable",
      "type": "function"
    }
  ],
  "bytecode": "0x60c06040523480156200001157600080fd5b5060405162002e1638038062002e168339810160408190526200003491620000fa565b62000053826001600160a01b0316620000d860201b620012a21760201c565b6200007b5760405162461bcd60e51b8152600401620000729062000131565b60405180910390fd5b6200009a816001600160a01b0316620000d860201b620012a21760201c565b620000b95760405162461bcd60e51b8152600401620000729062000168565b6001600160601b0319606092831b811660a052911b16608052620001ac565b803b15155b919050565b80516001600160a01b0381168114620000dd57600080fd5b600080604083850312156200010d578182fd5b6200011883620000e2565b91506200012860208401620000e2565b90509250929050565b6020808252601c908201527f706f6f6c43726561746f72206d75737420626520636f6e747261637400000000604082015260600190565b60208082526024908201527f696e7665727365537461746553657276696365206d75737420626520636f6e746040820152631c9858dd60e21b606082015260800190565b60805160601c60a05160601c612c36620001e06000398061038b528061112b5250806104bd52806117005250612c366000f3fe608060405234801561001057600080fd5b50600436106100ea5760003560e01c806377ee51ee1161008c578063b9b3efe911610066578063b9b3efe91461021e578063bc0a260314610233578063c6c1decd14610246578063eb16510d1461024e576100ea565b806377ee51ee146101c85780637e4b4e45146101e9578063a90dc662146101fc576100ea565b80633c070544116100c85780633c0705441461014357806341de031a1461016557806346a83af814610187578063574408c1146101a7576100ea565b806304a6c736146100ef57806315ac72ca1461011b57806334a3cf331461013b575b600080fd5b6101026100fd366004611f2f565b61026f565b60405161011294939291906128cb565b60405180910390f35b61012e610129366004611e82565b610386565b604051610112919061274f565b61012e6104bb565b610156610151366004611eba565b6104df565b604051610112939291906128b3565b610178610173366004611e82565b6105e7565b60405161011293929190612899565b61019a610195366004611e82565b6106c4565b604051610112919061280b565b6101ba6101b5366004611e82565b6107fe565b604051610112929190612964565b6101db6101d6366004611ffd565b610ae8565b604051610112929190612816565b6101566101f7366004611eba565b610b8c565b61020f61020a366004612037565b610c36565b6040516101129392919061277c565b610226610e2f565b6040516101129190612aa4565b6101db610241366004611fa6565b610e33565b61012e611129565b61026161025c366004611eee565b61114d565b6040516101129291906128e8565b600080600080896001600160a01b0316637086fd326040518163ffffffff1660e01b8152600401600060405180830381600087803b1580156102b057600080fd5b505af19250505080156102c1575060015b6102ce57600093506102d3565b600193505b6040517f85dcd60a0000000000000000000000000000000000000000000000000000000081526001600160a01b038b16906385dcd60a90610320908c908c908c908c908c90600401612ac4565b606060405180830381600087803b15801561033a57600080fd5b505af115801561034e573d6000803e3d6000fd5b505050506040513d601f19601f8201168201806040525081019061037291906123e4565b959c919b5099509397509295505050505050565b6000807f00000000000000000000000000000000000000000000000000000000000000006001600160a01b031663c4d5608a6040518163ffffffff1660e01b815260040160206040518083038186803b1580156103e257600080fd5b505afa1580156103f6573d6000803e3d6000fd5b505050506040513d601f19601f8201168201806040525081019061041a9190611e9e565b6040517f204e1c7a0000000000000000000000000000000000000000000000000000000081529091506001600160a01b0382169063204e1c7a9061046290869060040161274f565b60206040518083038186803b15801561047a57600080fd5b505afa15801561048e573d6000803e3d6000fd5b505050506040513d601f19601f820116820180604052508101906104b29190611e9e565b9150505b919050565b7f000000000000000000000000000000000000000000000000000000000000000081565b6000806000856001600160a01b0316637086fd326040518163ffffffff1660e01b8152600401600060405180830381600087803b15801561051f57600080fd5b505af1925050508015610530575060015b61053d5760009250610542565b600192505b6040517f8ceef9810000000000000000000000000000000000000000000000000000000081526001600160a01b03871690638ceef9819061058990889088906004016129f1565b604080518083038186803b1580156105a057600080fd5b505afa1580156105b4573d6000803e3d6000fd5b505050506040513d601f19601f820116820180604052508101906105d891906123c1565b93979096509294509192505050565b6000806000836001600160a01b0316637086fd326040518163ffffffff1660e01b8152600401600060405180830381600087803b15801561062757600080fd5b505af1925050508015610638575060015b610645576000925061064a565b600192505b836001600160a01b031663dbabbf776040518163ffffffff1660e01b8152600401604080518083038186803b15801561068257600080fd5b505afa158015610696573d6000803e3d6000fd5b505050506040513d601f19601f820116820180604052508101906106ba9190612396565b9395909450915050565b60006106ce611b4f565b60006106d984610386565b90506106e4816112a8565b156106fe576106f284611306565b95506107779350505050565b836001600160a01b0316630cdc105a6040518163ffffffff1660e01b81526004016102806040518083038186803b15801561073857600080fd5b505afa15801561074c573d6000803e3d6000fd5b505050506040513d601f19601f82011682018060405250810190610770919061225d565b9550505050505b602082015161078b576001925050506104b6565b604051630385975360e41b81526001600160a01b038516906338597530906107b99060001990600401612aa4565b600060405180830381600087803b1580156107d357600080fd5b505af19250505080156107e4575060015b6107f3576001925050506104b6565b6000925050506104b6565b6000610808611b6d565b826001600160a01b0316637086fd326040518163ffffffff1660e01b8152600401600060405180830381600087803b15801561084357600080fd5b505af1925050508015610854575060015b6108615760009150610866565b600191505b600061087184610386565b905061087c816112a8565b156108a95761088a84611306565b6080870152606086015260408501521515602084015215158252610936565b836001600160a01b0316630cdc105a6040518163ffffffff1660e01b81526004016102806040518083038186803b1580156108e357600080fd5b505afa1580156108f7573d6000803e3d6000fd5b505050506040513d601f19601f8201168201806040525081019061091b919061225d565b60808701526060860152604085015215156020840152151582525b60808201516020908101516040808501515181517f07c4d486000000000000000000000000000000000000000000000000000000008152915192936000936001600160a01b03909216926307c4d4869260048083019392829003018186803b1580156109a157600080fd5b505afa1580156109b5573d6000803e3d6000fd5b505050506040513d601f19601f820116820180604052508101906109d99190611e9e565b90508167ffffffffffffffff811180156109f257600080fd5b50604051908082528060200260200182016040528015610a2c57816020015b610a19611bba565b815260200190600190039081610a115790505b5060a085015260005b82811015610a6857610a608560a001518281518110610a5057fe5b60200260200101518389846113de565b600101610a35565b50600160c08501528115610ae057604051630385975360e41b81526001600160a01b03871690633859753090610aa49060001990600401612aa4565b600060405180830381600087803b158015610abe57600080fd5b505af1925050508015610acf575060015b610ad857610ae0565b600060c08501525b505050915091565b6000606080866001600160a01b03166313f07f458787876040518463ffffffff1660e01b8152600401610b1d93929190612af8565b60006040518083038186803b158015610b3557600080fd5b505afa158015610b49573d6000803e3d6000fd5b505050506040513d6000823e601f3d908101601f19168201604052610b719190810190612072565b9050610b7e878783610e33565b925092505094509492505050565b6000806000856001600160a01b0316637086fd326040518163ffffffff1660e01b8152600401600060405180830381600087803b158015610bcc57600080fd5b505af1925050508015610bdd575060015b610bea5760009250610bef565b600192505b6040517f16b3dd0e0000000000000000000000000000000000000000000000000000000081526001600160a01b038716906316b3dd0e9061058990889088906004016129f1565b6060806060835167ffffffffffffffff81118015610c5357600080fd5b50604051908082528060200260200182016040528015610c7d578160200160208202803683370190505b509250835167ffffffffffffffff81118015610c9857600080fd5b50604051908082528060200260200182016040528015610cc2578160200160208202803683370190505b509150835167ffffffffffffffff81118015610cdd57600080fd5b50604051908082528060200260200182016040528015610d07578160200160208202803683370190505b50905060005b8451811015610e2757610d3b858281518110610d2557fe5b60200260200101516001600160a01b03166112a2565b610d4457610e1f565b848181518110610d5057fe5b60200260200101516001600160a01b031663ccbdbee26040518163ffffffff1660e01b81526004016040805180830381600087803b158015610d9157600080fd5b505af1925050508015610dc1575060408051601f3d908101601f19168201909252610dbe918101906123c1565b60015b610dca57610e1f565b6001868481518110610dd857fe5b60200260200101901515908115158152505081858481518110610df757fe5b60200260200101818152505080848481518110610e1057fe5b60200260200101818152505050505b600101610d0d565b509193909250565b4390565b60006060846001600160a01b0316637086fd326040518163ffffffff1660e01b8152600401600060405180830381600087803b158015610e7257600080fd5b505af1925050508015610e83575060015b610e905760009150610e95565b600191505b825167ffffffffffffffff81118015610ead57600080fd5b50604051908082528060200260200182016040528015610ee757816020015b610ed4611c17565b815260200190600190039081610ecc5790505b509050610ef2611c51565b6040516204966760e11b81526001600160a01b0387169062092cce90610f1c908890600401612aa4565b6105206040518083038186803b158015610f3557600080fd5b505afa158015610f49573d6000803e3d6000fd5b505050506040513d601f19601f82011682018060405250810190610f6d91906122ff565b60808101519093509150600090505b855181101561111e576000806000808b6001600160a01b0316637d3ba80f8c8c8881518110610fa757fe5b60200260200101516040518363ffffffff1660e01b8152600401610fcc929190612aad565b6101206040518083038186803b158015610fe557600080fd5b505afa158015610ff9573d6000803e3d6000fd5b505050506040513d601f19601f8201168201806040525081019061101d9190612411565b909192939495509091929350909192509050508094508196508295508397505050505089858151811061104c57fe5b602002602001015188868151811061106057fe5b6020026020010151600001906001600160a01b031690816001600160a01b0316815250508188868151811061109157fe5b60200260200101516020018181525050828886815181106110ae57fe5b60200260200101516040018181525050808886815181106110cb57fe5b60209081029190910101519015156060909101526110f36110ec8388611798565b85906117cd565b8886815181106110ff57fe5b602090810291909101015160800152505060019092019150610f7c9050565b505050935093915050565b7f000000000000000000000000000000000000000000000000000000000000000081565b6000611157611c70565b846001600160a01b0316637086fd326040518163ffffffff1660e01b8152600401600060405180830381600087803b15801561119257600080fd5b505af19250505080156111a3575060015b6111b057600091506111b5565b600191505b60006060866001600160a01b031686866040516024016111d6929190612aad565b60408051601f198184030181529181526020820180517bffffffffffffffffffffffffffffffffffffffffffffffffffffffff16637d3ba80f60e01b179052516112209190612733565b6000604051808303816000865af19150503d806000811461125d576040519150601f19603f3d011682016040523d82523d6000602084013e611262565b606091505b50915091508161128d5760405162461bcd60e51b8152600401611284906129ff565b60405180910390fd5b6112968161183b565b92505050935093915050565b3b151590565b600073ef5d601ea784abd465c788c431d990b620e5fee66001600160a01b03831614806112f1575073755c852d94ffa5e9b6be974a5051d23d5be27e4f6001600160a01b038316145b156112fe575060016104b6565b506000919050565b600080611311611cc2565b611319611ce0565b611321611b4f565b611329611cfe565b866001600160a01b0316630cdc105a6040518163ffffffff1660e01b81526004016102406040518083038186803b15801561136357600080fd5b505afa158015611377573d6000803e3d6000fd5b505050506040513d601f19601f8201168201806040525081019061139b91906121a9565b8051875260208082015190880152604080820151908801526060908101519087015260006080870181905260a0870152929a919950975090955091935090915050565b6040516204966760e11b81526001600160a01b0383169062092cce90611408908490600401612aa4565b6105206040518083038186803b15801561142157600080fd5b505afa158015611435573d6000803e3d6000fd5b505050506040513d601f19601f8201168201806040525081019061145991906122ff565b604087018190526001600160a01b03821660208801528683600481111561147c57fe5b600481111561148757fe5b81525050505061149883838361189b565b84606001818152505083602001516001600160a01b0316637158da7c6040518163ffffffff1660e01b815260040160006040518083038186803b1580156114de57600080fd5b505afa1580156114f2573d6000803e3d6000fd5b505050506040513d6000823e601f3d908101601f1916820160405261151a919081019061248e565b846080018190525083602001516001600160a01b031663b7e86c1f6040518163ffffffff1660e01b8152600401602060405180830381600087803b15801561156157600080fd5b505af1158015611575573d6000803e3d6000fd5b505050506040513d601f19601f82011682018060405250810190611599919061218f565b151560a0850152602080850151604080517fd1cc997600000000000000000000000000000000000000000000000000000000815290516001600160a01b039092169263d1cc9976926004808401938290030181600087803b1580156115fd57600080fd5b505af1158015611611573d6000803e3d6000fd5b505050506040513d601f19601f82011682018060405250810190611635919061218f565b151560c0850152604051637d3ba80f60e01b81526001600160a01b03831690637d3ba80f9061166a9084908690600401612aad565b6101206040518083038186803b15801561168357600080fd5b505afa158015611697573d6000803e3d6000fd5b505050506040513d601f19601f820116820180604052508101906116bb9190612411565b5050505061010089019390935250505060e08501526040517faeb0abbb0000000000000000000000000000000000000000000000000000000081526001600160a01b037f0000000000000000000000000000000000000000000000000000000000000000169063aeb0abbb906117379085908590600401612763565b60206040518083038186803b15801561174f57600080fd5b505afa158015611763573d6000803e3d6000fd5b505050506040513d601f19601f82011682018060405250810190611787919061218f565b151561012090940193909352505050565b6000670de0b6b3a76400006117be6117b08585611990565b670de0b6b3a7640000611a55565b816117c557fe5b059392505050565b60008183038183128015906117e25750838113155b806117f757506000831280156117f757508381135b6118325760405162461bcd60e51b8152600401808060200182810382526024815260200180612bdd6024913960400191505060405180910390fd5b90505b92915050565b611843611c70565b602082518161184e57fe5b061561186c5760405162461bcd60e51b815260040161128490612a36565b815160208301828282015b80831015611892578251825260209283019290910190611877565b50505050919050565b60006060846001600160a01b031663745a3f7485856040518363ffffffff1660e01b81526004016118cd929190612763565b60006040518083038186803b1580156118e557600080fd5b505afa1580156118f9573d6000803e3d6000fd5b505050506040513d6000823e601f3d908101601f19168201604052611921919081019061210b565b805190915060018110156119475760405162461bcd60e51b815260040161128490612a6d565b60001960005b828110156119855761197b84828151811061196457fe5b602002602001015183611ad490919063ffffffff16565b915060010161194d565b509695505050505050565b60008261199f57506000611835565b826000191480156119cf57507f800000000000000000000000000000000000000000000000000000000000000082145b15611a0b5760405162461bcd60e51b8152600401808060200182810382526027815260200180612bb66027913960400191505060405180910390fd5b82820282848281611a1857fe5b05146118325760405162461bcd60e51b8152600401808060200182810382526027815260200180612bb66027913960400191505060405180910390fd5b6000808213611aab576040805162461bcd60e51b815260206004820152601f60248201527f726f756e6448616c665570206f6e6c7920737570706f7274732079203e203000604482015290519081900360640190fd5b60008312611ac757611ac08360028405611aea565b9050611835565b61183283600284056117cd565b6000818310611ae35781611832565b5090919050565b6000828201818312801590611aff5750838112155b80611b145750600083128015611b1457508381125b6118325760405162461bcd60e51b8152600401808060200182810382526021815260200180612b956021913960400191505060405180910390fd5b6040518060c001604052806006906020820280368337509192915050565b6040805160e08101825260008082526020820152908101611b8c611cc2565b8152602001611b99611ce0565b8152602001611ba6611b4f565b815260606020820152600060409091015290565b604080516101408101825260008082526020820152908101611bda611c51565b8152602001600081526020016060815260200160001515815260200160001515815260200160008152602001600081526020016000151581525090565b6040518060a0016040528060006001600160a01b031681526020016000815260200160008152602001600015158152602001600081525090565b604051806104e001604052806027906020820280368337509192915050565b6040518061012001604052806000815260200160008152602001600081526020016000815260200160008152602001600015158152602001600015158152602001600015158152602001600081525090565b6040518060e001604052806007906020820280368337509192915050565b6040518060a001604052806005906020820280368337509192915050565b60405180608001604052806004906020820280368337509192915050565b600082601f830112611d2c578081fd5b60405160e0810181811067ffffffffffffffff82111715611d4957fe5b6040529050808260e08101851015611d6057600080fd5b60005b6007811015611d8c578151611d7781612b7c565b83526020928301929190910190600101611d63565b50505092915050565b600082601f830112611da5578081fd5b8135611db8611db382612b32565b612b0e565b818152915060208083019084810181840286018201871015611dd957600080fd5b60005b84811015611e01578135611def81612b7c565b84529282019290820190600101611ddc565b505050505092915050565b600082601f830112611e1c578081fd5b60405160a0810181811067ffffffffffffffff82111715611e3957fe5b6040529050808260a08101851015611e5057600080fd5b60005b6005811015611d8c578151835260209283019290910190600101611e53565b805180151581146104b657600080fd5b600060208284031215611e93578081fd5b813561183281612b7c565b600060208284031215611eaf578081fd5b815161183281612b7c565b600080600060608486031215611ece578182fd5b8335611ed981612b7c565b95602085013595506040909401359392505050565b600080600060608486031215611f02578081fd5b8335611f0d81612b7c565b9250602084013591506040840135611f2481612b7c565b809150509250925092565b60008060008060008060c08789031215611f47578384fd5b8635611f5281612b7c565b9550602087013594506040870135611f6981612b7c565b9350606087013592506080870135611f8081612b7c565b915060a087013563ffffffff81168114611f98578182fd5b809150509295509295509295565b600080600060608486031215611fba578081fd5b8335611fc581612b7c565b925060208401359150604084013567ffffffffffffffff811115611fe7578182fd5b611ff386828701611d95565b9150509250925092565b60008060008060808587031215612012578182fd5b843561201d81612b7c565b966020860135965060408601359560600135945092505050565b600060208284031215612048578081fd5b813567ffffffffffffffff81111561205e578182fd5b61206a84828501611d95565b949350505050565b60006020808385031215612084578182fd5b825167ffffffffffffffff81111561209a578283fd5b8301601f810185136120aa578283fd5b80516120b8611db382612b32565b81815283810190838501858402850186018910156120d4578687fd5b8694505b838510156120ff5780516120eb81612b7c565b8352600194909401939185019185016120d8565b50979650505050505050565b6000602080838503121561211d578182fd5b825167ffffffffffffffff811115612133578283fd5b8301601f81018513612143578283fd5b8051612151611db382612b32565b818152838101908385018584028501860189101561216d578687fd5b8694505b838510156120ff578051835260019490940193918501918501612171565b6000602082840312156121a0578081fd5b61183282611e72565b60008060008060006102408087890312156121c2578384fd5b6121cb87611e72565b955060206121da818901611e72565b95506121e98960408a01611d1c565b94506121f9896101208a01611e0c565b9350886101df89011261220a578283fd5b6122146080612b0e565b806101c08a018b858c011115612228578586fd5b8594505b600485101561224b57805183526001949094019391830191830161222c565b50809450505050509295509295909350565b6000806000806000610280808789031215612276578384fd5b61227f87611e72565b9550602061228e818901611e72565b955061229d8960408a01611d1c565b94506122ad896101208a01611e0c565b9350886101df8901126122be578283fd5b6122c860c0612b0e565b806101c08a018b858c0111156122dc578586fd5b8594505b600685101561224b5780518352600194909401939183019183016122e0565b6000806000610520808587031215612315578182fd5b845160058110612323578283fd5b8094505060208086015161233681612b7c565b9350605f86018713612346578283fd5b6123516104e0612b0e565b806040880189858a011115612364578586fd5b8594505b6027851015612387578051835260019490940193918301918301612368565b50809450505050509250925092565b600080604083850312156123a8578182fd5b825191506123b860208401611e72565b90509250929050565b600080604083850312156123d3578182fd5b505080516020909101519092909150565b6000806000606084860312156123f8578081fd5b8351925060208401519150604084015190509250925092565b60008060008060008060008060006101208a8c03121561242f578687fd5b8951985060208a0151975060408a0151965060608a0151955060808a0151945061245b60a08b01611e72565b935061246960c08b01611e72565b925061247760e08b01611e72565b91506101008a015190509295985092959850929598565b60006020828403121561249f578081fd5b815167ffffffffffffffff808211156124b6578283fd5b818401915084601f8301126124c9578283fd5b8151818111156124d557fe5b6124e8601f8201601f1916602001612b0e565b91508082528560208285010111156124fe578384fd5b61250f816020840160208601612b50565b50949350505050565b6001600160a01b03169052565b8060005b60078110156125515781516001600160a01b0316845260209384019390910190600101612529565b50505050565b8060005b602781101561255157815184526020938401939091019060010161255b565b8060005b600581101561255157815184526020938401939091019060010161257e565b6000815180845260208085018081965082840281019150828601855b8581101561268957828403895281516106006125d68683516126f9565b868201516125e688880182612518565b506040808301516125f982890182612557565b5050606082015161052087015260808201518161054088015261261e82880182612707565b91505060a08201516126346105608801826126f3565b5060c08201516126486105808801826126f3565b5060e08201516105a08701526101008201516105c087015261012082015191506126766105e08701836126f3565b99860199945050908401906001016125b9565b5091979650505050505050565b8060005b600681101561255157815184526020938401939091019060010161269a565b6000815180845260208085019450808401835b838110156126e8578151875295820195908201906001016126cc565b509495945050505050565b15159052565b6005811061270357fe5b9052565b6000815180845261271f816020860160208601612b50565b601f01601f19169290920160200192915050565b60008251612745818460208701612b50565b9190910192915050565b6001600160a01b0391909116815260200190565b6001600160a01b03929092168252602082015260400190565b606080825284519082018190526000906020906080840190828801845b828110156127b7578151151584529284019290840190600101612799565b50505083810382850152855180825286830191830190845b818110156127eb578351835292840192918401916001016127cf565b505084810360408601526127ff81876126b9565b98975050505050505050565b901515815260200190565b60006040808301851515845260208281860152818651808452606093508387019150828801865b8281101561288a57815180516001600160a01b0316855285810151868601528781015188860152868101511515878601526080908101519085015260a0909301929084019060010161283d565b50919998505050505050505050565b921515835260208301919091521515604082015260600190565b92151583526020830191909152604082015260600190565b931515845260208401929092526040830152606082015260800190565b600061014082019050831515825282516020830152602083015160408301526040830151606083015260608301516080830152608083015160a083015260a0830151151560c083015260c0830151151560e083015260e0830151610100612951818501836126f3565b8085015161012085015250509392505050565b600083151582526040602083015282511515604083015260208301511515606083015260408301516129996080840182612525565b5060608301516129ad61016084018261257a565b5060808301516129c1610200840182612696565b5060a08301516102c0838101526129dc61030084018261259d565b905060c084015161250f6102e08501826126f3565b918252602082015260400190565b6020808252601f908201527f6661696c20746f207265747269657665206d617267696e206163636f756e7400604082015260600190565b60208082526014908201527f6d616c666f726d656420696e7075742064617461000000000000000000000000604082015260600190565b60208082526010908201527f73796d626f6c206e6f7420666f756e6400000000000000000000000000000000604082015260600190565b90815260200190565b9182526001600160a01b0316602082015260400190565b9485526001600160a01b0393841660208601526040850192909252909116606083015263ffffffff16608082015260a00190565b9283526020830191909152604082015260600190565b60405181810167ffffffffffffffff81118282101715612b2a57fe5b604052919050565b600067ffffffffffffffff821115612b4657fe5b5060209081020190565b60005b83811015612b6b578181015183820152602001612b53565b838111156125515750506000910152565b6001600160a01b0381168114612b9157600080fd5b5056fe5369676e6564536166654d6174683a206164646974696f6e206f766572666c6f775369676e6564536166654d6174683a206d756c7469706c69636174696f6e206f766572666c6f775369676e6564536166654d6174683a207375627472616374696f6e206f766572666c6f77a2646970667358221220c1bedaacbd593b35fe56dfc179eb3bfa8c3b9cf877c798f3d047ffb28574f5da64736f6c63430007040033",
  "linkReferences": {},
  "deployedLinkReferences": {}
}