{
  "_format": "hh-sol-artifact-1",
  "contractName": "UniswapV3Tool",
  "sourceName": "contracts/oracle/uniswap/UniswapV3Tool.sol",
  "abi": [
    {
      "inputs": [
        {
          "internalType": "address",
          "name": "factory",
          "type": "address"
        },
        {
          "internalType": "address[]",
          "name": "path",
          "type": "address[]"
        },
        {
          "internalType": "uint24[]",
          "name": "fees",
          "type": "uint24[]"
        }
      ],
      "name": "getPrice",
      "outputs": [
        {
          "internalType": "int256",
          "name": "",
          "type": "int256"
        }
      ],
      "stateMutability": "view",
      "type": "function"
    },
    {
      "inputs": [
        {
          "internalType": "address",
          "name": "factory",
          "type": "address"
        },
        {
          "internalType": "address[]",
          "name": "path",
          "type": "address[]"
        },
        {
          "internalType": "uint24[]",
          "name": "fees",
          "type": "uint24[]"
        },
        {
          "internalType": "uint16",
          "name": "observationCardinalityNext",
          "type": "uint16"
        }
      ],
      "name": "increaseObservationCardinalityNext",
      "outputs": [
        {
          "internalType": "uint256",
          "name": "totalIncreasedObservationCardinalityNext",
          "type": "uint256"
        }
      ],
      "stateMutability": "nonpayable",
      "type": "function"
    }
  ],
  "bytecode": "0x608060405234801561001057600080fd5b506112a4806100206000396000f3fe608060405234801561001057600080fd5b50600436106100365760003560e01c806384aa6d5b1461003b578063c16a805414610184575b600080fd5b6101726004803603606081101561005157600080fd5b6001600160a01b03823516919081019060408101602082013564010000000081111561007c57600080fd5b82018360208201111561008e57600080fd5b803590602001918460208302840111640100000000831117156100b057600080fd5b919080806020026020016040519081016040528093929190818152602001838360200280828437600092019190915250929594936020810193503591505064010000000081111561010057600080fd5b82018360208201111561011257600080fd5b8035906020019184602083028401116401000000008311171561013457600080fd5b9190808060200260200160405190810160405280939291908181526020018383602002808284376000920191909152509295506102c1945050505050565b60408051918252519081900360200190f35b6101726004803603608081101561019a57600080fd5b6001600160a01b0382351691908101906040810160208201356401000000008111156101c557600080fd5b8201836020820111156101d757600080fd5b803590602001918460208302840111640100000000831117156101f957600080fd5b919080806020026020016040519081016040528093929190818152602001838360200280828437600092019190915250929594936020810193503591505064010000000081111561024957600080fd5b82018360208201111561025b57600080fd5b8035906020019184602083028401116401000000008311171561027d57600080fd5b9190808060200260200160405190810160405280939291908181526020018383602002808284376000920191909152509295505050903561ffff16915061062e9050565b8151600090600281101561031c576040805162461bcd60e51b815260206004820152601360248201527f70617468732061726520746f6f2073686f727400000000000000000000000000604482015290519081900360640190fd5b82516001820314610374576040805162461bcd60e51b815260206004820152601d60248201527f706174687320616e64206665657320617265206d69736d617463686564000000604482015290519081900360640190fd5b600084600183038151811061038557fe5b60200260200101516001600160a01b031663313ce5676040518163ffffffff1660e01b815260040160206040518083038186803b1580156103c557600080fd5b505afa1580156103d9573d6000803e3d6000fd5b505050506040513d60208110156103ef57600080fd5b505185519091506000908690829061040357fe5b60200260200101516001600160a01b031663313ce5676040518163ffffffff1660e01b815260040160206040518083038186803b15801561044357600080fd5b505afa158015610457573d6000803e3d6000fd5b505050506040513d602081101561046d57600080fd5b50519050601260ff831611801590610489575060128160ff1611155b6104da576040805162461bcd60e51b815260206004820152601260248201527f646563696d616c73206578636565642031380000000000000000000000000000604482015290519081900360640190fd5b60ff6012839003820116600a0a60005b6001850381101561060e5760006105478a6105428b858151811061050a57fe5b60200260200101518c866001018151811061052157fe5b60200260200101518c878151811061053557fe5b6020026020010151610832565b610888565b905061055b816001600160a01b0316610984565b6105ac576040805162461bcd60e51b815260206004820152600f60248201527f706f6f6c206e6f74206578697374730000000000000000000000000000000000604482015290519081900360640190fd5b60006105b982600161098a565b905060006105f282868d87815181106105ce57fe5b60200260200101518e88600101815181106105e557fe5b6020026020010151610cbe565b90506105fd81610de2565b945050600190920191506104ea9050565b506fffffffffffffffffffffffffffffffff1693505050505b9392505050565b82516000906002811015610689576040805162461bcd60e51b815260206004820152601360248201527f70617468732061726520746f6f2073686f727400000000000000000000000000604482015290519081900360640190fd5b835160018203146106e1576040805162461bcd60e51b815260206004820152601d60248201527f706174687320616e64206665657320617265206d69736d617463686564000000604482015290519081900360640190fd5b60005b6001820381101561082857600061072f8861054289858151811061070457fe5b60200260200101518a866001018151811061071b57fe5b60200260200101518a878151811061053557fe5b90506000816001600160a01b0316633850c7bd6040518163ffffffff1660e01b815260040160e06040518083038186803b15801561076c57600080fd5b505afa158015610780573d6000803e3d6000fd5b505050506040513d60e081101561079657600080fd5b5060800151905061ffff80821690871611156107b85780860361ffff16850194505b816001600160a01b03166332148f67876040518263ffffffff1660e01b8152600401808261ffff168152602001915050600060405180830381600087803b15801561080257600080fd5b505af1158015610816573d6000803e3d6000fd5b5050600190940193506106e492505050565b5050949350505050565b61083a611227565b826001600160a01b0316846001600160a01b03161115610858579192915b50604080516060810182526001600160a01b03948516815292909316602083015262ffffff169181019190915290565b600081602001516001600160a01b031682600001516001600160a01b0316106108b057600080fd5b50805160208083015160409384015184516001600160a01b0394851681850152939091168385015262ffffff166060808401919091528351808403820181526080840185528051908301207fff0000000000000000000000000000000000000000000000000000000000000060a085015294901b6bffffffffffffffffffffffff191660a183015260b58201939093527fe34f199b19b2b4f47f68442619d555527d244f78a3297ea89325f843f87b8b5460d5808301919091528251808303909101815260f5909101909152805191012090565b3b151590565b600063ffffffff82166109e4576040805162461bcd60e51b815260206004820152600260248201527f4250000000000000000000000000000000000000000000000000000000000000604482015290519081900360640190fd5b60408051600280825260608083018452926020830190803683370190505090508281600081518110610a1257fe5b602002602001019063ffffffff16908163ffffffff1681525050600081600181518110610a3b57fe5b63ffffffff9092166020928302919091018201526040517f883bdbfd000000000000000000000000000000000000000000000000000000008152600481018281528351602483015283516060936001600160a01b0389169363883bdbfd9387939092839260440191858201910280838360005b83811015610ac6578181015183820152602001610aae565b505050509050019250505060006040518083038186803b158015610ae957600080fd5b505afa158015610afd573d6000803e3d6000fd5b505050506040513d6000823e601f3d908101601f191682016040908152811015610b2657600080fd5b8101908080516040519392919084640100000000821115610b4657600080fd5b908301906020820185811115610b5b57600080fd5b8251866020820283011164010000000082111715610b7857600080fd5b82525081516020918201928201910280838360005b83811015610ba5578181015183820152602001610b8d565b5050505090500160405260200180516040519392919084640100000000821115610bce57600080fd5b908301906020820185811115610be357600080fd5b8251866020820283011164010000000082111715610c0057600080fd5b82525081516020918201928201910280838360005b83811015610c2d578181015183820152602001610c15565b50505050905001604052505050509050600081600081518110610c4c57fe5b602002602001015182600181518110610c6157fe5b60200260200101510390508463ffffffff168160060b81610c7e57fe5b05935060008160060b128015610ca857508463ffffffff168160060b81610ca157fe5b0760060b15155b15610cb557600019909301925b50505092915050565b600080610cca86610e2a565b90506fffffffffffffffffffffffffffffffff6001600160a01b03821611610d54576001600160a01b0380821680029084811690861610610d2b57610d26600160c01b876fffffffffffffffffffffffffffffffff1683611178565b610d4c565b610d4c81876fffffffffffffffffffffffffffffffff16600160c01b611178565b925050610dd9565b6000610d736001600160a01b0383168068010000000000000000611178565b9050836001600160a01b0316856001600160a01b031610610db457610daf600160801b876fffffffffffffffffffffffffffffffff1683611178565b610dd5565b610dd581876fffffffffffffffffffffffffffffffff16600160801b611178565b9250505b50949350505050565b6000600160801b8210610e265760405162461bcd60e51b81526004018080602001828103825260278152602001806112486027913960400191505060405180910390fd5b5090565b60008060008360020b12610e41578260020b610e49565b8260020b6000035b9050620d89e8811115610ea3576040805162461bcd60e51b815260206004820152600160248201527f5400000000000000000000000000000000000000000000000000000000000000604482015290519081900360640190fd5b600060018216610eb757600160801b610ec9565b6ffffcb933bd6fad37aa2d162d1a5940015b70ffffffffffffffffffffffffffffffffff1690506002821615610efd576ffff97272373d413259a46990580e213a0260801c5b6004821615610f1c576ffff2e50f5f656932ef12357cf3c7fdcc0260801c5b6008821615610f3b576fffe5caca7e10e4e61c3624eaa0941cd00260801c5b6010821615610f5a576fffcb9843d60f6159c9db58835c9266440260801c5b6020821615610f79576fff973b41fa98c081472e6896dfb254c00260801c5b6040821615610f98576fff2ea16466c96a3843ec78b326b528610260801c5b6080821615610fb7576ffe5dee046a99a2a811c461f1969c30530260801c5b610100821615610fd7576ffcbe86c7900a88aedcffc83b479aa3a40260801c5b610200821615610ff7576ff987a7253ac413176f2b074cf7815e540260801c5b610400821615611017576ff3392b0822b70005940c7a398e4b70f30260801c5b610800821615611037576fe7159475a2c29b7443b29c7fa6e889d90260801c5b611000821615611057576fd097f3bdfd2022b8845ad8f792aa58250260801c5b612000821615611077576fa9f746462d870fdf8a65dc1f90e061e50260801c5b614000821615611097576f70d869a156d2a1b890bb3df62baf32f70260801c5b6180008216156110b7576f31be135f97d08fd981231505542fcfa60260801c5b620100008216156110d8576f09aa508b5b7a84e1c677de54f3e99bc90260801c5b620200008216156110f8576e5d6af8dedb81196699c329225ee6040260801c5b62040000821615611117576d2216e584f5fa1ea926041bedfe980260801c5b62080000821615611134576b048a170391f7dc42444e8fa20260801c5b60008460020b131561114f57806000198161114b57fe5b0490505b640100000000810615611163576001611166565b60005b60ff16602082901c0192505050919050565b60008080600019858709868602925082811090839003039050806111ae57600084116111a357600080fd5b508290049050610627565b8084116111ba57600080fd5b6000848688096000868103871696879004966002600389028118808a02820302808a02820302808a02820302808a02820302808a02820302808a02909103029181900381900460010186841190950394909402919094039290920491909117919091029150509392505050565b60408051606081018252600080825260208201819052918101919091529056fe53616665436173743a2076616c756520646f65736e27742066697420696e203132382062697473a2646970667358221220efdb09657066f14d525ecfb2e6364b4e65106de610558a793d126765cd222ab864736f6c63430007040033",
  "linkReferences": {},
  "deployedLinkReferences": {}
}