{
  "_format": "hh-sol-artifact-1",
  "contractName": "LiquidityPoolModule",
  "sourceName": "contracts/module/LiquidityPoolModule.sol",
  "abi": [
    {
      "anonymous": false,
      "inputs": [
        {
          "indexed": false,
          "internalType": "uint256",
          "name": "perpetualIndex",
          "type": "uint256"
        },
        {
          "indexed": true,
          "internalType": "address",
          "name": "keeper",
          "type": "address"
        }
      ],
      "name": "AddAMMKeeper",
      "type": "event"
    },
    {
      "anonymous": false,
      "inputs": [
        {
          "indexed": true,
          "internalType": "address",
          "name": "trader",
          "type": "address"
        },
        {
          "indexed": false,
          "internalType": "int256",
          "name": "addedCash",
          "type": "int256"
        },
        {
          "indexed": false,
          "internalType": "int256",
          "name": "mintedShare",
          "type": "int256"
        },
        {
          "indexed": false,
          "internalType": "int256",
          "name": "addedPoolMargin",
          "type": "int256"
        }
      ],
      "name": "AddLiquidity",
      "type": "event"
    },
    {
      "anonymous": false,
      "inputs": [
        {
          "indexed": false,
          "internalType": "uint256",
          "name": "perpetualIndex",
          "type": "uint256"
        },
        {
          "indexed": true,
          "internalType": "address",
          "name": "keeper",
          "type": "address"
        }
      ],
      "name": "AddTraderKeeper",
      "type": "event"
    },
    {
      "anonymous": false,
      "inputs": [
        {
          "indexed": true,
          "internalType": "address",
          "name": "newOperator",
          "type": "address"
        }
      ],
      "name": "ClaimOperator",
      "type": "event"
    },
    {
      "anonymous": false,
      "inputs": [
        {
          "indexed": false,
          "internalType": "uint256",
          "name": "perpetualIndex",
          "type": "uint256"
        },
        {
          "indexed": false,
          "internalType": "address",
          "name": "governor",
          "type": "address"
        },
        {
          "indexed": false,
          "internalType": "address",
          "name": "shareToken",
          "type": "address"
        },
        {
          "indexed": false,
          "internalType": "address",
          "name": "operator",
          "type": "address"
        },
        {
          "indexed": false,
          "internalType": "address",
          "name": "oracle",
          "type": "address"
        },
        {
          "indexed": false,
          "internalType": "address",
          "name": "collateral",
          "type": "address"
        },
        {
          "indexed": false,
          "internalType": "int256[9]",
          "name": "baseParams",
          "type": "int256[9]"
        },
        {
          "indexed": false,
          "internalType": "int256[8]",
          "name": "riskParams",
          "type": "int256[8]"
        }
      ],
      "name": "CreatePerpetual",
      "type": "event"
    },
    {
      "anonymous": false,
      "inputs": [
        {
          "indexed": false,
          "internalType": "int256",
          "name": "amount",
          "type": "int256"
        }
      ],
      "name": "DonateInsuranceFund",
      "type": "event"
    },
    {
      "anonymous": false,
      "inputs": [
        {
          "indexed": true,
          "internalType": "address",
          "name": "operator",
          "type": "address"
        }
      ],
      "name": "OperatorCheckIn",
      "type": "event"
    },
    {
      "anonymous": false,
      "inputs": [
        {
          "indexed": false,
          "internalType": "uint256",
          "name": "perpetualIndex",
          "type": "uint256"
        },
        {
          "indexed": true,
          "internalType": "address",
          "name": "keeper",
          "type": "address"
        }
      ],
      "name": "RemoveAMMKeeper",
      "type": "event"
    },
    {
      "anonymous": false,
      "inputs": [
        {
          "indexed": true,
          "internalType": "address",
          "name": "trader",
          "type": "address"
        },
        {
          "indexed": false,
          "internalType": "int256",
          "name": "returnedCash",
          "type": "int256"
        },
        {
          "indexed": false,
          "internalType": "int256",
          "name": "burnedShare",
          "type": "int256"
        },
        {
          "indexed": false,
          "internalType": "int256",
          "name": "removedPoolMargin",
          "type": "int256"
        }
      ],
      "name": "RemoveLiquidity",
      "type": "event"
    },
    {
      "anonymous": false,
      "inputs": [
        {
          "indexed": false,
          "internalType": "uint256",
          "name": "perpetualIndex",
          "type": "uint256"
        },
        {
          "indexed": true,
          "internalType": "address",
          "name": "keeper",
          "type": "address"
        }
      ],
      "name": "RemoveTraderKeeper",
      "type": "event"
    },
    {
      "anonymous": false,
      "inputs": [],
      "name": "RevokeOperator",
      "type": "event"
    },
    {
      "anonymous": false,
      "inputs": [],
      "name": "RunLiquidityPool",
      "type": "event"
    },
    {
      "anonymous": false,
      "inputs": [
        {
          "indexed": false,
          "internalType": "int256[4]",
          "name": "value",
          "type": "int256[4]"
        }
      ],
      "name": "SetLiquidityPoolParameter",
      "type": "event"
    },
    {
      "anonymous": false,
      "inputs": [
        {
          "indexed": false,
          "internalType": "uint256",
          "name": "perpetualIndex",
          "type": "uint256"
        },
        {
          "indexed": true,
          "internalType": "address",
          "name": "trader",
          "type": "address"
        },
        {
          "indexed": false,
          "internalType": "int256",
          "name": "targetLeverage",
          "type": "int256"
        }
      ],
      "name": "SetTargetLeverage",
      "type": "event"
    },
    {
      "anonymous": false,
      "inputs": [
        {
          "indexed": false,
          "internalType": "int256",
          "name": "amount",
          "type": "int256"
        }
      ],
      "name": "TransferExcessInsuranceFundToLP",
      "type": "event"
    },
    {
      "anonymous": false,
      "inputs": [
        {
          "indexed": true,
          "internalType": "address",
          "name": "newOperator",
          "type": "address"
        }
      ],
      "name": "TransferOperatorTo",
      "type": "event"
    },
    {
      "anonymous": false,
      "inputs": [
        {
          "indexed": false,
          "internalType": "int256",
          "name": "poolMargin",
          "type": "int256"
        }
      ],
      "name": "UpdatePoolMargin",
      "type": "event"
    },
    {
      "inputs": [],
      "name": "MAX_PERPETUAL_COUNT",
      "outputs": [
        {
          "internalType": "uint256",
          "name": "",
          "type": "uint256"
        }
      ],
      "stateMutability": "view",
      "type": "function"
    },
    {
      "inputs": [],
      "name": "OPERATOR_CHECK_IN_TIMEOUT",
      "outputs": [
        {
          "internalType": "uint256",
          "name": "",
          "type": "uint256"
        }
      ],
      "stateMutability": "view",
      "type": "function"
    },
    {
      "inputs": [
        {
          "internalType": "int256[4]",
          "name": "liquidityPoolParams",
          "type": "int256[4]"
        }
      ],
      "name": "validateLiquidityPoolParameter",
      "outputs": [],
      "stateMutability": "pure",
      "type": "function"
    }
  ],
  "bytecode": "0x6163d262000027600b82828239805160001a60731461001a57fe5b30600052607381538281f3fe73000000000000000000000000000000000000000030146080604052600436106103765760003560e01c806383a1eaa8116101dd578063ccef4f111161010e578063e3e28986116100ac578063e8c38c5c11610086578063e8c38c5c14610934578063f20d689614610954578063f95dcd6514610974578063fd2c4b4d1461098757610376565b8063e3e28986146108e1578063e57d06a814610901578063e806e25c1461091457610376565b8063daad7f69116100e8578063daad7f6914610861578063dcaf674914610881578063e15b1547146108a1578063e1858ce9146108c157610376565b8063ccef4f111461080e578063d767897e1461082e578063d94dacbd1461084e57610376565b8063b1a4182a1161017b578063c01fa80811610155578063c01fa808146107a6578063c9ab7571146107c6578063ca66f475146107e6578063cbf231c1146107ee57610376565b8063b1a4182a14610753578063b2f6decc14610766578063bdc5e8491461078657610376565b8063a54b4d78116101b7578063a54b4d78146106e0578063a99d455a14610700578063a9f677f514610720578063ac76a8511461073357610376565b806383a1eaa814610680578063960e38ae146106a0578063990d2052146106c057610376565b80633d92b9a0116102b75780635980576b1161025557806367d0b2531161022f57806367d0b2531461060d578063690501e31461062d578063697c66881461064d57806370f546ce1461066d57610376565b80635980576b146105ba5780635a8610b4146105da578063638b5e91146105fa57610376565b806348d21d001161029157806348d21d001461053a57806348ea454c1461055a5780634e74d9301461057a5780634f28feeb1461059a57610376565b80633d92b9a0146104e7578063444673891461050757806344a9d80a1461052757610376565b80632d7966d81161032457806332958b4b116102fe57806332958b4b14610481578063374331ff1461049457806338a825ba146104a757806338dbaf71146104c757610376565b80632d7966d8146104395780632ef9dab914610459578063316ad4d71461047957610376565b8063099278b911610355578063099278b9146103e65780632621d4c8146103f9578063299cbfda1461041957610376565b8062addc091461037b57806301ec9bde146103a4578063028c4ff6146103c6575b600080fd5b61038e610389366004615489565b61099a565b60405161039b91906156e0565b60405180910390f35b8180156103b057600080fd5b506103c46103bf36600461511d565b610a76565b005b8180156103d257600080fd5b506103c46103e13660046152b4565b610d48565b61038e6103f43660046154d0565b610ed9565b81801561040557600080fd5b506103c4610414366004615237565b610fc7565b81801561042557600080fd5b506103c4610434366004614fca565b6110c1565b81801561044557600080fd5b506103c46104543660046151cf565b6111d9565b81801561046557600080fd5b506103c461047436600461527c565b6116ad565b61038e611827565b61038e61048f36600461555d565b61182e565b61038e6104a2366004614fb2565b6118cf565b8180156104b357600080fd5b506103c46104c236600461536a565b6118e8565b8180156104d357600080fd5b506103c46104e236600461527c565b6119aa565b8180156104f357600080fd5b506103c461050236600461525b565b611a66565b81801561051357600080fd5b506103c461052236600461545e565b611b27565b61038e610535366004614fb2565b611b5a565b81801561054657600080fd5b506103c461055536600461545e565b611b6a565b81801561056657600080fd5b506103c461057536600461527c565b611b98565b81801561058657600080fd5b506103c4610595366004614fb2565b611c67565b8180156105a657600080fd5b506103c46105b5366004614fca565b611d50565b8180156105c657600080fd5b506103c46105d5366004614fb2565b611e17565b8180156105e657600080fd5b506103c46105f53660046152b4565b611e6a565b61038e61060836600461555d565b611eef565b61062061061b3660046152b4565b611f5a565b60405161039b91906156d5565b81801561063957600080fd5b506103c4610648366004615198565b611fb9565b81801561065957600080fd5b506103c4610668366004615334565b61202e565b61038e61067b36600461525b565b6120b4565b81801561068c57600080fd5b506103c461069b366004615198565b612158565b8180156106ac57600080fd5b506103c46106bb36600461525b565b6122ca565b8180156106cc57600080fd5b506103c46106db366004614fb2565b6123d1565b8180156106ec57600080fd5b506103c46106fb3660046152b4565b612586565b81801561070c57600080fd5b506103c461071b366004614fb2565b61271c565b61038e61072e366004615528565b612a3a565b81801561073f57600080fd5b506103c461074e366004615198565b612a7a565b61038e610761366004614fb2565b612af9565b81801561077257600080fd5b506103c461078136600461527c565b612b83565b81801561079257600080fd5b506103c46107a1366004614fb2565b612c6f565b8180156107b257600080fd5b506103c46107c136600461527c565b612d14565b8180156107d257600080fd5b506103c46107e1366004615035565b612dd5565b61038e613028565b8180156107fa57600080fd5b5061038e61080936600461525b565b61302d565b81801561081a57600080fd5b5061038e61082936600461525b565b6131cb565b81801561083a57600080fd5b506103c4610849366004615198565b6132a0565b6103c461085c366004614e9e565b61337c565b81801561086d57600080fd5b506103c461087c3660046152b4565b6133ee565b81801561088d57600080fd5b506103c461089c366004615198565b6134f5565b8180156108ad57600080fd5b506103c46108bc3660046152e2565b6137bc565b6108d46108cf366004614fb2565b61386d565b60405161039b9190615642565b8180156108ed57600080fd5b506103c46108fc36600461520b565b6138f7565b61062061090f366004614fee565b61396c565b81801561092057600080fd5b506103c461092f36600461525b565b613a28565b81801561094057600080fd5b506103c461094f3660046152b4565b613bf7565b81801561096057600080fd5b506103c461096f3660046153c6565b613c86565b61038e6109823660046155a3565b613d0c565b61038e610995366004615528565b613e29565b6000806109a687613e80565b905060006109b48888613eae565b9050806109e1576109d860006109d26109cd8b8b613ecf565b613f09565b90613f16565b92505050610a6d565b6109f5866109ef8a8a613ecf565b90613f2e565b9250610a0f610a08826109ef8888613f63565b8490613f63565b92508015610a2d576012880154610a2a90610a089088613f2e565b92505b610a41610a3a8288613f63565b8490613fc8565b9250610a5b610a546109cd8a8a8661400e565b849061404c565b9250610a68836000613f16565b925050505b95945050505050565b603086600f015410610aa35760405162461bcd60e51b8152600401610a9a906159df565b60405180910390fd5b600f86015460008181526010880160205260409081902090517f445ab49400000000000000000000000000000000000000000000000000000000815273__$74e2ba5c0a92ec095c0918ea877fa9275f$__9063445ab49490610b1590849086908c908c908c908c908c90600401616188565b60006040518083038186803b158015610b2d57600080fd5b505af4158015610b41573d6000803e3d6000fd5b5050505060008860000160029054906101000a90046001600160a01b03166001600160a01b03166307c4d4866040518163ffffffff1660e01b815260040160206040518083038186803b158015610b9757600080fd5b505afa158015610bab573d6000803e3d6000fd5b505050506040513d601f19601f82011682018060405250810190610bcf9190614e82565b6040517fb71906580000000000000000000000000000000000000000000000000000000081529091506001600160a01b0382169063b719065890610c199030908790600401615694565b600060405180830381600087803b158015610c3357600080fd5b505af1158015610c47573d6000803e3d6000fd5b50508a5460ff16159150610cbf90505760405163c94606dd60e01b815273__$74e2ba5c0a92ec095c0918ea877fa9275f$__9063c94606dd90610c8e9085906004016156e0565b60006040518083038186803b158015610ca657600080fd5b505af4158015610cba573d6000803e3d6000fd5b505050505b600f890180546001019055600389015460048a01547f41df4ad22b8757b8d3d9956421af0775afd830a22bc373053fa587a2f64092849185916001600160a01b039182169116610d0e8d61405c565b60088e0154604051610d3595949392918f916001600160a01b03909116908f908f906161fb565b60405180910390a1505050505050505050565b83600f01548310610d6b5760405162461bcd60e51b8152600401610a9a90615fb2565b610d7784848484611e6a565b60008381526010850160205260409081902090517fd13cfaa900000000000000000000000000000000000000000000000000000000815273__$74e2ba5c0a92ec095c0918ea877fa9275f$__9163d13cfaa991610ddb9190869086906004016160c5565b60206040518083038186803b158015610df357600080fd5b505af4158015610e07573d6000803e3d6000fd5b505050506040513d601f19601f82011682018060405250810190610e2b9190614eb9565b15610ed35783546040517f439adb78000000000000000000000000000000000000000000000000000000008152620100009091046001600160a01b03169063439adb7890610e7f9085908790600401615694565b602060405180830381600087803b158015610e9957600080fd5b505af1158015610ead573d6000803e3d6000fd5b505050506040513d601f19601f82011682018060405250810190610ed19190614eb9565b505b50505050565b600080610ee589613e80565b90506000610ef48a8a84614082565b90506000610f028b8b6140b9565b905060008113610f245760405162461bcd60e51b8152600401610a9a90615f1e565b610f398382610f3289614175565b9190614191565b9350610f4f89610f498d8d613eae565b90613f63565b15801590610f5b575086155b15610f8257610f7b88610f49610f71868d613f2e565b610f49888a6141ce565b9350610fa0565b610f9d82610f498d60120154876141ce90919063ffffffff16565b93505b610fb8610fb16109cd8d8d8761400e565b859061404c565b9b9a5050505050505050505050565b600f82015460005b81811015610ed357600081815260108501602052604090206002600182015460ff166004811115610ffc57fe5b1461100757506110b9565b61101081614233565b8060010160019054906101000a90046001600160a01b03166001600160a01b031663d1cc99766040518163ffffffff1660e01b8152600401602060405180830381600087803b15801561106257600080fd5b505af1158015611076573d6000803e3d6000fd5b505050506040513d601f19601f8201168201806040525081019061109a9190614eb9565b80156110a4575083155b156110b7576110b7858260000154611a66565b505b600101610fcf565b6110ca826142d7565b6001600160a01b0316816001600160a01b0316146110fa5760405162461bcd60e51b8152600401610a9a906158a6565b6001820180546001600160a01b0319166001600160a01b03831617905561112442620d2f006142fd565b600c8301556002820180546001600160a01b03191690558154604051626e20ad60e11b8152620100009091046001600160a01b03169062dc415a9061116f9030908590600401615656565b600060405180830381600087803b15801561118957600080fd5b505af115801561119d573d6000803e3d6000fd5b50506040516001600160a01b03841692507f52663c8b1b35a6c6b1a720c76465d84626b103e3990f2f59618125f73c588cf09150600090a25050565b600480850154604080517f18160ddd00000000000000000000000000000000000000000000000000000000815290516001600160a01b039092169260009261127c9285926318160ddd928282019260209290829003018186803b15801561123f57600080fd5b505afa158015611253573d6000803e3d6000fd5b505050506040513d601f19601f820116820180604052508101906112779190614f13565b614357565b905060008080851580156112905750600087135b15611368576040517feeffc15d00000000000000000000000000000000000000000000000000000000815273__$9dbf359c583e30ecde0fd5d5870700bb49$__9063eeffc15d906112e9908c9088908c906004016156e9565b60806040518083038186803b15801561130157600080fd5b505af4158015611315573d6000803e3d6000fd5b505050506040513d601f19601f820116820180604052508101906113399190614f7d565b92985090945092509050600086136113635760405162461bcd60e51b8152600401610a9a906159a8565b611461565b600086138015611376575086155b15611449576040517f68dddaa600000000000000000000000000000000000000000000000000000000815273__$9dbf359c583e30ecde0fd5d5870700bb49$__906368dddaa6906113cf908c9088908b906004016156e9565b60806040518083038186803b1580156113e757600080fd5b505af41580156113fb573d6000803e3d6000fd5b505050506040513d601f19601f8201168201806040525081019061141f9190614f7d565b92995090945092509050600087136113635760405162461bcd60e51b8152600401610a9a90615ae1565b60405162461bcd60e51b8152600401610a9a90615de5565b6040517f70a082310000000000000000000000000000000000000000000000000000000081526001600160a01b038616906370a08231906114a6908b90600401615642565b60206040518083038186803b1580156114be57600080fd5b505afa1580156114d2573d6000803e3d6000fd5b505050506040513d601f19601f820116820180604052508101906114f69190614f13565b6114ff8861439b565b111561151d5760405162461bcd60e51b8152600401610a9a90615cac565b600061152d83610f498987613f63565b90506115388a611b5a565b8113156115575760405162461bcd60e51b8152600401610a9a90615aaa565b856001600160a01b0316639dc29fac8a6115708b61439b565b6040518363ffffffff1660e01b815260040161158d929190615694565b600060405180830381600087803b1580156115a757600080fd5b505af11580156115bb573d6000803e3d6000fd5b50506040516346a8e88f60e01b815273__$aa0386c1927da8134897d9c67341209872$__92506346a8e88f91506115fa908d908d908c906004016160c5565b60006040518083038186803b15801561161257600080fd5b505af4158015611626573d6000803e3d6000fd5b50505060128b0154611639915085613f63565b60128b015560138a015461164d9084613f63565b60138b015561165c8a826143f2565b886001600160a01b03167f3713fb0b3de95a2c80ba2e2cf5229918ac276b7d04f1526616e03c37b309ba58888a85604051611699939291906156e9565b60405180910390a250505050505050505050565b60008281526010840160205260408120601281015490911280156116d957508060120154816002015412155b156116ee576116ee8484848460120154613bf7565b6116fa8160300161442e565b158061181857506040517fd87384fe00000000000000000000000000000000000000000000000000000000815273__$74e2ba5c0a92ec095c0918ea877fa9275f$__90635e91c9f8908390839063d87384fe9061175b9084906004016156e0565b60206040518083038186803b15801561177357600080fd5b505af4158015611787573d6000803e3d6000fd5b505050506040513d601f19601f820116820180604052508101906117ab9190614e82565b6040518363ffffffff1660e01b81526004016117c89291906160e4565b60206040518083038186803b1580156117e057600080fd5b505af41580156117f4573d6000803e3d6000fd5b505050506040513d601f19601f820116820180604052508101906118189190614eb9565b15610ed357610ed38484613a28565b620d2f0081565b60008061183a87613e80565b6020870151600b8901549192509061185f90611857908390613f2e565b885190613f63565b925080611874576109d860006109d285613f09565b61187e8387613f2e565b9250611891610a08826109ef8888613f63565b925080156118af5760128801546118ac90610a089088613f2e565b92505b6118bc610a3a8288613f63565b9250610a5b610a546109cd8a8a86613e29565b60168101546000906118e2906001614439565b92915050565b84600f0154841061190b5760405162461bcd60e51b8152600401610a9a90615fb2565b60008481526010860160205260409081902090517f82d7b2ba00000000000000000000000000000000000000000000000000000000815273__$74e2ba5c0a92ec095c0918ea877fa9275f$__906382d7b2ba90611972908490889088908890600401616110565b60006040518083038186803b15801561198a57600080fd5b505af415801561199e573d6000803e3d6000fd5b50505050505050505050565b82600f015482106119cd5760405162461bcd60e51b8152600401610a9a90615fb2565b60008281526010840160205260409081902090517f5b30d53600000000000000000000000000000000000000000000000000000000815273__$74e2ba5c0a92ec095c0918ea877fa9275f$__90635b30d53690611a3090849086906004016160e4565b60006040518083038186803b158015611a4857600080fd5b505af4158015611a5c573d6000803e3d6000fd5b5050505050505050565b81600f01548110611a895760405162461bcd60e51b8152600401610a9a90615fb2565b611a93828261302d565b5060008181526010830160205260409081902090516313743a2360e31b815273__$74e2ba5c0a92ec095c0918ea877fa9275f$__91639ba1d11891611adb91906004016156e0565b60006040518083038186803b158015611af357600080fd5b505af4158015611b07573d6000803e3d6000fd5b50505050611b16826002614449565b611b2357611b23826144ad565b5050565b80611b3157611b55565b60008281526010840160205260409020611b4b9082614556565b611b5583826143f2565b505050565b60006118e28283600f01546120b4565b80611b7457611b55565b60008281526010840160205260409020611b8e9082614592565b611b5583826145e9565b82600f01548210611bbb5760405162461bcd60e51b8152600401610a9a90615fb2565b60008281526010840160205260409020603901611bd88183614619565b611bf45760405162461bcd60e51b8152600401610a9a906158dd565b6000611c00828461462e565b905080611c1f5760405162461bcd60e51b8152600401610a9a90615d51565b826001600160a01b03167fec00c45379d4f167916464b153f75be2434e0ca4c60946c0f99723f3090cf3b285604051611c5891906156e0565b60405180910390a25050505050565b600f81015480611c895760405162461bcd60e51b8152600401610a9a90615b16565b60005b81811015611d1757600081815260108401602052604090819020905163c94606dd60e01b815273__$74e2ba5c0a92ec095c0918ea877fa9275f$__9163c94606dd91611cdb91906004016156e0565b60006040518083038186803b158015611cf357600080fd5b505af4158015611d07573d6000803e3d6000fd5b505060019092019150611c8c9050565b50815460ff191660011782556040517f7b14db60328776e0e3ff7638ea4234333f5ba91c16cad0a6112c56c288f1bfde90600090a15050565b6001600160a01b038116611d765760405162461bcd60e51b8152600401610a9a90615c75565b611d7f8261405c565b6001600160a01b0316816001600160a01b03161415611db05760405162461bcd60e51b8152600401610a9a90615a4d565b6002820180546001600160a01b0319166001600160a01b038316179055611dda42620d2f006142fd565b600c8301556040516001600160a01b038216907f865f83d7f78904d112c0cb736765ebd7d94da5905d36dca4df70d2d188fd517c90600090a25050565b611e2442620d2f006142fd565b600c820155611e328161405c565b6001600160a01b03167f838ffdc993783254a13d0672ce593ffa0dffb3219bab649f2f9f572f4d0fb37860405160405180910390a250565b604051631885d4f160e01b815273__$aa0386c1927da8134897d9c67341209872$__90631885d4f190611ea5908790869086906004016160c5565b60006040518083038186803b158015611ebd57600080fd5b505af4158015611ed1573d6000803e3d6000fd5b50505060008481526010860160205260409020610ed3915082614556565b6000806000611f14611f0e878960200151613f6390919063ffffffff16565b87614643565b9150915081600014158015611f27575080155b15611f4057611f39888884888861182e565b9250611f4f565b610a688888888886868a613d0c565b505095945050505050565b6000838152601085016020526040812081611f7e611f788387613eae565b856146a1565b90506000611f8b83613e80565b905081611fa257611f9d8387836146ba565b611fad565b611fad8387836146f2565b98975050505050505050565b604051631885d4f160e01b815273__$aa0386c1927da8134897d9c67341209872$__90631885d4f190611ff4908690869086906004016160c5565b60006040518083038186803b15801561200c57600080fd5b505af4158015612020573d6000803e3d6000fd5b50505050611b5583826145e9565b82600f015482106120515760405162461bcd60e51b8152600401610a9a90615fb2565b60008281526010840160205260409081902090517ff2598d8b00000000000000000000000000000000000000000000000000000000815273__$74e2ba5c0a92ec095c0918ea877fa9275f$__9063f2598d8b90611a3090849086906004016160fb565b600f820154600090815b8181101561213f5760008181526010860160205260409020848214806120f757506002600182015460ff1660048111156120f457fe5b14155b156121025750612137565b600061210d82613e80565b905061213261212b61212084308561470a565b610f49853086614082565b86906141ce565b945050505b6001016120be565b5060098401546121509083906141ce565b949350505050565b600081136121785760405162461bcd60e51b8152600401610a9a9061586f565b604051631ee5dd3960e31b815260009073__$9dbf359c583e30ecde0fd5d5870700bb49$__9063f72ee9c8906121b6908790859087906004016156e9565b604080518083038186803b1580156121cd57600080fd5b505af41580156121e1573d6000803e3d6000fd5b505050506040513d601f19601f820116820180604052508101906122059190614f5a565b604051631885d4f160e01b815290925073__$aa0386c1927da8134897d9c67341209872$__9150631885d4f190612244908790879087906004016160c5565b60006040518083038186803b15801561225c57600080fd5b505af4158015612270573d6000803e3d6000fd5b5050505061227e84836145e9565b826001600160a01b03167fc3919ccd011a100c0148bab574a26f47f5db31c2bc16903381f5429a1a4f1f95836000846040516122bc939291906156e9565b60405180910390a250505050565b8082600a0154106122da57611b23565b60006122f661127784600a01548461474290919063ffffffff16565b600f84015490915060005b818110156123c557600081815260108601602052604090206002600182015460ff16600481111561232e57fe5b1461233957506123bd565b6040517f8f27c08f00000000000000000000000000000000000000000000000000000000815273__$74e2ba5c0a92ec095c0918ea877fa9275f$__90638f27c08f9061238b908490889060040161617a565b60006040518083038186803b1580156123a357600080fd5b505af41580156123b7573d6000803e3d6000fd5b50505050505b600101612301565b505050600a9190910155565b6040517fc12b64d5000000000000000000000000000000000000000000000000000000008152600090819073__$9dbf359c583e30ecde0fd5d5870700bb49$__9063c12b64d5906124269086906004016156e0565b604080518083038186803b15801561243d57600080fd5b505af4158015612451573d6000803e3d6000fd5b505050506040513d601f19601f820116820180604052508101906124759190614f2b565b915091507fc7ca5bca6c98d1e97e37f3d5325b86b0ee183f9c17703c11bbc7e1cf4bce480c826040516124a891906156e0565b60405180910390a1806124ba57600091505b600f83015460005b81811015610ed157600081815260108601602052604090206002600182015460ff1660048111156124ef57fe5b146124fa575061257e565b6040517f3d1e253000000000000000000000000000000000000000000000000000000000815273__$74e2ba5c0a92ec095c0918ea877fa9275f$__90633d1e25309061254c908490899060040161617a565b60006040518083038186803b15801561256457600080fd5b505af4158015612578573d6000803e3d6000fd5b50505050505b6001016124c2565b83600f015483106125a95760405162461bcd60e51b8152600401610a9a90615fb2565b600083815260108501602052604090206125c3858561302d565b506040517fc480202a00000000000000000000000000000000000000000000000000000000815273__$74e2ba5c0a92ec095c0918ea877fa9275f$__9063c480202a90612618908490879087906004016160c5565b60206040518083038186803b15801561263057600080fd5b505af4158015612644573d6000803e3d6000fd5b505050506040513d601f19601f820116820180604052508101906126689190614eb9565b156127105784546040517ff81d65f1000000000000000000000000000000000000000000000000000000008152620100009091046001600160a01b03169063f81d65f1906126bc9086908890600401615694565b602060405180830381600087803b1580156126d657600080fd5b505af11580156126ea573d6000803e3d6000fd5b505050506040513d601f19601f8201168201806040525081019061270e9190614eb9565b505b610ed185858585613bf7565b600081600f0154116127405760405162461bcd60e51b8152600401610a9a9061608e565b60008060008084600f0154905060005b818110156127de57600081815260108701602052604090206002600182015460ff16600481111561277d57fe5b1461278857506127d6565b600061279382613e80565b90506127aa6127a383308461479f565b87906141ce565b95506127ba61212b83308461470a565b94506127d16127ca833084614082565b88906141ce565b965050505b600101612750565b5060098501546127ef9085906141ce565b93508284128061288257508460000160029054906101000a90046001600160a01b03166001600160a01b0316634831d32f6040518163ffffffff1660e01b815260040160206040518083038186803b15801561284a57600080fd5b505afa15801561285e573d6000803e3d6000fd5b505050506040513d601f19601f820116820180604052508101906128829190614eb9565b61289e5760405162461bcd60e51b8152600401610a9a9061576d565b6000826128ac5760006128b8565b6128b8858460016147d7565b905060005b82811015612a0357600081815260108801602052604090206002600182015460ff1660048111156128ea57fe5b146128f557506129fb565b600061290082613e80565b9050600061291c85600161291586308761470a565b91906147f5565b9050612929833084614082565b98506000612937828b613f63565b9050600081131561295d5761294d843083614813565b6129588b8683611b27565b61297f565b600081121561297f57612971843083614813565b61297f8b8661055584613f09565b600085815260108c0160205260409081902090516313743a2360e31b815273__$74e2ba5c0a92ec095c0918ea877fa9275f$__91639ba1d118916129c691906004016156e0565b60006040518083038186803b1580156129de57600080fd5b505af41580156129f2573d6000803e3d6000fd5b50505050505050505b6001016128bd565b50600086600901541215612a295760405162461bcd60e51b8152600401610a9a90615e8a565b612a32866144ad565b505050505050565b6000612150612a65612a5d86600b01548660200151613f2e90919063ffffffff16565b855190613f63565b6020850151612a749085613f2e565b906141ce565b80612a8457611b55565b6040516346a8e88f60e01b815273__$aa0386c1927da8134897d9c67341209872$__906346a8e88f90612abf908690869086906004016160c5565b60006040518083038186803b158015612ad757600080fd5b505af4158015612aeb573d6000803e3d6000fd5b50505050611b5583826143f2565b60008160000160029054906101000a90046001600160a01b03166001600160a01b031663492c26b66040518163ffffffff1660e01b815260040160206040518083038186803b158015612b4b57600080fd5b505afa158015612b5f573d6000803e3d6000fd5b505050506040513d601f19601f820116820180604052508101906118e29190614f13565b6001600160a01b038116612ba95760405162461bcd60e51b8152600401610a9a90615fe9565b600082815260108401602052604080822090516324d41bd760e11b815273__$74e2ba5c0a92ec095c0918ea877fa9275f$__916349a837ae91612bf1919086906004016160e4565b60206040518083038186803b158015612c0957600080fd5b505af4158015612c1d573d6000803e3d6000fd5b505050506040513d601f19601f82011682018060405250810190612c419190614f13565b905060008113612c635760405162461bcd60e51b8152600401610a9a90615914565b610ed384848484613bf7565b6001810180546001600160a01b03191690558054604051626e20ad60e11b8152620100009091046001600160a01b03169062dc415a90612cb6903090600090600401615656565b600060405180830381600087803b158015612cd057600080fd5b505af1158015612ce4573d6000803e3d6000fd5b50506040517fda0987738091b194f50e1fef7257fb806ac0b26fd3607a7fff79a9efa9e4804c925060009150a150565b82600f01548210612d375760405162461bcd60e51b8152600401610a9a90615fb2565b60008281526010840160205260409020603901612d548183614619565b15612d715760405162461bcd60e51b8152600401610a9a90615b73565b6000612d7d828461484a565b905080612d9c5760405162461bcd60e51b8152600401610a9a90615dae565b826001600160a01b03167ffb9de28e25ee60a69b50d1ad2d6aeb820ad2cb5dceeedefe9282d37fb9c7744885604051611c5891906156e0565b6001600160a01b038516612dfb5760405162461bcd60e51b8152600401610a9a90615ee7565b6001600160a01b038216612e215760405162461bcd60e51b8152600401610a9a90615ce3565b60008060008084806020019051810190612e3b9190614ed5565b929650909450925090506001811015612e665760405162461bcd60e51b8152600401610a9a9061594b565b6040517f5fc2e39200000000000000000000000000000000000000000000000000000000815273__$aa0386c1927da8134897d9c67341209872$__90635fc2e39290612eba908e908d908d906004016160c5565b60006040518083038186803b158015612ed257600080fd5b505af4158015612ee6573d6000803e3d6000fd5b50505050898b60000160026101000a8154816001600160a01b0302191690836001600160a01b03160217905550896001600160a01b03166316d6b5f66040518163ffffffff1660e01b815260040160206040518083038186803b158015612f4c57600080fd5b505afa158015612f60573d6000803e3d6000fd5b505050506040513d601f19601f82011682018060405250810190612f849190614e82565b60058c0180546001600160a01b03199081166001600160a01b039384161790915560018d018054909116918916919091179055612fc442620d2f006142fd565b600c8c015560038b0180546001600160a01b039097166001600160a01b0319978816811790915560048c0180549097161790955589549215156101000261ff0019909316929092178955601189015560158801555060169095019490945550505050565b603081565b600082600f015482106130525760405162461bcd60e51b8152600401610a9a90615fb2565b600082815260108401602052604090206002600182015460ff16600481111561307757fe5b146130865760009150506118e2565b6040517f84da931000000000000000000000000000000000000000000000000000000000815260009073__$74e2ba5c0a92ec095c0918ea877fa9275f$__906384da9310906130d99085906004016156e0565b60206040518083038186803b1580156130f157600080fd5b505af4158015613105573d6000803e3d6000fd5b505050506040513d601f19601f820116820180604052508101906131299190614f13565b90508061313b576000925050506118e2565b600081131561317b576002820154613154908290613f16565b905061316b3061316383613f09565b849190614813565b613176858583611b6a565b612150565b600061318786866120b4565b90506000811361319d57600093505050506118e2565b6131aa816109d284614175565b91506131b7833084614813565b6131c2868684611b27565b50949350505050565b600081156118e25760128301546000906131e590846141ce565b9050600083131561325257836011015481131561324d57601184015461320c908290613f63565b9150836011015490507fc0357ed6fd11fd16f5c820f18e7835dcbd960c75f9bb28350a00573ac6c2b2e38260405161324491906156e0565b60405180910390a15b613295565b600081121561329557601384015461326a90826141ce565b60138501819055600013156132915760405162461bcd60e51b8152600401610a9a90615801565b5060005b601284015592915050565b600081136132c05760405162461bcd60e51b8152600401610a9a90615838565b604051631885d4f160e01b815273__$aa0386c1927da8134897d9c67341209872$__90631885d4f1906132fb908690869086906004016160c5565b60006040518083038186803b15801561331357600080fd5b505af4158015613327573d6000803e3d6000fd5b505050601384015461333a9150826141ce565b60138401556040517f35501c76a025a907c147d9a58f7a43504b042e3aeb4baff4fab606463bd8524b9061336f9083906156e0565b60405180910390a1505050565b6020810151600013156133a15760405162461bcd60e51b8152600401610a9a90615baa565b6040810151600013156133c65760405162461bcd60e51b8152600401610a9a90616020565b6060810151600113156133eb5760405162461bcd60e51b8152600401610a9a90615e53565b50565b60008381526010850160205260409020600c81015461341f5760405162461bcd60e51b8152600401610a9a90615a16565b6001600160a01b038316600090815260348201602052604090206002015482141561345c5760405162461bcd60e51b8152600401610a9a90615736565b600061347d82600c0154670de0b6b3a7640000613fc890919063ffffffff16565b90508083131561349f5760405162461bcd60e51b8152600401610a9a90615be1565b6134aa82858561485f565b836001600160a01b03167fb1c8544711d01985484122b2c8a5c0ca426d2d866247ec2443157d04b5585c2a86856040516134e592919061617a565b60405180910390a2505050505050565b600081136135155760405162461bcd60e51b8152600401610a9a9061586f565b600f8301546000805b82811015613561576002600082815260108801602052604090206001015460ff16600481111561354a57fe5b14156135595760019150613561565b60010161351e565b508061357f5760405162461bcd60e51b8152600401610a9a90615f55565b604051631885d4f160e01b815273__$aa0386c1927da8134897d9c67341209872$__90631885d4f1906135ba908890889088906004016160c5565b60006040518083038186803b1580156135d257600080fd5b505af41580156135e6573d6000803e3d6000fd5b5050505060008560040160009054906101000a90046001600160a01b031690506000613644826001600160a01b03166318160ddd6040518163ffffffff1660e01b815260040160206040518083038186803b15801561123f57600080fd5b604051631ee5dd3960e31b8152909150600090819073__$9dbf359c583e30ecde0fd5d5870700bb49$__9063f72ee9c890613687908c9087908c906004016156e9565b604080518083038186803b15801561369e57600080fd5b505af41580156136b2573d6000803e3d6000fd5b505050506040513d601f19601f820116820180604052508101906136d69190614f5a565b91509150600082136136fa5760405162461bcd60e51b8152600401610a9a90616057565b61370489886145e9565b836001600160a01b03166340c10f198961371d8561439b565b6040518363ffffffff1660e01b815260040161373a929190615694565b600060405180830381600087803b15801561375457600080fd5b505af1158015613768573d6000803e3d6000fd5b50505050876001600160a01b03167fc3919ccd011a100c0148bab574a26f47f5db31c2bc16903381f5429a1a4f1f958884846040516137a9939291906156e9565b60405180910390a2505050505050505050565b60008581526010870160205260408120906137d78287613eae565b9050600080806137f06137ea858a613f63565b89614643565b9150915081600014158015613803575080155b1561381c57613815858a848a8a61099a565b925061382e565b61382b858a8a8a86868c610ed9565b92505b6000831315613848576138438b8b8b86610d48565b613860565b6000831215613860576138608b8b8b6106fb87613f09565b5050505050505050505050565b60008160000160029054906101000a90046001600160a01b03166001600160a01b0316638d928af86040518163ffffffff1660e01b815260040160206040518083038186803b1580156138bf57600080fd5b505afa1580156138d3573d6000803e3d6000fd5b505050506040513d601f19601f820116820180604052508101906118e29190614e82565b6139008161337c565b8051825461ff0019169015156101000217825560208101516011830155604080820151601584015560608201516016840155517fac5bf8754fef31e548d743999f2235f9930fe919cf7ea07b525d98c8485439eb906139609083906156ad565b60405180910390a15050565b6000826001600160a01b0316846001600160a01b03161480610a6d575060058501546040517fc2f3da1d0000000000000000000000000000000000000000000000000000000081526001600160a01b039091169063c2f3da1d906139d890879087908790600401615670565b60206040518083038186803b1580156139f057600080fd5b505afa158015613a04573d6000803e3d6000fd5b505050506040513d601f19601f82011682018060405250810190610a6d9190614eb9565b81600f01548110613a4b5760405162461bcd60e51b8152600401610a9a90615fb2565b60008181526010830160205260409081902090517f8e66efaf00000000000000000000000000000000000000000000000000000000815273__$74e2ba5c0a92ec095c0918ea877fa9275f$__90638e66efaf90613aae90849030906004016160e4565b60006040518083038186803b158015613ac657600080fd5b505af4158015613ada573d6000803e3d6000fd5b50506040517f39d281eb00000000000000000000000000000000000000000000000000000000815273__$74e2ba5c0a92ec095c0918ea877fa9275f$__92506339d281eb9150613b2e9084906004016156e0565b60006040518083038186803b158015613b4657600080fd5b505af4158015613b5a573d6000803e3d6000fd5b50506040516324d41bd760e11b81526000925073__$74e2ba5c0a92ec095c0918ea877fa9275f$__91506349a837ae90613b9a90859030906004016160e4565b60206040518083038186803b158015613bb257600080fd5b505af4158015613bc6573d6000803e3d6000fd5b505050506040513d601f19601f82011682018060405250810190613bea9190614f13565b9050610ed3848483611b6a565b80613c0157610ed3565b6040516346a8e88f60e01b815273__$aa0386c1927da8134897d9c67341209872$__906346a8e88f90613c3c908790869086906004016160c5565b60006040518083038186803b158015613c5457600080fd5b505af4158015613c68573d6000803e3d6000fd5b50505060008481526010860160205260409020610ed3915082614592565b82600f01548210613ca95760405162461bcd60e51b8152600401610a9a90615fb2565b60008281526010840160205260409081902090517ffc13872000000000000000000000000000000000000000000000000000000000815273__$74e2ba5c0a92ec095c0918ea877fa9275f$__9063fc13872090611a309084908690600401616141565b600080613d1889613e80565b90506000613d278a8a84612a3a565b60408a0151600c8c015491925090613d515760405162461bcd60e51b8152600401610a9a90615a16565b6000613d728c600c0154670de0b6b3a7640000613fc890919063ffffffff16565b90508115613d805781613d86565b60358c01545b9150613d928282613f16565b91505060008113613db55760405162461bcd60e51b8152600401610a9a90615f1e565b613dc38382610f3289614175565b60208b0151909450613dd5908a613f63565b15801590613de1575086155b15613dfe57613df788610f49610f71868d613f2e565b9350613e1c565b613e1982610f498d60120154876141ce90919063ffffffff16565b93505b610fb8610fb16109cd8d8d875b6000808360200151600014613e6c57613e678560120154612a74613e6288600c01546109ef888a60200151613f2e90919063ffffffff16565b614175565b613e6f565b60005b9050610a6d81610f49878787612a3a565b60006002600183015460ff166004811115613e9757fe5b14613ea65760088201546118e2565b506006015490565b6001600160a01b031660009081526034909101602052604090206001015490565b6001600160a01b03811660009081526034830160205260408120600b840154600182015461215091613f019190613f2e565b825490613f63565b60006118e2600083613f63565b6000818312613f255781613f27565b825b9392505050565b6000670de0b6b3a7640000613f54613f468585614882565b670de0b6b3a764000061492b565b81613f5b57fe5b059392505050565b6000818303818312801590613f785750838113155b80613f8d5750600083128015613f8d57508381135b613f275760405162461bcd60e51b81526004018080602001828103825260248152602001806163796024913960400191505060405180910390fd5b600080821215613fe957613fdb82613f09565b9150613fe683613f09565b92505b613f278261400861400286670de0b6b3a7640000614882565b8561492b565b906149aa565b60008061401b8585613eae565b15614038576140338560120154612a7487878761470a565b61403b565b60005b9050610a6d81610f49878787614082565b600081831215613f255781613f27565b600081600c01544211156140715760006118e2565b50600101546001600160a01b031690565b60006121506140918585613ecf565b6001600160a01b0385166000908152603487016020526040902060010154612a749085613f2e565b600082600c015460001415614115576040805162461bcd60e51b815260206004820152601c60248201527f696e697469616c4d617267696e52617465206973206e6f742073657400000000604482015290519081900360640190fd5b600061413684600c0154670de0b6b3a7640000613fc890919063ffffffff16565b6001600160a01b038416600090815260348601602052604090206002015490915080156141635780614169565b60358501545b9050610a6d8183613f16565b60008082121561418d5761418882613f09565b6118e2565b5090565b60008061419e8585614882565b905060008312156141c0576141b283613f09565b92506141bd81613f09565b90505b610a6d83614008838661492b565b60008282018183128015906141e35750838112155b806141f857506000831280156141f857508381125b613f275760405162461bcd60e51b81526004018080602001828103825260218152602001806162e86021913960400191505060405180910390fd5b600181015461010090046001600160a01b03166142586006830182630e222f9b614a62565b61427382600401826001600160a01b031663ccbdbee2614a62565b815460068301546007840154600485015460058601546040516001600160a01b038716957fec91322ffa6f23802efae915b1fc28a37d2d0986d25d2073c0a661498ad00767956142cb9591949093919290919061627d565b60405180910390a25050565b600081600c01544211156142ec5760006118e2565b50600201546001600160a01b031690565b600082820183811015613f27576040805162461bcd60e51b815260206004820152601b60248201527f536166654d6174683a206164646974696f6e206f766572666c6f770000000000604482015290519081900360640190fd5b6000600160ff1b821061418d5760405162461bcd60e51b81526004018080602001828103825260288152602001806163516028913960400191505060405180910390fd5b60008082121561418d576040805162461bcd60e51b815260206004820181905260248201527f53616665436173743a2076616c7565206d75737420626520706f736974697665604482015290519081900360640190fd5b60008112156144135760405162461bcd60e51b8152600401610a9a90615e1c565b60098201546144229082613f63565b82600901819055505050565b60006118e282614b14565b600081831015613f255781613f27565b600f820154600090815b818110156144a25783600481111561446757fe5b600082815260108701602052604090206001015460ff16600481111561448957fe5b141561449a576001925050506118e2565b600101614453565b506000949350505050565b60006144b88261405c565b9050600082601301541380156144d657506001600160a01b03811615155b15611b235760138201805460009091556040516346a8e88f60e01b815273__$aa0386c1927da8134897d9c67341209872$__906346a8e88f90614521908690869086906004016160c5565b60006040518083038186803b15801561453957600080fd5b505af415801561454d573d6000803e3d6000fd5b50505050505050565b60008112156145775760405162461bcd60e51b8152600401610a9a906157ca565b600282015461458690826141ce565b82600201819055505050565b60008112156145b35760405162461bcd60e51b8152600401610a9a906157ca565b60028201546145c29082613f63565b6002830181905560001315611b235760405162461bcd60e51b8152600401610a9a90615c3e565b600081121561460a5760405162461bcd60e51b8152600401610a9a90615d1a565b600982015461442290826141ce565b6000613f27836001600160a01b038416614b18565b6000613f27836001600160a01b038416614b30565b6000806146508484614bf6565b156146605750600090508161469a565b61466983614175565b61467285614175565b126146825750819050600061469a565b61468b84613f09565b61469585856141ce565b915091505b9250929050565b6000826146b0575060006118e2565b613f278383614bf6565b6000806146c78585613eae565b156146d65784601201546146d9565b60005b9050806146e7868686614082565b121595945050505050565b60008061470085858561400e565b1215949350505050565b600c8301546001600160a01b0383166000908152603485016020526040812060010154909161215091613e6291906109ef9086613f2e565b600082821115614799576040805162461bcd60e51b815260206004820152601e60248201527f536166654d6174683a207375627472616374696f6e206f766572666c6f770000604482015290519081900360640190fd5b50900390565b600d8301546001600160a01b0383166000908152603485016020526040812060010154909161215091613e6291906109ef9086613f2e565b60006121506147ee85670de0b6b3a7640000614882565b8484614c19565b60006121506148048585614882565b670de0b6b3a764000084614c19565b8061481d57611b55565b6001600160a01b03821660009081526034840160205260409020805461484390836141ce565b9055505050565b6000613f27836001600160a01b038416614cf6565b6001600160a01b0390911660009081526034909201602052604090912060020155565b600082614891575060006118e2565b826000191480156148a55750600160ff1b82145b156148e15760405162461bcd60e51b815260040180806020018281038252602781526020018061632a6027913960400191505060405180910390fd5b828202828482816148ee57fe5b0514613f275760405162461bcd60e51b815260040180806020018281038252602781526020018061632a6027913960400191505060405180910390fd5b6000808213614981576040805162461bcd60e51b815260206004820152601f60248201527f726f756e6448616c665570206f6e6c7920737570706f7274732079203e203000604482015290519081900360640190fd5b6000831261499d5761499683600284056141ce565b90506118e2565b613f278360028405613f63565b6000816149fe576040805162461bcd60e51b815260206004820181905260248201527f5369676e6564536166654d6174683a206469766973696f6e206279207a65726f604482015290519081900360640190fd5b81600019148015614a125750600160ff1b83145b15614a4e5760405162461bcd60e51b81526004018080602001828103825260218152602001806163096021913960400191505060405180910390fd5b6000828481614a5957fe5b05949350505050565b60008083836040518163ffffffff1660e01b81526004016040805180830381600087803b158015614a9257600080fd5b505af1158015614aa6573d6000803e3d6000fd5b505050506040513d601f19601f82011682018060405250810190614aca9190614f5a565b91509150600082138015614add57508015155b614af95760405162461bcd60e51b8152600401610a9a906156ff565b84600101548110610ed1579084556001909301929092555050565b5490565b60009081526001919091016020526040902054151590565b60008181526001830160205260408120548015614bec5783546000198083019190810190600090879083908110614b6357fe5b9060005260206000200154905080876000018481548110614b8057fe5b600091825260208083209091019290925582815260018981019092526040902090840190558654879080614bb057fe5b600190038181906000526020600020016000905590558660010160008781526020019081526020016000206000905560019450505050506118e2565b60009150506118e2565b6000821580614c03575081155b15614c10575060016118e2565b501860ff1d1590565b600082614c6d576040805162461bcd60e51b815260206004820152601060248201527f6469766973696f6e206279207a65726f00000000000000000000000000000000604482015290519081900360640190fd5b614c7784846149aa565b9050828481614c8257fe5b07614c8c57613f27565b6000614c988585614bf6565b90506000836001811115614ca857fe5b148015614cb25750805b15614cc557614cc28260016141ce565b91505b6001836001811115614cd357fe5b148015614cde575080155b15614cee57610a6d826001613f63565b509392505050565b6000614d028383614b18565b614d38575081546001818101845560008481526020808220909301849055845484825282860190935260409020919091556118e2565b5060006118e2565b600082601f830112614d50578081fd5b6040516080810181811067ffffffffffffffff82111715614d6d57fe5b6040529050808260808101851015614d8457600080fd5b60005b6004811015614da6578135835260209283019290910190600101614d87565b50505092915050565b8061010081018310156118e257600080fd5b600082601f830112614dd1578081fd5b60405161010080820182811067ffffffffffffffff82111715614df057fe5b806040525081925083858286011115614e0857600080fd5b600091505b6008821015614da657803583526020928301926001929092019101614e0d565b600060608284031215614e3e578081fd5b6040516060810181811067ffffffffffffffff82111715614e5b57fe5b80604052508091508235815260208301356020820152604083013560408201525092915050565b600060208284031215614e93578081fd5b8151613f27816162c4565b600060808284031215614eaf578081fd5b613f278383614d40565b600060208284031215614eca578081fd5b8151613f27816162d9565b60008060008060808587031215614eea578283fd5b8451614ef5816162d9565b60208601516040870151606090970151919890975090945092505050565b600060208284031215614f24578081fd5b5051919050565b60008060408385031215614f3d578182fd5b825191506020830151614f4f816162d9565b809150509250929050565b60008060408385031215614f6c578182fd5b505080516020909101519092909150565b60008060008060808587031215614f92578081fd5b505082516020840151604085015160609095015191969095509092509050565b600060208284031215614fc3578081fd5b5035919050565b60008060408385031215614fdc578182fd5b823591506020830135614f4f816162c4565b60008060008060808587031215615003578182fd5b843593506020850135615015816162c4565b92506040850135615025816162c4565b9396929550929360600135925050565b600080600080600080600060e0888a03121561504f578485fd5b87359650602080890135615062816162c4565b96506040890135615072816162c4565b9550606089013594506080890135615089816162c4565b935060a0890135615099816162c4565b925060c089013567ffffffffffffffff808211156150b5578384fd5b818b0191508b601f8301126150c8578384fd5b8135818111156150d457fe5b6150e6601f8201601f191685016162a0565b91508082528c848285010111156150fb578485fd5b8084840185840137848482840101525080935050505092959891949750929550565b6000806000806000806104608789031215615136578384fd5b863595506020870135615148816162c4565b945061016087018881111561515b578485fd5b60408801945061516b8982614daf565b93505061517c886102608901614daf565b915061518c886103608901614daf565b90509295509295509295565b6000806000606084860312156151ac578081fd5b8335925060208401356151be816162c4565b929592945050506040919091013590565b600080600080608085870312156151e4578182fd5b8435935060208501356151f6816162c4565b93969395505050506040820135916060013590565b60008060a0838503121561521d578182fd5b8235915061522e8460208501614d40565b90509250929050565b60008060408385031215615249578182fd5b823591506020830135614f4f816162d9565b6000806040838503121561526d578182fd5b50508035926020909101359150565b600080600060608486031215615290578081fd5b833592506020840135915060408401356152a9816162c4565b809150509250925092565b600080600080608085870312156152c9578182fd5b84359350602085013592506040850135615025816162c4565b60008060008060008060c087890312156152fa578384fd5b86359550602087013594506040870135615313816162c4565b959894975094956060810135955060808101359460a0909101359350915050565b60008060006101408486031215615349578081fd5b83359250602084013591506153618560408601614dc1565b90509250925092565b60008060008060006103408688031215615382578283fd5b853594506020860135935061539a8760408801614dc1565b92506153aa876101408801614dc1565b91506153ba876102408801614dc1565b90509295509295909350565b60008060006101608085870312156153dc578182fd5b84359350602080860135935086605f8701126153f6578283fd5b604051610120810181811067ffffffffffffffff8211171561541457fe5b8060405250806040880189858a01111561542c578586fd5b8594505b600985101561544f578035825260019490940193908301908301615430565b50508093505050509250925092565b600080600060608486031215615472578081fd5b505081359360208301359350604090920135919050565b600080600080600060a086880312156154a0578283fd5b8535945060208601356154b2816162c4565b94979496505050506040830135926060810135926080909101359150565b600080600080600080600060e0888a0312156154ea578081fd5b8735965060208801356154fc816162c4565b96999698505050506040850135946060810135946080820135945060a0820135935060c0909101359150565b600080600060a0848603121561553c578081fd5b8335925061554d8560208601614e2d565b9150608084013590509250925092565b600080600080600060e08688031215615574578283fd5b853594506155858760208801614e2d565b949794965050505060808301359260a08101359260c0909101359150565b6000806000806000806000610120888a0312156155be578081fd5b873596506155cf8960208a01614e2d565b969996985050505060808501359460a08101359460c0820135945060e08201359350610100909101359150565b8060005b6008811015610ed3578135845260209384019390910190600101615600565b8060005b6008811015610ed3578151845260209384019390910190600101615623565b6001600160a01b0391909116815260200190565b6001600160a01b0392831681529116602082015260400190565b6001600160a01b039384168152919092166020820152604081019190915260600190565b6001600160a01b03929092168252602082015260400190565b60808101818360005b6004811015614da65781518352602092830192909101906001016156b6565b901515815260200190565b90815260200190565b9283526020830191909152604082015260600190565b60208082526012908201527f696e76616c696420707269636520646174610000000000000000000000000000604082015260600190565b6020808252601d908201527f7461726765744c6576657261676520697320616c726561647920736574000000604082015260600190565b6020808252603a908201527f414d4d2773206d617267696e203e3d206d61696e74656e616e6365206d61726760408201527f696e206f72206e6f7420756e69766572736520736574746c6564000000000000606082015260800190565b60208082526012908201527f616d6f756e74206973206e656761746976650000000000000000000000000000604082015260600190565b6020808252601f908201527f6e6567617469766520646f6e6174656420696e737572616e63652066756e6400604082015260600190565b6020808252600e908201527f696e76616c696420616d6f756e74000000000000000000000000000000000000604082015260600190565b6020808252601c908201527f6361736820616d6f756e74206d75737420626520706f73697469766500000000604082015260600190565b60208082526017908201527f63616c6c6572206973206e6f74207175616c6966696564000000000000000000604082015260600190565b60208082526013908201527f6b6565706572206973206e6f7420616464656400000000000000000000000000604082015260600190565b60208082526013908201527f6e6f206d617267696e20746f20736574746c6500000000000000000000000000604082015260600190565b60208082526029908201527f7368617265207472616e736665722064656c61792073686f756c64206265206160408201527f74206c6561736520310000000000000000000000000000000000000000000000606082015260800190565b6020808252601f908201527f6361736820746f2072657475726e206d75737420626520706f73697469766500604082015260600190565b6020808252601d908201527f70657270657475616c20636f756e742065786365656473206c696d6974000000604082015260600190565b6020808252601c908201527f696e697469616c4d617267696e52617465206973206e6f742073657400000000604082015260600190565b60208082526023908201527f63616e6e6f74207472616e7366657220746f2063757272656e74206f7065726160408201527f746f720000000000000000000000000000000000000000000000000000000000606082015260800190565b60208082526016908201527f696e73756666696369656e7420706f6f6c206361736800000000000000000000604082015260600190565b6020808252818101527f736861726520746f2072656d6f7665206d75737420626520706f736974697665604082015260600190565b6020808252602b908201527f74686572652073686f756c64206265206174206c65617374203120706572706560408201527f7475616c20746f2072756e000000000000000000000000000000000000000000606082015260800190565b60208082526017908201527f6b656570657220697320616c7265616479206164646564000000000000000000604082015260600190565b60208082526014908201527f696e737572616e636546756e64436170203c2030000000000000000000000000604082015260600190565b60208082526022908201527f7461726765744c657665726167652065786365656473206d61784c657665726160408201527f6765000000000000000000000000000000000000000000000000000000000000606082015260800190565b60208082526016908201527f636f6c6c61746572616c206973206e6567617469766500000000000000000000604082015260600190565b60208082526017908201527f6e6577206f70657261746f7220697320696e76616c6964000000000000000000604082015260600190565b6020808252601a908201527f696e73756666696369656e742073686172652062616c616e6365000000000000604082015260600190565b60208082526013908201527f676f7665726e6f7220697320696e76616c696400000000000000000000000000604082015260600190565b6020808252601b908201527f696e637265617365206e6567617469766520706f6f6c20636173680000000000604082015260600190565b60208082526024908201527f6661696c20746f2072656d6f7665206b65657065722066726f6d20776869746560408201527f6c69737400000000000000000000000000000000000000000000000000000000606082015260800190565b6020808252601f908201527f6661696c20746f20616464206b656570657220746f2077686974656c69737400604082015260600190565b60208082526011908201527f696e76616c696420706172616d65746572000000000000000000000000000000604082015260600190565b6020808252601b908201527f6465637265617365206e6567617469766520706f6f6c20636173680000000000604082015260600190565b60208082526016908201527f73686172655472616e7366657244656c6179203c203100000000000000000000604082015260600190565b60208082526022908201527f6e6567617469766520706f6f6c4361736820616674657220736574746c65206160408201527f6c6c000000000000000000000000000000000000000000000000000000000000606082015260800190565b60208082526015908201527f636f6c6c61746572616c20697320696e76616c69640000000000000000000000604082015260600190565b60208082526013908201527f746172676574206c65766572616765203d203000000000000000000000000000604082015260600190565b60208082526026908201527f616c6c2070657270657475616c7320617265204e4f5420696e204e4f524d414c60408201527f2073746174650000000000000000000000000000000000000000000000000000606082015260800190565b6020808252601c908201527f70657270657475616c20696e646578206f7574206f662072616e676500000000604082015260600190565b6020808252600e908201527f696e76616c696420747261646572000000000000000000000000000000000000604082015260600190565b60208082526010908201527f6c6971756964697479436170203c203000000000000000000000000000000000604082015260600190565b6020808252601f908201527f7265636569766564207368617265206d75737420626520706f73697469766500604082015260600190565b60208082526016908201527f6e6f2070657270657475616c20746f20736574746c6500000000000000000000604082015260600190565b9283526001600160a01b03919091166020830152604082015260600190565b9182526001600160a01b0316602082015260400190565b8281526101208101613f27602083018461561f565b8481526103208101616125602083018661561f565b61613361012083018561561f565b610a6d61022083018461561f565b828152610140810160208083018460005b600981101561616f57815183529183019190830190600101616152565b505050509392505050565b918252602082015260400190565b87815260208082018890526001600160a01b0387166040830152610480820190606083018760005b60098110156161cd578135835291830191908301906001016161b0565b505050506161df6101808301866155fc565b6161ed6102808301856155fc565b611fad6103808301846155fc565b60006102e08201905089825260206001600160a01b03808b1682850152808a1660408501528089166060850152808816608085015280871660a08501525060c083018560005b600981101561625e57813583529183019190830190600101616241565b505050506162706101e08301846155fc565b9998505050505050505050565b948552602085019390935260408401919091526060830152608082015260a00190565b60405181810167ffffffffffffffff811182821017156162bc57fe5b604052919050565b6001600160a01b03811681146133eb57600080fd5b80151581146133eb57600080fdfe5369676e6564536166654d6174683a206164646974696f6e206f766572666c6f775369676e6564536166654d6174683a206469766973696f6e206f766572666c6f775369676e6564536166654d6174683a206d756c7469706c69636174696f6e206f766572666c6f7753616665436173743a2076616c756520646f65736e27742066697420696e20616e20696e743235365369676e6564536166654d6174683a207375627472616374696f6e206f766572666c6f77a2646970667358221220d30add87dbec4302b02b3b3d76e9b28a7e982c3446b9d92b10e1c5bdd90dbcf664736f6c63430007040033",
  "linkReferences": {
    "contracts/module/AMMModule.sol": {
      "AMMModule": [
        {
          "length": 20,
          "start": 4836
        },
        {
          "length": 20,
          "start": 5066
        },
        {
          "length": 20,
          "start": 8625
        },
        {
          "length": 20,
          "start": 9253
        },
        {
          "length": 20,
          "start": 13954
        }
      ]
    },
    "contracts/module/CollateralModule.sol": {
      "CollateralModule": [
        {
          "length": 20,
          "start": 5619
        },
        {
          "length": 20,
          "start": 7840
        },
        {
          "length": 20,
          "start": 8175
        },
        {
          "length": 20,
          "start": 8766
        },
        {
          "length": 20,
          "start": 10938
        },
        {
          "length": 20,
          "start": 11957
        },
        {
          "length": 20,
          "start": 13046
        },
        {
          "length": 20,
          "start": 13749
        },
        {
          "length": 20,
          "start": 15415
        },
        {
          "length": 20,
          "start": 17692
        }
      ]
    },
    "contracts/module/PerpetualModule.sol": {
      "PerpetualModule": [
        {
          "length": 20,
          "start": 2824
        },
        {
          "length": 20,
          "start": 3213
        },
        {
          "length": 20,
          "start": 3543
        },
        {
          "length": 20,
          "start": 5968
        },
        {
          "length": 20,
          "start": 6507
        },
        {
          "length": 20,
          "start": 6701
        },
        {
          "length": 20,
          "start": 6875
        },
        {
          "length": 20,
          "start": 7387
        },
        {
          "length": 20,
          "start": 8369
        },
        {
          "length": 20,
          "start": 9096
        },
        {
          "length": 20,
          "start": 9545
        },
        {
          "length": 20,
          "start": 9747
        },
        {
          "length": 20,
          "start": 10694
        },
        {
          "length": 20,
          "start": 11247
        },
        {
          "length": 20,
          "start": 12504
        },
        {
          "length": 20,
          "start": 15019
        },
        {
          "length": 20,
          "start": 15147
        },
        {
          "length": 20,
          "start": 15254
        },
        {
          "length": 20,
          "start": 15625
        }
      ]
    }
  },
  "deployedLinkReferences": {
    "contracts/module/AMMModule.sol": {
      "AMMModule": [
        {
          "length": 20,
          "start": 4797
        },
        {
          "length": 20,
          "start": 5027
        },
        {
          "length": 20,
          "start": 8586
        },
        {
          "length": 20,
          "start": 9214
        },
        {
          "length": 20,
          "start": 13915
        }
      ]
    },
    "contracts/module/CollateralModule.sol": {
      "CollateralModule": [
        {
          "length": 20,
          "start": 5580
        },
        {
          "length": 20,
          "start": 7801
        },
        {
          "length": 20,
          "start": 8136
        },
        {
          "length": 20,
          "start": 8727
        },
        {
          "length": 20,
          "start": 10899
        },
        {
          "length": 20,
          "start": 11918
        },
        {
          "length": 20,
          "start": 13007
        },
        {
          "length": 20,
          "start": 13710
        },
        {
          "length": 20,
          "start": 15376
        },
        {
          "length": 20,
          "start": 17653
        }
      ]
    },
    "contracts/module/PerpetualModule.sol": {
      "PerpetualModule": [
        {
          "length": 20,
          "start": 2785
        },
        {
          "length": 20,
          "start": 3174
        },
        {
          "length": 20,
          "start": 3504
        },
        {
          "length": 20,
          "start": 5929
        },
        {
          "length": 20,
          "start": 6468
        },
        {
          "length": 20,
          "start": 6662
        },
        {
          "length": 20,
          "start": 6836
        },
        {
          "length": 20,
          "start": 7348
        },
        {
          "length": 20,
          "start": 8330
        },
        {
          "length": 20,
          "start": 9057
        },
        {
          "length": 20,
          "start": 9506
        },
        {
          "length": 20,
          "start": 9708
        },
        {
          "length": 20,
          "start": 10655
        },
        {
          "length": 20,
          "start": 11208
        },
        {
          "length": 20,
          "start": 12465
        },
        {
          "length": 20,
          "start": 14980
        },
        {
          "length": 20,
          "start": 15108
        },
        {
          "length": 20,
          "start": 15215
        },
        {
          "length": 20,
          "start": 15586
        }
      ]
    }
  }
}