{
  "_format": "hh-sol-artifact-1",
  "contractName": "TestSymbolService",
  "sourceName": "contracts/test/TestSymbolService.sol",
  "abi": [
    {
      "inputs": [
        {
          "internalType": "address",
          "name": "_symbolService",
          "type": "address"
        }
      ],
      "stateMutability": "nonpayable",
      "type": "constructor"
    },
    {
      "inputs": [
        {
          "internalType": "uint256",
          "name": "perpetualIndex",
          "type": "uint256"
        }
      ],
      "name": "allocateSymbol",
      "outputs": [
        {
          "internalType": "uint256",
          "name": "",
          "type": "uint256"
        }
      ],
      "stateMutability": "nonpayable",
      "type": "function"
    },
    {
      "inputs": [
        {
          "internalType": "uint256",
          "name": "perpetualIndex",
          "type": "uint256"
        },
        {
          "internalType": "uint256",
          "name": "symbol",
          "type": "uint256"
        }
      ],
      "name": "assignReservedSymbol",
      "outputs": [],
      "stateMutability": "nonpayable",
      "type": "function"
    },
    {
      "inputs": [],
      "name": "factory",
      "outputs": [
        {
          "internalType": "address",
          "name": "",
          "type": "address"
        }
      ],
      "stateMutability": "view",
      "type": "function"
    },
    {
      "inputs": [],
      "name": "getLiquidityPoolInfo",
      "outputs": [
        {
          "internalType": "bool",
          "name": "isRunning",
          "type": "bool"
        },
        {
          "internalType": "bool",
          "name": "isFastCreationEnabled",
          "type": "bool"
        },
        {
          "internalType": "address[7]",
          "name": "addresses",
          "type": "address[7]"
        },
        {
          "internalType": "int256[5]",
          "name": "intNums",
          "type": "int256[5]"
        },
        {
          "internalType": "uint256[6]",
          "name": "uintNums",
          "type": "uint256[6]"
        }
      ],
      "stateMutability": "view",
      "type": "function"
    },
    {
      "inputs": [
        {
          "internalType": "uint256",
          "name": "symbol",
          "type": "uint256"
        }
      ],
      "name": "getPerpetualUID",
      "outputs": [
        {
          "internalType": "address",
          "name": "liquidityPool",
          "type": "address"
        },
        {
          "internalType": "uint256",
          "name": "perpetualIndex",
          "type": "uint256"
        }
      ],
      "stateMutability": "view",
      "type": "function"
    },
    {
      "inputs": [
        {
          "internalType": "uint256",
          "name": "perpetualIndex",
          "type": "uint256"
        }
      ],
      "name": "getSymbols",
      "outputs": [
        {
          "internalType": "uint256[]",
          "name": "symbols",
          "type": "uint256[]"
        }
      ],
      "stateMutability": "view",
      "type": "function"
    },
    {
      "inputs": [],
      "name": "symbolService",
      "outputs": [
        {
          "internalType": "address",
          "name": "",
          "type": "address"
        }
      ],
      "stateMutability": "view",
      "type": "function"
    }
  ],
  "bytecode": "0x608060405234801561001057600080fd5b506040516107c13803806107c183398101604081905261002f91610062565b60008054306001600160a01b031991821617909155600180549091166001600160a01b0392909216919091179055610090565b600060208284031215610073578081fd5b81516001600160a01b0381168114610089578182fd5b9392505050565b6107228061009f6000396000f3fe608060405234801561001057600080fd5b506004361061007d5760003560e01c8063891ab9321161005b578063891ab932146100da5780638e623b48146100ef578063a5c470021461010f578063c45a01551461012f5761007d565b80630cdc105a146100825780632c03f6d0146100a457806355467ce1146100b9575b600080fd5b61008a610137565b60405161009b959493929190610635565b60405180910390f35b6100ac61016b565b60405161009b91906105a3565b6100cc6100c7366004610529565b61017a565b60405161009b9291906105b7565b6100ed6100e8366004610559565b610220565b005b6101026100fd366004610529565b6102a3565b60405161009b91906105f1565b61012261011d366004610529565b610349565b60405161009b91906106bf565b6100ac6103e7565b6000806101426103f6565b61014a610414565b610152610432565b6000546001600160a01b03168352939492939192909190565b6001546001600160a01b031681565b6001546040517f55467ce100000000000000000000000000000000000000000000000000000000815260009182916001600160a01b03909116906355467ce1906101c89086906004016106bf565b604080518083038186803b1580156101df57600080fd5b505afa1580156101f3573d6000803e3d6000fd5b505050506040513d601f19601f820116820180604052508101906102179190610450565b91509150915091565b6001546040517fbd086b860000000000000000000000000000000000000000000000000000000081526001600160a01b039091169063bd086b869061026d903090869086906004016105d0565b600060405180830381600087803b15801561028757600080fd5b505af115801561029b573d6000803e3d6000fd5b505050505050565b6001546040517f745a3f740000000000000000000000000000000000000000000000000000000081526060916001600160a01b03169063745a3f74906102ef90309086906004016105b7565b60006040518083038186803b15801561030757600080fd5b505afa15801561031b573d6000803e3d6000fd5b505050506040513d6000823e601f3d908101601f191682016040526103439190810190610488565b92915050565b6001546040517fb71906580000000000000000000000000000000000000000000000000000000081526000916001600160a01b03169063b71906589061039590309086906004016105b7565b602060405180830381600087803b1580156103af57600080fd5b505af11580156103c3573d6000803e3d6000fd5b505050506040513d601f19601f820116820180604052508101906103439190610541565b6000546001600160a01b031681565b6040518060e001604052806007906020820280368337509192915050565b6040518060a001604052806005906020820280368337509192915050565b6040518060c001604052806006906020820280368337509192915050565b60008060408385031215610462578182fd5b82516001600160a01b0381168114610478578283fd5b6020939093015192949293505050565b6000602080838503121561049a578182fd5b825167ffffffffffffffff808211156104b1578384fd5b818501915085601f8301126104c4578384fd5b8151818111156104d057fe5b83810291506104e08483016106c8565b8181528481019084860184860187018a10156104fa578788fd5b8795505b8386101561051c5780518352600195909501949186019186016104fe565b5098975050505050505050565b60006020828403121561053a578081fd5b5035919050565b600060208284031215610552578081fd5b5051919050565b6000806040838503121561056b578182fd5b50508035926020909101359150565b8060005b600681101561059d57815184526020938401939091019060010161057e565b50505050565b6001600160a01b0391909116815260200190565b6001600160a01b03929092168252602082015260400190565b6001600160a01b039390931683526020830191909152604082015260600190565b6020808252825182820181905260009190848201906040850190845b818110156106295783518352928401929184019160010161060d565b50909695505050505050565b6000610280820190508615158252602086151581840152604083018660005b600781101561067a5781516001600160a01b031683529183019190830190600101610654565b50505061012083018560005b60058110156106a357815183529183019190830190600101610686565b505050506106b56101c083018461057a565b9695505050505050565b90815260200190565b60405181810167ffffffffffffffff811182821017156106e457fe5b60405291905056fea26469706673582212204a933c5864e4898c49b5c9fdf86a94ee8093127da6902f0f6a4952d43258f7f064736f6c63430007040033",
  "linkReferences": {},
  "deployedLinkReferences": {}
}