{
  "_format": "hh-sol-artifact-1",
  "contractName": "BandAdaptor",
  "sourceName": "contracts/oracle/band/BandAdaptor.sol",
  "abi": [
    {
      "anonymous": false,
      "inputs": [
        {
          "indexed": true,
          "internalType": "bytes32",
          "name": "role",
          "type": "bytes32"
        },
        {
          "indexed": true,
          "internalType": "bytes32",
          "name": "previousAdminRole",
          "type": "bytes32"
        },
        {
          "indexed": true,
          "internalType": "bytes32",
          "name": "newAdminRole",
          "type": "bytes32"
        }
      ],
      "name": "RoleAdminChanged",
      "type": "event"
    },
    {
      "anonymous": false,
      "inputs": [
        {
          "indexed": true,
          "internalType": "bytes32",
          "name": "role",
          "type": "bytes32"
        },
        {
          "indexed": true,
          "internalType": "address",
          "name": "account",
          "type": "address"
        },
        {
          "indexed": true,
          "internalType": "address",
          "name": "sender",
          "type": "address"
        }
      ],
      "name": "RoleGranted",
      "type": "event"
    },
    {
      "anonymous": false,
      "inputs": [
        {
          "indexed": true,
          "internalType": "bytes32",
          "name": "role",
          "type": "bytes32"
        },
        {
          "indexed": true,
          "internalType": "address",
          "name": "account",
          "type": "address"
        },
        {
          "indexed": true,
          "internalType": "address",
          "name": "sender",
          "type": "address"
        }
      ],
      "name": "RoleRevoked",
      "type": "event"
    },
    {
      "anonymous": false,
      "inputs": [],
      "name": "SetTerminated",
      "type": "event"
    },
    {
      "inputs": [],
      "name": "DEFAULT_ADMIN_ROLE",
      "outputs": [
        {
          "internalType": "bytes32",
          "name": "",
          "type": "bytes32"
        }
      ],
      "stateMutability": "view",
      "type": "function"
    },
    {
      "inputs": [],
      "name": "band",
      "outputs": [
        {
          "internalType": "address",
          "name": "",
          "type": "address"
        }
      ],
      "stateMutability": "view",
      "type": "function"
    },
    {
      "inputs": [],
      "name": "collateral",
      "outputs": [
        {
          "internalType": "string",
          "name": "",
          "type": "string"
        }
      ],
      "stateMutability": "view",
      "type": "function"
    },
    {
      "inputs": [
        {
          "internalType": "bytes32",
          "name": "role",
          "type": "bytes32"
        }
      ],
      "name": "getRoleAdmin",
      "outputs": [
        {
          "internalType": "bytes32",
          "name": "",
          "type": "bytes32"
        }
      ],
      "stateMutability": "view",
      "type": "function"
    },
    {
      "inputs": [
        {
          "internalType": "bytes32",
          "name": "role",
          "type": "bytes32"
        },
        {
          "internalType": "uint256",
          "name": "index",
          "type": "uint256"
        }
      ],
      "name": "getRoleMember",
      "outputs": [
        {
          "internalType": "address",
          "name": "",
          "type": "address"
        }
      ],
      "stateMutability": "view",
      "type": "function"
    },
    {
      "inputs": [
        {
          "internalType": "bytes32",
          "name": "role",
          "type": "bytes32"
        }
      ],
      "name": "getRoleMemberCount",
      "outputs": [
        {
          "internalType": "uint256",
          "name": "",
          "type": "uint256"
        }
      ],
      "stateMutability": "view",
      "type": "function"
    },
    {
      "inputs": [
        {
          "internalType": "bytes32",
          "name": "role",
          "type": "bytes32"
        },
        {
          "internalType": "address",
          "name": "account",
          "type": "address"
        }
      ],
      "name": "grantRole",
      "outputs": [],
      "stateMutability": "nonpayable",
      "type": "function"
    },
    {
      "inputs": [
        {
          "internalType": "bytes32",
          "name": "role",
          "type": "bytes32"
        },
        {
          "internalType": "address",
          "name": "account",
          "type": "address"
        }
      ],
      "name": "hasRole",
      "outputs": [
        {
          "internalType": "bool",
          "name": "",
          "type": "bool"
        }
      ],
      "stateMutability": "view",
      "type": "function"
    },
    {
      "inputs": [
        {
          "internalType": "address",
          "name": "band_",
          "type": "address"
        },
        {
          "internalType": "string",
          "name": "collateral_",
          "type": "string"
        },
        {
          "internalType": "string",
          "name": "underlyingAsset_",
          "type": "string"
        }
      ],
      "name": "initialize",
      "outputs": [],
      "stateMutability": "nonpayable",
      "type": "function"
    },
    {
      "inputs": [],
      "name": "isMarketClosed",
      "outputs": [
        {
          "internalType": "bool",
          "name": "",
          "type": "bool"
        }
      ],
      "stateMutability": "pure",
      "type": "function"
    },
    {
      "inputs": [],
      "name": "isTerminated",
      "outputs": [
        {
          "internalType": "bool",
          "name": "",
          "type": "bool"
        }
      ],
      "stateMutability": "view",
      "type": "function"
    },
    {
      "inputs": [],
      "name": "priceTWAPLong",
      "outputs": [
        {
          "internalType": "int256",
          "name": "",
          "type": "int256"
        },
        {
          "internalType": "uint256",
          "name": "",
          "type": "uint256"
        }
      ],
      "stateMutability": "nonpayable",
      "type": "function"
    },
    {
      "inputs": [],
      "name": "priceTWAPShort",
      "outputs": [
        {
          "internalType": "int256",
          "name": "",
          "type": "int256"
        },
        {
          "internalType": "uint256",
          "name": "",
          "type": "uint256"
        }
      ],
      "stateMutability": "nonpayable",
      "type": "function"
    },
    {
      "inputs": [
        {
          "internalType": "bytes32",
          "name": "role",
          "type": "bytes32"
        },
        {
          "internalType": "address",
          "name": "account",
          "type": "address"
        }
      ],
      "name": "renounceRole",
      "outputs": [],
      "stateMutability": "nonpayable",
      "type": "function"
    },
    {
      "inputs": [
        {
          "internalType": "bytes32",
          "name": "role",
          "type": "bytes32"
        },
        {
          "internalType": "address",
          "name": "account",
          "type": "address"
        }
      ],
      "name": "revokeRole",
      "outputs": [],
      "stateMutability": "nonpayable",
      "type": "function"
    },
    {
      "inputs": [],
      "name": "setTerminated",
      "outputs": [],
      "stateMutability": "nonpayable",
      "type": "function"
    },
    {
      "inputs": [],
      "name": "underlyingAsset",
      "outputs": [
        {
          "internalType": "string",
          "name": "",
          "type": "string"
        }
      ],
      "stateMutability": "view",
      "type": "function"
    },
    {
      "inputs": [],
      "name": "updatePrice",
      "outputs": [],
      "stateMutability": "nonpayable",
      "type": "function"
    }
  ],
  "bytecode": "0x608060405234801561001057600080fd5b506111c6806100206000396000f3fe608060405234801561001057600080fd5b50600436106101365760003560e01c806391d14854116100b2578063ca15c87311610081578063d1cc997611610066578063d1cc99761461024d578063d547741f14610255578063d8dfeb451461026857610136565b8063ca15c87314610232578063ccbdbee21461024557610136565b806391d14854146101fa578063a217fddf1461021a578063a720d89c14610222578063b7e86c1f1461022a57610136565b806336568abe116101095780637158da7c116100ee5780637158da7c146101bf5780639010d07c146101d457806390657147146101e757610136565b806336568abe146101a4578063673a7e28146101b757610136565b80630e222f9b1461013b57806310ea891a1461015a578063248a9ca31461016f5780632f2ff15d1461018f575b600080fd5b610143610270565b604051610151929190610f72565b60405180910390f35b610162610287565b6040516101519190610f4a565b61018261017d366004610e0e565b610296565b6040516101519190610f69565b6101a261019d366004610e26565b6102ae565b005b6101a26101b2366004610e26565b610315565b6101a2610376565b6101c76104c8565b6040516101519190610f80565b6101626101e2366004610e51565b610556565b6101a26101f5366004610d9d565b610577565b61020d610208366004610e26565b610637565b6040516101519190610f5e565b61018261064f565b6101a2610654565b61020d6106d8565b610182610240366004610e0e565b6106dd565b6101436106f4565b61020d610707565b6101a2610263366004610e26565b610710565b6101c7610769565b60008061027b610376565b50506066546067549091565b6065546001600160a01b031681565b6000818152603360205260409020600201545b919050565b6000828152603360205260409020600201546102cc906102086107c4565b6103075760405162461bcd60e51b815260040180806020018281038252602f8152602001806110d5602f913960400191505060405180910390fd5b61031182826107c8565b5050565b61031d6107c4565b6001600160a01b0316816001600160a01b03161461036c5760405162461bcd60e51b815260040180806020018281038252602f815260200180611162602f913960400191505060405180910390fd5b6103118282610831565b60685460ff166104c657610388610c4a565b6065546040517f65555bcc0000000000000000000000000000000000000000000000000000000081526001600160a01b03909116906365555bcc906103d590606a90606990600401610fd3565b60606040518083038186803b1580156103ed57600080fd5b505afa158015610401573d6000803e3d6000fd5b505050506040513d601f19601f820116820180604052508101906104259190610e72565b805190915015801590610458575080517f8000000000000000000000000000000000000000000000000000000000000000115b8015610468575060008160200151115b8015610478575060008160400151115b61049d5760405162461bcd60e51b81526004016104949061106f565b60405180910390fd5b805160665560408101516020820151116104bb5780604001516104c1565b80602001515b606755505b565b606a805460408051602060026001851615610100026000190190941693909304601f8101849004840282018401909252818152929183018282801561054e5780601f106105235761010080835404028352916020019161054e565b820191906000526020600020905b81548152906001019060200180831161053157829003601f168201915b505050505081565b600082815260336020526040812061056e908361089a565b90505b92915050565b600054610100900460ff168061059057506105906108a6565b8061059e575060005460ff16155b6105d95760405162461bcd60e51b815260040180806020018281038252602e815260200180611134602e913960400191505060405180910390fd5b600054610100900460ff16158015610604576000805460ff1961ff0019909116610100171660011790555b61060c6108b7565b6106146108b7565b61061f848484610959565b8015610631576000805461ff00191690555b50505050565b600082815260336020526040812061056e9083610a6a565b600081565b60685460ff16156106775760405162461bcd60e51b815260040161049490611038565b61068460006102086107c4565b6106a05760405162461bcd60e51b815260040161049490611001565b6068805460ff191660011790556040517f29967151f11bb81f25b833c76de22c3a7e0fd713f0c8394b150cff45a5f8bb4290600090a1565b600090565b600081815260336020526040812061057190610a7f565b6000806106ff610270565b915091509091565b60685460ff1690565b60008281526033602052604090206002015461072e906102086107c4565b61036c5760405162461bcd60e51b81526004018080602001828103825260308152602001806111046030913960400191505060405180910390fd5b6069805460408051602060026001851615610100026000190190941693909304601f8101849004840282018401909252818152929183018282801561054e5780601f106105235761010080835404028352916020019161054e565b3390565b60008281526033602052604090206107e09082610a8a565b15610311576107ed6107c4565b6001600160a01b0316816001600160a01b0316837f2f8788117e7eff1d82e926ec794901d17c78024a50270940304540a733656f0d60405160405180910390a45050565b60008281526033602052604090206108499082610a9f565b15610311576108566107c4565b6001600160a01b0316816001600160a01b0316837ff6391f5c32d9c69d2a47ea670b442974b53935d1edc7fd64eb21e047a839171b60405160405180910390a45050565b600061056e8383610ab4565b60006108b130610b18565b15905090565b600054610100900460ff16806108d057506108d06108a6565b806108de575060005460ff16155b6109195760405162461bcd60e51b815260040180806020018281038252602e815260200180611134602e913960400191505060405180910390fd5b600054610100900460ff16158015610944576000805460ff1961ff0019909116610100171660011790555b8015610956576000805461ff00191690555b50565b600054610100900460ff168061097257506109726108a6565b80610980575060005460ff16155b6109bb5760405162461bcd60e51b815260040180806020018281038252602e815260200180611134602e913960400191505060405180910390fd5b600054610100900460ff161580156109e6576000805460ff1961ff0019909116610100171660011790555b6109f860006109f36107c4565b610307565b606580547fffffffffffffffffffffffff0000000000000000000000000000000000000000166001600160a01b0386161790558251610a3e906069906020860190610c6b565b508151610a5290606a906020850190610c6b565b508015610631576000805461ff001916905550505050565b600061056e836001600160a01b038416610b1e565b600061057182610b36565b600061056e836001600160a01b038416610b3a565b600061056e836001600160a01b038416610b84565b81546000908210610af65760405162461bcd60e51b81526004018080602001828103825260228152602001806110b36022913960400191505060405180910390fd5b826000018281548110610b0557fe5b9060005260206000200154905092915050565b3b151590565b60009081526001919091016020526040902054151590565b5490565b6000610b468383610b1e565b610b7c57508154600181810184556000848152602080822090930184905584548482528286019093526040902091909155610571565b506000610571565b60008181526001830160205260408120548015610c405783546000198083019190810190600090879083908110610bb757fe5b9060005260206000200154905080876000018481548110610bd457fe5b600091825260208083209091019290925582815260018981019092526040902090840190558654879080610c0457fe5b60019003818190600052602060002001600090559055866001016000878152602001908152602001600020600090556001945050505050610571565b6000915050610571565b60405180606001604052806000815260200160008152602001600081525090565b828054600181600116156101000203166002900490600052602060002090601f016020900481019282610ca15760008555610ce7565b82601f10610cba57805160ff1916838001178555610ce7565b82800160010185558215610ce7579182015b82811115610ce7578251825591602001919060010190610ccc565b50610cf3929150610cf7565b5090565b5b80821115610cf35760008155600101610cf8565b80356001600160a01b03811681146102a957600080fd5b600082601f830112610d33578081fd5b813567ffffffffffffffff80821115610d4857fe5b604051601f8301601f191681016020018281118282101715610d6657fe5b604052828152925082848301602001861015610d8157600080fd5b8260208601602083013760006020848301015250505092915050565b600080600060608486031215610db1578283fd5b610dba84610d0c565b9250602084013567ffffffffffffffff80821115610dd6578384fd5b610de287838801610d23565b93506040860135915080821115610df7578283fd5b50610e0486828701610d23565b9150509250925092565b600060208284031215610e1f578081fd5b5035919050565b60008060408385031215610e38578182fd5b82359150610e4860208401610d0c565b90509250929050565b60008060408385031215610e63578182fd5b50508035926020909101359150565b600060608284031215610e83578081fd5b6040516060810181811067ffffffffffffffff82111715610ea057fe5b80604052508251815260208301516020820152604083015160408201528091505092915050565b60008154600180821660008114610ee55760018114610f0357610f41565b60028304607f16865260ff1983166020870152604086019350610f41565b60028304808752610f13866110a6565b60005b82811015610f375781546020828b0101528482019150602081019050610f16565b8801602001955050505b50505092915050565b6001600160a01b0391909116815260200190565b901515815260200190565b90815260200190565b918252602082015260400190565b6000602080835283518082850152825b81811015610fac57858101830151858201604001528201610f90565b81811115610fbd5783604083870101525b50601f01601f1916929092016040019392505050565b600060408252610fe66040830185610ec7565b8281036020840152610ff88185610ec7565b95945050505050565b60208082526004908201527f726f6c6500000000000000000000000000000000000000000000000000000000604082015260600190565b60208082526012908201527f616c7265616479207465726d696e617465640000000000000000000000000000604082015260600190565b60208082526018908201527f696e76616c69642062616e64206f7261636c6520646174610000000000000000604082015260600190565b6000908152602090209056fe456e756d657261626c655365743a20696e646578206f7574206f6620626f756e6473416363657373436f6e74726f6c3a2073656e646572206d75737420626520616e2061646d696e20746f206772616e74416363657373436f6e74726f6c3a2073656e646572206d75737420626520616e2061646d696e20746f207265766f6b65496e697469616c697a61626c653a20636f6e747261637420697320616c726561647920696e697469616c697a6564416363657373436f6e74726f6c3a2063616e206f6e6c792072656e6f756e636520726f6c657320666f722073656c66a26469706673582212208c60c8736fce382cc49ea9c44307b5df0ca6cb04bde7104ee8b2379706e8b10c64736f6c63430007040033",
  "linkReferences": {},
  "deployedLinkReferences": {}
}