{
  "_format": "hh-sol-artifact-1",
  "contractName": "AccessControl",
  "sourceName": "contracts/factory/AccessControl.sol",
  "abi": [
    {
      "anonymous": false,
      "inputs": [
        {
          "indexed": true,
          "internalType": "address",
          "name": "grantor",
          "type": "address"
        },
        {
          "indexed": true,
          "internalType": "address",
          "name": "grantee",
          "type": "address"
        },
        {
          "indexed": false,
          "internalType": "uint256",
          "name": "privilege",
          "type": "uint256"
        }
      ],
      "name": "GrantPrivilege",
      "type": "event"
    },
    {
      "anonymous": false,
      "inputs": [
        {
          "indexed": true,
          "internalType": "address",
          "name": "grantor",
          "type": "address"
        },
        {
          "indexed": true,
          "internalType": "address",
          "name": "grantee",
          "type": "address"
        },
        {
          "indexed": false,
          "internalType": "uint256",
          "name": "privilege",
          "type": "uint256"
        }
      ],
      "name": "RevokePrivilege",
      "type": "event"
    },
    {
      "inputs": [
        {
          "internalType": "address",
          "name": "grantee",
          "type": "address"
        },
        {
          "internalType": "uint256",
          "name": "privilege",
          "type": "uint256"
        }
      ],
      "name": "grantPrivilege",
      "outputs": [],
      "stateMutability": "nonpayable",
      "type": "function"
    },
    {
      "inputs": [
        {
          "internalType": "address",
          "name": "grantor",
          "type": "address"
        },
        {
          "internalType": "address",
          "name": "grantee",
          "type": "address"
        },
        {
          "internalType": "uint256",
          "name": "privilege",
          "type": "uint256"
        }
      ],
      "name": "isGranted",
      "outputs": [
        {
          "internalType": "bool",
          "name": "",
          "type": "bool"
        }
      ],
      "stateMutability": "view",
      "type": "function"
    },
    {
      "inputs": [
        {
          "internalType": "address",
          "name": "grantee",
          "type": "address"
        },
        {
          "internalType": "uint256",
          "name": "privilege",
          "type": "uint256"
        }
      ],
      "name": "revokePrivilege",
      "outputs": [],
      "stateMutability": "nonpayable",
      "type": "function"
    }
  ],
  "bytecode": "0x608060405234801561001057600080fd5b50610682806100206000396000f3fe608060405234801561001057600080fd5b50600436106100415760003560e01c8063471a4bc614610046578063affe5bed14610074578063c2f3da1d146100a0575b600080fd5b6100726004803603604081101561005c57600080fd5b506001600160a01b0381351690602001356100ea565b005b6100726004803603604081101561008a57600080fd5b506001600160a01b03813516906020013561024d565b6100d6600480360360608110156100b657600080fd5b506001600160a01b03813581169160208101359091169060400135610389565b604080519115158252519081900360200190f35b6100f381610412565b610144576040805162461bcd60e51b815260206004820152601460248201527f70726976696c65676520697320696e76616c6964000000000000000000000000604482015290519081900360640190fd5b61014f338383610389565b156101a1576040805162461bcd60e51b815260206004820152601c60248201527f70726976696c65676520697320616c7265616479206772616e74656400000000604482015290519081900360640190fd5b3360009081526020819052604081206101ba908461042a565b6101c55760006101de565b3360009081526020819052604090206101de908461044b565b90506101ea818361048d565b336000908152602081905260409020909150610207908483610491565b506040805183815290516001600160a01b0385169133917fb542e9113bf4db53a191bfb69cafe0c1d0647ca432aa8a6d36b6f9b04ec5473b9181900360200190a3505050565b61025681610412565b6102a7576040805162461bcd60e51b815260206004820152601460248201527f70726976696c65676520697320696e76616c6964000000000000000000000000604482015290519081900360640190fd5b6102b2338383610389565b610303576040805162461bcd60e51b815260206004820152601860248201527f70726976696c656765206973206e6f74206772616e7465640000000000000000604482015290519081900360640190fd5b33600090815260208190526040902061034490839061032e908490610328908461044b565b9061056d565b3360009081526020819052604090209190610491565b506040805182815290516001600160a01b0384169133917f2e910d80b3ddddaff95f2e39c7c226987cd86d56b81c7352b8393efe6f0914709181900360200190a35050565b600061039482610412565b6103a05750600061040b565b6001600160a01b03841660009081526020819052604090206103c2908461042a565b6103ce5750600061040b565b6001600160a01b03841660009081526020819052604081206103f0908561044b565b905060008111801561040757506104078184610572565b9150505b9392505050565b600080821180156104245750600f8211155b92915050565b6001600160a01b031660009081526001919091016020526040902054151590565b600061040b83836040518060400160405280601e81526020017f456e756d657261626c654d61703a206e6f6e6578697374656e74206b65790000815250610578565b1790565b6001600160a01b03821660009081526001840160205260408120548061053b5750506040805180820182526001600160a01b038481168083526020808401868152885460018082018b5560008b81528481209751600290930290970180547fffffffffffffffffffffffff0000000000000000000000000000000000000000169290961691909117855590519381019390935587549184528288019052929091209190915561040b565b8285600001600183038154811061054e57fe5b906000526020600020906002020160010181905550600091505061040b565b191690565b16151590565b6001600160a01b0382166000908152600184016020526040812054828161061d5760405162461bcd60e51b81526004018080602001828103825283818151815260200191508051906020019080838360005b838110156105e25781810151838201526020016105ca565b50505050905090810190601f16801561060f5780820380516001836020036101000a031916815260200191505b509250505060405180910390fd5b5084600001600182038154811061063057fe5b906000526020600020906002020160010154915050939250505056fea26469706673582212205b02c08f45fd965ea9e5c433ec4d8d857f06c6a2bb193caf633bcfb8576d01e664736f6c63430007040033",
  "linkReferences": {},
  "deployedLinkReferences": {}
}