{
  "_format": "hh-sol-artifact-1",
  "contractName": "Broker",
  "sourceName": "contracts/broker/Broker.sol",
  "abi": [
    {
      "inputs": [],
      "stateMutability": "nonpayable",
      "type": "constructor"
    },
    {
      "anonymous": false,
      "inputs": [
        {
          "indexed": false,
          "internalType": "bytes32",
          "name": "userData1",
          "type": "bytes32"
        },
        {
          "indexed": false,
          "internalType": "bytes32",
          "name": "userData2",
          "type": "bytes32"
        },
        {
          "indexed": false,
          "internalType": "string",
          "name": "functionSignature",
          "type": "string"
        },
        {
          "indexed": false,
          "internalType": "bytes",
          "name": "callData",
          "type": "bytes"
        },
        {
          "indexed": false,
          "internalType": "bytes",
          "name": "signature",
          "type": "bytes"
        }
      ],
      "name": "CallFunction",
      "type": "event"
    },
    {
      "anonymous": false,
      "inputs": [
        {
          "indexed": false,
          "internalType": "bytes32",
          "name": "orderHash",
          "type": "bytes32"
        }
      ],
      "name": "CancelOrder",
      "type": "event"
    },
    {
      "anonymous": false,
      "inputs": [
        {
          "indexed": true,
          "internalType": "address",
          "name": "trader",
          "type": "address"
        },
        {
          "indexed": false,
          "internalType": "uint256",
          "name": "amount",
          "type": "uint256"
        }
      ],
      "name": "Deposit",
      "type": "event"
    },
    {
      "anonymous": false,
      "inputs": [
        {
          "indexed": false,
          "internalType": "bytes32",
          "name": "orderHash",
          "type": "bytes32"
        },
        {
          "indexed": false,
          "internalType": "int256",
          "name": "fillAmount",
          "type": "int256"
        }
      ],
      "name": "FillOrder",
      "type": "event"
    },
    {
      "anonymous": false,
      "inputs": [
        {
          "indexed": false,
          "internalType": "bytes32",
          "name": "orderHash",
          "type": "bytes32"
        },
        {
          "components": [
            {
              "internalType": "address",
              "name": "trader",
              "type": "address"
            },
            {
              "internalType": "address",
              "name": "broker",
              "type": "address"
            },
            {
              "internalType": "address",
              "name": "relayer",
              "type": "address"
            },
            {
              "internalType": "address",
              "name": "referrer",
              "type": "address"
            },
            {
              "internalType": "address",
              "name": "liquidityPool",
              "type": "address"
            },
            {
              "internalType": "int256",
              "name": "minTradeAmount",
              "type": "int256"
            },
            {
              "internalType": "int256",
              "name": "amount",
              "type": "int256"
            },
            {
              "internalType": "int256",
              "name": "limitPrice",
              "type": "int256"
            },
            {
              "internalType": "int256",
              "name": "triggerPrice",
              "type": "int256"
            },
            {
              "internalType": "uint256",
              "name": "chainID",
              "type": "uint256"
            },
            {
              "internalType": "uint64",
              "name": "expiredAt",
              "type": "uint64"
            },
            {
              "internalType": "uint32",
              "name": "perpetualIndex",
              "type": "uint32"
            },
            {
              "internalType": "uint32",
              "name": "brokerFeeLimit",
              "type": "uint32"
            },
            {
              "internalType": "uint32",
              "name": "flags",
              "type": "uint32"
            },
            {
              "internalType": "uint32",
              "name": "salt",
              "type": "uint32"
            }
          ],
          "indexed": false,
          "internalType": "struct Order",
          "name": "order",
          "type": "tuple"
        },
        {
          "indexed": false,
          "internalType": "int256",
          "name": "amount",
          "type": "int256"
        },
        {
          "indexed": false,
          "internalType": "string",
          "name": "reason",
          "type": "string"
        }
      ],
      "name": "TradeFailed",
      "type": "event"
    },
    {
      "anonymous": false,
      "inputs": [
        {
          "indexed": false,
          "internalType": "bytes32",
          "name": "orderHash",
          "type": "bytes32"
        },
        {
          "components": [
            {
              "internalType": "address",
              "name": "trader",
              "type": "address"
            },
            {
              "internalType": "address",
              "name": "broker",
              "type": "address"
            },
            {
              "internalType": "address",
              "name": "relayer",
              "type": "address"
            },
            {
              "internalType": "address",
              "name": "referrer",
              "type": "address"
            },
            {
              "internalType": "address",
              "name": "liquidityPool",
              "type": "address"
            },
            {
              "internalType": "int256",
              "name": "minTradeAmount",
              "type": "int256"
            },
            {
              "internalType": "int256",
              "name": "amount",
              "type": "int256"
            },
            {
              "internalType": "int256",
              "name": "limitPrice",
              "type": "int256"
            },
            {
              "internalType": "int256",
              "name": "triggerPrice",
              "type": "int256"
            },
            {
              "internalType": "uint256",
              "name": "chainID",
              "type": "uint256"
            },
            {
              "internalType": "uint64",
              "name": "expiredAt",
              "type": "uint64"
            },
            {
              "internalType": "uint32",
              "name": "perpetualIndex",
              "type": "uint32"
            },
            {
              "internalType": "uint32",
              "name": "brokerFeeLimit",
              "type": "uint32"
            },
            {
              "internalType": "uint32",
              "name": "flags",
              "type": "uint32"
            },
            {
              "internalType": "uint32",
              "name": "salt",
              "type": "uint32"
            }
          ],
          "indexed": false,
          "internalType": "struct Order",
          "name": "order",
          "type": "tuple"
        },
        {
          "indexed": false,
          "internalType": "int256",
          "name": "amount",
          "type": "int256"
        },
        {
          "indexed": false,
          "internalType": "uint256",
          "name": "gasReward",
          "type": "uint256"
        }
      ],
      "name": "TradeSuccess",
      "type": "event"
    },
    {
      "anonymous": false,
      "inputs": [
        {
          "indexed": true,
          "internalType": "address",
          "name": "sender",
          "type": "address"
        },
        {
          "indexed": true,
          "internalType": "address",
          "name": "recipient",
          "type": "address"
        },
        {
          "indexed": false,
          "internalType": "uint256",
          "name": "amount",
          "type": "uint256"
        }
      ],
      "name": "Transfer",
      "type": "event"
    },
    {
      "anonymous": false,
      "inputs": [
        {
          "indexed": true,
          "internalType": "address",
          "name": "trader",
          "type": "address"
        },
        {
          "indexed": false,
          "internalType": "uint256",
          "name": "amount",
          "type": "uint256"
        }
      ],
      "name": "Withdraw",
      "type": "event"
    },
    {
      "inputs": [
        {
          "internalType": "address",
          "name": "trader",
          "type": "address"
        }
      ],
      "name": "balanceOf",
      "outputs": [
        {
          "internalType": "uint256",
          "name": "",
          "type": "uint256"
        }
      ],
      "stateMutability": "view",
      "type": "function"
    },
    {
      "inputs": [
        {
          "internalType": "bytes[]",
          "name": "compressedOrders",
          "type": "bytes[]"
        },
        {
          "internalType": "int256[]",
          "name": "amounts",
          "type": "int256[]"
        },
        {
          "internalType": "uint256[]",
          "name": "gasRewards",
          "type": "uint256[]"
        }
      ],
      "name": "batchTrade",
      "outputs": [],
      "stateMutability": "nonpayable",
      "type": "function"
    },
    {
      "inputs": [
        {
          "components": [
            {
              "internalType": "address",
              "name": "trader",
              "type": "address"
            },
            {
              "internalType": "address",
              "name": "broker",
              "type": "address"
            },
            {
              "internalType": "address",
              "name": "relayer",
              "type": "address"
            },
            {
              "internalType": "address",
              "name": "referrer",
              "type": "address"
            },
            {
              "internalType": "address",
              "name": "liquidityPool",
              "type": "address"
            },
            {
              "internalType": "int256",
              "name": "minTradeAmount",
              "type": "int256"
            },
            {
              "internalType": "int256",
              "name": "amount",
              "type": "int256"
            },
            {
              "internalType": "int256",
              "name": "limitPrice",
              "type": "int256"
            },
            {
              "internalType": "int256",
              "name": "triggerPrice",
              "type": "int256"
            },
            {
              "internalType": "uint256",
              "name": "chainID",
              "type": "uint256"
            },
            {
              "internalType": "uint64",
              "name": "expiredAt",
              "type": "uint64"
            },
            {
              "internalType": "uint32",
              "name": "perpetualIndex",
              "type": "uint32"
            },
            {
              "internalType": "uint32",
              "name": "brokerFeeLimit",
              "type": "uint32"
            },
            {
              "internalType": "uint32",
              "name": "flags",
              "type": "uint32"
            },
            {
              "internalType": "uint32",
              "name": "salt",
              "type": "uint32"
            }
          ],
          "internalType": "struct Order",
          "name": "order",
          "type": "tuple"
        }
      ],
      "name": "cancelOrder",
      "outputs": [],
      "stateMutability": "nonpayable",
      "type": "function"
    },
    {
      "inputs": [],
      "name": "deposit",
      "outputs": [],
      "stateMutability": "payable",
      "type": "function"
    },
    {
      "inputs": [
        {
          "components": [
            {
              "internalType": "address",
              "name": "trader",
              "type": "address"
            },
            {
              "internalType": "address",
              "name": "broker",
              "type": "address"
            },
            {
              "internalType": "address",
              "name": "relayer",
              "type": "address"
            },
            {
              "internalType": "address",
              "name": "referrer",
              "type": "address"
            },
            {
              "internalType": "address",
              "name": "liquidityPool",
              "type": "address"
            },
            {
              "internalType": "int256",
              "name": "minTradeAmount",
              "type": "int256"
            },
            {
              "internalType": "int256",
              "name": "amount",
              "type": "int256"
            },
            {
              "internalType": "int256",
              "name": "limitPrice",
              "type": "int256"
            },
            {
              "internalType": "int256",
              "name": "triggerPrice",
              "type": "int256"
            },
            {
              "internalType": "uint256",
              "name": "chainID",
              "type": "uint256"
            },
            {
              "internalType": "uint64",
              "name": "expiredAt",
              "type": "uint64"
            },
            {
              "internalType": "uint32",
              "name": "perpetualIndex",
              "type": "uint32"
            },
            {
              "internalType": "uint32",
              "name": "brokerFeeLimit",
              "type": "uint32"
            },
            {
              "internalType": "uint32",
              "name": "flags",
              "type": "uint32"
            },
            {
              "internalType": "uint32",
              "name": "salt",
              "type": "uint32"
            }
          ],
          "internalType": "struct Order",
          "name": "order",
          "type": "tuple"
        }
      ],
      "name": "getOrderFilledAmount",
      "outputs": [
        {
          "internalType": "int256",
          "name": "filledAmount",
          "type": "int256"
        }
      ],
      "stateMutability": "view",
      "type": "function"
    },
    {
      "inputs": [
        {
          "components": [
            {
              "internalType": "address",
              "name": "trader",
              "type": "address"
            },
            {
              "internalType": "address",
              "name": "broker",
              "type": "address"
            },
            {
              "internalType": "address",
              "name": "relayer",
              "type": "address"
            },
            {
              "internalType": "address",
              "name": "referrer",
              "type": "address"
            },
            {
              "internalType": "address",
              "name": "liquidityPool",
              "type": "address"
            },
            {
              "internalType": "int256",
              "name": "minTradeAmount",
              "type": "int256"
            },
            {
              "internalType": "int256",
              "name": "amount",
              "type": "int256"
            },
            {
              "internalType": "int256",
              "name": "limitPrice",
              "type": "int256"
            },
            {
              "internalType": "int256",
              "name": "triggerPrice",
              "type": "int256"
            },
            {
              "internalType": "uint256",
              "name": "chainID",
              "type": "uint256"
            },
            {
              "internalType": "uint64",
              "name": "expiredAt",
              "type": "uint64"
            },
            {
              "internalType": "uint32",
              "name": "perpetualIndex",
              "type": "uint32"
            },
            {
              "internalType": "uint32",
              "name": "brokerFeeLimit",
              "type": "uint32"
            },
            {
              "internalType": "uint32",
              "name": "flags",
              "type": "uint32"
            },
            {
              "internalType": "uint32",
              "name": "salt",
              "type": "uint32"
            }
          ],
          "internalType": "struct Order",
          "name": "order",
          "type": "tuple"
        }
      ],
      "name": "isOrderCanceled",
      "outputs": [
        {
          "internalType": "bool",
          "name": "",
          "type": "bool"
        }
      ],
      "stateMutability": "view",
      "type": "function"
    },
    {
      "inputs": [
        {
          "internalType": "uint256",
          "name": "amount",
          "type": "uint256"
        }
      ],
      "name": "withdraw",
      "outputs": [],
      "stateMutability": "nonpayable",
      "type": "function"
    },
    {
      "stateMutability": "payable",
      "type": "receive"
    }
  ],
  "bytecode": "0x608060405234801561001057600080fd5b50600160008190555061002b61003360201b610ae01760201c565b600155610037565b4690565b612348806100466000396000f3fe6080604052600436106100745760003560e01c806389d1e3041161004e57806389d1e304146100fe578063abee6e5c1461012b578063ce4d643b1461014b578063d0e30db01461016b57610083565b80632e1a7d4d146100885780634e199146146100a857806370a08231146100de57610083565b366100835761008161016f565b005b600080fd5b34801561009457600080fd5b506100816100a3366004611864565b610238565b3480156100b457600080fd5b506100c86100c3366004611760565b610314565b6040516100d59190611c08565b60405180910390f35b3480156100ea57600080fd5b506100c86100f93660046115a9565b610336565b34801561010a57600080fd5b5061011e610119366004611760565b610355565b6040516100d59190611bfd565b34801561013757600080fd5b506100816101463660046115e1565b61037a565b34801561015757600080fd5b50610081610166366004611760565b61084e565b6100815b600260005414156101c7576040805162461bcd60e51b815260206004820152601f60248201527f5265656e7472616e637947756172643a207265656e7472616e742063616c6c00604482015290519081900360640190fd5b60026000908155338152600360205260409020546101e59034610ae4565b33600081815260036020526040908190209290925590517fe1fffcc4923d04b559f4d29a8bfc6cda04eb5b0d3c460751c2402c5c5cc9109c90610229903490611c08565b60405180910390a26001600055565b60026000541415610290576040805162461bcd60e51b815260206004820152601f60248201527f5265656e7472616e637947756172643a207265656e7472616e742063616c6c00604482015290519081900360640190fd5b60026000908155338152600360205260409020546102ae9082610b45565b336000818152600360205260409020919091556102cb9082610ba2565b336001600160a01b03167f884edad9ce6fa2440d8a54cc123490eb96d2768479d49ff9c7366125a9424364826040516103049190611c08565b60405180910390a2506001600055565b60008061032083610c8c565b6000908152600460205260409020549392505050565b6001600160a01b0381166000908152600360205260409020545b919050565b60008061036183610c8c565b60009081526005602052604090205460ff169392505050565b8460005b818110156108435761038e6113aa565b6103e989898481811061039d57fe5b90506020028101906103af9190612122565b8080601f016020809104026020016040519081016040528093929190818152602001838380828437600092019190915250610dab92505050565b905060606104488a8a858181106103fc57fe5b905060200281019061040e9190612122565b8080601f016020809104026020016040519081016040528093929190818152602001838380828437600092019190915250610e9792505050565b9050600061045583610c8c565b83519091506001600160a01b031661046d8284610f09565b6001600160a01b03161461049c5760405162461bcd60e51b815260040161049390611fa0565b60405180910390fd5b60008989868181106104aa57fe5b90506020020135905060008888878181106104c157fe5b9050602002013590506001548561012001511461051f577f1955905acc03ff235236ed3bc847a2b24e6a1a945754ffad043f7b8e01adaeb783868460405161050b93929190611de7565b60405180910390a150505050505050610846565b60008381526005602052604090205460ff1615610569577f1955905acc03ff235236ed3bc847a2b24e6a1a945754ffad043f7b8e01adaeb783868460405161050b93929190611ca0565b6105768560c00151610f73565b600084815260046020526040902054610598906105939085610f93565b610f73565b13156105d1577f1955905acc03ff235236ed3bc847a2b24e6a1a945754ffad043f7b8e01adaeb783868460405161050b93929190611d00565b84516105dc90610336565b811115610616577f1955905acc03ff235236ed3bc847a2b24e6a1a945754ffad043f7b8e01adaeb783868460405161050b93929190611ea7565b633b9aca0085610180015163ffffffff1602811115610662577f1955905acc03ff235236ed3bc847a2b24e6a1a945754ffad043f7b8e01adaeb783868460405161050b93929190611e47565b8460a0015161067083610f73565b12156106a9577f1955905acc03ff235236ed3bc847a2b24e6a1a945754ffad043f7b8e01adaeb783868460405161050b93929190611d60565b84608001516001600160a01b0316634fababb38e8e898181106106c857fe5b90506020028101906106da9190612122565b856040518463ffffffff1660e01b81526004016106f993929190611f68565b602060405180830381600087803b15801561071357600080fd5b505af1925050508015610743575060408051601f3d908101601f1916820190925261074091810190611748565b60015b6107d75761074f612191565b8061075a57506107a4565b7f1955905acc03ff235236ed3bc847a2b24e6a1a945754ffad043f7b8e01adaeb78487858460405161078f9493929190611c26565b60405180910390a15050505050505050610846565b7f1955905acc03ff235236ed3bc847a2b24e6a1a945754ffad043f7b8e01adaeb783868460405161050b93929190611edf565b6107e18482610ff8565b6107f48660000151876040015184611055565b7fa31c4dcf97bfab49d7f55b0dbc9a7a49d25cdfa4cead657a12315b48bf11f89a848783856040516108299493929190611f3f565b60405180910390a15050506001909301925061037e915050565b50505b505050505050565b80516001600160a01b0316331480159061087e575080604001516001600160a01b0316336001600160a01b031614155b15610a4e5761088b611426565b81608001516001600160a01b0316630cdc105a6040518163ffffffff1660e01b81526004016102806040518083038186803b1580156108c957600080fd5b505afa1580156108dd573d6000803e3d6000fd5b505050506040513d601f19601f820116820180604052508101906109019190611691565b50509250505060008160006007811061091657fe5b60200201516001600160a01b03166316d6b5f66040518163ffffffff1660e01b815260040160206040518083038186803b15801561095357600080fd5b505afa158015610967573d6000803e3d6000fd5b505050506040513d601f19601f8201168201806040525081019061098b91906115c5565b83516040517fc2f3da1d0000000000000000000000000000000000000000000000000000000081529192506000916001600160a01b0384169163c2f3da1d916109db919033906004908101611bd9565b60206040518083038186803b1580156109f357600080fd5b505afa158015610a07573d6000803e3d6000fd5b505050506040513d601f19601f82011682018060405250810190610a2b9190611677565b905080610a4a5760405162461bcd60e51b815260040161049390612045565b5050505b6000610a5982610c8c565b60008181526005602052604090205490915060ff1615610a8b5760405162461bcd60e51b81526004016104939061200e565b60008181526005602052604090819020805460ff19166001179055517f42c76c81a7cba1b9c861353909a184e20747ab960332628dabcbb5852fc5cbb590610ad4908390611c08565b60405180910390a15050565b4690565b600082820183811015610b3e576040805162461bcd60e51b815260206004820152601b60248201527f536166654d6174683a206164646974696f6e206f766572666c6f770000000000604482015290519081900360640190fd5b9392505050565b600082821115610b9c576040805162461bcd60e51b815260206004820152601e60248201527f536166654d6174683a207375627472616374696f6e206f766572666c6f770000604482015290519081900360640190fd5b50900390565b80471015610bf7576040805162461bcd60e51b815260206004820152601d60248201527f416464726573733a20696e73756666696369656e742062616c616e6365000000604482015290519081900360640190fd5b6040516000906001600160a01b0384169083908381818185875af1925050503d8060008114610c42576040519150601f19603f3d011682016040523d82523d6000602084013e610c47565b606091505b5050905080610c875760405162461bcd60e51b815260040180806020018281038252603a815260200180612271603a913960400191505060405180910390fd5b505050565b600080604051602001610c9e90611a20565b6040516020818303038152906040528051906020012083604051602001610cc6929190611c11565b604051602081830303815290604052805190602001209050604051602001610ced90611bb0565b60408051601f1981840301815282825280516020918201208383018352600f84527f4d61692050726f746f636f6c2076330000000000000000000000000000000000938201939093529051610d6592917f553f7e2049687f24030220180e64af84dd1272d5c99c4810278beb4f6e74e30991016119cb565b6040516020818303038152906040528051906020012081604051602001610d8d929190611b7a565b60405160208183030381529060405280519060200120915050919050565b610db36113aa565b61010082511015610dd65760405162461bcd60e51b815260040161049390611fd7565b6014820151815260288201516020820152603c82015160408083019190915260508301516060808401919091526064840151608080850191909152608485015160a08086019190915260a486015160c08087019190915260c487015160e087015260e4870151610100870152610104870151610120870152610124909601519586901c61014086015263ffffffff9086901c81166101608601529085901c81166101808501529084901c81166101a084015292901c9091166101c082015290565b606061015e82511015610ebc5760405162461bcd60e51b815260040161049390611fd7565b61013e82015161015e830151610124840151604051601882901a9160191a90610eef9085908590859085906020016119d9565b604051602081830303815290604052945050505050919050565b602081015160408201516060830151600092919080841a9060011a80610f3957610f328761116e565b9650610f5c565b60ff8116600114610f5c5760405162461bcd60e51b8152600401610493906120d9565b610f68878386866111bf565b979650505050505050565b600080821215610f8b57610f868261133d565b610f8d565b815b92915050565b6000828201818312801590610fa85750838112155b80610fbd5750600083128015610fbd57508381125b610b3e5760405162461bcd60e51b81526004018080602001828103825260218152602001806122506021913960400191505060405180910390fd5b6000828152600460205260409020546110119082610f93565b6000838152600460205260409081902091909155517f66bc40b7d864f86356146c435fb0178293d08d80e04a8fba27d0e372ffe2d82b90610ad490849084906119cb565b6001600160a01b03821661107b5760405162461bcd60e51b8152600401610493906120a2565b8061108557610c87565b6001600160a01b0383166000908152600360205260409020548111156110bd5760405162461bcd60e51b815260040161049390612110565b6001600160a01b0383166000908152600360205260409020546110e09082610b45565b6001600160a01b03808516600090815260036020526040808220939093559084168152205461110f9082610ae4565b6001600160a01b0380841660008181526003602052604090819020939093559151908516907fddf252ad1be2c89b69c2b068fc378daa952ba7f163c4a11628f55a4df523b3ef90611161908590611c08565b60405180910390a3505050565b604080517f19457468657265756d205369676e6564204d6573736167653a0a333200000000602080830191909152603c8083019490945282518083039094018452605c909101909152815191012090565b60007f7fffffffffffffffffffffffffffffff5d576e7357a4501ddfe92f46681b20a08211156112205760405162461bcd60e51b81526004018080602001828103825260228152602001806122ab6022913960400191505060405180910390fd5b8360ff16601b148061123557508360ff16601c145b6112705760405162461bcd60e51b81526004018080602001828103825260228152602001806122cd6022913960400191505060405180910390fd5b600060018686868660405160008152602001604052604051808581526020018460ff1681526020018381526020018281526020019450505050506020604051602081039080840390855afa1580156112cc573d6000803e3d6000fd5b5050604051601f1901519150506001600160a01b038116611334576040805162461bcd60e51b815260206004820152601860248201527f45434453413a20696e76616c6964207369676e61747572650000000000000000604482015290519081900360640190fd5b95945050505050565b6000610f8d600083600081830381831280159061135a5750838113155b8061136f575060008312801561136f57508381135b610b3e5760405162461bcd60e51b81526004018080602001828103825260248152602001806122ef6024913960400191505060405180910390fd5b604080516101e081018252600080825260208201819052918101829052606081018290526080810182905260a0810182905260c0810182905260e08101829052610100810182905261012081018290526101408101829052610160810182905261018081018290526101a081018290526101c081019190915290565b6040518060e001604052806007906020820280368337509192915050565b803561035081612237565b60008083601f840112611460578081fd5b50813567ffffffffffffffff811115611477578182fd5b602083019150836020808302850101111561149157600080fd5b9250929050565b600082601f8301126114a8578081fd5b60405160a0810181811067ffffffffffffffff821117156114c557fe5b6040529050808260a081018510156114dc57600080fd5b60005b60058110156114fe5781518352602092830192909101906001016114df565b50505092915050565b600082601f830112611517578081fd5b60405160c0810181811067ffffffffffffffff8211171561153457fe5b6040529050808260c0810185101561154b57600080fd5b60005b60068110156114fe57815183526020928301929091019060010161154e565b8051801515811461035057600080fd5b803563ffffffff8116811461035057600080fd5b803567ffffffffffffffff8116811461035057600080fd5b6000602082840312156115ba578081fd5b8135610b3e81612237565b6000602082840312156115d6578081fd5b8151610b3e81612237565b600080600080600080606087890312156115f9578182fd5b863567ffffffffffffffff80821115611610578384fd5b61161c8a838b0161144f565b90985096506020890135915080821115611634578384fd5b6116408a838b0161144f565b90965094506040890135915080821115611658578384fd5b5061166589828a0161144f565b979a9699509497509295939492505050565b600060208284031215611688578081fd5b610b3e8261156d565b600080600080600061028086880312156116a9578081fd5b6116b28661156d565b945060206116c181880161156d565b945087605f8801126116d1578182fd5b6116db60e0612167565b80604089016101208a018b8111156116f1578586fd5b855b600781101561171957825161170781612237565b855293850193918501916001016116f3565b508297506117278c82611498565b9650505050505061173c876101c08801611507565b90509295509295909350565b600060208284031215611759578081fd5b5051919050565b60006101e0808385031215611773578182fd5b61177c81612167565b905061178783611444565b815261179560208401611444565b60208201526117a660408401611444565b60408201526117b760608401611444565b60608201526117c860808401611444565b608082015260a083013560a082015260c083013560c082015260e083013560e0820152610100808401358183015250610120808401358183015250610140611811818501611591565b9082015261016061182384820161157d565b9082015261018061183584820161157d565b908201526101a061184784820161157d565b908201526101c061185984820161157d565b908201529392505050565b600060208284031215611875578081fd5b5035919050565b6001600160a01b03169052565b601081527f696e73756666696369656e742066656500000000000000000000000000000000602082015260400190565b6118c482825161187c565b60208101516118d6602084018261187c565b5060408101516118e9604084018261187c565b5060608101516118fc606084018261187c565b50608081015161190f608084018261187c565b5060a081015160a083015260c081015160c083015260e081015160e083015261010080820151818401525061012080820151818401525061014080820151611959828501826119bd565b50506101608082015161196e828501826119b3565b505061018080820151611983828501826119b3565b50506101a080820151611998828501826119b3565b50506101c0808201516119ad828501826119b3565b50505050565b63ffffffff169052565b67ffffffffffffffff169052565b918252602082015260400190565b93845260208401929092527fff0000000000000000000000000000000000000000000000000000000000000060f891821b8116604085015291901b16604182015260420190565b7f4f726465722861646472657373207472616465722c616464726573732062726f81527f6b65722c616464726573732072656c617965722c61646472657373207265666560208201527f727265722c61646472657373206c6971756964697479506f6f6c2c000000000060408201527f696e74323536206d696e5472616465416d6f756e742c696e7432353620616d6f605b8201527f756e742c696e74323536206c696d697450726963652c696e7432353620747269607b8201527f6767657250726963652c75696e7432353620636861696e49442c000000000000609b8201527f75696e743634206578706972656441742c75696e74333220706572706574756160b58201527f6c496e6465782c75696e7433322062726f6b65724665654c696d69742c75696e60d58201527f74333220666c6167732c75696e7433322073616c74290000000000000000000060f582015261010b0190565b7f190100000000000000000000000000000000000000000000000000000000000081526002810192909252602282015260420190565b7f454950373132446f6d61696e28737472696e67206e616d652900000000000000815260190190565b6001600160a01b039384168152919092166020820152604081019190915260600190565b901515815260200190565b90815260200190565b8281526102008101610b3e60208301846118b9565b60006102408683526020611c3c818501886118b9565b8561020085015281610220850152845180838601528392505b80831015611c7457858301820151858401610260015291810191611c55565b80831115611c86578361026082870101525b601f01601f19169390930161026001979650505050505050565b6000610240858352611cb560208401866118b9565b8361020084015280610220840152601181840152507f6f726465722069732063616e63656c656400000000000000000000000000000061026083015261028082019050949350505050565b6000610240858352611d1560208401866118b9565b8361020084015280610220840152601881840152507f6e6f20656e6f75676820616d6f756e7420746f2066696c6c000000000000000061026083015261028082019050949350505050565b6000610240858352611d7560208401866118b9565b8361020084015280610220840152602481840152507f616d6f756e74206973206c657373207468616e206d696e20747261646520616d6102608301527f6f756e74000000000000000000000000000000000000000000000000000000006102808301526102a082019050949350505050565b6000610240858352611dfc60208401866118b9565b8361020084015280610220840152601181840152507f636861696e206964206d69736d6174636800000000000000000000000000000061026083015261028082019050949350505050565b6000610240858352611e5c60208401866118b9565b8361020084015280610220840152601b81840152507f666565206578636565647320747261646520676173206c696d6974000000000061026083015261028082019050949350505050565b6000610240858352611ebc60208401866118b9565b8361020084015280610220840152611ed5818401611889565b9695505050505050565b6000610240858352611ef460208401866118b9565b8361020084015280610220840152601281840152507f7472616e73616374696f6e206661696c6564000000000000000000000000000061026083015261028082019050949350505050565b8481526102408101611f5460208301866118b9565b610200820193909352610220015292915050565b6000604082528360408301528385606084013780606085840101526060601f19601f8601168301019050826020830152949350505050565b6020808252600f908201527f7369676e6572206d69736d617463680000000000000000000000000000000000604082015260600190565b6020808252600b908201527f62726f6b656e2064617461000000000000000000000000000000000000000000604082015260600190565b60208082526019908201527f6f7264657220697320616c72656164792063616e63656c656400000000000000604082015260600190565b6020808252602e908201527f73656e646572206d75737420626520747261646572206f722072656c6179657260408201527f206f7220617574686f72697a6564000000000000000000000000000000000000606082015260800190565b6020808252601d908201527f74686520726563697069656e74206973207a65726f2061646472657373000000604082015260600190565b60208082526015908201527f756e737570706f72746564207369676e20747970650000000000000000000000604082015260600190565b600060208252610f8d60208301611889565b6000808335601e19843603018112612138578283fd5b83018035915067ffffffffffffffff821115612152578283fd5b60200191503681900382131561149157600080fd5b60405181810167ffffffffffffffff8111828210171561218357fe5b604052919050565b60e01c90565b600060443d10156121a157612234565b600481823e6308c379a06121b5825161218b565b146121bf57612234565b6040513d600319016004823e80513d67ffffffffffffffff81602484011181841117156121ef5750505050612234565b828401925082519150808211156122095750505050612234565b503d8301602082840101111561222157505050612234565b601f01601f191681016020016040529150505b90565b6001600160a01b038116811461224c57600080fd5b5056fe5369676e6564536166654d6174683a206164646974696f6e206f766572666c6f77416464726573733a20756e61626c6520746f2073656e642076616c75652c20726563697069656e74206d6179206861766520726576657274656445434453413a20696e76616c6964207369676e6174757265202773272076616c756545434453413a20696e76616c6964207369676e6174757265202776272076616c75655369676e6564536166654d6174683a207375627472616374696f6e206f766572666c6f77a2646970667358221220cc869022009e2d808dd1dcf53e7ca6c1d78834776c130a166148670f2021bcec64736f6c63430007040033",
  "linkReferences": {},
  "deployedLinkReferences": {}
}