{
  "_format": "hh-sol-artifact-1",
  "contractName": "TestMarginAccount",
  "sourceName": "contracts/test/TestMarginAccount.sol",
  "abi": [
    {
      "inputs": [
        {
          "internalType": "uint256",
          "name": "perpetualIndex",
          "type": "uint256"
        },
        {
          "internalType": "address",
          "name": "trader",
          "type": "address"
        }
      ],
      "name": "clear",
      "outputs": [
        {
          "internalType": "bool",
          "name": "isAllCleared",
          "type": "bool"
        }
      ],
      "stateMutability": "nonpayable",
      "type": "function"
    },
    {
      "inputs": [
        {
          "internalType": "address",
          "name": "oracle",
          "type": "address"
        },
        {
          "internalType": "int256[9]",
          "name": "baseParams",
          "type": "int256[9]"
        },
        {
          "internalType": "int256[8]",
          "name": "riskParams",
          "type": "int256[8]"
        }
      ],
      "name": "createPerpetual",
      "outputs": [],
      "stateMutability": "nonpayable",
      "type": "function"
    },
    {
      "inputs": [
        {
          "internalType": "uint256",
          "name": "perpetualIndex",
          "type": "uint256"
        },
        {
          "internalType": "int256",
          "name": "amount",
          "type": "int256"
        }
      ],
      "name": "decreaseTotalCollateral",
      "outputs": [],
      "stateMutability": "nonpayable",
      "type": "function"
    },
    {
      "inputs": [
        {
          "internalType": "uint256",
          "name": "perpetualIndex",
          "type": "uint256"
        },
        {
          "internalType": "address",
          "name": "trader",
          "type": "address"
        },
        {
          "internalType": "int256",
          "name": "amount",
          "type": "int256"
        }
      ],
      "name": "deposit",
      "outputs": [
        {
          "internalType": "bool",
          "name": "isInitialDeposit",
          "type": "bool"
        }
      ],
      "stateMutability": "nonpayable",
      "type": "function"
    },
    {
      "inputs": [
        {
          "internalType": "uint256",
          "name": "perpetualIndex",
          "type": "uint256"
        },
        {
          "internalType": "address",
          "name": "trader",
          "type": "address"
        }
      ],
      "name": "deregisterActiveAccount",
      "outputs": [],
      "stateMutability": "nonpayable",
      "type": "function"
    },
    {
      "inputs": [
        {
          "internalType": "uint256",
          "name": "perpetualIndex",
          "type": "uint256"
        }
      ],
      "name": "getActiveUserCount",
      "outputs": [
        {
          "internalType": "uint256",
          "name": "count",
          "type": "uint256"
        }
      ],
      "stateMutability": "view",
      "type": "function"
    },
    {
      "inputs": [
        {
          "internalType": "uint256",
          "name": "perpetualIndex",
          "type": "uint256"
        },
        {
          "internalType": "address",
          "name": "trader",
          "type": "address"
        }
      ],
      "name": "getAvailableCash",
      "outputs": [
        {
          "internalType": "int256",
          "name": "",
          "type": "int256"
        }
      ],
      "stateMutability": "view",
      "type": "function"
    },
    {
      "inputs": [
        {
          "internalType": "uint256",
          "name": "perpetualIndex",
          "type": "uint256"
        }
      ],
      "name": "getFundingRate",
      "outputs": [
        {
          "internalType": "int256",
          "name": "",
          "type": "int256"
        }
      ],
      "stateMutability": "view",
      "type": "function"
    },
    {
      "inputs": [
        {
          "internalType": "uint256",
          "name": "perpetualIndex",
          "type": "uint256"
        }
      ],
      "name": "getIndexPrice",
      "outputs": [
        {
          "internalType": "int256",
          "name": "price",
          "type": "int256"
        }
      ],
      "stateMutability": "view",
      "type": "function"
    },
    {
      "inputs": [
        {
          "internalType": "uint256",
          "name": "perpetualIndex",
          "type": "uint256"
        },
        {
          "internalType": "address",
          "name": "trader",
          "type": "address"
        }
      ],
      "name": "getInitialMargin",
      "outputs": [
        {
          "internalType": "int256",
          "name": "",
          "type": "int256"
        }
      ],
      "stateMutability": "view",
      "type": "function"
    },
    {
      "inputs": [
        {
          "internalType": "uint256",
          "name": "perpetualIndex",
          "type": "uint256"
        },
        {
          "internalType": "address",
          "name": "trader",
          "type": "address"
        }
      ],
      "name": "getMaintenanceMargin",
      "outputs": [
        {
          "internalType": "int256",
          "name": "",
          "type": "int256"
        }
      ],
      "stateMutability": "view",
      "type": "function"
    },
    {
      "inputs": [
        {
          "internalType": "uint256",
          "name": "perpetualIndex",
          "type": "uint256"
        },
        {
          "internalType": "address",
          "name": "trader",
          "type": "address"
        }
      ],
      "name": "getMargin2",
      "outputs": [
        {
          "internalType": "int256",
          "name": "",
          "type": "int256"
        }
      ],
      "stateMutability": "view",
      "type": "function"
    },
    {
      "inputs": [
        {
          "internalType": "uint256",
          "name": "perpetualIndex",
          "type": "uint256"
        },
        {
          "internalType": "address",
          "name": "trader",
          "type": "address"
        }
      ],
      "name": "getMarginAccount",
      "outputs": [
        {
          "internalType": "int256",
          "name": "cash",
          "type": "int256"
        },
        {
          "internalType": "int256",
          "name": "position",
          "type": "int256"
        }
      ],
      "stateMutability": "view",
      "type": "function"
    },
    {
      "inputs": [
        {
          "internalType": "uint256",
          "name": "perpetualIndex",
          "type": "uint256"
        }
      ],
      "name": "getMarkPrice",
      "outputs": [
        {
          "internalType": "int256",
          "name": "price",
          "type": "int256"
        }
      ],
      "stateMutability": "view",
      "type": "function"
    },
    {
      "inputs": [
        {
          "internalType": "uint256",
          "name": "perpetualIndex",
          "type": "uint256"
        }
      ],
      "name": "getNextActiveAccount",
      "outputs": [
        {
          "internalType": "address",
          "name": "account",
          "type": "address"
        }
      ],
      "stateMutability": "view",
      "type": "function"
    },
    {
      "inputs": [
        {
          "internalType": "uint256",
          "name": "perpetualIndex",
          "type": "uint256"
        }
      ],
      "name": "getOpenInterest",
      "outputs": [
        {
          "internalType": "int256",
          "name": "",
          "type": "int256"
        }
      ],
      "stateMutability": "view",
      "type": "function"
    },
    {
      "inputs": [
        {
          "internalType": "uint256",
          "name": "perpetualIndex",
          "type": "uint256"
        },
        {
          "internalType": "address",
          "name": "trader",
          "type": "address"
        }
      ],
      "name": "getPosition",
      "outputs": [
        {
          "internalType": "int256",
          "name": "",
          "type": "int256"
        }
      ],
      "stateMutability": "view",
      "type": "function"
    },
    {
      "inputs": [
        {
          "internalType": "uint256",
          "name": "perpetualIndex",
          "type": "uint256"
        }
      ],
      "name": "getRebalanceMargin",
      "outputs": [
        {
          "internalType": "int256",
          "name": "marginToRebalance",
          "type": "int256"
        }
      ],
      "stateMutability": "view",
      "type": "function"
    },
    {
      "inputs": [
        {
          "internalType": "uint256",
          "name": "perpetualIndex",
          "type": "uint256"
        }
      ],
      "name": "getRedemptionRateWithPosition",
      "outputs": [
        {
          "internalType": "int256",
          "name": "",
          "type": "int256"
        }
      ],
      "stateMutability": "view",
      "type": "function"
    },
    {
      "inputs": [
        {
          "internalType": "uint256",
          "name": "perpetualIndex",
          "type": "uint256"
        }
      ],
      "name": "getRedemptionRateWithoutPosition",
      "outputs": [
        {
          "internalType": "int256",
          "name": "",
          "type": "int256"
        }
      ],
      "stateMutability": "view",
      "type": "function"
    },
    {
      "inputs": [
        {
          "internalType": "uint256",
          "name": "perpetualIndex",
          "type": "uint256"
        },
        {
          "internalType": "address",
          "name": "trader",
          "type": "address"
        }
      ],
      "name": "getSettleableMargin",
      "outputs": [
        {
          "internalType": "int256",
          "name": "margin",
          "type": "int256"
        }
      ],
      "stateMutability": "view",
      "type": "function"
    },
    {
      "inputs": [
        {
          "internalType": "uint256",
          "name": "perpetualIndex",
          "type": "uint256"
        }
      ],
      "name": "getState",
      "outputs": [
        {
          "internalType": "enum PerpetualState",
          "name": "",
          "type": "uint8"
        }
      ],
      "stateMutability": "view",
      "type": "function"
    },
    {
      "inputs": [
        {
          "internalType": "uint256",
          "name": "perpetualIndex",
          "type": "uint256"
        }
      ],
      "name": "getTotalCollateral",
      "outputs": [
        {
          "internalType": "int256",
          "name": "",
          "type": "int256"
        }
      ],
      "stateMutability": "view",
      "type": "function"
    },
    {
      "inputs": [
        {
          "internalType": "uint256",
          "name": "perpetualIndex",
          "type": "uint256"
        }
      ],
      "name": "getTotalMarginWithPosition",
      "outputs": [
        {
          "internalType": "int256",
          "name": "",
          "type": "int256"
        }
      ],
      "stateMutability": "view",
      "type": "function"
    },
    {
      "inputs": [
        {
          "internalType": "uint256",
          "name": "perpetualIndex",
          "type": "uint256"
        }
      ],
      "name": "getTotalMarginWithoutPosition",
      "outputs": [
        {
          "internalType": "int256",
          "name": "",
          "type": "int256"
        }
      ],
      "stateMutability": "view",
      "type": "function"
    },
    {
      "inputs": [
        {
          "internalType": "uint256",
          "name": "perpetualIndex",
          "type": "uint256"
        }
      ],
      "name": "getUnitAccumulativeFunding",
      "outputs": [
        {
          "internalType": "int256",
          "name": "unitAccumulativeFunding",
          "type": "int256"
        }
      ],
      "stateMutability": "view",
      "type": "function"
    },
    {
      "inputs": [
        {
          "internalType": "uint256",
          "name": "perpetualIndex",
          "type": "uint256"
        },
        {
          "internalType": "int256",
          "name": "amount",
          "type": "int256"
        }
      ],
      "name": "increaseTotalCollateral",
      "outputs": [],
      "stateMutability": "nonpayable",
      "type": "function"
    },
    {
      "inputs": [
        {
          "internalType": "uint256",
          "name": "perpetualIndex",
          "type": "uint256"
        },
        {
          "internalType": "address",
          "name": "trader",
          "type": "address"
        }
      ],
      "name": "isEmptyAccount",
      "outputs": [
        {
          "internalType": "bool",
          "name": "",
          "type": "bool"
        }
      ],
      "stateMutability": "view",
      "type": "function"
    },
    {
      "inputs": [
        {
          "internalType": "uint256",
          "name": "perpetualIndex",
          "type": "uint256"
        },
        {
          "internalType": "address",
          "name": "trader",
          "type": "address"
        }
      ],
      "name": "isInitialMarginSafe",
      "outputs": [
        {
          "internalType": "bool",
          "name": "",
          "type": "bool"
        }
      ],
      "stateMutability": "view",
      "type": "function"
    },
    {
      "inputs": [
        {
          "internalType": "uint256",
          "name": "perpetualIndex",
          "type": "uint256"
        },
        {
          "internalType": "address",
          "name": "trader",
          "type": "address"
        }
      ],
      "name": "isMaintenanceMarginSafe",
      "outputs": [
        {
          "internalType": "bool",
          "name": "",
          "type": "bool"
        }
      ],
      "stateMutability": "view",
      "type": "function"
    },
    {
      "inputs": [
        {
          "internalType": "uint256",
          "name": "perpetualIndex",
          "type": "uint256"
        },
        {
          "internalType": "address",
          "name": "trader",
          "type": "address"
        }
      ],
      "name": "isTraderRegistered",
      "outputs": [
        {
          "internalType": "bool",
          "name": "isRegistered",
          "type": "bool"
        }
      ],
      "stateMutability": "view",
      "type": "function"
    },
    {
      "inputs": [
        {
          "internalType": "uint256",
          "name": "perpetualIndex",
          "type": "uint256"
        },
        {
          "internalType": "address",
          "name": "trader",
          "type": "address"
        }
      ],
      "name": "registerActiveAccount",
      "outputs": [],
      "stateMutability": "nonpayable",
      "type": "function"
    },
    {
      "inputs": [
        {
          "internalType": "uint256",
          "name": "perpetualIndex",
          "type": "uint256"
        }
      ],
      "name": "setClearedState",
      "outputs": [],
      "stateMutability": "nonpayable",
      "type": "function"
    },
    {
      "inputs": [
        {
          "internalType": "uint256",
          "name": "perpetualIndex",
          "type": "uint256"
        }
      ],
      "name": "setEmergencyState",
      "outputs": [],
      "stateMutability": "nonpayable",
      "type": "function"
    },
    {
      "inputs": [
        {
          "internalType": "uint256",
          "name": "perpetualIndex",
          "type": "uint256"
        },
        {
          "internalType": "int256",
          "name": "fundingRate",
          "type": "int256"
        }
      ],
      "name": "setFundingRate",
      "outputs": [],
      "stateMutability": "nonpayable",
      "type": "function"
    },
    {
      "inputs": [
        {
          "internalType": "int256",
          "name": "insuranceFundCap",
          "type": "int256"
        }
      ],
      "name": "setInsuranceFundCap",
      "outputs": [],
      "stateMutability": "nonpayable",
      "type": "function"
    },
    {
      "inputs": [
        {
          "internalType": "uint256",
          "name": "perpetualIndex",
          "type": "uint256"
        },
        {
          "internalType": "address",
          "name": "trader",
          "type": "address"
        },
        {
          "internalType": "int256",
          "name": "cash",
          "type": "int256"
        },
        {
          "internalType": "int256",
          "name": "position",
          "type": "int256"
        }
      ],
      "name": "setMarginAccount",
      "outputs": [],
      "stateMutability": "nonpayable",
      "type": "function"
    },
    {
      "inputs": [
        {
          "internalType": "uint256",
          "name": "perpetualIndex",
          "type": "uint256"
        }
      ],
      "name": "setNormalState",
      "outputs": [],
      "stateMutability": "nonpayable",
      "type": "function"
    },
    {
      "inputs": [
        {
          "internalType": "uint256",
          "name": "perpetualIndex",
          "type": "uint256"
        },
        {
          "internalType": "bytes32",
          "name": "key",
          "type": "bytes32"
        },
        {
          "internalType": "int256",
          "name": "newValue",
          "type": "int256"
        }
      ],
      "name": "setPerpetualBaseParameter",
      "outputs": [],
      "stateMutability": "nonpayable",
      "type": "function"
    },
    {
      "inputs": [
        {
          "internalType": "uint256",
          "name": "perpetualIndex",
          "type": "uint256"
        },
        {
          "internalType": "bytes32",
          "name": "key",
          "type": "bytes32"
        },
        {
          "internalType": "int256",
          "name": "newValue",
          "type": "int256"
        },
        {
          "internalType": "int256",
          "name": "newMinValue",
          "type": "int256"
        },
        {
          "internalType": "int256",
          "name": "newMaxValue",
          "type": "int256"
        }
      ],
      "name": "setPerpetualRiskParameter",
      "outputs": [],
      "stateMutability": "nonpayable",
      "type": "function"
    },
    {
      "inputs": [
        {
          "internalType": "uint256",
          "name": "perpetualIndex",
          "type": "uint256"
        },
        {
          "internalType": "enum PerpetualState",
          "name": "state",
          "type": "uint8"
        }
      ],
      "name": "setState",
      "outputs": [],
      "stateMutability": "nonpayable",
      "type": "function"
    },
    {
      "inputs": [
        {
          "internalType": "uint256",
          "name": "perpetualIndex",
          "type": "uint256"
        },
        {
          "internalType": "int256",
          "name": "amount",
          "type": "int256"
        }
      ],
      "name": "setTotalCollateral",
      "outputs": [],
      "stateMutability": "nonpayable",
      "type": "function"
    },
    {
      "inputs": [
        {
          "internalType": "uint256",
          "name": "perpetualIndex",
          "type": "uint256"
        },
        {
          "internalType": "int256",
          "name": "unitAccumulativeFunding",
          "type": "int256"
        }
      ],
      "name": "setUnitAccumulativeFunding",
      "outputs": [],
      "stateMutability": "nonpayable",
      "type": "function"
    },
    {
      "inputs": [
        {
          "internalType": "uint256",
          "name": "perpetualIndex",
          "type": "uint256"
        },
        {
          "internalType": "address",
          "name": "trader",
          "type": "address"
        }
      ],
      "name": "settle",
      "outputs": [
        {
          "internalType": "int256",
          "name": "marginToReturn",
          "type": "int256"
        }
      ],
      "stateMutability": "nonpayable",
      "type": "function"
    },
    {
      "inputs": [
        {
          "internalType": "uint256",
          "name": "perpetualIndex",
          "type": "uint256"
        }
      ],
      "name": "settleCollateral",
      "outputs": [],
      "stateMutability": "nonpayable",
      "type": "function"
    },
    {
      "inputs": [
        {
          "internalType": "uint256",
          "name": "perpetualIndex",
          "type": "uint256"
        },
        {
          "internalType": "int256",
          "name": "poolMargin",
          "type": "int256"
        }
      ],
      "name": "updateFundingRate",
      "outputs": [],
      "stateMutability": "nonpayable",
      "type": "function"
    },
    {
      "inputs": [
        {
          "internalType": "uint256",
          "name": "perpetualIndex",
          "type": "uint256"
        },
        {
          "internalType": "int256",
          "name": "timeElapsed",
          "type": "int256"
        }
      ],
      "name": "updateFundingState",
      "outputs": [],
      "stateMutability": "nonpayable",
      "type": "function"
    },
    {
      "inputs": [
        {
          "internalType": "uint256",
          "name": "perpetualIndex",
          "type": "uint256"
        },
        {
          "internalType": "address",
          "name": "trader",
          "type": "address"
        },
        {
          "internalType": "int256",
          "name": "deltaPosition",
          "type": "int256"
        },
        {
          "internalType": "int256",
          "name": "deltaCash",
          "type": "int256"
        }
      ],
      "name": "updateMargin",
      "outputs": [],
      "stateMutability": "nonpayable",
      "type": "function"
    },
    {
      "inputs": [
        {
          "internalType": "uint256",
          "name": "perpetualIndex",
          "type": "uint256"
        },
        {
          "internalType": "bytes32",
          "name": "key",
          "type": "bytes32"
        },
        {
          "internalType": "int256",
          "name": "newValue",
          "type": "int256"
        }
      ],
      "name": "updatePerpetualRiskParameter",
      "outputs": [],
      "stateMutability": "nonpayable",
      "type": "function"
    },
    {
      "inputs": [
        {
          "internalType": "uint256",
          "name": "perpetualIndex",
          "type": "uint256"
        }
      ],
      "name": "updatePrice",
      "outputs": [],
      "stateMutability": "nonpayable",
      "type": "function"
    },
    {
      "inputs": [
        {
          "internalType": "uint256",
          "name": "perpetualIndex",
          "type": "uint256"
        },
        {
          "internalType": "address",
          "name": "trader",
          "type": "address"
        },
        {
          "internalType": "int256",
          "name": "amount",
          "type": "int256"
        }
      ],
      "name": "withdraw",
      "outputs": [
        {
          "internalType": "bool",
          "name": "isLastWithdrawal",
          "type": "bool"
        }
      ],
      "stateMutability": "nonpayable",
      "type": "function"
    }
  ],
  "bytecode": "0x608060405234801561001057600080fd5b506127b5806100206000396000f3fe608060405234801561001057600080fd5b50600436106103415760003560e01c8063807b3576116101bd578063acd63984116100f9578063d29f541d116100a2578063dcdcc74f1161007c578063dcdcc74f146106fd578063ddc71fa414610710578063e03b901b14610723578063f955f8a91461073657610341565b8063d29f541d146106c4578063d8009be3146106d7578063d9339364146106ea57610341565b8063c12b9f42116100d3578063c12b9f421461068b578063c18dd1511461069e578063d19c973c146106b157610341565b8063acd6398414610652578063afc737d114610665578063bbb364f21461067857610341565b806392fcbd8011610166578063965ff5bc11610140578063965ff5bc146105f9578063975d47a51461060c5780639f52a2611461062c578063a91352351461063f57610341565b806392fcbd80146105c05780639572518e146105d3578063962d1938146105e657610341565b806388b348251161019757806388b34825146105875780638d6cc56d1461059a5780638dc7c977146105ad57610341565b8063807b35761461054e57806384eb2f2414610561578063861c748d1461057457610341565b80634de79fd61161028c57806369b990d31161023557806377992a0e1161020f57806377992a0e1461050757806378f140ea1461051a5780637d3ba80f1461052d5780638002a9241461041c57610341565b806369b990d3146104c15780636e7fea7b146104d45780636ef05a40146104e757610341565b8063625df04a11610266578063625df04a1461048857806366415e171461049b578063679dd8ec146104ae57610341565b80634de79fd61461044f5780635af3d061146104625780636189b03d1461047557610341565b80633172f173116102ee57806338597530116102c857806338597530146104095780634293911e1461041c57806344c9af281461042f57610341565b80633172f173146103d05780633190e48e146103e3578063371773a8146103f657610341565b80631b3ee0f11161031f5780631b3ee0f11461039557806325baaae2146103a85780633049f6fc146103bd57610341565b80630d51620814610346578063120806471461036f578063148eba5114610382575b600080fd5b61035961035436600461227c565b610749565b6040516103669190612421565b60405180910390f35b61035961037d366004612229565b61076b565b610359610390366004612229565b610782565b6103596103a3366004612229565b610797565b6103bb6103b63660046123aa565b6107ac565b005b6103596103cb366004612229565b610840565b6103596103de36600461227c565b610855565b6103bb6103f1366004612229565b610878565b610359610404366004612229565b61087d565b6103bb610417366004612229565b610892565b6103bb61042a36600461227c565b610923565b61044261043d366004612229565b610940565b604051610366919061240d565b6103bb61045d3660046122e2565b610958565b610359610470366004612229565b610972565b6103bb61048336600461231e565b610989565b61035961049636600461227c565b610ba4565b6103bb6104a93660046123aa565b610bc7565b6103bb6104bc366004612229565b610bdc565b6103bb6104cf3660046123aa565b610c3a565b6103596104e2366004612229565b610c56565b6104fa6104f53660046122ab565b610c70565b6040516103669190612402565b6104fa61051536600461227c565b610d29565b6104fa6105283660046122ab565b610d4c565b61054061053b36600461227c565b610dad565b60405161036692919061242a565b6103bb61055c366004612349565b610de0565b6104fa61056f36600461227c565b610f61565b6104fa61058236600461227c565b610f84565b6103bb61059536600461231e565b610f9c565b6103bb6105a8366004612229565b61110f565b6103596105bb366004612229565b611129565b6103bb6105ce3660046123aa565b6111d6565b6103bb6105e1366004612229565b6111ee565b6103596105f436600461227c565b61124c565b6103bb610607366004612383565b611302565b61061f61061a366004612229565b611335565b60405161036691906123ee565b61035961063a366004612229565b6113e2565b6104fa61064d36600461227c565b6113f7565b6103bb6106603660046122e2565b611412565b610359610673366004612229565b611446565b6104fa61068636600461227c565b61145b565b6103bb6106993660046123aa565b61150a565b6103596106ac366004612229565b61151f565b6103bb6106bf366004612229565b611534565b6103596106d236600461227c565b611592565b6103596106e5366004612229565b6115aa565b6103bb6106f83660046121b5565b6115bf565b61035961070b36600461227c565b61166d565b6103bb61071e3660046123aa565b611690565b61035961073136600461227c565b6116f0565b6103bb6107443660046123aa565b611713565b60008281526043602052604081206107618184611728565b9150505b92915050565b600081815260436020526040812061076590611762565b6000908152604360205260409020602f015490565b60009081526043602052604090206003015490565b6000828152604360205260409081902090517f3d1e253000000000000000000000000000000000000000000000000000000000815273__$74e2ba5c0a92ec095c0918ea877fa9275f$__91633d1e25309161080c9190859060040161242a565b60006040518083038186803b15801561082457600080fd5b505af4158015610838573d6000803e3d6000fd5b505050505050565b6000908152604360205260409020600b015490565b60008281526043602052604081206107618361087083611790565b8391906117be565b604455565b6000908152604360205260409020602e015490565b6000818152604360205260409081902090517f9ba1d11800000000000000000000000000000000000000000000000000000000815273__$74e2ba5c0a92ec095c0918ea877fa9275f$__91639ba1d118916108f09190600401612421565b60006040518083038186803b15801561090857600080fd5b505af415801561091c573d6000803e3d6000fd5b5050505050565b600082815260436020526040902061093b9082611817565b505050565b60009081526043602052604090206001015460ff1690565b600084815260436020526040902061083881858585611826565b600081815260436020526040812061076590611790565b60008381526043602052604090207f696e697469616c4d617267696e526174650000000000000000000000000000008314156109f75780600c015482126109eb5760405162461bcd60e51b81526004016109e2906125a8565b60405180910390fd5b600c8101829055610b9e565b827f6d61696e74656e616e63654d617267696e5261746500000000000000000000001415610a4e5780600d01548212610a425760405162461bcd60e51b81526004016109e290612514565b600d8101829055610b9e565b827f6f70657261746f724665655261746500000000000000000000000000000000001415610a8257600e8101829055610b9e565b827f6c704665655261746500000000000000000000000000000000000000000000001415610ab657600f8101829055610b9e565b827f6c69717569646174696f6e50656e616c747952617465000000000000000000001415610aea5760118101829055610b9e565b827f6b656570657247617352657761726400000000000000000000000000000000001415610b1e5760128101829055610b9e565b827f726566657272616c5265626174655261746500000000000000000000000000001415610b525760108101829055610b9e565b827f696e737572616e636546756e64526174650000000000000000000000000000001415610b865760138101829055610b9e565b60405162461bcd60e51b81526004016109e29061246f565b50505050565b600082815260436020526040812061076183610bbf83611790565b8391906118d1565b60009182526043602052604090912060020155565b6000818152604360205260409081902090517fdc28841e00000000000000000000000000000000000000000000000000000000815273__$74e2ba5c0a92ec095c0918ea877fa9275f$__9163dc28841e916108f09190600401612421565b6000828152604360205260409020610c529082611908565b5050565b60008181526043602052604081206107659060300161195f565b60008381526043602052604080822090517fc480202a00000000000000000000000000000000000000000000000000000000815273__$74e2ba5c0a92ec095c0918ea877fa9275f$__9163c480202a91610cd191908790879060040161261c565b60206040518083038186803b158015610ce957600080fd5b505af4158015610cfd573d6000803e3d6000fd5b505050506040513d601f19601f82011682018060405250810190610d219190612209565b949350505050565b600082815260436020526040812061076183610d4483611790565b83919061196a565b60008381526043602052604080822090517fd13cfaa900000000000000000000000000000000000000000000000000000000815273__$74e2ba5c0a92ec095c0918ea877fa9275f$__9163d13cfaa991610cd191908790879060040161261c565b60009182526043602090815260408084206001600160a01b03909316845260349092019052902080546001909101549091565b6000858152604360205260409020691a185b1994dc1c99585960b21b851415610e1757610e1260168201858585611982565b610838565b847f6f70656e536c697070616765466163746f7200000000000000000000000000001415610e4e57610e1260198201858585611982565b847f636c6f7365536c697070616765466163746f72000000000000000000000000001415610e8557610e12601c8201858585611982565b847f66756e64696e67526174654c696d6974000000000000000000000000000000001415610ebc57610e12601f8201858585611982565b847f616d6d4d61784c657665726167650000000000000000000000000000000000001415610ef357610e1260258201858585611982565b847f6d6178436c6f73655072696365446973636f756e7400000000000000000000001415610f2a57610e1260288201858585611982565b847f66756e64696e6752617465466163746f720000000000000000000000000000001415610b8657610e1260228201858585611982565b600082815260436020526040812061076183610f7c83611790565b8391906119be565b60008281526043602052604081206107618184611a04565b6000838152604360205260409020691a185b1994dc1c99585960b21b831415610fd157610fcc6016820183611a34565b610b9e565b827f6f70656e536c697070616765466163746f720000000000000000000000000000141561100657610fcc6019820183611a34565b827f636c6f7365536c697070616765466163746f7200000000000000000000000000141561103b57610fcc601c820183611a34565b827f66756e64696e67526174654c696d697400000000000000000000000000000000141561107057610fcc601f820183611a34565b827f616d6d4d61784c6576657261676500000000000000000000000000000000000014156110a557610fcc6025820183611a34565b827f6d6178436c6f73655072696365446973636f756e74000000000000000000000014156110da57610fcc6028820183611a34565b827f66756e64696e6752617465466163746f720000000000000000000000000000001415610b8657610fcc6022820183611a34565b600081815260436020526040902061112690611a6c565b50565b60008181526043602052604080822090517f84da931000000000000000000000000000000000000000000000000000000000815273__$74e2ba5c0a92ec095c0918ea877fa9275f$__916384da9310916111869190600401612421565b60206040518083038186803b15801561119e57600080fd5b505af41580156111b2573d6000803e3d6000fd5b505050506040513d601f19601f820116820180604052508101906107659190612241565b6000828152604360205260409020610c529082611b10565b6000818152604360205260409081902090517f39d281eb00000000000000000000000000000000000000000000000000000000815273__$74e2ba5c0a92ec095c0918ea877fa9275f$__916339d281eb916108f09190600401612421565b60008281526043602052604080822090517f49a837ae00000000000000000000000000000000000000000000000000000000815273__$74e2ba5c0a92ec095c0918ea877fa9275f$__916349a837ae916112ab91908690600401612605565b60206040518083038186803b1580156112c357600080fd5b505af41580156112d7573d6000803e3d6000fd5b505050506040513d601f19601f820116820180604052508101906112fb9190612241565b9392505050565b600082815260436020526040902060019081018054839260ff199091169083600481111561132c57fe5b02179055505050565b60008181526043602052604080822090517fd87384fe00000000000000000000000000000000000000000000000000000000815273__$74e2ba5c0a92ec095c0918ea877fa9275f$__9163d87384fe916113929190600401612421565b60206040518083038186803b1580156113aa57600080fd5b505af41580156113be573d6000803e3d6000fd5b505050506040513d601f19601f820116820180604052508101906107659190612199565b6000908152604360205260409020600a015490565b60008281526043602052604081206112fb9060300183611b4c565b60009384526043602090815260408086206001600160a01b0390951686526034909401905291909220918255600190910155565b60009081526043602052604090206002015490565b60008281526043602052604080822090517f5e91c9f800000000000000000000000000000000000000000000000000000000815273__$74e2ba5c0a92ec095c0918ea877fa9275f$__91635e91c9f8916114ba91908690600401612605565b60206040518083038186803b1580156114d257600080fd5b505af41580156114e6573d6000803e3d6000fd5b505050506040513d601f19601f820116820180604052508101906112fb9190612209565b600091825260436020526040909120600a0155565b6000908152604360205260409020602c015490565b6000818152604360205260409081902090517fc94606dd00000000000000000000000000000000000000000000000000000000815273__$74e2ba5c0a92ec095c0918ea877fa9275f$__9163c94606dd916108f09190600401612421565b60008281526043602052604081206107618184611b61565b6000908152604360205260409020602d015490565b6042546000818152604360205260409081902090517f445ab49400000000000000000000000000000000000000000000000000000000815273__$74e2ba5c0a92ec095c0918ea877fa9275f$__9063445ab4949061162d90849086908a908a908a908190819060040161263b565b60006040518083038186803b15801561164557600080fd5b505af4158015611659573d6000803e3d6000fd5b505060428054600101905550505050505050565b60008281526043602052604081206107618361168883611790565b839190611b82565b6000828152604360205260409081902090517f8f27c08f00000000000000000000000000000000000000000000000000000000815273__$74e2ba5c0a92ec095c0918ea877fa9275f$__91638f27c08f9161080c9190859060040161242a565b60008281526043602052604081206107618361170b83611790565b839190611bc5565b600091825260436020526040909120600b0155565b6001600160a01b03811660009081526034830160205260408120600b84015460018201546107619161175a9190611bf9565b825490611c2e565b60006002600183015460ff16600481111561177957fe5b14611788576008820154610765565b506004015490565b60006002600183015460ff1660048111156117a757fe5b146117b6576008820154610765565b506006015490565b60006117cb8484846118d1565b9050600081131561180d5760006117e28585611b61565b156117f15784602f01546117f7565b84602e01545b905061180582826001611c93565b9150506112fb565b5060009392505050565b60006112fb6030840183611cb1565b6001600160a01b03831660009081526034850160205260408120600181015461184f8186611cc6565b6001830155600b870154611879906118679087611bf9565b83546118739087611cc6565b90611cc6565b825560008113156118905761188d81611d2b565b92505b6000826001015413156118b05760018201546118ad908490611cc6565b92505b60038701546118bf9084611cc6565b87600301819055505050949350505050565b6000610d216118e08585611728565b6001600160a01b03851660009081526034870160205260409020600101546118739085611bf9565b60008112156119295760405162461bcd60e51b81526004016109e2906124a6565b60028201546119389082611c2e565b6002830181905560001315610c525760405162461bcd60e51b81526004016109e290612571565b600061076582611d38565b600080611978858585611d3c565b1215949350505050565b8183121580156119925750808313155b6119ae5760405162461bcd60e51b81526004016109e2906124dd565b9183556001830155600290910155565b6000806119cb8585611b61565b156119e8576119e38560120154611873878787611b82565b6119eb565b60005b9050806119f98686866118d1565b121595945050505050565b6001600160a01b038116600090815260348301602052604081208054158015610761575060010154159392505050565b81600101548112158015611a4c575081600201548113155b611a685760405162461bcd60e51b81526004016109e2906124dd565b9055565b600181015461010090046001600160a01b0316611a916006830182630e222f9b611d89565b611aac82600401826001600160a01b031663ccbdbee2611d89565b815460068301546007840154600485015460058601546040516001600160a01b038716957fec91322ffa6f23802efae915b1fc28a37d2d0986d25d2073c0a661498ad0076795611b04959194909391929091906126ba565b60405180910390a25050565b6000811215611b315760405162461bcd60e51b81526004016109e2906124a6565b6002820154611b409082611cc6565b82600201819055505050565b60006112fb836001600160a01b038416611e3b565b6001600160a01b031660009081526034909101602052604090206001015490565b600d8301546001600160a01b03831660009081526034850160205260408120600101549091610d2191611bc09190611bba9086611bf9565b90611bf9565b611e53565b600c8301546001600160a01b03831660009081526034850160205260408120600101549091610d2191611bc09190611bba90865b6000670de0b6b3a7640000611c1f611c118585611e6f565b670de0b6b3a7640000611f18565b81611c2657fe5b059392505050565b6000818303818312801590611c435750838113155b80611c585750600083128015611c5857508381135b6112fb5760405162461bcd60e51b815260040180806020018281038252602481526020018061275c6024913960400191505060405180910390fd5b6000610d21611ca28585611e6f565b670de0b6b3a764000084611f97565b60006112fb836001600160a01b038416612074565b6000828201818312801590611cdb5750838112155b80611cf05750600083128015611cf057508381125b6112fb5760405162461bcd60e51b81526004018080602001828103825260218152602001806126f36021913960400191505060405180910390fd5b6000610765600083611c2e565b5490565b600080611d498585611b61565b15611d6657611d618560120154611873878787611bc5565b611d69565b60005b9050611d8081611d7a8787876118d1565b90611c2e565b95945050505050565b60008083836040518163ffffffff1660e01b81526004016040805180830381600087803b158015611db957600080fd5b505af1158015611dcd573d6000803e3d6000fd5b505050506040513d601f19601f82011682018060405250810190611df19190612259565b91509150600082138015611e0457508015155b611e205760405162461bcd60e51b81526004016109e290612438565b8460010154811061091c579084556001909301929092555050565b60009081526001919091016020526040902054151590565b600080821215611e6b57611e6682611d2b565b610765565b5090565b600082611e7e57506000610765565b82600019148015611e925750600160ff1b82145b15611ece5760405162461bcd60e51b81526004018080602001828103825260278152602001806127356027913960400191505060405180910390fd5b82820282848281611edb57fe5b05146112fb5760405162461bcd60e51b81526004018080602001828103825260278152602001806127356027913960400191505060405180910390fd5b6000808213611f6e576040805162461bcd60e51b815260206004820152601f60248201527f726f756e6448616c665570206f6e6c7920737570706f7274732079203e203000604482015290519081900360640190fd5b60008312611f8a57611f838360028405611cc6565b9050610765565b6112fb8360028405611c2e565b600082611feb576040805162461bcd60e51b815260206004820152601060248201527f6469766973696f6e206279207a65726f00000000000000000000000000000000604482015290519081900360640190fd5b611ff584846120be565b905082848161200057fe5b0761200a576112fb565b60006120168585612176565b9050600083600181111561202657fe5b1480156120305750805b1561204357612040826001611cc6565b91505b600183600181111561205157fe5b14801561205c575080155b1561206c57611d80826001611c2e565b509392505050565b60006120808383611e3b565b6120b657508154600181810184556000848152602080822090930184905584548482528286019093526040902091909155610765565b506000610765565b600081612112576040805162461bcd60e51b815260206004820181905260248201527f5369676e6564536166654d6174683a206469766973696f6e206279207a65726f604482015290519081900360640190fd5b816000191480156121265750600160ff1b83145b156121625760405162461bcd60e51b81526004018080602001828103825260218152602001806127146021913960400191505060405180910390fd5b600082848161216d57fe5b05949350505050565b6000821580612183575081155b1561219057506001610765565b501860ff1d1590565b6000602082840312156121aa578081fd5b81516112fb816126dd565b60008060006102408085870312156121cb578283fd5b84356121d6816126dd565b93506101408501868111156121e9578384fd5b6020860193508682870111156121fd578283fd5b80925050509250925092565b60006020828403121561221a578081fd5b815180151581146112fb578182fd5b60006020828403121561223a578081fd5b5035919050565b600060208284031215612252578081fd5b5051919050565b6000806040838503121561226b578182fd5b505080516020909101519092909150565b6000806040838503121561228e578182fd5b8235915060208301356122a0816126dd565b809150509250929050565b6000806000606084860312156122bf578283fd5b8335925060208401356122d1816126dd565b929592945050506040919091013590565b600080600080608085870312156122f7578081fd5b843593506020850135612309816126dd565b93969395505050506040820135916060013590565b600080600060608486031215612332578283fd5b505081359360208301359350604090920135919050565b600080600080600060a08688031215612360578081fd5b505083359560208501359550604085013594606081013594506080013592509050565b60008060408385031215612395578182fd5b823591506020830135600581106122a0578182fd5b600080604083850312156123bc578182fd5b50508035926020909101359150565b8060005b6008811015610b9e5781358452602093840193909101906001016123cf565b6001600160a01b0391909116815260200190565b901515815260200190565b602081016005831061241b57fe5b91905290565b90815260200190565b918252602082015260400190565b60208082526012908201527f696e76616c696420707269636520646174610000000000000000000000000000604082015260600190565b6020808252600d908201527f6b6579206e6f7420666f756e6400000000000000000000000000000000000000604082015260600190565b60208082526012908201527f616d6f756e74206973206e656761746976650000000000000000000000000000604082015260600190565b60208082526012908201527f76616c7565206f7574206f662072616e67650000000000000000000000000000604082015260600190565b60208082526031908201527f696e6372656173696e67206d61696e74656e616e6365206d617267696e20726160408201527f7465206973206e6f7420616c6c6f776564000000000000000000000000000000606082015260800190565b60208082526016908201527f636f6c6c61746572616c206973206e6567617469766500000000000000000000604082015260600190565b6020808252602d908201527f696e6372656173696e6720696e697469616c206d617267696e2072617465206960408201527f73206e6f7420616c6c6f77656400000000000000000000000000000000000000606082015260800190565b9182526001600160a01b0316602082015260400190565b9283526001600160a01b03919091166020830152604082015260600190565b87815260208082018890526001600160a01b0387166040830152610480820190606083018760005b600981101561268057813583529183019190830190600101612663565b505050506126926101808301866123cb565b6126a06102808301856123cb565b6126ae6103808301846123cb565b98975050505050505050565b948552602085019390935260408401919091526060830152608082015260a00190565b6001600160a01b038116811461112657600080fdfe5369676e6564536166654d6174683a206164646974696f6e206f766572666c6f775369676e6564536166654d6174683a206469766973696f6e206f766572666c6f775369676e6564536166654d6174683a206d756c7469706c69636174696f6e206f766572666c6f775369676e6564536166654d6174683a207375627472616374696f6e206f766572666c6f77a2646970667358221220a11bdc16e105cc193626dfb8e7543e09149b3ba6568ced0eff7cbbe54ef5a01664736f6c63430007040033",
  "linkReferences": {
    "contracts/module/PerpetualModule.sol": {
      "PerpetualModule": [
        {
          "length": 20,
          "start": 2051
        },
        {
          "length": 20,
          "start": 2281
        },
        {
          "length": 20,
          "start": 3123
        },
        {
          "length": 20,
          "start": 3270
        },
        {
          "length": 20,
          "start": 3490
        },
        {
          "length": 20,
          "start": 4479
        },
        {
          "length": 20,
          "start": 4677
        },
        {
          "length": 20,
          "start": 4770
        },
        {
          "length": 20,
          "start": 5003
        },
        {
          "length": 20,
          "start": 5297
        },
        {
          "length": 20,
          "start": 5515
        },
        {
          "length": 20,
          "start": 5657
        },
        {
          "length": 20,
          "start": 5863
        }
      ]
    }
  },
  "deployedLinkReferences": {
    "contracts/module/PerpetualModule.sol": {
      "PerpetualModule": [
        {
          "length": 20,
          "start": 2019
        },
        {
          "length": 20,
          "start": 2249
        },
        {
          "length": 20,
          "start": 3091
        },
        {
          "length": 20,
          "start": 3238
        },
        {
          "length": 20,
          "start": 3458
        },
        {
          "length": 20,
          "start": 4447
        },
        {
          "length": 20,
          "start": 4645
        },
        {
          "length": 20,
          "start": 4738
        },
        {
          "length": 20,
          "start": 4971
        },
        {
          "length": 20,
          "start": 5265
        },
        {
          "length": 20,
          "start": 5483
        },
        {
          "length": 20,
          "start": 5625
        },
        {
          "length": 20,
          "start": 5831
        }
      ]
    }
  }
}