{
  "_format": "hh-sol-artifact-1",
  "contractName": "KeeperWhitelist",
  "sourceName": "contracts/factory/KeeperWhitelist.sol",
  "abi": [
    {
      "anonymous": false,
      "inputs": [
        {
          "indexed": true,
          "internalType": "address",
          "name": "keeper",
          "type": "address"
        }
      ],
      "name": "AddKeeperToWhitelist",
      "type": "event"
    },
    {
      "anonymous": false,
      "inputs": [
        {
          "indexed": true,
          "internalType": "address",
          "name": "previousOwner",
          "type": "address"
        },
        {
          "indexed": true,
          "internalType": "address",
          "name": "newOwner",
          "type": "address"
        }
      ],
      "name": "OwnershipTransferred",
      "type": "event"
    },
    {
      "anonymous": false,
      "inputs": [
        {
          "indexed": true,
          "internalType": "address",
          "name": "keeper",
          "type": "address"
        }
      ],
      "name": "RemoveKeeperFromWhitelist",
      "type": "event"
    },
    {
      "inputs": [
        {
          "internalType": "address",
          "name": "keeper",
          "type": "address"
        }
      ],
      "name": "addKeeper",
      "outputs": [],
      "stateMutability": "nonpayable",
      "type": "function"
    },
    {
      "inputs": [],
      "name": "getKeeperCount",
      "outputs": [
        {
          "internalType": "uint256",
          "name": "",
          "type": "uint256"
        }
      ],
      "stateMutability": "view",
      "type": "function"
    },
    {
      "inputs": [
        {
          "internalType": "address",
          "name": "keeper",
          "type": "address"
        }
      ],
      "name": "isKeeper",
      "outputs": [
        {
          "internalType": "bool",
          "name": "",
          "type": "bool"
        }
      ],
      "stateMutability": "view",
      "type": "function"
    },
    {
      "inputs": [
        {
          "internalType": "uint256",
          "name": "begin",
          "type": "uint256"
        },
        {
          "internalType": "uint256",
          "name": "end",
          "type": "uint256"
        }
      ],
      "name": "listKeepers",
      "outputs": [
        {
          "internalType": "address[]",
          "name": "",
          "type": "address[]"
        }
      ],
      "stateMutability": "view",
      "type": "function"
    },
    {
      "inputs": [],
      "name": "owner",
      "outputs": [
        {
          "internalType": "address",
          "name": "",
          "type": "address"
        }
      ],
      "stateMutability": "view",
      "type": "function"
    },
    {
      "inputs": [
        {
          "internalType": "address",
          "name": "keeper",
          "type": "address"
        }
      ],
      "name": "removeKeeper",
      "outputs": [],
      "stateMutability": "nonpayable",
      "type": "function"
    },
    {
      "inputs": [],
      "name": "renounceOwnership",
      "outputs": [],
      "stateMutability": "nonpayable",
      "type": "function"
    },
    {
      "inputs": [
        {
          "internalType": "address",
          "name": "newOwner",
          "type": "address"
        }
      ],
      "name": "transferOwnership",
      "outputs": [],
      "stateMutability": "nonpayable",
      "type": "function"
    }
  ],
  "bytecode": "0x608060405234801561001057600080fd5b50610bb0806100206000396000f3fe608060405234801561001057600080fd5b50600436106100885760003560e01c8063715018a61161005b578063715018a6146101885780638da5cb5b14610190578063d54bda97146101b4578063f2fde38b146101ce57610088565b80630a4a9bb41461008d57806314ae9f2e146101005780634032b72b146101285780636ba42aaa1461014e575b600080fd5b6100b0600480360360408110156100a357600080fd5b50803590602001356101f4565b60408051602080825283518183015283519192839290830191858101910280838360005b838110156100ec5781810151838201526020016100d4565b505050509050019250505060405180910390f35b6101266004803603602081101561011657600080fd5b50356001600160a01b031661020b565b005b6101266004803603602081101561013e57600080fd5b50356001600160a01b03166103cd565b6101746004803603602081101561016457600080fd5b50356001600160a01b031661057a565b604080519115158252519081900360200190f35b610126610587565b610198610652565b604080516001600160a01b039092168252519081900360200190f35b6101bc610661565b60408051918252519081900360200190f35b610126600480360360208110156101e457600080fd5b50356001600160a01b0316610672565b606061020260658484610794565b90505b92915050565b6102136108b3565b6001600160a01b0316610224610652565b6001600160a01b03161461027f576040805162461bcd60e51b815260206004820181905260248201527f4f776e61626c653a2063616c6c6572206973206e6f7420746865206f776e6572604482015290519081900360640190fd5b6001600160a01b0381166102da576040805162461bcd60e51b815260206004820152601760248201527f6163636f756e74206973207a65726f2d61646472657373000000000000000000604482015290519081900360640190fd5b6102e38161057a565b610334576040805162461bcd60e51b815260206004820152601e60248201527f6b6565706572206973206e6f7420696e207468652077686974656c6973740000604482015290519081900360640190fd5b60006103416065836108b7565b905080610395576040805162461bcd60e51b815260206004820152601560248201527f6661696c20746f2072656d6f7665206b65657065720000000000000000000000604482015290519081900360640190fd5b6040516001600160a01b038316907fbe3bdeafee52d4ccc66d6c1392815c90e3a1c88659588b2ee138035fd8ab009e90600090a25050565b6103d56108b3565b6001600160a01b03166103e6610652565b6001600160a01b031614610441576040805162461bcd60e51b815260206004820181905260248201527f4f776e61626c653a2063616c6c6572206973206e6f7420746865206f776e6572604482015290519081900360640190fd5b6001600160a01b03811661049c576040805162461bcd60e51b815260206004820152601760248201527f6163636f756e74206973207a65726f2d61646472657373000000000000000000604482015290519081900360640190fd5b6104a58161057a565b156104e15760405162461bcd60e51b8152600401808060200182810382526022815260200180610b596022913960400191505060405180910390fd5b60006104ee6065836108cc565b905080610542576040805162461bcd60e51b815260206004820152601260248201527f6661696c20746f20616464206b65657065720000000000000000000000000000604482015290519081900360640190fd5b6040516001600160a01b038316907f26ae89c0d3c267cb14cd6aa7e2de3d1c55a87f6610a3ca5f1d8cf19ca65cd39d90600090a25050565b60006102056065836108e1565b61058f6108b3565b6001600160a01b03166105a0610652565b6001600160a01b0316146105fb576040805162461bcd60e51b815260206004820181905260248201527f4f776e61626c653a2063616c6c6572206973206e6f7420746865206f776e6572604482015290519081900360640190fd5b6033546040516000916001600160a01b0316907f8be0079c531659141344cd1fd0a4f28419497f9722a3daafe3b4186f6b6457e0908390a36033805473ffffffffffffffffffffffffffffffffffffffff19169055565b6033546001600160a01b031690565b600061066d60656108f6565b905090565b61067a6108b3565b6001600160a01b031661068b610652565b6001600160a01b0316146106e6576040805162461bcd60e51b815260206004820181905260248201527f4f776e61626c653a2063616c6c6572206973206e6f7420746865206f776e6572604482015290519081900360640190fd5b6001600160a01b03811661072b5760405162461bcd60e51b8152600401808060200182810382526026815260200180610b336026913960400191505060405180910390fd5b6033546040516001600160a01b038084169216907f8be0079c531659141344cd1fd0a4f28419497f9722a3daafe3b4186f6b6457e090600090a36033805473ffffffffffffffffffffffffffffffffffffffff19166001600160a01b0392909216919091179055565b60608282116107ea576040805162461bcd60e51b815260206004820152601e60248201527f626567696e2073686f756c64206265206c6f776572207468616e20656e640000604482015290519081900360640190fd5b60006107f5856108f6565b905080841061080457506108ac565b60006108108483610901565b905061081c8186610917565b67ffffffffffffffff8111801561083257600080fd5b5060405190808252806020026020018201604052801561085c578160200160208202803683370190505b509250845b818110156108a8576108738782610974565b8461087e8389610917565b8151811061088857fe5b6001600160a01b0390921660209283029190910190910152600101610861565b5050505b9392505050565b3390565b6000610202836001600160a01b038416610980565b6000610202836001600160a01b038416610a46565b6000610202836001600160a01b038416610a90565b600061020582610aa8565b60008183106109105781610202565b5090919050565b60008282111561096e576040805162461bcd60e51b815260206004820152601e60248201527f536166654d6174683a207375627472616374696f6e206f766572666c6f770000604482015290519081900360640190fd5b50900390565b60006102028383610aac565b60008181526001830160205260408120548015610a3c57835460001980830191908101906000908790839081106109b357fe5b90600052602060002001549050808760000184815481106109d057fe5b600091825260208083209091019290925582815260018981019092526040902090840190558654879080610a0057fe5b60019003818190600052602060002001600090559055866001016000878152602001908152602001600020600090556001945050505050610205565b6000915050610205565b6000610a528383610a90565b610a8857508154600181810184556000848152602080822090930184905584548482528286019093526040902091909155610205565b506000610205565b60009081526001919091016020526040902054151590565b5490565b81546000908210610aee5760405162461bcd60e51b8152600401808060200182810382526022815260200180610b116022913960400191505060405180910390fd5b826000018281548110610afd57fe5b906000526020600020015490509291505056fe456e756d657261626c655365743a20696e646578206f7574206f6620626f756e64734f776e61626c653a206e6577206f776e657220697320746865207a65726f20616464726573736b656570657220697320616c726561647920696e207468652077686974656c697374a2646970667358221220918fb0e77b29d68a31f08583346bd18fee9f2a57cb716db156d786bbbefb62c764736f6c63430007040033",
  "linkReferences": {},
  "deployedLinkReferences": {}
}