{
  "_format": "hh-sol-artifact-1",
  "contractName": "UniswapV3OracleAdaptorCreator",
  "sourceName": "contracts/oracle/uniswap/UniswapV3OracleAdaptorCreator.sol",
  "abi": [
    {
      "anonymous": false,
      "inputs": [
        {
          "indexed": false,
          "internalType": "address",
          "name": "adaptor",
          "type": "address"
        },
        {
          "indexed": false,
          "internalType": "address[]",
          "name": "path",
          "type": "address[]"
        },
        {
          "indexed": false,
          "internalType": "uint24[]",
          "name": "fees",
          "type": "uint24[]"
        },
        {
          "indexed": false,
          "internalType": "uint32",
          "name": "shortPeriod",
          "type": "uint32"
        },
        {
          "indexed": false,
          "internalType": "uint32",
          "name": "longPeriod",
          "type": "uint32"
        }
      ],
      "name": "NewUniswapV3OracleAdaptor",
      "type": "event"
    },
    {
      "inputs": [
        {
          "internalType": "bytes32",
          "name": "",
          "type": "bytes32"
        }
      ],
      "name": "adaptors",
      "outputs": [
        {
          "internalType": "address",
          "name": "",
          "type": "address"
        }
      ],
      "stateMutability": "view",
      "type": "function"
    },
    {
      "inputs": [
        {
          "internalType": "address",
          "name": "factory",
          "type": "address"
        },
        {
          "internalType": "address[]",
          "name": "path",
          "type": "address[]"
        },
        {
          "internalType": "uint24[]",
          "name": "fees",
          "type": "uint24[]"
        },
        {
          "internalType": "uint32",
          "name": "shortPeriod",
          "type": "uint32"
        },
        {
          "internalType": "uint32",
          "name": "longPeriod",
          "type": "uint32"
        }
      ],
      "name": "createAdaptor",
      "outputs": [
        {
          "internalType": "address",
          "name": "instance",
          "type": "address"
        }
      ],
      "stateMutability": "nonpayable",
      "type": "function"
    },
    {
      "inputs": [
        {
          "components": [
            {
              "internalType": "address[]",
              "name": "path",
              "type": "address[]"
            },
            {
              "internalType": "uint24[]",
              "name": "fees",
              "type": "uint24[]"
            },
            {
              "internalType": "uint32",
              "name": "shortPeriod",
              "type": "uint32"
            },
            {
              "internalType": "uint32",
              "name": "longPeriod",
              "type": "uint32"
            }
          ],
          "internalType": "struct UniswapV3OracleAdaptorCreator.AdaptorData",
          "name": "adaptorData",
          "type": "tuple"
        }
      ],
      "name": "getAdaptorDataHash",
      "outputs": [
        {
          "internalType": "bytes32",
          "name": "",
          "type": "bytes32"
        }
      ],
      "stateMutability": "pure",
      "type": "function"
    }
  ],
  "bytecode": "0x608060405234801561001057600080fd5b506126c9806100206000396000f3fe60806040523480156200001157600080fd5b5060043610620000465760003560e01c8063152baa80146200004b5780632ed5b3e4146200007a5780638c11820414620000a0575b600080fd5b620000626200005c366004620004ab565b620000b7565b60405162000071919062000661565b60405180910390f35b620000916200008b36600462000492565b620000ea565b604051620000719190620005f2565b62000091620000b1366004620003f2565b62000105565b600081604051602001620000cc9190620006a1565b6040516020818303038152906040528051906020012090505b919050565b6000602081905290815260409020546001600160a01b031681565b60006200011162000281565b60405180608001604052808781526020018681526020018563ffffffff1681526020018463ffffffff16815250905060006200014d82620000b7565b6000818152602081905260409020549091506001600160a01b031615620001ab576040517f08c379a0000000000000000000000000000000000000000000000000000000008152600401620001a2906200066a565b60405180910390fd5b60008888888888604051620001c090620002b5565b620001d095949392919062000606565b604051809103906000f080158015620001ed573d6000803e3d6000fd5b506000838152602081905260409081902080547fffffffffffffffffffffffff0000000000000000000000000000000000000000166001600160a01b038416179055519094508491507f93aaf92fc22f28dec2ab0ef17dd56f8ef5e2b53680dea23116a3e5d70f975237906200026d9083908b908b908b908b9062000606565b60405180910390a150505095945050505050565b60405180608001604052806060815260200160608152602001600063ffffffff168152602001600063ffffffff1681525090565b611f44806200075083390190565b80356001600160a01b0381168114620000e557600080fd5b600082601f830112620002ec578081fd5b813562000303620002fd8262000730565b6200070b565b8181529150602080830190848101818402860182018710156200032557600080fd5b60005b848110156200034f576200033c82620002c3565b8452928201929082019060010162000328565b505050505092915050565b600082601f8301126200036b578081fd5b81356200037c620002fd8262000730565b8181529150602080830190848101818402860182018710156200039e57600080fd5b6000805b85811015620003d157823562ffffff81168114620003be578283fd5b85529383019391830191600101620003a2565b50505050505092915050565b803563ffffffff81168114620000e557600080fd5b600080600080600060a086880312156200040a578081fd5b6200041586620002c3565b9450602086013567ffffffffffffffff8082111562000432578283fd5b6200044089838a01620002db565b9550604088013591508082111562000456578283fd5b5062000465888289016200035a565b9350506200047660608701620003dd565b91506200048660808701620003dd565b90509295509295909350565b600060208284031215620004a4578081fd5b5035919050565b600060208284031215620004bd578081fd5b813567ffffffffffffffff80821115620004d5578283fd5b9083019060808286031215620004e9578283fd5b604051608081018181108382111715620004ff57fe5b60405282358281111562000511578485fd5b6200051f87828601620002db565b82525060208301358281111562000534578485fd5b62000542878286016200035a565b6020830152506200055660408401620003dd565b60408201526200056960608401620003dd565b606082015295945050505050565b6000815180845260208085019450808401835b83811015620005b15781516001600160a01b0316875295820195908201906001016200058a565b509495945050505050565b6000815180845260208085019450808401835b83811015620005b157815162ffffff1687529582019590820190600101620005cf565b6001600160a01b0391909116815260200190565b60006001600160a01b038716825260a060208301526200062a60a083018762000577565b82810360408401526200063e8187620005bc565b91505063ffffffff80851660608401528084166080840152509695505050505050565b90815260200190565b60208082526010908201527f616c7265616479206465706c6f79656400000000000000000000000000000000604082015260600190565b600060208252825160806020840152620006bf60a084018262000577565b90506020840151601f19848303016040850152620006de8282620005bc565b915050604084015163ffffffff808216606086015280606087015116608086015250508091505092915050565b60405181810167ffffffffffffffff811182821017156200072857fe5b604052919050565b600067ffffffffffffffff8211156200074557fe5b506020908102019056fe60806040523480156200001157600080fd5b5060405162001f4438038062001f4483398101604081905262000034916200093e565b83516002811015620000635760405162461bcd60e51b81526004016200005a9062000c06565b60405180910390fd5b83516001820314620000895760405162461bcd60e51b81526004016200005a9062000b21565b60008363ffffffff1611620000b25760405162461bcd60e51b81526004016200005a9062000bab565b8263ffffffff168263ffffffff161015620000e15760405162461bcd60e51b81526004016200005a9062000bcf565b846001820381518110620000f157fe5b60200260200101516001600160a01b03166395d89b416040518163ffffffff1660e01b815260040160006040518083038186803b1580156200013257600080fd5b505afa15801562000147573d6000803e3d6000fd5b505050506040513d6000823e601f3d908101601f1916820160405262000171919081019062000a46565b80516200018791600091602090910190620006b6565b508460018203815181106200019857fe5b60200260200101516001600160a01b031663313ce5676040518163ffffffff1660e01b815260040160206040518083038186803b158015620001d957600080fd5b505afa158015620001ee573d6000803e3d6000fd5b505050506040513d601f19601f8201168201806040525081019062000214919062000af7565b600660006101000a81548160ff021916908360ff160217905550846000815181106200023c57fe5b60200260200101516001600160a01b03166395d89b416040518163ffffffff1660e01b815260040160006040518083038186803b1580156200027d57600080fd5b505afa15801562000292573d6000803e3d6000fd5b505050506040513d6000823e601f3d908101601f19168201604052620002bc919081019062000a46565b8051620002d291600191602090910190620006b6565b5084600081518110620002e157fe5b60200260200101516001600160a01b031663313ce5676040518163ffffffff1660e01b815260040160206040518083038186803b1580156200032257600080fd5b505afa15801562000337573d6000803e3d6000fd5b505050506040513d601f19601f820116820180604052508101906200035d919062000af7565b6006805461ff00191661010060ff9384160217908190556012911611801590620003935750600654601261010090910460ff1611155b620003b25760405162461bcd60e51b81526004016200005a9062000b58565b6002805463ffffffff85811663ffffffff199186166401000000000263ffffffff60201b1990931692909217161790558451620003f79060049060208801906200074b565b5083516200040d906005906020870190620007a3565b5060005b600182038110156200054e576000620004b588620004a4600485815481106200043657fe5b600091825260209091200154600480546001600160a01b0390921691600188019081106200046057fe5b9060005260206000200160009054906101000a90046001600160a01b03168a87815181106200048b57fe5b60200260200101516200055b60201b620004981760201c565b620005b460201b620004fa1760201c565b9050620004d6816001600160a01b0316620006ac60201b620005f61760201c565b620004f55760405162461bcd60e51b81526004016200005a9062000b82565b60038054600180820183556000929092527fc2575a0e9e593c00f959f8c92f12db2869c3395a3b0502d05e2516446f71f85b0180546001600160a01b0319166001600160a01b0393909316929092179091550162000411565b5050505050505062000c7f565b6200056562000851565b826001600160a01b0316846001600160a01b0316111562000584579192915b50604080516060810182526001600160a01b03948516815292909316602083015262ffffff169181019190915290565b600081602001516001600160a01b031682600001516001600160a01b031610620005dd57600080fd5b50805160208083015160409384015184516001600160a01b0394851681850152939091168385015262ffffff166060808401919091528351808403820181526080840185528051908301207fff0000000000000000000000000000000000000000000000000000000000000060a085015294901b6001600160601b03191660a183015260b58201939093527fe34f199b19b2b4f47f68442619d555527d244f78a3297ea89325f843f87b8b5460d5808301919091528251808303909101815260f5909101909152805191012090565b803b15155b919050565b828054600181600116156101000203166002900490600052602060002090601f016020900481019282620006ee576000855562000739565b82601f106200070957805160ff191683800117855562000739565b8280016001018555821562000739579182015b82811115620007395782518255916020019190600101906200071c565b506200074792915062000871565b5090565b82805482825590600052602060002090810192821562000739579160200282015b828111156200073957825182546001600160a01b0319166001600160a01b039091161782556020909201916001909101906200076c565b82805482825590600052602060002090600901600a90048101928215620007395791602002820160005b838211156200081157835183826101000a81548162ffffff021916908362ffffff1602179055509260200192600301602081600201049283019260010302620007cd565b8015620008425782816101000a81549062ffffff021916905560030160208160020104928301926001030262000811565b50506200074792915062000871565b604080516060810182526000808252602082018190529181019190915290565b5b8082111562000747576000815560010162000872565b80516001600160a01b0381168114620006b157600080fd5b600082601f830112620008b1578081fd5b8151620008c8620008c28262000c61565b62000c3d565b818152915060208083019084810181840286018201871015620008ea57600080fd5b6000805b858110156200091d57825162ffffff811681146200090a578283fd5b85529383019391830191600101620008ee565b50505050505092915050565b805163ffffffff81168114620006b157600080fd5b600080600080600060a0868803121562000956578081fd5b620009618662000888565b602087810151919650906001600160401b038082111562000980578384fd5b818901915089601f83011262000994578384fd5b8151620009a5620008c28262000c61565b81815284810190848601868402860187018e1015620009c2578788fd5b8795505b83861015620009ef57620009da8162000888565b835260019590950194918601918601620009c6565b5060408c0151909950945050508083111562000a09578384fd5b505062000a1988828901620008a0565b93505062000a2a6060870162000929565b915062000a3a6080870162000929565b90509295509295909350565b6000602080838503121562000a59578182fd5b82516001600160401b038082111562000a70578384fd5b818501915085601f83011262000a84578384fd5b81518181111562000a9157fe5b62000aa5601f8201601f1916850162000c3d565b9150808252868482850101111562000abb578485fd5b845b8181101562000ada57838101850151838201860152840162000abd565b8181111562000aeb57858583850101525b50909695505050505050565b60006020828403121562000b09578081fd5b815160ff8116811462000b1a578182fd5b9392505050565b6020808252601d908201527f706174687320616e64206665657320617265206d69736d617463686564000000604082015260600190565b60208082526010908201526f0c8cac6d2dac2d8e640deeccae44062760831b604082015260600190565b6020808252600f908201526e706f6f6c206e6f742065786973747360881b604082015260600190565b6020808252600a90820152690706572696f64203d20360b41b604082015260600190565b60208082526018908201527f73686f7274506572696f64203e206c6f6e67506572696f640000000000000000604082015260600190565b60208082526013908201527f70617468732061726520746f6f2073686f727400000000000000000000000000604082015260600190565b6040518181016001600160401b038111828210171562000c5957fe5b604052919050565b60006001600160401b0382111562000c7557fe5b5060209081020190565b6112b58062000c8f6000396000f3fe608060405234801561001057600080fd5b50600436106100885760003560e01c8063b7e86c1f1161005b578063b7e86c1f146100de578063ccbdbee2146100f3578063d1cc9976146100de578063d8dfeb45146100fb57610088565b80630e222f9b1461008d57806367e828bf146100ac5780637158da7c146100c15780639410b9e2146100c9575b600080fd5b610095610103565b6040516100a392919061114b565b60405180910390f35b6100b4610129565b6040516100a39190611159565b6100b4610162565b6100d16101ef565b6040516100a3919061116c565b6100e6610421565b6040516100a39190611140565b610095610426565b6100b461043d565b600080610121600260049054906101000a900463ffffffff166105fc565b915091509091565b6040518060400160405280601681526020017f556e697377617056334f7261636c6541646170746f720000000000000000000081525081565b60018054604080516020600284861615610100026000190190941693909304601f810184900484028201840190925281815292918301828280156101e75780601f106101bc576101008083540402835291602001916101e7565b820191906000526020600020905b8154815290600101906020018083116101ca57829003601f168201915b505050505081565b6101f7610f83565b60045467ffffffffffffffff8111801561021057600080fd5b5060405190808252806020026020018201604052801561024457816020015b606081526020019060019003908161022f5790505b50602082015260005b600454811015610323576004818154811061026457fe5b6000918252602082200154604080517f95d89b4100000000000000000000000000000000000000000000000000000000815290516001600160a01b03909216926395d89b4192600480840193829003018186803b1580156102c457600080fd5b505afa1580156102d8573d6000803e3d6000fd5b505050506040513d6000823e601f3d908101601f191682016040526103009190810190610fde565b8260200151828151811061031057fe5b602090810291909101015260010161024d565b50600480548060200260200160405190810160405280929190818152602001828054801561037a57602002820191906000526020600020905b81546001600160a01b0316815260019091019060200180831161035c575b505050918352505060058054604080516020808402820181019092528281529291908301828280156103f557602002820191906000526020600020906000905b82829054906101000a900462ffffff1662ffffff16815260200190600301906020826002010492830192600103820291508084116103ba5790505b5050505050604082015260025463ffffffff808216606084015264010000000090910416608082015290565b600090565b60025460009081906101219063ffffffff166105fc565b6000805460408051602060026001851615610100026000190190941693909304601f810184900484028201840190925281815292918301828280156101e75780601f106101bc576101008083540402835291602001916101e7565b6104a0610fbe565b826001600160a01b0316846001600160a01b031611156104be579192915b6040518060600160405280856001600160a01b03168152602001846001600160a01b031681526020018362ffffff1681525090505b9392505050565b600081602001516001600160a01b031682600001516001600160a01b03161061052257600080fd5b50805160208083015160409384015184516001600160a01b0394851681850152939091168385015262ffffff166060808401919091528351808403820181526080840185528051908301207fff0000000000000000000000000000000000000000000000000000000000000060a085015294901b6bffffffffffffffffffffffff191660a183015260b58201939093527fe34f199b19b2b4f47f68442619d555527d244f78a3297ea89325f843f87b8b5460d5808301919091528251808303909101815260f5909101909152805191012090565b3b151590565b600654600354600091829160ff808316601203610100909304811692909201909116600a0a90825b818110156106c95760006106596003838154811061063e57fe5b6000918252602090912001546001600160a01b0316886106e6565b905060006106b282866004868154811061066f57fe5b600091825260209091200154600480546001600160a01b03909216916001890190811061069857fe5b6000918252602090912001546001600160a01b0316610a1a565b90506106bd81610b3e565b94505050600101610624565b50506fffffffffffffffffffffffffffffffff1693429350915050565b600063ffffffff8216610740576040805162461bcd60e51b815260206004820152600260248201527f4250000000000000000000000000000000000000000000000000000000000000604482015290519081900360640190fd5b6040805160028082526060808301845292602083019080368337019050509050828160008151811061076e57fe5b602002602001019063ffffffff16908163ffffffff168152505060008160018151811061079757fe5b63ffffffff9092166020928302919091018201526040517f883bdbfd000000000000000000000000000000000000000000000000000000008152600481018281528351602483015283516060936001600160a01b0389169363883bdbfd9387939092839260440191858201910280838360005b8381101561082257818101518382015260200161080a565b505050509050019250505060006040518083038186803b15801561084557600080fd5b505afa158015610859573d6000803e3d6000fd5b505050506040513d6000823e601f3d908101601f19168201604090815281101561088257600080fd5b81019080805160405193929190846401000000008211156108a257600080fd5b9083019060208201858111156108b757600080fd5b82518660208202830111640100000000821117156108d457600080fd5b82525081516020918201928201910280838360005b838110156109015781810151838201526020016108e9565b505050509050016040526020018051604051939291908464010000000082111561092a57600080fd5b90830190602082018581111561093f57600080fd5b825186602082028301116401000000008211171561095c57600080fd5b82525081516020918201928201910280838360005b83811015610989578181015183820152602001610971565b505050509050016040525050505090506000816000815181106109a857fe5b6020026020010151826001815181106109bd57fe5b60200260200101510390508463ffffffff168160060b816109da57fe5b05935060008160060b128015610a0457508463ffffffff168160060b816109fd57fe5b0760060b15155b15610a1157600019909301925b50505092915050565b600080610a2686610b86565b90506fffffffffffffffffffffffffffffffff6001600160a01b03821611610ab0576001600160a01b0380821680029084811690861610610a8757610a82600160c01b876fffffffffffffffffffffffffffffffff1683610ed4565b610aa8565b610aa881876fffffffffffffffffffffffffffffffff16600160c01b610ed4565b925050610b35565b6000610acf6001600160a01b0383168068010000000000000000610ed4565b9050836001600160a01b0316856001600160a01b031610610b1057610b0b600160801b876fffffffffffffffffffffffffffffffff1683610ed4565b610b31565b610b3181876fffffffffffffffffffffffffffffffff16600160801b610ed4565b9250505b50949350505050565b6000600160801b8210610b825760405162461bcd60e51b81526004018080602001828103825260278152602001806112596027913960400191505060405180910390fd5b5090565b60008060008360020b12610b9d578260020b610ba5565b8260020b6000035b9050620d89e8811115610bff576040805162461bcd60e51b815260206004820152600160248201527f5400000000000000000000000000000000000000000000000000000000000000604482015290519081900360640190fd5b600060018216610c1357600160801b610c25565b6ffffcb933bd6fad37aa2d162d1a5940015b70ffffffffffffffffffffffffffffffffff1690506002821615610c59576ffff97272373d413259a46990580e213a0260801c5b6004821615610c78576ffff2e50f5f656932ef12357cf3c7fdcc0260801c5b6008821615610c97576fffe5caca7e10e4e61c3624eaa0941cd00260801c5b6010821615610cb6576fffcb9843d60f6159c9db58835c9266440260801c5b6020821615610cd5576fff973b41fa98c081472e6896dfb254c00260801c5b6040821615610cf4576fff2ea16466c96a3843ec78b326b528610260801c5b6080821615610d13576ffe5dee046a99a2a811c461f1969c30530260801c5b610100821615610d33576ffcbe86c7900a88aedcffc83b479aa3a40260801c5b610200821615610d53576ff987a7253ac413176f2b074cf7815e540260801c5b610400821615610d73576ff3392b0822b70005940c7a398e4b70f30260801c5b610800821615610d93576fe7159475a2c29b7443b29c7fa6e889d90260801c5b611000821615610db3576fd097f3bdfd2022b8845ad8f792aa58250260801c5b612000821615610dd3576fa9f746462d870fdf8a65dc1f90e061e50260801c5b614000821615610df3576f70d869a156d2a1b890bb3df62baf32f70260801c5b618000821615610e13576f31be135f97d08fd981231505542fcfa60260801c5b62010000821615610e34576f09aa508b5b7a84e1c677de54f3e99bc90260801c5b62020000821615610e54576e5d6af8dedb81196699c329225ee6040260801c5b62040000821615610e73576d2216e584f5fa1ea926041bedfe980260801c5b62080000821615610e90576b048a170391f7dc42444e8fa20260801c5b60008460020b1315610eab578060001981610ea757fe5b0490505b640100000000810615610ebf576001610ec2565b60005b60ff16602082901c0192505050919050565b6000808060001985870986860292508281109083900303905080610f0a5760008411610eff57600080fd5b5082900490506104f3565b808411610f1657600080fd5b6000848688096000868103871696879004966002600389028118808a02820302808a02820302808a02820302808a02820302808a02820302808a02909103029181900381900460010186841190950394909402919094039290920491909117919091029150509392505050565b6040518060a00160405280606081526020016060815260200160608152602001600063ffffffff168152602001600063ffffffff1681525090565b604080516060810182526000808252602082018190529181019190915290565b600060208284031215610fef578081fd5b815167ffffffffffffffff80821115611006578283fd5b818401915084601f830112611019578283fd5b81518181111561102557fe5b604051601f8201601f19168101602001838111828210171561104357fe5b60405281815283820160200187101561105a578485fd5b61106b826020830160208701611228565b9695505050505050565b60008282518085526020808601955080818302840101818601855b848110156110be57601f198684030189526110ac83835161110a565b98840198925090830190600101611090565b5090979650505050505050565b6000815180845260208085019450808401835b838110156110ff57815162ffffff16875295820195908201906001016110de565b509495945050505050565b60008151808452611122816020860160208601611228565b601f01601f19169290920160200192915050565b63ffffffff169052565b901515815260200190565b918252602082015260400190565b6000602082526104f3602083018461110a565b6020808252825160a083830152805160c0840181905260009291820190839060e08601905b808310156111ba5783516001600160a01b03168252928401926001929092019190840190611191565b50838701519350601f199250828682030160408701526111da8185611075565b935050506040850151818584030160608601526111f783826110cb565b92505050606084015161120d6080850182611136565b50608084015161122060a0850182611136565b509392505050565b60005b8381101561124357818101518382015260200161122b565b83811115611252576000848401525b5050505056fe53616665436173743a2076616c756520646f65736e27742066697420696e203132382062697473a2646970667358221220c351dd9c2821893673eef745714d79732cb64270ee08c36b570db98a14850b3864736f6c63430007040033a26469706673582212209f73c780659fda567f35b1bcdbf60871c1ed35cb66dd68e85407c2e233496c3364736f6c63430007040033",
  "linkReferences": {},
  "deployedLinkReferences": {}
}