{
  "_format": "hh-sol-artifact-1",
  "contractName": "LpGovernor",
  "sourceName": "contracts/governance/LpGovernor.sol",
  "abi": [
    {
      "anonymous": false,
      "inputs": [
        {
          "indexed": true,
          "internalType": "address",
          "name": "owner",
          "type": "address"
        },
        {
          "indexed": true,
          "internalType": "address",
          "name": "spender",
          "type": "address"
        },
        {
          "indexed": false,
          "internalType": "uint256",
          "name": "value",
          "type": "uint256"
        }
      ],
      "name": "Approval",
      "type": "event"
    },
    {
      "anonymous": false,
      "inputs": [
        {
          "indexed": true,
          "internalType": "bytes32",
          "name": "txHash",
          "type": "bytes32"
        },
        {
          "indexed": true,
          "internalType": "address",
          "name": "target",
          "type": "address"
        },
        {
          "indexed": false,
          "internalType": "string",
          "name": "signature",
          "type": "string"
        },
        {
          "indexed": false,
          "internalType": "bytes",
          "name": "data",
          "type": "bytes"
        },
        {
          "indexed": false,
          "internalType": "uint256",
          "name": "eta",
          "type": "uint256"
        }
      ],
      "name": "ExecuteTransaction",
      "type": "event"
    },
    {
      "anonymous": false,
      "inputs": [
        {
          "indexed": false,
          "internalType": "uint256",
          "name": "id",
          "type": "uint256"
        },
        {
          "indexed": false,
          "internalType": "address",
          "name": "proposer",
          "type": "address"
        },
        {
          "indexed": false,
          "internalType": "address",
          "name": "target",
          "type": "address"
        },
        {
          "indexed": false,
          "internalType": "string[]",
          "name": "signatures",
          "type": "string[]"
        },
        {
          "indexed": false,
          "internalType": "bytes[]",
          "name": "calldatas",
          "type": "bytes[]"
        },
        {
          "indexed": false,
          "internalType": "uint256",
          "name": "startBlock",
          "type": "uint256"
        },
        {
          "indexed": false,
          "internalType": "uint256",
          "name": "endBlock",
          "type": "uint256"
        },
        {
          "indexed": false,
          "internalType": "uint256",
          "name": "quorumVotes",
          "type": "uint256"
        },
        {
          "indexed": false,
          "internalType": "string",
          "name": "description",
          "type": "string"
        }
      ],
      "name": "ProposalCreated",
      "type": "event"
    },
    {
      "anonymous": false,
      "inputs": [
        {
          "indexed": false,
          "internalType": "uint256",
          "name": "id",
          "type": "uint256"
        }
      ],
      "name": "ProposalExecuted",
      "type": "event"
    },
    {
      "anonymous": false,
      "inputs": [
        {
          "indexed": false,
          "internalType": "uint256",
          "name": "reward",
          "type": "uint256"
        },
        {
          "indexed": false,
          "internalType": "uint256",
          "name": "periodFinish",
          "type": "uint256"
        }
      ],
      "name": "RewardAdded",
      "type": "event"
    },
    {
      "anonymous": false,
      "inputs": [
        {
          "indexed": true,
          "internalType": "address",
          "name": "user",
          "type": "address"
        },
        {
          "indexed": false,
          "internalType": "uint256",
          "name": "reward",
          "type": "uint256"
        }
      ],
      "name": "RewardPaid",
      "type": "event"
    },
    {
      "anonymous": false,
      "inputs": [
        {
          "indexed": false,
          "internalType": "uint256",
          "name": "previousRate",
          "type": "uint256"
        },
        {
          "indexed": false,
          "internalType": "uint256",
          "name": "currentRate",
          "type": "uint256"
        },
        {
          "indexed": false,
          "internalType": "uint256",
          "name": "periodFinish",
          "type": "uint256"
        }
      ],
      "name": "RewardRateChanged",
      "type": "event"
    },
    {
      "anonymous": false,
      "inputs": [
        {
          "indexed": true,
          "internalType": "address",
          "name": "from",
          "type": "address"
        },
        {
          "indexed": true,
          "internalType": "address",
          "name": "to",
          "type": "address"
        },
        {
          "indexed": false,
          "internalType": "uint256",
          "name": "value",
          "type": "uint256"
        }
      ],
      "name": "Transfer",
      "type": "event"
    },
    {
      "anonymous": false,
      "inputs": [
        {
          "indexed": false,
          "internalType": "address",
          "name": "account",
          "type": "address"
        },
        {
          "indexed": false,
          "internalType": "uint256",
          "name": "proposalId",
          "type": "uint256"
        },
        {
          "indexed": false,
          "internalType": "bool",
          "name": "support",
          "type": "bool"
        },
        {
          "indexed": false,
          "internalType": "uint256",
          "name": "votes",
          "type": "uint256"
        }
      ],
      "name": "VoteCast",
      "type": "event"
    },
    {
      "inputs": [],
      "name": "SIGNATURE_PERPETUAL_SETTLE",
      "outputs": [
        {
          "internalType": "bytes4",
          "name": "",
          "type": "bytes4"
        }
      ],
      "stateMutability": "view",
      "type": "function"
    },
    {
      "inputs": [],
      "name": "SIGNATURE_PERPETUAL_TRANSFER_OPERATOR",
      "outputs": [
        {
          "internalType": "bytes4",
          "name": "",
          "type": "bytes4"
        }
      ],
      "stateMutability": "view",
      "type": "function"
    },
    {
      "inputs": [],
      "name": "SIGNATURE_PERPETUAL_UPGRADE_AND_CALL",
      "outputs": [
        {
          "internalType": "bytes4",
          "name": "",
          "type": "bytes4"
        }
      ],
      "stateMutability": "view",
      "type": "function"
    },
    {
      "inputs": [
        {
          "internalType": "address",
          "name": "owner",
          "type": "address"
        },
        {
          "internalType": "address",
          "name": "spender",
          "type": "address"
        }
      ],
      "name": "allowance",
      "outputs": [
        {
          "internalType": "uint256",
          "name": "",
          "type": "uint256"
        }
      ],
      "stateMutability": "view",
      "type": "function"
    },
    {
      "inputs": [
        {
          "internalType": "address",
          "name": "spender",
          "type": "address"
        },
        {
          "internalType": "uint256",
          "name": "amount",
          "type": "uint256"
        }
      ],
      "name": "approve",
      "outputs": [
        {
          "internalType": "bool",
          "name": "",
          "type": "bool"
        }
      ],
      "stateMutability": "nonpayable",
      "type": "function"
    },
    {
      "inputs": [
        {
          "internalType": "address",
          "name": "account",
          "type": "address"
        }
      ],
      "name": "balanceOf",
      "outputs": [
        {
          "internalType": "uint256",
          "name": "",
          "type": "uint256"
        }
      ],
      "stateMutability": "view",
      "type": "function"
    },
    {
      "inputs": [
        {
          "internalType": "address",
          "name": "account",
          "type": "address"
        },
        {
          "internalType": "uint256",
          "name": "amount",
          "type": "uint256"
        }
      ],
      "name": "burn",
      "outputs": [],
      "stateMutability": "nonpayable",
      "type": "function"
    },
    {
      "inputs": [
        {
          "internalType": "uint256",
          "name": "proposalId",
          "type": "uint256"
        },
        {
          "internalType": "bool",
          "name": "support",
          "type": "bool"
        }
      ],
      "name": "castVote",
      "outputs": [],
      "stateMutability": "nonpayable",
      "type": "function"
    },
    {
      "inputs": [],
      "name": "criticalQuorumRate",
      "outputs": [
        {
          "internalType": "uint256",
          "name": "",
          "type": "uint256"
        }
      ],
      "stateMutability": "pure",
      "type": "function"
    },
    {
      "inputs": [],
      "name": "decimals",
      "outputs": [
        {
          "internalType": "uint8",
          "name": "",
          "type": "uint8"
        }
      ],
      "stateMutability": "view",
      "type": "function"
    },
    {
      "inputs": [
        {
          "internalType": "address",
          "name": "spender",
          "type": "address"
        },
        {
          "internalType": "uint256",
          "name": "subtractedValue",
          "type": "uint256"
        }
      ],
      "name": "decreaseAllowance",
      "outputs": [
        {
          "internalType": "bool",
          "name": "",
          "type": "bool"
        }
      ],
      "stateMutability": "nonpayable",
      "type": "function"
    },
    {
      "inputs": [
        {
          "internalType": "address",
          "name": "account",
          "type": "address"
        }
      ],
      "name": "earned",
      "outputs": [
        {
          "internalType": "uint256",
          "name": "",
          "type": "uint256"
        }
      ],
      "stateMutability": "view",
      "type": "function"
    },
    {
      "inputs": [
        {
          "internalType": "uint256",
          "name": "proposalId",
          "type": "uint256"
        }
      ],
      "name": "execute",
      "outputs": [],
      "stateMutability": "payable",
      "type": "function"
    },
    {
      "inputs": [],
      "name": "executionDelay",
      "outputs": [
        {
          "internalType": "uint256",
          "name": "",
          "type": "uint256"
        }
      ],
      "stateMutability": "pure",
      "type": "function"
    },
    {
      "inputs": [
        {
          "internalType": "uint256",
          "name": "proposalId",
          "type": "uint256"
        }
      ],
      "name": "getActions",
      "outputs": [
        {
          "internalType": "string[]",
          "name": "signatures",
          "type": "string[]"
        },
        {
          "internalType": "bytes[]",
          "name": "calldatas",
          "type": "bytes[]"
        }
      ],
      "stateMutability": "view",
      "type": "function"
    },
    {
      "inputs": [],
      "name": "getMinter",
      "outputs": [
        {
          "internalType": "address",
          "name": "",
          "type": "address"
        }
      ],
      "stateMutability": "view",
      "type": "function"
    },
    {
      "inputs": [],
      "name": "getProposalThreshold",
      "outputs": [
        {
          "internalType": "uint256",
          "name": "",
          "type": "uint256"
        }
      ],
      "stateMutability": "view",
      "type": "function"
    },
    {
      "inputs": [
        {
          "internalType": "uint256",
          "name": "proposalId",
          "type": "uint256"
        }
      ],
      "name": "getQuorumVotes",
      "outputs": [
        {
          "internalType": "uint256",
          "name": "",
          "type": "uint256"
        }
      ],
      "stateMutability": "view",
      "type": "function"
    },
    {
      "inputs": [
        {
          "internalType": "uint256",
          "name": "proposalId",
          "type": "uint256"
        },
        {
          "internalType": "address",
          "name": "account",
          "type": "address"
        }
      ],
      "name": "getReceipt",
      "outputs": [
        {
          "components": [
            {
              "internalType": "bool",
              "name": "hasVoted",
              "type": "bool"
            },
            {
              "internalType": "bool",
              "name": "support",
              "type": "bool"
            },
            {
              "internalType": "uint256",
              "name": "votes",
              "type": "uint256"
            }
          ],
          "internalType": "struct Receipt",
          "name": "",
          "type": "tuple"
        }
      ],
      "stateMutability": "view",
      "type": "function"
    },
    {
      "inputs": [],
      "name": "getReward",
      "outputs": [],
      "stateMutability": "nonpayable",
      "type": "function"
    },
    {
      "inputs": [],
      "name": "getTarget",
      "outputs": [
        {
          "internalType": "address",
          "name": "",
          "type": "address"
        }
      ],
      "stateMutability": "view",
      "type": "function"
    },
    {
      "inputs": [
        {
          "internalType": "address",
          "name": "account",
          "type": "address"
        }
      ],
      "name": "getUnlockBlock",
      "outputs": [
        {
          "internalType": "uint256",
          "name": "",
          "type": "uint256"
        }
      ],
      "stateMutability": "view",
      "type": "function"
    },
    {
      "inputs": [
        {
          "internalType": "address",
          "name": "spender",
          "type": "address"
        },
        {
          "internalType": "uint256",
          "name": "addedValue",
          "type": "uint256"
        }
      ],
      "name": "increaseAllowance",
      "outputs": [
        {
          "internalType": "bool",
          "name": "",
          "type": "bool"
        }
      ],
      "stateMutability": "nonpayable",
      "type": "function"
    },
    {
      "inputs": [
        {
          "internalType": "string",
          "name": "name",
          "type": "string"
        },
        {
          "internalType": "string",
          "name": "symbol",
          "type": "string"
        },
        {
          "internalType": "address",
          "name": "minter",
          "type": "address"
        },
        {
          "internalType": "address",
          "name": "target",
          "type": "address"
        },
        {
          "internalType": "address",
          "name": "rewardToken",
          "type": "address"
        },
        {
          "internalType": "address",
          "name": "poolCreator",
          "type": "address"
        }
      ],
      "name": "initialize",
      "outputs": [],
      "stateMutability": "nonpayable",
      "type": "function"
    },
    {
      "inputs": [
        {
          "internalType": "string",
          "name": "functionSignature",
          "type": "string"
        }
      ],
      "name": "isCriticalFunction",
      "outputs": [
        {
          "internalType": "bool",
          "name": "",
          "type": "bool"
        }
      ],
      "stateMutability": "pure",
      "type": "function"
    },
    {
      "inputs": [
        {
          "internalType": "address",
          "name": "account",
          "type": "address"
        }
      ],
      "name": "isLocked",
      "outputs": [
        {
          "internalType": "bool",
          "name": "",
          "type": "bool"
        }
      ],
      "stateMutability": "nonpayable",
      "type": "function"
    },
    {
      "inputs": [
        {
          "internalType": "address",
          "name": "account",
          "type": "address"
        }
      ],
      "name": "isLockedByVoting",
      "outputs": [
        {
          "internalType": "bool",
          "name": "",
          "type": "bool"
        }
      ],
      "stateMutability": "nonpayable",
      "type": "function"
    },
    {
      "inputs": [],
      "name": "lastBlockRewardApplicable",
      "outputs": [
        {
          "internalType": "uint256",
          "name": "",
          "type": "uint256"
        }
      ],
      "stateMutability": "view",
      "type": "function"
    },
    {
      "inputs": [
        {
          "internalType": "address",
          "name": "",
          "type": "address"
        }
      ],
      "name": "lastMintBlock",
      "outputs": [
        {
          "internalType": "uint256",
          "name": "",
          "type": "uint256"
        }
      ],
      "stateMutability": "view",
      "type": "function"
    },
    {
      "inputs": [],
      "name": "lastUpdateTime",
      "outputs": [
        {
          "internalType": "uint256",
          "name": "",
          "type": "uint256"
        }
      ],
      "stateMutability": "view",
      "type": "function"
    },
    {
      "inputs": [
        {
          "internalType": "address",
          "name": "",
          "type": "address"
        }
      ],
      "name": "latestProposalIds",
      "outputs": [
        {
          "internalType": "uint256",
          "name": "",
          "type": "uint256"
        }
      ],
      "stateMutability": "view",
      "type": "function"
    },
    {
      "inputs": [
        {
          "internalType": "address",
          "name": "account",
          "type": "address"
        },
        {
          "internalType": "uint256",
          "name": "amount",
          "type": "uint256"
        }
      ],
      "name": "mint",
      "outputs": [],
      "stateMutability": "nonpayable",
      "type": "function"
    },
    {
      "inputs": [],
      "name": "name",
      "outputs": [
        {
          "internalType": "string",
          "name": "",
          "type": "string"
        }
      ],
      "stateMutability": "view",
      "type": "function"
    },
    {
      "inputs": [
        {
          "internalType": "uint256",
          "name": "reward",
          "type": "uint256"
        }
      ],
      "name": "notifyRewardAmount",
      "outputs": [],
      "stateMutability": "nonpayable",
      "type": "function"
    },
    {
      "inputs": [],
      "name": "periodFinish",
      "outputs": [
        {
          "internalType": "uint256",
          "name": "",
          "type": "uint256"
        }
      ],
      "stateMutability": "view",
      "type": "function"
    },
    {
      "inputs": [],
      "name": "poolCreator",
      "outputs": [
        {
          "internalType": "contract IPoolCreatorFull",
          "name": "",
          "type": "address"
        }
      ],
      "stateMutability": "view",
      "type": "function"
    },
    {
      "inputs": [],
      "name": "proposalCount",
      "outputs": [
        {
          "internalType": "uint256",
          "name": "",
          "type": "uint256"
        }
      ],
      "stateMutability": "view",
      "type": "function"
    },
    {
      "inputs": [],
      "name": "proposalMaxOperations",
      "outputs": [
        {
          "internalType": "uint256",
          "name": "",
          "type": "uint256"
        }
      ],
      "stateMutability": "pure",
      "type": "function"
    },
    {
      "inputs": [],
      "name": "proposalThresholdRate",
      "outputs": [
        {
          "internalType": "uint256",
          "name": "",
          "type": "uint256"
        }
      ],
      "stateMutability": "pure",
      "type": "function"
    },
    {
      "inputs": [
        {
          "internalType": "uint256",
          "name": "",
          "type": "uint256"
        }
      ],
      "name": "proposals",
      "outputs": [
        {
          "internalType": "uint256",
          "name": "id",
          "type": "uint256"
        },
        {
          "internalType": "address",
          "name": "target",
          "type": "address"
        },
        {
          "internalType": "address",
          "name": "proposer",
          "type": "address"
        },
        {
          "internalType": "uint256",
          "name": "startBlock",
          "type": "uint256"
        },
        {
          "internalType": "uint256",
          "name": "endBlock",
          "type": "uint256"
        },
        {
          "internalType": "uint256",
          "name": "quorumVotes",
          "type": "uint256"
        },
        {
          "internalType": "uint256",
          "name": "forVotes",
          "type": "uint256"
        },
        {
          "internalType": "uint256",
          "name": "againstVotes",
          "type": "uint256"
        },
        {
          "internalType": "bool",
          "name": "executed",
          "type": "bool"
        }
      ],
      "stateMutability": "view",
      "type": "function"
    },
    {
      "inputs": [
        {
          "internalType": "string[]",
          "name": "signatures",
          "type": "string[]"
        },
        {
          "internalType": "bytes[]",
          "name": "calldatas",
          "type": "bytes[]"
        },
        {
          "internalType": "string",
          "name": "description",
          "type": "string"
        }
      ],
      "name": "propose",
      "outputs": [
        {
          "internalType": "uint256",
          "name": "",
          "type": "uint256"
        }
      ],
      "stateMutability": "nonpayable",
      "type": "function"
    },
    {
      "inputs": [
        {
          "internalType": "bytes32",
          "name": "targetVersionKey",
          "type": "bytes32"
        },
        {
          "internalType": "bytes",
          "name": "dataForLiquidityPool",
          "type": "bytes"
        },
        {
          "internalType": "bytes",
          "name": "dataForGovernor",
          "type": "bytes"
        },
        {
          "internalType": "string",
          "name": "description",
          "type": "string"
        }
      ],
      "name": "proposeToUpgradeAndCall",
      "outputs": [
        {
          "internalType": "uint256",
          "name": "",
          "type": "uint256"
        }
      ],
      "stateMutability": "nonpayable",
      "type": "function"
    },
    {
      "inputs": [],
      "name": "quorumRate",
      "outputs": [
        {
          "internalType": "uint256",
          "name": "",
          "type": "uint256"
        }
      ],
      "stateMutability": "pure",
      "type": "function"
    },
    {
      "inputs": [],
      "name": "rewardDistribution",
      "outputs": [
        {
          "internalType": "address",
          "name": "",
          "type": "address"
        }
      ],
      "stateMutability": "view",
      "type": "function"
    },
    {
      "inputs": [],
      "name": "rewardPerToken",
      "outputs": [
        {
          "internalType": "uint256",
          "name": "",
          "type": "uint256"
        }
      ],
      "stateMutability": "view",
      "type": "function"
    },
    {
      "inputs": [],
      "name": "rewardPerTokenStored",
      "outputs": [
        {
          "internalType": "uint256",
          "name": "",
          "type": "uint256"
        }
      ],
      "stateMutability": "view",
      "type": "function"
    },
    {
      "inputs": [],
      "name": "rewardRate",
      "outputs": [
        {
          "internalType": "uint256",
          "name": "",
          "type": "uint256"
        }
      ],
      "stateMutability": "view",
      "type": "function"
    },
    {
      "inputs": [],
      "name": "rewardToken",
      "outputs": [
        {
          "internalType": "contract IERC20Upgradeable",
          "name": "",
          "type": "address"
        }
      ],
      "stateMutability": "view",
      "type": "function"
    },
    {
      "inputs": [
        {
          "internalType": "address",
          "name": "",
          "type": "address"
        }
      ],
      "name": "rewards",
      "outputs": [
        {
          "internalType": "uint256",
          "name": "",
          "type": "uint256"
        }
      ],
      "stateMutability": "view",
      "type": "function"
    },
    {
      "inputs": [
        {
          "internalType": "uint256",
          "name": "newRewardRate",
          "type": "uint256"
        }
      ],
      "name": "setRewardRate",
      "outputs": [],
      "stateMutability": "nonpayable",
      "type": "function"
    },
    {
      "inputs": [
        {
          "internalType": "uint256",
          "name": "proposalId",
          "type": "uint256"
        }
      ],
      "name": "state",
      "outputs": [
        {
          "internalType": "enum ProposalState",
          "name": "",
          "type": "uint8"
        }
      ],
      "stateMutability": "view",
      "type": "function"
    },
    {
      "inputs": [],
      "name": "symbol",
      "outputs": [
        {
          "internalType": "string",
          "name": "",
          "type": "string"
        }
      ],
      "stateMutability": "view",
      "type": "function"
    },
    {
      "inputs": [],
      "name": "totalSupply",
      "outputs": [
        {
          "internalType": "uint256",
          "name": "",
          "type": "uint256"
        }
      ],
      "stateMutability": "view",
      "type": "function"
    },
    {
      "inputs": [
        {
          "internalType": "address",
          "name": "recipient",
          "type": "address"
        },
        {
          "internalType": "uint256",
          "name": "amount",
          "type": "uint256"
        }
      ],
      "name": "transfer",
      "outputs": [
        {
          "internalType": "bool",
          "name": "",
          "type": "bool"
        }
      ],
      "stateMutability": "nonpayable",
      "type": "function"
    },
    {
      "inputs": [
        {
          "internalType": "address",
          "name": "sender",
          "type": "address"
        },
        {
          "internalType": "address",
          "name": "recipient",
          "type": "address"
        },
        {
          "internalType": "uint256",
          "name": "amount",
          "type": "uint256"
        }
      ],
      "name": "transferFrom",
      "outputs": [
        {
          "internalType": "bool",
          "name": "",
          "type": "bool"
        }
      ],
      "stateMutability": "nonpayable",
      "type": "function"
    },
    {
      "inputs": [],
      "name": "unlockDelay",
      "outputs": [
        {
          "internalType": "uint256",
          "name": "",
          "type": "uint256"
        }
      ],
      "stateMutability": "pure",
      "type": "function"
    },
    {
      "inputs": [
        {
          "internalType": "address",
          "name": "",
          "type": "address"
        }
      ],
      "name": "userRewardPerTokenPaid",
      "outputs": [
        {
          "internalType": "uint256",
          "name": "",
          "type": "uint256"
        }
      ],
      "stateMutability": "view",
      "type": "function"
    },
    {
      "inputs": [],
      "name": "votingDelay",
      "outputs": [
        {
          "internalType": "uint256",
          "name": "",
          "type": "uint256"
        }
      ],
      "stateMutability": "pure",
      "type": "function"
    },
    {
      "inputs": [],
      "name": "votingPeriod",
      "outputs": [
        {
          "internalType": "uint256",
          "name": "",
          "type": "uint256"
        }
      ],
      "stateMutability": "pure",
      "type": "function"
    }
  ],
  "bytecode": "0x608060405234801561001057600080fd5b50614c8d806100206000396000f3fe60806040526004361061038b5760003560e01c806385a21b19116101dc578063cd3daf9d11610102578063e56f2fe4116100a0578063f36675171161006f578063f3667517146109d3578063f7c292a2146109e8578063f7c618c1146109fd578063fe0d94c114610a125761038b565b8063e56f2fe414610969578063ebe2b12b14610989578063f00e6a2a1461099e578063f3205ed8146109b35761038b565b8063dd62ed3e116100dc578063dd62ed3e146108f2578063df136d6514610912578063e1a5407814610927578063e23a9a521461093c5761038b565b8063cd3daf9d146108a8578063d08e2373146108bd578063da35c664146108dd5761038b565b80639e447fc61161017a578063b4c4e25811610149578063b4c4e25814610849578063c6c1decd1461085e578063c8eb690214610873578063c8f33c91146108935761038b565b80639e447fc6146107d4578063a457c2d7146107f4578063a9059cbb14610814578063abe0429c146108345761038b565b80638b876347116101b65780638b8763471461076a57806395d89b411461078a5780639c0784fd1461079f5780639dc29fac146107b45761038b565b806385a21b19146107205780638b185b35146107355780638b257989146107555761038b565b8063313ce567116102c157806340c10f191161025f57806370a082311161022e57806370a08231146106b457806374281ee6146106d45780637b0a47ee146106f65780637bdbe4d01461070b5761038b565b806340c10f191461063f5780634a2355281461065f5780634a4fbeec146106745780634c852eb2146106945761038b565b8063395093511161029b57806339509351146105bd5780633c6b16ab146105dd5780633d18b912146105fd5780633e4f49e6146106125761038b565b8063313ce56714610558578063328dd9821461057a5780633932abb1146105a85761038b565b80630bb4df0c1161032e57806317977c611161030857806317977c61146104e357806318160ddd1461050357806322ed77f81461051857806323b872dd146105385761038b565b80630bb4df0c1461047f578063101114cf1461049f57806315373e3d146104c15761038b565b80630519da321161036a5780630519da32146103fb57806306fdde03146104105780630700037d14610432578063095ea7b3146104525761038b565b80628cc26214610390578063013cf08b146103c657806302a251a3146103fb575b600080fd5b34801561039c57600080fd5b506103b06103ab366004613c8c565b610a25565b6040516103bd91906142b6565b60405180910390f35b3480156103d257600080fd5b506103e66103e136600461407d565b610a95565b6040516103bd999897969594939291906148f1565b34801561040757600080fd5b506103b0610aef565b34801561041c57600080fd5b50610425610af6565b6040516103bd9190614343565b34801561043e57600080fd5b506103b061044d366004613c8c565b610b8c565b34801561045e57600080fd5b5061047261046d366004613d20565b610b9e565b6040516103bd91906142ab565b34801561048b57600080fd5b506103b061049a366004613c8c565b610bbc565b3480156104ab57600080fd5b506104b4610bd2565b6040516103bd91906141ea565b3480156104cd57600080fd5b506104e16104dc3660046140b9565b610be1565b005b3480156104ef57600080fd5b506103b06104fe366004613c8c565b610c33565b34801561050f57600080fd5b506103b0610c45565b34801561052457600080fd5b50610472610533366004613c8c565b610c54565b34801561054457600080fd5b50610472610553366004613ce0565b610c87565b34801561056457600080fd5b5061056d610d0f565b6040516103bd919061493e565b34801561058657600080fd5b5061059a61059536600461407d565b610d18565b6040516103bd929190614286565b3480156105b457600080fd5b506103b0610ee8565b3480156105c957600080fd5b506104726105d8366004613d20565b610eed565b3480156105e957600080fd5b506104e16105f836600461407d565b610f3b565b34801561060957600080fd5b506104e1611138565b34801561061e57600080fd5b5061063261062d36600461407d565b6111d5565b6040516103bd919061432f565b34801561064b57600080fd5b506104e161065a366004613d20565b6112f1565b34801561066b57600080fd5b506103b0611356565b34801561068057600080fd5b5061047261068f366004613c8c565b611362565b3480156106a057600080fd5b506103b06106af366004613f10565b6113b8565b3480156106c057600080fd5b506103b06106cf366004613c8c565b6114ec565b3480156106e057600080fd5b506106e96114f7565b6040516103bd9190614302565b34801561070257600080fd5b506103b0611550565b34801561071757600080fd5b506103b0611556565b34801561072c57600080fd5b506103b061155b565b34801561074157600080fd5b506103b0610750366004613c8c565b61158c565b34801561076157600080fd5b506103b061159e565b34801561077657600080fd5b506103b0610785366004613c8c565b6115a4565b34801561079657600080fd5b506104256115b6565b3480156107ab57600080fd5b506103b0611617565b3480156107c057600080fd5b506104e16107cf366004613d20565b611622565b3480156107e057600080fd5b506104e16107ef36600461407d565b611666565b34801561080057600080fd5b5061047261080f366004613d20565b6117cc565b34801561082057600080fd5b5061047261082f366004613d20565b611834565b34801561084057600080fd5b506103b0611848565b34801561085557600080fd5b506106e9611861565b34801561086a57600080fd5b506104b4611884565b34801561087f57600080fd5b506103b061088e366004613d4b565b611893565b34801561089f57600080fd5b506103b0611950565b3480156108b457600080fd5b506103b0611956565b3480156108c957600080fd5b506104726108d8366004613f9e565b6119a4565b3480156108e957600080fd5b506103b0611aab565b3480156108fe57600080fd5b506103b061090d366004613ca8565b611ab1565b34801561091e57600080fd5b506103b0611adc565b34801561093357600080fd5b506106e9611ae2565b34801561094857600080fd5b5061095c610957366004614095565b611b05565b6040516103bd919061484e565b34801561097557600080fd5b506104e1610984366004613fd1565b611b66565b34801561099557600080fd5b506103b0611c5b565b3480156109aa57600080fd5b506104b4611c61565b3480156109bf57600080fd5b506103b06109ce36600461407d565b611c6b565b3480156109df57600080fd5b506104b4611d8c565b3480156109f457600080fd5b506103b0611d9b565b348015610a0957600080fd5b506104b4611da7565b6104e1610a2036600461407d565b611db6565b6001600160a01b038116600090815260a6602090815260408083205460a5909252822054610a8d9190610a8790670de0b6b3a764000090610a8190610a7290610a6c611956565b90611fbc565b610a7b886114ec565b90612019565b90612072565b906120d9565b90505b919050565b606a60205260009081526040902080546001820154600283015460058401546006850154600786015460088701546009880154600a9098015496976001600160a01b03968716979690951695939492939192909160ff1689565b6143805b90565b60368054604080516020601f6002600019610100600188161502019095169490940493840181900481028201810190925282815260609390929091830182828015610b825780601f10610b5757610100808354040283529160200191610b82565b820191906000526020600020905b815481529060010190602001808311610b6557829003601f168201915b5050505050905090565b60a66020526000908152604090205481565b6000610bb2610bab612133565b8484612137565b5060015b92915050565b600080610bc883612223565b5090949350505050565b60a4546001600160a01b031681565b6001610bec836111d5565b6006811115610bf757fe5b14610c1d5760405162461bcd60e51b8152600401610c1490614544565b60405180910390fd5b610c2f610c28612133565b83836123c3565b5050565b606b6020526000908152604090205481565b6000610c4f6124f7565b905090565b60006001600160a01b038216610c6c57506000610a90565b610c778260006124fd565b610c7f61259f565b111592915050565b6000610c948484846125a3565b610d0484610ca0612133565b610cff85604051806060016040528060288152602001614b4f602891396001600160a01b038a16600090815260346020526040812090610cde612133565b6001600160a01b031681526020810191909152604001600020549190612700565b612137565b5060015b9392505050565b60385460ff1690565b6060806000606a60008581526020019081526020016000209050806003018160040181805480602002602001604051908101604052809291908181526020016000905b82821015610e065760008481526020908190208301805460408051601f6002600019610100600187161502019094169390930492830185900485028101850190915281815292830182828015610df25780601f10610dc757610100808354040283529160200191610df2565b820191906000526020600020905b815481529060010190602001808311610dd557829003601f168201915b505050505081526020019060010190610d5b565b50505050915080805480602002602001604051908101604052809291908181526020016000905b82821015610ed85760008481526020908190208301805460408051601f6002600019610100600187161502019094169390930492830185900485028101850190915281815292830182828015610ec45780601f10610e9957610100808354040283529160200191610ec4565b820191906000526020600020905b815481529060010190602001808311610ea757829003601f168201915b505050505081526020019060010190610e2d565b5050505090509250925050915091565b600190565b6000610bb2610efa612133565b84610cff8560346000610f0b612133565b6001600160a01b03908116825260208083019390935260409182016000908120918c1681529252902054906120d9565b609e60009054906101000a90046001600160a01b03166001600160a01b0316638da5cb5b6040518163ffffffff1660e01b815260040160206040518083038186803b158015610f8957600080fd5b505afa158015610f9d573d6000803e3d6000fd5b505050506040513d6020811015610fb357600080fd5b50516001600160a01b0316610fc6612133565b6001600160a01b03161461100b5760405162461bcd60e51b81526004018080602001828103825260248152602001806149e26024913960400191505060405180910390fd5b600061101681612797565b600060a1541161106d576040805162461bcd60e51b815260206004820152601260248201527f72657761726452617465206973207a65726f0000000000000000000000000000604482015290519081900360640190fd5b600061108460a1548461207290919063ffffffff16565b905060a0544311156110e5574360a28190556110a090826120d9565b60a081905560408051858152602081019290925280517f6c07ee05dcf262f13abf9d87b846ee789d2f90fe991d495acd7d7fc109ee1f559281900390910190a1611133565b60a0546110f290826120d9565b60a081905560408051858152602081019290925280517f6c07ee05dcf262f13abf9d87b846ee789d2f90fe991d495acd7d7fc109ee1f559281900390910190a15b505050565b611140612133565b61114981612797565b6000611153612133565b9050600061116082610a25565b90508015611133576001600160a01b03808316600090815260a66020526040812055609f54611191911683836127f4565b6040805182815290516001600160a01b038416917fe2403640ba68fed3a2f88b7557551d1993f84b99bb10ff833f0cf8db0c5e0486919081900360200190a2505050565b600081606954101580156111e95750600082115b6112055760405162461bcd60e51b8152600401610c149061438c565b6000828152606a6020526040902060058101544311611228576000915050610a90565b8060060154431161123d576001915050610a90565b806009015481600801541115806112695750600781015460098201546008830154611267916120d9565b105b15611278576002915050610a90565b61128e61128361159e565b6006830154906120d9565b431161129e576003915050610a90565b600a81015460ff16156112b5576005915050610a90565b6112d66112c0610aef565b610a876112cb61159e565b6006850154906120d9565b4311156112e7576006915050610a90565b6004915050610a90565b60d9546001600160a01b0316611305612133565b6001600160a01b03161461132b5760405162461bcd60e51b8152600401610c1490614468565b61133361259f565b6001600160a01b038316600090815260da6020526040902055610c2f828261285f565b6702c68af0bb14000090565b60008061138f611370612951565b6001600160a01b038516600090815260da6020526040902054906120d9565b61139761259f565b10905060006113a584610c54565b905081806113b05750805b949350505050565b60006113c385612a00565b60006113cd612133565b60408051600180825281830190925291925060609190816020015b60608152602001906001900390816113e8579050509050604051806060016040528060258152602001614a8f602591398160008151811061142557fe5b6020908102919091010152604080516001808252818301909252606091816020015b6060815260200190600190039081611447579050509050878787604051602001611473939291906142cd565b6040516020818303038152906040528160008151811061148f57fe5b60209081029190910101526065546000906114b79085906001600160a01b031685858a612bf7565b6001600160a01b0385166000908152606b6020526040902081905590506114e0848260016123c3565b98975050505050505050565b6000610a8d82612d2c565b60408051808201909152601981527f7472616e736665724f70657261746f72286164647265737329000000000000006020909101527f29605e77570554e17097b370f7d97acbb47139a4d78e46edc79331bbb54c115f81565b60a15481565b600a90565b600080611566610c45565b9050611586670de0b6b3a7640000610a8161157f611617565b8490612019565b91505090565b60da6020526000908152604090205481565b612d0090565b60a56020526000908152604090205481565b60378054604080516020601f6002600019610100600188161502019095169490940493840181900481028201810190925282815260609390929091830182828015610b825780601f10610b5757610100808354040283529160200191610b82565b662386f26fc1000090565b60d9546001600160a01b0316611636612133565b6001600160a01b03161461165c5760405162461bcd60e51b8152600401610c149061466c565b610c2f8282612d47565b609e60009054906101000a90046001600160a01b03166001600160a01b0316638da5cb5b6040518163ffffffff1660e01b815260040160206040518083038186803b1580156116b457600080fd5b505afa1580156116c8573d6000803e3d6000fd5b505050506040513d60208110156116de57600080fd5b50516001600160a01b03166116f1612133565b6001600160a01b0316146117365760405162461bcd60e51b81526004018080602001828103825260248152602001806149e26024913960400191505060405180910390fd5b600061174181612797565b8161174f574360a055611780565b60a054156117805761177c43610a8784610a8160a154610a7b60a25460a054611fbc90919063ffffffff16565b60a0555b60a15460a054604080519283526020830185905282810191909152517f3d209aed8ecb665e2e6cc55772bfc177e7aa7f6fa40ce4af171a43ed8fa2e2db9181900360600190a15060a155565b6000610bb26117d9612133565b84610cff85604051806060016040528060258152602001614c336025913960346000611803612133565b6001600160a01b03908116825260208083019390935260409182016000908120918d16815292529020549190612700565b6000610bb2611841612133565b84846125a3565b600060a05443111561185c5760a054610c4f565b504390565b604051806060016040528060258152602001614a8f602591398051906020012081565b609e546001600160a01b031681565b600082518451146118b65760405162461bcd60e51b8152600401610c14906147ba565b83516118d45760405162461bcd60e51b8152600401610c1490614431565b6118dc611556565b845111156118fc5760405162461bcd60e51b8152600401610c14906143c3565b6000611906612133565b9050600061191e82611916611c61565b888888612bf7565b6001600160a01b0383166000908152606b602052604090208190559050611947828260016123c3565b95945050505050565b60a25481565b6000611960610c45565b61196d575060a354610af3565b610c4f61199b61197b610c45565b610a81670de0b6b3a7640000610a7b60a154610a7b60a254610a6c611848565b60a354906120d9565b60008082805190602001209050604051806060016040528060258152602001614a8f60259139805190602001206001600160e01b031916816001600160e01b0319161480611a245750604051806060016040528060288152602001614be160289139805190602001206001600160e01b031916816001600160e01b031916145b80610d08575060408051808201909152601981527f7472616e736665724f70657261746f72286164647265737329000000000000006020909101527fffffffff0000000000000000000000000000000000000000000000000000000081167f29605e7700000000000000000000000000000000000000000000000000000000149392505050565b60695481565b6001600160a01b03918216600090815260346020908152604080832093909416825291909152205490565b60a35481565b604051806060016040528060288152602001614be1602891398051906020012081565b611b0d6138bb565b506000918252606a602090815260408084206001600160a01b03939093168452600b9092018152918190208151606081018352815460ff8082161515835261010090910416151593810193909352600101549082015290565b600054610100900460ff1680611b7f5750611b7f612e43565b80611b8d575060005460ff16155b611bc85760405162461bcd60e51b815260040180806020018281038252602e815260200180614b00602e913960400191505060405180910390fd5b600054610100900460ff16158015611bf3576000805460ff1961ff0019909116610100171660011790555b611bfd8787612e54565b611c0684612f2c565b611c108383613011565b60d980546001600160a01b038088166001600160a01b03199283161790925560668054928716929091169190911790558015611c52576000805461ff00191690555b50505050505050565b60a05481565b6000610c4f6130e4565b6000818152606a60205260408120600381015482611c87610c45565b905060005b82811015611d7457611d3e846003018281548110611ca657fe5b600091825260209182902001805460408051601f6002600019610100600187161502019094169390930492830185900485028101850190915281815292830182828015611d345780601f10611d0957610100808354040283529160200191611d34565b820191906000526020600020905b815481529060010190602001808311611d1757829003601f168201915b50505050506119a4565b15611d6c57611d61670de0b6b3a7640000610a81611d5a611356565b8590612019565b945050505050610a90565b600101611c8c565b50611947670de0b6b3a7640000610a8161157f611d9b565b60d9546001600160a01b031690565b67016345785d8a000090565b609f546001600160a01b031681565b6004611dc1826111d5565b6006811115611dcc57fe5b14611de95760405162461bcd60e51b8152600401610c14906146a3565b6000818152606a60205260408120600a8101805460ff19166001179055905b6003820154811015611f80576001820154600383018054611f77926001600160a01b0316919084908110611e3857fe5b600091825260209182902001805460408051601f6002600019610100600187161502019094169390930492830185900485028101850190915281815292830182828015611ec65780601f10611e9b57610100808354040283529160200191611ec6565b820191906000526020600020905b815481529060010190602001808311611ea957829003601f168201915b5050505050846004018481548110611eda57fe5b600091825260209182902001805460408051601f6002600019610100600187161502019094169390930492830185900485028101850190915281815292830182828015611f685780601f10611f3d57610100808354040283529160200191611f68565b820191906000526020600020905b815481529060010190602001808311611f4b57829003601f168201915b505050505085600601546130f3565b50600101611e08565b507f712ae1383f79ac853f8d882153778e0260ef8f03b504e2866e0593e04d2b291f82604051611fb091906142b6565b60405180910390a15050565b600082821115612013576040805162461bcd60e51b815260206004820152601e60248201527f536166654d6174683a207375627472616374696f6e206f766572666c6f770000604482015290519081900360640190fd5b50900390565b60008261202857506000610bb6565b8282028284828161203557fe5b0414610d085760405162461bcd60e51b8152600401808060200182810382526021815260200180614b2e6021913960400191505060405180910390fd5b60008082116120c8576040805162461bcd60e51b815260206004820152601a60248201527f536166654d6174683a206469766973696f6e206279207a65726f000000000000604482015290519081900360640190fd5b8183816120d157fe5b049392505050565b600082820183811015610d08576040805162461bcd60e51b815260206004820152601b60248201527f536166654d6174683a206164646974696f6e206f766572666c6f770000000000604482015290519081900360640190fd5b3390565b6001600160a01b03831661217c5760405162461bcd60e51b8152600401808060200182810382526024815260200180614bbd6024913960400191505060405180910390fd5b6001600160a01b0382166121c15760405162461bcd60e51b8152600401808060200182810382526022815260200180614a6d6022913960400191505060405180910390fd5b6001600160a01b03808416600081815260346020908152604080832094871680845294825291829020859055815185815291517f8c5be1e5ebec7d5bd14f71427d1e84f3dd0314c0f7b2291e5b200ac8c7c3b9259281900390910190a3505050565b6001600160a01b038116600090815260676020908152604080832054606890925282209091906060908261225682613231565b905080156123ba578067ffffffffffffffff8111801561227557600080fd5b5060405190808252806020026020018201604052801561229f578160200160208202803683370190505b50925060005b818110156123b85760006122b9848361323c565b905060006122c6826111d5565b905060008160068111156122d657fe5b14806122ed575060018160068111156122eb57fe5b145b156122f95750506123b0565b600381600681111561230757fe5b148061231e5750600581600681111561231c57fe5b145b806123345750600481600681111561233257fe5b145b8061234a5750600681600681111561234857fe5b145b1561238f57600061237f61236761235f610aef565b610a8761159e565b6000858152606a6020526040902060060154906120d9565b90508881111561238d578098505b505b8186888151811061239c57fe5b602090810291909101015250506001909401935b6001016122a5565b505b50509193909250565b6000828152606a602090815260408083206001600160a01b0387168452600b8101909252909120805460ff161561240c5760405162461bcd60e51b8152600401610c14906144d6565b6000612417866114ec565b9050831561243857600883015461242e90826120d9565b600884015561244d565b600983015461244790826120d9565b60098401555b8154600160ff19909116811761ff001916610100861515021783558083018290556006840154612487918891612482916120d9565b6124fd565b5083156124b2576001600160a01b03861660009081526068602052604090206124b09086613248565b505b7f877856338e13f63d0c36822ff0ef736b80934cd90574a3a5bc9262c39d217c46868686846040516124e7949392919061425e565b60405180910390a1505050505050565b60355490565b6001600160a01b03821660009081526068602052604081208180606061252287612223565b92509250925060005b8281101561256857600082828151811061254157fe5b602002602001015190508060001461255f5761255d8682613254565b505b5060010161252b565b508286116125765782612578565b855b6001600160a01b038816600090815260676020526040902081905594505050505092915050565b4390565b6001600160a01b0383166125e85760405162461bcd60e51b8152600401808060200182810382526025815260200180614b986025913960400191505060405180910390fd5b6001600160a01b03821661262d5760405162461bcd60e51b8152600401808060200182810382526023815260200180614a286023913960400191505060405180910390fd5b612638838383613260565b61267581604051806060016040528060268152602001614ab4602691396001600160a01b0386166000908152603360205260409020549190612700565b6001600160a01b0380851660009081526033602052604080822093909355908416815220546126a490826120d9565b6001600160a01b0380841660008181526033602090815260409182902094909455805185815290519193928716927fddf252ad1be2c89b69c2b068fc378daa952ba7f163c4a11628f55a4df523b3ef92918290030190a3505050565b6000818484111561278f5760405162461bcd60e51b81526004018080602001828103825283818151815260200191508051906020019080838360005b8381101561275457818101518382015260200161273c565b50505050905090810190601f1680156127815780820380516001836020036101000a031916815260200191505b509250505060405180910390fd5b505050900390565b61279f611956565b60a3556127aa611848565b60a2556001600160a01b038116156127f1576127c581610a25565b6001600160a01b038216600090815260a6602090815260408083209390935560a35460a5909152919020555b50565b604080516001600160a01b038416602482015260448082018490528251808303909101815260649091019091526020810180516001600160e01b03167fa9059cbb000000000000000000000000000000000000000000000000000000001790526111339084906132a3565b6001600160a01b0382166128ba576040805162461bcd60e51b815260206004820152601f60248201527f45524332303a206d696e7420746f20746865207a65726f206164647265737300604482015290519081900360640190fd5b6128c660008383613260565b6035546128d390826120d9565b6035556001600160a01b0382166000908152603360205260409020546128f990826120d9565b6001600160a01b03831660008181526033602090815260408083209490945583518581529351929391927fddf252ad1be2c89b69c2b068fc378daa952ba7f163c4a11628f55a4df523b3ef9281900390910190a35050565b600061295b6138db565b606660009054906101000a90046001600160a01b03166001600160a01b0316630cdc105a6040518163ffffffff1660e01b81526004016102806040518083038186803b1580156129aa57600080fd5b505afa1580156129be573d6000803e3d6000fd5b505050506040513d601f19601f820116820180604052508101906129e29190613e3b565b945050505050806005600681106129f557fe5b602002015191505090565b6065546040517f8277c6510000000000000000000000000000000000000000000000000000000081526001600160a01b0390911690638277c65190612a499084906004016142b6565b60206040518083038186803b158015612a6157600080fd5b505afa158015612a75573d6000803e3d6000fd5b505050506040513d601f19601f82011682018060405250810190612a999190613e1f565b612ab55760405162461bcd60e51b8152600401610c1490614700565b6065546000906001600160a01b031663db7ca94b612ad1611c61565b306040518363ffffffff1660e01b8152600401612aef9291906141fe565b60206040518083038186803b158015612b0757600080fd5b505afa158015612b1b573d6000803e3d6000fd5b505050506040513d601f19601f82011682018060405250810190612b3f9190613ef8565b6065546040517f3c597ff60000000000000000000000000000000000000000000000000000000081529192506001600160a01b031690633c597ff690612b8b90859085906004016142bf565b60206040518083038186803b158015612ba357600080fd5b505afa158015612bb7573d6000803e3d6000fd5b505050506040513d601f19601f82011682018060405250810190612bdb9190613e1f565b610c2f5760405162461bcd60e51b8152600401610c149061475d565b6000612c0286613354565b6000612c17612c0f610ee8565b610a8761259f565b90506000612c2d612c26610aef565b83906120d9565b606980546001908101918290556000828152606a6020908152604090912083815591820180546001600160a01b03808e166001600160a01b031992831617909255600284018054928f1692909116919091179055895193945091929091612c9b9160038401918b01906138f9565b508651612cb190600483019060208a0190613956565b5060058101849055600681018390556000612ccb83611c6b565b90508082600701819055507fc98917001dd55381b0307302ec6f8b757eb673e54d241fdddd6f722e847340bf838c8c8c8c8a8a888f604051612d1599989796959493929190614873565b60405180910390a150909998505050505050505050565b6001600160a01b031660009081526033602052604090205490565b6001600160a01b038216612d8c5760405162461bcd60e51b8152600401808060200182810382526021815260200180614b776021913960400191505060405180910390fd5b612d9882600083613260565b612dd581604051806060016040528060228152602001614a4b602291396001600160a01b0385166000908152603360205260409020549190612700565b6001600160a01b038316600090815260336020526040902055603554612dfb9082611fbc565b6035556040805182815290516000916001600160a01b038516917fddf252ad1be2c89b69c2b068fc378daa952ba7f163c4a11628f55a4df523b3ef9181900360200190a35050565b6000612e4e3061346e565b15905090565b600054610100900460ff1680612e6d5750612e6d612e43565b80612e7b575060005460ff16155b612eb65760405162461bcd60e51b815260040180806020018281038252602e815260200180614b00602e913960400191505060405180910390fd5b600054610100900460ff16158015612ee1576000805460ff1961ff0019909116610100171660011790555b8251612ef49060369060208601906139af565b508151612f089060379060208501906139af565b506038805460ff191660121790558015611133576000805461ff0019169055505050565b600054610100900460ff1680612f455750612f45612e43565b80612f53575060005460ff16155b612f8e5760405162461bcd60e51b815260040180806020018281038252602e815260200180614b00602e913960400191505060405180910390fd5b600054610100900460ff16158015612fb9576000805460ff1961ff0019909116610100171660011790555b606680546001600160a01b0319166001600160a01b038416179055612fdc612133565b606580546001600160a01b0319166001600160a01b03929092169190911790558015610c2f576000805461ff00191690555050565b600054610100900460ff168061302a575061302a612e43565b80613038575060005460ff16155b6130735760405162461bcd60e51b815260040180806020018281038252602e815260200180614b00602e913960400191505060405180910390fd5b600054610100900460ff1615801561309e576000805460ff1961ff0019909116610100171660011790555b609f80546001600160a01b038086166001600160a01b031992831617909255609e8054928516929091169190911790558015611133576000805461ff0019169055505050565b6066546001600160a01b031690565b606060008585858560405160200161310e9493929190614218565b604051602081830303815290604052805190602001209050600061313061259f565b905061314461313d61159e565b85906120d9565b8110156131635760405162461bcd60e51b8152600401610c14906145b2565b61318061316e610aef565b610a8761317961159e565b87906120d9565b81111561319f5760405162461bcd60e51b8152600401610c1490614817565b60606131de8780519060200120876040516020016131be9291906141a2565b60408051601f198184030181529190526001600160a01b038a1690613474565b9050876001600160a01b0316837f73bcadb73827ad9a900198359278e77086ae03e9e17ef173ad7de9e7e39acaff89898960405161321e93929190614356565b60405180910390a3979650505050505050565b6000610a8d826134b6565b6000610d0883836134ba565b6000610d08838361351e565b6000610d088383613568565b61326983611362565b156132865760405162461bcd60e51b8152600401610c149061450d565b61328f83612797565b61329882612797565b611133838383611133565b60606132f8826040518060400160405280602081526020017f5361666545524332303a206c6f772d6c6576656c2063616c6c206661696c6564815250856001600160a01b031661362e9092919063ffffffff16565b8051909150156111335780806020019051602081101561331757600080fd5b50516111335760405162461bcd60e51b815260040180806020018281038252602a815260200180614c09602a913960400191505060405180910390fd5b600061335e61363d565b90506001600160a01b038116156133a557806001600160a01b0316826001600160a01b0316146133a05760405162461bcd60e51b8152600401610c149061460f565b6133d4565b6133ad61155b565b6133b6836114ec565b10156133d45760405162461bcd60e51b8152600401610c14906143fa565b6001600160a01b0382166000908152606b602052604090205415610c2f576001600160a01b0382166000908152606b6020526040812054613414906111d5565b9050600081600681111561342457fe5b14156134425760405162461bcd60e51b8152600401610c149061449f565b600181600681111561345057fe5b14156111335760405162461bcd60e51b8152600401610c149061457b565b3b151590565b6060610d0883836040518060400160405280601e81526020017f416464726573733a206c6f772d6c6576656c2063616c6c206661696c6564000081525061362e565b5490565b815460009082106134fc5760405162461bcd60e51b8152600401808060200182810382526022815260200180614a066022913960400191505060405180910390fd5b82600001828154811061350b57fe5b9060005260206000200154905092915050565b600061352a83836136e1565b61356057508154600181810184556000848152602080822090930184905584548482528286019093526040902091909155610bb6565b506000610bb6565b60008181526001830160205260408120548015613624578354600019808301919081019060009087908390811061359b57fe5b90600052602060002001549050808760000184815481106135b857fe5b6000918252602080832090910192909255828152600189810190925260409020908401905586548790806135e857fe5b60019003818190600052602060002001600090559055866001016000878152602001908152602001600020600090556001945050505050610bb6565b6000915050610bb6565b60606113b084846000856136f9565b6000613647613a37565b606660009054906101000a90046001600160a01b03166001600160a01b0316630cdc105a6040518163ffffffff1660e01b81526004016102806040518083038186803b15801561369657600080fd5b505afa1580156136aa573d6000803e3d6000fd5b505050506040513d601f19601f820116820180604052508101906136ce9190613e3b565b505092505050806001600781106129f557fe5b60009081526001919091016020526040902054151590565b60608247101561373a5760405162461bcd60e51b8152600401808060200182810382526026815260200180614ada6026913960400191505060405180910390fd5b6137438561346e565b613794576040805162461bcd60e51b815260206004820152601d60248201527f416464726573733a2063616c6c20746f206e6f6e2d636f6e7472616374000000604482015290519081900360640190fd5b60006060866001600160a01b031685876040518082805190602001908083835b602083106137d35780518252601f1990920191602091820191016137b4565b6001836020036101000a03801982511681845116808217855250505050505090500191505060006040518083038185875af1925050503d8060008114613835576040519150601f19603f3d011682016040523d82523d6000602084013e61383a565b606091505b509150915061384a828286613855565b979650505050505050565b60608315613864575081610d08565b8251156138745782518084602001fd5b60405162461bcd60e51b815260206004820181815284516024840152845185939192839260440191908501908083836000831561275457818101518382015260200161273c565b604080516060810182526000808252602082018190529181019190915290565b6040518060c001604052806006906020820280368337509192915050565b828054828255906000526020600020908101928215613946579160200282015b8281111561394657825180516139369184916020909101906139af565b5091602001919060010190613919565b50613952929150613a55565b5090565b8280548282559060005260206000209081019282156139a3579160200282015b828111156139a357825180516139939184916020909101906139af565b5091602001919060010190613976565b50613952929150613a72565b828054600181600116156101000203166002900490600052602060002090601f0160209004810192826139e55760008555613a2b565b82601f106139fe57805160ff1916838001178555613a2b565b82800160010185558215613a2b579182015b82811115613a2b578251825591602001919060010190613a10565b50613952929150613a8f565b6040518060e001604052806007906020820280368337509192915050565b80821115613952576000613a698282613aa4565b50600101613a55565b80821115613952576000613a868282613aa4565b50600101613a72565b5b808211156139525760008155600101613a90565b50805460018160011615610100020316600290046000825580601f10613aca57506127f1565b601f0160209004906000526020600020908101906127f19190613a8f565b600082601f830112613af8578081fd5b8135613b0b613b0682614970565b61494c565b818152915060208083019084810160005b84811015613b4557613b33888484358a0101613c25565b84529282019290820190600101613b1c565b505050505092915050565b600082601f830112613b60578081fd5b60405160a0810181811067ffffffffffffffff82111715613b7d57fe5b6040529050808260a08101851015613b9457600080fd5b60005b6005811015613bb6578151835260209283019290910190600101613b97565b50505092915050565b600082601f830112613bcf578081fd5b60405160c0810181811067ffffffffffffffff82111715613bec57fe5b6040529050808260c08101851015613c0357600080fd5b60005b6006811015613bb6578151835260209283019290910190600101613c06565b600082601f830112613c35578081fd5b813567ffffffffffffffff811115613c4957fe5b613c5c601f8201601f191660200161494c565b9150808252836020828501011115613c7357600080fd5b8060208401602084013760009082016020015292915050565b600060208284031215613c9d578081fd5b8135610d08816149be565b60008060408385031215613cba578081fd5b8235613cc5816149be565b91506020830135613cd5816149be565b809150509250929050565b600080600060608486031215613cf4578081fd5b8335613cff816149be565b92506020840135613d0f816149be565b929592945050506040919091013590565b60008060408385031215613d32578182fd5b8235613d3d816149be565b946020939093013593505050565b600080600060608486031215613d5f578283fd5b833567ffffffffffffffff80821115613d76578485fd5b818601915086601f830112613d89578485fd5b8135613d97613b0682614970565b81815260208082019190858101895b85811015613dcf57613dbd8d8484358b0101613c25565b85529382019390820190600101613da6565b50919850890135945050505080821115613de7578384fd5b613df387838801613ae8565b93506040860135915080821115613e08578283fd5b50613e1586828701613c25565b9150509250925092565b600060208284031215613e30578081fd5b8151610d08816149d3565b60008060008060006102808688031215613e53578283fd5b8551613e5e816149d3565b80955050602080870151613e71816149d3565b9450605f87018813613e81578384fd5b613e8b60e061494c565b80604089016101208a018b811115613ea1578788fd5b875b6007811015613ec9578251613eb7816149be565b85529385019391850191600101613ea3565b50829750613ed78c82613b50565b96505050505050613eec876101c08801613bbf565b90509295509295909350565b600060208284031215613f09578081fd5b5051919050565b60008060008060808587031215613f25578182fd5b84359350602085013567ffffffffffffffff80821115613f43578384fd5b613f4f88838901613c25565b94506040870135915080821115613f64578384fd5b613f7088838901613c25565b93506060870135915080821115613f85578283fd5b50613f9287828801613c25565b91505092959194509250565b600060208284031215613faf578081fd5b813567ffffffffffffffff811115613fc5578182fd5b6113b084828501613c25565b60008060008060008060c08789031215613fe9578384fd5b863567ffffffffffffffff80821115614000578586fd5b61400c8a838b01613c25565b97506020890135915080821115614021578586fd5b5061402e89828a01613c25565b955050604087013561403f816149be565b9350606087013561404f816149be565b9250608087013561405f816149be565b915060a087013561406f816149be565b809150509295509295509295565b60006020828403121561408e578081fd5b5035919050565b600080604083850312156140a7578182fd5b823591506020830135613cd5816149be565b600080604083850312156140cb578182fd5b823591506020830135613cd5816149d3565b6000815180845260208085018081965082840281019150828601855b85811015614123578284038952614111848351614176565b988501989350908401906001016140f9565b5091979650505050505050565b6000815180845260208085018081965082840281019150828601855b85811015614123578284038952614164848351614176565b9885019893509084019060010161414c565b6000815180845261418e81602086016020860161498e565b601f01601f19169290920160200192915050565b60007fffffffff000000000000000000000000000000000000000000000000000000008416825282516141dc81600485016020870161498e565b919091016004019392505050565b6001600160a01b0391909116815260200190565b6001600160a01b0392831681529116602082015260400190565b60006001600160a01b03861682526080602083015261423a6080830186614176565b828103604084015261424c8186614176565b91505082606083015295945050505050565b6001600160a01b03949094168452602084019290925215156040830152606082015260800190565b6000604082526142996040830185614130565b828103602084015261194781856140dd565b901515815260200190565b90815260200190565b918252602082015260400190565b6000848252606060208301526142e66060830185614176565b82810360408401526142f88185614176565b9695505050505050565b7fffffffff0000000000000000000000000000000000000000000000000000000091909116815260200190565b602081016007831061433d57fe5b91905290565b600060208252610d086020830184614176565b6000606082526143696060830186614176565b828103602084015261437b8186614176565b915050826040830152949350505050565b60208082526013908201527f696e76616c69642070726f706f73616c20696400000000000000000000000000604082015260600190565b60208082526010908201527f746f6f206d616e7920616374696f6e7300000000000000000000000000000000604082015260600190565b60208082526018908201527f70726f706f73616c207468726573686f6c6420756e6d65740000000000000000604082015260600190565b60208082526014908201527f6d7573742070726f7669646520616374696f6e73000000000000000000000000604082015260600190565b60208082526016908201527f6d757374206265206d696e74657220746f206d696e7400000000000000000000604082015260600190565b60208082526018908201527f6c6173742070726f706f73616c2069732070656e64696e670000000000000000604082015260600190565b60208082526015908201527f6163636f756e7420616c726561647920766f7465640000000000000000000000604082015260600190565b60208082526010908201527f73656e646572206973206c6f636b656400000000000000000000000000000000604082015260600190565b60208082526010908201527f766f74696e6720697320636c6f73656400000000000000000000000000000000604082015260600190565b60208082526017908201527f6c6173742070726f706f73616c20697320616374697665000000000000000000604082015260600190565b60208082526027908201527f5472616e73616374696f6e206861736e2774207375727061737365642074696d60408201527f65206c6f636b2e00000000000000000000000000000000000000000000000000606082015260800190565b6020808252602e908201527f70726f706f736572206d757374206265206f70657261746f72207768656e206f60408201527f70657261746f7220657869737473000000000000000000000000000000000000606082015260800190565b60208082526016908201527f6d757374206265206d696e74657220746f206275726e00000000000000000000604082015260600190565b60208082526039908201527f70726f706f73616c2063616e206f6e6c7920626520657865637574656420696660408201527f206974206973207375636365737320616e642071756575656400000000000000606082015260800190565b60208082526022908201527f76657273696f6e20746f207570677261646520746f206973206e6f742076616c60408201527f6964000000000000000000000000000000000000000000000000000000000000606082015260800190565b60208082526027908201527f76657273696f6e20746f207570677261646520746f206973206e6f7420636f6d60408201527f70617469626c6500000000000000000000000000000000000000000000000000606082015260800190565b60208082526023908201527f66756e6374696f6e20696e666f726d6174696f6e206172697479206d69736d6160408201527f7463680000000000000000000000000000000000000000000000000000000000606082015260800190565b60208082526015908201527f5472616e73616374696f6e206973207374616c652e0000000000000000000000604082015260600190565b8151151581526020808301511515908201526040918201519181019190915260600190565b60006101208b83526001600160a01b03808c166020850152808b166040850152508060608401526148a68184018a614130565b905082810360808401526148ba81896140dd565b90508660a08401528560c08401528460e08401528281036101008401526148e18185614176565b9c9b505050505050505050505050565b9889526001600160a01b0397881660208a01529590961660408801526060870193909352608086019190915260a085015260c084015260e083019190915215156101008201526101200190565b60ff91909116815260200190565b60405181810167ffffffffffffffff8111828210171561496857fe5b604052919050565b600067ffffffffffffffff82111561498457fe5b5060209081020190565b60005b838110156149a9578181015183820152602001614991565b838111156149b8576000848401525b50505050565b6001600160a01b03811681146127f157600080fd5b80151581146127f157600080fdfe63616c6c6572206d757374206265206f776e6572206f6620706f6f6c2063726561746f72456e756d657261626c655365743a20696e646578206f7574206f6620626f756e647345524332303a207472616e7366657220746f20746865207a65726f206164647265737345524332303a206275726e20616d6f756e7420657863656564732062616c616e636545524332303a20617070726f766520746f20746865207a65726f206164647265737375706772616465546f416e6443616c6c28627974657333322c62797465732c62797465732945524332303a207472616e7366657220616d6f756e7420657863656564732062616c616e6365416464726573733a20696e73756666696369656e742062616c616e636520666f722063616c6c496e697469616c697a61626c653a20636f6e747261637420697320616c726561647920696e697469616c697a6564536166654d6174683a206d756c7469706c69636174696f6e206f766572666c6f7745524332303a207472616e7366657220616d6f756e74206578636565647320616c6c6f77616e636545524332303a206275726e2066726f6d20746865207a65726f206164647265737345524332303a207472616e736665722066726f6d20746865207a65726f206164647265737345524332303a20617070726f76652066726f6d20746865207a65726f2061646472657373666f726365546f536574456d657267656e637953746174652875696e743235362c696e74323536295361666545524332303a204552433230206f7065726174696f6e20646964206e6f74207375636365656445524332303a2064656372656173656420616c6c6f77616e63652062656c6f77207a65726fa2646970667358221220dc7148fb4de465d8de09cbb44f4a3f06ebc7b669790b5565c9909685c4335d2864736f6c63430007040033",
  "linkReferences": {},
  "deployedLinkReferences": {}
}