{
  "_format": "hh-sol-artifact-1",
  "contractName": "PoolCreator",
  "sourceName": "contracts/factory/PoolCreator.sol",
  "abi": [
    {
      "anonymous": false,
      "inputs": [
        {
          "indexed": true,
          "internalType": "address",
          "name": "account",
          "type": "address"
        }
      ],
      "name": "AddGuardian",
      "type": "event"
    },
    {
      "anonymous": false,
      "inputs": [
        {
          "indexed": true,
          "internalType": "address",
          "name": "keeper",
          "type": "address"
        }
      ],
      "name": "AddKeeperToWhitelist",
      "type": "event"
    },
    {
      "anonymous": false,
      "inputs": [
        {
          "indexed": false,
          "internalType": "bytes32",
          "name": "versionKey",
          "type": "bytes32"
        },
        {
          "indexed": true,
          "internalType": "address",
          "name": "liquidityPoolTemplate",
          "type": "address"
        },
        {
          "indexed": true,
          "internalType": "address",
          "name": "governorTemplate",
          "type": "address"
        },
        {
          "indexed": true,
          "internalType": "address",
          "name": "creator",
          "type": "address"
        },
        {
          "indexed": false,
          "internalType": "uint256",
          "name": "compatibility",
          "type": "uint256"
        },
        {
          "indexed": false,
          "internalType": "string",
          "name": "note",
          "type": "string"
        }
      ],
      "name": "AddVersion",
      "type": "event"
    },
    {
      "anonymous": false,
      "inputs": [
        {
          "indexed": false,
          "internalType": "bytes32",
          "name": "versionKey",
          "type": "bytes32"
        },
        {
          "indexed": true,
          "internalType": "address",
          "name": "liquidityPool",
          "type": "address"
        },
        {
          "indexed": true,
          "internalType": "address",
          "name": "governor",
          "type": "address"
        },
        {
          "indexed": true,
          "internalType": "address",
          "name": "operator",
          "type": "address"
        },
        {
          "indexed": false,
          "internalType": "address",
          "name": "shareToken",
          "type": "address"
        },
        {
          "indexed": false,
          "internalType": "address",
          "name": "collateral",
          "type": "address"
        },
        {
          "indexed": false,
          "internalType": "uint256",
          "name": "collateralDecimals",
          "type": "uint256"
        },
        {
          "indexed": false,
          "internalType": "bytes",
          "name": "initData",
          "type": "bytes"
        }
      ],
      "name": "CreateLiquidityPool",
      "type": "event"
    },
    {
      "anonymous": false,
      "inputs": [
        {
          "indexed": true,
          "internalType": "address",
          "name": "grantor",
          "type": "address"
        },
        {
          "indexed": true,
          "internalType": "address",
          "name": "grantee",
          "type": "address"
        },
        {
          "indexed": false,
          "internalType": "uint256",
          "name": "privilege",
          "type": "uint256"
        }
      ],
      "name": "GrantPrivilege",
      "type": "event"
    },
    {
      "anonymous": false,
      "inputs": [
        {
          "indexed": true,
          "internalType": "address",
          "name": "previousOwner",
          "type": "address"
        },
        {
          "indexed": true,
          "internalType": "address",
          "name": "newOwner",
          "type": "address"
        }
      ],
      "name": "OwnershipTransferred",
      "type": "event"
    },
    {
      "anonymous": false,
      "inputs": [
        {
          "indexed": true,
          "internalType": "address",
          "name": "keeper",
          "type": "address"
        }
      ],
      "name": "RemoveKeeperFromWhitelist",
      "type": "event"
    },
    {
      "anonymous": false,
      "inputs": [
        {
          "indexed": true,
          "internalType": "address",
          "name": "account",
          "type": "address"
        }
      ],
      "name": "RenounceGuardian",
      "type": "event"
    },
    {
      "anonymous": false,
      "inputs": [
        {
          "indexed": true,
          "internalType": "address",
          "name": "grantor",
          "type": "address"
        },
        {
          "indexed": true,
          "internalType": "address",
          "name": "grantee",
          "type": "address"
        },
        {
          "indexed": false,
          "internalType": "uint256",
          "name": "privilege",
          "type": "uint256"
        }
      ],
      "name": "RevokePrivilege",
      "type": "event"
    },
    {
      "anonymous": false,
      "inputs": [
        {
          "indexed": false,
          "internalType": "address",
          "name": "previousKeeper",
          "type": "address"
        },
        {
          "indexed": false,
          "internalType": "address",
          "name": "newKeeper",
          "type": "address"
        }
      ],
      "name": "SetKeeper",
      "type": "event"
    },
    {
      "anonymous": false,
      "inputs": [
        {
          "indexed": false,
          "internalType": "address",
          "name": "previousRewardDistributor",
          "type": "address"
        },
        {
          "indexed": false,
          "internalType": "address",
          "name": "newRewardDistributor",
          "type": "address"
        }
      ],
      "name": "SetRewardDistributor",
      "type": "event"
    },
    {
      "anonymous": false,
      "inputs": [],
      "name": "SetUniverseSettled",
      "type": "event"
    },
    {
      "anonymous": false,
      "inputs": [
        {
          "indexed": false,
          "internalType": "address",
          "name": "previousVault",
          "type": "address"
        },
        {
          "indexed": false,
          "internalType": "address",
          "name": "newVault",
          "type": "address"
        }
      ],
      "name": "SetVault",
      "type": "event"
    },
    {
      "anonymous": false,
      "inputs": [
        {
          "indexed": false,
          "internalType": "int256",
          "name": "prevFeeRate",
          "type": "int256"
        },
        {
          "indexed": false,
          "internalType": "int256",
          "name": "newFeeRate",
          "type": "int256"
        }
      ],
      "name": "SetVaultFeeRate",
      "type": "event"
    },
    {
      "anonymous": false,
      "inputs": [
        {
          "indexed": true,
          "internalType": "address",
          "name": "fromAccount",
          "type": "address"
        },
        {
          "indexed": true,
          "internalType": "address",
          "name": "toAccount",
          "type": "address"
        }
      ],
      "name": "TransferGuardian",
      "type": "event"
    },
    {
      "anonymous": false,
      "inputs": [
        {
          "indexed": false,
          "internalType": "bytes32",
          "name": "versionKey",
          "type": "bytes32"
        },
        {
          "indexed": true,
          "internalType": "address",
          "name": "liquidityPool",
          "type": "address"
        },
        {
          "indexed": true,
          "internalType": "address",
          "name": "governor",
          "type": "address"
        }
      ],
      "name": "UpgradeLiquidityPool",
      "type": "event"
    },
    {
      "inputs": [
        {
          "internalType": "address",
          "name": "trader",
          "type": "address"
        },
        {
          "internalType": "uint256",
          "name": "perpetualIndex",
          "type": "uint256"
        }
      ],
      "name": "activatePerpetualFor",
      "outputs": [
        {
          "internalType": "bool",
          "name": "",
          "type": "bool"
        }
      ],
      "stateMutability": "nonpayable",
      "type": "function"
    },
    {
      "inputs": [
        {
          "internalType": "address",
          "name": "account",
          "type": "address"
        }
      ],
      "name": "addGuardian",
      "outputs": [],
      "stateMutability": "nonpayable",
      "type": "function"
    },
    {
      "inputs": [
        {
          "internalType": "address",
          "name": "keeper",
          "type": "address"
        }
      ],
      "name": "addKeeper",
      "outputs": [],
      "stateMutability": "nonpayable",
      "type": "function"
    },
    {
      "inputs": [
        {
          "internalType": "address",
          "name": "liquidityPoolTemplate",
          "type": "address"
        },
        {
          "internalType": "address",
          "name": "governorTemplate",
          "type": "address"
        },
        {
          "internalType": "uint256",
          "name": "compatibility",
          "type": "uint256"
        },
        {
          "internalType": "string",
          "name": "note",
          "type": "string"
        }
      ],
      "name": "addVersion",
      "outputs": [
        {
          "internalType": "bytes32",
          "name": "versionKey",
          "type": "bytes32"
        }
      ],
      "stateMutability": "nonpayable",
      "type": "function"
    },
    {
      "inputs": [
        {
          "internalType": "address",
          "name": "collateral",
          "type": "address"
        },
        {
          "internalType": "uint256",
          "name": "collateralDecimals",
          "type": "uint256"
        },
        {
          "internalType": "int256",
          "name": "nonce",
          "type": "int256"
        },
        {
          "internalType": "bytes",
          "name": "initData",
          "type": "bytes"
        }
      ],
      "name": "createLiquidityPool",
      "outputs": [
        {
          "internalType": "address",
          "name": "liquidityPool",
          "type": "address"
        },
        {
          "internalType": "address",
          "name": "governor",
          "type": "address"
        }
      ],
      "stateMutability": "nonpayable",
      "type": "function"
    },
    {
      "inputs": [
        {
          "internalType": "address",
          "name": "trader",
          "type": "address"
        },
        {
          "internalType": "uint256",
          "name": "perpetualIndex",
          "type": "uint256"
        }
      ],
      "name": "deactivatePerpetualFor",
      "outputs": [
        {
          "internalType": "bool",
          "name": "",
          "type": "bool"
        }
      ],
      "stateMutability": "nonpayable",
      "type": "function"
    },
    {
      "inputs": [],
      "name": "getAccessController",
      "outputs": [
        {
          "internalType": "address",
          "name": "",
          "type": "address"
        }
      ],
      "stateMutability": "view",
      "type": "function"
    },
    {
      "inputs": [
        {
          "internalType": "address",
          "name": "trader",
          "type": "address"
        }
      ],
      "name": "getActiveLiquidityPoolCountOf",
      "outputs": [
        {
          "internalType": "uint256",
          "name": "",
          "type": "uint256"
        }
      ],
      "stateMutability": "view",
      "type": "function"
    },
    {
      "inputs": [
        {
          "internalType": "address",
          "name": "liquidityPool",
          "type": "address"
        },
        {
          "internalType": "address",
          "name": "governor",
          "type": "address"
        }
      ],
      "name": "getAppliedVersionKey",
      "outputs": [
        {
          "internalType": "bytes32",
          "name": "appliedVersionKey",
          "type": "bytes32"
        }
      ],
      "stateMutability": "view",
      "type": "function"
    },
    {
      "inputs": [],
      "name": "getKeeperCount",
      "outputs": [
        {
          "internalType": "uint256",
          "name": "",
          "type": "uint256"
        }
      ],
      "stateMutability": "view",
      "type": "function"
    },
    {
      "inputs": [],
      "name": "getLatestVersion",
      "outputs": [
        {
          "internalType": "bytes32",
          "name": "latestVersionKey",
          "type": "bytes32"
        }
      ],
      "stateMutability": "view",
      "type": "function"
    },
    {
      "inputs": [],
      "name": "getLiquidityPoolCount",
      "outputs": [
        {
          "internalType": "uint256",
          "name": "",
          "type": "uint256"
        }
      ],
      "stateMutability": "view",
      "type": "function"
    },
    {
      "inputs": [],
      "name": "getMCBToken",
      "outputs": [
        {
          "internalType": "address",
          "name": "",
          "type": "address"
        }
      ],
      "stateMutability": "pure",
      "type": "function"
    },
    {
      "inputs": [
        {
          "internalType": "address",
          "name": "operator",
          "type": "address"
        }
      ],
      "name": "getOwnedLiquidityPoolsCountOf",
      "outputs": [
        {
          "internalType": "uint256",
          "name": "",
          "type": "uint256"
        }
      ],
      "stateMutability": "view",
      "type": "function"
    },
    {
      "inputs": [],
      "name": "getSymbolService",
      "outputs": [
        {
          "internalType": "address",
          "name": "",
          "type": "address"
        }
      ],
      "stateMutability": "view",
      "type": "function"
    },
    {
      "inputs": [],
      "name": "getVault",
      "outputs": [
        {
          "internalType": "address",
          "name": "",
          "type": "address"
        }
      ],
      "stateMutability": "view",
      "type": "function"
    },
    {
      "inputs": [],
      "name": "getVaultFeeRate",
      "outputs": [
        {
          "internalType": "int256",
          "name": "",
          "type": "int256"
        }
      ],
      "stateMutability": "view",
      "type": "function"
    },
    {
      "inputs": [
        {
          "internalType": "bytes32",
          "name": "versionKey",
          "type": "bytes32"
        }
      ],
      "name": "getVersion",
      "outputs": [
        {
          "internalType": "address",
          "name": "liquidityPoolTemplate",
          "type": "address"
        },
        {
          "internalType": "address",
          "name": "governorTemplate",
          "type": "address"
        },
        {
          "internalType": "uint256",
          "name": "compatibility",
          "type": "uint256"
        }
      ],
      "stateMutability": "view",
      "type": "function"
    },
    {
      "inputs": [
        {
          "internalType": "address",
          "name": "grantee",
          "type": "address"
        },
        {
          "internalType": "uint256",
          "name": "privilege",
          "type": "uint256"
        }
      ],
      "name": "grantPrivilege",
      "outputs": [],
      "stateMutability": "nonpayable",
      "type": "function"
    },
    {
      "inputs": [],
      "name": "guardianCount",
      "outputs": [
        {
          "internalType": "uint256",
          "name": "",
          "type": "uint256"
        }
      ],
      "stateMutability": "view",
      "type": "function"
    },
    {
      "inputs": [
        {
          "internalType": "address",
          "name": "",
          "type": "address"
        }
      ],
      "name": "guardians",
      "outputs": [
        {
          "internalType": "bool",
          "name": "",
          "type": "bool"
        }
      ],
      "stateMutability": "view",
      "type": "function"
    },
    {
      "inputs": [
        {
          "internalType": "address",
          "name": "symbolService",
          "type": "address"
        },
        {
          "internalType": "address",
          "name": "globalVault",
          "type": "address"
        },
        {
          "internalType": "int256",
          "name": "globalVaultFeeRate",
          "type": "int256"
        }
      ],
      "name": "initialize",
      "outputs": [],
      "stateMutability": "nonpayable",
      "type": "function"
    },
    {
      "inputs": [
        {
          "internalType": "address",
          "name": "trader",
          "type": "address"
        },
        {
          "internalType": "address",
          "name": "liquidityPool",
          "type": "address"
        },
        {
          "internalType": "uint256",
          "name": "perpetualIndex",
          "type": "uint256"
        }
      ],
      "name": "isActiveLiquidityPoolOf",
      "outputs": [
        {
          "internalType": "bool",
          "name": "",
          "type": "bool"
        }
      ],
      "stateMutability": "view",
      "type": "function"
    },
    {
      "inputs": [
        {
          "internalType": "address",
          "name": "grantor",
          "type": "address"
        },
        {
          "internalType": "address",
          "name": "grantee",
          "type": "address"
        },
        {
          "internalType": "uint256",
          "name": "privilege",
          "type": "uint256"
        }
      ],
      "name": "isGranted",
      "outputs": [
        {
          "internalType": "bool",
          "name": "",
          "type": "bool"
        }
      ],
      "stateMutability": "view",
      "type": "function"
    },
    {
      "inputs": [
        {
          "internalType": "address",
          "name": "account",
          "type": "address"
        }
      ],
      "name": "isGuardian",
      "outputs": [
        {
          "internalType": "bool",
          "name": "",
          "type": "bool"
        }
      ],
      "stateMutability": "view",
      "type": "function"
    },
    {
      "inputs": [
        {
          "internalType": "address",
          "name": "keeper",
          "type": "address"
        }
      ],
      "name": "isKeeper",
      "outputs": [
        {
          "internalType": "bool",
          "name": "",
          "type": "bool"
        }
      ],
      "stateMutability": "view",
      "type": "function"
    },
    {
      "inputs": [
        {
          "internalType": "address",
          "name": "liquidityPool",
          "type": "address"
        }
      ],
      "name": "isLiquidityPool",
      "outputs": [
        {
          "internalType": "bool",
          "name": "",
          "type": "bool"
        }
      ],
      "stateMutability": "view",
      "type": "function"
    },
    {
      "inputs": [],
      "name": "isUniverseSettled",
      "outputs": [
        {
          "internalType": "bool",
          "name": "",
          "type": "bool"
        }
      ],
      "stateMutability": "view",
      "type": "function"
    },
    {
      "inputs": [
        {
          "internalType": "bytes32",
          "name": "targetVersionKey",
          "type": "bytes32"
        },
        {
          "internalType": "bytes32",
          "name": "baseVersionKey",
          "type": "bytes32"
        }
      ],
      "name": "isVersionCompatible",
      "outputs": [
        {
          "internalType": "bool",
          "name": "isCompatible",
          "type": "bool"
        }
      ],
      "stateMutability": "view",
      "type": "function"
    },
    {
      "inputs": [
        {
          "internalType": "bytes32",
          "name": "versionKey",
          "type": "bytes32"
        }
      ],
      "name": "isVersionKeyValid",
      "outputs": [
        {
          "internalType": "bool",
          "name": "isValid",
          "type": "bool"
        }
      ],
      "stateMutability": "view",
      "type": "function"
    },
    {
      "inputs": [
        {
          "internalType": "address",
          "name": "trader",
          "type": "address"
        },
        {
          "internalType": "uint256",
          "name": "begin",
          "type": "uint256"
        },
        {
          "internalType": "uint256",
          "name": "end",
          "type": "uint256"
        }
      ],
      "name": "listActiveLiquidityPoolsOf",
      "outputs": [
        {
          "components": [
            {
              "internalType": "address",
              "name": "liquidityPool",
              "type": "address"
            },
            {
              "internalType": "uint256",
              "name": "perpetualIndex",
              "type": "uint256"
            }
          ],
          "internalType": "struct Tracer.PerpetualUID[]",
          "name": "result",
          "type": "tuple[]"
        }
      ],
      "stateMutability": "view",
      "type": "function"
    },
    {
      "inputs": [
        {
          "internalType": "uint256",
          "name": "begin",
          "type": "uint256"
        },
        {
          "internalType": "uint256",
          "name": "end",
          "type": "uint256"
        }
      ],
      "name": "listAvailableVersions",
      "outputs": [
        {
          "internalType": "bytes32[]",
          "name": "versionKeys",
          "type": "bytes32[]"
        }
      ],
      "stateMutability": "view",
      "type": "function"
    },
    {
      "inputs": [
        {
          "internalType": "uint256",
          "name": "begin",
          "type": "uint256"
        },
        {
          "internalType": "uint256",
          "name": "end",
          "type": "uint256"
        }
      ],
      "name": "listKeepers",
      "outputs": [
        {
          "internalType": "address[]",
          "name": "",
          "type": "address[]"
        }
      ],
      "stateMutability": "view",
      "type": "function"
    },
    {
      "inputs": [
        {
          "internalType": "address",
          "name": "operator",
          "type": "address"
        },
        {
          "internalType": "uint256",
          "name": "begin",
          "type": "uint256"
        },
        {
          "internalType": "uint256",
          "name": "end",
          "type": "uint256"
        }
      ],
      "name": "listLiquidityPoolOwnedBy",
      "outputs": [
        {
          "internalType": "address[]",
          "name": "result",
          "type": "address[]"
        }
      ],
      "stateMutability": "view",
      "type": "function"
    },
    {
      "inputs": [
        {
          "internalType": "uint256",
          "name": "begin",
          "type": "uint256"
        },
        {
          "internalType": "uint256",
          "name": "end",
          "type": "uint256"
        }
      ],
      "name": "listLiquidityPools",
      "outputs": [
        {
          "internalType": "address[]",
          "name": "result",
          "type": "address[]"
        }
      ],
      "stateMutability": "view",
      "type": "function"
    },
    {
      "inputs": [],
      "name": "owner",
      "outputs": [
        {
          "internalType": "address",
          "name": "",
          "type": "address"
        }
      ],
      "stateMutability": "view",
      "type": "function"
    },
    {
      "inputs": [],
      "name": "poolVersion",
      "outputs": [
        {
          "internalType": "uint256",
          "name": "",
          "type": "uint256"
        }
      ],
      "stateMutability": "view",
      "type": "function"
    },
    {
      "inputs": [
        {
          "internalType": "address",
          "name": "liquidityPool",
          "type": "address"
        },
        {
          "internalType": "address",
          "name": "operator",
          "type": "address"
        }
      ],
      "name": "registerOperatorOfLiquidityPool",
      "outputs": [],
      "stateMutability": "nonpayable",
      "type": "function"
    },
    {
      "inputs": [
        {
          "internalType": "address",
          "name": "keeper",
          "type": "address"
        }
      ],
      "name": "removeKeeper",
      "outputs": [],
      "stateMutability": "nonpayable",
      "type": "function"
    },
    {
      "inputs": [],
      "name": "renounceGuardian",
      "outputs": [],
      "stateMutability": "nonpayable",
      "type": "function"
    },
    {
      "inputs": [],
      "name": "renounceOwnership",
      "outputs": [],
      "stateMutability": "nonpayable",
      "type": "function"
    },
    {
      "inputs": [
        {
          "internalType": "address",
          "name": "grantee",
          "type": "address"
        },
        {
          "internalType": "uint256",
          "name": "privilege",
          "type": "uint256"
        }
      ],
      "name": "revokePrivilege",
      "outputs": [],
      "stateMutability": "nonpayable",
      "type": "function"
    },
    {
      "inputs": [],
      "name": "setUniverseSettled",
      "outputs": [],
      "stateMutability": "nonpayable",
      "type": "function"
    },
    {
      "inputs": [
        {
          "internalType": "address",
          "name": "newVault",
          "type": "address"
        }
      ],
      "name": "setVault",
      "outputs": [],
      "stateMutability": "nonpayable",
      "type": "function"
    },
    {
      "inputs": [
        {
          "internalType": "int256",
          "name": "newVaultFeeRate",
          "type": "int256"
        }
      ],
      "name": "setVaultFeeRate",
      "outputs": [],
      "stateMutability": "nonpayable",
      "type": "function"
    },
    {
      "inputs": [
        {
          "internalType": "address",
          "name": "toAccount",
          "type": "address"
        }
      ],
      "name": "transferGuardian",
      "outputs": [],
      "stateMutability": "nonpayable",
      "type": "function"
    },
    {
      "inputs": [
        {
          "internalType": "address",
          "name": "newOwner",
          "type": "address"
        }
      ],
      "name": "transferOwnership",
      "outputs": [],
      "stateMutability": "nonpayable",
      "type": "function"
    },
    {
      "inputs": [],
      "name": "upgradeAdmin",
      "outputs": [
        {
          "internalType": "contract IProxyAdmin",
          "name": "",
          "type": "address"
        }
      ],
      "stateMutability": "view",
      "type": "function"
    },
    {
      "inputs": [
        {
          "internalType": "bytes32",
          "name": "targetVersionKey",
          "type": "bytes32"
        },
        {
          "internalType": "bytes",
          "name": "dataForLiquidityPool",
          "type": "bytes"
        },
        {
          "internalType": "bytes",
          "name": "dataForGovernor",
          "type": "bytes"
        }
      ],
      "name": "upgradeToAndCall",
      "outputs": [],
      "stateMutability": "nonpayable",
      "type": "function"
    }
  ],
  "bytecode": "0x608060405234801561001057600080fd5b506156e5806100206000396000f3fe60806040523480156200001157600080fd5b50600436106200037b5760003560e01c8063715018a611620001dd578063affe5bed1162000111578063da81573111620000b1578063e9946f6c1162000087578063e9946f6c146200073e578063f2fde38b1462000748578063f81d65f1146200075f578063fcf2b3fc1462000776576200037b565b8063da8157311462000706578063db7ca94b1462000710578063e85455d71462000727576200037b565b8063c2f3da1d11620000e7578063c2f3da1d14620006db578063c4d5608a14620006f2578063d54bda9714620006fc576200037b565b8063affe5bed14620006a3578063b49f32e714620006ba578063c1d27fe714620006c4576200037b565b806384ffaf28116200017d5780639aaf9f0811620001535780639aaf9f08146200064d578063a526d83b1462000675578063ade79601146200068c576200037b565b806384ffaf2814620006225780638d928af814620006395780638da5cb5b1462000643576200037b565b8063824372c711620001b3578063824372c714620005ce5780638277c65114620005f457806384452fef146200060b576200037b565b8063715018a614620005a357806372d27c9d14620005ad5780637a5f0ffd14620005c4576200037b565b806333c0b0fc11620002b55780634831d32f1162000255578063625fdca3116200022b578063625fdca3146200055e5780636817031b14620005755780636ba42aaa146200058c576200037b565b80634831d32f1462000540578063492c26b6146200054a57806354387ad71462000554576200037b565b806341cbd53d116200028b57806341cbd53d1462000508578063439adb781462000512578063471a4bc61462000529576200037b565b806333c0b0fc14620004c35780633c597ff614620004da5780634032b72b14620004f1576200037b565b80630e6d1de911620003215780631fe5ee8811620002f75780631fe5ee88146200046f57806325b7f04f14620004955780632accccc414620004ac576200037b565b80630e6d1de9146200043557806314ae9f2e146200044e57806316d6b5f61462000465576200037b565b8063091954cd1162000357578063091954cd14620003e15780630a4a9bb414620003f85780630c68ba21146200041e576200037b565b8062dc415a14620003805780630633b14a146200039957806307c4d48614620003c8575b600080fd5b62000397620003913660046200364a565b6200079d565b005b620003b0620003aa3660046200360c565b6200085c565b604051620003bf919062003b10565b60405180910390f35b620003d262000871565b604051620003bf91906200393d565b62000397620003f23660046200360c565b62000880565b6200040f6200040936600462003827565b62000975565b604051620003bf919062003a2d565b620003b06200042f3660046200360c565b6200098e565b6200043f620009ac565b604051620003bf919062003b1b565b620003976200045f3660046200360c565b62000a30565b620003d262000bfe565b6200048662000480366004620037d7565b62000c02565b604051620003bf919062003ab6565b6200040f620004a6366004620037d7565b62000d6b565b62000397620004bd36600462003849565b62000d9b565b62000397620004d43660046200380e565b62000fdc565b620003b0620004eb36600462003827565b62001146565b62000397620005023660046200360c565b62001224565b62000397620013de565b620003b0620005233660046200375a565b62001469565b620003976200053a3660046200375a565b6200152d565b620003b0620016a0565b6200043f620016a9565b6200043f620016af565b6200040f6200056f36600462003827565b620016b5565b62000397620005863660046200360c565b620016c5565b620003b06200059d3660046200360c565b62001853565b6200039762001862565b6200043f620005be3660046200360c565b62001925565b6200043f62001948565b620005e5620005df36600462003827565b62001956565b604051620003bf919062003a7c565b620003b0620006053660046200380e565b62001966565b6200043f6200061c366004620036e1565b62001975565b620003976200063336600462003687565b62001c31565b620003d262001d41565b620003d262001d50565b620006646200065e3660046200380e565b62001d5c565b604051620003bf93929190620039c2565b62000397620006863660046200360c565b62001def565b620003b06200069d366004620036cc565b62001e76565b62000397620006b43660046200375a565b62001ea7565b620003d262001fef565b6200043f620006d53660046200360c565b62002007565b620003b0620006ec366004620036cc565b6200202a565b620003d2620020be565b6200043f620020cd565b6200043f620020db565b6200043f620007213660046200364a565b620020e1565b620003b0620007383660046200360c565b62002107565b6200039762002116565b62000397620007593660046200360c565b620021a7565b620003b0620007703660046200375a565b620022c3565b6200078d6200078736600462003788565b6200231e565b604051620003bf92919062003951565b620007a83362002107565b620007d05760405162461bcd60e51b8152600401620007c79062003dae565b60405180910390fd5b6001600160a01b0380831660009081526006602090815260408083205490931680835260059091529190206200080790846200237d565b506001600160a01b03821660009081526005602052604090206200082c908462002394565b50506001600160a01b03918216600090815260066020526040902080546001600160a01b03191691909216179055565b607a6020526000908152604090205460ff1681565b6070546001600160a01b031690565b6200088e6200042f620023ab565b620008ad5760405162461bcd60e51b8152600401620007c79062003c07565b6001600160a01b038116620008d65760405162461bcd60e51b8152600401620007c79062003d40565b620008e1816200098e565b15620009015760405162461bcd60e51b8152600401620007c79062003e0b565b60006200090d620023ab565b6001600160a01b038082166000818152607a6020526040808220805460ff19908116909155938716808352818320805490951660011790945551939450919290917f19e3cbfd9b25c12fb88132e5887dc3a2a4f52979bd0af17f78e6fea817addf4b91a35050565b60606200098560758484620023af565b90505b92915050565b6001600160a01b03166000908152607a602052604090205460ff1690565b600080620009bb606b620024d5565b1162000a0e576040805162461bcd60e51b815260206004820152600a60248201527f6e6f2076657273696f6e00000000000000000000000000000000000000000000604482015290519081900360640190fd5b62000a2b600162000a20606b620024d5565b606b919003620024e2565b905090565b62000a3a620023ab565b6001600160a01b031662000a4d62001d50565b6001600160a01b03161462000aa9576040805162461bcd60e51b815260206004820181905260248201527f4f776e61626c653a2063616c6c6572206973206e6f7420746865206f776e6572604482015290519081900360640190fd5b6001600160a01b03811662000b05576040805162461bcd60e51b815260206004820152601760248201527f6163636f756e74206973207a65726f2d61646472657373000000000000000000604482015290519081900360640190fd5b62000b108162001853565b62000b62576040805162461bcd60e51b815260206004820152601e60248201527f6b6565706572206973206e6f7420696e207468652077686974656c6973740000604482015290519081900360640190fd5b600062000b716075836200237d565b90508062000bc6576040805162461bcd60e51b815260206004820152601560248201527f6661696c20746f2072656d6f7665206b65657065720000000000000000000000604482015290519081900360640190fd5b6040516001600160a01b038316907fbe3bdeafee52d4ccc66d6c1392815c90e3a1c88659588b2ee138035fd8ab009e90600090a25050565b3090565b606082821162000c265760405162461bcd60e51b8152600401620007c79062003b99565b6001600160a01b038416600090815260046020526040812062000c4990620024d5565b905080841062000c5a575062000d64565b600062000c688483620024f0565b905062000c76818662002508565b67ffffffffffffffff8111801562000c8d57600080fd5b5060405190808252806020026020018201604052801562000ccb57816020015b62000cb762003511565b81526020019060019003908162000cad5790505b509250845b8181101562000d60576001600160a01b03871660009081526004602052604081206003919062000d019084620024e2565b81526020808201929092526040908101600020815180830190925280546001600160a01b0316825260010154918101919091528462000d41838962002508565b8151811062000d4c57fe5b602090810291909101015260010162000cd0565b5050505b9392505050565b6001600160a01b038316600090815260056020526040902060609062000d93908484620023af565b949350505050565b60008060008062000dac8762002566565b935093509350935060008651111562000e2f57607454604051639623609d60e01b81526001600160a01b0390911690639623609d9062000df590879086908b906004016200396b565b600060405180830381600087803b15801562000e1057600080fd5b505af115801562000e25573d6000803e3d6000fd5b5050505062000e98565b60745460405163266a23b160e21b81526001600160a01b03909116906399a88ec49062000e63908790869060040162003951565b600060405180830381600087803b15801562000e7e57600080fd5b505af115801562000e93573d6000803e3d6000fd5b505050505b84511562000f1057607454604051639623609d60e01b81526001600160a01b0390911690639623609d9062000ed690869085908a906004016200396b565b600060405180830381600087803b15801562000ef157600080fd5b505af115801562000f06573d6000803e3d6000fd5b5050505062000f79565b60745460405163266a23b160e21b81526001600160a01b03909116906399a88ec49062000f44908690859060040162003951565b600060405180830381600087803b15801562000f5f57600080fd5b505af115801562000f74573d6000803e3d6000fd5b505050505b62000f86878585620026b1565b826001600160a01b0316846001600160a01b03167f7f690cf92643ebecf3ed65f2c0400eaf65578ae88d1e46c6d00039bbdf0fb91a8960405162000fcb919062003b1b565b60405180910390a350505050505050565b62000fe6620023ab565b6001600160a01b031662000ff962001d50565b6001600160a01b03161462001055576040805162461bcd60e51b815260206004820181905260248201527f4f776e61626c653a2063616c6c6572206973206e6f7420746865206f776e6572604482015290519081900360640190fd5b6000811215620010ac576040805162461bcd60e51b815260206004820152601760248201527f6e65676174697665207661756c74206665652072617465000000000000000000604482015290519081900360640190fd5b60725481141562001104576040805162461bcd60e51b815260206004820152601860248201527f756e6368616e676564207661756c742066656520726174650000000000000000604482015290519081900360640190fd5b607254604080519182526020820183905280517f720bdddca2e8c70d6ac27a51abd2eb4fbaca31653c8a9990eb307838fc5162919281900390910190a1607255565b6000620011538362001966565b620011a5576040805162461bcd60e51b815260206004820152601960248201527f7461726765742076657273696f6e20697320696e76616c696400000000000000604482015290519081900360640190fd5b620011b08262001966565b62001202576040805162461bcd60e51b815260206004820152601760248201527f626173652076657273696f6e20697320696e76616c6964000000000000000000604482015290519081900360640190fd5b506000908152606d602052604080822060029081015493835291200154101590565b6200122e620023ab565b6001600160a01b03166200124162001d50565b6001600160a01b0316146200129d576040805162461bcd60e51b815260206004820181905260248201527f4f776e61626c653a2063616c6c6572206973206e6f7420746865206f776e6572604482015290519081900360640190fd5b6001600160a01b038116620012f9576040805162461bcd60e51b815260206004820152601760248201527f6163636f756e74206973207a65726f2d61646472657373000000000000000000604482015290519081900360640190fd5b620013048162001853565b15620013425760405162461bcd60e51b81526004018080602001828103825260228152602001806200568e6022913960400191505060405180910390fd5b60006200135160758362002394565b905080620013a6576040805162461bcd60e51b815260206004820152601260248201527f6661696c20746f20616464206b65657065720000000000000000000000000000604482015290519081900360640190fd5b6040516001600160a01b038316907f26ae89c0d3c267cb14cd6aa7e2de3d1c55a87f6610a3ca5f1d8cf19ca65cd39d90600090a25050565b620013ec6200042f620023ab565b6200140b5760405162461bcd60e51b8152600401620007c79062003c07565b60775460ff1615620014315760405162461bcd60e51b8152600401620007c79062003c3e565b6077805460ff191660011790556040517f5d3b5534803eff415e41e2b11bff1cc3536cf0f85e12143eb543ea33a2aeb3ff90600090a1565b6000620014763362002107565b620014955760405162461bcd60e51b8152600401620007c79062003dae565b6000620014a33384620026d6565b6000818152600360205260409020549091506001600160a01b03166200150957604080518082018252338152602080820186815260008581526003909252929020905181546001600160a01b0319166001600160a01b0390911617815590516001909101555b6001600160a01b038416600090815260046020526040902062000d9390826200270b565b620015388162002719565b6200158a576040805162461bcd60e51b815260206004820152601460248201527f70726976696c65676520697320696e76616c6964000000000000000000000000604482015290519081900360640190fd5b620015973383836200202a565b15620015ea576040805162461bcd60e51b815260206004820152601c60248201527f70726976696c65676520697320616c7265616479206772616e74656400000000604482015290519081900360640190fd5b3360009081526073602052604081206200160590846200272e565b620016125760006200162d565b3360009081526073602052604090206200162d90846200274f565b90506200163b818362002793565b3360009081526073602052604090209091506200165a90848362002797565b506040805183815290516001600160a01b0385169133917fb542e9113bf4db53a191bfb69cafe0c1d0647ca432aa8a6d36b6f9b04ec5473b9181900360200190a3505050565b60775460ff1681565b60725490565b60795481565b60606200098560018484620023af565b620016cf620023ab565b6001600160a01b0316620016e262001d50565b6001600160a01b0316146200173e576040805162461bcd60e51b815260206004820181905260248201527f4f776e61626c653a2063616c6c6572206973206e6f7420746865206f776e6572604482015290519081900360640190fd5b6001600160a01b0381166200179a576040805162461bcd60e51b815260206004820152601960248201527f6e6577207661756c74206973207a65726f2d6164647265737300000000000000604482015290519081900360640190fd5b6071546001600160a01b0382811691161415620017e95760405162461bcd60e51b8152600401808060200182810382526022815260200180620056186022913960400191505060405180910390fd5b607154604080516001600160a01b039283168152918316602083015280517f22a9f7c8a21e91a43518238948d4ed67511ad8492ca0e13fdbc93c134701a72a9281900390910190a1607180546001600160a01b0319166001600160a01b0392909216919091179055565b6000620009886075836200285f565b6200186c620023ab565b6001600160a01b03166200187f62001d50565b6001600160a01b031614620018db576040805162461bcd60e51b815260206004820181905260248201527f4f776e61626c653a2063616c6c6572206973206e6f7420746865206f776e6572604482015290519081900360640190fd5b6039546040516000916001600160a01b0316907f8be0079c531659141344cd1fd0a4f28419497f9722a3daafe3b4186f6b6457e0908390a3603980546001600160a01b0319169055565b6001600160a01b03811660009081526004602052604081206200098890620024d5565b600062000a2b6001620024d5565b606062000985606b848462002876565b600062000988606b836200298f565b600062001981620023ab565b6001600160a01b03166200199462001d50565b6001600160a01b031614620019f0576040805162461bcd60e51b815260206004820181905260248201527f4f776e61626c653a2063616c6c6572206973206e6f7420746865206f776e6572604482015290519081900360640190fd5b62001a04866001600160a01b03166200299d565b62001a56576040805162461bcd60e51b815260206004820152601f60248201527f696d706c656d656e746174696f6e206d75737420626520636f6e747261637400604482015290519081900360640190fd5b62001a6a856001600160a01b03166200299d565b62001abc576040805162461bcd60e51b815260206004820152601f60248201527f696d706c656d656e746174696f6e206d75737420626520636f6e747261637400604482015290519081900360640190fd5b62001ac88686620029a3565b905062001ad58162001966565b1562001b28576040805162461bcd60e51b815260206004820152601d60248201527f696d706c656d656e746174696f6e20616c726561647920657869737473000000604482015290519081900360640190fd5b604080516060810182526001600160a01b03808916825287811660208084019182528385018981526000878152606d909252949020925183549083166001600160a01b03199182161784559051600184018054919093169116179055905160029091015562001b99606b826200270b565b50336001600160a01b0316856001600160a01b0316876001600160a01b03167f1ae7782997ea5d0490cc9c4db962cfb50f949390e7b99082d3df8ac5d58eaef98488888860405180858152602001848152602001806020018281038252848482818152602001925080828437600083820152604051601f909101601f191690920182900397509095505050505050a495945050505050565b600054610100900460ff168062001c4d575062001c4d620029ea565b8062001c5c575060005460ff16155b62001c995760405162461bcd60e51b815260040180806020018281038252602e81526020018062005660602e913960400191505060405180910390fd5b600054610100900460ff1615801562001cc5576000805460ff1961ff0019909116610100171660011790555b62001ccf620029fd565b62001cdc84848462002aba565b60405162001cea9062003528565b604051809103906000f08015801562001d07573d6000803e3d6000fd5b50607480546001600160a01b0319166001600160a01b0392909216919091179055801562001d3b576000805461ff00191690555b50505050565b6071546001600160a01b031690565b600062000a2b62002caa565b600080600062001d6c8462001966565b62001dbe576040805162461bcd60e51b815260206004820152601960248201527f696d706c656d656e746174696f6e20697320696e76616c696400000000000000604482015290519081900360640190fd5b5050506000908152606d60205260409020805460018201546002909201546001600160a01b03918216939290911691565b62001df9620023ab565b6001600160a01b031662001e0c62001d50565b6001600160a01b03161462001e68576040805162461bcd60e51b815260206004820181905260248201527f4f776e61626c653a2063616c6c6572206973206e6f7420746865206f776e6572604482015290519081900360640190fd5b62001e738162002cb9565b50565b600062000d9362001e888484620026d6565b6001600160a01b0386166000908152600460205260409020906200298f565b62001eb28162002719565b62001f04576040805162461bcd60e51b815260206004820152601460248201527f70726976696c65676520697320696e76616c6964000000000000000000000000604482015290519081900360640190fd5b62001f113383836200202a565b62001f63576040805162461bcd60e51b815260206004820152601860248201527f70726976696c656765206973206e6f74206772616e7465640000000000000000604482015290519081900360640190fd5b33600090815260736020526040902062001faa90839062001f9390849062001f8c90846200274f565b9062002d65565b336000908152607360205260409020919062002797565b506040805182815290516001600160a01b0384169133917f2e910d80b3ddddaff95f2e39c7c226987cd86d56b81c7352b8393efe6f0914709181900360200190a35050565b734e352cf164e64adcbad318c3a1e222e9eba4ce4290565b6001600160a01b03811660009081526005602052604081206200098890620024d5565b6000620020378262002719565b620020455750600062000d64565b6001600160a01b03841660009081526073602052604090206200206990846200272e565b620020775750600062000d64565b6001600160a01b03841660009081526073602052604081206200209b90856200274f565b9050600081118015620020b55750620020b5818462002d6a565b95945050505050565b6074546001600160a01b031681565b600062000a2b6075620024d5565b60785481565b600080620020f08484620029a3565b6000908152606e6020526040902054949350505050565b6000620009886001836200285f565b620021246200042f620023ab565b620021435760405162461bcd60e51b8152600401620007c79062003c07565b60006200214f620023ab565b6001600160a01b0381166000818152607a6020526040808220805460ff19169055607980546000190190555192935090917fb472605167b0007a2ba90117c6f9ca960abddaa4aaed0e6e3b5e7a5e3eec70149190a250565b620021b1620023ab565b6001600160a01b0316620021c462001d50565b6001600160a01b03161462002220576040805162461bcd60e51b815260206004820181905260248201527f4f776e61626c653a2063616c6c6572206973206e6f7420746865206f776e6572604482015290519081900360640190fd5b6001600160a01b038116620022675760405162461bcd60e51b81526004018080602001828103825260268152602001806200563a6026913960400191505060405180910390fd5b6039546040516001600160a01b038084169216907f8be0079c531659141344cd1fd0a4f28419497f9722a3daafe3b4186f6b6457e090600090a3603980546001600160a01b0319166001600160a01b0392909216919091179055565b6000620022d03362002107565b620022ef5760405162461bcd60e51b8152600401620007c79062003dae565b62000985620022ff3384620026d6565b6001600160a01b03851660009081526004602052604090209062002d70565b6000806200236f6200232f620009ac565b88888888888080601f01602080910402602001604051908101604052809392919081815260200183838082843760009201919091525062002d7e92505050565b909890975095505050505050565b600062000985836001600160a01b03841662002f89565b600062000985836001600160a01b0384166200305c565b3390565b606082821162002406576040805162461bcd60e51b815260206004820152601e60248201527f626567696e2073686f756c64206265206c6f776572207468616e20656e640000604482015290519081900360640190fd5b60006200241385620024d5565b905080841062002424575062000d64565b6000620024328483620024f0565b905062002440818662002508565b67ffffffffffffffff811180156200245757600080fd5b5060405190808252806020026020018201604052801562002482578160200160208202803683370190505b509250845b8181101562000d60576200249c8782620024e2565b84620024a9838962002508565b81518110620024b457fe5b6001600160a01b039092166020928302919091019091015260010162002487565b60006200098882620030ab565b6000620009858383620030af565b600081831062002501578162000985565b5090919050565b60008282111562002560576040805162461bcd60e51b815260206004820152601e60248201527f536166654d6174683a207375627472616374696f6e206f766572666c6f770000604482015290519081900360640190fd5b50900390565b60008060008062002576620023ab565b92506200258c836001600160a01b03166200299d565b620025ab5760405162461bcd60e51b8152600401620007c79062003f6d565b826001600160a01b031663f00e6a2a6040518163ffffffff1660e01b815260040160206040518083038186803b158015620025e557600080fd5b505afa158015620025fa573d6000803e3d6000fd5b505050506040513d601f19601f820116820180604052508101906200262091906200362b565b93506200262d8462002107565b6200264c5760405162461bcd60e51b8152600401620007c79062003cac565b60006200265a8585620029a3565b6000818152606e602052604090205490915062002678878262001146565b620026975760405162461bcd60e51b8152600401620007c79062003f10565b620026a28762001d5c565b50969895975095949350505050565b6000620026bf8383620029a3565b6000908152606e6020526040902093909355505050565b60008282604051602001620026ed929190620038e8565b60405160208183030381529060405280519060200120905092915050565b60006200098583836200305c565b6000808211801562000988575050600f101590565b6001600160a01b031660009081526001919091016020526040902054151590565b60006200098583836040518060400160405280601e81526020017f456e756d657261626c654d61703a206e6f6e6578697374656e74206b6579000081525062003116565b1790565b6001600160a01b0382166000908152600184016020526040812054806200282b5750506040805180820182526001600160a01b038481168083526020808401868152885460018082018b5560008b81528481209751600290930290970180546001600160a01b0319169290961691909117855590519381019390935587549184528288019052929091209190915562000d64565b828560000160018303815481106200283f57fe5b906000526020600020906002020160010181905550600091505062000d64565b600062000985836001600160a01b038416620031ef565b6060828211620028cd576040805162461bcd60e51b815260206004820152601e60248201527f626567696e2073686f756c64206265206c6f776572207468616e20656e640000604482015290519081900360640190fd5b6000620028da85620024d5565b9050808410620028eb575062000d64565b6000620028f98483620024f0565b905062002907818662002508565b67ffffffffffffffff811180156200291e57600080fd5b5060405190808252806020026020018201604052801562002949578160200160208202803683370190505b509250845b8181101562000d6057620029638782620024e2565b8462002970838962002508565b815181106200297b57fe5b60209081029190910101526001016200294e565b6000620009858383620031ef565b3b151590565b604080516bffffffffffffffffffffffff19606094851b81166020808401919091529390941b90931660348401528051602881850301815260489093019052815191012090565b6000620029f7306200299d565b15905090565b600054610100900460ff168062002a19575062002a19620029ea565b8062002a28575060005460ff16155b62002a655760405162461bcd60e51b815260040180806020018281038252602e81526020018062005660602e913960400191505060405180910390fd5b600054610100900460ff1615801562002a91576000805460ff1961ff0019909116610100171660011790555b62002a9b62003207565b62002aa5620032af565b801562001e73576000805461ff001916905550565b600054610100900460ff168062002ad6575062002ad6620029ea565b8062002ae5575060005460ff16155b62002b225760405162461bcd60e51b815260040180806020018281038252602e81526020018062005660602e913960400191505060405180910390fd5b600054610100900460ff1615801562002b4e576000805460ff1961ff0019909116610100171660011790555b6001600160a01b03841662002baa576040805162461bcd60e51b815260206004820152601e60248201527f696e76616c69642073796d626f6c207365727669636520616464726573730000604482015290519081900360640190fd5b6001600160a01b03831662002c06576040805162461bcd60e51b815260206004820152601560248201527f696e76616c6964207661756c7420616464726573730000000000000000000000604482015290519081900360640190fd5b600082121562002c5d576040805162461bcd60e51b815260206004820152601760248201527f6e65676174697665207661756c74206665652072617465000000000000000000604482015290519081900360640190fd5b607080546001600160a01b038087166001600160a01b03199283161790925560718054928616929091169190911790556072829055801562001d3b576000805461ff001916905550505050565b6039546001600160a01b031690565b6001600160a01b03811662002ce25760405162461bcd60e51b8152600401620007c79062003d40565b62002ced816200098e565b1562002d0d5760405162461bcd60e51b8152600401620007c79062003e0b565b6001600160a01b0381166000818152607a6020526040808220805460ff19166001908117909155607980549091019055517f1648d9bcedc1ce9debe5943030bb342edf8bcabe4770643cf181d22c3b473dd29190a250565b191690565b16151590565b600062000985838362002f89565b60008062002d8c8762001966565b62002dab5760405162461bcd60e51b8152600401620007c79062003bd0565b3360008062002dba8a62001d5c565b509150915060008a8a888a60405160200162002dda949392919062003b5e565b60405160208183030381529060405280519060200120905062002dfe8382620033b2565b955062002e0c8282620033b2565b6040517f7074020e0000000000000000000000000000000000000000000000000000000081529095506001600160a01b03871690637074020e9062002e5e9087908e908e908b908e90600401620039e6565b600060405180830381600087803b15801562002e7957600080fd5b505af115801562002e8e573d6000803e3d6000fd5b50505050846001600160a01b031663e56f2fe4878862002ead62001fef565b306040518563ffffffff1660e01b815260040162002ecf949392919062003e79565b600060405180830381600087803b15801562002eea57600080fd5b505af115801562002eff573d6000803e3d6000fd5b5050505062002f0f868562003493565b62002f1c8b8787620026b1565b836001600160a01b0316856001600160a01b0316876001600160a01b03167f7b8def528c4bce8aace2c39ea9d8f4c6d3d5dece020ef9441b205f7a831b4dc78e898f8f8e60405162002f7395949392919062003b24565b60405180910390a4505050509550959350505050565b600081815260018301602052604081205480156200304a578354600019808301919081019060009087908390811062002fbe57fe5b906000526020600020015490508087600001848154811062002fdc57fe5b6000918252602080832090910192909255828152600189810190925260409020908401905586548790806200300d57fe5b6001900381819060005260206000200160009055905586600101600087815260200190815260200160002060009055600194505050505062000988565b600091505062000988565b5092915050565b60006200306a8383620031ef565b620030a25750815460018181018455600084815260208082209093018490558454848252828601909352604090209190915562000988565b50600062000988565b5490565b81546000908210620030f35760405162461bcd60e51b8152600401808060200182810382526022815260200180620055f66022913960400191505060405180910390fd5b8260000182815481106200310357fe5b9060005260206000200154905092915050565b6001600160a01b03821660009081526001840160205260408120548281620031bf5760405162461bcd60e51b81526004018080602001828103825283818151815260200191508051906020019080838360005b838110156200318357818101518382015260200162003169565b50505050905090810190601f168015620031b15780820380516001836020036101000a031916815260200191505b509250505060405180910390fd5b50846000016001820381548110620031d357fe5b9060005260206000209060020201600101549150509392505050565b60009081526001919091016020526040902054151590565b600054610100900460ff168062003223575062003223620029ea565b8062003232575060005460ff16155b6200326f5760405162461bcd60e51b815260040180806020018281038252602e81526020018062005660602e913960400191505060405180910390fd5b600054610100900460ff1615801562002aa5576000805460ff1961ff001990911661010017166001179055801562001e73576000805461ff001916905550565b600054610100900460ff1680620032cb5750620032cb620029ea565b80620032da575060005460ff16155b620033175760405162461bcd60e51b815260040180806020018281038252602e81526020018062005660602e913960400191505060405180910390fd5b600054610100900460ff1615801562003343576000805460ff1961ff0019909116610100171660011790555b60006200334f620023ab565b603980546001600160a01b0319166001600160a01b038316908117909155604051919250906000907f8be0079c531659141344cd1fd0a4f28419497f9722a3daafe3b4186f6b6457e0908290a350801562001e73576000805461ff001916905550565b6000620033c8836001600160a01b03166200299d565b620033e75760405162461bcd60e51b8152600401620007c79062003d77565b606060405180602001620033fb9062003536565b601f1982820381018352601f9091011660408190526074546200342d9187916001600160a01b03169060200162003999565b60408051601f19818403018152908290526200344d92916020016200390a565b6040516020818303038152906040529050828151826020016000f591506001600160a01b038216620030555760405162461bcd60e51b8152600401620007c79062003c75565b6001600160a01b038216620034bc5760405162461bcd60e51b8152600401620007c79062003d09565b6000620034cb60018462002394565b905080620034ed5760405162461bcd60e51b8152600401620007c79062003e42565b6001600160a01b03821660009081526005602052604090206200082c908462002394565b604080518082019091526000808252602082015290565b61097e8062003fea83390190565b610c8e806200496883390190565b60008083601f84011262003556578182fd5b50813567ffffffffffffffff8111156200356e578182fd5b6020830191508360208285010111156200358757600080fd5b9250929050565b600082601f8301126200359f578081fd5b813567ffffffffffffffff80821115620035b557fe5b604051601f8301601f191681016020018281118282101715620035d457fe5b604052828152925082848301602001861015620035f057600080fd5b8260208601602083013760006020848301015250505092915050565b6000602082840312156200361e578081fd5b813562000d648162003fd3565b6000602082840312156200363d578081fd5b815162000d648162003fd3565b600080604083850312156200365d578081fd5b82356200366a8162003fd3565b915060208301356200367c8162003fd3565b809150509250929050565b6000806000606084860312156200369c578081fd5b8335620036a98162003fd3565b92506020840135620036bb8162003fd3565b929592945050506040919091013590565b6000806000606084860312156200369c578283fd5b600080600080600060808688031215620036f9578081fd5b8535620037068162003fd3565b94506020860135620037188162003fd3565b935060408601359250606086013567ffffffffffffffff8111156200373b578182fd5b620037498882890162003544565b969995985093965092949392505050565b600080604083850312156200376d578182fd5b82356200377a8162003fd3565b946020939093013593505050565b600080600080600060808688031215620037a0578081fd5b8535620037ad8162003fd3565b94506020860135935060408601359250606086013567ffffffffffffffff8111156200373b578182fd5b600080600060608486031215620037ec578283fd5b8335620037f98162003fd3565b95602085013595506040909401359392505050565b60006020828403121562003820578081fd5b5035919050565b600080604083850312156200383a578182fd5b50508035926020909101359150565b6000806000606084860312156200385e578283fd5b83359250602084013567ffffffffffffffff808211156200387d578384fd5b6200388b878388016200358e565b93506040860135915080821115620038a1578283fd5b50620038b0868287016200358e565b9150509250925092565b60008151808452620038d481602086016020860162003fa4565b601f01601f19169290920160200192915050565b60609290921b6bffffffffffffffffffffffff19168252601482015260340190565b600083516200391e81846020880162003fa4565b8351908301906200393481836020880162003fa4565b01949350505050565b6001600160a01b0391909116815260200190565b6001600160a01b0392831681529116602082015260400190565b60006001600160a01b03808616835280851660208401525060606040830152620020b56060830184620038ba565b6001600160a01b0392831681529116602082015260606040820181905260009082015260800190565b6001600160a01b039384168152919092166020820152604081019190915260600190565b60006001600160a01b038088168352808716602084015285604084015280851660608401525060a0608083015262003a2260a0830184620038ba565b979650505050505050565b6020808252825182820181905260009190848201906040850190845b8181101562003a705783516001600160a01b03168352928401929184019160010162003a49565b50909695505050505050565b6020808252825182820181905260009190848201906040850190845b8181101562003a705783518352928401929184019160010162003a98565b602080825282518282018190526000919060409081850190868401855b8281101562003b0357815180516001600160a01b0316855286015186850152928401929085019060010162003ad3565b5091979650505050505050565b901515815260200190565b90815260200190565b60008682526001600160a01b03808716602084015280861660408401525083606083015260a0608083015262003a2260a0830184620038ba565b60008582526001600160a01b03851660208301526080604083015262003b886080830185620038ba565b905082606083015295945050505050565b6020808252601e908201527f626567696e2073686f756c64206265206c6f776572207468616e20656e640000604082015260600190565b6020808252600f908201527f696e76616c69642076657273696f6e0000000000000000000000000000000000604082015260600190565b60208082526016908201527f73656e646572206973206e6f7420677561726469616e00000000000000000000604082015260600190565b60208082526014908201527f7374617465206973206e6f74206368616e676564000000000000000000000000604082015260600190565b60208082526013908201527f637265617465322063616c6c206661696c656400000000000000000000000000604082015260600190565b6020808252602f908201527f73656e646572206973206e6f742074686520676f7665726e6f72206f6620612060408201527f7265676973746572656420706f6f6c0000000000000000000000000000000000606082015260800190565b6020808252601e908201527f696e76616c6964206c697175696469747920706f6f6c20616464726573730000604082015260600190565b60208082526018908201527f677561726469616e206973207a65726f20616464726573730000000000000000604082015260600190565b6020808252601f908201527f696d706c656d656e746174696f6e206d75737420626520636f6e747261637400604082015260600190565b60208082526025908201527f63616c6c6572206973206e6f74206c697175696469747920706f6f6c20696e7360408201527f74616e6365000000000000000000000000000000000000000000000000000000606082015260800190565b60208082526017908201527f677561726469616e20697320616c726561647920736574000000000000000000604082015260600190565b60208082526015908201527f6c697175696469747920706f6f6c206578697374730000000000000000000000604082015260600190565b60c08082526011908201527f4d4344455820536861726520546f6b656e00000000000000000000000000000060e0820152610100602082018190526003908201527f53544b00000000000000000000000000000000000000000000000000000000006101208201526001600160a01b0394851660408201529284166060840152908316608083015290911660a08201526101400190565b60208082526024908201527f746865207461726765742076657273696f6e206973206e6f7420636f6d70617460408201527f69626c6500000000000000000000000000000000000000000000000000000000606082015260800190565b60208082526019908201527f73656e646572206d757374206265206120636f6e747261637400000000000000604082015260600190565b60005b8381101562003fc157818101518382015260200162003fa7565b8381111562001d3b5750506000910152565b6001600160a01b038116811462001e7357600080fdfe608060405234801561001057600080fd5b50600061001b61006a565b600080546001600160a01b0319166001600160a01b0383169081178255604051929350917f8be0079c531659141344cd1fd0a4f28419497f9722a3daafe3b4186f6b6457e0908290a35061006e565b3390565b6109018061007d6000396000f3fe60806040526004361061007b5760003560e01c80639623609d1161004e5780639623609d1461013657806399a88ec4146101f5578063f2fde38b14610230578063f3b7dead146102635761007b565b8063204e1c7a14610080578063715018a6146100cf5780637eff275e146100e65780638da5cb5b14610121575b600080fd5b34801561008c57600080fd5b506100b3600480360360208110156100a357600080fd5b50356001600160a01b0316610296565b604080516001600160a01b039092168252519081900360200190f35b3480156100db57600080fd5b506100e4610341565b005b3480156100f257600080fd5b506100e46004803603604081101561010957600080fd5b506001600160a01b038135811691602001351661040c565b34801561012d57600080fd5b506100b36104eb565b6100e46004803603606081101561014c57600080fd5b6001600160a01b03823581169260208101359091169181019060608101604082013564010000000081111561018057600080fd5b82018360208201111561019257600080fd5b803590602001918460018302840111640100000000831117156101b457600080fd5b91908080601f0160208091040260200160405190810160405280939291908181526020018383808284376000920191909152509295506104fa945050505050565b34801561020157600080fd5b506100e46004803603604081101561021857600080fd5b506001600160a01b0381358116916020013516610645565b34801561023c57600080fd5b506100e46004803603602081101561025357600080fd5b50356001600160a01b0316610708565b34801561026f57600080fd5b506100b36004803603602081101561028657600080fd5b50356001600160a01b0316610829565b6000806060836001600160a01b031660405180807f5c60da1b000000000000000000000000000000000000000000000000000000008152506004019050600060405180830381855afa9150503d806000811461030e576040519150601f19603f3d011682016040523d82523d6000602084013e610313565b606091505b50915091508161032257600080fd5b80806020019051602081101561033757600080fd5b5051949350505050565b6103496108a1565b6001600160a01b031661035a6104eb565b6001600160a01b0316146103b5576040805162461bcd60e51b815260206004820181905260248201527f4f776e61626c653a2063616c6c6572206973206e6f7420746865206f776e6572604482015290519081900360640190fd5b600080546040516001600160a01b03909116907f8be0079c531659141344cd1fd0a4f28419497f9722a3daafe3b4186f6b6457e0908390a36000805473ffffffffffffffffffffffffffffffffffffffff19169055565b6104146108a1565b6001600160a01b03166104256104eb565b6001600160a01b031614610480576040805162461bcd60e51b815260206004820181905260248201527f4f776e61626c653a2063616c6c6572206973206e6f7420746865206f776e6572604482015290519081900360640190fd5b816001600160a01b0316638f283970826040518263ffffffff1660e01b815260040180826001600160a01b03168152602001915050600060405180830381600087803b1580156104cf57600080fd5b505af11580156104e3573d6000803e3d6000fd5b505050505050565b6000546001600160a01b031690565b6105026108a1565b6001600160a01b03166105136104eb565b6001600160a01b03161461056e576040805162461bcd60e51b815260206004820181905260248201527f4f776e61626c653a2063616c6c6572206973206e6f7420746865206f776e6572604482015290519081900360640190fd5b826001600160a01b0316634f1ef2863484846040518463ffffffff1660e01b815260040180836001600160a01b0316815260200180602001828103825283818151815260200191508051906020019080838360005b838110156105db5781810151838201526020016105c3565b50505050905090810190601f1680156106085780820380516001836020036101000a031916815260200191505b5093505050506000604051808303818588803b15801561062757600080fd5b505af115801561063b573d6000803e3d6000fd5b5050505050505050565b61064d6108a1565b6001600160a01b031661065e6104eb565b6001600160a01b0316146106b9576040805162461bcd60e51b815260206004820181905260248201527f4f776e61626c653a2063616c6c6572206973206e6f7420746865206f776e6572604482015290519081900360640190fd5b816001600160a01b0316633659cfe6826040518263ffffffff1660e01b815260040180826001600160a01b03168152602001915050600060405180830381600087803b1580156104cf57600080fd5b6107106108a1565b6001600160a01b03166107216104eb565b6001600160a01b03161461077c576040805162461bcd60e51b815260206004820181905260248201527f4f776e61626c653a2063616c6c6572206973206e6f7420746865206f776e6572604482015290519081900360640190fd5b6001600160a01b0381166107c15760405162461bcd60e51b81526004018080602001828103825260268152602001806108a66026913960400191505060405180910390fd5b600080546040516001600160a01b03808516939216917f8be0079c531659141344cd1fd0a4f28419497f9722a3daafe3b4186f6b6457e091a36000805473ffffffffffffffffffffffffffffffffffffffff19166001600160a01b0392909216919091179055565b6000806060836001600160a01b031660405180807ff851a440000000000000000000000000000000000000000000000000000000008152506004019050600060405180830381855afa9150503d806000811461030e576040519150601f19603f3d011682016040523d82523d6000602084013e610313565b339056fe4f776e61626c653a206e6577206f776e657220697320746865207a65726f2061646472657373a2646970667358221220291ab7b08f81e1f06bf811a4ba1befef7e8ac100d0fdc029e7a8e75fe65a133564736f6c63430007040033608060405260405162000c8e38038062000c8e833981810160405260608110156200002957600080fd5b815160208301516040808501805191519395929483019291846401000000008211156200005557600080fd5b9083019060208201858111156200006b57600080fd5b82516401000000008111828201881017156200008657600080fd5b82525081516020918201929091019080838360005b83811015620000b55781810151838201526020016200009b565b50505050905090810190601f168015620000e35780820380516001836020036101000a031916815260200191505b5060405250849150829050620000f98262000137565b8051156200011a57620001188282620001ae60201b620003941760201c565b505b50620001239050565b6200012e82620001dd565b505050620003bf565b6200014d816200020160201b620003c01760201c565b6200018a5760405162461bcd60e51b815260040180806020018281038252603681526020018062000c326036913960400191505060405180910390fd5b7f360894a13ba1a3210667c828492db98dca3e2076cc3735a920a3ca505d382bbc55565b6060620001d6838360405180606001604052806027815260200162000c0b6027913962000207565b9392505050565b7fb53127684a568b3173ae13b9f8a6016e243e63b6e8ee1178d6a717850b5d610355565b3b151590565b6060620002148462000201565b620002515760405162461bcd60e51b815260040180806020018281038252602681526020018062000c686026913960400191505060405180910390fd5b60006060856001600160a01b0316856040518082805190602001908083835b60208310620002915780518252601f19909201916020918201910162000270565b6001836020036101000a038019825116818451168082178552505050505050905001915050600060405180830381855af49150503d8060008114620002f3576040519150601f19603f3d011682016040523d82523d6000602084013e620002f8565b606091505b5090925090506200030b82828662000315565b9695505050505050565b6060831562000326575081620001d6565b825115620003375782518084602001fd5b8160405162461bcd60e51b81526004018080602001828103825283818151815260200191508051906020019080838360005b838110156200038357818101518382015260200162000369565b50505050905090810190601f168015620003b15780820380516001836020036101000a031916815260200191505b509250505060405180910390fd5b61083c80620003cf6000396000f3fe60806040526004361061005e5760003560e01c80635c60da1b116100435780635c60da1b146101285780638f28397014610159578063f851a4401461018c5761006d565b80633659cfe6146100755780634f1ef286146100a85761006d565b3661006d5761006b6101a1565b005b61006b6101a1565b34801561008157600080fd5b5061006b6004803603602081101561009857600080fd5b50356001600160a01b03166101bb565b61006b600480360360408110156100be57600080fd5b6001600160a01b0382351691908101906040810160208201356401000000008111156100e957600080fd5b8201836020820111156100fb57600080fd5b8035906020019184600183028401116401000000008311171561011d57600080fd5b5090925090506101f5565b34801561013457600080fd5b5061013d610272565b604080516001600160a01b039092168252519081900360200190f35b34801561016557600080fd5b5061006b6004803603602081101561017c57600080fd5b50356001600160a01b03166102af565b34801561019857600080fd5b5061013d610369565b6101a96103c6565b6101b96101b4610426565b61044b565b565b6101c361046f565b6001600160a01b0316336001600160a01b031614156101ea576101e581610494565b6101f2565b6101f26101a1565b50565b6101fd61046f565b6001600160a01b0316336001600160a01b031614156102655761021f83610494565b61025f8383838080601f01602080910402602001604051908101604052809392919081815260200183838082843760009201919091525061039492505050565b5061026d565b61026d6101a1565b505050565b600061027c61046f565b6001600160a01b0316336001600160a01b031614156102a45761029d610426565b90506102ac565b6102ac6101a1565b90565b6102b761046f565b6001600160a01b0316336001600160a01b031614156101ea576001600160a01b0381166103155760405162461bcd60e51b815260040180806020018281038252603a815260200180610708603a913960400191505060405180910390fd5b7f7e644d79422f17c01e4894b5f4f588d331ebfa28653d42ae832dc59e38c9798f61033e61046f565b604080516001600160a01b03928316815291841660208301528051918290030190a16101e5816104d4565b600061037361046f565b6001600160a01b0316336001600160a01b031614156102a45761029d61046f565b60606103b98383604051806060016040528060278152602001610742602791396104f8565b9392505050565b3b151590565b6103ce61046f565b6001600160a01b0316336001600160a01b0316141561041e5760405162461bcd60e51b81526004018080602001828103825260428152602001806107c56042913960600191505060405180910390fd5b6101b96101b9565b7f360894a13ba1a3210667c828492db98dca3e2076cc3735a920a3ca505d382bbc5490565b3660008037600080366000845af43d6000803e80801561046a573d6000f35b3d6000fd5b7fb53127684a568b3173ae13b9f8a6016e243e63b6e8ee1178d6a717850b5d61035490565b61049d816105fb565b6040516001600160a01b038216907fbc7cd75a20ee27fd9adebab32041f755214dbc6bffa90cc0225b39da2e5c2d3b90600090a250565b7fb53127684a568b3173ae13b9f8a6016e243e63b6e8ee1178d6a717850b5d610355565b6060610503846103c0565b61053e5760405162461bcd60e51b815260040180806020018281038252602681526020018061079f6026913960400191505060405180910390fd5b60006060856001600160a01b0316856040518082805190602001908083835b6020831061057c5780518252601f19909201916020918201910161055d565b6001836020036101000a038019825116818451168082178552505050505050905001915050600060405180830381855af49150503d80600081146105dc576040519150601f19603f3d011682016040523d82523d6000602084013e6105e1565b606091505b50915091506105f1828286610663565b9695505050505050565b610604816103c0565b61063f5760405162461bcd60e51b81526004018080602001828103825260368152602001806107696036913960400191505060405180910390fd5b7f360894a13ba1a3210667c828492db98dca3e2076cc3735a920a3ca505d382bbc55565b606083156106725750816103b9565b8251156106825782518084602001fd5b8160405162461bcd60e51b81526004018080602001828103825283818151815260200191508051906020019080838360005b838110156106cc5781810151838201526020016106b4565b50505050905090810190601f1680156106f95780820380516001836020036101000a031916815260200191505b509250505060405180910390fdfe5472616e73706172656e745570677261646561626c6550726f78793a206e65772061646d696e20697320746865207a65726f2061646472657373416464726573733a206c6f772d6c6576656c2064656c65676174652063616c6c206661696c65645570677261646561626c6550726f78793a206e657720696d706c656d656e746174696f6e206973206e6f74206120636f6e7472616374416464726573733a2064656c65676174652063616c6c20746f206e6f6e2d636f6e74726163745472616e73706172656e745570677261646561626c6550726f78793a2061646d696e2063616e6e6f742066616c6c6261636b20746f2070726f787920746172676574a26469706673582212208abef82df4ccbbe5116d43e18645757954680a0f3e3b17a5ca661b652c75599664736f6c63430007040033416464726573733a206c6f772d6c6576656c2064656c65676174652063616c6c206661696c65645570677261646561626c6550726f78793a206e657720696d706c656d656e746174696f6e206973206e6f74206120636f6e7472616374416464726573733a2064656c65676174652063616c6c20746f206e6f6e2d636f6e7472616374456e756d657261626c655365743a20696e646578206f7574206f6620626f756e64736e6577207661756c7420697320616c72656164792063757272656e74207661756c744f776e61626c653a206e6577206f776e657220697320746865207a65726f2061646472657373496e697469616c697a61626c653a20636f6e747261637420697320616c726561647920696e697469616c697a65646b656570657220697320616c726561647920696e207468652077686974656c697374a2646970667358221220dbf6cc9fac40ec9fc7c08566e321c4ecb573958628aefa9cb415f09860e62eb564736f6c63430007040033",
  "linkReferences": {},
  "deployedLinkReferences": {}
}