{
  "_format": "hh-sol-artifact-1",
  "contractName": "TestLiquidityPoolUpgraded",
  "sourceName": "contracts/test/TestLiquidityPoolUpgraded.sol",
  "abi": [
    {
      "anonymous": false,
      "inputs": [
        {
          "indexed": false,
          "internalType": "uint256",
          "name": "perpetualIndex",
          "type": "uint256"
        },
        {
          "indexed": true,
          "internalType": "address",
          "name": "keeper",
          "type": "address"
        }
      ],
      "name": "AddAMMKeeper",
      "type": "event"
    },
    {
      "anonymous": false,
      "inputs": [
        {
          "indexed": true,
          "internalType": "address",
          "name": "trader",
          "type": "address"
        },
        {
          "indexed": false,
          "internalType": "int256",
          "name": "addedCash",
          "type": "int256"
        },
        {
          "indexed": false,
          "internalType": "int256",
          "name": "mintedShare",
          "type": "int256"
        },
        {
          "indexed": false,
          "internalType": "int256",
          "name": "addedPoolMargin",
          "type": "int256"
        }
      ],
      "name": "AddLiquidity",
      "type": "event"
    },
    {
      "anonymous": false,
      "inputs": [
        {
          "indexed": false,
          "internalType": "uint256",
          "name": "perpetualIndex",
          "type": "uint256"
        },
        {
          "indexed": true,
          "internalType": "address",
          "name": "keeper",
          "type": "address"
        }
      ],
      "name": "AddTraderKeeper",
      "type": "event"
    },
    {
      "anonymous": false,
      "inputs": [
        {
          "indexed": true,
          "internalType": "address",
          "name": "newOperator",
          "type": "address"
        }
      ],
      "name": "ClaimOperator",
      "type": "event"
    },
    {
      "anonymous": false,
      "inputs": [
        {
          "indexed": false,
          "internalType": "uint256",
          "name": "perpetualIndex",
          "type": "uint256"
        },
        {
          "indexed": true,
          "internalType": "address",
          "name": "trader",
          "type": "address"
        }
      ],
      "name": "Clear",
      "type": "event"
    },
    {
      "anonymous": false,
      "inputs": [
        {
          "indexed": false,
          "internalType": "uint256",
          "name": "perpetualIndex",
          "type": "uint256"
        },
        {
          "indexed": false,
          "internalType": "address",
          "name": "governor",
          "type": "address"
        },
        {
          "indexed": false,
          "internalType": "address",
          "name": "shareToken",
          "type": "address"
        },
        {
          "indexed": false,
          "internalType": "address",
          "name": "operator",
          "type": "address"
        },
        {
          "indexed": false,
          "internalType": "address",
          "name": "oracle",
          "type": "address"
        },
        {
          "indexed": false,
          "internalType": "address",
          "name": "collateral",
          "type": "address"
        },
        {
          "indexed": false,
          "internalType": "int256[9]",
          "name": "baseParams",
          "type": "int256[9]"
        },
        {
          "indexed": false,
          "internalType": "int256[8]",
          "name": "riskParams",
          "type": "int256[8]"
        }
      ],
      "name": "CreatePerpetual",
      "type": "event"
    },
    {
      "anonymous": false,
      "inputs": [
        {
          "indexed": false,
          "internalType": "uint256",
          "name": "perpetualIndex",
          "type": "uint256"
        },
        {
          "indexed": true,
          "internalType": "address",
          "name": "trader",
          "type": "address"
        },
        {
          "indexed": false,
          "internalType": "int256",
          "name": "amount",
          "type": "int256"
        }
      ],
      "name": "Deposit",
      "type": "event"
    },
    {
      "anonymous": false,
      "inputs": [
        {
          "indexed": false,
          "internalType": "int256",
          "name": "amount",
          "type": "int256"
        }
      ],
      "name": "DonateInsuranceFund",
      "type": "event"
    },
    {
      "anonymous": false,
      "inputs": [
        {
          "indexed": false,
          "internalType": "uint256",
          "name": "perpetualIndex",
          "type": "uint256"
        },
        {
          "indexed": true,
          "internalType": "address",
          "name": "liquidator",
          "type": "address"
        },
        {
          "indexed": true,
          "internalType": "address",
          "name": "trader",
          "type": "address"
        },
        {
          "indexed": false,
          "internalType": "int256",
          "name": "amount",
          "type": "int256"
        },
        {
          "indexed": false,
          "internalType": "int256",
          "name": "price",
          "type": "int256"
        },
        {
          "indexed": false,
          "internalType": "int256",
          "name": "penalty",
          "type": "int256"
        },
        {
          "indexed": false,
          "internalType": "int256",
          "name": "penaltyToLP",
          "type": "int256"
        }
      ],
      "name": "Liquidate",
      "type": "event"
    },
    {
      "anonymous": false,
      "inputs": [
        {
          "indexed": true,
          "internalType": "address",
          "name": "operator",
          "type": "address"
        }
      ],
      "name": "OperatorCheckIn",
      "type": "event"
    },
    {
      "anonymous": false,
      "inputs": [
        {
          "indexed": false,
          "internalType": "uint256",
          "name": "perpetualIndex",
          "type": "uint256"
        },
        {
          "indexed": true,
          "internalType": "address",
          "name": "keeper",
          "type": "address"
        }
      ],
      "name": "RemoveAMMKeeper",
      "type": "event"
    },
    {
      "anonymous": false,
      "inputs": [
        {
          "indexed": true,
          "internalType": "address",
          "name": "trader",
          "type": "address"
        },
        {
          "indexed": false,
          "internalType": "int256",
          "name": "returnedCash",
          "type": "int256"
        },
        {
          "indexed": false,
          "internalType": "int256",
          "name": "burnedShare",
          "type": "int256"
        },
        {
          "indexed": false,
          "internalType": "int256",
          "name": "removedPoolMargin",
          "type": "int256"
        }
      ],
      "name": "RemoveLiquidity",
      "type": "event"
    },
    {
      "anonymous": false,
      "inputs": [
        {
          "indexed": false,
          "internalType": "uint256",
          "name": "perpetualIndex",
          "type": "uint256"
        },
        {
          "indexed": true,
          "internalType": "address",
          "name": "keeper",
          "type": "address"
        }
      ],
      "name": "RemoveTraderKeeper",
      "type": "event"
    },
    {
      "anonymous": false,
      "inputs": [],
      "name": "RevokeOperator",
      "type": "event"
    },
    {
      "anonymous": false,
      "inputs": [],
      "name": "RunLiquidityPool",
      "type": "event"
    },
    {
      "anonymous": false,
      "inputs": [
        {
          "indexed": false,
          "internalType": "uint256",
          "name": "perpetualIndex",
          "type": "uint256"
        }
      ],
      "name": "SetClearedState",
      "type": "event"
    },
    {
      "anonymous": false,
      "inputs": [
        {
          "indexed": false,
          "internalType": "uint256",
          "name": "perpetualIndex",
          "type": "uint256"
        },
        {
          "indexed": false,
          "internalType": "int256",
          "name": "settlementPrice",
          "type": "int256"
        },
        {
          "indexed": false,
          "internalType": "uint256",
          "name": "settlementTime",
          "type": "uint256"
        }
      ],
      "name": "SetEmergencyState",
      "type": "event"
    },
    {
      "anonymous": false,
      "inputs": [
        {
          "indexed": false,
          "internalType": "int256[4]",
          "name": "value",
          "type": "int256[4]"
        }
      ],
      "name": "SetLiquidityPoolParameter",
      "type": "event"
    },
    {
      "anonymous": false,
      "inputs": [
        {
          "indexed": false,
          "internalType": "uint256",
          "name": "perpetualIndex",
          "type": "uint256"
        }
      ],
      "name": "SetNormalState",
      "type": "event"
    },
    {
      "anonymous": false,
      "inputs": [
        {
          "indexed": false,
          "internalType": "uint256",
          "name": "perpetualIndex",
          "type": "uint256"
        },
        {
          "indexed": true,
          "internalType": "address",
          "name": "oldOracle",
          "type": "address"
        },
        {
          "indexed": true,
          "internalType": "address",
          "name": "newOracle",
          "type": "address"
        }
      ],
      "name": "SetOracle",
      "type": "event"
    },
    {
      "anonymous": false,
      "inputs": [
        {
          "indexed": false,
          "internalType": "uint256",
          "name": "perpetualIndex",
          "type": "uint256"
        },
        {
          "indexed": false,
          "internalType": "int256[9]",
          "name": "baseParams",
          "type": "int256[9]"
        }
      ],
      "name": "SetPerpetualBaseParameter",
      "type": "event"
    },
    {
      "anonymous": false,
      "inputs": [
        {
          "indexed": false,
          "internalType": "uint256",
          "name": "perpetualIndex",
          "type": "uint256"
        },
        {
          "indexed": false,
          "internalType": "int256[8]",
          "name": "riskParams",
          "type": "int256[8]"
        },
        {
          "indexed": false,
          "internalType": "int256[8]",
          "name": "minRiskParamValues",
          "type": "int256[8]"
        },
        {
          "indexed": false,
          "internalType": "int256[8]",
          "name": "maxRiskParamValues",
          "type": "int256[8]"
        }
      ],
      "name": "SetPerpetualRiskParameter",
      "type": "event"
    },
    {
      "anonymous": false,
      "inputs": [
        {
          "indexed": false,
          "internalType": "uint256",
          "name": "perpetualIndex",
          "type": "uint256"
        },
        {
          "indexed": true,
          "internalType": "address",
          "name": "trader",
          "type": "address"
        },
        {
          "indexed": false,
          "internalType": "int256",
          "name": "targetLeverage",
          "type": "int256"
        }
      ],
      "name": "SetTargetLeverage",
      "type": "event"
    },
    {
      "anonymous": false,
      "inputs": [
        {
          "indexed": false,
          "internalType": "uint256",
          "name": "perpetualIndex",
          "type": "uint256"
        },
        {
          "indexed": true,
          "internalType": "address",
          "name": "trader",
          "type": "address"
        },
        {
          "indexed": false,
          "internalType": "int256",
          "name": "amount",
          "type": "int256"
        }
      ],
      "name": "Settle",
      "type": "event"
    },
    {
      "anonymous": false,
      "inputs": [
        {
          "indexed": false,
          "internalType": "uint256",
          "name": "perpetualIndex",
          "type": "uint256"
        },
        {
          "indexed": true,
          "internalType": "address",
          "name": "trader",
          "type": "address"
        },
        {
          "indexed": false,
          "internalType": "int256",
          "name": "position",
          "type": "int256"
        },
        {
          "indexed": false,
          "internalType": "int256",
          "name": "price",
          "type": "int256"
        },
        {
          "indexed": false,
          "internalType": "int256",
          "name": "fee",
          "type": "int256"
        },
        {
          "indexed": false,
          "internalType": "int256",
          "name": "lpFee",
          "type": "int256"
        }
      ],
      "name": "Trade",
      "type": "event"
    },
    {
      "anonymous": false,
      "inputs": [
        {
          "indexed": false,
          "internalType": "int256",
          "name": "amount",
          "type": "int256"
        }
      ],
      "name": "TransferExcessInsuranceFundToLP",
      "type": "event"
    },
    {
      "anonymous": false,
      "inputs": [
        {
          "indexed": true,
          "internalType": "address",
          "name": "operator",
          "type": "address"
        },
        {
          "indexed": false,
          "internalType": "int256",
          "name": "operatorFee",
          "type": "int256"
        }
      ],
      "name": "TransferFeeToOperator",
      "type": "event"
    },
    {
      "anonymous": false,
      "inputs": [
        {
          "indexed": false,
          "internalType": "uint256",
          "name": "perpetualIndex",
          "type": "uint256"
        },
        {
          "indexed": true,
          "internalType": "address",
          "name": "trader",
          "type": "address"
        },
        {
          "indexed": true,
          "internalType": "address",
          "name": "referrer",
          "type": "address"
        },
        {
          "indexed": false,
          "internalType": "int256",
          "name": "referralRebate",
          "type": "int256"
        }
      ],
      "name": "TransferFeeToReferrer",
      "type": "event"
    },
    {
      "anonymous": false,
      "inputs": [
        {
          "indexed": true,
          "internalType": "address",
          "name": "newOperator",
          "type": "address"
        }
      ],
      "name": "TransferOperatorTo",
      "type": "event"
    },
    {
      "anonymous": false,
      "inputs": [
        {
          "indexed": false,
          "internalType": "uint256",
          "name": "perpetualIndex",
          "type": "uint256"
        },
        {
          "indexed": false,
          "internalType": "int256",
          "name": "fundingRate",
          "type": "int256"
        }
      ],
      "name": "UpdateFundingRate",
      "type": "event"
    },
    {
      "anonymous": false,
      "inputs": [
        {
          "indexed": false,
          "internalType": "uint256",
          "name": "perpetualIndex",
          "type": "uint256"
        },
        {
          "indexed": false,
          "internalType": "int256[8]",
          "name": "riskParams",
          "type": "int256[8]"
        }
      ],
      "name": "UpdatePerpetualRiskParameter",
      "type": "event"
    },
    {
      "anonymous": false,
      "inputs": [
        {
          "indexed": false,
          "internalType": "int256",
          "name": "poolMargin",
          "type": "int256"
        }
      ],
      "name": "UpdatePoolMargin",
      "type": "event"
    },
    {
      "anonymous": false,
      "inputs": [
        {
          "indexed": false,
          "internalType": "uint256",
          "name": "perpetualIndex",
          "type": "uint256"
        },
        {
          "indexed": true,
          "internalType": "address",
          "name": "oracle",
          "type": "address"
        },
        {
          "indexed": false,
          "internalType": "int256",
          "name": "markPrice",
          "type": "int256"
        },
        {
          "indexed": false,
          "internalType": "uint256",
          "name": "markPriceUpdateTime",
          "type": "uint256"
        },
        {
          "indexed": false,
          "internalType": "int256",
          "name": "indexPrice",
          "type": "int256"
        },
        {
          "indexed": false,
          "internalType": "uint256",
          "name": "indexPriceUpdateTime",
          "type": "uint256"
        }
      ],
      "name": "UpdatePrice",
      "type": "event"
    },
    {
      "anonymous": false,
      "inputs": [
        {
          "indexed": false,
          "internalType": "uint256",
          "name": "perpetualIndex",
          "type": "uint256"
        },
        {
          "indexed": false,
          "internalType": "int256",
          "name": "unitAccumulativeFunding",
          "type": "int256"
        }
      ],
      "name": "UpdateUnitAccumulativeFunding",
      "type": "event"
    },
    {
      "anonymous": false,
      "inputs": [
        {
          "indexed": false,
          "internalType": "uint256",
          "name": "perpetualIndex",
          "type": "uint256"
        },
        {
          "indexed": true,
          "internalType": "address",
          "name": "trader",
          "type": "address"
        },
        {
          "indexed": false,
          "internalType": "int256",
          "name": "amount",
          "type": "int256"
        }
      ],
      "name": "Withdraw",
      "type": "event"
    },
    {
      "inputs": [
        {
          "internalType": "uint256",
          "name": "perpetualIndex",
          "type": "uint256"
        },
        {
          "internalType": "address",
          "name": "keeper",
          "type": "address"
        }
      ],
      "name": "addAMMKeeper",
      "outputs": [],
      "stateMutability": "nonpayable",
      "type": "function"
    },
    {
      "inputs": [
        {
          "internalType": "int256",
          "name": "cashToAdd",
          "type": "int256"
        }
      ],
      "name": "addLiquidity",
      "outputs": [],
      "stateMutability": "nonpayable",
      "type": "function"
    },
    {
      "inputs": [
        {
          "internalType": "bytes",
          "name": "orderData",
          "type": "bytes"
        },
        {
          "internalType": "int256",
          "name": "amount",
          "type": "int256"
        }
      ],
      "name": "brokerTrade",
      "outputs": [
        {
          "internalType": "int256",
          "name": "tradeAmount",
          "type": "int256"
        }
      ],
      "stateMutability": "nonpayable",
      "type": "function"
    },
    {
      "inputs": [],
      "name": "checkIn",
      "outputs": [],
      "stateMutability": "nonpayable",
      "type": "function"
    },
    {
      "inputs": [],
      "name": "claimOperator",
      "outputs": [],
      "stateMutability": "nonpayable",
      "type": "function"
    },
    {
      "inputs": [
        {
          "internalType": "uint256",
          "name": "perpetualIndex",
          "type": "uint256"
        }
      ],
      "name": "clear",
      "outputs": [],
      "stateMutability": "nonpayable",
      "type": "function"
    },
    {
      "inputs": [
        {
          "internalType": "address",
          "name": "oracle",
          "type": "address"
        },
        {
          "internalType": "int256[9]",
          "name": "baseParams",
          "type": "int256[9]"
        },
        {
          "internalType": "int256[8]",
          "name": "riskParams",
          "type": "int256[8]"
        },
        {
          "internalType": "int256[8]",
          "name": "minRiskParamValues",
          "type": "int256[8]"
        },
        {
          "internalType": "int256[8]",
          "name": "maxRiskParamValues",
          "type": "int256[8]"
        }
      ],
      "name": "createPerpetual",
      "outputs": [],
      "stateMutability": "nonpayable",
      "type": "function"
    },
    {
      "inputs": [
        {
          "internalType": "uint256",
          "name": "perpetualIndex",
          "type": "uint256"
        },
        {
          "internalType": "address",
          "name": "trader",
          "type": "address"
        },
        {
          "internalType": "int256",
          "name": "amount",
          "type": "int256"
        }
      ],
      "name": "deposit",
      "outputs": [],
      "stateMutability": "nonpayable",
      "type": "function"
    },
    {
      "inputs": [
        {
          "internalType": "int256",
          "name": "amount",
          "type": "int256"
        }
      ],
      "name": "donateInsuranceFund",
      "outputs": [],
      "stateMutability": "nonpayable",
      "type": "function"
    },
    {
      "inputs": [
        {
          "internalType": "int256",
          "name": "cashToAdd",
          "type": "int256"
        }
      ],
      "name": "donateLiquidity",
      "outputs": [],
      "stateMutability": "nonpayable",
      "type": "function"
    },
    {
      "inputs": [
        {
          "internalType": "uint256",
          "name": "perpetualIndex",
          "type": "uint256"
        },
        {
          "internalType": "int256",
          "name": "settlementPrice",
          "type": "int256"
        }
      ],
      "name": "forceToSetEmergencyState",
      "outputs": [],
      "stateMutability": "nonpayable",
      "type": "function"
    },
    {
      "inputs": [],
      "name": "forceToSyncState",
      "outputs": [],
      "stateMutability": "nonpayable",
      "type": "function"
    },
    {
      "inputs": [
        {
          "internalType": "uint256",
          "name": "perpetualIndex",
          "type": "uint256"
        }
      ],
      "name": "getActiveAccountCount",
      "outputs": [
        {
          "internalType": "uint256",
          "name": "activeAccountCount",
          "type": "uint256"
        }
      ],
      "stateMutability": "view",
      "type": "function"
    },
    {
      "inputs": [
        {
          "internalType": "uint256",
          "name": "perpetualIndex",
          "type": "uint256"
        }
      ],
      "name": "getClearProgress",
      "outputs": [
        {
          "internalType": "uint256",
          "name": "left",
          "type": "uint256"
        },
        {
          "internalType": "uint256",
          "name": "total",
          "type": "uint256"
        }
      ],
      "stateMutability": "view",
      "type": "function"
    },
    {
      "inputs": [],
      "name": "getLiquidityPoolInfo",
      "outputs": [
        {
          "internalType": "bool",
          "name": "isRunning",
          "type": "bool"
        },
        {
          "internalType": "bool",
          "name": "isFastCreationEnabled",
          "type": "bool"
        },
        {
          "internalType": "address[7]",
          "name": "addresses",
          "type": "address[7]"
        },
        {
          "internalType": "int256[5]",
          "name": "intNums",
          "type": "int256[5]"
        },
        {
          "internalType": "uint256[6]",
          "name": "uintNums",
          "type": "uint256[6]"
        }
      ],
      "stateMutability": "view",
      "type": "function"
    },
    {
      "inputs": [
        {
          "internalType": "uint256",
          "name": "perpetualIndex",
          "type": "uint256"
        },
        {
          "internalType": "address",
          "name": "trader",
          "type": "address"
        }
      ],
      "name": "getMarginAccount",
      "outputs": [
        {
          "internalType": "int256",
          "name": "cash",
          "type": "int256"
        },
        {
          "internalType": "int256",
          "name": "position",
          "type": "int256"
        },
        {
          "internalType": "int256",
          "name": "availableMargin",
          "type": "int256"
        },
        {
          "internalType": "int256",
          "name": "margin",
          "type": "int256"
        },
        {
          "internalType": "int256",
          "name": "settleableMargin",
          "type": "int256"
        },
        {
          "internalType": "bool",
          "name": "isInitialMarginSafe",
          "type": "bool"
        },
        {
          "internalType": "bool",
          "name": "isMaintenanceMarginSafe",
          "type": "bool"
        },
        {
          "internalType": "bool",
          "name": "isMarginSafe",
          "type": "bool"
        },
        {
          "internalType": "int256",
          "name": "targetLeverage",
          "type": "int256"
        }
      ],
      "stateMutability": "view",
      "type": "function"
    },
    {
      "inputs": [
        {
          "internalType": "uint256",
          "name": "perpetualIndex",
          "type": "uint256"
        }
      ],
      "name": "getPerpetualInfo",
      "outputs": [
        {
          "internalType": "enum PerpetualState",
          "name": "state",
          "type": "uint8"
        },
        {
          "internalType": "address",
          "name": "oracle",
          "type": "address"
        },
        {
          "internalType": "int256[39]",
          "name": "nums",
          "type": "int256[39]"
        }
      ],
      "stateMutability": "view",
      "type": "function"
    },
    {
      "inputs": [],
      "name": "getPoolMargin",
      "outputs": [
        {
          "internalType": "int256",
          "name": "poolMargin",
          "type": "int256"
        },
        {
          "internalType": "bool",
          "name": "isAMMSafe",
          "type": "bool"
        }
      ],
      "stateMutability": "view",
      "type": "function"
    },
    {
      "inputs": [
        {
          "internalType": "address",
          "name": "operator",
          "type": "address"
        },
        {
          "internalType": "address",
          "name": "collateral",
          "type": "address"
        },
        {
          "internalType": "uint256",
          "name": "collateralDecimals",
          "type": "uint256"
        },
        {
          "internalType": "address",
          "name": "governor",
          "type": "address"
        },
        {
          "internalType": "bytes",
          "name": "initData",
          "type": "bytes"
        }
      ],
      "name": "initialize",
      "outputs": [],
      "stateMutability": "nonpayable",
      "type": "function"
    },
    {
      "inputs": [
        {
          "internalType": "uint256",
          "name": "perpetualIndex",
          "type": "uint256"
        },
        {
          "internalType": "address",
          "name": "trader",
          "type": "address"
        }
      ],
      "name": "liquidateByAMM",
      "outputs": [
        {
          "internalType": "int256",
          "name": "liquidationAmount",
          "type": "int256"
        }
      ],
      "stateMutability": "nonpayable",
      "type": "function"
    },
    {
      "inputs": [
        {
          "internalType": "uint256",
          "name": "perpetualIndex",
          "type": "uint256"
        },
        {
          "internalType": "address",
          "name": "liquidator",
          "type": "address"
        },
        {
          "internalType": "address",
          "name": "trader",
          "type": "address"
        },
        {
          "internalType": "int256",
          "name": "amount",
          "type": "int256"
        },
        {
          "internalType": "int256",
          "name": "limitPrice",
          "type": "int256"
        },
        {
          "internalType": "uint256",
          "name": "deadline",
          "type": "uint256"
        }
      ],
      "name": "liquidateByTrader",
      "outputs": [
        {
          "internalType": "int256",
          "name": "liquidationAmount",
          "type": "int256"
        }
      ],
      "stateMutability": "nonpayable",
      "type": "function"
    },
    {
      "inputs": [
        {
          "internalType": "uint256",
          "name": "perpetualIndex",
          "type": "uint256"
        },
        {
          "internalType": "uint256",
          "name": "begin",
          "type": "uint256"
        },
        {
          "internalType": "uint256",
          "name": "end",
          "type": "uint256"
        }
      ],
      "name": "listActiveAccounts",
      "outputs": [
        {
          "internalType": "address[]",
          "name": "result",
          "type": "address[]"
        }
      ],
      "stateMutability": "view",
      "type": "function"
    },
    {
      "inputs": [
        {
          "internalType": "uint256",
          "name": "perpetualIndex",
          "type": "uint256"
        },
        {
          "internalType": "uint256",
          "name": "begin",
          "type": "uint256"
        },
        {
          "internalType": "uint256",
          "name": "end",
          "type": "uint256"
        }
      ],
      "name": "listByAMMKeepers",
      "outputs": [
        {
          "internalType": "address[]",
          "name": "result",
          "type": "address[]"
        }
      ],
      "stateMutability": "view",
      "type": "function"
    },
    {
      "inputs": [
        {
          "internalType": "int256",
          "name": "cashToAdd",
          "type": "int256"
        },
        {
          "internalType": "int256",
          "name": "shareToMint",
          "type": "int256"
        }
      ],
      "name": "queryAddLiquidity",
      "outputs": [
        {
          "internalType": "int256",
          "name": "cashToAddResult",
          "type": "int256"
        },
        {
          "internalType": "int256",
          "name": "shareToMintResult",
          "type": "int256"
        }
      ],
      "stateMutability": "view",
      "type": "function"
    },
    {
      "inputs": [
        {
          "internalType": "int256",
          "name": "shareToRemove",
          "type": "int256"
        },
        {
          "internalType": "int256",
          "name": "cashToReturn",
          "type": "int256"
        }
      ],
      "name": "queryRemoveLiquidity",
      "outputs": [
        {
          "internalType": "int256",
          "name": "shareToRemoveResult",
          "type": "int256"
        },
        {
          "internalType": "int256",
          "name": "cashToReturnResult",
          "type": "int256"
        }
      ],
      "stateMutability": "view",
      "type": "function"
    },
    {
      "inputs": [
        {
          "internalType": "uint256",
          "name": "perpetualIndex",
          "type": "uint256"
        },
        {
          "internalType": "address",
          "name": "trader",
          "type": "address"
        },
        {
          "internalType": "int256",
          "name": "amount",
          "type": "int256"
        },
        {
          "internalType": "address",
          "name": "referrer",
          "type": "address"
        },
        {
          "internalType": "uint32",
          "name": "flags",
          "type": "uint32"
        }
      ],
      "name": "queryTrade",
      "outputs": [
        {
          "internalType": "int256",
          "name": "tradePrice",
          "type": "int256"
        },
        {
          "internalType": "int256",
          "name": "totalFee",
          "type": "int256"
        },
        {
          "internalType": "int256",
          "name": "cost",
          "type": "int256"
        }
      ],
      "stateMutability": "nonpayable",
      "type": "function"
    },
    {
      "inputs": [
        {
          "internalType": "uint256",
          "name": "perpetualIndex",
          "type": "uint256"
        },
        {
          "internalType": "address",
          "name": "keeper",
          "type": "address"
        }
      ],
      "name": "removeAMMKeeper",
      "outputs": [],
      "stateMutability": "nonpayable",
      "type": "function"
    },
    {
      "inputs": [
        {
          "internalType": "int256",
          "name": "shareToRemove",
          "type": "int256"
        },
        {
          "internalType": "int256",
          "name": "cashToReturn",
          "type": "int256"
        }
      ],
      "name": "removeLiquidity",
      "outputs": [],
      "stateMutability": "nonpayable",
      "type": "function"
    },
    {
      "inputs": [],
      "name": "revokeOperator",
      "outputs": [],
      "stateMutability": "nonpayable",
      "type": "function"
    },
    {
      "inputs": [],
      "name": "runLiquidityPool",
      "outputs": [],
      "stateMutability": "nonpayable",
      "type": "function"
    },
    {
      "inputs": [
        {
          "internalType": "uint256",
          "name": "perpetualIndex",
          "type": "uint256"
        }
      ],
      "name": "setEmergencyState",
      "outputs": [],
      "stateMutability": "nonpayable",
      "type": "function"
    },
    {
      "inputs": [
        {
          "internalType": "int256[4]",
          "name": "params",
          "type": "int256[4]"
        }
      ],
      "name": "setLiquidityPoolParameter",
      "outputs": [],
      "stateMutability": "nonpayable",
      "type": "function"
    },
    {
      "inputs": [
        {
          "internalType": "uint256",
          "name": "perpetualIndex",
          "type": "uint256"
        },
        {
          "internalType": "address",
          "name": "oracle",
          "type": "address"
        }
      ],
      "name": "setOracle",
      "outputs": [],
      "stateMutability": "nonpayable",
      "type": "function"
    },
    {
      "inputs": [
        {
          "internalType": "uint256",
          "name": "perpetualIndex",
          "type": "uint256"
        },
        {
          "internalType": "int256[9]",
          "name": "baseParams",
          "type": "int256[9]"
        }
      ],
      "name": "setPerpetualBaseParameter",
      "outputs": [],
      "stateMutability": "nonpayable",
      "type": "function"
    },
    {
      "inputs": [
        {
          "internalType": "uint256",
          "name": "perpetualIndex",
          "type": "uint256"
        },
        {
          "internalType": "int256[8]",
          "name": "riskParams",
          "type": "int256[8]"
        },
        {
          "internalType": "int256[8]",
          "name": "minRiskParamValues",
          "type": "int256[8]"
        },
        {
          "internalType": "int256[8]",
          "name": "maxRiskParamValues",
          "type": "int256[8]"
        }
      ],
      "name": "setPerpetualRiskParameter",
      "outputs": [],
      "stateMutability": "nonpayable",
      "type": "function"
    },
    {
      "inputs": [
        {
          "internalType": "uint256",
          "name": "perpetualIndex",
          "type": "uint256"
        },
        {
          "internalType": "address",
          "name": "trader",
          "type": "address"
        },
        {
          "internalType": "int256",
          "name": "targetLeverage",
          "type": "int256"
        }
      ],
      "name": "setTargetLeverage",
      "outputs": [],
      "stateMutability": "nonpayable",
      "type": "function"
    },
    {
      "inputs": [
        {
          "internalType": "uint256",
          "name": "perpetualIndex",
          "type": "uint256"
        },
        {
          "internalType": "address",
          "name": "trader",
          "type": "address"
        }
      ],
      "name": "settle",
      "outputs": [],
      "stateMutability": "nonpayable",
      "type": "function"
    },
    {
      "inputs": [],
      "name": "testValue",
      "outputs": [
        {
          "internalType": "uint256",
          "name": "",
          "type": "uint256"
        }
      ],
      "stateMutability": "view",
      "type": "function"
    },
    {
      "inputs": [
        {
          "internalType": "uint256",
          "name": "perpetualIndex",
          "type": "uint256"
        },
        {
          "internalType": "address",
          "name": "trader",
          "type": "address"
        },
        {
          "internalType": "int256",
          "name": "amount",
          "type": "int256"
        },
        {
          "internalType": "int256",
          "name": "limitPrice",
          "type": "int256"
        },
        {
          "internalType": "uint256",
          "name": "deadline",
          "type": "uint256"
        },
        {
          "internalType": "address",
          "name": "referrer",
          "type": "address"
        },
        {
          "internalType": "uint32",
          "name": "flags",
          "type": "uint32"
        }
      ],
      "name": "trade",
      "outputs": [
        {
          "internalType": "int256",
          "name": "tradeAmount",
          "type": "int256"
        }
      ],
      "stateMutability": "nonpayable",
      "type": "function"
    },
    {
      "inputs": [
        {
          "internalType": "address",
          "name": "newOperator",
          "type": "address"
        }
      ],
      "name": "transferOperator",
      "outputs": [],
      "stateMutability": "nonpayable",
      "type": "function"
    },
    {
      "inputs": [
        {
          "internalType": "uint256",
          "name": "perpetualIndex",
          "type": "uint256"
        },
        {
          "internalType": "int256[8]",
          "name": "riskParams",
          "type": "int256[8]"
        }
      ],
      "name": "updatePerpetualRiskParameter",
      "outputs": [],
      "stateMutability": "nonpayable",
      "type": "function"
    },
    {
      "inputs": [
        {
          "internalType": "uint256",
          "name": "n",
          "type": "uint256"
        }
      ],
      "name": "upgradePatch",
      "outputs": [],
      "stateMutability": "nonpayable",
      "type": "function"
    },
    {
      "inputs": [
        {
          "internalType": "uint256",
          "name": "perpetualIndex",
          "type": "uint256"
        },
        {
          "internalType": "address",
          "name": "trader",
          "type": "address"
        },
        {
          "internalType": "int256",
          "name": "amount",
          "type": "int256"
        }
      ],
      "name": "withdraw",
      "outputs": [],
      "stateMutability": "nonpayable",
      "type": "function"
    },
    {
      "stateMutability": "payable",
      "type": "receive"
    }
  ],
  "bytecode": "0x608060405234801561001057600080fd5b506173b580620000216000396000f3fe6080604052600436106102de5760003560e01c80637074020e116101845780639db316b8116100d6578063c0fe1af81161008a578063d73b5e4211610064578063d73b5e4214610833578063dbabbf7714610853578063f95d49361461087657610304565b8063c0fe1af8146107de578063d4e28a12146107fe578063d54e65fb1461081e57610304565b8063b0804456116100bb578063b080445614610794578063b674759c146107a9578063bd5b0a09146107be57610304565b80639db316b8146107545780639f8fec301461077457610304565b806385dcd60a116101385780638ceef981116101125780638ceef981146106f457806390bbd3e414610714578063962d19381461073457610304565b806385dcd60a1461069057806389664990146106bf5780638af5de72146106df57610304565b8063709240c411610169578063709240c41461061b57806378f140ea1461063b5780637d3ba80f1461065b57610304565b80637074020e146105e65780637086fd321461060657610304565b806329605e771161023d578063580818e3116101f1578063675a0aa5116101cb578063675a0aa5146105865780636ef05a40146105a65780636fca8b99146105c657610304565b8063580818e3146105265780635b195a82146105465780635cfb7f8f1461056657610304565b8063385975301161022257806338597530146104c657806349a60713146104e65780634fababb31461050657610304565b806329605e77146104865780632d47ba57146104a657610304565b806313f07f451161029457806317c675691161027957806317c6756914610431578063183ff085146104515780631bc5aa201461046657610304565b806313f07f45146103d657806316b3dd0e1461040357610304565b80630cdc105a116102c55780630cdc105a146103635780630f28c8b11461038957806310ec4beb146103b657610304565b8062092cce146103095780629f22ae1461034157610304565b366103045760405162461bcd60e51b81526004016102fb90616d80565b60405180910390fd5b600080fd5b34801561031557600080fd5b5061032961032436600461652a565b610896565b60405161033893929190616a39565b60405180910390f35b34801561034d57600080fd5b5061036161035c36600461657b565b610adf565b005b34801561036f57600080fd5b50610378610c4f565b6040516103389594939291906169bd565b34801561039557600080fd5b506103a96103a436600461652a565b610f2c565b6040516103389190616a8c565b3480156103c257600080fd5b506103616103d136600461652a565b610f9f565b3480156103e257600080fd5b506103f66103f136600461677e565b611099565b6040516103389190616970565b34801561040f57600080fd5b5061042361041e36600461655a565b611111565b604051610338929190616aa5565b34801561043d57600080fd5b5061036161044c36600461657b565b6113cb565b34801561045d57600080fd5b506103616114d7565b34801561047257600080fd5b506103f661048136600461677e565b6115d2565b34801561049257600080fd5b506103616104a136600461631a565b611649565b3480156104b257600080fd5b506103616104c13660046165fd565b6117f0565b3480156104d257600080fd5b506103616104e136600461652a565b6119e3565b3480156104f257600080fd5b506103a96105013660046165a6565b611d14565b34801561051257600080fd5b506103a961052136600461648e565b612235565b34801561053257600080fd5b5061036161054136600461657b565b61256d565b34801561055257600080fd5b506103616105613660046163dc565b6126c0565b34801561057257600080fd5b5061036161058136600461652a565b61287b565b34801561059257600080fd5b506103616105a136600461675a565b612b6e565b3480156105b257600080fd5b506103616105c13660046165fd565b612c74565b3480156105d257600080fd5b506103616105e136600461652a565b6130fb565b3480156105f257600080fd5b50610361610601366004616334565b61319e565b34801561061257600080fd5b506103616132c2565b34801561062757600080fd5b506103a961063636600461667b565b6133fc565b34801561064757600080fd5b506103616106563660046165fd565b6136e4565b34801561066757600080fd5b5061067b61067636600461657b565b6139f1565b60405161033899989796959493929190616ac9565b34801561069c57600080fd5b506106b06106ab366004616631565b613af9565b60405161033893929190616ab3565b3480156106cb57600080fd5b506103616106da36600461655a565b613cec565b3480156106eb57600080fd5b506103a9613ff5565b34801561070057600080fd5b5061042361070f36600461655a565b613ffc565b34801561072057600080fd5b5061042361072f36600461652a565b61421c565b34801561074057600080fd5b5061036161074f36600461657b565b6142c4565b34801561076057600080fd5b5061036161076f366004616448565b6144ea565b34801561078057600080fd5b5061036161078f36600461652a565b6145ff565b3480156107a057600080fd5b50610361614613565b3480156107b557600080fd5b50610361614715565b3480156107ca57600080fd5b506103a96107d936600461657b565b6147f6565b3480156107ea57600080fd5b506103616107f936600461652a565b614bcc565b34801561080a57600080fd5b506103616108193660046166e4565b614cab565b34801561082a57600080fd5b50610361614db8565b34801561083f57600080fd5b5061036161084e36600461655a565b614e20565b34801561085f57600080fd5b506108686150fe565b604051610338929190616a95565b34801561088257600080fd5b50610361610891366004616708565b61518e565b6000806108a16161bc565b604254849081106108ef576040805162461bcd60e51b81526020600482015260136024820152721c195c9c195d1d585b081b9bdd08195e1a5cdd606a1b604482015290519081900360640190fd5b600085815260436020908152604091829020600181015483516104e081019094526002820154845260ff8116975061010090046001600160a01b031695509190810161093a836152b2565b8152602001610948836152e4565b8152600a830154602080830191909152600b8401546040830152600c8401546060830152600d8401546080830152600e84015460a0830152600f84015460c0830152601084015460e08301526011840154610100830152601284015461012083015260138401546101408301526016840154610160830152601784015461018083015260188401546101a083015260198401546101c0830152601a8401546101e0830152601b840154610200830152601c840154610220830152601d840154610240830152601e840154610260830152601f8401546102808301528301546102a082015260218301546102c082015260258301546102e08201526026830154610300820152602783015461032082015260288301546103408201526029830154610360820152602a83015461038082015260038301546103a082015260158301546103c082015260228301546103e082015260238301546104008201526024830154610420820152603583015461044082015260368301546104608201526037909201546104809092019190915293959294505050565b6000610aeb6033615312565b90506001600160a01b03811615610b5857806001600160a01b0316610b0e61533c565b6001600160a01b031614610b535760405162461bcd60e51b81526004018080602001828103825260218152602001806172166021913960400191505060405180910390fd5b610bb1565b6036546001600160a01b0316610b6c61533c565b6001600160a01b031614610bb15760405162461bcd60e51b815260040180806020018281038252602181526020018061729d6021913960400191505060405180910390fd5b604080517f48ea454c00000000000000000000000000000000000000000000000000000000815260336004820152602481018590526001600160a01b0384166044820152905173__$c7a04b010d7229ccbe3c515e91d1303780$__916348ea454c916064808301926000929190829003018186803b158015610c3257600080fd5b505af4158015610c46573d6000803e3d6000fd5b50505050505050565b600080610c5a6161db565b610c626161f9565b610c6a616217565b603380546040805160e081019091526001600160a01b0362010000830416815260ff80831698506101009092049091169550906020820190610cab90615312565b6001600160a01b03168152602001610cc36033615340565b6001600160a01b03908116825260365481166020808401919091526037548216604080850191909152603b54909216606084015281517fe1858ce900000000000000000000000000000000000000000000000000000000815260336004820152915160809093019273__$c7a04b010d7229ccbe3c515e91d1303780$__9263e1858ce9926024808301939192829003018186803b158015610d6357600080fd5b505af4158015610d77573d6000803e3d6000fd5b505050506040513d6020811015610d8d57600080fd5b50516001600160a01b03169052604080517fb1a4182a00000000000000000000000000000000000000000000000000000000815260336004820152905191945073__$c7a04b010d7229ccbe3c515e91d1303780$__9163b1a4182a91602480820192602092909190829003018186803b158015610e0957600080fd5b505af4158015610e1d573d6000803e3d6000fd5b505050506040513d6020811015610e3357600080fd5b50518252603c54602080840191909152604454604080850191909152604554606080860191909152604654608080870191909152603a54855260425485850152603d5485840152603f54918501919091526048549084015280517f374331ff00000000000000000000000000000000000000000000000000000000815260336004820152905173__$c7a04b010d7229ccbe3c515e91d1303780$__9263374331ff9260248082019391829003018186803b158015610ef057600080fd5b505af4158015610f04573d6000803e3d6000fd5b505050506040513d6020811015610f1a57600080fd5b505160a0820152939492939192909190565b6000816033600f01548110610f7e576040805162461bcd60e51b81526020600482015260136024820152721c195c9c195d1d585b081b9bdd08195e1a5cdd606a1b604482015290519081900360640190fd5b6000838152604360205260409020610f9890603001615366565b9392505050565b60026074541415610ff7576040805162461bcd60e51b815260206004820152601f60248201527f5265656e7472616e637947756172643a207265656e7472616e742063616c6c00604482015290519081900360640190fd5b600260745560335460ff1661101e5760405162461bcd60e51b81526004016102fb90616db7565b73__$c7a04b010d7229ccbe3c515e91d1303780$__6383a1eaa8603361104261533c565b846040518463ffffffff1660e01b815260040161106193929190616fdd565b60006040518083038186803b15801561107957600080fd5b505af415801561108d573d6000803e3d6000fd5b50506001607455505050565b6060836033600f015481106110eb576040805162461bcd60e51b81526020600482015260136024820152721c195c9c195d1d585b081b9bdd08195e1a5cdd606a1b604482015290519081900360640190fd5b6000858152604360205260409020611107603082018686615371565b9695505050505050565b603354600090819060ff1661116d576040805162461bcd60e51b815260206004820152601360248201527f706f6f6c206973206e6f742072756e6e696e6700000000000000000000000000604482015290519081900360640190fd5b60006111f4603360040160009054906101000a90046001600160a01b03166001600160a01b03166318160ddd6040518163ffffffff1660e01b815260040160206040518083038186803b1580156111c357600080fd5b505afa1580156111d7573d6000803e3d6000fd5b505050506040513d60208110156111ed57600080fd5b505161548f565b9050600085138015611204575083155b156112b457604080517ff72ee9c8000000000000000000000000000000000000000000000000000000008152603360048201526024810183905260448101879052815173__$9dbf359c583e30ecde0fd5d5870700bb49$__9263f72ee9c89260648082019391829003018186803b15801561127e57600080fd5b505af4158015611292573d6000803e3d6000fd5b505050506040513d60408110156112a857600080fd5b505185935091506113c3565b841580156112c25750600084135b1561137657604080517f89127d52000000000000000000000000000000000000000000000000000000008152603360048201526024810183905260448101869052905173__$9dbf359c583e30ecde0fd5d5870700bb49$__916389127d52916064808301926020929190829003018186803b15801561134057600080fd5b505af4158015611354573d6000803e3d6000fd5b505050506040513d602081101561136a57600080fd5b505192508391506113c3565b6040805162461bcd60e51b815260206004820152601160248201527f696e76616c696420706172616d65746572000000000000000000000000000000604482015290519081900360640190fd5b509250929050565b6036546001600160a01b03166113df61533c565b6001600160a01b03161461143a576040805162461bcd60e51b815260206004820152601860248201527f6f6e6c7920676f7665726e6f7220697320616c6c6f7765640000000000000000604482015290519081900360640190fd5b604080517f38dbaf7100000000000000000000000000000000000000000000000000000000815260336004820152602481018490526001600160a01b0383166044820152905173__$c7a04b010d7229ccbe3c515e91d1303780$__916338dbaf71916064808301926000929190829003018186803b1580156114bb57600080fd5b505af41580156114cf573d6000803e3d6000fd5b505050505050565b6114e16033615312565b6001600160a01b03166114f261533c565b6001600160a01b03161461154d576040805162461bcd60e51b815260206004820152601860248201527f6f6e6c79206f70657261746f7220697320616c6c6f7765640000000000000000604482015290519081900360640190fd5b604080517f5980576b00000000000000000000000000000000000000000000000000000000815260336004820152905173__$c7a04b010d7229ccbe3c515e91d1303780$__91635980576b916024808301926000929190829003018186803b1580156115b857600080fd5b505af41580156115cc573d6000803e3d6000fd5b50505050565b6060836033600f01548110611624576040805162461bcd60e51b81526020600482015260136024820152721c195c9c195d1d585b081b9bdd08195e1a5cdd606a1b604482015290519081900360640190fd5b6000858152604360205260409020611640906039018585615371565b95945050505050565b60006116556033615312565b90506001600160a01b038116156116c257806001600160a01b031661167861533c565b6001600160a01b0316146116bd5760405162461bcd60e51b81526004018080602001828103825260218152602001806172166021913960400191505060405180910390fd5b61171b565b6036546001600160a01b03166116d661533c565b6001600160a01b03161461171b5760405162461bcd60e51b815260040180806020018281038252602181526020018061729d6021913960400191505060405180910390fd5b6001600160a01b038216611776576040805162461bcd60e51b815260206004820152601c60248201527f6e6577206f70657261746f72206973207a65726f206164647265737300000000604482015290519081900360640190fd5b604080517f4f28feeb000000000000000000000000000000000000000000000000000000008152603360048201526001600160a01b0384166024820152905173__$c7a04b010d7229ccbe3c515e91d1303780$__91634f28feeb916044808301926000929190829003018186803b1580156114bb57600080fd5b81600773__$c7a04b010d7229ccbe3c515e91d1303780$__63e57d06a860338461181861533c565b856040518563ffffffff1660e01b815260040180858152602001846001600160a01b03168152602001836001600160a01b0316815260200182815260200194505050505060206040518083038186803b15801561187457600080fd5b505af4158015611888573d6000803e3d6000fd5b505050506040513d602081101561189e57600080fd5b50516118e7576040805162461bcd60e51b81526020600482015260136024820152723ab730baba3437b934bd32b21031b0b63632b960691b604482015290519081900360640190fd5b6001600160a01b03841661190d5760405162461bcd60e51b81526004016102fb90616ee0565b670de0b6b3a76400008307156119355760405162461bcd60e51b81526004016102fb90616b7c565b600083136119555760405162461bcd60e51b81526004016102fb90616cb5565b6040517fdaad7f6900000000000000000000000000000000000000000000000000000000815273__$c7a04b010d7229ccbe3c515e91d1303780$__9063daad7f69906119ac906033908990899089906004016171b2565b60006040518083038186803b1580156119c457600080fd5b505af41580156119d8573d6000803e3d6000fd5b505050505050505050565b60408051634b071c5760e11b815260336004820152426024820181905291516001929173__$c7a04b010d7229ccbe3c515e91d1303780$__9163960e38ae91604480820192600092909190829003018186803b158015611a4257600080fd5b505af4158015611a56573d6000803e3d6000fd5b5050604080516304c43a9960e31b8152603360048201528515156024820152905173__$c7a04b010d7229ccbe3c515e91d1303780$__9350632621d4c892506044808301926000929190829003018186803b158015611ab457600080fd5b505af4158015611ac8573d6000803e3d6000fd5b50505050600019831415611b5e57604080517fa99d455a00000000000000000000000000000000000000000000000000000000815260336004820152905173__$c7a04b010d7229ccbe3c515e91d1303780$__9163a99d455a916024808301926000929190829003018186803b158015611b4157600080fd5b505af4158015611b55573d6000803e3d6000fd5b50505050611cc2565b6000838152604360209081526040808320600181015482517fd1cc9976000000000000000000000000000000000000000000000000000000008152925191946101009091046001600160a01b03169363d1cc9976936004808201949293918390030190829087803b158015611bd257600080fd5b505af1158015611be6573d6000803e3d6000fd5b505050506040513d6020811015611bfc57600080fd5b5051611c4f576040805162461bcd60e51b815260206004820152601460248201527f707265726571756973697465206e6f74206d6574000000000000000000000000604482015290519081900360640190fd5b604080516301ec95cd60e51b81526033600482015260248101869052905173__$c7a04b010d7229ccbe3c515e91d1303780$__91633d92b9a0916044808301926000929190829003018186803b158015611ca857600080fd5b505af4158015611cbc573d6000803e3d6000fd5b50505050505b60408051634c86902960e11b815260336004820152905173__$c7a04b010d7229ccbe3c515e91d1303780$__9163990d2052916024808301926000929190829003018186803b158015610c3257600080fd5b600060026074541415611d6e576040805162461bcd60e51b815260206004820152601f60248201527f5265656e7472616e637947756172643a207265656e7472616e742063616c6c00604482015290519081900360640190fd5b6002607481905550603360000160029054906101000a90046001600160a01b03166001600160a01b0316634831d32f6040518163ffffffff1660e01b815260040160206040518083038186803b158015611dc757600080fd5b505afa158015611ddb573d6000803e3d6000fd5b505050506040513d6020811015611df157600080fd5b505115611e38576040805162461bcd60e51b815260206004820152601060248201526f1d5b9a5d995c9cd9481cd95d1d1b195960821b604482015290519081900360640190fd5b85600873__$c7a04b010d7229ccbe3c515e91d1303780$__63e57d06a8603384611e6061533c565b856040518563ffffffff1660e01b815260040180858152602001846001600160a01b03168152602001836001600160a01b0316815260200182815260200194505050505060206040518083038186803b158015611ebc57600080fd5b505af4158015611ed0573d6000803e3d6000fd5b505050506040513d6020811015611ee657600080fd5b5051611f2f576040805162461bcd60e51b81526020600482015260136024820152723ab730baba3437b934bd32b21031b0b63632b960691b604482015290519081900360640190fd5b60408051634b071c5760e11b815260336004820152426024820181905291516000929173__$c7a04b010d7229ccbe3c515e91d1303780$__9163960e38ae916044808201928792909190829003018186803b158015611f8d57600080fd5b505af4158015611fa1573d6000803e3d6000fd5b5050604080516304c43a9960e31b8152603360048201528515156024820152905173__$c7a04b010d7229ccbe3c515e91d1303780$__9350632621d4c892506044808301926000929190829003018186803b158015611fff57600080fd5b505af4158015612013573d6000803e3d6000fd5b5060029250612020915050565b60008c81526043602052604090206001015460ff16600481111561204057fe5b1461205d5760405162461bcd60e51b81526004016102fb90616c21565b6001600160a01b0389166120835760405162461bcd60e51b81526004016102fb90616ee0565b6001600160a01b0389163014156120ac5760405162461bcd60e51b81526004016102fb90616b45565b876120c95760405162461bcd60e51b81526004016102fb90616bea565b60008712156120ea5760405162461bcd60e51b81526004016102fb90616b0e565b4286101561210a5760405162461bcd60e51b81526004016102fb90616d49565b6040517f15e4782700000000000000000000000000000000000000000000000000000000815273__$85738a9b50fe147d23ce9080d17e448cc6$__906315e4782790612165906033908f908f908f908f908f90600401617180565b60206040518083038186803b15801561217d57600080fd5b505af4158015612191573d6000803e3d6000fd5b505050506040513d601f19601f820116820180604052508101906121b59190616542565b9450603373__$c7a04b010d7229ccbe3c515e91d1303780$__63990d205290916040518263ffffffff1660e01b81526004018082815260200191505060006040518083038186803b15801561220957600080fd5b505af415801561221d573d6000803e3d6000fd5b5050600160745550949b9a5050505050505050505050565b60408051634b071c5760e11b815260336004820152426024820181905291516000928392909173__$c7a04b010d7229ccbe3c515e91d1303780$__9163960e38ae9160448083019287929190829003018186803b15801561229557600080fd5b505af41580156122a9573d6000803e3d6000fd5b5050604080516304c43a9960e31b8152603360048201528515156024820152905173__$c7a04b010d7229ccbe3c515e91d1303780$__9350632621d4c892506044808301926000929190829003018186803b15801561230757600080fd5b505af415801561231b573d6000803e3d6000fd5b50505050612327616235565b612330866154d7565b9050606061233d876155c3565b6040517f8120e3d100000000000000000000000000000000000000000000000000000000815290915073__$b6905e4a302a713a1eaca5d53b662e815c$__90638120e3d19061239590603390869086906004016170a4565b60006040518083038186803b1580156123ad57600080fd5b505af41580156123c1573d6000803e3d6000fd5b50506040517ff2ab44c200000000000000000000000000000000000000000000000000000000815273__$b6905e4a302a713a1eaca5d53b662e815c$__925063f2ab44c2915061241a9060339086908b90600401617116565b60006040518083038186803b15801561243257600080fd5b505af4158015612446573d6000803e3d6000fd5b50506040517f4af2e32700000000000000000000000000000000000000000000000000000000815273__$b6905e4a302a713a1eaca5d53b662e815c$__9250634af2e327915061249d90603390869060040161708f565b60006040518083038186803b1580156124b557600080fd5b505af41580156124c9573d6000803e3d6000fd5b505050506124f782610160015163ffffffff168360000151888560e001518660600151876101a00151615635565b94505050603373__$c7a04b010d7229ccbe3c515e91d1303780$__63990d205290916040518263ffffffff1660e01b81526004018082815260200191505060006040518083038186803b15801561254d57600080fd5b505af4158015612561573d6000803e3d6000fd5b50505050505092915050565b60006125796033615312565b90506001600160a01b038116156125e657806001600160a01b031661259c61533c565b6001600160a01b0316146125e15760405162461bcd60e51b81526004018080602001828103825260218152602001806172166021913960400191505060405180910390fd5b61263f565b6036546001600160a01b03166125fa61533c565b6001600160a01b03161461263f5760405162461bcd60e51b815260040180806020018281038252602181526020018061729d6021913960400191505060405180910390fd5b604080517fc01fa80800000000000000000000000000000000000000000000000000000000815260336004820152602481018590526001600160a01b0384166044820152905173__$c7a04b010d7229ccbe3c515e91d1303780$__9163c01fa808916064808301926000929190829003018186803b158015610c3257600080fd5b603360000160029054906101000a90046001600160a01b03166001600160a01b0316634831d32f6040518163ffffffff1660e01b815260040160206040518083038186803b15801561271157600080fd5b505afa158015612725573d6000803e3d6000fd5b505050506040513d602081101561273b57600080fd5b505115612782576040805162461bcd60e51b815260206004820152601060248201526f1d5b9a5d995c9cd9481cd95d1d1b195960821b604482015290519081900360640190fd5b60335460ff16158061279b5750603354610100900460ff165b156127e6576127aa6033615312565b6001600160a01b03166127bb61533c565b6001600160a01b0316146127e15760405162461bcd60e51b81526004016102fb90616e67565b612820565b6036546001600160a01b03166127fa61533c565b6001600160a01b0316146128205760405162461bcd60e51b81526004016102fb90616e25565b6040517f01ec9bde00000000000000000000000000000000000000000000000000000000815273__$c7a04b010d7229ccbe3c515e91d1303780$__906301ec9bde906119ac9060339089908990899089908990600401617020565b603360000160029054906101000a90046001600160a01b03166001600160a01b0316634831d32f6040518163ffffffff1660e01b815260040160206040518083038186803b1580156128cc57600080fd5b505afa1580156128e0573d6000803e3d6000fd5b505050506040513d60208110156128f657600080fd5b50511561293d576040805162461bcd60e51b815260206004820152601060248201526f1d5b9a5d995c9cd9481cd95d1d1b195960821b604482015290519081900360640190fd5b60408051634b071c5760e11b815260336004820152426024820181905291516000929173__$c7a04b010d7229ccbe3c515e91d1303780$__9163960e38ae916044808201928792909190829003018186803b15801561299b57600080fd5b505af41580156129af573d6000803e3d6000fd5b5050604080516304c43a9960e31b8152603360048201528515156024820152905173__$c7a04b010d7229ccbe3c515e91d1303780$__9350632621d4c892506044808301926000929190829003018186803b158015612a0d57600080fd5b505af4158015612a21573d6000803e3d6000fd5b5050505060026074541415612a7d576040805162461bcd60e51b815260206004820152601f60248201527f5265656e7472616e637947756172643a207265656e7472616e742063616c6c00604482015290519081900360640190fd5b600260745560335460ff16612aa45760405162461bcd60e51b81526004016102fb90616db7565b73__$c7a04b010d7229ccbe3c515e91d1303780$__63dcaf67496033612ac861533c565b866040518463ffffffff1660e01b8152600401612ae793929190616fdd565b60006040518083038186803b158015612aff57600080fd5b505af4158015612b13573d6000803e3d6000fd5b50506001607455505060408051634c86902960e11b815260336004820152905173__$c7a04b010d7229ccbe3c515e91d1303780$__9163990d2052916024808301926000929190829003018186803b158015610c3257600080fd5b6036546001600160a01b0316612b8261533c565b6001600160a01b031614612bdd576040805162461bcd60e51b815260206004820152601860248201527f6f6e6c7920676f7665726e6f7220697320616c6c6f7765640000000000000000604482015290519081900360640190fd5b6040517ff20d68960000000000000000000000000000000000000000000000000000000081526033600482018181526024830185905273__$c7a04b010d7229ccbe3c515e91d1303780$__9263f20d6896929186918691906044018261012080828437600081840152601f19601f820116905080830192505050935050505060006040518083038186803b1580156114bb57600080fd5b60026074541415612ccc576040805162461bcd60e51b815260206004820152601f60248201527f5265656e7472616e637947756172643a207265656e7472616e742063616c6c00604482015290519081900360640190fd5b6002607481905550603360000160029054906101000a90046001600160a01b03166001600160a01b0316634831d32f6040518163ffffffff1660e01b815260040160206040518083038186803b158015612d2557600080fd5b505afa158015612d39573d6000803e3d6000fd5b505050506040513d6020811015612d4f57600080fd5b505115612d96576040805162461bcd60e51b815260206004820152601060248201526f1d5b9a5d995c9cd9481cd95d1d1b195960821b604482015290519081900360640190fd5b60408051634b071c5760e11b815260336004820152426024820181905291516000929173__$c7a04b010d7229ccbe3c515e91d1303780$__9163960e38ae916044808201928792909190829003018186803b158015612df457600080fd5b505af4158015612e08573d6000803e3d6000fd5b5050604080516304c43a9960e31b8152603360048201528515156024820152905173__$c7a04b010d7229ccbe3c515e91d1303780$__9350632621d4c892506044808301926000929190829003018186803b158015612e6657600080fd5b505af4158015612e7a573d6000803e3d6000fd5b50505050836002603373__$c7a04b010d7229ccbe3c515e91d1303780$__63e57d06a8909184612ea861533c565b856040518563ffffffff1660e01b815260040180858152602001846001600160a01b03168152602001836001600160a01b0316815260200182815260200194505050505060206040518083038186803b158015612f0457600080fd5b505af4158015612f18573d6000803e3d6000fd5b505050506040513d6020811015612f2e57600080fd5b5051612f77576040805162461bcd60e51b81526020600482015260136024820152723ab730baba3437b934bd32b21031b0b63632b960691b604482015290519081900360640190fd5b600260008881526043602052604090206001015460ff166004811115612f9957fe5b14612fb65760405162461bcd60e51b81526004016102fb90616c21565b6001600160a01b038616612fdc5760405162461bcd60e51b81526004016102fb90616ee0565b60008513612ffc5760405162461bcd60e51b81526004016102fb90616bea565b6040517fa54b4d7800000000000000000000000000000000000000000000000000000000815273__$c7a04b010d7229ccbe3c515e91d1303780$__9063a54b4d7890613053906033908b908b908b906004016171b2565b60006040518083038186803b15801561306b57600080fd5b505af415801561307f573d6000803e3d6000fd5b505060408051634c86902960e11b815260336004820152905173__$c7a04b010d7229ccbe3c515e91d1303780$__955063990d2052945060248083019450600093509091829003018186803b1580156130d757600080fd5b505af41580156130eb573d6000803e3d6000fd5b5050600160745550505050505050565b60026074541415613153576040805162461bcd60e51b815260206004820152601f60248201527f5265656e7472616e637947756172643a207265656e7472616e742063616c6c00604482015290519081900360640190fd5b600260745560335460ff1661317a5760405162461bcd60e51b81526004016102fb90616db7565b73__$c7a04b010d7229ccbe3c515e91d1303780$__63d767897e603361104261533c565b600054610100900460ff16806131b757506131b76157f0565b806131c5575060005460ff16155b6132005760405162461bcd60e51b815260040180806020018281038252602e8152602001806172be602e913960400191505060405180910390fd5b600054610100900460ff1615801561322b576000805460ff1961ff0019909116610100171660011790555b73__$c7a04b010d7229ccbe3c515e91d1303780$__63c9ab7571603361324f61533c565b89898c8a8a8a6040518963ffffffff1660e01b8152600401613278989796959493929190616f74565b60006040518083038186803b15801561329057600080fd5b505af41580156132a4573d6000803e3d6000fd5b505050508015610c46576000805461ff001916905550505050505050565b60408051634b071c5760e11b815260336004820152426024820181905291516000929173__$c7a04b010d7229ccbe3c515e91d1303780$__9163960e38ae916044808201928792909190829003018186803b15801561332057600080fd5b505af4158015613334573d6000803e3d6000fd5b5050604080516304c43a9960e31b8152603360048201528515156024820152905173__$c7a04b010d7229ccbe3c515e91d1303780$__9350632621d4c892506044808301926000929190829003018186803b15801561339257600080fd5b505af41580156133a6573d6000803e3d6000fd5b505060408051634c86902960e11b815260336004820152905173__$c7a04b010d7229ccbe3c515e91d1303780$__935063990d205292506024808301926000929190829003018186803b1580156114bb57600080fd5b60008661340e8363ffffffff16615801565b61341957600461341c565b60075b73__$c7a04b010d7229ccbe3c515e91d1303780$__63e57d06a860338461344161533c565b856040518563ffffffff1660e01b815260040180858152602001846001600160a01b03168152602001836001600160a01b0316815260200182815260200194505050505060206040518083038186803b15801561349d57600080fd5b505af41580156134b1573d6000803e3d6000fd5b505050506040513d60208110156134c757600080fd5b5051613510576040805162461bcd60e51b81526020600482015260136024820152723ab730baba3437b934bd32b21031b0b63632b960691b604482015290519081900360640190fd5b60408051634b071c5760e11b815260336004820152426024820181905291516000929173__$c7a04b010d7229ccbe3c515e91d1303780$__9163960e38ae916044808201928792909190829003018186803b15801561356e57600080fd5b505af4158015613582573d6000803e3d6000fd5b5050604080516304c43a9960e31b8152603360048201528515156024820152905173__$c7a04b010d7229ccbe3c515e91d1303780$__9350632621d4c892506044808301926000929190829003018186803b1580156135e057600080fd5b505af41580156135f4573d6000803e3d6000fd5b505050506001600160a01b038b1661361e5760405162461bcd60e51b81526004016102fb90616ee0565b8961363b5760405162461bcd60e51b81526004016102fb90616bea565b4288101561365b5760405162461bcd60e51b81526004016102fb90616d49565b6136698c8c8c8c8b8b615635565b9450603373__$c7a04b010d7229ccbe3c515e91d1303780$__63990d205290916040518263ffffffff1660e01b81526004018082815260200191505060006040518083038186803b1580156136bd57600080fd5b505af41580156136d1573d6000803e3d6000fd5b5050505050505050979650505050505050565b6002607454141561373c576040805162461bcd60e51b815260206004820152601f60248201527f5265656e7472616e637947756172643a207265656e7472616e742063616c6c00604482015290519081900360640190fd5b6002607481905550603360000160029054906101000a90046001600160a01b03166001600160a01b0316634831d32f6040518163ffffffff1660e01b815260040160206040518083038186803b15801561379557600080fd5b505afa1580156137a9573d6000803e3d6000fd5b505050506040513d60208110156137bf57600080fd5b505115613806576040805162461bcd60e51b815260206004820152601060248201526f1d5b9a5d995c9cd9481cd95d1d1b195960821b604482015290519081900360640190fd5b81600173__$c7a04b010d7229ccbe3c515e91d1303780$__63e57d06a860338461382e61533c565b856040518563ffffffff1660e01b815260040180858152602001846001600160a01b03168152602001836001600160a01b0316815260200182815260200194505050505060206040518083038186803b15801561388a57600080fd5b505af415801561389e573d6000803e3d6000fd5b505050506040513d60208110156138b457600080fd5b50516138fd576040805162461bcd60e51b81526020600482015260136024820152723ab730baba3437b934bd32b21031b0b63632b960691b604482015290519081900360640190fd5b600260008681526043602052604090206001015460ff16600481111561391f57fe5b1461393c5760405162461bcd60e51b81526004016102fb90616c21565b6001600160a01b0384166139625760405162461bcd60e51b81526004016102fb90616ee0565b600083136139825760405162461bcd60e51b81526004016102fb90616bea565b6040517f028c4ff600000000000000000000000000000000000000000000000000000000815273__$c7a04b010d7229ccbe3c515e91d1303780$__9063028c4ff6906139d9906033908990899089906004016171b2565b60006040518083038186803b1580156130d757600080fd5b60008060008060008060008060008a6033600f01548110613a4f576040805162461bcd60e51b81526020600482015260136024820152721c195c9c195d1d585b081b9bdd08195e1a5cdd606a1b604482015290519081900360640190fd5b60008c81526043602090815260408083206001600160a01b038f1684526034810190925282209091613a80836152b2565b82546001840154909e509c509050613a99838f8361580c565b9a50613aa6838f83615856565b9950613ab3838f83615895565b9850613ac0838f836158ee565b9750613acd838f83615906565b9650613ada838f8361594c565b9550613ae6838f615968565b9450505050509295985092959850929598565b600080806001600160a01b038716613b58576040805162461bcd60e51b815260206004820152600e60248201527f696e76616c696420747261646572000000000000000000000000000000000000604482015290519081900360640190fd5b85613baa576040805162461bcd60e51b815260206004820152600e60248201527f696e76616c696420616d6f756e74000000000000000000000000000000000000604482015290519081900360640190fd5b600260008981526043602052604090206001015460ff166004811115613bcc57fe5b14613c085760405162461bcd60e51b815260040180806020018281038252602381526020018061727a6023913960400191505060405180910390fd5b604080517f1c137ad100000000000000000000000000000000000000000000000000000000815260336004820152602481018a90526001600160a01b03808a166044830152606482018990528716608482015263ffffffff861660a4820152905173__$85738a9b50fe147d23ce9080d17e448cc6$__91631c137ad19160c4808301926060929190829003018186803b158015613ca457600080fd5b505af4158015613cb8573d6000803e3d6000fd5b505050506040513d6060811015613cce57600080fd5b5080516020820151604090920151909a919950975095505050505050565b60026074541415613d44576040805162461bcd60e51b815260206004820152601f60248201527f5265656e7472616e637947756172643a207265656e7472616e742063616c6c00604482015290519081900360640190fd5b600260745560408051634b071c5760e11b815260336004820152426024820181905291516000929173__$c7a04b010d7229ccbe3c515e91d1303780$__9163960e38ae916044808201928792909190829003018186803b158015613da757600080fd5b505af4158015613dbb573d6000803e3d6000fd5b5050604080516304c43a9960e31b8152603360048201528515156024820152905173__$c7a04b010d7229ccbe3c515e91d1303780$__9350632621d4c892506044808301926000929190829003018186803b158015613e1957600080fd5b505af4158015613e2d573d6000803e3d6000fd5b505060335460ff169150613e5590505760405162461bcd60e51b81526004016102fb90616db7565b603360000160029054906101000a90046001600160a01b03166001600160a01b0316634831d32f6040518163ffffffff1660e01b815260040160206040518083038186803b158015613ea657600080fd5b505afa158015613eba573d6000803e3d6000fd5b505050506040513d601f19601f82011682018060405250810190613ede919061646e565b15613f0b57613eef60336004615a24565b613f0b5760405162461bcd60e51b81526004016102fb90616dee565b73__$c7a04b010d7229ccbe3c515e91d1303780$__632d7966d86033613f2f61533c565b87876040518563ffffffff1660e01b8152600401613f509493929190616ffc565b60006040518083038186803b158015613f6857600080fd5b505af4158015613f7c573d6000803e3d6000fd5b505060408051634c86902960e11b815260336004820152905173__$c7a04b010d7229ccbe3c515e91d1303780$__935063990d205292506024808301926000929190829003018186803b158015613fd257600080fd5b505af4158015613fe6573d6000803e3d6000fd5b50506001607455505050505050565b61016e5481565b603354600090819060ff16614058576040805162461bcd60e51b815260206004820152601360248201527f706f6f6c206973206e6f742072756e6e696e6700000000000000000000000000604482015290519081900360640190fd5b60006140ae603360040160009054906101000a90046001600160a01b03166001600160a01b03166318160ddd6040518163ffffffff1660e01b815260040160206040518083038186803b1580156111c357600080fd5b90506000851380156140be575083155b1561416657604080517feeffc15d000000000000000000000000000000000000000000000000000000008152603360048201526024810183905260448101879052905173__$9dbf359c583e30ecde0fd5d5870700bb49$__9163eeffc15d916064808301926080929190829003018186803b15801561413c57600080fd5b505af4158015614150573d6000803e3d6000fd5b505050506040513d60808110156112a857600080fd5b841580156141745750600084135b1561137657604080517f68dddaa6000000000000000000000000000000000000000000000000000000008152603360048201526024810183905260448101869052905173__$9dbf359c583e30ecde0fd5d5870700bb49$__916368dddaa6916064808301926080929190829003018186803b1580156141f257600080fd5b505af4158015614206573d6000803e3d6000fd5b505050506040513d608081101561136a57600080fd5b600080826033600f0154811061426f576040805162461bcd60e51b81526020600482015260136024820152721c195c9c195d1d585b081b9bdd08195e1a5cdd606a1b604482015290519081900360640190fd5b600084815260436020526040902061428960308201615366565b93506002600182015460ff1660048111156142a057fe5b146142af5780602b01546142bb565b6142bb81603001615366565b92505050915091565b80600273__$c7a04b010d7229ccbe3c515e91d1303780$__63e57d06a86033846142ec61533c565b856040518563ffffffff1660e01b815260040180858152602001846001600160a01b03168152602001836001600160a01b0316815260200182815260200194505050505060206040518083038186803b15801561434857600080fd5b505af415801561435c573d6000803e3d6000fd5b505050506040513d602081101561437257600080fd5b50516143bb576040805162461bcd60e51b81526020600482015260136024820152723ab730baba3437b934bd32b21031b0b63632b960691b604482015290519081900360640190fd5b60026074541415614413576040805162461bcd60e51b815260206004820152601f60248201527f5265656e7472616e637947756172643a207265656e7472616e742063616c6c00604482015290519081900360640190fd5b60026074556001600160a01b03831661443e5760405162461bcd60e51b81526004016102fb90616ee0565b600460008581526043602052604090206001015460ff16600481111561446057fe5b1461447d5760405162461bcd60e51b81526004016102fb90616f17565b6040517fb2f6decc00000000000000000000000000000000000000000000000000000000815273__$c7a04b010d7229ccbe3c515e91d1303780$__9063b2f6decc906144d2906033908890889060040161713a565b60006040518083038186803b158015613fd257600080fd5b6036546001600160a01b03166144fe61533c565b6001600160a01b031614614559576040805162461bcd60e51b815260206004820152601860248201527f6f6e6c7920676f7665726e6f7220697320616c6c6f7765640000000000000000604482015290519081900360640190fd5b6040517fe3e2898600000000000000000000000000000000000000000000000000000000815260336004820181815273__$c7a04b010d7229ccbe3c515e91d1303780$__9263e3e289869291859160240182608080828437600081840152601f19601f8201169050808301925050509250505060006040518083038186803b1580156145e457600080fd5b505af41580156145f8573d6000803e3d6000fd5b5050505050565b61016e541561460d57600080fd5b61016e55565b61461d6033615312565b6001600160a01b031661462e61533c565b6001600160a01b031614614689576040805162461bcd60e51b815260206004820152601860248201527f6f6e6c79206f70657261746f7220697320616c6c6f7765640000000000000000604482015290519081900360640190fd5b60335460ff16156146ac5760405162461bcd60e51b81526004016102fb90616c7e565b6040517f4e74d93000000000000000000000000000000000000000000000000000000000815273__$c7a04b010d7229ccbe3c515e91d1303780$__90634e74d930906146fd90603390600401616a8c565b60006040518083038186803b1580156115b857600080fd5b61471f6033615312565b6001600160a01b031661473061533c565b6001600160a01b03161461478b576040805162461bcd60e51b815260206004820152601860248201527f6f6e6c79206f70657261746f7220697320616c6c6f7765640000000000000000604482015290519081900360640190fd5b604080517fbdc5e84900000000000000000000000000000000000000000000000000000000815260336004820152905173__$c7a04b010d7229ccbe3c515e91d1303780$__9163bdc5e849916024808301926000929190829003018186803b1580156115b857600080fd5b600060026074541415614850576040805162461bcd60e51b815260206004820152601f60248201527f5265656e7472616e637947756172643a207265656e7472616e742063616c6c00604482015290519081900360640190fd5b6002607481905550603360000160029054906101000a90046001600160a01b03166001600160a01b0316634831d32f6040518163ffffffff1660e01b815260040160206040518083038186803b1580156148a957600080fd5b505afa1580156148bd573d6000803e3d6000fd5b505050506040513d60208110156148d357600080fd5b50511561491a576040805162461bcd60e51b815260206004820152601060248201526f1d5b9a5d995c9cd9481cd95d1d1b195960821b604482015290519081900360640190fd5b60408051634b071c5760e11b815260336004820152426024820181905291516000929173__$c7a04b010d7229ccbe3c515e91d1303780$__9163960e38ae916044808201928792909190829003018186803b15801561497857600080fd5b505af415801561498c573d6000803e3d6000fd5b5050604080516304c43a9960e31b8152603360048201528515156024820152905173__$c7a04b010d7229ccbe3c515e91d1303780$__9350632621d4c892506044808301926000929190829003018186803b1580156149ea57600080fd5b505af41580156149fe573d6000803e3d6000fd5b50505050614a1385614a0e61533c565b615a87565b614a2f5760405162461bcd60e51b81526004016102fb90616ea9565b600260008681526043602052604090206001015460ff166004811115614a5157fe5b14614a6e5760405162461bcd60e51b81526004016102fb90616c21565b6001600160a01b038416614a945760405162461bcd60e51b81526004016102fb90616ee0565b6001600160a01b038416301415614abd5760405162461bcd60e51b81526004016102fb90616b45565b73__$85738a9b50fe147d23ce9080d17e448cc6$__63e810d619603387614ae261533c565b886040518563ffffffff1660e01b8152600401614b029493929190617159565b60206040518083038186803b158015614b1a57600080fd5b505af4158015614b2e573d6000803e3d6000fd5b505050506040513d601f19601f82011682018060405250810190614b529190616542565b9250603373__$c7a04b010d7229ccbe3c515e91d1303780$__63990d205290916040518263ffffffff1660e01b81526004018082815260200191505060006040518083038186803b158015614ba657600080fd5b505af4158015614bba573d6000803e3d6000fd5b50506001607455509295945050505050565b60026074541415614c24576040805162461bcd60e51b815260206004820152601f60248201527f5265656e7472616e637947756172643a207265656e7472616e742063616c6c00604482015290519081900360640190fd5b6002607455600360008281526043602052604090206001015460ff166004811115614c4b57fe5b14614c685760405162461bcd60e51b81526004016102fb90616cec565b73__$c7a04b010d7229ccbe3c515e91d1303780$__632ef9dab9603383614c8d61533c565b6040518463ffffffff1660e01b81526004016110619392919061713a565b614cb56033615312565b6001600160a01b0316614cc661533c565b6001600160a01b031614614d21576040805162461bcd60e51b815260206004820152601860248201527f6f6e6c79206f70657261746f7220697320616c6c6f7765640000000000000000604482015290519081900360640190fd5b6040517f697c66880000000000000000000000000000000000000000000000000000000081526033600482018181526024830185905273__$c7a04b010d7229ccbe3c515e91d1303780$__9263697c6688929186918691906044018261010080828437600081840152601f19601f820116905080830192505050935050505060006040518083038186803b1580156114bb57600080fd5b73__$c7a04b010d7229ccbe3c515e91d1303780$__63299cbfda6033614ddc61533c565b6040518363ffffffff1660e01b815260040180838152602001826001600160a01b031681526020019250505060006040518083038186803b1580156115b857600080fd5b60408051634b071c5760e11b815260336004820152426024820181905291516001929173__$c7a04b010d7229ccbe3c515e91d1303780$__9163960e38ae91604480820192600092909190829003018186803b158015614e7f57600080fd5b505af4158015614e93573d6000803e3d6000fd5b5050604080516304c43a9960e31b8152603360048201528515156024820152905173__$c7a04b010d7229ccbe3c515e91d1303780$__9350632621d4c892506044808301926000929190829003018186803b158015614ef157600080fd5b505af4158015614f05573d6000803e3d6000fd5b50506036546001600160a01b03169150614f1f905061533c565b6001600160a01b031614614f7a576040805162461bcd60e51b815260206004820152601860248201527f6f6e6c7920676f7665726e6f7220697320616c6c6f7765640000000000000000604482015290519081900360640190fd5b6000831215614fd0576040805162461bcd60e51b815260206004820152601960248201527f6e6567617469766520736574746c656d656e7420707269636500000000000000604482015290519081900360640190fd5b614fd86162b1565b5060408051808201825284815242602080830191825260008881526043909152838120835160068201819055925160078201819055600480830194909455600582015584516301ec95cd60e51b815260339381019390935260248301899052935192939273__$c7a04b010d7229ccbe3c515e91d1303780$__92633d92b9a0926044808301939192829003018186803b15801561507457600080fd5b505af4158015615088573d6000803e3d6000fd5b505060408051634c86902960e11b815260336004820152905173__$c7a04b010d7229ccbe3c515e91d1303780$__955063990d2052945060248083019450600093509091829003018186803b1580156150e057600080fd5b505af41580156150f4573d6000803e3d6000fd5b5050505050505050565b600080603373__$9dbf359c583e30ecde0fd5d5870700bb49$__63c12b64d590916040518263ffffffff1660e01b815260040180828152602001915050604080518083038186803b15801561515257600080fd5b505af4158015615166573d6000803e3d6000fd5b505050506040513d604081101561517c57600080fd5b50805160209091015190939092509050565b6036546001600160a01b03166151a261533c565b6001600160a01b0316146151fd576040805162461bcd60e51b815260206004820152601860248201527f6f6e6c7920676f7665726e6f7220697320616c6c6f7765640000000000000000604482015290519081900360640190fd5b603373__$c7a04b010d7229ccbe3c515e91d1303780$__6338a825ba9091868686866040518663ffffffff1660e01b81526004018086815260200185815260200184600860200280828437600083820152601f01601f191690910190508361010080828437600083820152601f01601f191690910190508261010080828437600081840152601f19601f8201169050808301925050509550505050505060006040518083038186803b1580156150e057600080fd5b60006002600183015460ff1660048111156152c957fe5b146152d85760088201546152de565b60068201545b92915050565b60006002600183015460ff1660048111156152fb57fe5b1461530a5760088201546152de565b506004015490565b600081600c01544211156153275760006152de565b5060018101546001600160a01b03165b919050565b3390565b600081600c01544211156153555760006152de565b50600201546001600160a01b031690565b60006152de82615b55565b60608282116153c7576040805162461bcd60e51b815260206004820152601e60248201527f626567696e2073686f756c64206265206c6f776572207468616e20656e640000604482015290519081900360640190fd5b60006153d285615366565b90508084106153e15750610f98565b60006153ed8483615b59565b90506153f98186615b6f565b67ffffffffffffffff8111801561540f57600080fd5b50604051908082528060200260200182016040528015615439578160200160208202803683370190505b509250845b81811015615485576154508782615bcc565b8461545b8389615b6f565b8151811061546557fe5b6001600160a01b039092166020928302919091019091015260010161543e565b5050509392505050565b6000600160ff1b82106154d35760405162461bcd60e51b81526004018080602001828103825260288152602001806173346028913960400191505060405180910390fd5b5090565b6154df616235565b610100825110156155025760405162461bcd60e51b81526004016102fb90616bb3565b6014820151815260288201516020820152603c82015160408083019190915260508301516060808401919091526064840151608080850191909152608485015160a08086019190915260a486015160c08087019190915260c487015160e087015260e4870151610100870152610104870151610120870152610124909601519586901c61014086015263ffffffff9086901c81166101608601529085901c81166101808501529084901c81166101a084015292901c9091166101c082015290565b606061015e825110156155e85760405162461bcd60e51b81526004016102fb90616bb3565b61013e82015161015e830151610124840151604051601882901a9160191a9061561b908590859085908590602001616915565b604051602081830303815290604052945050505050919050565b6000603360000160029054906101000a90046001600160a01b03166001600160a01b0316634831d32f6040518163ffffffff1660e01b815260040160206040518083038186803b15801561568857600080fd5b505afa15801561569c573d6000803e3d6000fd5b505050506040513d60208110156156b257600080fd5b5051156156f9576040805162461bcd60e51b815260206004820152601060248201526f1d5b9a5d995c9cd9481cd95d1d1b195960821b604482015290519081900360640190fd5b600260008881526043602052604090206001015460ff16600481111561571b57fe5b146157385760405162461bcd60e51b81526004016102fb90616c21565b6040517f443d6cae00000000000000000000000000000000000000000000000000000000815273__$85738a9b50fe147d23ce9080d17e448cc6$__9063443d6cae90615795906033908b908b908b908b908b908b906004016171d6565b60206040518083038186803b1580156157ad57600080fd5b505af41580156157c1573d6000803e3d6000fd5b505050506040513d601f19601f820116820180604052508101906157e59190616542565b979650505050505050565b60006157fb30615bd8565b15905090565b630800000016151590565b6000806158198585615bde565b1561583c576158378560120154615831878787615bff565b90615c42565b61583f565b60005b905061164081615850878787615856565b90615ca7565b600061588d6158658585615d0c565b6001600160a01b03851660009081526034870160205260409020600101546158319085615d46565b949350505050565b60006158a2848484615856565b905060008113156158e45760006158b98585615bde565b156158c85784602f01546158ce565b84602e01545b90506158dc82826001615d7b565b915050610f98565b5060009392505050565b6000806158fc85858561580c565b1215949350505050565b6000806159138585615bde565b156159305761592b8560120154615831878787615d99565b615933565b60005b905080615941868686615856565b121595945050505050565b6000806159598585615bde565b15615930578460120154615933565b600082600c0154600014156159c4576040805162461bcd60e51b815260206004820152601c60248201527f696e697469616c4d617267696e52617465206973206e6f742073657400000000604482015290519081900360640190fd5b60006159e584600c0154670de0b6b3a7640000615dd190919063ffffffff16565b6001600160a01b03841660009081526034860160205260409020600201549091508015615a125780615a18565b60358501545b90506116408183615e17565b600f820154600090815b81811015615a7c57836004811115615a4257fe5b600082815260108701602052604090206001015460ff166004811115615a6457fe5b14615a74576000925050506152de565b600101615a2e565b506001949350505050565b6000828152604360205260408120603901615aa181615366565b615b4b576033546040517f6ba42aaa000000000000000000000000000000000000000000000000000000008152620100009091046001600160a01b031690636ba42aaa90615af390869060040161695c565b60206040518083038186803b158015615b0b57600080fd5b505afa158015615b1f573d6000803e3d6000fd5b505050506040513d601f19601f82011682018060405250810190615b43919061646e565b9150506152de565b615b438184615e26565b5490565b6000818310615b685781610f98565b5090919050565b600082821115615bc6576040805162461bcd60e51b815260206004820152601e60248201527f536166654d6174683a207375627472616374696f6e206f766572666c6f770000604482015290519081900360640190fd5b50900390565b6000610f988383615e3b565b3b151590565b6001600160a01b031660009081526034909101602052604090206001015490565b600c8301546001600160a01b0383166000908152603485016020526040812060010154909161588d91615c3d9190615c379086615d46565b90615d46565b615e9f565b6000828201818312801590615c575750838112155b80615c6c5750600083128015615c6c57508381125b610f985760405162461bcd60e51b81526004018080602001828103825260218152602001806172596021913960400191505060405180910390fd5b6000818303818312801590615cbc5750838113155b80615cd15750600083128015615cd157508381135b610f985760405162461bcd60e51b815260040180806020018281038252602481526020018061735c6024913960400191505060405180910390fd5b6001600160a01b03811660009081526034830160205260408120600b840154600182015461588d91615d3e9190615d46565b825490615ca7565b6000670de0b6b3a7640000615d6c615d5e8585615eb7565b670de0b6b3a7640000615f60565b81615d7357fe5b059392505050565b600061588d615d8a8585615eb7565b670de0b6b3a764000084615fdf565b600d8301546001600160a01b0383166000908152603485016020526040812060010154909161588d91615c3d9190615c379086615d46565b600080821215615df257615de4826160bc565b9150615def836160bc565b92505b610f9882615e11615e0b86670de0b6b3a7640000615eb7565b85615f60565b906160c9565b6000818312615b685781610f98565b6000610f98836001600160a01b038416616181565b81546000908210615e7d5760405162461bcd60e51b81526004018080602001828103825260228152602001806172376022913960400191505060405180910390fd5b826000018281548110615e8c57fe5b9060005260206000200154905092915050565b6000808212156154d357615eb2826160bc565b6152de565b600082615ec6575060006152de565b82600019148015615eda5750600160ff1b82145b15615f165760405162461bcd60e51b815260040180806020018281038252602781526020018061730d6027913960400191505060405180910390fd5b82820282848281615f2357fe5b0514610f985760405162461bcd60e51b815260040180806020018281038252602781526020018061730d6027913960400191505060405180910390fd5b6000808213615fb6576040805162461bcd60e51b815260206004820152601f60248201527f726f756e6448616c665570206f6e6c7920737570706f7274732079203e203000604482015290519081900360640190fd5b60008312615fd257615fcb8360028405615c42565b90506152de565b610f988360028405615ca7565b600082616033576040805162461bcd60e51b815260206004820152601060248201527f6469766973696f6e206279207a65726f00000000000000000000000000000000604482015290519081900360640190fd5b61603d84846160c9565b905082848161604857fe5b0761605257610f98565b600061605e8585616199565b9050600083600181111561606e57fe5b1480156160785750805b1561608b57616088826001615c42565b91505b600183600181111561609957fe5b1480156160a4575080155b156160b457611640826001615ca7565b509392505050565b60006152de600083615ca7565b60008161611d576040805162461bcd60e51b815260206004820181905260248201527f5369676e6564536166654d6174683a206469766973696f6e206279207a65726f604482015290519081900360640190fd5b816000191480156161315750600160ff1b83145b1561616d5760405162461bcd60e51b81526004018080602001828103825260218152602001806172ec6021913960400191505060405180910390fd5b600082848161617857fe5b05949350505050565b60009081526001919091016020526040902054151590565b60008215806161a6575081155b156161b3575060016152de565b501860ff1d1590565b604051806104e001604052806027906020820280368337509192915050565b6040518060e001604052806007906020820280368337509192915050565b6040518060a001604052806005906020820280368337509192915050565b6040518060c001604052806006906020820280368337509192915050565b604080516101e081018252600080825260208201819052918101829052606081018290526080810182905260a0810182905260c0810182905260e08101829052610100810182905261012081018290526101408101829052610160810182905261018081018290526101a081018290526101c081019190915290565b604051806040016040528060008152602001600081525090565b80356001600160a01b038116811461533757600080fd5b8061010081018310156152de57600080fd5b8061012081018310156152de57600080fd5b803563ffffffff8116811461533757600080fd5b60006020828403121561632b578081fd5b610f98826162cb565b60008060008060008060a0878903121561634c578182fd5b616355876162cb565b9550616363602088016162cb565b945060408701359350616378606088016162cb565b9250608087013567ffffffffffffffff80821115616394578384fd5b818901915089601f8301126163a7578384fd5b8135818111156163b5578485fd5b8a60208285010111156163c6578485fd5b6020830194508093505050509295509295509295565b600080600080600061044086880312156163f4578081fd5b6163fd866162cb565b945061640c87602088016162f4565b935061641c8761014088016162e2565b925061642c8761024088016162e2565b915061643c8761034088016162e2565b90509295509295909350565b600060808284031215616459578081fd5b82608083011115616468578081fd5b50919050565b60006020828403121561647f578081fd5b81518015158114610f98578182fd5b600080604083850312156164a0578182fd5b823567ffffffffffffffff808211156164b7578384fd5b818501915085601f8301126164ca578384fd5b8135818111156164d657fe5b6040516020601f8301601f19168201810184811183821017156164f557fe5b604052828252848301810189101561650b578687fd5b8281860182840137918101820195909552939694909301359450505050565b60006020828403121561653b578081fd5b5035919050565b600060208284031215616553578081fd5b5051919050565b6000806040838503121561656c578182fd5b50508035926020909101359150565b6000806040838503121561658d578182fd5b8235915061659d602084016162cb565b90509250929050565b60008060008060008060c087890312156165be578182fd5b863595506165ce602088016162cb565b94506165dc604088016162cb565b9350606087013592506080870135915060a087013590509295509295509295565b600080600060608486031215616611578081fd5b83359250616621602085016162cb565b9150604084013590509250925092565b600080600080600060a08688031215616648578283fd5b85359450616658602087016162cb565b93506040860135925061666d606087016162cb565b915061643c60808701616306565b600080600080600080600060e0888a031215616695578485fd5b873596506166a5602089016162cb565b95506040880135945060608801359350608088013592506166c860a089016162cb565b91506166d660c08901616306565b905092959891949750929550565b60008061012083850312156166f7578182fd5b8235915061659d84602085016162e2565b600080600080610320858703121561671e578182fd5b8435935061672f86602087016162e2565b925061673f8661012087016162e2565b915061674f8661022087016162e2565b905092959194509250565b600080610140838503121561676d578182fd5b8235915061659d84602085016162f4565b600080600060608486031215616792578081fd5b505081359360208301359350604090920135919050565b6001600160a01b0316815260200190565b6001600160a01b03169052565b8060005b60088110156115cc5781358452602093840193909101906001016167cb565b8060005b60068110156115cc5781518452602093840193909101906001016167ee565b6168188282516167ba565b602081015161682a60208401826167ba565b50604081015161683d60408401826167ba565b50606081015161685060608401826167ba565b50608081015161686360808401826167ba565b5060a081015160a083015260c081015160c083015260e081015160e0830152610100808201518184015250610120808201518184015250610140808201516168ad82850182616907565b5050610160808201516168c2828501826168fd565b5050610180808201516168d7828501826168fd565b50506101a0808201516168ec828501826168fd565b50506101c0808201516115cc828501825b63ffffffff169052565b67ffffffffffffffff169052565b93845260208401929092527fff0000000000000000000000000000000000000000000000000000000000000060f891821b8116604085015291901b16604182015260420190565b6001600160a01b0391909116815260200190565b6020808252825182820181905260009190848201906040850190845b818110156169b15783516001600160a01b03168352928401929184019160010161698c565b50909695505050505050565b6000610280820190508615158252602086151581840152604083018660005b60078110156169fe576169f08383516167a9565b9250908301906001016169dc565b50505061012083018560005b6005811015616a2757815183529183019190830190600101616a0a565b505050506111076101c08301846167ea565b610520810160058510616a4857fe5b84825260206001600160a01b03851681840152604083018460005b6027811015616a8057815183529183019190830190600101616a63565b50505050949350505050565b90815260200190565b9182521515602082015260400190565b918252602082015260400190565b9283526020830191909152604082015260600190565b9889526020890197909752604088019590955260608701939093526080860191909152151560a0850152151560c0840152151560e08301526101008201526101200190565b60208082526013908201527f696e76616c6964206c696d697420707269636500000000000000000000000000604082015260600190565b60208082526014908201527f63616e6e6f74206c697175696461746520414d4d000000000000000000000000604082015260600190565b6020808252601e908201527f7461726765744c65766572616765206d75737420626520696e74656765720000604082015260600190565b6020808252600b908201527f62726f6b656e2064617461000000000000000000000000000000000000000000604082015260600190565b6020808252600e908201527f696e76616c696420616d6f756e74000000000000000000000000000000000000604082015260600190565b60208082526023908201527f70657270657475616c2073686f756c6420626520696e204e4f524d414c20737460408201527f6174650000000000000000000000000000000000000000000000000000000000606082015260800190565b6020808252600f908201527f616c72656164792072756e6e696e670000000000000000000000000000000000604082015260600190565b6020808252601a908201527f7461726765744c65766572616765206973206e65676174697665000000000000604082015260600190565b60208082526026908201527f70657270657475616c2073686f756c6420626520696e20454d455247454e435960408201527f2073746174650000000000000000000000000000000000000000000000000000606082015260800190565b60208082526011908201527f646561646c696e65206578636565646564000000000000000000000000000000604082015260600190565b6020808252601e908201527f636f6e747261637420646f6573206e6f74206163636570742065746865720000604082015260600190565b60208082526013908201527f706f6f6c206973206e6f742072756e6e696e6700000000000000000000000000604082015260600190565b6020808252601d908201527f616c6c2070657270657475616c206d75737420626520636c6561726564000000604082015260600190565b60208082526022908201527f6f6e6c7920676f7665726e6f722063616e206372656174652070657270657475604082015261185b60f21b606082015260800190565b60208082526022908201527f6f6e6c79206f70657261746f722063616e206372656174652070657270657475604082015261185b60f21b606082015260800190565b60208082526015908201527f63616c6c6572206d757374206265206b65657065720000000000000000000000604082015260600190565b6020808252600e908201527f696e76616c696420747261646572000000000000000000000000000000000000604082015260600190565b60208082526024908201527f70657270657475616c2073686f756c6420626520696e20434c4541524544207360408201527f7461746500000000000000000000000000000000000000000000000000000000606082015260800190565b60008982526001600160a01b03808a1660208401528089166040840152876060840152808716608084015280861660a08401525060e060c08301528260e0830152610100838582850137828401810191909152601f909201601f19160101979650505050505050565b9283526001600160a01b03919091166020830152604082015260600190565b9384526001600160a01b039290921660208401526040830152606082015260800190565b60006104608201905087825260206001600160a01b03881681840152604083018760005b600981101561706157813583529183019190830190600101617044565b505050506170736101608301866167c7565b6170816102608301856167c7565b6157e56103608301846167c7565b8281526102008101610f98602083018461680d565b600061022085835260206170ba8185018761680d565b81610200850152845180838601528392505b808310156170eb578583018201518584016102400152918101916170cc565b808311156170fd578361024082870101525b601f01601f191693909301610240019695505050505050565b838152610220810161712b602083018561680d565b82610200830152949350505050565b92835260208301919091526001600160a01b0316604082015260600190565b93845260208401929092526001600160a01b03908116604084015216606082015260800190565b95865260208601949094526001600160a01b03928316604086015291166060840152608083015260a082015260c00190565b93845260208401929092526001600160a01b03166040830152606082015260800190565b96875260208701959095526001600160a01b039384166040870152606086019290925260808501521660a083015263ffffffff1660c082015260e0019056fe63616e206f6e6c7920626520696e69746961746564206279206f70657261746f72456e756d657261626c655365743a20696e646578206f7574206f6620626f756e64735369676e6564536166654d6174683a206164646974696f6e206f766572666c6f7770657270657475616c2073686f756c6420626520696e204e4f524d414c20737461746563616e206f6e6c7920626520696e6974696174656420627920676f7665726e6f72496e697469616c697a61626c653a20636f6e747261637420697320616c726561647920696e697469616c697a65645369676e6564536166654d6174683a206469766973696f6e206f766572666c6f775369676e6564536166654d6174683a206d756c7469706c69636174696f6e206f766572666c6f7753616665436173743a2076616c756520646f65736e27742066697420696e20616e20696e743235365369676e6564536166654d6174683a207375627472616374696f6e206f766572666c6f77a26469706673582212207e21ff827f873631f1afcec00cacd7128b681e64c766ec2a3d1ef3cf5e7f1ed364736f6c63430007040033",
  "linkReferences": {
    "contracts/module/AMMModule.sol": {
      "AMMModule": [
        {
          "length": 20,
          "start": 4714
        },
        {
          "length": 20,
          "start": 4904
        },
        {
          "length": 20,
          "start": 16676
        },
        {
          "length": 20,
          "start": 16858
        },
        {
          "length": 20,
          "start": 20774
        }
      ]
    },
    "contracts/module/LiquidityPoolModule.sol": {
      "LiquidityPoolModule": [
        {
          "length": 20,
          "start": 3098
        },
        {
          "length": 20,
          "start": 3406
        },
        {
          "length": 20,
          "start": 3568
        },
        {
          "length": 20,
          "start": 3804
        },
        {
          "length": 20,
          "start": 4161
        },
        {
          "length": 20,
          "start": 5283
        },
        {
          "length": 20,
          "start": 5536
        },
        {
          "length": 20,
          "start": 6104
        },
        {
          "length": 20,
          "start": 6166
        },
        {
          "length": 20,
          "start": 6558
        },
        {
          "length": 20,
          "start": 6697
        },
        {
          "length": 20,
          "start": 6810
        },
        {
          "length": 20,
          "start": 6953
        },
        {
          "length": 20,
          "start": 7312
        },
        {
          "length": 20,
          "start": 7420
        },
        {
          "length": 20,
          "start": 7774
        },
        {
          "length": 20,
          "start": 8053
        },
        {
          "length": 20,
          "start": 8165
        },
        {
          "length": 20,
          "start": 8668
        },
        {
          "length": 20,
          "start": 8830
        },
        {
          "length": 20,
          "start": 8941
        },
        {
          "length": 20,
          "start": 9504
        },
        {
          "length": 20,
          "start": 9896
        },
        {
          "length": 20,
          "start": 10345
        },
        {
          "length": 20,
          "start": 10627
        },
        {
          "length": 20,
          "start": 10739
        },
        {
          "length": 20,
          "start": 10951
        },
        {
          "length": 20,
          "start": 11094
        },
        {
          "length": 20,
          "start": 11318
        },
        {
          "length": 20,
          "start": 11740
        },
        {
          "length": 20,
          "start": 11852
        },
        {
          "length": 20,
          "start": 11942
        },
        {
          "length": 20,
          "start": 12357
        },
        {
          "length": 20,
          "start": 12475
        },
        {
          "length": 20,
          "start": 12701
        },
        {
          "length": 20,
          "start": 12878
        },
        {
          "length": 20,
          "start": 13064
        },
        {
          "length": 20,
          "start": 13176
        },
        {
          "length": 20,
          "start": 13282
        },
        {
          "length": 20,
          "start": 13375
        },
        {
          "length": 20,
          "start": 13654
        },
        {
          "length": 20,
          "start": 13766
        },
        {
          "length": 20,
          "start": 13968
        },
        {
          "length": 20,
          "start": 14380
        },
        {
          "length": 20,
          "start": 14795
        },
        {
          "length": 20,
          "start": 15759
        },
        {
          "length": 20,
          "start": 15871
        },
        {
          "length": 20,
          "start": 16174
        },
        {
          "length": 20,
          "start": 16312
        },
        {
          "length": 20,
          "start": 17130
        },
        {
          "length": 20,
          "start": 17606
        },
        {
          "length": 20,
          "start": 17835
        },
        {
          "length": 20,
          "start": 18165
        },
        {
          "length": 20,
          "start": 18398
        },
        {
          "length": 20,
          "start": 18784
        },
        {
          "length": 20,
          "start": 18896
        },
        {
          "length": 20,
          "start": 19321
        },
        {
          "length": 20,
          "start": 19595
        },
        {
          "length": 20,
          "start": 19834
        },
        {
          "length": 20,
          "start": 19931
        },
        {
          "length": 20,
          "start": 20070
        },
        {
          "length": 20,
          "start": 20183
        },
        {
          "length": 20,
          "start": 20575
        },
        {
          "length": 20,
          "start": 20676
        },
        {
          "length": 20,
          "start": 21026
        }
      ]
    },
    "contracts/module/OrderModule.sol": {
      "OrderModule": [
        {
          "length": 20,
          "start": 9097
        },
        {
          "length": 20,
          "start": 9228
        },
        {
          "length": 20,
          "start": 9361
        }
      ]
    },
    "contracts/module/TradeModule.sol": {
      "TradeModule": [
        {
          "length": 20,
          "start": 8531
        },
        {
          "length": 20,
          "start": 15500
        },
        {
          "length": 20,
          "start": 19168
        },
        {
          "length": 20,
          "start": 22401
        }
      ]
    }
  },
  "deployedLinkReferences": {
    "contracts/module/AMMModule.sol": {
      "AMMModule": [
        {
          "length": 20,
          "start": 4681
        },
        {
          "length": 20,
          "start": 4871
        },
        {
          "length": 20,
          "start": 16643
        },
        {
          "length": 20,
          "start": 16825
        },
        {
          "length": 20,
          "start": 20741
        }
      ]
    },
    "contracts/module/LiquidityPoolModule.sol": {
      "LiquidityPoolModule": [
        {
          "length": 20,
          "start": 3065
        },
        {
          "length": 20,
          "start": 3373
        },
        {
          "length": 20,
          "start": 3535
        },
        {
          "length": 20,
          "start": 3771
        },
        {
          "length": 20,
          "start": 4128
        },
        {
          "length": 20,
          "start": 5250
        },
        {
          "length": 20,
          "start": 5503
        },
        {
          "length": 20,
          "start": 6071
        },
        {
          "length": 20,
          "start": 6133
        },
        {
          "length": 20,
          "start": 6525
        },
        {
          "length": 20,
          "start": 6664
        },
        {
          "length": 20,
          "start": 6777
        },
        {
          "length": 20,
          "start": 6920
        },
        {
          "length": 20,
          "start": 7279
        },
        {
          "length": 20,
          "start": 7387
        },
        {
          "length": 20,
          "start": 7741
        },
        {
          "length": 20,
          "start": 8020
        },
        {
          "length": 20,
          "start": 8132
        },
        {
          "length": 20,
          "start": 8635
        },
        {
          "length": 20,
          "start": 8797
        },
        {
          "length": 20,
          "start": 8908
        },
        {
          "length": 20,
          "start": 9471
        },
        {
          "length": 20,
          "start": 9863
        },
        {
          "length": 20,
          "start": 10312
        },
        {
          "length": 20,
          "start": 10594
        },
        {
          "length": 20,
          "start": 10706
        },
        {
          "length": 20,
          "start": 10918
        },
        {
          "length": 20,
          "start": 11061
        },
        {
          "length": 20,
          "start": 11285
        },
        {
          "length": 20,
          "start": 11707
        },
        {
          "length": 20,
          "start": 11819
        },
        {
          "length": 20,
          "start": 11909
        },
        {
          "length": 20,
          "start": 12324
        },
        {
          "length": 20,
          "start": 12442
        },
        {
          "length": 20,
          "start": 12668
        },
        {
          "length": 20,
          "start": 12845
        },
        {
          "length": 20,
          "start": 13031
        },
        {
          "length": 20,
          "start": 13143
        },
        {
          "length": 20,
          "start": 13249
        },
        {
          "length": 20,
          "start": 13342
        },
        {
          "length": 20,
          "start": 13621
        },
        {
          "length": 20,
          "start": 13733
        },
        {
          "length": 20,
          "start": 13935
        },
        {
          "length": 20,
          "start": 14347
        },
        {
          "length": 20,
          "start": 14762
        },
        {
          "length": 20,
          "start": 15726
        },
        {
          "length": 20,
          "start": 15838
        },
        {
          "length": 20,
          "start": 16141
        },
        {
          "length": 20,
          "start": 16279
        },
        {
          "length": 20,
          "start": 17097
        },
        {
          "length": 20,
          "start": 17573
        },
        {
          "length": 20,
          "start": 17802
        },
        {
          "length": 20,
          "start": 18132
        },
        {
          "length": 20,
          "start": 18365
        },
        {
          "length": 20,
          "start": 18751
        },
        {
          "length": 20,
          "start": 18863
        },
        {
          "length": 20,
          "start": 19288
        },
        {
          "length": 20,
          "start": 19562
        },
        {
          "length": 20,
          "start": 19801
        },
        {
          "length": 20,
          "start": 19898
        },
        {
          "length": 20,
          "start": 20037
        },
        {
          "length": 20,
          "start": 20150
        },
        {
          "length": 20,
          "start": 20542
        },
        {
          "length": 20,
          "start": 20643
        },
        {
          "length": 20,
          "start": 20993
        }
      ]
    },
    "contracts/module/OrderModule.sol": {
      "OrderModule": [
        {
          "length": 20,
          "start": 9064
        },
        {
          "length": 20,
          "start": 9195
        },
        {
          "length": 20,
          "start": 9328
        }
      ]
    },
    "contracts/module/TradeModule.sol": {
      "TradeModule": [
        {
          "length": 20,
          "start": 8498
        },
        {
          "length": 20,
          "start": 15467
        },
        {
          "length": 20,
          "start": 19135
        },
        {
          "length": 20,
          "start": 22368
        }
      ]
    }
  }
}