{
  "_format": "hh-sol-artifact-1",
  "contractName": "RemarginHelper",
  "sourceName": "contracts/remargin/RemarginHelper.sol",
  "abi": [
    {
      "inputs": [
        {
          "internalType": "address",
          "name": "from",
          "type": "address"
        },
        {
          "internalType": "uint256",
          "name": "fromIndex",
          "type": "uint256"
        },
        {
          "internalType": "address",
          "name": "to",
          "type": "address"
        },
        {
          "internalType": "uint256",
          "name": "toIndex",
          "type": "uint256"
        },
        {
          "internalType": "int256",
          "name": "amount",
          "type": "int256"
        }
      ],
      "name": "remargin",
      "outputs": [],
      "stateMutability": "nonpayable",
      "type": "function"
    }
  ],
  "bytecode": "0x608060405234801561001057600080fd5b5060016000556104d0806100256000396000f3fe608060405234801561001057600080fd5b506004361061002b5760003560e01c8063292e0ac114610030575b600080fd5b610070600480360360a081101561004657600080fd5b506001600160a01b0381358116916020810135916040820135169060608101359060800135610072565b005b600260005414156100ca576040805162461bcd60e51b815260206004820152601f60248201527f5265656e7472616e637947756172643a207265656e7472616e742063616c6c00604482015290519081900360640190fd5b600260009081558113610124576040805162461bcd60e51b815260206004820152601760248201527f72656d617267696e20616d6f756e74206973207a65726f000000000000000000604482015290519081900360640190fd5b600061012f86610394565b9050836001600160a01b0316866001600160a01b0316146101a957600061015585610394565b9050806001600160a01b0316826001600160a01b0316146101a75760405162461bcd60e51b815260040180806020018281038252603d81526020018061045e603d913960400191505060405180910390fd5b505b604080517fdd62ed3e0000000000000000000000000000000000000000000000000000000081523360048201526001600160a01b0386811660248301529151849284169163dd62ed3e916044808301926020929190829003018186803b15801561021257600080fd5b505afa158015610226573d6000803e3d6000fd5b505050506040513d602081101561023c57600080fd5b5051101561027b5760405162461bcd60e51b815260040180806020018281038252602181526020018061043d6021913960400191505060405180910390fd5b604080517f6ef05a40000000000000000000000000000000000000000000000000000000008152600481018790523360248201526044810184905290516001600160a01b03881691636ef05a4091606480830192600092919082900301818387803b1580156102e957600080fd5b505af11580156102fd573d6000803e3d6000fd5b5050604080517f78f140ea000000000000000000000000000000000000000000000000000000008152600481018790523360248201526044810186905290516001600160a01b03881693506378f140ea9250606480830192600092919082900301818387803b15801561036f57600080fd5b505af1158015610383573d6000803e3d6000fd5b505060016000555050505050505050565b600061039e61041e565b826001600160a01b0316630cdc105a6040518163ffffffff1660e01b81526004016102806040518083038186803b1580156103d857600080fd5b505afa1580156103ec573d6000803e3d6000fd5b505050506040513d601f19601f8201168201806040525061028081101561041257600080fd5b5060e001519392505050565b6040518060e00160405280600790602082028036833750919291505056fe72656d617267696e20616d6f756e74206578636565647320616c6c6f77616e636563616e6e6f742072656d617267696e206265747765656e2070657270657475616c73207769746820646966666572656e7420636f6c6c61746572616c73a26469706673582212208af882d32a421b2a586f4a10e4f555c3f32416246cca79677dc35c00852671c564736f6c63430007040033",
  "linkReferences": {},
  "deployedLinkReferences": {}
}