{
  "_format": "hh-sol-artifact-1",
  "contractName": "TestCalc",
  "sourceName": "contracts/test/TestCalc.sol",
  "abi": [
    {
      "anonymous": false,
      "inputs": [
        {
          "indexed": true,
          "internalType": "address",
          "name": "previousOwner",
          "type": "address"
        },
        {
          "indexed": true,
          "internalType": "address",
          "name": "newOwner",
          "type": "address"
        }
      ],
      "name": "OwnershipTransferred",
      "type": "event"
    },
    {
      "inputs": [
        {
          "internalType": "uint256",
          "name": "value",
          "type": "uint256"
        }
      ],
      "name": "add",
      "outputs": [],
      "stateMutability": "nonpayable",
      "type": "function"
    },
    {
      "inputs": [
        {
          "internalType": "uint256",
          "name": "perpetualIndex",
          "type": "uint256"
        },
        {
          "internalType": "address",
          "name": "account",
          "type": "address"
        }
      ],
      "name": "balanceOf",
      "outputs": [
        {
          "internalType": "int256",
          "name": "",
          "type": "int256"
        }
      ],
      "stateMutability": "view",
      "type": "function"
    },
    {
      "inputs": [
        {
          "internalType": "address",
          "name": "from",
          "type": "address"
        },
        {
          "internalType": "string",
          "name": "method",
          "type": "string"
        },
        {
          "internalType": "bytes",
          "name": "callData",
          "type": "bytes"
        },
        {
          "internalType": "uint32",
          "name": "nonce",
          "type": "uint32"
        },
        {
          "internalType": "uint32",
          "name": "expiration",
          "type": "uint32"
        },
        {
          "internalType": "uint64",
          "name": "gasFeeLimit",
          "type": "uint64"
        },
        {
          "internalType": "bytes",
          "name": "signature",
          "type": "bytes"
        }
      ],
      "name": "callFunction",
      "outputs": [],
      "stateMutability": "nonpayable",
      "type": "function"
    },
    {
      "inputs": [],
      "name": "count",
      "outputs": [
        {
          "internalType": "uint256",
          "name": "",
          "type": "uint256"
        }
      ],
      "stateMutability": "view",
      "type": "function"
    },
    {
      "inputs": [
        {
          "internalType": "uint256",
          "name": "perpetualIndex",
          "type": "uint256"
        },
        {
          "internalType": "address",
          "name": "account",
          "type": "address"
        },
        {
          "internalType": "int256",
          "name": "amount",
          "type": "int256"
        }
      ],
      "name": "deposit",
      "outputs": [],
      "stateMutability": "nonpayable",
      "type": "function"
    },
    {
      "inputs": [],
      "name": "owner",
      "outputs": [
        {
          "internalType": "address",
          "name": "",
          "type": "address"
        }
      ],
      "stateMutability": "view",
      "type": "function"
    },
    {
      "inputs": [],
      "name": "renounceOwnership",
      "outputs": [],
      "stateMutability": "nonpayable",
      "type": "function"
    },
    {
      "inputs": [
        {
          "internalType": "uint256",
          "name": "value",
          "type": "uint256"
        }
      ],
      "name": "sub",
      "outputs": [],
      "stateMutability": "nonpayable",
      "type": "function"
    },
    {
      "inputs": [
        {
          "internalType": "address",
          "name": "newOwner",
          "type": "address"
        }
      ],
      "name": "transferOwnership",
      "outputs": [],
      "stateMutability": "nonpayable",
      "type": "function"
    }
  ],
  "bytecode": "0x608060405234801561001057600080fd5b50600061001b61006a565b600080546001600160a01b0319166001600160a01b0383169081178255604051929350917f8be0079c531659141344cd1fd0a4f28419497f9722a3daafe3b4186f6b6457e0908290a35061006e565b3390565b610ccf8061007d6000396000f3fe608060405234801561001057600080fd5b50600436106100a35760003560e01c80635f3f0db61161007657806378f140ea1161005b57806378f140ea1461031c5780638da5cb5b1461034e578063f2fde38b14610372576100a3565b80635f3f0db61461012a578063715018a614610314576100a3565b806306661abd146100a85780631003e2d2146100c257806327ee58a6146100e15780633656eec2146100fe575b600080fd5b6100b0610398565b60408051918252519081900360200190f35b6100df600480360360208110156100d857600080fd5b503561039e565b005b6100df600480360360208110156100f757600080fd5b5035610401565b6100b06004803603604081101561011457600080fd5b50803590602001356001600160a01b0316610464565b6100df600480360360e081101561014057600080fd5b6001600160a01b03823516919081019060408101602082013564010000000081111561016b57600080fd5b82018360208201111561017d57600080fd5b8035906020019184600183028401116401000000008311171561019f57600080fd5b91908080601f01602080910402602001604051908101604052809392919081815260200183838082843760009201919091525092959493602081019350359150506401000000008111156101f257600080fd5b82018360208201111561020457600080fd5b8035906020019184600183028401116401000000008311171561022657600080fd5b91908080601f016020809104026020016040519081016040528093929190818152602001838380828437600092019190915250929563ffffffff853581169660208701359091169567ffffffffffffffff6040820135169550919350915060808101906060013564010000000081111561029f57600080fd5b8201836020820111156102b157600080fd5b803590602001918460018302840111640100000000831117156102d357600080fd5b91908080601f01602080910402602001604051908101604052809392919081815260200183838082843760009201919091525092955061048c945050505050565b6100df610873565b6100df6004803603606081101561033257600080fd5b508035906001600160a01b03602082013516906040013561093e565b61035661096b565b604080516001600160a01b039092168252519081900360200190f35b6100df6004803603602081101561038857600080fd5b50356001600160a01b031661097a565b60015481565b600154818101116103f6576040805162461bcd60e51b815260206004820152600860248201527f6f766572666c6f77000000000000000000000000000000000000000000000000604482015290519081900360640190fd5b600180549091019055565b600154811115610458576040805162461bcd60e51b815260206004820152600960248201527f756e646572666c6f770000000000000000000000000000000000000000000000604482015290519081900360640190fd5b60018054919091039055565b60009182526002602090815260408084206001600160a01b0393909316845291905290205490565b428363ffffffff1610156104e7576040805162461bcd60e51b815260206004820152600c60248201527f6578706972656420313131310000000000000000000000000000000000000000604482015290519081900360640190fd5b604080517f4f72646572286164647265737320747261646572290000000000000000000000602080830191909152825180830360150181526035830184528051908201206055830152736766f3cfd606e1e428747d3364bae65b6f914d56607580840191909152835180840390910181526095830184528051908201207f454950373132446f6d61696e28737472696e67206e616d65290000000000000060b5840152835160ae81850301815260ce840180865281519184019190912061010e85018652600f9091527f4d61692050726f746f636f6c207633000000000000000000000000000000000060ee909401939093528351808301939093527f553f7e2049687f24030220180e64af84dd1272d5c99c4810278beb4f6e74e309838501528351808403850181526060840185528051908301207f19010000000000000000000000000000000000000000000000000000000000006080850152608284015260a28084018290528451808503909101815260c2909301909352815191012060006106738285610a9b565b9050896001600160a01b0316816001600160a01b0316146106db576040805162461bcd60e51b815260206004820152601560248201527f7369676e6572206e6f74206d6174636820313131310000000000000000000000604482015290519081900360640190fd5b6000306001600160a01b03168a805190602001208a60405160200180837bffffffffffffffffffffffffffffffffffffffffffffffffffffffff1916815260040182805190602001908083835b602083106107475780518252601f199092019160209182019101610728565b6001836020036101000a038019825116818451168082178552505050505050905001925050506040516020818303038152906040526040518082805190602001908083835b602083106107ab5780518252601f19909201916020918201910161078c565b6001836020036101000a038019825116818451168082178552505050505050905001915050600060405180830381855af49150503d806000811461080b576040519150601f19603f3d011682016040523d82523d6000602084013e610810565b606091505b5050905080610866576040805162461bcd60e51b815260206004820152600b60248201527f63616c6c206661696c6564000000000000000000000000000000000000000000604482015290519081900360640190fd5b5050505050505050505050565b61087b610c2b565b6001600160a01b031661088c61096b565b6001600160a01b0316146108e7576040805162461bcd60e51b815260206004820181905260248201527f4f776e61626c653a2063616c6c6572206973206e6f7420746865206f776e6572604482015290519081900360640190fd5b600080546040516001600160a01b03909116907f8be0079c531659141344cd1fd0a4f28419497f9722a3daafe3b4186f6b6457e0908390a36000805473ffffffffffffffffffffffffffffffffffffffff19169055565b60009283526002602090815260408085206001600160a01b03949094168552929052912080549091019055565b6000546001600160a01b031690565b610982610c2b565b6001600160a01b031661099361096b565b6001600160a01b0316146109ee576040805162461bcd60e51b815260206004820181905260248201527f4f776e61626c653a2063616c6c6572206973206e6f7420746865206f776e6572604482015290519081900360640190fd5b6001600160a01b038116610a335760405162461bcd60e51b8152600401808060200182810382526026815260200180610c306026913960400191505060405180910390fd5b600080546040516001600160a01b03808516939216917f8be0079c531659141344cd1fd0a4f28419497f9722a3daafe3b4186f6b6457e091a36000805473ffffffffffffffffffffffffffffffffffffffff19166001600160a01b0392909216919091179055565b6020810151604082015160608301516000929190831a7f7fffffffffffffffffffffffffffffff5d576e7357a4501ddfe92f46681b20a0821115610b105760405162461bcd60e51b8152600401808060200182810382526022815260200180610c566022913960400191505060405180910390fd5b8060ff16601b1480610b2557508060ff16601c145b610b605760405162461bcd60e51b8152600401808060200182810382526022815260200180610c786022913960400191505060405180910390fd5b60018682858560405160008152602001604052604051808581526020018460ff1681526020018381526020018281526020019450505050506020604051602081039080840390855afa158015610bba573d6000803e3d6000fd5b5050604051601f1901519450506001600160a01b038416610c22576040805162461bcd60e51b815260206004820152601160248201527f696e76616c6964207369676e6174757265000000000000000000000000000000604482015290519081900360640190fd5b50505092915050565b339056fe4f776e61626c653a206e6577206f776e657220697320746865207a65726f206164647265737345434453413a20696e76616c6964207369676e6174757265202773272076616c756545434453413a20696e76616c6964207369676e6174757265202776272076616c7565a2646970667358221220cd6fdc2c0c6ab0448a63a4e6d2cdae323912369888f15dcca0cc2043f1cecc5464736f6c63430007040033",
  "linkReferences": {},
  "deployedLinkReferences": {}
}