{
  "_format": "hh-sol-artifact-1",
  "contractName": "FlashLP",
  "sourceName": "contracts/test/FlashLP.sol",
  "abi": [
    {
      "inputs": [
        {
          "internalType": "address",
          "name": "liquidityPool",
          "type": "address"
        },
        {
          "internalType": "uint256",
          "name": "amount",
          "type": "uint256"
        }
      ],
      "name": "act1",
      "outputs": [],
      "stateMutability": "nonpayable",
      "type": "function"
    },
    {
      "inputs": [
        {
          "internalType": "address",
          "name": "token",
          "type": "address"
        },
        {
          "internalType": "address",
          "name": "to",
          "type": "address"
        }
      ],
      "name": "approve",
      "outputs": [],
      "stateMutability": "nonpayable",
      "type": "function"
    },
    {
      "inputs": [
        {
          "internalType": "address",
          "name": "token",
          "type": "address"
        },
        {
          "internalType": "uint256",
          "name": "amount",
          "type": "uint256"
        }
      ],
      "name": "withdraw",
      "outputs": [],
      "stateMutability": "nonpayable",
      "type": "function"
    }
  ],
  "bytecode": "0x608060405234801561001057600080fd5b5061058a806100206000396000f3fe608060405234801561001057600080fd5b50600436106100415760003560e01c80634e56dd2a146100465780637e5465ba14610074578063f3fef3a3146100a2575b600080fd5b6100726004803603604081101561005c57600080fd5b506001600160a01b0381351690602001356100ce565b005b6100726004803603604081101561008a57600080fd5b506001600160a01b03813581169160200135166103b6565b610072600480360360408110156100b857600080fd5b506001600160a01b0381351690602001356104c5565b604080516024810183905260001960448083019190915282518083039091018152606490910182526020810180516001600160e01b03167f5cfb7f8f00000000000000000000000000000000000000000000000000000000178152915181516000936060936001600160a01b038816939092909182918083835b602083106101675780518252601f199092019160209182019101610148565b6001836020036101000a0380198251168184511680821785525050505050509050019150506000604051808303816000865af19150503d80600081146101c9576040519150601f19603f3d011682016040523d82523d6000602084013e6101ce565b606091505b509150915081819061025e5760405162461bcd60e51b81526004018080602001828103825283818151815260200191508051906020019080838360005b8381101561022357818101518382015260200161020b565b50505050905090810190601f1680156102505780820380516001836020036101000a031916815260200191505b509250505060405180910390fd5b505060408051602481018490526000604480830182905283518084039091018152606490920183526020820180516001600160e01b03167f8966499000000000000000000000000000000000000000000000000000000000178152925182519194506060936001600160a01b03881693928291908083835b602083106102f55780518252601f1990920191602091820191016102d6565b6001836020036101000a0380198251168184511680821785525050505050509050019150506000604051808303816000865af19150503d8060008114610357576040519150601f19603f3d011682016040523d82523d6000602084013e61035c565b606091505b50915091508181906103af5760405162461bcd60e51b815260206004820181815283516024840152835190928392604490910191908501908083836000831561022357818101518382015260200161020b565b5050505050565b604080516001600160a01b03838116602483015260001960448084019190915283518084039091018152606490920183526020820180516001600160e01b03167f095ea7b30000000000000000000000000000000000000000000000000000000017815292518251600094928716939282918083835b6020831061044b5780518252601f19909201916020918201910161042c565b6001836020036101000a0380198251168184511680821785525050505050509050019150506000604051808303816000865af19150503d80600081146104ad576040519150601f19603f3d011682016040523d82523d6000602084013e6104b2565b606091505b50509050806104c057600080fd5b505050565b60408051336024820152604480820184905282518083039091018152606490910182526020810180516001600160e01b03167fa9059cbb00000000000000000000000000000000000000000000000000000000178152915181516000936001600160a01b0387169392918291908083836020831061044b5780518252601f19909201916020918201910161042c56fea264697066735822122034842149f01dcbc92a132223654017316e57b343d28491f84edf3d3df964141764736f6c63430007040033",
  "linkReferences": {},
  "deployedLinkReferences": {}
}