{
  "_format": "hh-sol-artifact-1",
  "contractName": "Getter",
  "sourceName": "contracts/Getter.sol",
  "abi": [
    {
      "inputs": [
        {
          "internalType": "uint256",
          "name": "perpetualIndex",
          "type": "uint256"
        }
      ],
      "name": "getActiveAccountCount",
      "outputs": [
        {
          "internalType": "uint256",
          "name": "activeAccountCount",
          "type": "uint256"
        }
      ],
      "stateMutability": "view",
      "type": "function"
    },
    {
      "inputs": [
        {
          "internalType": "uint256",
          "name": "perpetualIndex",
          "type": "uint256"
        }
      ],
      "name": "getClearProgress",
      "outputs": [
        {
          "internalType": "uint256",
          "name": "left",
          "type": "uint256"
        },
        {
          "internalType": "uint256",
          "name": "total",
          "type": "uint256"
        }
      ],
      "stateMutability": "view",
      "type": "function"
    },
    {
      "inputs": [],
      "name": "getLiquidityPoolInfo",
      "outputs": [
        {
          "internalType": "bool",
          "name": "isRunning",
          "type": "bool"
        },
        {
          "internalType": "bool",
          "name": "isFastCreationEnabled",
          "type": "bool"
        },
        {
          "internalType": "address[7]",
          "name": "addresses",
          "type": "address[7]"
        },
        {
          "internalType": "int256[5]",
          "name": "intNums",
          "type": "int256[5]"
        },
        {
          "internalType": "uint256[6]",
          "name": "uintNums",
          "type": "uint256[6]"
        }
      ],
      "stateMutability": "view",
      "type": "function"
    },
    {
      "inputs": [
        {
          "internalType": "uint256",
          "name": "perpetualIndex",
          "type": "uint256"
        },
        {
          "internalType": "address",
          "name": "trader",
          "type": "address"
        }
      ],
      "name": "getMarginAccount",
      "outputs": [
        {
          "internalType": "int256",
          "name": "cash",
          "type": "int256"
        },
        {
          "internalType": "int256",
          "name": "position",
          "type": "int256"
        },
        {
          "internalType": "int256",
          "name": "availableMargin",
          "type": "int256"
        },
        {
          "internalType": "int256",
          "name": "margin",
          "type": "int256"
        },
        {
          "internalType": "int256",
          "name": "settleableMargin",
          "type": "int256"
        },
        {
          "internalType": "bool",
          "name": "isInitialMarginSafe",
          "type": "bool"
        },
        {
          "internalType": "bool",
          "name": "isMaintenanceMarginSafe",
          "type": "bool"
        },
        {
          "internalType": "bool",
          "name": "isMarginSafe",
          "type": "bool"
        },
        {
          "internalType": "int256",
          "name": "targetLeverage",
          "type": "int256"
        }
      ],
      "stateMutability": "view",
      "type": "function"
    },
    {
      "inputs": [
        {
          "internalType": "uint256",
          "name": "perpetualIndex",
          "type": "uint256"
        }
      ],
      "name": "getPerpetualInfo",
      "outputs": [
        {
          "internalType": "enum PerpetualState",
          "name": "state",
          "type": "uint8"
        },
        {
          "internalType": "address",
          "name": "oracle",
          "type": "address"
        },
        {
          "internalType": "int256[39]",
          "name": "nums",
          "type": "int256[39]"
        }
      ],
      "stateMutability": "view",
      "type": "function"
    },
    {
      "inputs": [],
      "name": "getPoolMargin",
      "outputs": [
        {
          "internalType": "int256",
          "name": "poolMargin",
          "type": "int256"
        },
        {
          "internalType": "bool",
          "name": "isAMMSafe",
          "type": "bool"
        }
      ],
      "stateMutability": "view",
      "type": "function"
    },
    {
      "inputs": [
        {
          "internalType": "uint256",
          "name": "perpetualIndex",
          "type": "uint256"
        },
        {
          "internalType": "uint256",
          "name": "begin",
          "type": "uint256"
        },
        {
          "internalType": "uint256",
          "name": "end",
          "type": "uint256"
        }
      ],
      "name": "listActiveAccounts",
      "outputs": [
        {
          "internalType": "address[]",
          "name": "result",
          "type": "address[]"
        }
      ],
      "stateMutability": "view",
      "type": "function"
    },
    {
      "inputs": [
        {
          "internalType": "uint256",
          "name": "perpetualIndex",
          "type": "uint256"
        },
        {
          "internalType": "uint256",
          "name": "begin",
          "type": "uint256"
        },
        {
          "internalType": "uint256",
          "name": "end",
          "type": "uint256"
        }
      ],
      "name": "listByAMMKeepers",
      "outputs": [
        {
          "internalType": "address[]",
          "name": "result",
          "type": "address[]"
        }
      ],
      "stateMutability": "view",
      "type": "function"
    },
    {
      "inputs": [
        {
          "internalType": "int256",
          "name": "cashToAdd",
          "type": "int256"
        },
        {
          "internalType": "int256",
          "name": "shareToMint",
          "type": "int256"
        }
      ],
      "name": "queryAddLiquidity",
      "outputs": [
        {
          "internalType": "int256",
          "name": "cashToAddResult",
          "type": "int256"
        },
        {
          "internalType": "int256",
          "name": "shareToMintResult",
          "type": "int256"
        }
      ],
      "stateMutability": "view",
      "type": "function"
    },
    {
      "inputs": [
        {
          "internalType": "int256",
          "name": "shareToRemove",
          "type": "int256"
        },
        {
          "internalType": "int256",
          "name": "cashToReturn",
          "type": "int256"
        }
      ],
      "name": "queryRemoveLiquidity",
      "outputs": [
        {
          "internalType": "int256",
          "name": "shareToRemoveResult",
          "type": "int256"
        },
        {
          "internalType": "int256",
          "name": "cashToReturnResult",
          "type": "int256"
        }
      ],
      "stateMutability": "view",
      "type": "function"
    },
    {
      "inputs": [
        {
          "internalType": "uint256",
          "name": "perpetualIndex",
          "type": "uint256"
        },
        {
          "internalType": "address",
          "name": "trader",
          "type": "address"
        },
        {
          "internalType": "int256",
          "name": "amount",
          "type": "int256"
        },
        {
          "internalType": "address",
          "name": "referrer",
          "type": "address"
        },
        {
          "internalType": "uint32",
          "name": "flags",
          "type": "uint32"
        }
      ],
      "name": "queryTrade",
      "outputs": [
        {
          "internalType": "int256",
          "name": "tradePrice",
          "type": "int256"
        },
        {
          "internalType": "int256",
          "name": "totalFee",
          "type": "int256"
        },
        {
          "internalType": "int256",
          "name": "cost",
          "type": "int256"
        }
      ],
      "stateMutability": "nonpayable",
      "type": "function"
    }
  ],
  "bytecode": "0x608060405234801561001057600080fd5b50611fe2806100206000396000f3fe608060405234801561001057600080fd5b50600436106100c85760003560e01c80631bc5aa20116100815780638ceef9811161005b5780638ceef981146103da57806390bbd3e4146103fd578063dbabbf771461041a576100c8565b80631bc5aa20146102d35780637d3ba80f146102fc57806385dcd60a14610375576100c8565b80630f28c8b1116100b25780630f28c8b1146101ef57806313f07f451461021e57806316b3dd0e14610297576100c8565b8062092cce146100cd5780630cdc105a14610145575b600080fd5b6100ea600480360360208110156100e357600080fd5b503561043b565b604051808460048111156100fa57fe5b81526001600160a01b0384166020820152604001826104e080838360005b83811015610130578181015183820152602001610118565b50505050905001935050505060405180910390f35b61014d610684565b60408051861515815285151560208201529081018460e080838360005b8381101561018257818101518382015260200161016a565b5050505090500183600560200280838360005b838110156101ad578181015183820152602001610195565b5050505090500182600660200280838360005b838110156101d85781810151838201526020016101c0565b505050509050019550505050505060405180910390f35b61020c6004803603602081101561020557600080fd5b5035610961565b60408051918252519081900360200190f35b6102476004803603606081101561023457600080fd5b50803590602081013590604001356109d4565b60408051602080825283518183015283519192839290830191858101910280838360005b8381101561028357818101518382015260200161026b565b505050509050019250505060405180910390f35b6102ba600480360360408110156102ad57600080fd5b5080359060200135610a4c565b6040805192835260208301919091528051918290030190f35b610247600480360360608110156102e957600080fd5b5080359060208101359060400135610d06565b6103286004803603604081101561031257600080fd5b50803590602001356001600160a01b0316610d7d565b60408051998a5260208a01989098528888019690965260608801949094526080870192909252151560a0860152151560c0850152151560e084015261010083015251908190036101200190f35b6103bc600480360360a081101561038b57600080fd5b5080359060208101356001600160a01b0390811691604081013591606082013516906080013563ffffffff16610e85565b60408051938452602084019290925282820152519081900360600190f35b6102ba600480360360408110156103f057600080fd5b5080359060200135611078565b6102ba6004803603602081101561041357600080fd5b5035611298565b610422611340565b6040805192835290151560208301528051918290030190f35b600080610446611e39565b60425484908110610494576040805162461bcd60e51b81526020600482015260136024820152721c195c9c195d1d585b081b9bdd08195e1a5cdd606a1b604482015290519081900360640190fd5b600085815260436020908152604091829020600181015483516104e081019094526002820154845260ff8116975061010090046001600160a01b03169550919081016104df836113d0565b81526020016104ed83611402565b8152600a830154602080830191909152600b8401546040830152600c8401546060830152600d8401546080830152600e84015460a0830152600f84015460c0830152601084015460e08301526011840154610100830152601284015461012083015260138401546101408301526016840154610160830152601784015461018083015260188401546101a083015260198401546101c0830152601a8401546101e0830152601b840154610200830152601c840154610220830152601d840154610240830152601e840154610260830152601f8401546102808301528301546102a082015260218301546102c082015260258301546102e08201526026830154610300820152602783015461032082015260288301546103408201526029830154610360820152602a83015461038082015260038301546103a082015260158301546103c082015260228301546103e082015260238301546104008201526024830154610420820152603583015461044082015260368301546104608201526037909201546104809092019190915293959294505050565b60008061068f611e58565b610697611e76565b61069f611e94565b603380546040805160e081019091526001600160a01b0362010000830416815260ff808316985061010090920490911695509060208201906106e090611430565b6001600160a01b031681526020016106f86033611456565b6001600160a01b03908116825260365481166020808401919091526037548216604080850191909152603b54909216606084015281517fe1858ce900000000000000000000000000000000000000000000000000000000815260336004820152915160809093019273__$c7a04b010d7229ccbe3c515e91d1303780$__9263e1858ce9926024808301939192829003018186803b15801561079857600080fd5b505af41580156107ac573d6000803e3d6000fd5b505050506040513d60208110156107c257600080fd5b50516001600160a01b03169052604080517fb1a4182a00000000000000000000000000000000000000000000000000000000815260336004820152905191945073__$c7a04b010d7229ccbe3c515e91d1303780$__9163b1a4182a91602480820192602092909190829003018186803b15801561083e57600080fd5b505af4158015610852573d6000803e3d6000fd5b505050506040513d602081101561086857600080fd5b50518252603c54602080840191909152604454604080850191909152604554606080860191909152604654608080870191909152603a54855260425485850152603d5485840152603f54918501919091526048549084015280517f374331ff00000000000000000000000000000000000000000000000000000000815260336004820152905173__$c7a04b010d7229ccbe3c515e91d1303780$__9263374331ff9260248082019391829003018186803b15801561092557600080fd5b505af4158015610939573d6000803e3d6000fd5b505050506040513d602081101561094f57600080fd5b505160a0820152939492939192909190565b6000816033600f015481106109b3576040805162461bcd60e51b81526020600482015260136024820152721c195c9c195d1d585b081b9bdd08195e1a5cdd606a1b604482015290519081900360640190fd5b60008381526043602052604090206109cd9060300161147c565b9392505050565b6060836033600f01548110610a26576040805162461bcd60e51b81526020600482015260136024820152721c195c9c195d1d585b081b9bdd08195e1a5cdd606a1b604482015290519081900360640190fd5b6000858152604360205260409020610a42603082018686611487565b9695505050505050565b603354600090819060ff16610aa8576040805162461bcd60e51b815260206004820152601360248201527f706f6f6c206973206e6f742072756e6e696e6700000000000000000000000000604482015290519081900360640190fd5b6000610b2f603360040160009054906101000a90046001600160a01b03166001600160a01b03166318160ddd6040518163ffffffff1660e01b815260040160206040518083038186803b158015610afe57600080fd5b505afa158015610b12573d6000803e3d6000fd5b505050506040513d6020811015610b2857600080fd5b50516115a5565b9050600085138015610b3f575083155b15610bef57604080517ff72ee9c8000000000000000000000000000000000000000000000000000000008152603360048201526024810183905260448101879052815173__$9dbf359c583e30ecde0fd5d5870700bb49$__9263f72ee9c89260648082019391829003018186803b158015610bb957600080fd5b505af4158015610bcd573d6000803e3d6000fd5b505050506040513d6040811015610be357600080fd5b50518593509150610cfe565b84158015610bfd5750600084135b15610cb157604080517f89127d52000000000000000000000000000000000000000000000000000000008152603360048201526024810183905260448101869052905173__$9dbf359c583e30ecde0fd5d5870700bb49$__916389127d52916064808301926020929190829003018186803b158015610c7b57600080fd5b505af4158015610c8f573d6000803e3d6000fd5b505050506040513d6020811015610ca557600080fd5b50519250839150610cfe565b6040805162461bcd60e51b815260206004820152601160248201527f696e76616c696420706172616d65746572000000000000000000000000000000604482015290519081900360640190fd5b509250929050565b6060836033600f01548110610d58576040805162461bcd60e51b81526020600482015260136024820152721c195c9c195d1d585b081b9bdd08195e1a5cdd606a1b604482015290519081900360640190fd5b6000858152604360205260409020610d74906039018585611487565b95945050505050565b60008060008060008060008060008a6033600f01548110610ddb576040805162461bcd60e51b81526020600482015260136024820152721c195c9c195d1d585b081b9bdd08195e1a5cdd606a1b604482015290519081900360640190fd5b60008c81526043602090815260408083206001600160a01b038f1684526034810190925282209091610e0c836113d0565b82546001840154909e509c509050610e25838f836115ed565b9a50610e32838f83611637565b9950610e3f838f83611676565b9850610e4c838f836116cf565b9750610e59838f836116e7565b9650610e66838f8361172d565b9550610e72838f611749565b9450505050509295985092959850929598565b600080806001600160a01b038716610ee4576040805162461bcd60e51b815260206004820152600e60248201527f696e76616c696420747261646572000000000000000000000000000000000000604482015290519081900360640190fd5b85610f36576040805162461bcd60e51b815260206004820152600e60248201527f696e76616c696420616d6f756e74000000000000000000000000000000000000604482015290519081900360640190fd5b600260008981526043602052604090206001015460ff166004811115610f5857fe5b14610f945760405162461bcd60e51b8152600401808060200182810382526023815260200180611ef66023913960400191505060405180910390fd5b604080517f1c137ad100000000000000000000000000000000000000000000000000000000815260336004820152602481018a90526001600160a01b03808a166044830152606482018990528716608482015263ffffffff861660a4820152905173__$85738a9b50fe147d23ce9080d17e448cc6$__91631c137ad19160c4808301926060929190829003018186803b15801561103057600080fd5b505af4158015611044573d6000803e3d6000fd5b505050506040513d606081101561105a57600080fd5b5080516020820151604090920151909a919950975095505050505050565b603354600090819060ff166110d4576040805162461bcd60e51b815260206004820152601360248201527f706f6f6c206973206e6f742072756e6e696e6700000000000000000000000000604482015290519081900360640190fd5b600061112a603360040160009054906101000a90046001600160a01b03166001600160a01b03166318160ddd6040518163ffffffff1660e01b815260040160206040518083038186803b158015610afe57600080fd5b905060008513801561113a575083155b156111e257604080517feeffc15d000000000000000000000000000000000000000000000000000000008152603360048201526024810183905260448101879052905173__$9dbf359c583e30ecde0fd5d5870700bb49$__9163eeffc15d916064808301926080929190829003018186803b1580156111b857600080fd5b505af41580156111cc573d6000803e3d6000fd5b505050506040513d6080811015610be357600080fd5b841580156111f05750600084135b15610cb157604080517f68dddaa6000000000000000000000000000000000000000000000000000000008152603360048201526024810183905260448101869052905173__$9dbf359c583e30ecde0fd5d5870700bb49$__916368dddaa6916064808301926080929190829003018186803b15801561126e57600080fd5b505af4158015611282573d6000803e3d6000fd5b505050506040513d6080811015610ca557600080fd5b600080826033600f015481106112eb576040805162461bcd60e51b81526020600482015260136024820152721c195c9c195d1d585b081b9bdd08195e1a5cdd606a1b604482015290519081900360640190fd5b60008481526043602052604090206113056030820161147c565b93506002600182015460ff16600481111561131c57fe5b1461132b5780602b0154611337565b6113378160300161147c565b92505050915091565b600080603373__$9dbf359c583e30ecde0fd5d5870700bb49$__63c12b64d590916040518263ffffffff1660e01b815260040180828152602001915050604080518083038186803b15801561139457600080fd5b505af41580156113a8573d6000803e3d6000fd5b505050506040513d60408110156113be57600080fd5b50805160209091015190939092509050565b60006002600183015460ff1660048111156113e757fe5b146113f65760088201546113fc565b60068201545b92915050565b60006002600183015460ff16600481111561141957fe5b146114285760088201546113fc565b506004015490565b600081600c01544211156114455760006113fc565b50600101546001600160a01b031690565b600081600c015442111561146b5760006113fc565b50600201546001600160a01b031690565b60006113fc82611805565b60608282116114dd576040805162461bcd60e51b815260206004820152601e60248201527f626567696e2073686f756c64206265206c6f776572207468616e20656e640000604482015290519081900360640190fd5b60006114e88561147c565b90508084106114f757506109cd565b60006115038483611809565b905061150f818661181f565b67ffffffffffffffff8111801561152557600080fd5b5060405190808252806020026020018201604052801561154f578160200160208202803683370190505b509250845b8181101561159b57611566878261187c565b84611571838961181f565b8151811061157b57fe5b6001600160a01b0390921660209283029190910190910152600101611554565b5050509392505050565b6000600160ff1b82106115e95760405162461bcd60e51b8152600401808060200182810382526028815260200180611f616028913960400191505060405180910390fd5b5090565b6000806115fa8585611888565b1561161d5761161885601201546116128787876118a9565b906118ec565b611620565b60005b9050610d7481611631878787611637565b90611951565b600061166e61164685856119b6565b6001600160a01b038516600090815260348701602052604090206001015461161290856119f0565b949350505050565b6000611683848484611637565b905060008113156116c557600061169a8585611888565b156116a95784602f01546116af565b84602e01545b90506116bd82826001611a25565b9150506109cd565b5060009392505050565b6000806116dd8585856115ed565b1215949350505050565b6000806116f48585611888565b156117115761170c8560120154611612878787611a43565b611714565b60005b905080611722868686611637565b121595945050505050565b60008061173a8585611888565b15611711578460120154611714565b600082600c0154600014156117a5576040805162461bcd60e51b815260206004820152601c60248201527f696e697469616c4d617267696e52617465206973206e6f742073657400000000604482015290519081900360640190fd5b60006117c684600c0154670de0b6b3a7640000611a7b90919063ffffffff16565b6001600160a01b038416600090815260348601602052604090206002015490915080156117f357806117f9565b60358501545b9050610d748183611ac1565b5490565b600081831061181857816109cd565b5090919050565b600082821115611876576040805162461bcd60e51b815260206004820152601e60248201527f536166654d6174683a207375627472616374696f6e206f766572666c6f770000604482015290519081900360640190fd5b50900390565b60006109cd8383611ad0565b6001600160a01b031660009081526034909101602052604090206001015490565b600c8301546001600160a01b0383166000908152603485016020526040812060010154909161166e916118e791906118e190866119f0565b906119f0565b611b34565b60008282018183128015906119015750838112155b80611916575060008312801561191657508381125b6109cd5760405162461bcd60e51b8152600401808060200182810382526021815260200180611ed56021913960400191505060405180910390fd5b60008183038183128015906119665750838113155b8061197b575060008312801561197b57508381135b6109cd5760405162461bcd60e51b8152600401808060200182810382526024815260200180611f896024913960400191505060405180910390fd5b6001600160a01b03811660009081526034830160205260408120600b840154600182015461166e916119e891906119f0565b825490611951565b6000670de0b6b3a7640000611a16611a088585611b4c565b670de0b6b3a7640000611bf5565b81611a1d57fe5b059392505050565b600061166e611a348585611b4c565b670de0b6b3a764000084611c74565b600d8301546001600160a01b0383166000908152603485016020526040812060010154909161166e916118e791906118e190866119f0565b600080821215611a9c57611a8e82611d51565b9150611a9983611d51565b92505b6109cd82611abb611ab586670de0b6b3a7640000611b4c565b85611bf5565b90611d5e565b600081831261181857816109cd565b81546000908210611b125760405162461bcd60e51b8152600401808060200182810382526022815260200180611eb36022913960400191505060405180910390fd5b826000018281548110611b2157fe5b9060005260206000200154905092915050565b6000808212156115e957611b4782611d51565b6113fc565b600082611b5b575060006113fc565b82600019148015611b6f5750600160ff1b82145b15611bab5760405162461bcd60e51b8152600401808060200182810382526027815260200180611f3a6027913960400191505060405180910390fd5b82820282848281611bb857fe5b05146109cd5760405162461bcd60e51b8152600401808060200182810382526027815260200180611f3a6027913960400191505060405180910390fd5b6000808213611c4b576040805162461bcd60e51b815260206004820152601f60248201527f726f756e6448616c665570206f6e6c7920737570706f7274732079203e203000604482015290519081900360640190fd5b60008312611c6757611c6083600284056118ec565b90506113fc565b6109cd8360028405611951565b600082611cc8576040805162461bcd60e51b815260206004820152601060248201527f6469766973696f6e206279207a65726f00000000000000000000000000000000604482015290519081900360640190fd5b611cd28484611d5e565b9050828481611cdd57fe5b07611ce7576109cd565b6000611cf38585611e16565b90506000836001811115611d0357fe5b148015611d0d5750805b15611d2057611d1d8260016118ec565b91505b6001836001811115611d2e57fe5b148015611d39575080155b15611d4957610d74826001611951565b509392505050565b60006113fc600083611951565b600081611db2576040805162461bcd60e51b815260206004820181905260248201527f5369676e6564536166654d6174683a206469766973696f6e206279207a65726f604482015290519081900360640190fd5b81600019148015611dc65750600160ff1b83145b15611e025760405162461bcd60e51b8152600401808060200182810382526021815260200180611f196021913960400191505060405180910390fd5b6000828481611e0d57fe5b05949350505050565b6000821580611e23575081155b15611e30575060016113fc565b501860ff1d1590565b604051806104e001604052806027906020820280368337509192915050565b6040518060e001604052806007906020820280368337509192915050565b6040518060a001604052806005906020820280368337509192915050565b6040518060c00160405280600690602082028036833750919291505056fe456e756d657261626c655365743a20696e646578206f7574206f6620626f756e64735369676e6564536166654d6174683a206164646974696f6e206f766572666c6f7770657270657475616c2073686f756c6420626520696e204e4f524d414c2073746174655369676e6564536166654d6174683a206469766973696f6e206f766572666c6f775369676e6564536166654d6174683a206d756c7469706c69636174696f6e206f766572666c6f7753616665436173743a2076616c756520646f65736e27742066697420696e20616e20696e743235365369676e6564536166654d6174683a207375627472616374696f6e206f766572666c6f77a26469706673582212201884f96dade61e95b3c28b42bb604c7cba3b7d8d0914d177747865df805a837764736f6c63430007040033",
  "linkReferences": {
    "contracts/module/AMMModule.sol": {
      "AMMModule": [
        {
          "length": 20,
          "start": 2980
        },
        {
          "length": 20,
          "start": 3170
        },
        {
          "length": 20,
          "start": 4511
        },
        {
          "length": 20,
          "start": 4693
        },
        {
          "length": 20,
          "start": 4967
        }
      ]
    },
    "contracts/module/LiquidityPoolModule.sol": {
      "LiquidityPoolModule": [
        {
          "length": 20,
          "start": 1922
        },
        {
          "length": 20,
          "start": 2084
        },
        {
          "length": 20,
          "start": 2320
        }
      ]
    },
    "contracts/module/TradeModule.sol": {
      "TradeModule": [
        {
          "length": 20,
          "start": 4119
        }
      ]
    }
  },
  "deployedLinkReferences": {
    "contracts/module/AMMModule.sol": {
      "AMMModule": [
        {
          "length": 20,
          "start": 2948
        },
        {
          "length": 20,
          "start": 3138
        },
        {
          "length": 20,
          "start": 4479
        },
        {
          "length": 20,
          "start": 4661
        },
        {
          "length": 20,
          "start": 4935
        }
      ]
    },
    "contracts/module/LiquidityPoolModule.sol": {
      "LiquidityPoolModule": [
        {
          "length": 20,
          "start": 1890
        },
        {
          "length": 20,
          "start": 2052
        },
        {
          "length": 20,
          "start": 2288
        }
      ]
    },
    "contracts/module/TradeModule.sol": {
      "TradeModule": [
        {
          "length": 20,
          "start": 4087
        }
      ]
    }
  }
}