{
  "_format": "hh-sol-artifact-1",
  "contractName": "TestTracer",
  "sourceName": "contracts/test/TestTracer.sol",
  "abi": [
    {
      "inputs": [
        {
          "internalType": "address",
          "name": "trader",
          "type": "address"
        },
        {
          "internalType": "uint256",
          "name": "perpetualIndex",
          "type": "uint256"
        }
      ],
      "name": "activatePerpetualFor",
      "outputs": [
        {
          "internalType": "bool",
          "name": "",
          "type": "bool"
        }
      ],
      "stateMutability": "nonpayable",
      "type": "function"
    },
    {
      "inputs": [
        {
          "internalType": "address",
          "name": "trader",
          "type": "address"
        },
        {
          "internalType": "uint256",
          "name": "perpetualIndex",
          "type": "uint256"
        }
      ],
      "name": "deactivatePerpetualFor",
      "outputs": [
        {
          "internalType": "bool",
          "name": "",
          "type": "bool"
        }
      ],
      "stateMutability": "nonpayable",
      "type": "function"
    },
    {
      "inputs": [
        {
          "internalType": "address",
          "name": "trader",
          "type": "address"
        }
      ],
      "name": "getActiveLiquidityPoolCountOf",
      "outputs": [
        {
          "internalType": "uint256",
          "name": "",
          "type": "uint256"
        }
      ],
      "stateMutability": "view",
      "type": "function"
    },
    {
      "inputs": [],
      "name": "getLiquidityPoolCount",
      "outputs": [
        {
          "internalType": "uint256",
          "name": "",
          "type": "uint256"
        }
      ],
      "stateMutability": "view",
      "type": "function"
    },
    {
      "inputs": [
        {
          "internalType": "address",
          "name": "operator",
          "type": "address"
        }
      ],
      "name": "getOwnedLiquidityPoolsCountOf",
      "outputs": [
        {
          "internalType": "uint256",
          "name": "",
          "type": "uint256"
        }
      ],
      "stateMutability": "view",
      "type": "function"
    },
    {
      "inputs": [
        {
          "internalType": "address",
          "name": "trader",
          "type": "address"
        },
        {
          "internalType": "address",
          "name": "liquidityPool",
          "type": "address"
        },
        {
          "internalType": "uint256",
          "name": "perpetualIndex",
          "type": "uint256"
        }
      ],
      "name": "isActiveLiquidityPoolOf",
      "outputs": [
        {
          "internalType": "bool",
          "name": "",
          "type": "bool"
        }
      ],
      "stateMutability": "view",
      "type": "function"
    },
    {
      "inputs": [
        {
          "internalType": "address",
          "name": "liquidityPool",
          "type": "address"
        }
      ],
      "name": "isLiquidityPool",
      "outputs": [
        {
          "internalType": "bool",
          "name": "",
          "type": "bool"
        }
      ],
      "stateMutability": "view",
      "type": "function"
    },
    {
      "inputs": [],
      "name": "isUniverseSettled",
      "outputs": [
        {
          "internalType": "bool",
          "name": "",
          "type": "bool"
        }
      ],
      "stateMutability": "pure",
      "type": "function"
    },
    {
      "inputs": [
        {
          "internalType": "address",
          "name": "trader",
          "type": "address"
        },
        {
          "internalType": "uint256",
          "name": "begin",
          "type": "uint256"
        },
        {
          "internalType": "uint256",
          "name": "end",
          "type": "uint256"
        }
      ],
      "name": "listActiveLiquidityPoolsOf",
      "outputs": [
        {
          "components": [
            {
              "internalType": "address",
              "name": "liquidityPool",
              "type": "address"
            },
            {
              "internalType": "uint256",
              "name": "perpetualIndex",
              "type": "uint256"
            }
          ],
          "internalType": "struct Tracer.PerpetualUID[]",
          "name": "result",
          "type": "tuple[]"
        }
      ],
      "stateMutability": "view",
      "type": "function"
    },
    {
      "inputs": [
        {
          "internalType": "address",
          "name": "operator",
          "type": "address"
        },
        {
          "internalType": "uint256",
          "name": "begin",
          "type": "uint256"
        },
        {
          "internalType": "uint256",
          "name": "end",
          "type": "uint256"
        }
      ],
      "name": "listLiquidityPoolOwnedBy",
      "outputs": [
        {
          "internalType": "address[]",
          "name": "result",
          "type": "address[]"
        }
      ],
      "stateMutability": "view",
      "type": "function"
    },
    {
      "inputs": [
        {
          "internalType": "uint256",
          "name": "begin",
          "type": "uint256"
        },
        {
          "internalType": "uint256",
          "name": "end",
          "type": "uint256"
        }
      ],
      "name": "listLiquidityPools",
      "outputs": [
        {
          "internalType": "address[]",
          "name": "result",
          "type": "address[]"
        }
      ],
      "stateMutability": "view",
      "type": "function"
    },
    {
      "inputs": [
        {
          "internalType": "address",
          "name": "liquidityPool",
          "type": "address"
        },
        {
          "internalType": "address",
          "name": "operator",
          "type": "address"
        }
      ],
      "name": "registerLiquidityPool",
      "outputs": [],
      "stateMutability": "nonpayable",
      "type": "function"
    },
    {
      "inputs": [
        {
          "internalType": "address",
          "name": "liquidityPool",
          "type": "address"
        },
        {
          "internalType": "address",
          "name": "operator",
          "type": "address"
        }
      ],
      "name": "registerOperatorOfLiquidityPool",
      "outputs": [],
      "stateMutability": "nonpayable",
      "type": "function"
    }
  ],
  "bytecode": "0x608060405234801561001057600080fd5b50610db7806100206000396000f3fe608060405234801561001057600080fd5b50600436106100de5760003560e01c806372d27c9d1161008c578063ade7960111610066578063ade79601146101b7578063c1d27fe7146101ca578063e85455d7146101dd578063f81d65f1146101f0576100de565b806372d27c9d1461017c5780637a5f0ffd1461019c578063a54c320e146101a4576100de565b8063439adb78116100bd578063439adb78146101415780634831d32f14610161578063625fdca314610169576100de565b8062dc415a146100e35780631fe5ee88146100f857806325b7f04f14610121575b600080fd5b6100f66100f1366004610a99565b610203565b005b61010b610106366004610b2f565b6102c6565b6040516101189190610bf1565b60405180910390f35b61013461012f366004610b2f565b610418565b6040516101189190610ba4565b61015461014f366004610b06565b610446565b6040516101189190610c49565b610154610517565b610134610177366004610b61565b61051c565b61018f61018a366004610a7f565b61052a565b6040516101189190610d56565b61018f610553565b6100f66101b2366004610a99565b610564565b6101546101c5366004610acb565b610572565b61018f6101d8366004610a7f565b61059f565b6101546101eb366004610a7f565b6105c0565b6101546101fe366004610b06565b6105cc565b61020c336105c0565b6102315760405162461bcd60e51b815260040161022890610cc2565b60405180910390fd5b6001600160a01b038083166000908152600560209081526040808320549093168083526004909152919020610266908461061e565b506001600160a01b03821660009081526004602052604090206102899084610633565b50506001600160a01b039182166000908152600560205260409020805473ffffffffffffffffffffffffffffffffffffffff191691909216179055565b60608282116102e75760405162461bcd60e51b815260040161022890610c54565b6001600160a01b038416600090815260036020526040812061030890610648565b90508084106103175750610411565b60006103238483610653565b905061032f8186610669565b67ffffffffffffffff8111801561034557600080fd5b5060405190808252806020026020018201604052801561037f57816020015b61036c610a51565b8152602001906001900390816103645790505b509250845b8181101561040d576001600160a01b0387166000908152600360205260408120600291906103b290846106c6565b81526020808201929092526040908101600020815180830190925280546001600160a01b031682526001015491810191909152846103f08389610669565b815181106103fa57fe5b6020908102919091010152600101610384565b5050505b9392505050565b6001600160a01b038316600090815260046020526040902060609061043e9084846106d2565b949350505050565b6000610451336105c0565b61046d5760405162461bcd60e51b815260040161022890610cc2565b600061047933846107e6565b6000818152600260205260409020549091506001600160a01b03166104eb576040805180820182523381526020808201868152600085815260029092529290209051815473ffffffffffffffffffffffffffffffffffffffff19166001600160a01b0390911617815590516001909101555b6001600160a01b038416600090815260036020526040902061050d9082610819565b9150505b92915050565b600090565b6060610411600084846106d2565b6001600160a01b038116600090815260036020526040812061054b90610648565b90505b919050565b600061055f6000610648565b905090565b61056e8282610825565b5050565b600061043e61058184846107e6565b6001600160a01b038616600090815260036020526040902090610898565b6001600160a01b038116600090815260046020526040812061054b90610648565b600061054b81836108a4565b60006105d7336105c0565b6105f35760405162461bcd60e51b815260040161022890610cc2565b61041161060033846107e6565b6001600160a01b0385166000908152600360205260409020906108b9565b6000610411836001600160a01b0384166108c1565b6000610411836001600160a01b038416610987565b600061054b826109d1565b60008183106106625781610411565b5090919050565b6000828211156106c0576040805162461bcd60e51b815260206004820152601e60248201527f536166654d6174683a207375627472616374696f6e206f766572666c6f770000604482015290519081900360640190fd5b50900390565b600061041183836109d5565b6060828211610728576040805162461bcd60e51b815260206004820152601e60248201527f626567696e2073686f756c64206265206c6f776572207468616e20656e640000604482015290519081900360640190fd5b600061073385610648565b90508084106107425750610411565b600061074e8483610653565b905061075a8186610669565b67ffffffffffffffff8111801561077057600080fd5b5060405190808252806020026020018201604052801561079a578160200160208202803683370190505b509250845b8181101561040d576107b187826106c6565b846107bc8389610669565b815181106107c657fe5b6001600160a01b039092166020928302919091019091015260010161079f565b600082826040516020016107fb929190610b82565b60405160208183030381529060405280519060200120905092915050565b60006104118383610987565b6001600160a01b03821661084b5760405162461bcd60e51b815260040161022890610c8b565b60006108578184610633565b9050806108765760405162461bcd60e51b815260040161022890610d1f565b6001600160a01b03821660009081526004602052604090206102899084610633565b60006104118383610a39565b6000610411836001600160a01b038416610a39565b600061041183835b6000818152600183016020526040812054801561097d57835460001980830191908101906000908790839081106108f457fe5b906000526020600020015490508087600001848154811061091157fe5b60009182526020808320909101929092558281526001898101909252604090209084019055865487908061094157fe5b60019003818190600052602060002001600090559055866001016000878152602001908152602001600020600090556001945050505050610511565b6000915050610511565b60006109938383610a39565b6109c957508154600181810184556000848152602080822090930184905584548482528286019093526040902091909155610511565b506000610511565b5490565b81546000908210610a175760405162461bcd60e51b8152600401808060200182810382526022815260200180610d606022913960400191505060405180910390fd5b826000018281548110610a2657fe5b9060005260206000200154905092915050565b60009081526001919091016020526040902054151590565b604080518082019091526000808252602082015290565b80356001600160a01b038116811461054e57600080fd5b600060208284031215610a90578081fd5b61041182610a68565b60008060408385031215610aab578081fd5b610ab483610a68565b9150610ac260208401610a68565b90509250929050565b600080600060608486031215610adf578081fd5b610ae884610a68565b9250610af660208501610a68565b9150604084013590509250925092565b60008060408385031215610b18578182fd5b610b2183610a68565b946020939093013593505050565b600080600060608486031215610b43578283fd5b610b4c84610a68565b95602085013595506040909401359392505050565b60008060408385031215610b73578182fd5b50508035926020909101359150565b60609290921b6bffffffffffffffffffffffff19168252601482015260340190565b6020808252825182820181905260009190848201906040850190845b81811015610be55783516001600160a01b031683529284019291840191600101610bc0565b50909695505050505050565b602080825282518282018190526000919060409081850190868401855b82811015610c3c57815180516001600160a01b03168552860151868501529284019290850190600101610c0e565b5091979650505050505050565b901515815260200190565b6020808252601e908201527f626567696e2073686f756c64206265206c6f776572207468616e20656e640000604082015260600190565b6020808252601e908201527f696e76616c6964206c697175696469747920706f6f6c20616464726573730000604082015260600190565b60208082526025908201527f63616c6c6572206973206e6f74206c697175696469747920706f6f6c20696e7360408201527f74616e6365000000000000000000000000000000000000000000000000000000606082015260800190565b60208082526015908201527f6c697175696469747920706f6f6c206578697374730000000000000000000000604082015260600190565b9081526020019056fe456e756d657261626c655365743a20696e646578206f7574206f6620626f756e6473a26469706673582212208b159516190ed07446592cc3da6046065102f2ccf067222bdd8c0c8785e40a8664736f6c63430007040033",
  "linkReferences": {},
  "deployedLinkReferences": {}
}