{
  "_format": "hh-sol-artifact-1",
  "contractName": "TestLibSafeMathExt",
  "sourceName": "contracts/test/TestLibSafeMathExt.sol",
  "abi": [
    {
      "inputs": [
        {
          "internalType": "int256",
          "name": "x",
          "type": "int256"
        }
      ],
      "name": "abs",
      "outputs": [
        {
          "internalType": "int256",
          "name": "",
          "type": "int256"
        }
      ],
      "stateMutability": "pure",
      "type": "function"
    },
    {
      "inputs": [
        {
          "internalType": "int256",
          "name": "x",
          "type": "int256"
        },
        {
          "internalType": "int256",
          "name": "y",
          "type": "int256"
        },
        {
          "internalType": "enum Round",
          "name": "round",
          "type": "uint8"
        }
      ],
      "name": "div",
      "outputs": [
        {
          "internalType": "int256",
          "name": "",
          "type": "int256"
        }
      ],
      "stateMutability": "pure",
      "type": "function"
    },
    {
      "inputs": [
        {
          "internalType": "int256",
          "name": "x",
          "type": "int256"
        },
        {
          "internalType": "int256",
          "name": "y",
          "type": "int256"
        }
      ],
      "name": "max",
      "outputs": [
        {
          "internalType": "int256",
          "name": "",
          "type": "int256"
        }
      ],
      "stateMutability": "pure",
      "type": "function"
    },
    {
      "inputs": [
        {
          "internalType": "int256",
          "name": "x",
          "type": "int256"
        },
        {
          "internalType": "int256",
          "name": "y",
          "type": "int256"
        }
      ],
      "name": "min",
      "outputs": [
        {
          "internalType": "int256",
          "name": "",
          "type": "int256"
        }
      ],
      "stateMutability": "pure",
      "type": "function"
    },
    {
      "inputs": [
        {
          "internalType": "int256",
          "name": "x",
          "type": "int256"
        }
      ],
      "name": "neg",
      "outputs": [
        {
          "internalType": "int256",
          "name": "",
          "type": "int256"
        }
      ],
      "stateMutability": "pure",
      "type": "function"
    },
    {
      "inputs": [
        {
          "internalType": "uint256",
          "name": "x",
          "type": "uint256"
        },
        {
          "internalType": "uint256",
          "name": "y",
          "type": "uint256"
        }
      ],
      "name": "umax",
      "outputs": [
        {
          "internalType": "uint256",
          "name": "",
          "type": "uint256"
        }
      ],
      "stateMutability": "pure",
      "type": "function"
    },
    {
      "inputs": [
        {
          "internalType": "uint256",
          "name": "x",
          "type": "uint256"
        },
        {
          "internalType": "uint256",
          "name": "y",
          "type": "uint256"
        }
      ],
      "name": "umin",
      "outputs": [
        {
          "internalType": "uint256",
          "name": "",
          "type": "uint256"
        }
      ],
      "stateMutability": "pure",
      "type": "function"
    },
    {
      "inputs": [
        {
          "internalType": "uint256",
          "name": "x",
          "type": "uint256"
        },
        {
          "internalType": "uint256",
          "name": "y",
          "type": "uint256"
        }
      ],
      "name": "uwdiv",
      "outputs": [
        {
          "internalType": "uint256",
          "name": "",
          "type": "uint256"
        }
      ],
      "stateMutability": "pure",
      "type": "function"
    },
    {
      "inputs": [
        {
          "internalType": "uint256",
          "name": "x",
          "type": "uint256"
        },
        {
          "internalType": "uint256",
          "name": "y",
          "type": "uint256"
        },
        {
          "internalType": "uint256",
          "name": "z",
          "type": "uint256"
        }
      ],
      "name": "uwfrac",
      "outputs": [
        {
          "internalType": "uint256",
          "name": "",
          "type": "uint256"
        }
      ],
      "stateMutability": "pure",
      "type": "function"
    },
    {
      "inputs": [
        {
          "internalType": "uint256",
          "name": "x",
          "type": "uint256"
        },
        {
          "internalType": "uint256",
          "name": "y",
          "type": "uint256"
        }
      ],
      "name": "uwmul",
      "outputs": [
        {
          "internalType": "uint256",
          "name": "",
          "type": "uint256"
        }
      ],
      "stateMutability": "pure",
      "type": "function"
    },
    {
      "inputs": [
        {
          "internalType": "int256",
          "name": "x",
          "type": "int256"
        },
        {
          "internalType": "int256",
          "name": "y",
          "type": "int256"
        },
        {
          "internalType": "enum Round",
          "name": "round",
          "type": "uint8"
        }
      ],
      "name": "wdiv",
      "outputs": [
        {
          "internalType": "int256",
          "name": "",
          "type": "int256"
        }
      ],
      "stateMutability": "pure",
      "type": "function"
    },
    {
      "inputs": [
        {
          "internalType": "int256",
          "name": "x",
          "type": "int256"
        },
        {
          "internalType": "int256",
          "name": "y",
          "type": "int256"
        }
      ],
      "name": "wdiv",
      "outputs": [
        {
          "internalType": "int256",
          "name": "",
          "type": "int256"
        }
      ],
      "stateMutability": "pure",
      "type": "function"
    },
    {
      "inputs": [
        {
          "internalType": "int256",
          "name": "x",
          "type": "int256"
        },
        {
          "internalType": "int256",
          "name": "y",
          "type": "int256"
        },
        {
          "internalType": "int256",
          "name": "z",
          "type": "int256"
        },
        {
          "internalType": "enum Round",
          "name": "round",
          "type": "uint8"
        }
      ],
      "name": "wfrac",
      "outputs": [
        {
          "internalType": "int256",
          "name": "",
          "type": "int256"
        }
      ],
      "stateMutability": "pure",
      "type": "function"
    },
    {
      "inputs": [
        {
          "internalType": "int256",
          "name": "x",
          "type": "int256"
        },
        {
          "internalType": "int256",
          "name": "y",
          "type": "int256"
        },
        {
          "internalType": "int256",
          "name": "z",
          "type": "int256"
        }
      ],
      "name": "wfrac",
      "outputs": [
        {
          "internalType": "int256",
          "name": "",
          "type": "int256"
        }
      ],
      "stateMutability": "pure",
      "type": "function"
    },
    {
      "inputs": [
        {
          "internalType": "int256",
          "name": "x",
          "type": "int256"
        },
        {
          "internalType": "int256",
          "name": "y",
          "type": "int256"
        },
        {
          "internalType": "enum Round",
          "name": "round",
          "type": "uint8"
        }
      ],
      "name": "wmul",
      "outputs": [
        {
          "internalType": "int256",
          "name": "",
          "type": "int256"
        }
      ],
      "stateMutability": "pure",
      "type": "function"
    },
    {
      "inputs": [
        {
          "internalType": "int256",
          "name": "x",
          "type": "int256"
        },
        {
          "internalType": "int256",
          "name": "y",
          "type": "int256"
        }
      ],
      "name": "wmul",
      "outputs": [
        {
          "internalType": "int256",
          "name": "",
          "type": "int256"
        }
      ],
      "stateMutability": "pure",
      "type": "function"
    }
  ],
  "bytecode": "0x608060405234801561001057600080fd5b50610bea806100206000396000f3fe608060405234801561001057600080fd5b50600436106101005760003560e01c806381fe578611610097578063b3fefde311610066578063b3fefde3146102d9578063c537dbcd146102fc578063e4d94ad414610325578063e8c91d601461034e57610100565b806381fe57861461024d5780638309eb9114610270578063a5a4805914610293578063af49db26146102b657610100565b80632ea3ffd7116100d35780632ea3ffd7146101b557806338d2f2df146101e157806354a53dc11461020d5780635919acb01461022a57610100565b8063139404a9146101055780631b5ac4b51461014357806329aa9cbe146101605780632d7be4b714610183575b600080fd5b6101316004803603606081101561011b57600080fd5b508035906020810135906040013560ff16610371565b60408051918252519081900360200190f35b6101316004803603602081101561015957600080fd5b5035610388565b6101316004803603604081101561017657600080fd5b5080359060200135610399565b6101316004803603608081101561019957600080fd5b508035906020810135906040810135906060013560ff166103a5565b610131600480360360608110156101cb57600080fd5b508035906020810135906040013560ff166103bc565b610131600480360360608110156101f757600080fd5b508035906020810135906040013560ff166103c9565b6101316004803603602081101561022357600080fd5b50356103d6565b6101316004803603604081101561024057600080fd5b50803590602001356103e1565b6101316004803603604081101561026357600080fd5b50803590602001356103ed565b6101316004803603604081101561028657600080fd5b50803590602001356103f9565b610131600480360360408110156102a957600080fd5b5080359060200135610405565b610131600480360360408110156102cc57600080fd5b5080359060200135610411565b610131600480360360408110156102ef57600080fd5b508035906020013561041d565b6101316004803603606081101561031257600080fd5b5080359060208101359060400135610429565b6101316004803603606081101561033b57600080fd5b5080359060208101359060400135610436565b6101316004803603604081101561036457600080fd5b5080359060200135610443565b600061037e84848461044f565b90505b9392505050565b60006103938261046d565b92915050565b60006103818383610489565b60006103b38585858561049f565b95945050505050565b600061037e8484846104c3565b600061037e8484846105a3565b6000610393826105c1565b600061038183836105ce565b600061038183836105dd565b600061038183836105ed565b60006103818383610622565b6000610381838361064d565b60006103818383610693565b600061037e8484846106a3565b600061037e8484846106ba565b600061038183836106f7565b600061037e61045e8585610727565b670de0b6b3a7640000846104c3565b60008082121561048557610480826105c1565b610393565b5090565b60008183126104985781610381565b5090919050565b6000806104ac8686610727565b90506104b98185856104c3565b9695505050505050565b600082610517576040805162461bcd60e51b815260206004820152601060248201527f6469766973696f6e206279207a65726f00000000000000000000000000000000604482015290519081900360640190fd5b61052184846107d0565b905082848161052c57fe5b0761053657610381565b60006105428585610888565b9050600083600181111561055257fe5b14801561055c5750805b1561056f5761056c8260016108ab565b91505b600183600181111561057d57fe5b148015610588575080155b1561059b57610598826001610910565b91505b509392505050565b600061037e6105ba85670de0b6b3a7640000610727565b84846104c3565b6000610393600083610910565b60008183106104985781610381565b6000818312156104985781610381565b6000670de0b6b3a76400006106136106058585610727565b670de0b6b3a7640000610975565b8161061a57fe5b059392505050565b6000610381826106476002820461064187670de0b6b3a76400006109f4565b90610a4d565b90610aa7565b60008082121561066e57610660826105c1565b915061066b836105c1565b92505b6103818261068d61068786670de0b6b3a7640000610727565b85610975565b906107d0565b6000818310156104985781610381565b600061037e826106476002820461064188886109f4565b6000806106c78585610727565b905060008312156106e9576106db836105c1565b92506106e6816105c1565b90505b6105988361068d8386610975565b6000670de0b6b3a76400006107186706f05b59d3b2000061064186866109f4565b8161071f57fe5b049392505050565b60008261073657506000610393565b8260001914801561074a5750600160ff1b82145b156107865760405162461bcd60e51b8152600401808060200182810382526027815260200180610b6a6027913960400191505060405180910390fd5b8282028284828161079357fe5b05146103815760405162461bcd60e51b8152600401808060200182810382526027815260200180610b6a6027913960400191505060405180910390fd5b600081610824576040805162461bcd60e51b815260206004820181905260248201527f5369676e6564536166654d6174683a206469766973696f6e206279207a65726f604482015290519081900360640190fd5b816000191480156108385750600160ff1b83145b156108745760405162461bcd60e51b8152600401808060200182810382526021815260200180610b286021913960400191505060405180910390fd5b600082848161087f57fe5b05949350505050565b6000821580610895575081155b156108a257506001610393565b501860ff1d1590565b60008282018183128015906108c05750838112155b806108d557506000831280156108d557508381125b6103815760405162461bcd60e51b8152600401808060200182810382526021815260200180610b076021913960400191505060405180910390fd5b60008183038183128015906109255750838113155b8061093a575060008312801561093a57508381135b6103815760405162461bcd60e51b8152600401808060200182810382526024815260200180610b916024913960400191505060405180910390fd5b60008082136109cb576040805162461bcd60e51b815260206004820152601f60248201527f726f756e6448616c665570206f6e6c7920737570706f7274732079203e203000604482015290519081900360640190fd5b600083126109e7576109e083600284056108ab565b9050610393565b6103818360028405610910565b600082610a0357506000610393565b82820282848281610a1057fe5b04146103815760405162461bcd60e51b8152600401808060200182810382526021815260200180610b496021913960400191505060405180910390fd5b600082820183811015610381576040805162461bcd60e51b815260206004820152601b60248201527f536166654d6174683a206164646974696f6e206f766572666c6f770000000000604482015290519081900360640190fd5b6000808211610afd576040805162461bcd60e51b815260206004820152601a60248201527f536166654d6174683a206469766973696f6e206279207a65726f000000000000604482015290519081900360640190fd5b81838161071f57fefe5369676e6564536166654d6174683a206164646974696f6e206f766572666c6f775369676e6564536166654d6174683a206469766973696f6e206f766572666c6f77536166654d6174683a206d756c7469706c69636174696f6e206f766572666c6f775369676e6564536166654d6174683a206d756c7469706c69636174696f6e206f766572666c6f775369676e6564536166654d6174683a207375627472616374696f6e206f766572666c6f77a264697066735822122059e379163e1c381ce7d878ee433a86038cd9955eae9f43fab4dea18aa357e0ed64736f6c63430007040033",
  "linkReferences": {},
  "deployedLinkReferences": {}
}