{
  "_format": "hh-sol-artifact-1",
  "contractName": "TestAMM",
  "sourceName": "contracts/test/TestAMM.sol",
  "abi": [
    {
      "inputs": [
        {
          "internalType": "int256",
          "name": "shareTotalSupply",
          "type": "int256"
        },
        {
          "internalType": "int256",
          "name": "shareToMint",
          "type": "int256"
        }
      ],
      "name": "getCashToAdd",
      "outputs": [
        {
          "internalType": "int256",
          "name": "",
          "type": "int256"
        }
      ],
      "stateMutability": "view",
      "type": "function"
    },
    {
      "inputs": [
        {
          "internalType": "int256",
          "name": "shareTotalSupply",
          "type": "int256"
        },
        {
          "internalType": "int256",
          "name": "shareToRemove",
          "type": "int256"
        }
      ],
      "name": "getCashToReturn",
      "outputs": [
        {
          "internalType": "int256",
          "name": "cashToReturn",
          "type": "int256"
        },
        {
          "internalType": "int256",
          "name": "removedInsuranceFund",
          "type": "int256"
        },
        {
          "internalType": "int256",
          "name": "removedDonatedInsuranceFund",
          "type": "int256"
        },
        {
          "internalType": "int256",
          "name": "removedPoolMargin",
          "type": "int256"
        }
      ],
      "stateMutability": "view",
      "type": "function"
    },
    {
      "inputs": [
        {
          "internalType": "int256",
          "name": "amount",
          "type": "int256"
        }
      ],
      "name": "getDeltaCash",
      "outputs": [
        {
          "internalType": "int256",
          "name": "deltaCash",
          "type": "int256"
        }
      ],
      "stateMutability": "view",
      "type": "function"
    },
    {
      "inputs": [],
      "name": "getPoolMargin",
      "outputs": [
        {
          "internalType": "int256",
          "name": "",
          "type": "int256"
        }
      ],
      "stateMutability": "view",
      "type": "function"
    },
    {
      "inputs": [
        {
          "internalType": "int256",
          "name": "shareTotalSupply",
          "type": "int256"
        },
        {
          "internalType": "int256",
          "name": "cashToAdd",
          "type": "int256"
        }
      ],
      "name": "getShareToMint",
      "outputs": [
        {
          "internalType": "int256",
          "name": "",
          "type": "int256"
        },
        {
          "internalType": "int256",
          "name": "",
          "type": "int256"
        }
      ],
      "stateMutability": "view",
      "type": "function"
    },
    {
      "inputs": [
        {
          "internalType": "int256",
          "name": "shareTotalSupply",
          "type": "int256"
        },
        {
          "internalType": "int256",
          "name": "cashToReturn",
          "type": "int256"
        }
      ],
      "name": "getShareToRemove",
      "outputs": [
        {
          "internalType": "int256",
          "name": "shareToRemove",
          "type": "int256"
        },
        {
          "internalType": "int256",
          "name": "removedInsuranceFund",
          "type": "int256"
        },
        {
          "internalType": "int256",
          "name": "removedDonatedInsuranceFund",
          "type": "int256"
        },
        {
          "internalType": "int256",
          "name": "removedPoolMargin",
          "type": "int256"
        }
      ],
      "stateMutability": "view",
      "type": "function"
    },
    {
      "inputs": [],
      "name": "isAMMSafe",
      "outputs": [
        {
          "internalType": "bool",
          "name": "",
          "type": "bool"
        }
      ],
      "stateMutability": "view",
      "type": "function"
    },
    {
      "inputs": [
        {
          "internalType": "bool",
          "name": "isLongSide",
          "type": "bool"
        }
      ],
      "name": "maxPosition",
      "outputs": [
        {
          "internalType": "int256",
          "name": "",
          "type": "int256"
        }
      ],
      "stateMutability": "view",
      "type": "function"
    },
    {
      "inputs": [
        {
          "internalType": "int256",
          "name": "tradeAmount",
          "type": "int256"
        },
        {
          "internalType": "bool",
          "name": "partialFill",
          "type": "bool"
        }
      ],
      "name": "queryTradeWithAMM",
      "outputs": [
        {
          "internalType": "int256",
          "name": "deltaCash",
          "type": "int256"
        },
        {
          "internalType": "int256",
          "name": "deltaPosition",
          "type": "int256"
        }
      ],
      "stateMutability": "view",
      "type": "function"
    },
    {
      "inputs": [],
      "name": "setAllCleared",
      "outputs": [],
      "stateMutability": "nonpayable",
      "type": "function"
    },
    {
      "inputs": [
        {
          "internalType": "int256",
          "name": "insuranceFund",
          "type": "int256"
        },
        {
          "internalType": "int256",
          "name": "donatedInsuranceFund",
          "type": "int256"
        }
      ],
      "name": "setInsuranceFund",
      "outputs": [],
      "stateMutability": "nonpayable",
      "type": "function"
    },
    {
      "inputs": [
        {
          "internalType": "int256",
          "name": "ammMaxLeverage",
          "type": "int256"
        },
        {
          "internalType": "int256",
          "name": "cash",
          "type": "int256"
        },
        {
          "internalType": "int256",
          "name": "positionAmount1",
          "type": "int256"
        },
        {
          "internalType": "int256",
          "name": "positionAmount2",
          "type": "int256"
        },
        {
          "internalType": "int256",
          "name": "indexPrice1",
          "type": "int256"
        },
        {
          "internalType": "int256",
          "name": "indexPrice2",
          "type": "int256"
        },
        {
          "internalType": "enum PerpetualState",
          "name": "state",
          "type": "uint8"
        }
      ],
      "name": "setParams",
      "outputs": [],
      "stateMutability": "nonpayable",
      "type": "function"
    }
  ],
  "bytecode": "0x6080604052671a5e27eef13e000060005566038d7ea4c68000600155670de0b6b3a7640000600255670c7d713b49da00006003556702c68af0bb14000060045534801561004b57600080fd5b506119a38061005b6000396000f3fe608060405234801561001057600080fd5b50600436106100d45760003560e01c806345525a8f11610081578063bbd8b4401161005b578063bbd8b440146101b1578063dbabbf77146101c4578063e551c7af146101cc576100d4565b806345525a8f146101765780635e6a5ad9146101895780636c0bca911461019e576100d4565b80631e9d8787116100b25780631e9d878714610146578063370c53301461015957806338e7138614610163576100d4565b806303a063ad146100d95780630ce579a6146101035780631d26f1dd14610123575b600080fd5b6100ec6100e736600461166d565b6101df565b6040516100fa92919061175c565b60405180910390f35b6101166101113660046115f8565b610278565b6040516100fa9190611753565b61013661013136600461166d565b6102df565b6040516100fa949392919061176a565b6100ec610154366004611642565b610381565b61016161041d565b005b61013661017136600461166d565b610484565b610116610184366004611612565b6104c6565b610191610535565b6040516100fa9190611748565b6101616101ac3660046116e6565b61058e565b6101166101bf36600461166d565b6108c9565b61011661097a565b6101616101da36600461166d565b6109cc565b60008073__$9dbf359c583e30ecde0fd5d5870700bb49$__63f72ee9c8600586866040518463ffffffff1660e01b815260040161021e939291906118ad565b604080518083038186803b15801561023557600080fd5b505af4158015610249573d6000803e3d6000fd5b505050506040513d601f19601f8201168201806040525081019061026d919061168e565b915091509250929050565b600080805260156020527fa31547ce6245cdb9ecea19cf8c7eb9f5974025bb4075011409251ae855b30aed6102ab6115b2565b6102b7600560006109d7565b90506102d5816102c561097a565b6025850154601986015488610bd0565b925050505b919050565b60008060008073__$9dbf359c583e30ecde0fd5d5870700bb49$__63eeffc15d600588886040518463ffffffff1660e01b8152600401610321939291906118ad565b60806040518083038186803b15801561033957600080fd5b505af415801561034d573d6000803e3d6000fd5b505050506040513d601f19601f8201168201806040525081019061037191906116b1565b9299919850965090945092505050565b60008073__$9dbf359c583e30ecde0fd5d5870700bb49$__63f9d9f3996005600087876040518563ffffffff1660e01b81526004016103c394939291906118c3565b604080518083038186803b1580156103da57600080fd5b505af41580156103ee573d6000803e3d6000fd5b505050506040513d601f19601f82011682018060405250810190610412919061168e565b909590945092505050565b60156020527fa31547ce6245cdb9ecea19cf8c7eb9f5974025bb4075011409251ae855b30aee8054600460ff19918216811790925560016000527f27739e4bb5e6f8b5e4b57a047dca8767cc9b982a011081e086cbb0dfa9de818e80549091169091179055565b60008060008073__$9dbf359c583e30ecde0fd5d5870700bb49$__6368dddaa6600588886040518463ffffffff1660e01b8152600401610321939291906118ad565b600080805260156020527fa31547ce6245cdb9ecea19cf8c7eb9f5974025bb4075011409251ae855b30aed61052e6104fc61097a565b30600090815260348401602052604090206001015461051b8187610d40565b61052485610da5565b6019860154610dd3565b9392505050565b600080805260156020527fa31547ce6245cdb9ecea19cf8c7eb9f5974025bb4075011409251ae855b30aed6105686115b2565b610574600560006109d7565b9050610587818360190160000154610e21565b9250505090565b60007fa31547ce6245cdb9ecea19cf8c7eb9f5974025bb4075011409251ae855b30aed8190557fa31547ce6245cdb9ecea19cf8c7eb9f5974025bb4075011409251ae855b30aee8054600260ff19918216811790925582547fa31547ce6245cdb9ecea19cf8c7eb9f5974025bb4075011409251ae855b30af855600180547fa31547ce6245cdb9ecea19cf8c7eb9f5974025bb4075011409251ae855b30b035591547fa31547ce6245cdb9ecea19cf8c7eb9f5974025bb4075011409251ae855b30b06556003547fa31547ce6245cdb9ecea19cf8c7eb9f5974025bb4075011409251ae855b30b09557fa31547ce6245cdb9ecea19cf8c7eb9f5974025bb4075011409251ae855b30b128a9055600480547fa31547ce6245cdb9ecea19cf8c7eb9f5974025bb4075011409251ae855b30b1555600e8a90553084527fa31547ce6245cdb9ecea19cf8c7eb9f5974025bb4075011409251ae855b30b2160209081526040852084018a9055601590527fa31547ce6245cdb9ecea19cf8c7eb9f5974025bb4075011409251ae855b30af1879055928290527f27739e4bb5e6f8b5e4b57a047dca8767cc9b982a011081e086cbb0dfa9de818d8290557f27739e4bb5e6f8b5e4b57a047dca8767cc9b982a011081e086cbb0dfa9de818e80548594919392169190849081111561077e57fe5b021790555050600080547f27739e4bb5e6f8b5e4b57a047dca8767cc9b982a011081e086cbb0dfa9de819855600180547f27739e4bb5e6f8b5e4b57a047dca8767cc9b982a011081e086cbb0dfa9de81a355600280547f27739e4bb5e6f8b5e4b57a047dca8767cc9b982a011081e086cbb0dfa9de81a6556003547f27739e4bb5e6f8b5e4b57a047dca8767cc9b982a011081e086cbb0dfa9de81a9557f27739e4bb5e6f8b5e4b57a047dca8767cc9b982a011081e086cbb0dfa9de81b2989098556004547f27739e4bb5e6f8b5e4b57a047dca8767cc9b982a011081e086cbb0dfa9de81b5553082527f27739e4bb5e6f8b5e4b57a047dca8767cc9b982a011081e086cbb0dfa9de81c160209081526040832082019590955590526015909252507f27739e4bb5e6f8b5e4b57a047dca8767cc9b982a011081e086cbb0dfa9de8191555050601455565b6040517f89127d5200000000000000000000000000000000000000000000000000000000815260009073__$9dbf359c583e30ecde0fd5d5870700bb49$__906389127d529061092190600590879087906004016118ad565b60206040518083038186803b15801561093957600080fd5b505af415801561094d573d6000803e3d6000fd5b505050506040513d601f19601f82011682018060405250810190610971919061162a565b90505b92915050565b600080805260156020527fa31547ce6245cdb9ecea19cf8c7eb9f5974025bb4075011409251ae855b30aed6109ad6115b2565b6109b9600560006109d7565b9050610587818360190160000154610e94565b601791909155601855565b6109df6115b2565b600f830154600090815b81811015610b6257600081815260108701602052604090206002600182015460ff166004811115610a1657fe5b14610a215750610b5a565b6000610a2d8230610f6d565b90506000610a3a83610da5565b905060008113610a655760405162461bcd60e51b8152600401610a5c906117e2565b60405180910390fd5b610a7d610a728430610f9b565b60a089015190610d40565b60a0880152600d830154610aaf90610aa890610aa390610a9d8587610fea565b90610fea565b61101f565b8790610d40565b955087841415610ac85780875260208701829052610b56565b610ae2610ad78284600161103b565b604089015190610d40565b60408801526019830154610b2090610b1590610b0f846000610b088282828b808361103b565b919061103b565b90611059565b606089015190610d40565b60608801526025830154610b5090610b4590610b3f610aa38587610fea565b90611102565b608089015190610d40565b60808801525b5050505b6001016109e9565b50600985015460a0840151610b7691610d40565b60a0840152602083015183518391610baa91610b9191610fea565b604086015160a0870151610ba491610d40565b90610d40565b1215610bc85760405162461bcd60e51b8152600401610a5c90611819565b505092915050565b84516060860151600091908290610bfc908690610b3f90610bf66002610b0f8d80611059565b90611142565b905060008113610c1157600092505050610d37565b6000610c2083610b3f846111a7565b90506000610c59610c496002610c438c8e6060015161125d90919063ffffffff16565b9061125d565b60808c0151610ba4908c90611142565b9250610c6b87610a9d8a818782610fea565b9250610c82610c7b846002611059565b8a90611142565b92506000831215610cb457507f7fffffffffffffffffffffffffffffffffffffffffffffffffffffffffffffff610cf0565b610cdb6000610cd5610cce610cc9878e611059565b6111a7565b8c90611142565b90611315565b9050610ced84610b3f8981858d611102565b90505b610cfa828261132c565b94508515610d26576000610d1285610b3f8c8b611102565b9050610d1e868261132c565b955050610d32565b610d2f8561133b565b94505b505050505b95945050505050565b6000828201818312801590610d555750838112155b80610d6a5750600083128015610d6a57508381125b6109715760405162461bcd60e51b81526004018080602001828103825260218152602001806118e16021913960400191505060405180910390fd5b60006002600183015460ff166004811115610dbc57fe5b14610dcb576008820154610974565b506004015490565b6000610df48287610ded6002610c4388610a9d8b8d610d40565b9190611348565b9050610e17610e038686611142565b610a9d8581670de0b6b3a764000086611142565b9695505050505050565b602082015182516000918291610e3691610fea565b90506000610e4884610b0f8480610fea565b9050610e83610e64838760400151610d4090919063ffffffff16565b610bf6610cc96002610b0f8a6060015187610d4090919063ffffffff16565b60a086015112159250505092915050565b602082015182516000918291610ea991610fea565b90506000610ecc8560a00151610ba4876040015185610d4090919063ffffffff16565b90506000610eef8660600151610ba487610b0f8788610fea90919063ffffffff16565b90506000610f0b610f01836002611059565b610bf68580611059565b90506000811215610f2e5760405162461bcd60e51b8152600401610a5c90611785565b610f406002610c4385610ba4856111a7565b94506000851215610f635760405162461bcd60e51b8152600401610a5c90611850565b5050505092915050565b73ffffffffffffffffffffffffffffffffffffffff1660009081526034909101602052604090206001015490565b73ffffffffffffffffffffffffffffffffffffffff811660009081526034830160205260408120600b8401546001820154610fe291610fda9190610fea565b825490611142565b949350505050565b6000670de0b6b3a76400006110106110028585611059565b670de0b6b3a7640000611381565b8161101757fe5b059392505050565b600080821215611037576110328261133b565b610974565b5090565b6000610fe261104a8585611059565b670de0b6b3a764000084611400565b60008261106857506000610974565b8260001914801561107c5750600160ff1b82145b156110b85760405162461bcd60e51b81526004018080602001828103825260278152602001806119236027913960400191505060405180910390fd5b828202828482816110c557fe5b05146109715760405162461bcd60e51b81526004018080602001828103825260278152602001806119236027913960400191505060405180910390fd5b600080821215611123576111158261133b565b91506111208361133b565b92505b61097182610c4361113c86670de0b6b3a7640000611059565b85611381565b60008183038183128015906111575750838113155b8061116c575060008312801561116c57508381135b6109715760405162461bcd60e51b815260040180806020018281038252602481526020018061194a6024913960400191505060405180910390fd5b6000808212156111fe576040805162461bcd60e51b815260206004820152600d60248201527f6e65676174697665207371727400000000000000000000000000000000000000604482015290519081900360640190fd5b60038212156112145750600260018201056102da565b600061121f836114dd565b9050600260ff6001830116046001908101915060ff82161b60005b5080600181868161124757fe5b058301901d915080821261123a57949350505050565b6000816112b1576040805162461bcd60e51b815260206004820181905260248201527f5369676e6564536166654d6174683a206469766973696f6e206279207a65726f604482015290519081900360640190fd5b816000191480156112c55750600160ff1b83145b156113015760405162461bcd60e51b81526004018080602001828103825260218152602001806119026021913960400191505060405180910390fd5b600082848161130c57fe5b05949350505050565b6000818312156113255781610971565b5090919050565b60008183126113255781610971565b6000610974600083611142565b6000806113558585611059565b90506000831215611377576113698361133b565b92506113748161133b565b90505b610d3783610c4383865b60008082136113d7576040805162461bcd60e51b815260206004820152601f60248201527f726f756e6448616c665570206f6e6c7920737570706f7274732079203e203000604482015290519081900360640190fd5b600083126113f3576113ec8360028405610d40565b9050610974565b6109718360028405611142565b600082611454576040805162461bcd60e51b815260206004820152601060248201527f6469766973696f6e206279207a65726f00000000000000000000000000000000604482015290519081900360640190fd5b61145e848461125d565b905082848161146957fe5b076114735761052e565b600061147f858561158f565b9050600083600181111561148f57fe5b1480156114995750805b156114ac576114a9826001610d40565b91505b60018360018111156114ba57fe5b1480156114c5575080155b156114d557610d37826001611142565b509392505050565b6000608082901c8181156114f45790925082906080015b604084901c9150811561150a5790925082906040015b602084901c915081156115205790925082906020015b601084901c915081156115365790925082906010015b600884901c9150811561154c5790925082906008015b600484901c915081156115625790925082906004015b600284901c915081156115785790925082906002015b600184901c9150811561052e576001019392505050565b600082158061159c575081155b156115a957506001610974565b501860ff1d1590565b6040518060c001604052806000815260200160008152602001600081526020016000815260200160008152602001600081525090565b803580151581146102da57600080fd5b600060208284031215611609578081fd5b610971826115e8565b600060208284031215611623578081fd5b5035919050565b60006020828403121561163b578081fd5b5051919050565b60008060408385031215611654578081fd5b82359150611664602084016115e8565b90509250929050565b6000806040838503121561167f578182fd5b50508035926020909101359150565b600080604083850312156116a0578182fd5b505080516020909101519092909150565b600080600080608085870312156116c6578182fd5b505082516020840151604085015160609095015191969095509092509050565b600080600080600080600060e0888a031215611700578283fd5b873596506020880135955060408801359450606088013593506080880135925060a0880135915060c088013560058110611738578182fd5b8091505092959891949750929550565b901515815260200190565b90815260200190565b918252602082015260400190565b93845260208401929092526040830152606082015260800190565b6020808252602a908201527f414d4d20697320756e73616665207768656e2063616c63756c6174696e67207060408201527f6f6f6c206d617267696e00000000000000000000000000000000000000000000606082015260800190565b6020808252601c908201527f696e646578207072696365206d75737420626520706f73697469766500000000604082015260600190565b60208082526010908201527f414d4d206973206d6d20756e7361666500000000000000000000000000000000604082015260600190565b60208082526034908201527f706f6f6c206d617267696e206973206e65676174697665207768656e2063616c60408201527f63756c6174696e6720706f6f6c206d617267696e000000000000000000000000606082015260800190565b9283526020830191909152604082015260600190565b93845260208401929092526040830152151560608201526080019056fe5369676e6564536166654d6174683a206164646974696f6e206f766572666c6f775369676e6564536166654d6174683a206469766973696f6e206f766572666c6f775369676e6564536166654d6174683a206d756c7469706c69636174696f6e206f766572666c6f775369676e6564536166654d6174683a207375627472616374696f6e206f766572666c6f77a2646970667358221220db1687776190eccacabcc2c090b6e621d0804402b5f08ff0221718f6ed41873364736f6c63430007040033",
  "linkReferences": {
    "contracts/module/AMMModule.sol": {
      "AMMModule": [
        {
          "length": 20,
          "start": 575
        },
        {
          "length": 20,
          "start": 834
        },
        {
          "length": 20,
          "start": 993
        },
        {
          "length": 20,
          "start": 1255
        },
        {
          "length": 20,
          "start": 2383
        }
      ]
    }
  },
  "deployedLinkReferences": {
    "contracts/module/AMMModule.sol": {
      "AMMModule": [
        {
          "length": 20,
          "start": 484
        },
        {
          "length": 20,
          "start": 743
        },
        {
          "length": 20,
          "start": 902
        },
        {
          "length": 20,
          "start": 1164
        },
        {
          "length": 20,
          "start": 2292
        }
      ]
    }
  }
}