{
  "_format": "hh-sol-artifact-1",
  "contractName": "OracleAdaptor",
  "sourceName": "contracts/oracle/simple/OracleAdaptor.sol",
  "abi": [
    {
      "inputs": [
        {
          "internalType": "string",
          "name": "collateral_",
          "type": "string"
        },
        {
          "internalType": "string",
          "name": "underlyingAsset_",
          "type": "string"
        }
      ],
      "stateMutability": "nonpayable",
      "type": "constructor"
    },
    {
      "anonymous": false,
      "inputs": [
        {
          "indexed": true,
          "internalType": "address",
          "name": "previousOwner",
          "type": "address"
        },
        {
          "indexed": true,
          "internalType": "address",
          "name": "newOwner",
          "type": "address"
        }
      ],
      "name": "OwnershipTransferred",
      "type": "event"
    },
    {
      "inputs": [],
      "name": "checkHeartStop",
      "outputs": [
        {
          "internalType": "bool",
          "name": "",
          "type": "bool"
        }
      ],
      "stateMutability": "nonpayable",
      "type": "function"
    },
    {
      "inputs": [],
      "name": "collateral",
      "outputs": [
        {
          "internalType": "string",
          "name": "",
          "type": "string"
        }
      ],
      "stateMutability": "view",
      "type": "function"
    },
    {
      "inputs": [],
      "name": "isMarketClosed",
      "outputs": [
        {
          "internalType": "bool",
          "name": "",
          "type": "bool"
        }
      ],
      "stateMutability": "view",
      "type": "function"
    },
    {
      "inputs": [],
      "name": "isTerminated",
      "outputs": [
        {
          "internalType": "bool",
          "name": "",
          "type": "bool"
        }
      ],
      "stateMutability": "nonpayable",
      "type": "function"
    },
    {
      "inputs": [],
      "name": "maxHeartBeat",
      "outputs": [
        {
          "internalType": "uint256",
          "name": "",
          "type": "uint256"
        }
      ],
      "stateMutability": "view",
      "type": "function"
    },
    {
      "inputs": [],
      "name": "owner",
      "outputs": [
        {
          "internalType": "address",
          "name": "",
          "type": "address"
        }
      ],
      "stateMutability": "view",
      "type": "function"
    },
    {
      "inputs": [],
      "name": "priceTWAPLong",
      "outputs": [
        {
          "internalType": "int256",
          "name": "newPrice",
          "type": "int256"
        },
        {
          "internalType": "uint256",
          "name": "newTimestamp",
          "type": "uint256"
        }
      ],
      "stateMutability": "view",
      "type": "function"
    },
    {
      "inputs": [],
      "name": "priceTWAPShort",
      "outputs": [
        {
          "internalType": "int256",
          "name": "newPrice",
          "type": "int256"
        },
        {
          "internalType": "uint256",
          "name": "newTimestamp",
          "type": "uint256"
        }
      ],
      "stateMutability": "view",
      "type": "function"
    },
    {
      "inputs": [],
      "name": "renounceOwnership",
      "outputs": [],
      "stateMutability": "nonpayable",
      "type": "function"
    },
    {
      "inputs": [
        {
          "internalType": "int256",
          "name": "price",
          "type": "int256"
        },
        {
          "internalType": "uint256",
          "name": "timestamp",
          "type": "uint256"
        }
      ],
      "name": "setIndexPrice",
      "outputs": [],
      "stateMutability": "nonpayable",
      "type": "function"
    },
    {
      "inputs": [
        {
          "internalType": "int256",
          "name": "price",
          "type": "int256"
        },
        {
          "internalType": "uint256",
          "name": "timestamp",
          "type": "uint256"
        }
      ],
      "name": "setMarkPrice",
      "outputs": [],
      "stateMutability": "nonpayable",
      "type": "function"
    },
    {
      "inputs": [
        {
          "internalType": "bool",
          "name": "isClosed",
          "type": "bool"
        }
      ],
      "name": "setMarketClosed",
      "outputs": [],
      "stateMutability": "nonpayable",
      "type": "function"
    },
    {
      "inputs": [
        {
          "internalType": "uint256",
          "name": "maxHeartBeat_",
          "type": "uint256"
        }
      ],
      "name": "setMaxHeartBeat",
      "outputs": [],
      "stateMutability": "nonpayable",
      "type": "function"
    },
    {
      "inputs": [
        {
          "internalType": "bool",
          "name": "isTerminated_",
          "type": "bool"
        }
      ],
      "name": "setTerminated",
      "outputs": [],
      "stateMutability": "nonpayable",
      "type": "function"
    },
    {
      "inputs": [
        {
          "internalType": "address",
          "name": "newOwner",
          "type": "address"
        }
      ],
      "name": "transferOwnership",
      "outputs": [],
      "stateMutability": "nonpayable",
      "type": "function"
    },
    {
      "inputs": [],
      "name": "underlyingAsset",
      "outputs": [
        {
          "internalType": "string",
          "name": "",
          "type": "string"
        }
      ],
      "stateMutability": "view",
      "type": "function"
    }
  ],
  "bytecode": "0x60806040523480156200001157600080fd5b5060405162000c9f38038062000c9f833981810160405260408110156200003757600080fd5b81019080805160405193929190846401000000008211156200005857600080fd5b9083019060208201858111156200006e57600080fd5b82516401000000008111828201881017156200008957600080fd5b82525081516020918201929091019080838360005b83811015620000b85781810151838201526020016200009e565b50505050905090810190601f168015620000e65780820380516001836020036101000a031916815260200191505b50604052602001805160405193929190846401000000008211156200010a57600080fd5b9083019060208201858111156200012057600080fd5b82516401000000008111828201881017156200013b57600080fd5b82525081516020918201929091019080838360005b838110156200016a57818101518382015260200162000150565b50505050905090810190601f168015620001985780820380516001836020036101000a031916815260200191505b506040525050506000620001b16200022f60201b60201c565b600080546001600160a01b0319166001600160a01b0383169081178255604051929350917f8be0079c531659141344cd1fd0a4f28419497f9722a3daafe3b4186f6b6457e0908290a35081516200021090600190602085019062000233565b5080516200022690600290602084019062000233565b505050620002df565b3390565b828054600181600116156101000203166002900490600052602060002090601f0160209004810192826200026b5760008555620002b6565b82601f106200028657805160ff1916838001178555620002b6565b82800160010185558215620002b6579182015b82811115620002b657825182559160200191906001019062000299565b50620002c4929150620002c8565b5090565b5b80821115620002c45760008155600101620002c9565b6109b080620002ef6000396000f3fe608060405234801561001057600080fd5b50600436106101005760003560e01c8063b3ba439f11610097578063d8dfeb4511610066578063d8dfeb4514610287578063dff414561461028f578063f2fde38b146102a9578063f9a46a83146102cf57610100565b8063b3ba439f1461024c578063b7e86c1f1461026f578063ccbdbee214610277578063d1cc99761461027f57610100565b8063715018a6116100d3578063715018a6146101865780637158da7c1461018e5780638da5cb5b1461020b578063961549831461022f57610100565b80630e222f9b1461010557806318fcb4801461012657806346a33ba11461014b5780635a75b55e14610167575b600080fd5b61010d6102ee565b6040805192835260208301919091528051918290030190f35b6101496004803603604081101561013c57600080fd5b50803590602001356102f8565b005b61015361038d565b604080519115158252519081900360200190f35b6101496004803603602081101561017d57600080fd5b503515156103dd565b61014961046f565b61019661053a565b6040805160208082528351818301528351919283929083019185019080838360005b838110156101d05781810151838201526020016101b8565b50505050905090810190601f1680156101fd5780820380516001836020036101000a031916815260200191505b509250505060405180910390f35b6102136105cd565b604080516001600160a01b039092168252519081900360200190f35b6101496004803603602081101561024557600080fd5b50356105dc565b6101496004803603604081101561026257600080fd5b5080359060200135610655565b6101536106e6565b61010d6106f6565b610153610700565b61019661071c565b61029761077c565b60408051918252519081900360200190f35b610149600480360360208110156102bf57600080fd5b50356001600160a01b0316610782565b610149600480360360208110156102e557600080fd5b503515156108a3565b6005546006549091565b610300610950565b6001600160a01b03166103116105cd565b6001600160a01b03161461036c576040805162461bcd60e51b815260206004820181905260248201527f4f776e61626c653a2063616c6c6572206973206e6f7420746865206f776e6572604482015290519081900360640190fd5b61037461038d565b1561037e57610389565b600582905560068190555b5050565b6000600754600014806103a05750600654155b156103ad575060006103da565b600754600654014211156103d657506000805460ff60a81b1916600160a81b17905560016103da565b5060005b90565b6103e5610950565b6001600160a01b03166103f66105cd565b6001600160a01b031614610451576040805162461bcd60e51b815260206004820181905260248201527f4f776e61626c653a2063616c6c6572206973206e6f7420746865206f776e6572604482015290519081900360640190fd5b60008054911515600160a81b0260ff60a81b19909216919091179055565b610477610950565b6001600160a01b03166104886105cd565b6001600160a01b0316146104e3576040805162461bcd60e51b815260206004820181905260248201527f4f776e61626c653a2063616c6c6572206973206e6f7420746865206f776e6572604482015290519081900360640190fd5b600080546040516001600160a01b03909116907f8be0079c531659141344cd1fd0a4f28419497f9722a3daafe3b4186f6b6457e0908390a36000805473ffffffffffffffffffffffffffffffffffffffff19169055565b60028054604080516020601f60001961010060018716150201909416859004938401819004810282018101909252828152606093909290918301828280156105c35780601f10610598576101008083540402835291602001916105c3565b820191906000526020600020905b8154815290600101906020018083116105a657829003601f168201915b5050505050905090565b6000546001600160a01b031690565b6105e4610950565b6001600160a01b03166105f56105cd565b6001600160a01b031614610650576040805162461bcd60e51b815260206004820181905260248201527f4f776e61626c653a2063616c6c6572206973206e6f7420746865206f776e6572604482015290519081900360640190fd5b600755565b61065d610950565b6001600160a01b031661066e6105cd565b6001600160a01b0316146106c9576040805162461bcd60e51b815260206004820181905260248201527f4f776e61626c653a2063616c6c6572206973206e6f7420746865206f776e6572604482015290519081900360640190fd5b6106d161038d565b156106db57610389565b600391909155600455565b600054600160a01b900460ff1690565b6003546004549091565b600061070a61038d565b5050600054600160a81b900460ff1690565b60018054604080516020601f600260001961010087891615020190951694909404938401819004810282018101909252828152606093909290918301828280156105c35780601f10610598576101008083540402835291602001916105c3565b60075481565b61078a610950565b6001600160a01b031661079b6105cd565b6001600160a01b0316146107f6576040805162461bcd60e51b815260206004820181905260248201527f4f776e61626c653a2063616c6c6572206973206e6f7420746865206f776e6572604482015290519081900360640190fd5b6001600160a01b03811661083b5760405162461bcd60e51b81526004018080602001828103825260268152602001806109556026913960400191505060405180910390fd5b600080546040516001600160a01b03808516939216917f8be0079c531659141344cd1fd0a4f28419497f9722a3daafe3b4186f6b6457e091a36000805473ffffffffffffffffffffffffffffffffffffffff19166001600160a01b0392909216919091179055565b6108ab610950565b6001600160a01b03166108bc6105cd565b6001600160a01b031614610917576040805162461bcd60e51b815260206004820181905260248201527f4f776e61626c653a2063616c6c6572206973206e6f7420746865206f776e6572604482015290519081900360640190fd5b60008054911515600160a01b027fffffffffffffffffffffff00ffffffffffffffffffffffffffffffffffffffff909216919091179055565b339056fe4f776e61626c653a206e6577206f776e657220697320746865207a65726f2061646472657373a26469706673582212203eb9095557b4619a5e1ca2952043afaca0389dd714b805015db82ec10e30e65864736f6c63430007040033",
  "linkReferences": {},
  "deployedLinkReferences": {}
}