{
  "_format": "hh-sol-artifact-1",
  "contractName": "AMMModule",
  "sourceName": "contracts/module/AMMModule.sol",
  "abi": [
    {
      "inputs": [
        {
          "components": [
            {
              "internalType": "int256",
              "name": "indexPrice",
              "type": "int256"
            },
            {
              "internalType": "int256",
              "name": "position",
              "type": "int256"
            },
            {
              "internalType": "int256",
              "name": "positionValue",
              "type": "int256"
            },
            {
              "internalType": "int256",
              "name": "squareValue",
              "type": "int256"
            },
            {
              "internalType": "int256",
              "name": "positionMargin",
              "type": "int256"
            },
            {
              "internalType": "int256",
              "name": "availableCash",
              "type": "int256"
            }
          ],
          "internalType": "struct AMMModule.Context",
          "name": "context",
          "type": "tuple"
        },
        {
          "internalType": "int256",
          "name": "poolMargin",
          "type": "int256"
        }
      ],
      "name": "calculateCashToReturn",
      "outputs": [
        {
          "internalType": "int256",
          "name": "cashToReturn",
          "type": "int256"
        }
      ],
      "stateMutability": "pure",
      "type": "function"
    }
  ],
  "bytecode": "0x612349610026600b82828239805160001a60731461001957fe5b30600052607381538281f3fe73000000000000000000000000000000000000000030146080604052600436106100925760003560e01c8063c12b64d511610065578063c12b64d514610109578063eeffc15d1461012a578063f72ee9c81461013d578063f9d9f3991461015e57610092565b8063481e7b421461009757806368dddaa6146100c35780637ce71c34146100d657806389127d52146100f6575b600080fd5b6100aa6100a5366004611bb9565b610171565b6040516100ba9493929190611c55565b60405180910390f35b6100aa6100d1366004611b8e565b610235565b6100e96100e4366004611af2565b61042b565b6040516100ba9190611c2e565b6100e9610104366004611b8e565b6104ac565b61011c610117366004611b76565b61063a565b6040516100ba929190611c37565b6100aa610138366004611b8e565b610658565b61015061014b366004611b8e565b6108a0565b6040516100ba929190611c47565b61015061016c366004611bea565b610978565b600080600080600061019e89601301546101988b601201548a610a7e90919063ffffffff16565b90610a7e565b136101c45760405162461bcd60e51b81526004016101bb90612045565b60405180910390fd5b6101ef876101e78a601301546101988c601201548b610a7e90919063ffffffff16565b879190610ae3565b60128901549094506102049085876001610b29565b60138901549093506102199085876001610b29565b91506102288685876001610b29565b9050945094509450949050565b6000806000806000861361025b5760405162461bcd60e51b81526004016101bb906121ca565b610263611abc565b61026c88610b4d565b9050610279816000610b63565b6102955760405162461bcd60e51b81526004016101bb90611ccd565b60006102a2826000610bdc565b60a08301519091506102b49088610cb5565b60a08301526102c4826000610b63565b6102e05760405162461bcd60e51b81526004016101bb90611e2c565b60006102ed836000610bdc565b90506102f98282610cb5565b9350610311898361030a8185610cb5565b9190610ae3565b600f8b0154909750600160005b828110156103c957600081815260108e01602052604090206004600182015460ff16600481111561034b57fe5b1461035557600092505b6002600182015460ff16600481111561036a57fe5b1461037557506103c1565b61039761038182610d1a565b6019830154610391908890610d48565b90610d48565b6103a18230610d88565b13156103bf5760405162461bcd60e51b81526004016101bb90611e2c565b505b60010161031e565b506080850151604086015160a08701516103e291610a7e565b12156104005760405162461bcd60e51b81526004016101bb90611ec0565b801561041d576104128c8b868e610171565b929b50909950975095505b505050505093509350935093565b60008161043d575060a08201516104a6565b6000821361045d5760405162461bcd60e51b81526004016101bb90611fe8565b610491836040015161048b846101986002610485888a60600151610db690919063ffffffff16565b90610db6565b90610cb5565b60a08401519091506104a39082610cb5565b90505b92915050565b60006104b6611abc565b6104bf85610b4d565b905060006104cc82610e6e565b5090508461053a576104e960006104e38684610cb5565b90610ed9565b925060006104f78483610a7e565b905086601501546000148061051857506105148760150154610ef0565b8113155b6105345760405162461bcd60e51b81526004016101bb90611d2a565b50610631565b6000811361055a5760405162461bcd60e51b81526004016101bb906120ff565b600061056b828761030a8189610a7e565b905086601501546000148061058c57506105888760150154610ef0565b8113155b6105a85760405162461bcd60e51b81526004016101bb90611d2a565b60006105ca6105c560028660600151610db690919063ffffffff16565b610f3c565b905060008183136105f05760408501516105e99061048b856002610ff2565b905061061b565b610618856040015161048b856101986002610485898c60600151610db690919063ffffffff16565b90505b60a085015161062b908290610cb5565b95505050505b50509392505050565b60008061064e61064984610b4d565b610e6e565b915091505b915091565b6000806000806000861361067e5760405162461bcd60e51b81526004016101bb906121ca565b610686611abc565b61068f88610b4d565b905061069c816000610b63565b6106b85760405162461bcd60e51b81526004016101bb90611ccd565b6106c3816000610bdc565b9150600082136106e55760405162461bcd60e51b81526004016101bb90612193565b60006106f6838961030a818b610cb5565b90506107028382610cb5565b925060006107216105c560028560600151610db690919063ffffffff16565b9050808212156107435760405162461bcd60e51b81526004016101bb90611e2c565b5061074e828261042b565b955060008612156107715760405162461bcd60e51b81526004016101bb90611df5565b600f890154600160005b8281101561081057600081815260108d01602052604090206004600182015460ff1660048111156107a857fe5b146107b257600092505b6002600182015460ff1660048111156107c757fe5b146107d25750610808565b6107de61038182610d1a565b6107e88230610d88565b13156108065760405162461bcd60e51b81526004016101bb90611e2c565b505b60010161077b565b5083608001516108358961048b87604001518860a00151610a7e90919063ffffffff16565b12156108535760405162461bcd60e51b81526004016101bb90611ec0565b80156108935760128b015461086b908a8c6001610b29565b60138c0154909750610880908a8c6001610b29565b9550610890866101988a8a610a7e565b97505b5050505093509350935093565b6000806108ab611abc565b6108b486610b4d565b905060006108c182610e6e565b5060a08301519091506108d49086610a7e565b60a083015260006108e483610e6e565b50905087601501546000148061090657506109028860150154610ef0565b8113155b6109225760405162461bcd60e51b81526004016101bb90611d2a565b61092c8183610cb5565b93508661093b5780945061096d565b6000821361095b5760405162461bcd60e51b81526004016101bb906120ff565b61096a878361030a8482610cb5565b94505b505050935093915050565b600080836109985760405162461bcd60e51b81526004016101bb90612227565b6109a0611abc565b6109aa878761109b565b600087815260108901602090815260408220908301519293509181906109d09089611279565b9150915060006109e18585856112d7565b60a087015191985091506109f59088610a7e565b60a08601526020850151610a099084610a7e565b602086015260008080610a1e8888878e611439565b91945092509050610a2f8a84610a7e565b9950610a3b8683610a7e565b9850600086610a4a5781610a4c565b845b9050610a6a610a63610a5e838d6115f8565b61162d565b8c90610ed9565b9a5050505050505050505094509492505050565b6000828201818312801590610a935750838112155b80610aa85750600083128015610aa857508381125b6104a35760405162461bcd60e51b815260040180806020018281038252602181526020018061225f6021913960400191505060405180910390fd5b600080610af08585610ff2565b90506000831215610b1257610b048361162d565b9250610b0f8161162d565b90505b610b2083610485838661163a565b95945050505050565b600080610b368686610ff2565b9050610b438185856116b9565b9695505050505050565b610b55611abc565b6104a68283600f015461109b565b602082015182516000918291610b78916115f8565b90506000610b9084610b8a84806115f8565b90610ff2565b9050610bcb610bac838760400151610a7e90919063ffffffff16565b61048b6105c56002610b8a8a6060015187610a7e90919063ffffffff16565b60a086015112159250505092915050565b602082015182516000918291610bf1916115f8565b90506000610c148560a00151610198876040015185610a7e90919063ffffffff16565b90506000610c37866060015161019887610b8a87886115f890919063ffffffff16565b90506000610c53610c49836002610ff2565b61048b8580610ff2565b90506000811215610c765760405162461bcd60e51b81526004016101bb90611c70565b610c8860026104858561019885610f3c565b94506000851215610cab5760405162461bcd60e51b81526004016101bb90612136565b5050505092915050565b6000818303818312801590610cca5750838113155b80610cdf5750600083128015610cdf57508381135b6104a35760405162461bcd60e51b81526004018080602001828103825260248152602001806122f06024913960400191505060405180910390fd5b60006002600183015460ff166004811115610d3157fe5b14610d405760088201546104a6565b506004015490565b600080821215610d6957610d5b8261162d565b9150610d668361162d565b92505b6104a382610485610d8286670de0b6b3a7640000610ff2565b8561163a565b73ffffffffffffffffffffffffffffffffffffffff1660009081526034909101602052604090206001015490565b600081610e0a576040805162461bcd60e51b815260206004820181905260248201527f5369676e6564536166654d6174683a206469766973696f6e206279207a65726f604482015290519081900360640190fd5b81600019148015610e1e5750600160ff1b83145b15610e5a5760405162461bcd60e51b81526004018080602001828103825260218152602001806122806021913960400191505060405180910390fd5b6000828481610e6557fe5b05949350505050565b600080610e7c836000610b63565b90508015610e9657610e8f836000610bdc565b9150610653565b610eb6600261048585604001518660a00151610a7e90919063ffffffff16565b915060008212156106535760405162461bcd60e51b81526004016101bb90611d98565b600081831215610ee957816104a3565b5090919050565b6000600160ff1b8210610f345760405162461bcd60e51b81526004018080602001828103825260288152602001806122c86028913960400191505060405180910390fd5b50805b919050565b600080821215610f93576040805162461bcd60e51b815260206004820152600d60248201527f6e65676174697665207371727400000000000000000000000000000000000000604482015290519081900360640190fd5b6003821215610fa9575060026001820105610f37565b6000610fb483611797565b9050600260ff6001830116046001908101915060ff82161b60005b50806001818681610fdc57fe5b058301901d9150808212610fcf57949350505050565b600082611001575060006104a6565b826000191480156110155750600160ff1b82145b156110515760405162461bcd60e51b81526004018080602001828103825260278152602001806122a16027913960400191505060405180910390fd5b8282028284828161105e57fe5b05146104a35760405162461bcd60e51b81526004018080602001828103825260278152602001806122a16027913960400191505060405180910390fd5b6110a3611abc565b600f830154600090815b8181101561121157600081815260108701602052604090206002600182015460ff1660048111156110da57fe5b146110e55750611209565b60006110f18230610d88565b905060006110fe83610d1a565b9050600081136111205760405162461bcd60e51b81526004016101bb90611d61565b61113861112d8430611849565b60a089015190610a7e565b60a0880152600d83015461116a906111639061115e9061115885876115f8565b906115f8565b611898565b8790610a7e565b9550878414156111835780875260208701829052611205565b61119d611192828460016118b0565b604089015190610a7e565b604088015260198301546111d5906111ca90610b8a8460006111c38282828b80836118b0565b91906118b0565b606089015190610a7e565b606088015260258301546111ff906111f49061039161115e85876115f8565b608089015190610a7e565b60808801525b5050505b6001016110ad565b50600985015460a084015161122591610a7e565b60a084015260208301518351839161125391611240916115f8565b604086015160a087015161019891610a7e565b12156112715760405162461bcd60e51b81526004016101bb90611e89565b505092915050565b60008061128684846118ce565b15611296575060009050816112d0565b61129f83611898565b6112a885611898565b126112b8575081905060006112d0565b6112c18461162d565b6112cb8585610a7e565b915091505b9250929050565b600080826112ea57506000905080611431565b60208501518551601c860154602887015460008088126113175760168901546113129061162d565b61131d565b60168901545b90506113298a84610b63565b1561139d57600061133a8b85610bdc565b90506000811361135c5760405162461bcd60e51b81526004016101bb90612193565b61137d61137183670de0b6b3a7640000610a7e565b61115883888a896118f1565b9650611395818761138e818d610a7e565b8888611918565b9750506113b2565b92945084926113af610a5e858a6115f8565b96505b60008089136113d2576113cd670de0b6b3a764000084610cb5565b6113e4565b6113e4670de0b6b3a764000084610a7e565b90506114016113fa610a5e8b61115889866115f8565b8990610ed9565b975061140d888a6118ce565b1561142a5760405162461bcd60e51b81526004016101bb90611f54565b5050505050505b935093915050565b6000808084611450575060009150819050806115ee565b601986015461145f8882610b63565b61149157846114805760405162461bcd60e51b81526004016101bb90611f1d565b6000806000935093509350506115ee565b600061149d8983610bdc565b9050600081136114bf5760405162461bcd60e51b81526004016101bb90612193565b885160208a015160006114d2828b610a7e565b905060006114ed8d868e602501600001548960008713611955565b90506114f881611898565b61150183611898565b131561156557896115245760405162461bcd60e51b81526004016101bb90611fb1565b61152e8184610cb5565b97506115428861153d8d61162d565b6118ce565b1561155d5760008060009850985098505050505050506115ee565b809150611569565b8a97505b611576858484878a611918565b985061158289896118ce565b1561159f5760405162461bcd60e51b81526004016101bb906120a2565b6000808c126115bb5760168d01546115b69061162d565b6115c1565b60168d01545b90506115e46115d882670de0b6b3a7640000610a7e565b6111588888888c6118f1565b9750505050505050505b9450945094915050565b6000670de0b6b3a764000061161e6116108585610ff2565b670de0b6b3a764000061163a565b8161162557fe5b059392505050565b60006104a6600083610cb5565b6000808213611690576040805162461bcd60e51b815260206004820152601f60248201527f726f756e6448616c665570206f6e6c7920737570706f7274732079203e203000604482015290519081900360640190fd5b600083126116ac576116a58360028405610a7e565b90506104a6565b6104a38360028405610cb5565b60008261170d576040805162461bcd60e51b815260206004820152601060248201527f6469766973696f6e206279207a65726f00000000000000000000000000000000604482015290519081900360640190fd5b6117178484610db6565b905082848161172257fe5b0761172c57611790565b600061173885856118ce565b9050600083600181111561174857fe5b1480156117525750805b1561176557611762826001610a7e565b91505b600183600181111561177357fe5b14801561177e575080155b1561178e57610b20826001610cb5565b505b9392505050565b6000608082901c8181156117ae5790925082906080015b604084901c915081156117c45790925082906040015b602084901c915081156117da5790925082906020015b601084901c915081156117f05790925082906010015b600884901c915081156118065790925082906008015b600484901c9150811561181c5790925082906004015b600284901c915081156118325790925082906002015b600184901c91508115611790576001019392505050565b73ffffffffffffffffffffffffffffffffffffffff811660009081526034830160205260408120600b84015460018201546118909161188891906115f8565b825490610cb5565b949350505050565b600080821215610f34576118ab8261162d565b6104a6565b60006118906118bf8585610ff2565b670de0b6b3a7640000846116b9565b60008215806118db575081155b156118e8575060016104a6565b501860ff1d1590565b6000610b2084611158611909858961030a858a6115f8565b670de0b6b3a764000090610cb5565b6000611932828761030a6002610485886111588b8d610a7e565b9050610b436119418686610cb5565b6111588581670de0b6b3a764000086610cb5565b8451606086015160009190829061197b9086906103919061048b6002610b8a8d80610ff2565b90506000811361199057600092505050610b20565b600061199f8361039184610f3c565b905060006119d26119c260026104858c8e60600151610db690919063ffffffff16565b60808c0151610198908c90610cb5565b92506119e4876111588a8187826115f8565b92506119fb6119f4846002610ff2565b8a90610cb5565b92506000831215611a2d57507f7fffffffffffffffffffffffffffffffffffffffffffffffffffffffffffffff611a5e565b611a4960006104e3611a426105c5878e610ff2565b8c90610cb5565b9050611a5b846103918981858d610d48565b90505b611a688282611aad565b94508515611a94576000611a80856103918c8b610d48565b9050611a8c8682611aad565b955050611aa0565b611a9d8561162d565b94505b5050505095945050505050565b6000818312610ee957816104a3565b6040518060c001604052806000815260200160008152602001600081526020016000815260200160008152602001600081525090565b60008082840360e0811215611b05578283fd5b60c0811215611b12578283fd5b5060405160c0810181811067ffffffffffffffff82111715611b3057fe5b604090815284358252602080860135908301528481013590820152606080850135908201526080808501359082015260a080850135908201529460c09093013593505050565b600060208284031215611b87578081fd5b5035919050565b600080600060608486031215611ba2578081fd5b505081359360208301359350604090920135919050565b60008060008060808587031215611bce578081fd5b5050823594602084013594506040840135936060013592509050565b60008060008060808587031215611bff578384fd5b84359350602085013592506040850135915060608501358015158114611c23578182fd5b939692955090935050565b90815260200190565b9182521515602082015260400190565b918252602082015260400190565b93845260208401929092526040830152606082015260800190565b6020808252602a908201527f414d4d20697320756e73616665207768656e2063616c63756c6174696e67207060408201527f6f6f6c206d617267696e00000000000000000000000000000000000000000000606082015260800190565b60208082526027908201527f414d4d20697320756e73616665206265666f72652072656d6f76696e67206c6960408201527f7175696469747900000000000000000000000000000000000000000000000000606082015260800190565b60208082526015908201527f6c69717569646974792072656163686573206361700000000000000000000000604082015260600190565b6020808252601c908201527f696e646578207072696365206d75737420626520706f73697469766500000000604082015260600190565b60208082526030908201527f706f6f6c206d617267696e206973206e65676174697665207768656e2067657460408201527f74696e6720706f6f6c206d617267696e00000000000000000000000000000000606082015260800190565b6020808252601b908201527f7265636569766564206d617267696e206973206e656761746976650000000000604082015260600190565b60208082526026908201527f414d4d20697320756e736166652061667465722072656d6f76696e67206c697160408201527f7569646974790000000000000000000000000000000000000000000000000000606082015260800190565b60208082526010908201527f414d4d206973206d6d20756e7361666500000000000000000000000000000000604082015260600190565b60208082526031908201527f414d4d2065786365656473206d6178206c65766572616765206166746572207260408201527f656d6f76696e67206c6971756964697479000000000000000000000000000000606082015260800190565b60208082526017908201527f414d4d20697320756e73616665207768656e206f70656e000000000000000000604082015260600190565b6020808252602a908201527f7072696365206973206e65676174697665207768656e20414d4d20636c6f736560408201527f7320706f736974696f6e00000000000000000000000000000000000000000000606082015260800190565b6020808252601f908201527f747261646520616d6f756e742065786365656473206d617820616d6f756e7400604082015260600190565b60208082526034908201527f706f6f6c206d617267696e206d75737420626520706f7369746976652077686560408201527f6e2072656d6f76696e67206c6971756964697479000000000000000000000000606082015260800190565b60208082526023908201527f616c6c20636c65617265642c20696e73756666696369656e74206c697175696460408201527f6974790000000000000000000000000000000000000000000000000000000000606082015260800190565b60208082526029908201527f7072696365206973206e65676174697665207768656e20414d4d206f70656e7360408201527f20706f736974696f6e0000000000000000000000000000000000000000000000606082015260800190565b60208082526018908201527f736861726520746f6b656e20686173206e6f2076616c75650000000000000000604082015260600190565b60208082526034908201527f706f6f6c206d617267696e206973206e65676174697665207768656e2063616c60408201527f63756c6174696e6720706f6f6c206d617267696e000000000000000000000000606082015260800190565b6020808252601c908201527f706f6f6c206d617267696e206d75737420626520706f73697469766500000000604082015260600190565b6020808252603b908201527f746f74616c20737570706c79206f6620736861726520746f6b656e206973207a60408201527f65726f207768656e2072656d6f76696e67206c69717569646974790000000000606082015260800190565b60208082526016908201527f74726164696e6720616d6f756e74206973207a65726f0000000000000000000060408201526060019056fe5369676e6564536166654d6174683a206164646974696f6e206f766572666c6f775369676e6564536166654d6174683a206469766973696f6e206f766572666c6f775369676e6564536166654d6174683a206d756c7469706c69636174696f6e206f766572666c6f7753616665436173743a2076616c756520646f65736e27742066697420696e20616e20696e743235365369676e6564536166654d6174683a207375627472616374696f6e206f766572666c6f77a2646970667358221220a250fd6dedd9d775f1017a2d4cb46151140b7255e4979d43bd1c4244e2368ff664736f6c63430007040033",
  "linkReferences": {},
  "deployedLinkReferences": {}
}