{
  "_format": "hh-sol-artifact-1",
  "contractName": "OracleRouterCreator",
  "sourceName": "contracts/oracle/router/OracleRouterCreator.sol",
  "abi": [
    {
      "anonymous": false,
      "inputs": [
        {
          "indexed": false,
          "internalType": "address",
          "name": "router",
          "type": "address"
        },
        {
          "indexed": false,
          "internalType": "string",
          "name": "collateral",
          "type": "string"
        },
        {
          "indexed": false,
          "internalType": "string",
          "name": "underlyingAsset",
          "type": "string"
        },
        {
          "components": [
            {
              "internalType": "address",
              "name": "oracle",
              "type": "address"
            },
            {
              "internalType": "bool",
              "name": "isInverse",
              "type": "bool"
            }
          ],
          "indexed": false,
          "internalType": "struct OracleRouter.Route[]",
          "name": "path",
          "type": "tuple[]"
        }
      ],
      "name": "NewOracleRouter",
      "type": "event"
    },
    {
      "inputs": [
        {
          "components": [
            {
              "internalType": "address",
              "name": "oracle",
              "type": "address"
            },
            {
              "internalType": "bool",
              "name": "isInverse",
              "type": "bool"
            }
          ],
          "internalType": "struct OracleRouter.Route[]",
          "name": "path",
          "type": "tuple[]"
        }
      ],
      "name": "createOracleRouter",
      "outputs": [
        {
          "internalType": "address",
          "name": "instance",
          "type": "address"
        }
      ],
      "stateMutability": "nonpayable",
      "type": "function"
    },
    {
      "inputs": [
        {
          "components": [
            {
              "internalType": "address",
              "name": "oracle",
              "type": "address"
            },
            {
              "internalType": "bool",
              "name": "isInverse",
              "type": "bool"
            }
          ],
          "internalType": "struct OracleRouter.Route[]",
          "name": "path",
          "type": "tuple[]"
        }
      ],
      "name": "getPathHash",
      "outputs": [
        {
          "internalType": "bytes32",
          "name": "",
          "type": "bytes32"
        }
      ],
      "stateMutability": "pure",
      "type": "function"
    },
    {
      "inputs": [
        {
          "internalType": "bytes32",
          "name": "",
          "type": "bytes32"
        }
      ],
      "name": "routers",
      "outputs": [
        {
          "internalType": "address",
          "name": "",
          "type": "address"
        }
      ],
      "stateMutability": "view",
      "type": "function"
    }
  ],
  "bytecode": "0x608060405234801561001057600080fd5b50611b66806100206000396000f3fe60806040523480156200001157600080fd5b5060043610620000465760003560e01c80635801d66f146200004b5780637889515b146200007a578063aa1fce6914620000a0575b600080fd5b620000626200005c366004620003c7565b620000b7565b60405162000071919062000635565b60405180910390f35b620000916200008b366004620003c7565b620000e9565b604051620000719190620005ac565b62000091620000b136600462000480565b6200032d565b600081604051602001620000cc919062000619565b604051602081830303815290604052805190602001209050919050565b600080825111620001175760405162461bcd60e51b81526004016200010e9062000675565b60405180910390fd5b60006200012483620000b7565b6000818152602081905260409020549091506001600160a01b0316156200015f5760405162461bcd60e51b81526004016200010e906200063e565b600083604051620001709062000348565b6200017c919062000619565b604051809103906000f08015801562000199573d6000803e3d6000fd5b5060008381526020819052604080822080547fffffffffffffffffffffffff0000000000000000000000000000000000000000166001600160a01b03851690811790915581517fd8dfeb4500000000000000000000000000000000000000000000000000000000815291519396508694507faa12a8903c780c1b4d3d993af516ecb732ab70b8363e9095d81da857d4358dc1938593919263d8dfeb45926004808301939192829003018186803b1580156200025357600080fd5b505afa15801562000268573d6000803e3d6000fd5b505050506040513d6000823e601f3d908101601f1916820160405262000292919081019062000499565b836001600160a01b0316637158da7c6040518163ffffffff1660e01b815260040160006040518083038186803b158015620002cc57600080fd5b505afa158015620002e1573d6000803e3d6000fd5b505050506040513d6000823e601f3d908101601f191682016040526200030b919081019062000499565b876040516200031e9493929190620005c0565b60405180910390a15050919050565b6000602081905290815260409020546001600160a01b031681565b61142c806200070583390190565b60006040828403121562000368578081fd5b6040516040810181811067ffffffffffffffff821117156200038657fe5b60405290508082356001600160a01b0381168114620003a457600080fd5b815260208301358015158114620003ba57600080fd5b6020919091015292915050565b60006020808385031215620003da578182fd5b823567ffffffffffffffff80821115620003f2578384fd5b818501915085601f83011262000406578384fd5b8135818111156200041357fe5b620004228485830201620006ac565b81815284810192508385016040808402860187018a101562000442578788fd5b8795505b8386101562000472576200045b8a8362000356565b855260019590950194938601939081019062000446565b509098975050505050505050565b60006020828403121562000492578081fd5b5035919050565b600060208284031215620004ab578081fd5b815167ffffffffffffffff80821115620004c3578283fd5b818401915084601f830112620004d7578283fd5b815181811115620004e457fe5b620004f9601f8201601f1916602001620006ac565b915080825285602082850101111562000510578384fd5b62000523816020840160208601620006d1565b50949350505050565b6000815180845260208085019450808401835b838110156200057357815180516001600160a01b03168852830151151583880152604090960195908201906001016200053f565b509495945050505050565b6000815180845262000598816020860160208601620006d1565b601f01601f19169290920160200192915050565b6001600160a01b0391909116815260200190565b60006001600160a01b038616825260806020830152620005e460808301866200057e565b8281036040840152620005f881866200057e565b905082810360608401526200060e81856200052c565b979650505050505050565b6000602082526200062e60208301846200052c565b9392505050565b90815260200190565b60208082526010908201527f616c7265616479206465706c6f79656400000000000000000000000000000000604082015260600190565b6020808252600a908201527f656d707479207061746800000000000000000000000000000000000000000000604082015260600190565b60405181810167ffffffffffffffff81118282101715620006c957fe5b604052919050565b60005b83811015620006ee578181015183820152602001620006d4565b83811115620006fe576000848401525b5050505056fe60806040523480156200001157600080fd5b506040516200142c3803806200142c8339810160408190526200003491620001df565b6000815111620000615760405162461bcd60e51b81526004016200005890620002bd565b60405180910390fd5b60005b8151811015620001655760006001600160a01b03168282815181106200008657fe5b6020026020010151600001516001600160a01b03161415620000bc5760405162461bcd60e51b8152600401620000589062000297565b60006040518060400160405280848481518110620000d657fe5b6020026020010151600001516001600160a01b03168152602001848481518110620000fd57fe5b602090810291909101810151810151151590915282546001818101855560009485529382902083519101805493909201511515600160a01b0260ff60a01b196001600160a01b039092166001600160a01b031990941693909317169190911790550162000064565b505062000305565b6000604082840312156200017f578081fd5b604080519081016001600160401b03811182821017156200019c57fe5b604052825190915081906001600160a01b0381168114620001bc57600080fd5b815260208301518015158114620001d257600080fd5b6020919091015292915050565b60006020808385031215620001f2578182fd5b82516001600160401b038082111562000209578384fd5b818501915085601f8301126200021d578384fd5b8151818111156200022a57fe5b620002398485830201620002e1565b81815284810192508385016040808402860187018a101562000259578788fd5b8795505b838610156200028957620002728a836200016d565b85526001959095019493860193908101906200025d565b509098975050505050505050565b6020808252600c908201526b656d707479206f7261636c6560a01b604082015260600190565b6020808252600a90820152690cadae0e8f240e0c2e8d60b31b604082015260600190565b6040518181016001600160401b0381118282101715620002fd57fe5b604052919050565b61111780620003156000396000f3fe608060405234801561001057600080fd5b50600436106100a35760003560e01c80639410b9e211610076578063ccbdbee21161005b578063ccbdbee214610123578063d1cc99761461012b578063d8dfeb4514610133576100a3565b80639410b9e2146100f9578063b7e86c1f1461010e576100a3565b80630e222f9b146100a8578063555b37be146100c757806367e828bf146100dc5780637158da7c146100f1575b600080fd5b6100b061013b565b6040516100be929190611003565b60405180910390f35b6100cf610273565b6040516100be9190610f9e565b6100e46102ec565b6040516100be9190611011565b6100e4610325565b610101610443565b6040516100be9190610efa565b6101166106a2565b6040516100be9190610ff8565b6100b061076f565b6101166108a2565b6100e4610967565b670de0b6b3a76400006000805b60005481101561026e576000806000838154811061016257fe5b6000918252602082200154604080517f0e222f9b00000000000000000000000000000000000000000000000000000000815281516001600160a01b0390931693630e222f9b93600480840194939192918390030190829087803b1580156101c857600080fd5b505af11580156101dc573d6000803e3d6000fd5b505050506040513d601f19601f820116820180604052508101906102009190610e14565b915091506000838154811061021157fe5b600091825260209091200154600160a01b900460ff16801561023257508115155b1561024c57610249670de0b6b3a764000083610a7c565b91505b6102568583610ac9565b94506102628482610afe565b93505050600101610148565b509091565b60606000805480602002602001604051908101604052809291908181526020016000905b828210156102e257600084815260209081902060408051808201909152908401546001600160a01b0381168252600160a01b900460ff16151581830152825260019092019101610297565b5050505090505b90565b6040518060400160405280600c81526020017f4f7261636c65526f75746572000000000000000000000000000000000000000081525081565b600080546060916000198201918290811061033c57fe5b600091825260209091200154600160a01b900460ff16156103ef576000818154811061036457fe5b60009182526020822001546040805163d8dfeb4560e01b815290516001600160a01b039092169263d8dfeb4592600480840193829003018186803b1580156103ab57600080fd5b505afa1580156103bf573d6000803e3d6000fd5b505050506040513d6000823e601f3d908101601f191682016040526103e79190810190610e37565b9150506102e9565b600081815481106103fc57fe5b600091825260208220015460408051631c56369f60e21b815290516001600160a01b0390921692637158da7c92600480840193829003018186803b1580156103ab57600080fd5b600054606090819067ffffffffffffffff8111801561046157600080fd5b5060405190808252806020026020018201604052801561049b57816020015b610488610dce565b8152602001906001900390816104805790505b50905060005b60005481101561069c57600081815481106104b857fe5b60009182526020909120015482516001600160a01b03909116908390839081106104de57fe5b60209081029190910101516001600160a01b039091169052600080548290811061050457fe5b9060005260206000200160000160149054906101000a900460ff1682828151811061052b57fe5b602090810291909101810151911515910152600080548290811061054b57fe5b600091825260208220015460408051631c56369f60e21b815290516001600160a01b0390921692637158da7c92600480840193829003018186803b15801561059257600080fd5b505afa1580156105a6573d6000803e3d6000fd5b505050506040513d6000823e601f3d908101601f191682016040526105ce9190810190610e37565b8282815181106105da57fe5b602002602001015160400181905250600081815481106105f657fe5b60009182526020822001546040805163d8dfeb4560e01b815290516001600160a01b039092169263d8dfeb4592600480840193829003018186803b15801561063d57600080fd5b505afa158015610651573d6000803e3d6000fd5b505050506040513d6000823e601f3d908101601f191682016040526106799190810190610e37565b82828151811061068557fe5b6020908102919091010151606001526001016104a1565b50905090565b6000805b60005481101561076757600081815481106106bd57fe5b9060005260206000200160000160009054906101000a90046001600160a01b03166001600160a01b031663b7e86c1f6040518163ffffffff1660e01b8152600401602060405180830381600087803b15801561071857600080fd5b505af115801561072c573d6000803e3d6000fd5b505050506040513d601f19601f820116820180604052508101906107509190610df4565b1561075f5760019150506102e9565b6001016106a6565b506000905090565b670de0b6b3a76400006000805b60005481101561026e576000806000838154811061079657fe5b6000918252602082200154604080517fccbdbee200000000000000000000000000000000000000000000000000000000815281516001600160a01b039093169363ccbdbee293600480840194939192918390030190829087803b1580156107fc57600080fd5b505af1158015610810573d6000803e3d6000fd5b505050506040513d601f19601f820116820180604052508101906108349190610e14565b915091506000838154811061084557fe5b600091825260209091200154600160a01b900460ff16801561086657508115155b156108805761087d670de0b6b3a764000083610a7c565b91505b61088a8583610ac9565b94506108968482610afe565b9350505060010161077c565b6000805b60005481101561076757600081815481106108bd57fe5b9060005260206000200160000160009054906101000a90046001600160a01b03166001600160a01b031663d1cc99766040518163ffffffff1660e01b8152600401602060405180830381600087803b15801561091857600080fd5b505af115801561092c573d6000803e3d6000fd5b505050506040513d601f19601f820116820180604052508101906109509190610df4565b1561095f5760019150506102e9565b6001016108a6565b60606000808154811061097657fe5b600091825260209091200154600160a01b900460ff1615610a28576000808154811061099e57fe5b600091825260208220015460408051631c56369f60e21b815290516001600160a01b0390921692637158da7c92600480840193829003018186803b1580156109e557600080fd5b505afa1580156109f9573d6000803e3d6000fd5b505050506040513d6000823e601f3d908101601f19168201604052610a219190810190610e37565b90506102e9565b60008081548110610a3557fe5b60009182526020822001546040805163d8dfeb4560e01b815290516001600160a01b039092169263d8dfeb4592600480840193829003018186803b1580156109e557600080fd5b600080821215610a9d57610a8f82610b17565b9150610a9a83610b17565b92505b610ac282610abc610ab686670de0b6b3a7640000610b24565b85610bcd565b90610c4c565b9392505050565b6000670de0b6b3a7640000610aef610ae18585610b24565b670de0b6b3a7640000610bcd565b81610af657fe5b059392505050565b600081831015610b0e5781610ac2565b50815b92915050565b6000610b11600083610d04565b600082610b3357506000610b11565b82600019148015610b475750600160ff1b82145b15610b835760405162461bcd60e51b81526004018080602001828103825260278152602001806110976027913960400191505060405180910390fd5b82820282848281610b9057fe5b0514610ac25760405162461bcd60e51b81526004018080602001828103825260278152602001806110976027913960400191505060405180910390fd5b6000808213610c23576040805162461bcd60e51b815260206004820152601f60248201527f726f756e6448616c665570206f6e6c7920737570706f7274732079203e203000604482015290519081900360640190fd5b60008312610c3f57610c388360028405610d69565b9050610b11565b610ac28360028405610d04565b600081610ca0576040805162461bcd60e51b815260206004820181905260248201527f5369676e6564536166654d6174683a206469766973696f6e206279207a65726f604482015290519081900360640190fd5b81600019148015610cb45750600160ff1b83145b15610cf05760405162461bcd60e51b81526004018080602001828103825260218152602001806110766021913960400191505060405180910390fd5b6000828481610cfb57fe5b05949350505050565b6000818303818312801590610d195750838113155b80610d2e5750600083128015610d2e57508381135b610ac25760405162461bcd60e51b81526004018080602001828103825260248152602001806110be6024913960400191505060405180910390fd5b6000828201818312801590610d7e5750838112155b80610d935750600083128015610d9357508381125b610ac25760405162461bcd60e51b81526004018080602001828103825260218152602001806110556021913960400191505060405180910390fd5b604080516080810182526000808252602082015260609181018290528181019190915290565b600060208284031215610e05578081fd5b81518015158114610ac2578182fd5b60008060408385031215610e26578081fd5b505080516020909101519092909150565b600060208284031215610e48578081fd5b815167ffffffffffffffff80821115610e5f578283fd5b818401915084601f830112610e72578283fd5b815181811115610e7e57fe5b604051601f8201601f191681016020018381118282101715610e9c57fe5b604052818152838201602001871015610eb3578485fd5b610ec4826020830160208701611024565b9695505050505050565b60008151808452610ee6816020860160208601611024565b601f01601f19169290920160200192915050565b60208082528251828201819052600091906040908185019080840286018301878501865b83811015610f9057603f19898403018552815160806001600160a01b03825116855288820151151589860152878201518189870152610f5f82870182610ece565b91505060608083015192508582038187015250610f7c8183610ece565b968901969450505090860190600101610f1e565b509098975050505050505050565b602080825282518282018190526000919060409081850190868401855b82811015610feb57815180516001600160a01b031685528601511515868501529284019290850190600101610fbb565b5091979650505050505050565b901515815260200190565b918252602082015260400190565b600060208252610ac26020830184610ece565b60005b8381101561103f578181015183820152602001611027565b8381111561104e576000848401525b5050505056fe5369676e6564536166654d6174683a206164646974696f6e206f766572666c6f775369676e6564536166654d6174683a206469766973696f6e206f766572666c6f775369676e6564536166654d6174683a206d756c7469706c69636174696f6e206f766572666c6f775369676e6564536166654d6174683a207375627472616374696f6e206f766572666c6f77a2646970667358221220a4c2a47d962be5d1086ee09a986ddb5e8caf1659b21283a450f1ea231291460964736f6c63430007040033a2646970667358221220e94c2323e8b7b06673c8441c3ac5fcf2b8d4471a29d8860bf475560339309e8764736f6c63430007040033",
  "linkReferences": {},
  "deployedLinkReferences": {}
}