{
  "_format": "hh-sol-artifact-1",
  "contractName": "TestLpGovernor",
  "sourceName": "contracts/test/TestLpGovernor.sol",
  "abi": [
    {
      "anonymous": false,
      "inputs": [
        {
          "indexed": true,
          "internalType": "address",
          "name": "owner",
          "type": "address"
        },
        {
          "indexed": true,
          "internalType": "address",
          "name": "spender",
          "type": "address"
        },
        {
          "indexed": false,
          "internalType": "uint256",
          "name": "value",
          "type": "uint256"
        }
      ],
      "name": "Approval",
      "type": "event"
    },
    {
      "anonymous": false,
      "inputs": [
        {
          "indexed": true,
          "internalType": "bytes32",
          "name": "txHash",
          "type": "bytes32"
        },
        {
          "indexed": true,
          "internalType": "address",
          "name": "target",
          "type": "address"
        },
        {
          "indexed": false,
          "internalType": "string",
          "name": "signature",
          "type": "string"
        },
        {
          "indexed": false,
          "internalType": "bytes",
          "name": "data",
          "type": "bytes"
        },
        {
          "indexed": false,
          "internalType": "uint256",
          "name": "eta",
          "type": "uint256"
        }
      ],
      "name": "ExecuteTransaction",
      "type": "event"
    },
    {
      "anonymous": false,
      "inputs": [
        {
          "indexed": false,
          "internalType": "uint256",
          "name": "id",
          "type": "uint256"
        },
        {
          "indexed": false,
          "internalType": "address",
          "name": "proposer",
          "type": "address"
        },
        {
          "indexed": false,
          "internalType": "address",
          "name": "target",
          "type": "address"
        },
        {
          "indexed": false,
          "internalType": "string[]",
          "name": "signatures",
          "type": "string[]"
        },
        {
          "indexed": false,
          "internalType": "bytes[]",
          "name": "calldatas",
          "type": "bytes[]"
        },
        {
          "indexed": false,
          "internalType": "uint256",
          "name": "startBlock",
          "type": "uint256"
        },
        {
          "indexed": false,
          "internalType": "uint256",
          "name": "endBlock",
          "type": "uint256"
        },
        {
          "indexed": false,
          "internalType": "uint256",
          "name": "quorumVotes",
          "type": "uint256"
        },
        {
          "indexed": false,
          "internalType": "string",
          "name": "description",
          "type": "string"
        }
      ],
      "name": "ProposalCreated",
      "type": "event"
    },
    {
      "anonymous": false,
      "inputs": [
        {
          "indexed": false,
          "internalType": "uint256",
          "name": "id",
          "type": "uint256"
        }
      ],
      "name": "ProposalExecuted",
      "type": "event"
    },
    {
      "anonymous": false,
      "inputs": [
        {
          "indexed": false,
          "internalType": "uint256",
          "name": "reward",
          "type": "uint256"
        },
        {
          "indexed": false,
          "internalType": "uint256",
          "name": "periodFinish",
          "type": "uint256"
        }
      ],
      "name": "RewardAdded",
      "type": "event"
    },
    {
      "anonymous": false,
      "inputs": [
        {
          "indexed": true,
          "internalType": "address",
          "name": "user",
          "type": "address"
        },
        {
          "indexed": false,
          "internalType": "uint256",
          "name": "reward",
          "type": "uint256"
        }
      ],
      "name": "RewardPaid",
      "type": "event"
    },
    {
      "anonymous": false,
      "inputs": [
        {
          "indexed": false,
          "internalType": "uint256",
          "name": "previousRate",
          "type": "uint256"
        },
        {
          "indexed": false,
          "internalType": "uint256",
          "name": "currentRate",
          "type": "uint256"
        },
        {
          "indexed": false,
          "internalType": "uint256",
          "name": "periodFinish",
          "type": "uint256"
        }
      ],
      "name": "RewardRateChanged",
      "type": "event"
    },
    {
      "anonymous": false,
      "inputs": [
        {
          "indexed": true,
          "internalType": "address",
          "name": "from",
          "type": "address"
        },
        {
          "indexed": true,
          "internalType": "address",
          "name": "to",
          "type": "address"
        },
        {
          "indexed": false,
          "internalType": "uint256",
          "name": "value",
          "type": "uint256"
        }
      ],
      "name": "Transfer",
      "type": "event"
    },
    {
      "anonymous": false,
      "inputs": [
        {
          "indexed": false,
          "internalType": "address",
          "name": "account",
          "type": "address"
        },
        {
          "indexed": false,
          "internalType": "uint256",
          "name": "proposalId",
          "type": "uint256"
        },
        {
          "indexed": false,
          "internalType": "bool",
          "name": "support",
          "type": "bool"
        },
        {
          "indexed": false,
          "internalType": "uint256",
          "name": "votes",
          "type": "uint256"
        }
      ],
      "name": "VoteCast",
      "type": "event"
    },
    {
      "inputs": [],
      "name": "SIGNATURE_PERPETUAL_SETTLE",
      "outputs": [
        {
          "internalType": "bytes4",
          "name": "",
          "type": "bytes4"
        }
      ],
      "stateMutability": "view",
      "type": "function"
    },
    {
      "inputs": [],
      "name": "SIGNATURE_PERPETUAL_TRANSFER_OPERATOR",
      "outputs": [
        {
          "internalType": "bytes4",
          "name": "",
          "type": "bytes4"
        }
      ],
      "stateMutability": "view",
      "type": "function"
    },
    {
      "inputs": [],
      "name": "SIGNATURE_PERPETUAL_UPGRADE_AND_CALL",
      "outputs": [
        {
          "internalType": "bytes4",
          "name": "",
          "type": "bytes4"
        }
      ],
      "stateMutability": "view",
      "type": "function"
    },
    {
      "inputs": [
        {
          "internalType": "address",
          "name": "owner",
          "type": "address"
        },
        {
          "internalType": "address",
          "name": "spender",
          "type": "address"
        }
      ],
      "name": "allowance",
      "outputs": [
        {
          "internalType": "uint256",
          "name": "",
          "type": "uint256"
        }
      ],
      "stateMutability": "view",
      "type": "function"
    },
    {
      "inputs": [
        {
          "internalType": "address",
          "name": "spender",
          "type": "address"
        },
        {
          "internalType": "uint256",
          "name": "amount",
          "type": "uint256"
        }
      ],
      "name": "approve",
      "outputs": [
        {
          "internalType": "bool",
          "name": "",
          "type": "bool"
        }
      ],
      "stateMutability": "nonpayable",
      "type": "function"
    },
    {
      "inputs": [
        {
          "internalType": "address",
          "name": "account",
          "type": "address"
        }
      ],
      "name": "balanceOf",
      "outputs": [
        {
          "internalType": "uint256",
          "name": "",
          "type": "uint256"
        }
      ],
      "stateMutability": "view",
      "type": "function"
    },
    {
      "inputs": [
        {
          "internalType": "address",
          "name": "account",
          "type": "address"
        },
        {
          "internalType": "uint256",
          "name": "amount",
          "type": "uint256"
        }
      ],
      "name": "burn",
      "outputs": [],
      "stateMutability": "nonpayable",
      "type": "function"
    },
    {
      "inputs": [
        {
          "internalType": "uint256",
          "name": "proposalId",
          "type": "uint256"
        },
        {
          "internalType": "bool",
          "name": "support",
          "type": "bool"
        }
      ],
      "name": "castVote",
      "outputs": [],
      "stateMutability": "nonpayable",
      "type": "function"
    },
    {
      "inputs": [],
      "name": "criticalQuorumRate",
      "outputs": [
        {
          "internalType": "uint256",
          "name": "",
          "type": "uint256"
        }
      ],
      "stateMutability": "pure",
      "type": "function"
    },
    {
      "inputs": [],
      "name": "decimals",
      "outputs": [
        {
          "internalType": "uint8",
          "name": "",
          "type": "uint8"
        }
      ],
      "stateMutability": "view",
      "type": "function"
    },
    {
      "inputs": [
        {
          "internalType": "address",
          "name": "spender",
          "type": "address"
        },
        {
          "internalType": "uint256",
          "name": "subtractedValue",
          "type": "uint256"
        }
      ],
      "name": "decreaseAllowance",
      "outputs": [
        {
          "internalType": "bool",
          "name": "",
          "type": "bool"
        }
      ],
      "stateMutability": "nonpayable",
      "type": "function"
    },
    {
      "inputs": [
        {
          "internalType": "address",
          "name": "account",
          "type": "address"
        }
      ],
      "name": "earned",
      "outputs": [
        {
          "internalType": "uint256",
          "name": "",
          "type": "uint256"
        }
      ],
      "stateMutability": "view",
      "type": "function"
    },
    {
      "inputs": [
        {
          "internalType": "uint256",
          "name": "proposalId",
          "type": "uint256"
        }
      ],
      "name": "execute",
      "outputs": [],
      "stateMutability": "payable",
      "type": "function"
    },
    {
      "inputs": [],
      "name": "executionDelay",
      "outputs": [
        {
          "internalType": "uint256",
          "name": "",
          "type": "uint256"
        }
      ],
      "stateMutability": "pure",
      "type": "function"
    },
    {
      "inputs": [
        {
          "internalType": "uint256",
          "name": "proposalId",
          "type": "uint256"
        }
      ],
      "name": "getActions",
      "outputs": [
        {
          "internalType": "string[]",
          "name": "signatures",
          "type": "string[]"
        },
        {
          "internalType": "bytes[]",
          "name": "calldatas",
          "type": "bytes[]"
        }
      ],
      "stateMutability": "view",
      "type": "function"
    },
    {
      "inputs": [],
      "name": "getMinter",
      "outputs": [
        {
          "internalType": "address",
          "name": "",
          "type": "address"
        }
      ],
      "stateMutability": "view",
      "type": "function"
    },
    {
      "inputs": [],
      "name": "getProposalThreshold",
      "outputs": [
        {
          "internalType": "uint256",
          "name": "",
          "type": "uint256"
        }
      ],
      "stateMutability": "view",
      "type": "function"
    },
    {
      "inputs": [
        {
          "internalType": "uint256",
          "name": "proposalId",
          "type": "uint256"
        }
      ],
      "name": "getQuorumVotes",
      "outputs": [
        {
          "internalType": "uint256",
          "name": "",
          "type": "uint256"
        }
      ],
      "stateMutability": "view",
      "type": "function"
    },
    {
      "inputs": [
        {
          "internalType": "uint256",
          "name": "proposalId",
          "type": "uint256"
        },
        {
          "internalType": "address",
          "name": "account",
          "type": "address"
        }
      ],
      "name": "getReceipt",
      "outputs": [
        {
          "components": [
            {
              "internalType": "bool",
              "name": "hasVoted",
              "type": "bool"
            },
            {
              "internalType": "bool",
              "name": "support",
              "type": "bool"
            },
            {
              "internalType": "uint256",
              "name": "votes",
              "type": "uint256"
            }
          ],
          "internalType": "struct Receipt",
          "name": "",
          "type": "tuple"
        }
      ],
      "stateMutability": "view",
      "type": "function"
    },
    {
      "inputs": [],
      "name": "getReward",
      "outputs": [],
      "stateMutability": "nonpayable",
      "type": "function"
    },
    {
      "inputs": [],
      "name": "getTarget",
      "outputs": [
        {
          "internalType": "address",
          "name": "",
          "type": "address"
        }
      ],
      "stateMutability": "view",
      "type": "function"
    },
    {
      "inputs": [
        {
          "internalType": "address",
          "name": "account",
          "type": "address"
        }
      ],
      "name": "getUnlockBlock",
      "outputs": [
        {
          "internalType": "uint256",
          "name": "",
          "type": "uint256"
        }
      ],
      "stateMutability": "view",
      "type": "function"
    },
    {
      "inputs": [
        {
          "internalType": "address",
          "name": "spender",
          "type": "address"
        },
        {
          "internalType": "uint256",
          "name": "addedValue",
          "type": "uint256"
        }
      ],
      "name": "increaseAllowance",
      "outputs": [
        {
          "internalType": "bool",
          "name": "",
          "type": "bool"
        }
      ],
      "stateMutability": "nonpayable",
      "type": "function"
    },
    {
      "inputs": [
        {
          "internalType": "string",
          "name": "name",
          "type": "string"
        },
        {
          "internalType": "string",
          "name": "symbol",
          "type": "string"
        },
        {
          "internalType": "address",
          "name": "minter",
          "type": "address"
        },
        {
          "internalType": "address",
          "name": "target",
          "type": "address"
        },
        {
          "internalType": "address",
          "name": "rewardToken",
          "type": "address"
        },
        {
          "internalType": "address",
          "name": "poolCreator",
          "type": "address"
        }
      ],
      "name": "initialize",
      "outputs": [],
      "stateMutability": "nonpayable",
      "type": "function"
    },
    {
      "inputs": [
        {
          "internalType": "string",
          "name": "functionSignature",
          "type": "string"
        }
      ],
      "name": "isCriticalFunction",
      "outputs": [
        {
          "internalType": "bool",
          "name": "",
          "type": "bool"
        }
      ],
      "stateMutability": "pure",
      "type": "function"
    },
    {
      "inputs": [
        {
          "internalType": "address",
          "name": "account",
          "type": "address"
        }
      ],
      "name": "isLocked",
      "outputs": [
        {
          "internalType": "bool",
          "name": "",
          "type": "bool"
        }
      ],
      "stateMutability": "nonpayable",
      "type": "function"
    },
    {
      "inputs": [
        {
          "internalType": "address",
          "name": "account",
          "type": "address"
        }
      ],
      "name": "isLockedByVoting",
      "outputs": [
        {
          "internalType": "bool",
          "name": "",
          "type": "bool"
        }
      ],
      "stateMutability": "nonpayable",
      "type": "function"
    },
    {
      "inputs": [],
      "name": "lastBlockRewardApplicable",
      "outputs": [
        {
          "internalType": "uint256",
          "name": "",
          "type": "uint256"
        }
      ],
      "stateMutability": "view",
      "type": "function"
    },
    {
      "inputs": [
        {
          "internalType": "address",
          "name": "",
          "type": "address"
        }
      ],
      "name": "lastMintBlock",
      "outputs": [
        {
          "internalType": "uint256",
          "name": "",
          "type": "uint256"
        }
      ],
      "stateMutability": "view",
      "type": "function"
    },
    {
      "inputs": [],
      "name": "lastUpdateTime",
      "outputs": [
        {
          "internalType": "uint256",
          "name": "",
          "type": "uint256"
        }
      ],
      "stateMutability": "view",
      "type": "function"
    },
    {
      "inputs": [
        {
          "internalType": "address",
          "name": "",
          "type": "address"
        }
      ],
      "name": "latestProposalIds",
      "outputs": [
        {
          "internalType": "uint256",
          "name": "",
          "type": "uint256"
        }
      ],
      "stateMutability": "view",
      "type": "function"
    },
    {
      "inputs": [
        {
          "internalType": "address",
          "name": "account",
          "type": "address"
        },
        {
          "internalType": "uint256",
          "name": "amount",
          "type": "uint256"
        }
      ],
      "name": "mint",
      "outputs": [],
      "stateMutability": "nonpayable",
      "type": "function"
    },
    {
      "inputs": [],
      "name": "name",
      "outputs": [
        {
          "internalType": "string",
          "name": "",
          "type": "string"
        }
      ],
      "stateMutability": "view",
      "type": "function"
    },
    {
      "inputs": [
        {
          "internalType": "uint256",
          "name": "reward",
          "type": "uint256"
        }
      ],
      "name": "notifyRewardAmount",
      "outputs": [],
      "stateMutability": "nonpayable",
      "type": "function"
    },
    {
      "inputs": [],
      "name": "periodFinish",
      "outputs": [
        {
          "internalType": "uint256",
          "name": "",
          "type": "uint256"
        }
      ],
      "stateMutability": "view",
      "type": "function"
    },
    {
      "inputs": [],
      "name": "poolCreator",
      "outputs": [
        {
          "internalType": "contract IPoolCreatorFull",
          "name": "",
          "type": "address"
        }
      ],
      "stateMutability": "view",
      "type": "function"
    },
    {
      "inputs": [],
      "name": "proposalCount",
      "outputs": [
        {
          "internalType": "uint256",
          "name": "",
          "type": "uint256"
        }
      ],
      "stateMutability": "view",
      "type": "function"
    },
    {
      "inputs": [],
      "name": "proposalMaxOperations",
      "outputs": [
        {
          "internalType": "uint256",
          "name": "",
          "type": "uint256"
        }
      ],
      "stateMutability": "pure",
      "type": "function"
    },
    {
      "inputs": [],
      "name": "proposalThresholdRate",
      "outputs": [
        {
          "internalType": "uint256",
          "name": "",
          "type": "uint256"
        }
      ],
      "stateMutability": "pure",
      "type": "function"
    },
    {
      "inputs": [
        {
          "internalType": "uint256",
          "name": "",
          "type": "uint256"
        }
      ],
      "name": "proposals",
      "outputs": [
        {
          "internalType": "uint256",
          "name": "id",
          "type": "uint256"
        },
        {
          "internalType": "address",
          "name": "target",
          "type": "address"
        },
        {
          "internalType": "address",
          "name": "proposer",
          "type": "address"
        },
        {
          "internalType": "uint256",
          "name": "startBlock",
          "type": "uint256"
        },
        {
          "internalType": "uint256",
          "name": "endBlock",
          "type": "uint256"
        },
        {
          "internalType": "uint256",
          "name": "quorumVotes",
          "type": "uint256"
        },
        {
          "internalType": "uint256",
          "name": "forVotes",
          "type": "uint256"
        },
        {
          "internalType": "uint256",
          "name": "againstVotes",
          "type": "uint256"
        },
        {
          "internalType": "bool",
          "name": "executed",
          "type": "bool"
        }
      ],
      "stateMutability": "view",
      "type": "function"
    },
    {
      "inputs": [
        {
          "internalType": "string[]",
          "name": "signatures",
          "type": "string[]"
        },
        {
          "internalType": "bytes[]",
          "name": "calldatas",
          "type": "bytes[]"
        },
        {
          "internalType": "string",
          "name": "description",
          "type": "string"
        }
      ],
      "name": "propose",
      "outputs": [
        {
          "internalType": "uint256",
          "name": "",
          "type": "uint256"
        }
      ],
      "stateMutability": "nonpayable",
      "type": "function"
    },
    {
      "inputs": [
        {
          "internalType": "bytes32",
          "name": "targetVersionKey",
          "type": "bytes32"
        },
        {
          "internalType": "bytes",
          "name": "dataForLiquidityPool",
          "type": "bytes"
        },
        {
          "internalType": "bytes",
          "name": "dataForGovernor",
          "type": "bytes"
        },
        {
          "internalType": "string",
          "name": "description",
          "type": "string"
        }
      ],
      "name": "proposeToUpgradeAndCall",
      "outputs": [
        {
          "internalType": "uint256",
          "name": "",
          "type": "uint256"
        }
      ],
      "stateMutability": "nonpayable",
      "type": "function"
    },
    {
      "inputs": [],
      "name": "quorumRate",
      "outputs": [
        {
          "internalType": "uint256",
          "name": "",
          "type": "uint256"
        }
      ],
      "stateMutability": "pure",
      "type": "function"
    },
    {
      "inputs": [],
      "name": "rewardDistribution",
      "outputs": [
        {
          "internalType": "address",
          "name": "",
          "type": "address"
        }
      ],
      "stateMutability": "view",
      "type": "function"
    },
    {
      "inputs": [],
      "name": "rewardPerToken",
      "outputs": [
        {
          "internalType": "uint256",
          "name": "",
          "type": "uint256"
        }
      ],
      "stateMutability": "view",
      "type": "function"
    },
    {
      "inputs": [],
      "name": "rewardPerTokenStored",
      "outputs": [
        {
          "internalType": "uint256",
          "name": "",
          "type": "uint256"
        }
      ],
      "stateMutability": "view",
      "type": "function"
    },
    {
      "inputs": [],
      "name": "rewardRate",
      "outputs": [
        {
          "internalType": "uint256",
          "name": "",
          "type": "uint256"
        }
      ],
      "stateMutability": "view",
      "type": "function"
    },
    {
      "inputs": [],
      "name": "rewardToken",
      "outputs": [
        {
          "internalType": "contract IERC20Upgradeable",
          "name": "",
          "type": "address"
        }
      ],
      "stateMutability": "view",
      "type": "function"
    },
    {
      "inputs": [
        {
          "internalType": "address",
          "name": "",
          "type": "address"
        }
      ],
      "name": "rewards",
      "outputs": [
        {
          "internalType": "uint256",
          "name": "",
          "type": "uint256"
        }
      ],
      "stateMutability": "view",
      "type": "function"
    },
    {
      "inputs": [
        {
          "internalType": "address",
          "name": "creator_",
          "type": "address"
        }
      ],
      "name": "setCreator",
      "outputs": [],
      "stateMutability": "nonpayable",
      "type": "function"
    },
    {
      "inputs": [
        {
          "internalType": "uint256",
          "name": "newRewardRate",
          "type": "uint256"
        }
      ],
      "name": "setRewardRate",
      "outputs": [],
      "stateMutability": "nonpayable",
      "type": "function"
    },
    {
      "inputs": [
        {
          "internalType": "address",
          "name": "creator_",
          "type": "address"
        }
      ],
      "name": "setTarget",
      "outputs": [],
      "stateMutability": "nonpayable",
      "type": "function"
    },
    {
      "inputs": [
        {
          "internalType": "uint256",
          "name": "proposalId",
          "type": "uint256"
        }
      ],
      "name": "state",
      "outputs": [
        {
          "internalType": "enum ProposalState",
          "name": "",
          "type": "uint8"
        }
      ],
      "stateMutability": "view",
      "type": "function"
    },
    {
      "inputs": [],
      "name": "symbol",
      "outputs": [
        {
          "internalType": "string",
          "name": "",
          "type": "string"
        }
      ],
      "stateMutability": "view",
      "type": "function"
    },
    {
      "inputs": [],
      "name": "totalSupply",
      "outputs": [
        {
          "internalType": "uint256",
          "name": "",
          "type": "uint256"
        }
      ],
      "stateMutability": "view",
      "type": "function"
    },
    {
      "inputs": [
        {
          "internalType": "address",
          "name": "recipient",
          "type": "address"
        },
        {
          "internalType": "uint256",
          "name": "amount",
          "type": "uint256"
        }
      ],
      "name": "transfer",
      "outputs": [
        {
          "internalType": "bool",
          "name": "",
          "type": "bool"
        }
      ],
      "stateMutability": "nonpayable",
      "type": "function"
    },
    {
      "inputs": [
        {
          "internalType": "address",
          "name": "sender",
          "type": "address"
        },
        {
          "internalType": "address",
          "name": "recipient",
          "type": "address"
        },
        {
          "internalType": "uint256",
          "name": "amount",
          "type": "uint256"
        }
      ],
      "name": "transferFrom",
      "outputs": [
        {
          "internalType": "bool",
          "name": "",
          "type": "bool"
        }
      ],
      "stateMutability": "nonpayable",
      "type": "function"
    },
    {
      "inputs": [],
      "name": "unlockDelay",
      "outputs": [
        {
          "internalType": "uint256",
          "name": "",
          "type": "uint256"
        }
      ],
      "stateMutability": "pure",
      "type": "function"
    },
    {
      "inputs": [
        {
          "internalType": "address",
          "name": "",
          "type": "address"
        }
      ],
      "name": "userRewardPerTokenPaid",
      "outputs": [
        {
          "internalType": "uint256",
          "name": "",
          "type": "uint256"
        }
      ],
      "stateMutability": "view",
      "type": "function"
    },
    {
      "inputs": [],
      "name": "votingDelay",
      "outputs": [
        {
          "internalType": "uint256",
          "name": "",
          "type": "uint256"
        }
      ],
      "stateMutability": "pure",
      "type": "function"
    },
    {
      "inputs": [],
      "name": "votingPeriod",
      "outputs": [
        {
          "internalType": "uint256",
          "name": "",
          "type": "uint256"
        }
      ],
      "stateMutability": "pure",
      "type": "function"
    }
  ],
  "bytecode": "0x608060405234801561001057600080fd5b50614cec806100206000396000f3fe6080604052600436106103a15760003560e01c80637bdbe4d0116101e7578063c8f33c911161010d578063e56f2fe4116100a0578063f36675171161006f578063f3667517146109f4578063f7c292a214610a09578063f7c618c114610a1e578063fe0d94c114610a33576103a1565b8063e56f2fe41461098a578063ebe2b12b146109aa578063f00e6a2a146109bf578063f3205ed8146109d4576103a1565b8063dd62ed3e116100dc578063dd62ed3e14610913578063df136d6514610933578063e1a5407814610948578063e23a9a521461095d576103a1565b8063c8f33c91146108b4578063cd3daf9d146108c9578063d08e2373146108de578063da35c664146108fe576103a1565b80639dc29fac11610185578063abe0429c11610154578063abe0429c14610855578063b4c4e2581461086a578063c6c1decd1461087f578063c8eb690214610894576103a1565b80639dc29fac146107d55780639e447fc6146107f5578063a457c2d714610815578063a9059cbb14610835576103a1565b80638b257989116101c15780638b257989146104115780638b8763471461078b57806395d89b41146107ab5780639c0784fd146107c0576103a1565b80637bdbe4d01461074157806385a21b19146107565780638b185b351461076b576103a1565b8063328dd982116102cc57806340c10f191161026a57806370a082311161023957806370a08231146106ea57806374281ee61461070a578063776d1a01146106555780637b0a47ee1461072c576103a1565b806340c10f19146106755780634a235528146106955780634a4fbeec146106aa5780634c852eb2146106ca576103a1565b80633c6b16ab116102a65780633c6b16ab146105f35780633d18b912146106135780633e4f49e6146106285780633f51601814610655576103a1565b8063328dd982146105905780633932abb1146105be57806339509351146105d3576103a1565b80630bb4df0c1161034457806318160ddd1161031357806318160ddd1461051957806322ed77f81461052e57806323b872dd1461054e578063313ce5671461056e576103a1565b80630bb4df0c14610495578063101114cf146104b557806315373e3d146104d757806317977c61146104f9576103a1565b80630519da32116103805780630519da321461041157806306fdde03146104265780630700037d14610448578063095ea7b314610468576103a1565b80628cc262146103a6578063013cf08b146103dc57806302a251a314610411575b600080fd5b3480156103b257600080fd5b506103c66103c1366004613ceb565b610a46565b6040516103d39190614315565b60405180910390f35b3480156103e857600080fd5b506103fc6103f73660046140dc565b610ab6565b6040516103d399989796959493929190614950565b34801561041d57600080fd5b506103c6610b10565b34801561043257600080fd5b5061043b610b16565b6040516103d391906143a2565b34801561045457600080fd5b506103c6610463366004613ceb565b610bac565b34801561047457600080fd5b50610488610483366004613d7f565b610bbe565b6040516103d3919061430a565b3480156104a157600080fd5b506103c66104b0366004613ceb565b610bdc565b3480156104c157600080fd5b506104ca610bf2565b6040516103d39190614249565b3480156104e357600080fd5b506104f76104f2366004614118565b610c01565b005b34801561050557600080fd5b506103c6610514366004613ceb565b610c53565b34801561052557600080fd5b506103c6610c65565b34801561053a57600080fd5b50610488610549366004613ceb565b610c74565b34801561055a57600080fd5b50610488610569366004613d3f565b610ca7565b34801561057a57600080fd5b50610583610d2f565b6040516103d3919061499d565b34801561059c57600080fd5b506105b06105ab3660046140dc565b610d38565b6040516103d39291906142e5565b3480156105ca57600080fd5b506103c6610f08565b3480156105df57600080fd5b506104886105ee366004613d7f565b610f0d565b3480156105ff57600080fd5b506104f761060e3660046140dc565b610f5b565b34801561061f57600080fd5b506104f7611158565b34801561063457600080fd5b506106486106433660046140dc565b6111f5565b6040516103d3919061438e565b34801561066157600080fd5b506104f7610670366004613ceb565b611311565b34801561068157600080fd5b506104f7610690366004613d7f565b611333565b3480156106a157600080fd5b506103c6611398565b3480156106b657600080fd5b506104886106c5366004613ceb565b6113a4565b3480156106d657600080fd5b506103c66106e5366004613f6f565b6113fa565b3480156106f657600080fd5b506103c6610705366004613ceb565b61152e565b34801561071657600080fd5b5061071f611539565b6040516103d39190614361565b34801561073857600080fd5b506103c6611592565b34801561074d57600080fd5b506103c6611598565b34801561076257600080fd5b506103c661159d565b34801561077757600080fd5b506103c6610786366004613ceb565b6115ce565b34801561079757600080fd5b506103c66107a6366004613ceb565b6115e0565b3480156107b757600080fd5b5061043b6115f2565b3480156107cc57600080fd5b506103c6611653565b3480156107e157600080fd5b506104f76107f0366004613d7f565b61165e565b34801561080157600080fd5b506104f76108103660046140dc565b6116a2565b34801561082157600080fd5b50610488610830366004613d7f565b611808565b34801561084157600080fd5b50610488610850366004613d7f565b611870565b34801561086157600080fd5b506103c6611884565b34801561087657600080fd5b5061071f61189d565b34801561088b57600080fd5b506104ca6118c0565b3480156108a057600080fd5b506103c66108af366004613daa565b6118cf565b3480156108c057600080fd5b506103c661198c565b3480156108d557600080fd5b506103c6611992565b3480156108ea57600080fd5b506104886108f9366004613ffd565b6119e0565b34801561090a57600080fd5b506103c6611ae7565b34801561091f57600080fd5b506103c661092e366004613d07565b611aed565b34801561093f57600080fd5b506103c6611b18565b34801561095457600080fd5b5061071f611b1e565b34801561096957600080fd5b5061097d6109783660046140f4565b611b41565b6040516103d391906148ad565b34801561099657600080fd5b506104f76109a5366004614030565b611ba2565b3480156109b657600080fd5b506103c6611c97565b3480156109cb57600080fd5b506104ca611c9d565b3480156109e057600080fd5b506103c66109ef3660046140dc565b611ca7565b348015610a0057600080fd5b506104ca611dc8565b348015610a1557600080fd5b506103c6611dd7565b348015610a2a57600080fd5b506104ca611de3565b6104f7610a413660046140dc565b611df2565b6001600160a01b038116600090815260a6602090815260408083205460a5909252822054610aae9190610aa890670de0b6b3a764000090610aa290610a9390610a8d611992565b90611ff8565b610a9c8861152e565b90612055565b906120ae565b90612115565b90505b919050565b606a60205260009081526040902080546001820154600283015460058401546006850154600786015460088701546009880154600a9098015496976001600160a01b03968716979690951695939492939192909160ff1689565b60145b90565b60368054604080516020601f6002600019610100600188161502019095169490940493840181900481028201810190925282815260609390929091830182828015610ba25780601f10610b7757610100808354040283529160200191610ba2565b820191906000526020600020905b815481529060010190602001808311610b8557829003601f168201915b5050505050905090565b60a66020526000908152604090205481565b6000610bd2610bcb61216f565b8484612173565b5060015b92915050565b600080610be88361225f565b5090949350505050565b60a4546001600160a01b031681565b6001610c0c836111f5565b6006811115610c1757fe5b14610c3d5760405162461bcd60e51b8152600401610c34906145a3565b60405180910390fd5b610c4f610c4861216f565b83836123ff565b5050565b606b6020526000908152604090205481565b6000610c6f612533565b905090565b60006001600160a01b038216610c8c57506000610ab1565b610c97826000612539565b610c9f6125db565b111592915050565b6000610cb48484846125df565b610d2484610cc061216f565b610d1f85604051806060016040528060288152602001614bae602891396001600160a01b038a16600090815260346020526040812090610cfe61216f565b6001600160a01b03168152602081019190915260400160002054919061273c565b612173565b5060015b9392505050565b60385460ff1690565b6060806000606a60008581526020019081526020016000209050806003018160040181805480602002602001604051908101604052809291908181526020016000905b82821015610e265760008481526020908190208301805460408051601f6002600019610100600187161502019094169390930492830185900485028101850190915281815292830182828015610e125780601f10610de757610100808354040283529160200191610e12565b820191906000526020600020905b815481529060010190602001808311610df557829003601f168201915b505050505081526020019060010190610d7b565b50505050915080805480602002602001604051908101604052809291908181526020016000905b82821015610ef85760008481526020908190208301805460408051601f6002600019610100600187161502019094169390930492830185900485028101850190915281815292830182828015610ee45780601f10610eb957610100808354040283529160200191610ee4565b820191906000526020600020905b815481529060010190602001808311610ec757829003601f168201915b505050505081526020019060010190610e4d565b5050505090509250925050915091565b600190565b6000610bd2610f1a61216f565b84610d1f8560346000610f2b61216f565b6001600160a01b03908116825260208083019390935260409182016000908120918c168152925290205490612115565b609e60009054906101000a90046001600160a01b03166001600160a01b0316638da5cb5b6040518163ffffffff1660e01b815260040160206040518083038186803b158015610fa957600080fd5b505afa158015610fbd573d6000803e3d6000fd5b505050506040513d6020811015610fd357600080fd5b50516001600160a01b0316610fe661216f565b6001600160a01b03161461102b5760405162461bcd60e51b8152600401808060200182810382526024815260200180614a416024913960400191505060405180910390fd5b6000611036816127d3565b600060a1541161108d576040805162461bcd60e51b815260206004820152601260248201527f72657761726452617465206973207a65726f0000000000000000000000000000604482015290519081900360640190fd5b60006110a460a154846120ae90919063ffffffff16565b905060a054431115611105574360a28190556110c09082612115565b60a081905560408051858152602081019290925280517f6c07ee05dcf262f13abf9d87b846ee789d2f90fe991d495acd7d7fc109ee1f559281900390910190a1611153565b60a0546111129082612115565b60a081905560408051858152602081019290925280517f6c07ee05dcf262f13abf9d87b846ee789d2f90fe991d495acd7d7fc109ee1f559281900390910190a15b505050565b61116061216f565b611169816127d3565b600061117361216f565b9050600061118082610a46565b90508015611153576001600160a01b03808316600090815260a66020526040812055609f546111b191168383612830565b6040805182815290516001600160a01b038416917fe2403640ba68fed3a2f88b7557551d1993f84b99bb10ff833f0cf8db0c5e0486919081900360200190a2505050565b600081606954101580156112095750600082115b6112255760405162461bcd60e51b8152600401610c34906143eb565b6000828152606a6020526040902060058101544311611248576000915050610ab1565b8060060154431161125d576001915050610ab1565b80600901548160080154111580611289575060078101546009820154600883015461128791612115565b105b15611298576002915050610ab1565b6112ae6112a3610b10565b600683015490612115565b43116112be576003915050610ab1565b600a81015460ff16156112d5576005915050610ab1565b6112f66112e0610b10565b610aa86112eb610b10565b600685015490612115565b431115611307576006915050610ab1565b6004915050610ab1565b606580546001600160a01b0319166001600160a01b0392909216919091179055565b60d9546001600160a01b031661134761216f565b6001600160a01b03161461136d5760405162461bcd60e51b8152600401610c34906144c7565b6113756125db565b6001600160a01b038316600090815260da6020526040902055610c4f828261289b565b6702c68af0bb14000090565b6000806113d16113b261298d565b6001600160a01b038516600090815260da602052604090205490612115565b6113d96125db565b10905060006113e784610c74565b905081806113f25750805b949350505050565b6000611405856129b0565b600061140f61216f565b60408051600180825281830190925291925060609190816020015b606081526020019060019003908161142a579050509050604051806060016040528060258152602001614aee602591398160008151811061146757fe5b6020908102919091010152604080516001808252818301909252606091816020015b60608152602001906001900390816114895790505090508787876040516020016114b59392919061432c565b604051602081830303815290604052816000815181106114d157fe5b60209081029190910101526065546000906114f99085906001600160a01b031685858a612ba7565b6001600160a01b0385166000908152606b602052604090208190559050611522848260016123ff565b98975050505050505050565b6000610aae82612cdc565b60408051808201909152601981527f7472616e736665724f70657261746f72286164647265737329000000000000006020909101527f29605e77570554e17097b370f7d97acbb47139a4d78e46edc79331bbb54c115f81565b60a15481565b600a90565b6000806115a8610c65565b90506115c8670de0b6b3a7640000610aa26115c1611653565b8490612055565b91505090565b60da6020526000908152604090205481565b60a56020526000908152604090205481565b60378054604080516020601f6002600019610100600188161502019095169490940493840181900481028201810190925282815260609390929091830182828015610ba25780601f10610b7757610100808354040283529160200191610ba2565b662386f26fc1000090565b60d9546001600160a01b031661167261216f565b6001600160a01b0316146116985760405162461bcd60e51b8152600401610c34906146cb565b610c4f8282612cf7565b609e60009054906101000a90046001600160a01b03166001600160a01b0316638da5cb5b6040518163ffffffff1660e01b815260040160206040518083038186803b1580156116f057600080fd5b505afa158015611704573d6000803e3d6000fd5b505050506040513d602081101561171a57600080fd5b50516001600160a01b031661172d61216f565b6001600160a01b0316146117725760405162461bcd60e51b8152600401808060200182810382526024815260200180614a416024913960400191505060405180910390fd5b600061177d816127d3565b8161178b574360a0556117bc565b60a054156117bc576117b843610aa884610aa260a154610a9c60a25460a054611ff890919063ffffffff16565b60a0555b60a15460a054604080519283526020830185905282810191909152517f3d209aed8ecb665e2e6cc55772bfc177e7aa7f6fa40ce4af171a43ed8fa2e2db9181900360600190a15060a155565b6000610bd261181561216f565b84610d1f85604051806060016040528060258152602001614c92602591396034600061183f61216f565b6001600160a01b03908116825260208083019390935260409182016000908120918d1681529252902054919061273c565b6000610bd261187d61216f565b84846125df565b600060a0544311156118985760a054610c6f565b504390565b604051806060016040528060258152602001614aee602591398051906020012081565b609e546001600160a01b031681565b600082518451146118f25760405162461bcd60e51b8152600401610c3490614819565b83516119105760405162461bcd60e51b8152600401610c3490614490565b611918611598565b845111156119385760405162461bcd60e51b8152600401610c3490614422565b600061194261216f565b9050600061195a82611952611c9d565b888888612ba7565b6001600160a01b0383166000908152606b602052604090208190559050611983828260016123ff565b95945050505050565b60a25481565b600061199c610c65565b6119a9575060a354610b13565b610c6f6119d76119b7610c65565b610aa2670de0b6b3a7640000610a9c60a154610a9c60a254610a8d611884565b60a35490612115565b60008082805190602001209050604051806060016040528060258152602001614aee60259139805190602001206001600160e01b031916816001600160e01b0319161480611a605750604051806060016040528060288152602001614c4060289139805190602001206001600160e01b031916816001600160e01b031916145b80610d28575060408051808201909152601981527f7472616e736665724f70657261746f72286164647265737329000000000000006020909101527fffffffff0000000000000000000000000000000000000000000000000000000081167f29605e7700000000000000000000000000000000000000000000000000000000149392505050565b60695481565b6001600160a01b03918216600090815260346020908152604080832093909416825291909152205490565b60a35481565b604051806060016040528060288152602001614c40602891398051906020012081565b611b4961391a565b506000918252606a602090815260408084206001600160a01b03939093168452600b9092018152918190208151606081018352815460ff8082161515835261010090910416151593810193909352600101549082015290565b600054610100900460ff1680611bbb5750611bbb612df3565b80611bc9575060005460ff16155b611c045760405162461bcd60e51b815260040180806020018281038252602e815260200180614b5f602e913960400191505060405180910390fd5b600054610100900460ff16158015611c2f576000805460ff1961ff0019909116610100171660011790555b611c398787612e04565b611c4284612edc565b611c4c8383612fc1565b60d980546001600160a01b038088166001600160a01b03199283161790925560668054928716929091169190911790558015611c8e576000805461ff00191690555b50505050505050565b60a05481565b6000610c6f613094565b6000818152606a60205260408120600381015482611cc3610c65565b905060005b82811015611db057611d7a846003018281548110611ce257fe5b600091825260209182902001805460408051601f6002600019610100600187161502019094169390930492830185900485028101850190915281815292830182828015611d705780601f10611d4557610100808354040283529160200191611d70565b820191906000526020600020905b815481529060010190602001808311611d5357829003601f168201915b50505050506119e0565b15611da857611d9d670de0b6b3a7640000610aa2611d96611398565b8590612055565b945050505050610ab1565b600101611cc8565b50611983670de0b6b3a7640000610aa26115c1611dd7565b60d9546001600160a01b031690565b67016345785d8a000090565b609f546001600160a01b031681565b6004611dfd826111f5565b6006811115611e0857fe5b14611e255760405162461bcd60e51b8152600401610c3490614702565b6000818152606a60205260408120600a8101805460ff19166001179055905b6003820154811015611fbc576001820154600383018054611fb3926001600160a01b0316919084908110611e7457fe5b600091825260209182902001805460408051601f6002600019610100600187161502019094169390930492830185900485028101850190915281815292830182828015611f025780601f10611ed757610100808354040283529160200191611f02565b820191906000526020600020905b815481529060010190602001808311611ee557829003601f168201915b5050505050846004018481548110611f1657fe5b600091825260209182902001805460408051601f6002600019610100600187161502019094169390930492830185900485028101850190915281815292830182828015611fa45780601f10611f7957610100808354040283529160200191611fa4565b820191906000526020600020905b815481529060010190602001808311611f8757829003601f168201915b505050505085600601546130a3565b50600101611e44565b507f712ae1383f79ac853f8d882153778e0260ef8f03b504e2866e0593e04d2b291f82604051611fec9190614315565b60405180910390a15050565b60008282111561204f576040805162461bcd60e51b815260206004820152601e60248201527f536166654d6174683a207375627472616374696f6e206f766572666c6f770000604482015290519081900360640190fd5b50900390565b60008261206457506000610bd6565b8282028284828161207157fe5b0414610d285760405162461bcd60e51b8152600401808060200182810382526021815260200180614b8d6021913960400191505060405180910390fd5b6000808211612104576040805162461bcd60e51b815260206004820152601a60248201527f536166654d6174683a206469766973696f6e206279207a65726f000000000000604482015290519081900360640190fd5b81838161210d57fe5b049392505050565b600082820183811015610d28576040805162461bcd60e51b815260206004820152601b60248201527f536166654d6174683a206164646974696f6e206f766572666c6f770000000000604482015290519081900360640190fd5b3390565b6001600160a01b0383166121b85760405162461bcd60e51b8152600401808060200182810382526024815260200180614c1c6024913960400191505060405180910390fd5b6001600160a01b0382166121fd5760405162461bcd60e51b8152600401808060200182810382526022815260200180614acc6022913960400191505060405180910390fd5b6001600160a01b03808416600081815260346020908152604080832094871680845294825291829020859055815185815291517f8c5be1e5ebec7d5bd14f71427d1e84f3dd0314c0f7b2291e5b200ac8c7c3b9259281900390910190a3505050565b6001600160a01b0381166000908152606760209081526040808320546068909252822090919060609082612292826131e1565b905080156123f6578067ffffffffffffffff811180156122b157600080fd5b506040519080825280602002602001820160405280156122db578160200160208202803683370190505b50925060005b818110156123f45760006122f584836131ec565b90506000612302826111f5565b9050600081600681111561231257fe5b14806123295750600181600681111561232757fe5b145b156123355750506123ec565b600381600681111561234357fe5b148061235a5750600581600681111561235857fe5b145b806123705750600481600681111561236e57fe5b145b806123865750600681600681111561238457fe5b145b156123cb5760006123bb6123a361239b610b10565b610aa8610b10565b6000858152606a602052604090206006015490612115565b9050888111156123c9578098505b505b818688815181106123d857fe5b602090810291909101015250506001909401935b6001016122e1565b505b50509193909250565b6000828152606a602090815260408083206001600160a01b0387168452600b8101909252909120805460ff16156124485760405162461bcd60e51b8152600401610c3490614535565b60006124538661152e565b9050831561247457600883015461246a9082612115565b6008840155612489565b60098301546124839082612115565b60098401555b8154600160ff19909116811761ff0019166101008615150217835580830182905560068401546124c39188916124be91612115565b612539565b5083156124ee576001600160a01b03861660009081526068602052604090206124ec90866131f8565b505b7f877856338e13f63d0c36822ff0ef736b80934cd90574a3a5bc9262c39d217c468686868460405161252394939291906142bd565b60405180910390a1505050505050565b60355490565b6001600160a01b03821660009081526068602052604081208180606061255e8761225f565b92509250925060005b828110156125a457600082828151811061257d57fe5b602002602001015190508060001461259b576125998682613204565b505b50600101612567565b508286116125b257826125b4565b855b6001600160a01b038816600090815260676020526040902081905594505050505092915050565b4390565b6001600160a01b0383166126245760405162461bcd60e51b8152600401808060200182810382526025815260200180614bf76025913960400191505060405180910390fd5b6001600160a01b0382166126695760405162461bcd60e51b8152600401808060200182810382526023815260200180614a876023913960400191505060405180910390fd5b612674838383613210565b6126b181604051806060016040528060268152602001614b13602691396001600160a01b038616600090815260336020526040902054919061273c565b6001600160a01b0380851660009081526033602052604080822093909355908416815220546126e09082612115565b6001600160a01b0380841660008181526033602090815260409182902094909455805185815290519193928716927fddf252ad1be2c89b69c2b068fc378daa952ba7f163c4a11628f55a4df523b3ef92918290030190a3505050565b600081848411156127cb5760405162461bcd60e51b81526004018080602001828103825283818151815260200191508051906020019080838360005b83811015612790578181015183820152602001612778565b50505050905090810190601f1680156127bd5780820380516001836020036101000a031916815260200191505b509250505060405180910390fd5b505050900390565b6127db611992565b60a3556127e6611884565b60a2556001600160a01b0381161561282d5761280181610a46565b6001600160a01b038216600090815260a6602090815260408083209390935560a35460a5909152919020555b50565b604080516001600160a01b038416602482015260448082018490528251808303909101815260649091019091526020810180516001600160e01b03167fa9059cbb00000000000000000000000000000000000000000000000000000000179052611153908490613253565b6001600160a01b0382166128f6576040805162461bcd60e51b815260206004820152601f60248201527f45524332303a206d696e7420746f20746865207a65726f206164647265737300604482015290519081900360640190fd5b61290260008383613210565b60355461290f9082612115565b6035556001600160a01b0382166000908152603360205260409020546129359082612115565b6001600160a01b03831660008181526033602090815260408083209490945583518581529351929391927fddf252ad1be2c89b69c2b068fc378daa952ba7f163c4a11628f55a4df523b3ef9281900390910190a35050565b6066546000906001600160a01b03166129a857506000610b13565b610c6f613304565b6065546040517f8277c6510000000000000000000000000000000000000000000000000000000081526001600160a01b0390911690638277c651906129f9908490600401614315565b60206040518083038186803b158015612a1157600080fd5b505afa158015612a25573d6000803e3d6000fd5b505050506040513d601f19601f82011682018060405250810190612a499190613e7e565b612a655760405162461bcd60e51b8152600401610c349061475f565b6065546000906001600160a01b031663db7ca94b612a81611c9d565b306040518363ffffffff1660e01b8152600401612a9f92919061425d565b60206040518083038186803b158015612ab757600080fd5b505afa158015612acb573d6000803e3d6000fd5b505050506040513d601f19601f82011682018060405250810190612aef9190613f57565b6065546040517f3c597ff60000000000000000000000000000000000000000000000000000000081529192506001600160a01b031690633c597ff690612b3b908590859060040161431e565b60206040518083038186803b158015612b5357600080fd5b505afa158015612b67573d6000803e3d6000fd5b505050506040513d601f19601f82011682018060405250810190612b8b9190613e7e565b610c4f5760405162461bcd60e51b8152600401610c34906147bc565b6000612bb2866133b3565b6000612bc7612bbf610f08565b610aa86125db565b90506000612bdd612bd6610b10565b8390612115565b606980546001908101918290556000828152606a6020908152604090912083815591820180546001600160a01b03808e166001600160a01b031992831617909255600284018054928f1692909116919091179055895193945091929091612c4b9160038401918b019061393a565b508651612c6190600483019060208a0190613997565b5060058101849055600681018390556000612c7b83611ca7565b90508082600701819055507fc98917001dd55381b0307302ec6f8b757eb673e54d241fdddd6f722e847340bf838c8c8c8c8a8a888f604051612cc5999897969594939291906148d2565b60405180910390a150909998505050505050505050565b6001600160a01b031660009081526033602052604090205490565b6001600160a01b038216612d3c5760405162461bcd60e51b8152600401808060200182810382526021815260200180614bd66021913960400191505060405180910390fd5b612d4882600083613210565b612d8581604051806060016040528060228152602001614aaa602291396001600160a01b038516600090815260336020526040902054919061273c565b6001600160a01b038316600090815260336020526040902055603554612dab9082611ff8565b6035556040805182815290516000916001600160a01b038516917fddf252ad1be2c89b69c2b068fc378daa952ba7f163c4a11628f55a4df523b3ef9181900360200190a35050565b6000612dfe306134cd565b15905090565b600054610100900460ff1680612e1d5750612e1d612df3565b80612e2b575060005460ff16155b612e665760405162461bcd60e51b815260040180806020018281038252602e815260200180614b5f602e913960400191505060405180910390fd5b600054610100900460ff16158015612e91576000805460ff1961ff0019909116610100171660011790555b8251612ea49060369060208601906139f0565b508151612eb89060379060208501906139f0565b506038805460ff191660121790558015611153576000805461ff0019169055505050565b600054610100900460ff1680612ef55750612ef5612df3565b80612f03575060005460ff16155b612f3e5760405162461bcd60e51b815260040180806020018281038252602e815260200180614b5f602e913960400191505060405180910390fd5b600054610100900460ff16158015612f69576000805460ff1961ff0019909116610100171660011790555b606680546001600160a01b0319166001600160a01b038416179055612f8c61216f565b606580546001600160a01b0319166001600160a01b03929092169190911790558015610c4f576000805461ff00191690555050565b600054610100900460ff1680612fda5750612fda612df3565b80612fe8575060005460ff16155b6130235760405162461bcd60e51b815260040180806020018281038252602e815260200180614b5f602e913960400191505060405180910390fd5b600054610100900460ff1615801561304e576000805460ff1961ff0019909116610100171660011790555b609f80546001600160a01b038086166001600160a01b031992831617909255609e8054928516929091169190911790558015611153576000805461ff0019169055505050565b6066546001600160a01b031690565b60606000858585856040516020016130be9493929190614277565b60405160208183030381529060405280519060200120905060006130e06125db565b90506130f46130ed610b10565b8590612115565b8110156131135760405162461bcd60e51b8152600401610c3490614611565b61313061311e610b10565b610aa8613129610b10565b8790612115565b81111561314f5760405162461bcd60e51b8152600401610c3490614876565b606061318e87805190602001208760405160200161316e929190614201565b60408051601f198184030181529190526001600160a01b038a16906134d3565b9050876001600160a01b0316837f73bcadb73827ad9a900198359278e77086ae03e9e17ef173ad7de9e7e39acaff8989896040516131ce939291906143b5565b60405180910390a3979650505050505050565b6000610aae82613515565b6000610d288383613519565b6000610d28838361357d565b6000610d2883836135c7565b613219836113a4565b156132365760405162461bcd60e51b8152600401610c349061456c565b61323f836127d3565b613248826127d3565b611153838383611153565b60606132a8826040518060400160405280602081526020017f5361666545524332303a206c6f772d6c6576656c2063616c6c206661696c6564815250856001600160a01b031661368d9092919063ffffffff16565b805190915015611153578080602001905160208110156132c757600080fd5b50516111535760405162461bcd60e51b815260040180806020018281038252602a815260200180614c68602a913960400191505060405180910390fd5b600061330e613a78565b606660009054906101000a90046001600160a01b03166001600160a01b0316630cdc105a6040518163ffffffff1660e01b81526004016102806040518083038186803b15801561335d57600080fd5b505afa158015613371573d6000803e3d6000fd5b505050506040513d601f19601f820116820180604052508101906133959190613e9a565b945050505050806005600681106133a857fe5b602002015191505090565b60006133bd61369c565b90506001600160a01b0381161561340457806001600160a01b0316826001600160a01b0316146133ff5760405162461bcd60e51b8152600401610c349061466e565b613433565b61340c61159d565b6134158361152e565b10156134335760405162461bcd60e51b8152600401610c3490614459565b6001600160a01b0382166000908152606b602052604090205415610c4f576001600160a01b0382166000908152606b6020526040812054613473906111f5565b9050600081600681111561348357fe5b14156134a15760405162461bcd60e51b8152600401610c34906144fe565b60018160068111156134af57fe5b14156111535760405162461bcd60e51b8152600401610c34906145da565b3b151590565b6060610d2883836040518060400160405280601e81526020017f416464726573733a206c6f772d6c6576656c2063616c6c206661696c6564000081525061368d565b5490565b8154600090821061355b5760405162461bcd60e51b8152600401808060200182810382526022815260200180614a656022913960400191505060405180910390fd5b82600001828154811061356a57fe5b9060005260206000200154905092915050565b60006135898383613740565b6135bf57508154600181810184556000848152602080822090930184905584548482528286019093526040902091909155610bd6565b506000610bd6565b6000818152600183016020526040812054801561368357835460001980830191908101906000908790839081106135fa57fe5b906000526020600020015490508087600001848154811061361757fe5b60009182526020808320909101929092558281526001898101909252604090209084019055865487908061364757fe5b60019003818190600052602060002001600090559055866001016000878152602001908152602001600020600090556001945050505050610bd6565b6000915050610bd6565b60606113f28484600085613758565b60006136a6613a96565b606660009054906101000a90046001600160a01b03166001600160a01b0316630cdc105a6040518163ffffffff1660e01b81526004016102806040518083038186803b1580156136f557600080fd5b505afa158015613709573d6000803e3d6000fd5b505050506040513d601f19601f8201168201806040525081019061372d9190613e9a565b505092505050806001600781106133a857fe5b60009081526001919091016020526040902054151590565b6060824710156137995760405162461bcd60e51b8152600401808060200182810382526026815260200180614b396026913960400191505060405180910390fd5b6137a2856134cd565b6137f3576040805162461bcd60e51b815260206004820152601d60248201527f416464726573733a2063616c6c20746f206e6f6e2d636f6e7472616374000000604482015290519081900360640190fd5b60006060866001600160a01b031685876040518082805190602001908083835b602083106138325780518252601f199092019160209182019101613813565b6001836020036101000a03801982511681845116808217855250505050505090500191505060006040518083038185875af1925050503d8060008114613894576040519150601f19603f3d011682016040523d82523d6000602084013e613899565b606091505b50915091506138a98282866138b4565b979650505050505050565b606083156138c3575081610d28565b8251156138d35782518084602001fd5b60405162461bcd60e51b8152602060048201818152845160248401528451859391928392604401919085019080838360008315612790578181015183820152602001612778565b604080516060810182526000808252602082018190529181019190915290565b828054828255906000526020600020908101928215613987579160200282015b8281111561398757825180516139779184916020909101906139f0565b509160200191906001019061395a565b50613993929150613ab4565b5090565b8280548282559060005260206000209081019282156139e4579160200282015b828111156139e457825180516139d49184916020909101906139f0565b50916020019190600101906139b7565b50613993929150613ad1565b828054600181600116156101000203166002900490600052602060002090601f016020900481019282613a265760008555613a6c565b82601f10613a3f57805160ff1916838001178555613a6c565b82800160010185558215613a6c579182015b82811115613a6c578251825591602001919060010190613a51565b50613993929150613aee565b6040518060c001604052806006906020820280368337509192915050565b6040518060e001604052806007906020820280368337509192915050565b80821115613993576000613ac88282613b03565b50600101613ab4565b80821115613993576000613ae58282613b03565b50600101613ad1565b5b808211156139935760008155600101613aef565b50805460018160011615610100020316600290046000825580601f10613b29575061282d565b601f01602090049060005260206000209081019061282d9190613aee565b600082601f830112613b57578081fd5b8135613b6a613b65826149cf565b6149ab565b818152915060208083019084810160005b84811015613ba457613b92888484358a0101613c84565b84529282019290820190600101613b7b565b505050505092915050565b600082601f830112613bbf578081fd5b60405160a0810181811067ffffffffffffffff82111715613bdc57fe5b6040529050808260a08101851015613bf357600080fd5b60005b6005811015613c15578151835260209283019290910190600101613bf6565b50505092915050565b600082601f830112613c2e578081fd5b60405160c0810181811067ffffffffffffffff82111715613c4b57fe5b6040529050808260c08101851015613c6257600080fd5b60005b6006811015613c15578151835260209283019290910190600101613c65565b600082601f830112613c94578081fd5b813567ffffffffffffffff811115613ca857fe5b613cbb601f8201601f19166020016149ab565b9150808252836020828501011115613cd257600080fd5b8060208401602084013760009082016020015292915050565b600060208284031215613cfc578081fd5b8135610d2881614a1d565b60008060408385031215613d19578081fd5b8235613d2481614a1d565b91506020830135613d3481614a1d565b809150509250929050565b600080600060608486031215613d53578081fd5b8335613d5e81614a1d565b92506020840135613d6e81614a1d565b929592945050506040919091013590565b60008060408385031215613d91578182fd5b8235613d9c81614a1d565b946020939093013593505050565b600080600060608486031215613dbe578283fd5b833567ffffffffffffffff80821115613dd5578485fd5b818601915086601f830112613de8578485fd5b8135613df6613b65826149cf565b81815260208082019190858101895b85811015613e2e57613e1c8d8484358b0101613c84565b85529382019390820190600101613e05565b50919850890135945050505080821115613e46578384fd5b613e5287838801613b47565b93506040860135915080821115613e67578283fd5b50613e7486828701613c84565b9150509250925092565b600060208284031215613e8f578081fd5b8151610d2881614a32565b60008060008060006102808688031215613eb2578283fd5b8551613ebd81614a32565b80955050602080870151613ed081614a32565b9450605f87018813613ee0578384fd5b613eea60e06149ab565b80604089016101208a018b811115613f00578788fd5b875b6007811015613f28578251613f1681614a1d565b85529385019391850191600101613f02565b50829750613f368c82613baf565b96505050505050613f4b876101c08801613c1e565b90509295509295909350565b600060208284031215613f68578081fd5b5051919050565b60008060008060808587031215613f84578182fd5b84359350602085013567ffffffffffffffff80821115613fa2578384fd5b613fae88838901613c84565b94506040870135915080821115613fc3578384fd5b613fcf88838901613c84565b93506060870135915080821115613fe4578283fd5b50613ff187828801613c84565b91505092959194509250565b60006020828403121561400e578081fd5b813567ffffffffffffffff811115614024578182fd5b6113f284828501613c84565b60008060008060008060c08789031215614048578384fd5b863567ffffffffffffffff8082111561405f578586fd5b61406b8a838b01613c84565b97506020890135915080821115614080578586fd5b5061408d89828a01613c84565b955050604087013561409e81614a1d565b935060608701356140ae81614a1d565b925060808701356140be81614a1d565b915060a08701356140ce81614a1d565b809150509295509295509295565b6000602082840312156140ed578081fd5b5035919050565b60008060408385031215614106578182fd5b823591506020830135613d3481614a1d565b6000806040838503121561412a578182fd5b823591506020830135613d3481614a32565b6000815180845260208085018081965082840281019150828601855b858110156141825782840389526141708483516141d5565b98850198935090840190600101614158565b5091979650505050505050565b6000815180845260208085018081965082840281019150828601855b858110156141825782840389526141c38483516141d5565b988501989350908401906001016141ab565b600081518084526141ed8160208601602086016149ed565b601f01601f19169290920160200192915050565b60007fffffffff0000000000000000000000000000000000000000000000000000000084168252825161423b8160048501602087016149ed565b919091016004019392505050565b6001600160a01b0391909116815260200190565b6001600160a01b0392831681529116602082015260400190565b60006001600160a01b03861682526080602083015261429960808301866141d5565b82810360408401526142ab81866141d5565b91505082606083015295945050505050565b6001600160a01b03949094168452602084019290925215156040830152606082015260800190565b6000604082526142f8604083018561418f565b8281036020840152611983818561413c565b901515815260200190565b90815260200190565b918252602082015260400190565b60008482526060602083015261434560608301856141d5565b828103604084015261435781856141d5565b9695505050505050565b7fffffffff0000000000000000000000000000000000000000000000000000000091909116815260200190565b602081016007831061439c57fe5b91905290565b600060208252610d2860208301846141d5565b6000606082526143c860608301866141d5565b82810360208401526143da81866141d5565b915050826040830152949350505050565b60208082526013908201527f696e76616c69642070726f706f73616c20696400000000000000000000000000604082015260600190565b60208082526010908201527f746f6f206d616e7920616374696f6e7300000000000000000000000000000000604082015260600190565b60208082526018908201527f70726f706f73616c207468726573686f6c6420756e6d65740000000000000000604082015260600190565b60208082526014908201527f6d7573742070726f7669646520616374696f6e73000000000000000000000000604082015260600190565b60208082526016908201527f6d757374206265206d696e74657220746f206d696e7400000000000000000000604082015260600190565b60208082526018908201527f6c6173742070726f706f73616c2069732070656e64696e670000000000000000604082015260600190565b60208082526015908201527f6163636f756e7420616c726561647920766f7465640000000000000000000000604082015260600190565b60208082526010908201527f73656e646572206973206c6f636b656400000000000000000000000000000000604082015260600190565b60208082526010908201527f766f74696e6720697320636c6f73656400000000000000000000000000000000604082015260600190565b60208082526017908201527f6c6173742070726f706f73616c20697320616374697665000000000000000000604082015260600190565b60208082526027908201527f5472616e73616374696f6e206861736e2774207375727061737365642074696d60408201527f65206c6f636b2e00000000000000000000000000000000000000000000000000606082015260800190565b6020808252602e908201527f70726f706f736572206d757374206265206f70657261746f72207768656e206f60408201527f70657261746f7220657869737473000000000000000000000000000000000000606082015260800190565b60208082526016908201527f6d757374206265206d696e74657220746f206275726e00000000000000000000604082015260600190565b60208082526039908201527f70726f706f73616c2063616e206f6e6c7920626520657865637574656420696660408201527f206974206973207375636365737320616e642071756575656400000000000000606082015260800190565b60208082526022908201527f76657273696f6e20746f207570677261646520746f206973206e6f742076616c60408201527f6964000000000000000000000000000000000000000000000000000000000000606082015260800190565b60208082526027908201527f76657273696f6e20746f207570677261646520746f206973206e6f7420636f6d60408201527f70617469626c6500000000000000000000000000000000000000000000000000606082015260800190565b60208082526023908201527f66756e6374696f6e20696e666f726d6174696f6e206172697479206d69736d6160408201527f7463680000000000000000000000000000000000000000000000000000000000606082015260800190565b60208082526015908201527f5472616e73616374696f6e206973207374616c652e0000000000000000000000604082015260600190565b8151151581526020808301511515908201526040918201519181019190915260600190565b60006101208b83526001600160a01b03808c166020850152808b166040850152508060608401526149058184018a61418f565b90508281036080840152614919818961413c565b90508660a08401528560c08401528460e084015282810361010084015261494081856141d5565b9c9b505050505050505050505050565b9889526001600160a01b0397881660208a01529590961660408801526060870193909352608086019190915260a085015260c084015260e083019190915215156101008201526101200190565b60ff91909116815260200190565b60405181810167ffffffffffffffff811182821017156149c757fe5b604052919050565b600067ffffffffffffffff8211156149e357fe5b5060209081020190565b60005b83811015614a085781810151838201526020016149f0565b83811115614a17576000848401525b50505050565b6001600160a01b038116811461282d57600080fd5b801515811461282d57600080fdfe63616c6c6572206d757374206265206f776e6572206f6620706f6f6c2063726561746f72456e756d657261626c655365743a20696e646578206f7574206f6620626f756e647345524332303a207472616e7366657220746f20746865207a65726f206164647265737345524332303a206275726e20616d6f756e7420657863656564732062616c616e636545524332303a20617070726f766520746f20746865207a65726f206164647265737375706772616465546f416e6443616c6c28627974657333322c62797465732c62797465732945524332303a207472616e7366657220616d6f756e7420657863656564732062616c616e6365416464726573733a20696e73756666696369656e742062616c616e636520666f722063616c6c496e697469616c697a61626c653a20636f6e747261637420697320616c726561647920696e697469616c697a6564536166654d6174683a206d756c7469706c69636174696f6e206f766572666c6f7745524332303a207472616e7366657220616d6f756e74206578636565647320616c6c6f77616e636545524332303a206275726e2066726f6d20746865207a65726f206164647265737345524332303a207472616e736665722066726f6d20746865207a65726f206164647265737345524332303a20617070726f76652066726f6d20746865207a65726f2061646472657373666f726365546f536574456d657267656e637953746174652875696e743235362c696e74323536295361666545524332303a204552433230206f7065726174696f6e20646964206e6f74207375636365656445524332303a2064656372656173656420616c6c6f77616e63652062656c6f77207a65726fa2646970667358221220b5ae1e197d653e5221357e91508f0ec99547013d78ea959a3b35b8876a3b841664736f6c63430007040033",
  "linkReferences": {},
  "deployedLinkReferences": {}
}