{
  "_format": "hh-sol-artifact-1",
  "contractName": "TestGovernor",
  "sourceName": "contracts/test/TestGovernor.sol",
  "abi": [
    {
      "stateMutability": "payable",
      "type": "fallback"
    },
    {
      "inputs": [
        {
          "internalType": "address",
          "name": "liquidityPool",
          "type": "address"
        },
        {
          "internalType": "bytes",
          "name": "data",
          "type": "bytes"
        },
        {
          "internalType": "uint256",
          "name": "value",
          "type": "uint256"
        }
      ],
      "name": "functionCall",
      "outputs": [
        {
          "internalType": "bytes",
          "name": "result",
          "type": "bytes"
        }
      ],
      "stateMutability": "payable",
      "type": "function"
    },
    {
      "inputs": [
        {
          "internalType": "address",
          "name": "liquidityPool",
          "type": "address"
        }
      ],
      "name": "getImplementation",
      "outputs": [
        {
          "internalType": "address",
          "name": "implementation",
          "type": "address"
        }
      ],
      "stateMutability": "view",
      "type": "function"
    },
    {
      "inputs": [
        {
          "internalType": "address",
          "name": "liquidityPool",
          "type": "address"
        },
        {
          "internalType": "address",
          "name": "newImplementation",
          "type": "address"
        }
      ],
      "name": "upgradeTo",
      "outputs": [],
      "stateMutability": "nonpayable",
      "type": "function"
    }
  ],
  "bytecode": "0x608060405234801561001057600080fd5b5061059e806100206000396000f3fe6080604052600436106100345760003560e01c8063132d807e1461003657806315ac72ca146100715780634a94d487146100c0575b005b34801561004257600080fd5b506100346004803603604081101561005957600080fd5b506001600160a01b03813581169160200135166101b5565b34801561007d57600080fd5b506100a46004803603602081101561009457600080fd5b50356001600160a01b0316610220565b604080516001600160a01b039092168252519081900360200190f35b610140600480360360608110156100d657600080fd5b6001600160a01b03823516919081019060408101602082013564010000000081111561010157600080fd5b82018360208201111561011357600080fd5b8035906020019184600183028401116401000000008311171561013557600080fd5b91935091503561028d565b6040805160208082528351818301528351919283929083019185019080838360005b8381101561017a578181015183820152602001610162565b50505050905090810190601f1680156101a75780820380516001836020036101000a031916815260200191505b509250505060405180910390f35b816001600160a01b0316633659cfe6826040518263ffffffff1660e01b815260040180826001600160a01b03168152602001915050600060405180830381600087803b15801561020457600080fd5b505af1158015610218573d6000803e3d6000fd5b505050505050565b6000816001600160a01b0316635c60da1b6040518163ffffffff1660e01b815260040160206040518083038186803b15801561025b57600080fd5b505afa15801561026f573d6000803e3d6000fd5b505050506040513d602081101561028557600080fd5b505192915050565b60606102da84848080601f01602080910402602001604051908101604052809392919081815260200183838082843760009201919091525050506001600160a01b038816919050846102e3565b95945050505050565b606061030984848460405180606001604052806029815260200161054060299139610313565b90505b9392505050565b6060824710156103545760405162461bcd60e51b815260040180806020018281038252602681526020018061051a6026913960400191505060405180910390fd5b61035d8561046f565b6103ae576040805162461bcd60e51b815260206004820152601d60248201527f416464726573733a2063616c6c20746f206e6f6e2d636f6e7472616374000000604482015290519081900360640190fd5b60006060866001600160a01b031685876040518082805190602001908083835b602083106103ed5780518252601f1990920191602091820191016103ce565b6001836020036101000a03801982511681845116808217855250505050505090500191505060006040518083038185875af1925050503d806000811461044f576040519150601f19603f3d011682016040523d82523d6000602084013e610454565b606091505b5091509150610464828286610475565b979650505050505050565b3b151590565b6060831561048457508161030c565b8251156104945782518084602001fd5b8160405162461bcd60e51b81526004018080602001828103825283818151815260200191508051906020019080838360005b838110156104de5781810151838201526020016104c6565b50505050905090810190601f16801561050b5780820380516001836020036101000a031916815260200191505b509250505060405180910390fdfe416464726573733a20696e73756666696369656e742062616c616e636520666f722063616c6c416464726573733a206c6f772d6c6576656c2063616c6c20776974682076616c7565206661696c6564a2646970667358221220d03366abb2f3a48c1490bb113f5de69286cbf407e89ce69f185b14245966e02064736f6c63430007040033",
  "linkReferences": {},
  "deployedLinkReferences": {}
}