{
  "_format": "hh-sol-artifact-1",
  "contractName": "MCDEXSingleOracle",
  "sourceName": "contracts/oracle/mcdex/MCDEXMultiOracle.sol",
  "abi": [
    {
      "inputs": [],
      "name": "collateral",
      "outputs": [
        {
          "internalType": "string",
          "name": "",
          "type": "string"
        }
      ],
      "stateMutability": "view",
      "type": "function"
    },
    {
      "inputs": [
        {
          "internalType": "contract MCDEXMultiOracle",
          "name": "multiOracle_",
          "type": "address"
        },
        {
          "internalType": "uint256",
          "name": "index_",
          "type": "uint256"
        }
      ],
      "name": "initialize",
      "outputs": [],
      "stateMutability": "nonpayable",
      "type": "function"
    },
    {
      "inputs": [],
      "name": "isMarketClosed",
      "outputs": [
        {
          "internalType": "bool",
          "name": "",
          "type": "bool"
        }
      ],
      "stateMutability": "view",
      "type": "function"
    },
    {
      "inputs": [],
      "name": "isTerminated",
      "outputs": [
        {
          "internalType": "bool",
          "name": "",
          "type": "bool"
        }
      ],
      "stateMutability": "view",
      "type": "function"
    },
    {
      "inputs": [],
      "name": "priceTWAPLong",
      "outputs": [
        {
          "internalType": "int256",
          "name": "newPrice",
          "type": "int256"
        },
        {
          "internalType": "uint256",
          "name": "newTimestamp",
          "type": "uint256"
        }
      ],
      "stateMutability": "view",
      "type": "function"
    },
    {
      "inputs": [],
      "name": "priceTWAPShort",
      "outputs": [
        {
          "internalType": "int256",
          "name": "newPrice",
          "type": "int256"
        },
        {
          "internalType": "uint256",
          "name": "newTimestamp",
          "type": "uint256"
        }
      ],
      "stateMutability": "view",
      "type": "function"
    },
    {
      "inputs": [],
      "name": "underlyingAsset",
      "outputs": [
        {
          "internalType": "string",
          "name": "",
          "type": "string"
        }
      ],
      "stateMutability": "view",
      "type": "function"
    }
  ],
  "bytecode": "0x608060405234801561001057600080fd5b506106f2806100206000396000f3fe608060405234801561001057600080fd5b506004361061007d5760003560e01c8063ccbdbee21161005b578063ccbdbee2146100cb578063cd6dc687146100d3578063d1cc9976146100e8578063d8dfeb45146100f05761007d565b80630e222f9b146100825780637158da7c146100a1578063b7e86c1f146100b6575b600080fd5b61008a6100f8565b604051610098929190610614565b60405180910390f35b6100a96101a1565b6040516100989190610622565b6100be61024c565b6040516100989190610609565b61008a6102ec565b6100e66100e1366004610519565b61033e565b005b6100be610439565b6100a9610489565b600080546001546040517f1f40a96b00000000000000000000000000000000000000000000000000000000815283926201000090046001600160a01b031691631f40a96b9161014a9190600401610655565b604080518083038186803b15801561016157600080fd5b505afa158015610175573d6000803e3d6000fd5b505050506040513d601f19601f82011682018060405250810190610199919061054f565b915091509091565b6000546001546040517fcaf901c10000000000000000000000000000000000000000000000000000000081526060926201000090046001600160a01b03169163caf901c1916101f39190600401610655565b60006040518083038186803b15801561020b57600080fd5b505afa15801561021f573d6000803e3d6000fd5b505050506040513d6000823e601f3d908101601f191682016040526102479190810190610572565b905090565b600080546001546040517f1cc672df000000000000000000000000000000000000000000000000000000008152620100009092046001600160a01b031691631cc672df9161029c91600401610655565b60206040518083038186803b1580156102b457600080fd5b505afa1580156102c8573d6000803e3d6000fd5b505050506040513d601f19601f8201168201806040525081019061024791906104f2565b600080546001546040517fe8f5882200000000000000000000000000000000000000000000000000000000815283926201000090046001600160a01b03169163e8f588229161014a9190600401610655565b600054610100900460ff168061035757506103576104db565b80610365575060005460ff16155b6103ba576040517f08c379a000000000000000000000000000000000000000000000000000000000815260040180806020018281038252602e81526020018061068f602e913960400191505060405180910390fd5b600054610100900460ff161580156103e5576000805460ff1961ff0019909116610100171660011790555b600080547fffffffffffffffffffff0000000000000000000000000000000000000000ffff16620100006001600160a01b0386160217905560018290558015610434576000805461ff00191690555b505050565b600080546001546040517fad36d6cc000000000000000000000000000000000000000000000000000000008152620100009092046001600160a01b03169163ad36d6cc9161029c91600401610655565b6000546001546040517f3b1f18dd0000000000000000000000000000000000000000000000000000000081526060926201000090046001600160a01b031691633b1f18dd916101f39190600401610655565b60006104e6306104ec565b15905090565b3b151590565b600060208284031215610503578081fd5b81518015158114610512578182fd5b9392505050565b6000806040838503121561052b578081fd5b82356001600160a01b0381168114610541578182fd5b946020939093013593505050565b60008060408385031215610561578182fd5b505080516020909101519092909150565b600060208284031215610583578081fd5b815167ffffffffffffffff8082111561059a578283fd5b818401915084601f8301126105ad578283fd5b8151818111156105b957fe5b604051601f8201601f1916810160200183811182821017156105d757fe5b6040528181528382016020018710156105ee578485fd5b6105ff82602083016020870161065e565b9695505050505050565b901515815260200190565b918252602082015260400190565b600060208252825180602084015261064181604085016020870161065e565b601f01601f19169190910160400192915050565b90815260200190565b60005b83811015610679578181015183820152602001610661565b83811115610688576000848401525b5050505056fe496e697469616c697a61626c653a20636f6e747261637420697320616c726561647920696e697469616c697a6564a26469706673582212203a86fa14d5af757af005fd49e95094929a737e4fa1ef07953f5a257721f6f8cf64736f6c63430007040033",
  "linkReferences": {},
  "deployedLinkReferences": {}
}