{
  "_format": "hh-sol-artifact-1",
  "contractName": "MCDEXMultiOracle",
  "sourceName": "contracts/oracle/mcdex/MCDEXMultiOracle.sol",
  "abi": [
    {
      "anonymous": false,
      "inputs": [
        {
          "indexed": true,
          "internalType": "bytes32",
          "name": "role",
          "type": "bytes32"
        },
        {
          "indexed": true,
          "internalType": "bytes32",
          "name": "previousAdminRole",
          "type": "bytes32"
        },
        {
          "indexed": true,
          "internalType": "bytes32",
          "name": "newAdminRole",
          "type": "bytes32"
        }
      ],
      "name": "RoleAdminChanged",
      "type": "event"
    },
    {
      "anonymous": false,
      "inputs": [
        {
          "indexed": true,
          "internalType": "bytes32",
          "name": "role",
          "type": "bytes32"
        },
        {
          "indexed": true,
          "internalType": "address",
          "name": "account",
          "type": "address"
        },
        {
          "indexed": true,
          "internalType": "address",
          "name": "sender",
          "type": "address"
        }
      ],
      "name": "RoleGranted",
      "type": "event"
    },
    {
      "anonymous": false,
      "inputs": [
        {
          "indexed": true,
          "internalType": "bytes32",
          "name": "role",
          "type": "bytes32"
        },
        {
          "indexed": true,
          "internalType": "address",
          "name": "account",
          "type": "address"
        },
        {
          "indexed": true,
          "internalType": "address",
          "name": "sender",
          "type": "address"
        }
      ],
      "name": "RoleRevoked",
      "type": "event"
    },
    {
      "anonymous": false,
      "inputs": [],
      "name": "SetAllTerminated",
      "type": "event"
    },
    {
      "anonymous": false,
      "inputs": [
        {
          "indexed": true,
          "internalType": "uint256",
          "name": "index",
          "type": "uint256"
        },
        {
          "indexed": false,
          "internalType": "string",
          "name": "collateral",
          "type": "string"
        },
        {
          "indexed": false,
          "internalType": "string",
          "name": "underlyingAsset",
          "type": "string"
        }
      ],
      "name": "SetMarket",
      "type": "event"
    },
    {
      "anonymous": false,
      "inputs": [
        {
          "indexed": true,
          "internalType": "uint256",
          "name": "index",
          "type": "uint256"
        },
        {
          "indexed": false,
          "internalType": "bool",
          "name": "isMarketClosed",
          "type": "bool"
        }
      ],
      "name": "SetMarketClosed",
      "type": "event"
    },
    {
      "anonymous": false,
      "inputs": [
        {
          "indexed": true,
          "internalType": "uint256",
          "name": "index",
          "type": "uint256"
        },
        {
          "indexed": false,
          "internalType": "int256",
          "name": "price",
          "type": "int256"
        },
        {
          "indexed": false,
          "internalType": "uint256",
          "name": "timestamp",
          "type": "uint256"
        }
      ],
      "name": "SetPrice",
      "type": "event"
    },
    {
      "anonymous": false,
      "inputs": [
        {
          "indexed": true,
          "internalType": "uint256",
          "name": "index",
          "type": "uint256"
        }
      ],
      "name": "SetTerminated",
      "type": "event"
    },
    {
      "inputs": [],
      "name": "DEFAULT_ADMIN_ROLE",
      "outputs": [
        {
          "internalType": "bytes32",
          "name": "",
          "type": "bytes32"
        }
      ],
      "stateMutability": "view",
      "type": "function"
    },
    {
      "inputs": [],
      "name": "MARKET_CLOSER_ROLE",
      "outputs": [
        {
          "internalType": "bytes32",
          "name": "",
          "type": "bytes32"
        }
      ],
      "stateMutability": "view",
      "type": "function"
    },
    {
      "inputs": [],
      "name": "PRICE_SETTER_ROLE",
      "outputs": [
        {
          "internalType": "bytes32",
          "name": "",
          "type": "bytes32"
        }
      ],
      "stateMutability": "view",
      "type": "function"
    },
    {
      "inputs": [],
      "name": "TERMINATER_ROLE",
      "outputs": [
        {
          "internalType": "bytes32",
          "name": "",
          "type": "bytes32"
        }
      ],
      "stateMutability": "view",
      "type": "function"
    },
    {
      "inputs": [
        {
          "internalType": "uint256",
          "name": "index",
          "type": "uint256"
        }
      ],
      "name": "collateral",
      "outputs": [
        {
          "internalType": "string",
          "name": "",
          "type": "string"
        }
      ],
      "stateMutability": "view",
      "type": "function"
    },
    {
      "inputs": [
        {
          "internalType": "bytes32",
          "name": "role",
          "type": "bytes32"
        }
      ],
      "name": "getRoleAdmin",
      "outputs": [
        {
          "internalType": "bytes32",
          "name": "",
          "type": "bytes32"
        }
      ],
      "stateMutability": "view",
      "type": "function"
    },
    {
      "inputs": [
        {
          "internalType": "bytes32",
          "name": "role",
          "type": "bytes32"
        },
        {
          "internalType": "uint256",
          "name": "index",
          "type": "uint256"
        }
      ],
      "name": "getRoleMember",
      "outputs": [
        {
          "internalType": "address",
          "name": "",
          "type": "address"
        }
      ],
      "stateMutability": "view",
      "type": "function"
    },
    {
      "inputs": [
        {
          "internalType": "bytes32",
          "name": "role",
          "type": "bytes32"
        }
      ],
      "name": "getRoleMemberCount",
      "outputs": [
        {
          "internalType": "uint256",
          "name": "",
          "type": "uint256"
        }
      ],
      "stateMutability": "view",
      "type": "function"
    },
    {
      "inputs": [
        {
          "internalType": "bytes32",
          "name": "role",
          "type": "bytes32"
        },
        {
          "internalType": "address",
          "name": "account",
          "type": "address"
        }
      ],
      "name": "grantRole",
      "outputs": [],
      "stateMutability": "nonpayable",
      "type": "function"
    },
    {
      "inputs": [
        {
          "internalType": "bytes32",
          "name": "role",
          "type": "bytes32"
        },
        {
          "internalType": "address",
          "name": "account",
          "type": "address"
        }
      ],
      "name": "hasRole",
      "outputs": [
        {
          "internalType": "bool",
          "name": "",
          "type": "bool"
        }
      ],
      "stateMutability": "view",
      "type": "function"
    },
    {
      "inputs": [],
      "name": "initialize",
      "outputs": [],
      "stateMutability": "nonpayable",
      "type": "function"
    },
    {
      "inputs": [
        {
          "internalType": "uint256",
          "name": "index",
          "type": "uint256"
        }
      ],
      "name": "isMarketClosed",
      "outputs": [
        {
          "internalType": "bool",
          "name": "",
          "type": "bool"
        }
      ],
      "stateMutability": "view",
      "type": "function"
    },
    {
      "inputs": [
        {
          "internalType": "uint256",
          "name": "index",
          "type": "uint256"
        }
      ],
      "name": "isTerminated",
      "outputs": [
        {
          "internalType": "bool",
          "name": "",
          "type": "bool"
        }
      ],
      "stateMutability": "view",
      "type": "function"
    },
    {
      "inputs": [
        {
          "internalType": "uint256",
          "name": "index",
          "type": "uint256"
        }
      ],
      "name": "priceTWAPLong",
      "outputs": [
        {
          "internalType": "int256",
          "name": "newPrice",
          "type": "int256"
        },
        {
          "internalType": "uint256",
          "name": "newTimestamp",
          "type": "uint256"
        }
      ],
      "stateMutability": "view",
      "type": "function"
    },
    {
      "inputs": [
        {
          "internalType": "uint256",
          "name": "index",
          "type": "uint256"
        }
      ],
      "name": "priceTWAPShort",
      "outputs": [
        {
          "internalType": "int256",
          "name": "newPrice",
          "type": "int256"
        },
        {
          "internalType": "uint256",
          "name": "newTimestamp",
          "type": "uint256"
        }
      ],
      "stateMutability": "view",
      "type": "function"
    },
    {
      "inputs": [
        {
          "internalType": "bytes32",
          "name": "role",
          "type": "bytes32"
        },
        {
          "internalType": "address",
          "name": "account",
          "type": "address"
        }
      ],
      "name": "renounceRole",
      "outputs": [],
      "stateMutability": "nonpayable",
      "type": "function"
    },
    {
      "inputs": [
        {
          "internalType": "bytes32",
          "name": "role",
          "type": "bytes32"
        },
        {
          "internalType": "address",
          "name": "account",
          "type": "address"
        }
      ],
      "name": "revokeRole",
      "outputs": [],
      "stateMutability": "nonpayable",
      "type": "function"
    },
    {
      "inputs": [],
      "name": "setAllTerminated",
      "outputs": [],
      "stateMutability": "nonpayable",
      "type": "function"
    },
    {
      "inputs": [
        {
          "internalType": "uint256",
          "name": "index",
          "type": "uint256"
        },
        {
          "internalType": "string",
          "name": "collateral_",
          "type": "string"
        },
        {
          "internalType": "string",
          "name": "underlyingAsset_",
          "type": "string"
        }
      ],
      "name": "setMarket",
      "outputs": [],
      "stateMutability": "nonpayable",
      "type": "function"
    },
    {
      "inputs": [
        {
          "internalType": "uint256",
          "name": "index",
          "type": "uint256"
        },
        {
          "internalType": "bool",
          "name": "isMarketClosed_",
          "type": "bool"
        }
      ],
      "name": "setMarketClosed",
      "outputs": [],
      "stateMutability": "nonpayable",
      "type": "function"
    },
    {
      "inputs": [
        {
          "internalType": "uint256",
          "name": "index",
          "type": "uint256"
        },
        {
          "internalType": "int256",
          "name": "price",
          "type": "int256"
        },
        {
          "internalType": "uint256",
          "name": "timestamp",
          "type": "uint256"
        }
      ],
      "name": "setPrice",
      "outputs": [],
      "stateMutability": "nonpayable",
      "type": "function"
    },
    {
      "inputs": [
        {
          "components": [
            {
              "internalType": "uint256",
              "name": "index",
              "type": "uint256"
            },
            {
              "internalType": "int256",
              "name": "price",
              "type": "int256"
            }
          ],
          "internalType": "struct MCDEXMultiOracle.Prices[]",
          "name": "prices",
          "type": "tuple[]"
        },
        {
          "internalType": "uint256",
          "name": "timestamp",
          "type": "uint256"
        }
      ],
      "name": "setPrices",
      "outputs": [],
      "stateMutability": "nonpayable",
      "type": "function"
    },
    {
      "inputs": [
        {
          "internalType": "uint256",
          "name": "index",
          "type": "uint256"
        }
      ],
      "name": "setTerminated",
      "outputs": [],
      "stateMutability": "nonpayable",
      "type": "function"
    },
    {
      "inputs": [
        {
          "internalType": "uint256",
          "name": "index",
          "type": "uint256"
        }
      ],
      "name": "underlyingAsset",
      "outputs": [
        {
          "internalType": "string",
          "name": "",
          "type": "string"
        }
      ],
      "stateMutability": "view",
      "type": "function"
    }
  ],
  "bytecode": "0x608060405234801561001057600080fd5b50611758806100206000396000f3fe608060405234801561001057600080fd5b50600436106101985760003560e01c8063a217fddf116100e3578063cddc1e411161008c578063eb057c2311610066578063eb057c231461033a578063ecaa0c371461034d578063f00acbaa1461035557610198565b8063cddc1e4114610314578063d547741f14610327578063e8f58822146101db57610198565b8063c412f034116100bd578063c412f034146102db578063ca15c873146102ee578063caf901c11461030157610198565b8063a217fddf146102b8578063ad36d6cc146102c0578063c0ef593a146102d357610198565b80633b1f18dd116101455780639010d07c1161011f5780639010d07c1461027257806391c88c4c1461029257806391d14854146102a557610198565b80633b1f18dd14610237578063589ae880146102575780638129fc1c1461026a57610198565b8063248a9ca311610176578063248a9ca3146101fc5780632f2ff15d1461020f57806336568abe1461022457610198565b80630d015fff1461019d5780631cc672df146101bb5780631f40a96b146101db575b600080fd5b6101a561035d565b6040516101b29190611523565b60405180910390f35b6101ce6101c9366004611389565b610381565b6040516101b29190611518565b6101ee6101e9366004611389565b61039c565b6040516101b292919061152c565b6101a561020a366004611389565b6103b9565b61022261021d3660046113a1565b6103ce565b005b6102226102323660046113a1565b610435565b61024a610245366004611389565b610496565b6040516101b2919061153a565b6102226102653660046113fc565b61053c565b61022261060e565b6102856102803660046113db565b6106b8565b6040516101b29190611504565b6102226102a03660046112d8565b6106d9565b6101ce6102b33660046113a1565b610796565b6101a56107ae565b6101ce6102ce366004611389565b6107b3565b6102226107e7565b6102226102e9366004611424565b61088a565b6101a56102fc366004611389565b610900565b61024a61030f366004611389565b610917565b61022261032236600461144f565b610989565b6102226103353660046113a1565b610a4f565b610222610348366004611389565b610aa8565b6101a5610b8b565b6101a5610baf565b7f4a0dd322941a79e91b8bc2de0d3eb943ea81e07d00f71bb32ad8b6fc1b60386681565b60008181526065602052604090206004015460ff165b919050565b600090815260656020526040902060028101546003909101549091565b60009081526033602052604090206002015490565b6000828152603360205260409020600201546103ec906102b3610bd3565b6104275760405162461bcd60e51b815260040180806020018281038252602f815260200180611667602f913960400191505060405180910390fd5b6104318282610bd7565b5050565b61043d610bd3565b6001600160a01b0316816001600160a01b03161461048c5760405162461bcd60e51b815260040180806020018281038252602f8152602001806116f4602f913960400191505060405180910390fd5b6104318282610c40565b60008181526065602090815260409182902080548351601f60026000196101006001861615020190931692909204918201849004840281018401909452808452606093919283919083018282801561052f5780601f106105045761010080835404028352916020019161052f565b820191906000526020600020905b81548152906001019060200180831161051257829003601f168201915b5050505050915050919050565b60665460ff16156105685760405162461bcd60e51b815260040161055f906115e9565b60405180910390fd5b6105947f48827bf5d6d4a243dff5caebc7b67eea1f63dd723e58e3ccfc2ca04dfbae35c36102b3610bd3565b6105b05760405162461bcd60e51b815260040161055f9061157b565b6000828152606560205260409081902060048101805460ff1916841515179055905183907fa4795ef6b8d32733b46e9f063ce3e3bb7eb219c7a1be12a714e6278b4179bb9b90610601908590611518565b60405180910390a2505050565b600054610100900460ff16806106275750610627610ca9565b80610635575060005460ff16155b6106705760405162461bcd60e51b815260040180806020018281038252602e8152602001806116c6602e913960400191505060405180910390fd5b600054610100900460ff1615801561069b576000805460ff1961ff0019909116610100171660011790555b6106a3610cba565b80156106b5576000805461ff00191690555b50565b60008281526033602052604081206106d09083610d5f565b90505b92915050565b60665460ff16156106fc5760405162461bcd60e51b815260040161055f906115e9565b6107287f04824fcb60e7cc526d70b264caa65b62ed44d9c8e5d230e8ff6b0c7373843b8a6102b3610bd3565b6107445760405162461bcd60e51b815260040161055f9061157b565b60005b82518110156107915761078983828151811061075f57fe5b60200260200101516000015184838151811061077757fe5b60200260200101516020015184610d6b565b600101610747565b505050565b60008281526033602052604081206106d09083610de5565b600081565b60665460009060ff16156107c957506001610397565b50600090815260656020526040902060040154610100900460ff1690565b60665460ff161561080a5760405162461bcd60e51b815260040161055f906115e9565b6108367f4a0dd322941a79e91b8bc2de0d3eb943ea81e07d00f71bb32ad8b6fc1b6038666102b3610bd3565b6108525760405162461bcd60e51b815260040161055f9061157b565b6066805460ff191660011790556040517f74bffcb9840235a8941e1c32232b6bec54efbe2e200a57c75340589a1db8dcd790600090a1565b60665460ff16156108ad5760405162461bcd60e51b815260040161055f906115e9565b6108d97f04824fcb60e7cc526d70b264caa65b62ed44d9c8e5d230e8ff6b0c7373843b8a6102b3610bd3565b6108f55760405162461bcd60e51b815260040161055f9061157b565b610791838383610d6b565b60008181526033602052604081206106d390610dfa565b600081815260656020908152604091829020600180820180548551600293821615610100026000190190911692909204601f810185900485028301850190955284825260609492939192909183018282801561052f5780601f106105045761010080835404028352916020019161052f565b60665460ff16156109ac5760405162461bcd60e51b815260040161055f906115e9565b6109b960006102b3610bd3565b6109d55760405162461bcd60e51b815260040161055f9061157b565b6000838152606560209081526040909120835190916109f8918391860190611188565b508151610a0e9060018301906020850190611188565b50837f1c9d59866c23b610d4368d5dd26735444e5464d18fe326d73f93a5d9f7d4e5ee8484604051610a4192919061154d565b60405180910390a250505050565b600082815260336020526040902060020154610a6d906102b3610bd3565b61048c5760405162461bcd60e51b81526004018080602001828103825260308152602001806116966030913960400191505060405180910390fd5b60665460ff1615610acb5760405162461bcd60e51b815260040161055f906115e9565b610af77f4a0dd322941a79e91b8bc2de0d3eb943ea81e07d00f71bb32ad8b6fc1b6038666102b3610bd3565b610b135760405162461bcd60e51b815260040161055f9061157b565b60008181526065602052604090206004810154610100900460ff1615610b4b5760405162461bcd60e51b815260040161055f906115b2565b60048101805461ff00191661010017905560405182907fe80365792be760c98561939d0f58f0a47ee402f1de90c39a6d9ab8bdd5a61a5590600090a25050565b7f48827bf5d6d4a243dff5caebc7b67eea1f63dd723e58e3ccfc2ca04dfbae35c381565b7f04824fcb60e7cc526d70b264caa65b62ed44d9c8e5d230e8ff6b0c7373843b8a81565b3390565b6000828152603360205260409020610bef9082610e05565b1561043157610bfc610bd3565b6001600160a01b0316816001600160a01b0316837f2f8788117e7eff1d82e926ec794901d17c78024a50270940304540a733656f0d60405160405180910390a45050565b6000828152603360205260409020610c589082610e1a565b1561043157610c65610bd3565b6001600160a01b0316816001600160a01b0316837ff6391f5c32d9c69d2a47ea670b442974b53935d1edc7fd64eb21e047a839171b60405160405180910390a45050565b6000610cb430610e2f565b15905090565b600054610100900460ff1680610cd35750610cd3610ca9565b80610ce1575060005460ff16155b610d1c5760405162461bcd60e51b815260040180806020018281038252602e8152602001806116c6602e913960400191505060405180910390fd5b600054610100900460ff16158015610d47576000805460ff1961ff0019909116610100171660011790555b610d4f610e35565b610d57610e35565b6106a3610ed5565b60006106d08383610ff8565b60008381526065602052604090206004810154610100900460ff1615610da35760405162461bcd60e51b815260040161055f906115b2565b600281018390556003810182905560405184907f3e9dba195e9e381599805020432bfa50c099e49dbcae3e8b547a0de435e7a38490610a41908690869061152c565b60006106d0836001600160a01b03841661105c565b60006106d382611074565b60006106d0836001600160a01b038416611078565b60006106d0836001600160a01b0384166110c2565b3b151590565b600054610100900460ff1680610e4e5750610e4e610ca9565b80610e5c575060005460ff16155b610e975760405162461bcd60e51b815260040180806020018281038252602e8152602001806116c6602e913960400191505060405180910390fd5b600054610100900460ff161580156106a3576000805460ff1961ff00199091166101001716600117905580156106b5576000805461ff001916905550565b600054610100900460ff1680610eee5750610eee610ca9565b80610efc575060005460ff16155b610f375760405162461bcd60e51b815260040180806020018281038252602e8152602001806116c6602e913960400191505060405180910390fd5b600054610100900460ff16158015610f62576000805460ff1961ff0019909116610100171660011790555b610f746000610f6f610bd3565b610427565b610fa07f04824fcb60e7cc526d70b264caa65b62ed44d9c8e5d230e8ff6b0c7373843b8a610f6f610bd3565b610fcc7f48827bf5d6d4a243dff5caebc7b67eea1f63dd723e58e3ccfc2ca04dfbae35c3610f6f610bd3565b6106a37f4a0dd322941a79e91b8bc2de0d3eb943ea81e07d00f71bb32ad8b6fc1b603866610f6f610bd3565b8154600090821061103a5760405162461bcd60e51b81526004018080602001828103825260228152602001806116456022913960400191505060405180910390fd5b82600001828154811061104957fe5b9060005260206000200154905092915050565b60009081526001919091016020526040902054151590565b5490565b6000611084838361105c565b6110ba575081546001818101845560008481526020808220909301849055845484825282860190935260409020919091556106d3565b5060006106d3565b6000818152600183016020526040812054801561117e57835460001980830191908101906000908790839081106110f557fe5b906000526020600020015490508087600001848154811061111257fe5b60009182526020808320909101929092558281526001898101909252604090209084019055865487908061114257fe5b600190038181906000526020600020016000905590558660010160008781526020019081526020016000206000905560019450505050506106d3565b60009150506106d3565b828054600181600116156101000203166002900490600052602060002090601f0160209004810192826111be5760008555611204565b82601f106111d757805160ff1916838001178555611204565b82800160010185558215611204579182015b828111156112045782518255916020019190600101906111e9565b50611210929150611214565b5090565b5b808211156112105760008155600101611215565b600082601f830112611239578081fd5b813567ffffffffffffffff81111561124d57fe5b611260601f8201601f1916602001611620565b915080825283602082850101111561127757600080fd5b8060208401602084013760009082016020015292915050565b6000604082840312156112a1578081fd5b6040516040810181811067ffffffffffffffff821117156112be57fe5b604052823581526020928301359281019290925250919050565b60008060408084860312156112eb578283fd5b833567ffffffffffffffff80821115611302578485fd5b818601915086601f830112611315578485fd5b81358181111561132157fe5b602091506113328283830201611620565b81815282810190848401868402860185018b101561134e578889fd5b8895505b83861015611378576113648b82611290565b835260019590950194918401918601611352565b509997909201359750505050505050565b60006020828403121561139a578081fd5b5035919050565b600080604083850312156113b3578182fd5b8235915060208301356001600160a01b03811681146113d0578182fd5b809150509250929050565b600080604083850312156113ed578182fd5b50508035926020909101359150565b6000806040838503121561140e578182fd5b82359150602083013580151581146113d0578182fd5b600080600060608486031215611438578081fd5b505081359360208301359350604090920135919050565b600080600060608486031215611463578283fd5b83359250602084013567ffffffffffffffff80821115611481578384fd5b61148d87838801611229565b935060408601359150808211156114a2578283fd5b506114af86828701611229565b9150509250925092565b60008151808452815b818110156114de576020818501810151868301820152016114c2565b818111156114ef5782602083870101525b50601f01601f19169290920160200192915050565b6001600160a01b0391909116815260200190565b901515815260200190565b90815260200190565b918252602082015260400190565b6000602082526106d060208301846114b9565b60006040825261156060408301856114b9565b828103602084015261157281856114b9565b95945050505050565b60208082526004908201527f726f6c6500000000000000000000000000000000000000000000000000000000604082015260600190565b6020808252600a908201527f7465726d696e6174656400000000000000000000000000000000000000000000604082015260600190565b6020808252600e908201527f616c6c207465726d696e61746564000000000000000000000000000000000000604082015260600190565b60405181810167ffffffffffffffff8111828210171561163c57fe5b60405291905056fe456e756d657261626c655365743a20696e646578206f7574206f6620626f756e6473416363657373436f6e74726f6c3a2073656e646572206d75737420626520616e2061646d696e20746f206772616e74416363657373436f6e74726f6c3a2073656e646572206d75737420626520616e2061646d696e20746f207265766f6b65496e697469616c697a61626c653a20636f6e747261637420697320616c726561647920696e697469616c697a6564416363657373436f6e74726f6c3a2063616e206f6e6c792072656e6f756e636520726f6c657320666f722073656c66a2646970667358221220c3f115d9eda175d84f7e3907d119705fe1c9293411b873d920c2722c32b40b1364736f6c63430007040033",
  "linkReferences": {},
  "deployedLinkReferences": {}
}