{
  "_format": "hh-sol-artifact-1",
  "contractName": "Variables",
  "sourceName": "contracts/factory/Variables.sol",
  "abi": [
    {
      "anonymous": false,
      "inputs": [
        {
          "indexed": true,
          "internalType": "address",
          "name": "previousOwner",
          "type": "address"
        },
        {
          "indexed": true,
          "internalType": "address",
          "name": "newOwner",
          "type": "address"
        }
      ],
      "name": "OwnershipTransferred",
      "type": "event"
    },
    {
      "anonymous": false,
      "inputs": [
        {
          "indexed": false,
          "internalType": "address",
          "name": "previousKeeper",
          "type": "address"
        },
        {
          "indexed": false,
          "internalType": "address",
          "name": "newKeeper",
          "type": "address"
        }
      ],
      "name": "SetKeeper",
      "type": "event"
    },
    {
      "anonymous": false,
      "inputs": [
        {
          "indexed": false,
          "internalType": "address",
          "name": "previousRewardDistributor",
          "type": "address"
        },
        {
          "indexed": false,
          "internalType": "address",
          "name": "newRewardDistributor",
          "type": "address"
        }
      ],
      "name": "SetRewardDistributor",
      "type": "event"
    },
    {
      "anonymous": false,
      "inputs": [
        {
          "indexed": false,
          "internalType": "address",
          "name": "previousVault",
          "type": "address"
        },
        {
          "indexed": false,
          "internalType": "address",
          "name": "newVault",
          "type": "address"
        }
      ],
      "name": "SetVault",
      "type": "event"
    },
    {
      "anonymous": false,
      "inputs": [
        {
          "indexed": false,
          "internalType": "int256",
          "name": "prevFeeRate",
          "type": "int256"
        },
        {
          "indexed": false,
          "internalType": "int256",
          "name": "newFeeRate",
          "type": "int256"
        }
      ],
      "name": "SetVaultFeeRate",
      "type": "event"
    },
    {
      "inputs": [],
      "name": "getAccessController",
      "outputs": [
        {
          "internalType": "address",
          "name": "",
          "type": "address"
        }
      ],
      "stateMutability": "view",
      "type": "function"
    },
    {
      "inputs": [],
      "name": "getMCBToken",
      "outputs": [
        {
          "internalType": "address",
          "name": "",
          "type": "address"
        }
      ],
      "stateMutability": "pure",
      "type": "function"
    },
    {
      "inputs": [],
      "name": "getSymbolService",
      "outputs": [
        {
          "internalType": "address",
          "name": "",
          "type": "address"
        }
      ],
      "stateMutability": "view",
      "type": "function"
    },
    {
      "inputs": [],
      "name": "getVault",
      "outputs": [
        {
          "internalType": "address",
          "name": "",
          "type": "address"
        }
      ],
      "stateMutability": "view",
      "type": "function"
    },
    {
      "inputs": [],
      "name": "getVaultFeeRate",
      "outputs": [
        {
          "internalType": "int256",
          "name": "",
          "type": "int256"
        }
      ],
      "stateMutability": "view",
      "type": "function"
    },
    {
      "inputs": [],
      "name": "owner",
      "outputs": [
        {
          "internalType": "address",
          "name": "",
          "type": "address"
        }
      ],
      "stateMutability": "view",
      "type": "function"
    },
    {
      "inputs": [],
      "name": "renounceOwnership",
      "outputs": [],
      "stateMutability": "nonpayable",
      "type": "function"
    },
    {
      "inputs": [
        {
          "internalType": "address",
          "name": "newVault",
          "type": "address"
        }
      ],
      "name": "setVault",
      "outputs": [],
      "stateMutability": "nonpayable",
      "type": "function"
    },
    {
      "inputs": [
        {
          "internalType": "int256",
          "name": "newVaultFeeRate",
          "type": "int256"
        }
      ],
      "name": "setVaultFeeRate",
      "outputs": [],
      "stateMutability": "nonpayable",
      "type": "function"
    },
    {
      "inputs": [
        {
          "internalType": "address",
          "name": "newOwner",
          "type": "address"
        }
      ],
      "name": "transferOwnership",
      "outputs": [],
      "stateMutability": "nonpayable",
      "type": "function"
    }
  ],
  "bytecode": "0x608060405234801561001057600080fd5b50610757806100206000396000f3fe608060405234801561001057600080fd5b50600436106100be5760003560e01c8063715018a6116100765780638da5cb5b1161005b5780638da5cb5b1461015e578063b49f32e714610166578063f2fde38b1461016e576100be565b8063715018a61461014e5780638d928af814610156576100be565b806333c0b0fc116100a757806333c0b0fc146100ef578063492c26b61461010e5780636817031b14610128576100be565b806307c4d486146100c357806316d6b5f6146100e7575b600080fd5b6100cb610194565b604080516001600160a01b039092168252519081900360200190f35b6100cb6101a3565b61010c6004803603602081101561010557600080fd5b50356101a7565b005b61011661030a565b60408051918252519081900360200190f35b61010c6004803603602081101561013e57600080fd5b50356001600160a01b0316610310565b61010c6104a3565b6100cb61056e565b6100cb61057d565b6100cb61058c565b61010c6004803603602081101561018457600080fd5b50356001600160a01b03166105a4565b6066546001600160a01b031690565b3090565b6101af6106c6565b6001600160a01b03166101c061057d565b6001600160a01b03161461021b576040805162461bcd60e51b815260206004820181905260248201527f4f776e61626c653a2063616c6c6572206973206e6f7420746865206f776e6572604482015290519081900360640190fd5b6000811215610271576040805162461bcd60e51b815260206004820152601760248201527f6e65676174697665207661756c74206665652072617465000000000000000000604482015290519081900360640190fd5b6068548114156102c8576040805162461bcd60e51b815260206004820152601860248201527f756e6368616e676564207661756c742066656520726174650000000000000000604482015290519081900360640190fd5b606854604080519182526020820183905280517f720bdddca2e8c70d6ac27a51abd2eb4fbaca31653c8a9990eb307838fc5162919281900390910190a1606855565b60685490565b6103186106c6565b6001600160a01b031661032961057d565b6001600160a01b031614610384576040805162461bcd60e51b815260206004820181905260248201527f4f776e61626c653a2063616c6c6572206973206e6f7420746865206f776e6572604482015290519081900360640190fd5b6001600160a01b0381166103df576040805162461bcd60e51b815260206004820152601960248201527f6e6577207661756c74206973207a65726f2d6164647265737300000000000000604482015290519081900360640190fd5b6067546001600160a01b038281169116141561042c5760405162461bcd60e51b81526004018080602001828103825260228152602001806106da6022913960400191505060405180910390fd5b606754604080516001600160a01b039283168152918316602083015280517f22a9f7c8a21e91a43518238948d4ed67511ad8492ca0e13fdbc93c134701a72a9281900390910190a16067805473ffffffffffffffffffffffffffffffffffffffff19166001600160a01b0392909216919091179055565b6104ab6106c6565b6001600160a01b03166104bc61057d565b6001600160a01b031614610517576040805162461bcd60e51b815260206004820181905260248201527f4f776e61626c653a2063616c6c6572206973206e6f7420746865206f776e6572604482015290519081900360640190fd5b6033546040516000916001600160a01b0316907f8be0079c531659141344cd1fd0a4f28419497f9722a3daafe3b4186f6b6457e0908390a36033805473ffffffffffffffffffffffffffffffffffffffff19169055565b6067546001600160a01b031690565b60006105876106ca565b905090565b734e352cf164e64adcbad318c3a1e222e9eba4ce4290565b6105ac6106c6565b6001600160a01b03166105bd61057d565b6001600160a01b031614610618576040805162461bcd60e51b815260206004820181905260248201527f4f776e61626c653a2063616c6c6572206973206e6f7420746865206f776e6572604482015290519081900360640190fd5b6001600160a01b03811661065d5760405162461bcd60e51b81526004018080602001828103825260268152602001806106fc6026913960400191505060405180910390fd5b6033546040516001600160a01b038084169216907f8be0079c531659141344cd1fd0a4f28419497f9722a3daafe3b4186f6b6457e090600090a36033805473ffffffffffffffffffffffffffffffffffffffff19166001600160a01b0392909216919091179055565b3390565b6033546001600160a01b03169056fe6e6577207661756c7420697320616c72656164792063757272656e74207661756c744f776e61626c653a206e6577206f776e657220697320746865207a65726f2061646472657373a26469706673582212200abbb3bffae0588b09d8396edd02823dbf55892a352b4483e06c93d0d88c760d64736f6c63430007040033",
  "linkReferences": {},
  "deployedLinkReferences": {}
}