{
  "_format": "hh-sol-artifact-1",
  "contractName": "Perpetual",
  "sourceName": "contracts/Perpetual.sol",
  "abi": [
    {
      "inputs": [
        {
          "internalType": "bytes",
          "name": "orderData",
          "type": "bytes"
        },
        {
          "internalType": "int256",
          "name": "amount",
          "type": "int256"
        }
      ],
      "name": "brokerTrade",
      "outputs": [
        {
          "internalType": "int256",
          "name": "tradeAmount",
          "type": "int256"
        }
      ],
      "stateMutability": "nonpayable",
      "type": "function"
    },
    {
      "inputs": [
        {
          "internalType": "uint256",
          "name": "perpetualIndex",
          "type": "uint256"
        }
      ],
      "name": "clear",
      "outputs": [],
      "stateMutability": "nonpayable",
      "type": "function"
    },
    {
      "inputs": [
        {
          "internalType": "uint256",
          "name": "perpetualIndex",
          "type": "uint256"
        },
        {
          "internalType": "address",
          "name": "trader",
          "type": "address"
        },
        {
          "internalType": "int256",
          "name": "amount",
          "type": "int256"
        }
      ],
      "name": "deposit",
      "outputs": [],
      "stateMutability": "nonpayable",
      "type": "function"
    },
    {
      "inputs": [
        {
          "internalType": "uint256",
          "name": "perpetualIndex",
          "type": "uint256"
        },
        {
          "internalType": "address",
          "name": "trader",
          "type": "address"
        }
      ],
      "name": "liquidateByAMM",
      "outputs": [
        {
          "internalType": "int256",
          "name": "liquidationAmount",
          "type": "int256"
        }
      ],
      "stateMutability": "nonpayable",
      "type": "function"
    },
    {
      "inputs": [
        {
          "internalType": "uint256",
          "name": "perpetualIndex",
          "type": "uint256"
        },
        {
          "internalType": "address",
          "name": "liquidator",
          "type": "address"
        },
        {
          "internalType": "address",
          "name": "trader",
          "type": "address"
        },
        {
          "internalType": "int256",
          "name": "amount",
          "type": "int256"
        },
        {
          "internalType": "int256",
          "name": "limitPrice",
          "type": "int256"
        },
        {
          "internalType": "uint256",
          "name": "deadline",
          "type": "uint256"
        }
      ],
      "name": "liquidateByTrader",
      "outputs": [
        {
          "internalType": "int256",
          "name": "liquidationAmount",
          "type": "int256"
        }
      ],
      "stateMutability": "nonpayable",
      "type": "function"
    },
    {
      "inputs": [
        {
          "internalType": "uint256",
          "name": "perpetualIndex",
          "type": "uint256"
        },
        {
          "internalType": "address",
          "name": "trader",
          "type": "address"
        },
        {
          "internalType": "int256",
          "name": "targetLeverage",
          "type": "int256"
        }
      ],
      "name": "setTargetLeverage",
      "outputs": [],
      "stateMutability": "nonpayable",
      "type": "function"
    },
    {
      "inputs": [
        {
          "internalType": "uint256",
          "name": "perpetualIndex",
          "type": "uint256"
        },
        {
          "internalType": "address",
          "name": "trader",
          "type": "address"
        }
      ],
      "name": "settle",
      "outputs": [],
      "stateMutability": "nonpayable",
      "type": "function"
    },
    {
      "inputs": [
        {
          "internalType": "uint256",
          "name": "perpetualIndex",
          "type": "uint256"
        },
        {
          "internalType": "address",
          "name": "trader",
          "type": "address"
        },
        {
          "internalType": "int256",
          "name": "amount",
          "type": "int256"
        },
        {
          "internalType": "int256",
          "name": "limitPrice",
          "type": "int256"
        },
        {
          "internalType": "uint256",
          "name": "deadline",
          "type": "uint256"
        },
        {
          "internalType": "address",
          "name": "referrer",
          "type": "address"
        },
        {
          "internalType": "uint32",
          "name": "flags",
          "type": "uint32"
        }
      ],
      "name": "trade",
      "outputs": [
        {
          "internalType": "int256",
          "name": "tradeAmount",
          "type": "int256"
        }
      ],
      "stateMutability": "nonpayable",
      "type": "function"
    },
    {
      "inputs": [
        {
          "internalType": "uint256",
          "name": "perpetualIndex",
          "type": "uint256"
        },
        {
          "internalType": "address",
          "name": "trader",
          "type": "address"
        },
        {
          "internalType": "int256",
          "name": "amount",
          "type": "int256"
        }
      ],
      "name": "withdraw",
      "outputs": [],
      "stateMutability": "nonpayable",
      "type": "function"
    }
  ],
  "bytecode": "0x608060405234801561001057600080fd5b50612abd806100206000396000f3fe608060405234801561001057600080fd5b50600436106100a35760003560e01c8063709240c411610076578063962d19381161005b578063962d193814610132578063bd5b0a0914610145578063c0fe1af814610158576100a3565b8063709240c41461010c57806378f140ea1461011f576100a3565b80632d47ba57146100a857806349a60713146100bd5780634fababb3146100e65780636ef05a40146100f9575b600080fd5b6100bb6100b63660046123cf565b61016b565b005b6100d06100cb366004612378565b610367565b6040516100dd91906125f2565b60405180910390f35b6100d06100f4366004612281565b610888565b6100bb6101073660046123cf565b610bc0565b6100d061011a366004612403565b611060565b6100bb61012d3660046123cf565b611348565b6100bb61014036600461234d565b611655565b6100d061015336600461234d565b61189e565b6100bb610166366004612335565b611c74565b81600773__$c7a04b010d7229ccbe3c515e91d1303780$__63e57d06a8603384610193611d8b565b856040518563ffffffff1660e01b815260040180858152602001846001600160a01b03168152602001836001600160a01b0316815260200182815260200194505050505060206040518083038186803b1580156101ef57600080fd5b505af4158015610203573d6000803e3d6000fd5b505050506040513d602081101561021957600080fd5b5051610262576040805162461bcd60e51b81526020600482015260136024820152723ab730baba3437b934bd32b21031b0b63632b960691b604482015290519081900360640190fd5b6001600160a01b0384166102915760405162461bcd60e51b81526004016102889061286d565b60405180910390fd5b670de0b6b3a76400008307156102b95760405162461bcd60e51b815260040161028890612669565b600083136102d95760405162461bcd60e51b81526004016102889061276b565b6040517fdaad7f6900000000000000000000000000000000000000000000000000000000815273__$c7a04b010d7229ccbe3c515e91d1303780$__9063daad7f699061033090603390899089908990600401612a24565b60006040518083038186803b15801561034857600080fd5b505af415801561035c573d6000803e3d6000fd5b505050505050505050565b6000600260745414156103c1576040805162461bcd60e51b815260206004820152601f60248201527f5265656e7472616e637947756172643a207265656e7472616e742063616c6c00604482015290519081900360640190fd5b6002607481905550603360000160029054906101000a90046001600160a01b03166001600160a01b0316634831d32f6040518163ffffffff1660e01b815260040160206040518083038186803b15801561041a57600080fd5b505afa15801561042e573d6000803e3d6000fd5b505050506040513d602081101561044457600080fd5b50511561048b576040805162461bcd60e51b815260206004820152601060248201526f1d5b9a5d995c9cd9481cd95d1d1b195960821b604482015290519081900360640190fd5b85600873__$c7a04b010d7229ccbe3c515e91d1303780$__63e57d06a86033846104b3611d8b565b856040518563ffffffff1660e01b815260040180858152602001846001600160a01b03168152602001836001600160a01b0316815260200182815260200194505050505060206040518083038186803b15801561050f57600080fd5b505af4158015610523573d6000803e3d6000fd5b505050506040513d602081101561053957600080fd5b5051610582576040805162461bcd60e51b81526020600482015260136024820152723ab730baba3437b934bd32b21031b0b63632b960691b604482015290519081900360640190fd5b60408051634b071c5760e11b815260336004820152426024820181905291516000929173__$c7a04b010d7229ccbe3c515e91d1303780$__9163960e38ae916044808201928792909190829003018186803b1580156105e057600080fd5b505af41580156105f4573d6000803e3d6000fd5b5050604080516304c43a9960e31b8152603360048201528515156024820152905173__$c7a04b010d7229ccbe3c515e91d1303780$__9350632621d4c892506044808301926000929190829003018186803b15801561065257600080fd5b505af4158015610666573d6000803e3d6000fd5b5060029250610673915050565b60008c81526043602052604090206001015460ff16600481111561069357fe5b146106b05760405162461bcd60e51b81526004016102889061270e565b6001600160a01b0389166106d65760405162461bcd60e51b81526004016102889061286d565b6001600160a01b0389163014156106ff5760405162461bcd60e51b815260040161028890612632565b8761071c5760405162461bcd60e51b8152600401610288906126d7565b600087121561073d5760405162461bcd60e51b8152600401610288906125fb565b4286101561075d5760405162461bcd60e51b8152600401610288906127ff565b6040517f15e4782700000000000000000000000000000000000000000000000000000000815273__$85738a9b50fe147d23ce9080d17e448cc6$__906315e47827906107b8906033908f908f908f908f908f906004016129f2565b60206040518083038186803b1580156107d057600080fd5b505af41580156107e4573d6000803e3d6000fd5b505050506040513d601f19601f82011682018060405250810190610808919061231d565b9450603373__$c7a04b010d7229ccbe3c515e91d1303780$__63990d205290916040518263ffffffff1660e01b81526004018082815260200191505060006040518083038186803b15801561085c57600080fd5b505af4158015610870573d6000803e3d6000fd5b5050600160745550949b9a5050505050505050505050565b60408051634b071c5760e11b815260336004820152426024820181905291516000928392909173__$c7a04b010d7229ccbe3c515e91d1303780$__9163960e38ae9160448083019287929190829003018186803b1580156108e857600080fd5b505af41580156108fc573d6000803e3d6000fd5b5050604080516304c43a9960e31b8152603360048201528515156024820152905173__$c7a04b010d7229ccbe3c515e91d1303780$__9350632621d4c892506044808301926000929190829003018186803b15801561095a57600080fd5b505af415801561096e573d6000803e3d6000fd5b5050505061097a6121ce565b61098386611d8f565b9050606061099087611e7b565b6040517f8120e3d100000000000000000000000000000000000000000000000000000000815290915073__$b6905e4a302a713a1eaca5d53b662e815c$__90638120e3d1906109e89060339086908690600401612916565b60006040518083038186803b158015610a0057600080fd5b505af4158015610a14573d6000803e3d6000fd5b50506040517ff2ab44c200000000000000000000000000000000000000000000000000000000815273__$b6905e4a302a713a1eaca5d53b662e815c$__925063f2ab44c29150610a6d9060339086908b90600401612988565b60006040518083038186803b158015610a8557600080fd5b505af4158015610a99573d6000803e3d6000fd5b50506040517f4af2e32700000000000000000000000000000000000000000000000000000000815273__$b6905e4a302a713a1eaca5d53b662e815c$__9250634af2e3279150610af0906033908690600401612901565b60006040518083038186803b158015610b0857600080fd5b505af4158015610b1c573d6000803e3d6000fd5b50505050610b4a82610160015163ffffffff168360000151888560e001518660600151876101a00151611eed565b94505050603373__$c7a04b010d7229ccbe3c515e91d1303780$__63990d205290916040518263ffffffff1660e01b81526004018082815260200191505060006040518083038186803b158015610ba057600080fd5b505af4158015610bb4573d6000803e3d6000fd5b50505050505092915050565b60026074541415610c18576040805162461bcd60e51b815260206004820152601f60248201527f5265656e7472616e637947756172643a207265656e7472616e742063616c6c00604482015290519081900360640190fd5b6002607481905550603360000160029054906101000a90046001600160a01b03166001600160a01b0316634831d32f6040518163ffffffff1660e01b815260040160206040518083038186803b158015610c7157600080fd5b505afa158015610c85573d6000803e3d6000fd5b505050506040513d6020811015610c9b57600080fd5b505115610ce2576040805162461bcd60e51b815260206004820152601060248201526f1d5b9a5d995c9cd9481cd95d1d1b195960821b604482015290519081900360640190fd5b60408051634b071c5760e11b815260336004820152426024820181905291516000929173__$c7a04b010d7229ccbe3c515e91d1303780$__9163960e38ae916044808201928792909190829003018186803b158015610d4057600080fd5b505af4158015610d54573d6000803e3d6000fd5b5050604080516304c43a9960e31b8152603360048201528515156024820152905173__$c7a04b010d7229ccbe3c515e91d1303780$__9350632621d4c892506044808301926000929190829003018186803b158015610db257600080fd5b505af4158015610dc6573d6000803e3d6000fd5b50505050836002603373__$c7a04b010d7229ccbe3c515e91d1303780$__63e57d06a8909184610df4611d8b565b856040518563ffffffff1660e01b815260040180858152602001846001600160a01b03168152602001836001600160a01b0316815260200182815260200194505050505060206040518083038186803b158015610e5057600080fd5b505af4158015610e64573d6000803e3d6000fd5b505050506040513d6020811015610e7a57600080fd5b5051610ec3576040805162461bcd60e51b81526020600482015260136024820152723ab730baba3437b934bd32b21031b0b63632b960691b604482015290519081900360640190fd5b600260008881526043602052604090206001015460ff166004811115610ee557fe5b14610f025760405162461bcd60e51b81526004016102889061270e565b6001600160a01b038616610f285760405162461bcd60e51b81526004016102889061286d565b60008513610f485760405162461bcd60e51b8152600401610288906126d7565b6040517fa54b4d7800000000000000000000000000000000000000000000000000000000815273__$c7a04b010d7229ccbe3c515e91d1303780$__9063a54b4d7890610f9f906033908b908b908b90600401612a24565b60006040518083038186803b158015610fb757600080fd5b505af4158015610fcb573d6000803e3d6000fd5b5050604080517f990d205200000000000000000000000000000000000000000000000000000000815260336004820152905173__$c7a04b010d7229ccbe3c515e91d1303780$__955063990d2052945060248083019450600093509091829003018186803b15801561103c57600080fd5b505af4158015611050573d6000803e3d6000fd5b5050600160745550505050505050565b6000866110728363ffffffff166120a8565b61107d576004611080565b60075b73__$c7a04b010d7229ccbe3c515e91d1303780$__63e57d06a86033846110a5611d8b565b856040518563ffffffff1660e01b815260040180858152602001846001600160a01b03168152602001836001600160a01b0316815260200182815260200194505050505060206040518083038186803b15801561110157600080fd5b505af4158015611115573d6000803e3d6000fd5b505050506040513d602081101561112b57600080fd5b5051611174576040805162461bcd60e51b81526020600482015260136024820152723ab730baba3437b934bd32b21031b0b63632b960691b604482015290519081900360640190fd5b60408051634b071c5760e11b815260336004820152426024820181905291516000929173__$c7a04b010d7229ccbe3c515e91d1303780$__9163960e38ae916044808201928792909190829003018186803b1580156111d257600080fd5b505af41580156111e6573d6000803e3d6000fd5b5050604080516304c43a9960e31b8152603360048201528515156024820152905173__$c7a04b010d7229ccbe3c515e91d1303780$__9350632621d4c892506044808301926000929190829003018186803b15801561124457600080fd5b505af4158015611258573d6000803e3d6000fd5b505050506001600160a01b038b166112825760405162461bcd60e51b81526004016102889061286d565b8961129f5760405162461bcd60e51b8152600401610288906126d7565b428810156112bf5760405162461bcd60e51b8152600401610288906127ff565b6112cd8c8c8c8c8b8b611eed565b9450603373__$c7a04b010d7229ccbe3c515e91d1303780$__63990d205290916040518263ffffffff1660e01b81526004018082815260200191505060006040518083038186803b15801561132157600080fd5b505af4158015611335573d6000803e3d6000fd5b5050505050505050979650505050505050565b600260745414156113a0576040805162461bcd60e51b815260206004820152601f60248201527f5265656e7472616e637947756172643a207265656e7472616e742063616c6c00604482015290519081900360640190fd5b6002607481905550603360000160029054906101000a90046001600160a01b03166001600160a01b0316634831d32f6040518163ffffffff1660e01b815260040160206040518083038186803b1580156113f957600080fd5b505afa15801561140d573d6000803e3d6000fd5b505050506040513d602081101561142357600080fd5b50511561146a576040805162461bcd60e51b815260206004820152601060248201526f1d5b9a5d995c9cd9481cd95d1d1b195960821b604482015290519081900360640190fd5b81600173__$c7a04b010d7229ccbe3c515e91d1303780$__63e57d06a8603384611492611d8b565b856040518563ffffffff1660e01b815260040180858152602001846001600160a01b03168152602001836001600160a01b0316815260200182815260200194505050505060206040518083038186803b1580156114ee57600080fd5b505af4158015611502573d6000803e3d6000fd5b505050506040513d602081101561151857600080fd5b5051611561576040805162461bcd60e51b81526020600482015260136024820152723ab730baba3437b934bd32b21031b0b63632b960691b604482015290519081900360640190fd5b600260008681526043602052604090206001015460ff16600481111561158357fe5b146115a05760405162461bcd60e51b81526004016102889061270e565b6001600160a01b0384166115c65760405162461bcd60e51b81526004016102889061286d565b600083136115e65760405162461bcd60e51b8152600401610288906126d7565b6040517f028c4ff600000000000000000000000000000000000000000000000000000000815273__$c7a04b010d7229ccbe3c515e91d1303780$__9063028c4ff69061163d90603390899089908990600401612a24565b60006040518083038186803b15801561103c57600080fd5b80600273__$c7a04b010d7229ccbe3c515e91d1303780$__63e57d06a860338461167d611d8b565b856040518563ffffffff1660e01b815260040180858152602001846001600160a01b03168152602001836001600160a01b0316815260200182815260200194505050505060206040518083038186803b1580156116d957600080fd5b505af41580156116ed573d6000803e3d6000fd5b505050506040513d602081101561170357600080fd5b505161174c576040805162461bcd60e51b81526020600482015260136024820152723ab730baba3437b934bd32b21031b0b63632b960691b604482015290519081900360640190fd5b600260745414156117a4576040805162461bcd60e51b815260206004820152601f60248201527f5265656e7472616e637947756172643a207265656e7472616e742063616c6c00604482015290519081900360640190fd5b60026074556001600160a01b0383166117cf5760405162461bcd60e51b81526004016102889061286d565b600460008581526043602052604090206001015460ff1660048111156117f157fe5b1461180e5760405162461bcd60e51b8152600401610288906128a4565b6040517fb2f6decc00000000000000000000000000000000000000000000000000000000815273__$c7a04b010d7229ccbe3c515e91d1303780$__9063b2f6decc9061186390603390889088906004016129ac565b60006040518083038186803b15801561187b57600080fd5b505af415801561188f573d6000803e3d6000fd5b50506001607455505050505050565b6000600260745414156118f8576040805162461bcd60e51b815260206004820152601f60248201527f5265656e7472616e637947756172643a207265656e7472616e742063616c6c00604482015290519081900360640190fd5b6002607481905550603360000160029054906101000a90046001600160a01b03166001600160a01b0316634831d32f6040518163ffffffff1660e01b815260040160206040518083038186803b15801561195157600080fd5b505afa158015611965573d6000803e3d6000fd5b505050506040513d602081101561197b57600080fd5b5051156119c2576040805162461bcd60e51b815260206004820152601060248201526f1d5b9a5d995c9cd9481cd95d1d1b195960821b604482015290519081900360640190fd5b60408051634b071c5760e11b815260336004820152426024820181905291516000929173__$c7a04b010d7229ccbe3c515e91d1303780$__9163960e38ae916044808201928792909190829003018186803b158015611a2057600080fd5b505af4158015611a34573d6000803e3d6000fd5b5050604080516304c43a9960e31b8152603360048201528515156024820152905173__$c7a04b010d7229ccbe3c515e91d1303780$__9350632621d4c892506044808301926000929190829003018186803b158015611a9257600080fd5b505af4158015611aa6573d6000803e3d6000fd5b50505050611abb85611ab6611d8b565b6120b7565b611ad75760405162461bcd60e51b815260040161028890612836565b600260008681526043602052604090206001015460ff166004811115611af957fe5b14611b165760405162461bcd60e51b81526004016102889061270e565b6001600160a01b038416611b3c5760405162461bcd60e51b81526004016102889061286d565b6001600160a01b038416301415611b655760405162461bcd60e51b815260040161028890612632565b73__$85738a9b50fe147d23ce9080d17e448cc6$__63e810d619603387611b8a611d8b565b886040518563ffffffff1660e01b8152600401611baa94939291906129cb565b60206040518083038186803b158015611bc257600080fd5b505af4158015611bd6573d6000803e3d6000fd5b505050506040513d601f19601f82011682018060405250810190611bfa919061231d565b9250603373__$c7a04b010d7229ccbe3c515e91d1303780$__63990d205290916040518263ffffffff1660e01b81526004018082815260200191505060006040518083038186803b158015611c4e57600080fd5b505af4158015611c62573d6000803e3d6000fd5b50506001607455509295945050505050565b60026074541415611ccc576040805162461bcd60e51b815260206004820152601f60248201527f5265656e7472616e637947756172643a207265656e7472616e742063616c6c00604482015290519081900360640190fd5b6002607455600360008281526043602052604090206001015460ff166004811115611cf357fe5b14611d105760405162461bcd60e51b8152600401610288906127a2565b73__$c7a04b010d7229ccbe3c515e91d1303780$__632ef9dab9603383611d35611d8b565b6040518463ffffffff1660e01b8152600401611d53939291906129ac565b60006040518083038186803b158015611d6b57600080fd5b505af4158015611d7f573d6000803e3d6000fd5b50506001607455505050565b3390565b611d976121ce565b61010082511015611dba5760405162461bcd60e51b8152600401610288906126a0565b6014820151815260288201516020820152603c82015160408083019190915260508301516060808401919091526064840151608080850191909152608485015160a08086019190915260a486015160c08087019190915260c487015160e087015260e4870151610100870152610104870151610120870152610124909601519586901c61014086015263ffffffff9086901c81166101608601529085901c81166101808501529084901c81166101a084015292901c9091166101c082015290565b606061015e82511015611ea05760405162461bcd60e51b8152600401610288906126a0565b61013e82015161015e830151610124840151604051601882901a9160191a90611ed3908590859085908590602001612597565b604051602081830303815290604052945050505050919050565b6000603360000160029054906101000a90046001600160a01b03166001600160a01b0316634831d32f6040518163ffffffff1660e01b815260040160206040518083038186803b158015611f4057600080fd5b505afa158015611f54573d6000803e3d6000fd5b505050506040513d6020811015611f6a57600080fd5b505115611fb1576040805162461bcd60e51b815260206004820152601060248201526f1d5b9a5d995c9cd9481cd95d1d1b195960821b604482015290519081900360640190fd5b600260008881526043602052604090206001015460ff166004811115611fd357fe5b14611ff05760405162461bcd60e51b81526004016102889061270e565b6040517f443d6cae00000000000000000000000000000000000000000000000000000000815273__$85738a9b50fe147d23ce9080d17e448cc6$__9063443d6cae9061204d906033908b908b908b908b908b908b90600401612a48565b60206040518083038186803b15801561206557600080fd5b505af4158015612079573d6000803e3d6000fd5b505050506040513d601f19601f8201168201806040525081019061209d919061231d565b979650505050505050565b6308000000811615155b919050565b60008281526043602052604081206039016120d18161218b565b61217b576033546040517f6ba42aaa000000000000000000000000000000000000000000000000000000008152620100009091046001600160a01b031690636ba42aaa906121239086906004016125de565b60206040518083038186803b15801561213b57600080fd5b505afa15801561214f573d6000803e3d6000fd5b505050506040513d601f19601f820116820180604052508101906121739190612261565b915050612185565b6121738184612196565b92915050565b6000612185826121b2565b60006121ab836001600160a01b0384166121b6565b9392505050565b5490565b60009081526001919091016020526040902054151590565b604080516101e081018252600080825260208201819052918101829052606081018290526080810182905260a0810182905260c0810182905260e08101829052610100810182905261012081018290526101408101829052610160810182905261018081018290526101a081018290526101c081019190915290565b80356001600160a01b03811681146120b257600080fd5b600060208284031215612272578081fd5b815180151581146121ab578182fd5b60008060408385031215612293578081fd5b823567ffffffffffffffff808211156122aa578283fd5b818501915085601f8301126122bd578283fd5b8135818111156122c957fe5b6040516020601f8301601f19168201810184811183821017156122e857fe5b60405282825284830181018910156122fe578586fd5b8281860182840137918101820194909452929694909201359450505050565b60006020828403121561232e578081fd5b5051919050565b600060208284031215612346578081fd5b5035919050565b6000806040838503121561235f578182fd5b8235915061236f6020840161224a565b90509250929050565b60008060008060008060c08789031215612390578182fd5b863595506123a06020880161224a565b94506123ae6040880161224a565b9350606087013592506080870135915060a087013590509295509295509295565b6000806000606084860312156123e3578283fd5b833592506123f36020850161224a565b9150604084013590509250925092565b600080600080600080600060e0888a03121561241d578081fd5b8735965061242d6020890161224a565b955060408801359450606088013593506080880135925061245060a0890161224a565b915060c088013563ffffffff81168114612468578182fd5b8091505092959891949750929550565b6001600160a01b03169052565b612490828251612478565b60208101516124a26020840182612478565b5060408101516124b56040840182612478565b5060608101516124c86060840182612478565b5060808101516124db6080840182612478565b5060a081015160a083015260c081015160c083015260e081015160e08301526101008082015181840152506101208082015181840152506101408082015161252582850182612589565b50506101608082015161253a8285018261257f565b50506101808082015161254f8285018261257f565b50506101a0808201516125648285018261257f565b50506101c0808201516125798285018261257f565b50505050565b63ffffffff169052565b67ffffffffffffffff169052565b93845260208401929092527fff0000000000000000000000000000000000000000000000000000000000000060f891821b8116604085015291901b16604182015260420190565b6001600160a01b0391909116815260200190565b90815260200190565b60208082526013908201527f696e76616c6964206c696d697420707269636500000000000000000000000000604082015260600190565b60208082526014908201527f63616e6e6f74206c697175696461746520414d4d000000000000000000000000604082015260600190565b6020808252601e908201527f7461726765744c65766572616765206d75737420626520696e74656765720000604082015260600190565b6020808252600b908201527f62726f6b656e2064617461000000000000000000000000000000000000000000604082015260600190565b6020808252600e908201527f696e76616c696420616d6f756e74000000000000000000000000000000000000604082015260600190565b60208082526023908201527f70657270657475616c2073686f756c6420626520696e204e4f524d414c20737460408201527f6174650000000000000000000000000000000000000000000000000000000000606082015260800190565b6020808252601a908201527f7461726765744c65766572616765206973206e65676174697665000000000000604082015260600190565b60208082526026908201527f70657270657475616c2073686f756c6420626520696e20454d455247454e435960408201527f2073746174650000000000000000000000000000000000000000000000000000606082015260800190565b60208082526011908201527f646561646c696e65206578636565646564000000000000000000000000000000604082015260600190565b60208082526015908201527f63616c6c6572206d757374206265206b65657065720000000000000000000000604082015260600190565b6020808252600e908201527f696e76616c696420747261646572000000000000000000000000000000000000604082015260600190565b60208082526024908201527f70657270657475616c2073686f756c6420626520696e20434c4541524544207360408201527f7461746500000000000000000000000000000000000000000000000000000000606082015260800190565b82815261020081016121ab6020830184612485565b6000610220858352602061292c81850187612485565b81610200850152845180838601528392505b8083101561295d5785830182015185840161024001529181019161293e565b8083111561296f578361024082870101525b601f01601f191693909301610240019695505050505050565b838152610220810161299d6020830185612485565b82610200830152949350505050565b92835260208301919091526001600160a01b0316604082015260600190565b93845260208401929092526001600160a01b03908116604084015216606082015260800190565b95865260208601949094526001600160a01b03928316604086015291166060840152608083015260a082015260c00190565b93845260208401929092526001600160a01b03166040830152606082015260800190565b96875260208701959095526001600160a01b039384166040870152606086019290925260808501521660a083015263ffffffff1660c082015260e0019056fea2646970667358221220a55173363ca46232a9effddd6030d52a2bc34c3de3fe1e6db458f4b4d1544a2664736f6c63430007040033",
  "linkReferences": {
    "contracts/module/LiquidityPoolModule.sol": {
      "LiquidityPoolModule": [
        {
          "length": 20,
          "start": 400
        },
        {
          "length": 20,
          "start": 801
        },
        {
          "length": 20,
          "start": 1200
        },
        {
          "length": 20,
          "start": 1479
        },
        {
          "length": 20,
          "start": 1591
        },
        {
          "length": 20,
          "start": 2094
        },
        {
          "length": 20,
          "start": 2256
        },
        {
          "length": 20,
          "start": 2367
        },
        {
          "length": 20,
          "start": 2930
        },
        {
          "length": 20,
          "start": 3367
        },
        {
          "length": 20,
          "start": 3479
        },
        {
          "length": 20,
          "start": 3569
        },
        {
          "length": 20,
          "start": 3984
        },
        {
          "length": 20,
          "start": 4127
        },
        {
          "length": 20,
          "start": 4258
        },
        {
          "length": 20,
          "start": 4537
        },
        {
          "length": 20,
          "start": 4649
        },
        {
          "length": 20,
          "start": 4851
        },
        {
          "length": 20,
          "start": 5263
        },
        {
          "length": 20,
          "start": 5678
        },
        {
          "length": 20,
          "start": 5754
        },
        {
          "length": 20,
          "start": 6230
        },
        {
          "length": 20,
          "start": 6663
        },
        {
          "length": 20,
          "start": 6775
        },
        {
          "length": 20,
          "start": 7200
        },
        {
          "length": 20,
          "start": 7474
        }
      ]
    },
    "contracts/module/OrderModule.sol": {
      "OrderModule": [
        {
          "length": 20,
          "start": 2523
        },
        {
          "length": 20,
          "start": 2654
        },
        {
          "length": 20,
          "start": 2787
        }
      ]
    },
    "contracts/module/TradeModule.sol": {
      "TradeModule": [
        {
          "length": 20,
          "start": 1957
        },
        {
          "length": 20,
          "start": 7047
        },
        {
          "length": 20,
          "start": 8248
        }
      ]
    }
  },
  "deployedLinkReferences": {
    "contracts/module/LiquidityPoolModule.sol": {
      "LiquidityPoolModule": [
        {
          "length": 20,
          "start": 368
        },
        {
          "length": 20,
          "start": 769
        },
        {
          "length": 20,
          "start": 1168
        },
        {
          "length": 20,
          "start": 1447
        },
        {
          "length": 20,
          "start": 1559
        },
        {
          "length": 20,
          "start": 2062
        },
        {
          "length": 20,
          "start": 2224
        },
        {
          "length": 20,
          "start": 2335
        },
        {
          "length": 20,
          "start": 2898
        },
        {
          "length": 20,
          "start": 3335
        },
        {
          "length": 20,
          "start": 3447
        },
        {
          "length": 20,
          "start": 3537
        },
        {
          "length": 20,
          "start": 3952
        },
        {
          "length": 20,
          "start": 4095
        },
        {
          "length": 20,
          "start": 4226
        },
        {
          "length": 20,
          "start": 4505
        },
        {
          "length": 20,
          "start": 4617
        },
        {
          "length": 20,
          "start": 4819
        },
        {
          "length": 20,
          "start": 5231
        },
        {
          "length": 20,
          "start": 5646
        },
        {
          "length": 20,
          "start": 5722
        },
        {
          "length": 20,
          "start": 6198
        },
        {
          "length": 20,
          "start": 6631
        },
        {
          "length": 20,
          "start": 6743
        },
        {
          "length": 20,
          "start": 7168
        },
        {
          "length": 20,
          "start": 7442
        }
      ]
    },
    "contracts/module/OrderModule.sol": {
      "OrderModule": [
        {
          "length": 20,
          "start": 2491
        },
        {
          "length": 20,
          "start": 2622
        },
        {
          "length": 20,
          "start": 2755
        }
      ]
    },
    "contracts/module/TradeModule.sol": {
      "TradeModule": [
        {
          "length": 20,
          "start": 1925
        },
        {
          "length": 20,
          "start": 7015
        },
        {
          "length": 20,
          "start": 8216
        }
      ]
    }
  }
}