{
  "_format": "hh-sol-artifact-1",
  "contractName": "TestLibMath",
  "sourceName": "contracts/test/TestLibMath.sol",
  "abi": [
    {
      "inputs": [
        {
          "internalType": "uint256",
          "name": "x",
          "type": "uint256"
        }
      ],
      "name": "mostSignificantBit",
      "outputs": [
        {
          "internalType": "uint8",
          "name": "",
          "type": "uint8"
        }
      ],
      "stateMutability": "pure",
      "type": "function"
    },
    {
      "inputs": [
        {
          "internalType": "int256",
          "name": "y",
          "type": "int256"
        }
      ],
      "name": "sqrt",
      "outputs": [
        {
          "internalType": "int256",
          "name": "",
          "type": "int256"
        }
      ],
      "stateMutability": "pure",
      "type": "function"
    }
  ],
  "bytecode": "0x608060405234801561001057600080fd5b50610279806100206000396000f3fe608060405234801561001057600080fd5b50600436106100365760003560e01c8063665df4601461003b578063e6bcbc651461006a575b600080fd5b6100586004803603602081101561005157600080fd5b503561009d565b60408051918252519081900360200190f35b6100876004803603602081101561008057600080fd5b50356100b0565b6040805160ff9092168252519081900360200190f35b60006100a8826100bb565b90505b919050565b60006100a88261018b565b60008082121561012c57604080517f08c379a000000000000000000000000000000000000000000000000000000000815260206004820152600d60248201527f6e65676174697665207371727400000000000000000000000000000000000000604482015290519081900360640190fd5b60038212156101425750600260018201056100ab565b600061014d8361018b565b9050600260ff6001830116046001908101915060ff82161b60005b5080600181868161017557fe5b058301901d915080821261016857949350505050565b6000608082901c8181156101a25790925082906080015b604084901c915081156101b85790925082906040015b602084901c915081156101ce5790925082906020015b601084901c915081156101e45790925082906010015b600884901c915081156101fa5790925082906008015b600484901c915081156102105790925082906004015b600284901c915081156102265790925082906002015b600184901c9150811561023c5790925082906001015b939250505056fea2646970667358221220ada9fce4167ad762dfe3f922726634dd472ae6530d6efd69a4bd8aeff24e488664736f6c63430007040033",
  "linkReferences": {},
  "deployedLinkReferences": {}
}