{
  "_format": "hh-sol-artifact-1",
  "contractName": "SymbolService",
  "sourceName": "contracts/symbolService/SymbolService.sol",
  "abi": [
    {
      "anonymous": false,
      "inputs": [
        {
          "indexed": false,
          "internalType": "address",
          "name": "factory",
          "type": "address"
        }
      ],
      "name": "AddWhitelistedFactory",
      "type": "event"
    },
    {
      "anonymous": false,
      "inputs": [
        {
          "indexed": false,
          "internalType": "address",
          "name": "liquidityPool",
          "type": "address"
        },
        {
          "indexed": false,
          "internalType": "uint256",
          "name": "perpetualIndex",
          "type": "uint256"
        },
        {
          "indexed": false,
          "internalType": "uint256",
          "name": "symbol",
          "type": "uint256"
        }
      ],
      "name": "AllocateSymbol",
      "type": "event"
    },
    {
      "anonymous": false,
      "inputs": [
        {
          "indexed": true,
          "internalType": "address",
          "name": "previousOwner",
          "type": "address"
        },
        {
          "indexed": true,
          "internalType": "address",
          "name": "newOwner",
          "type": "address"
        }
      ],
      "name": "OwnershipTransferred",
      "type": "event"
    },
    {
      "anonymous": false,
      "inputs": [
        {
          "indexed": false,
          "internalType": "address",
          "name": "factory",
          "type": "address"
        }
      ],
      "name": "RemoveWhitelistedFactory",
      "type": "event"
    },
    {
      "inputs": [
        {
          "internalType": "address",
          "name": "factory",
          "type": "address"
        }
      ],
      "name": "addWhitelistedFactory",
      "outputs": [],
      "stateMutability": "nonpayable",
      "type": "function"
    },
    {
      "inputs": [
        {
          "internalType": "address",
          "name": "liquidityPool",
          "type": "address"
        },
        {
          "internalType": "uint256",
          "name": "perpetualIndex",
          "type": "uint256"
        }
      ],
      "name": "allocateSymbol",
      "outputs": [
        {
          "internalType": "uint256",
          "name": "symbol",
          "type": "uint256"
        }
      ],
      "stateMutability": "nonpayable",
      "type": "function"
    },
    {
      "inputs": [
        {
          "internalType": "address",
          "name": "liquidityPool",
          "type": "address"
        },
        {
          "internalType": "uint256",
          "name": "perpetualIndex",
          "type": "uint256"
        },
        {
          "internalType": "uint256",
          "name": "symbol",
          "type": "uint256"
        }
      ],
      "name": "assignReservedSymbol",
      "outputs": [],
      "stateMutability": "nonpayable",
      "type": "function"
    },
    {
      "inputs": [
        {
          "internalType": "uint256",
          "name": "symbol",
          "type": "uint256"
        }
      ],
      "name": "getPerpetualUID",
      "outputs": [
        {
          "internalType": "address",
          "name": "liquidityPool",
          "type": "address"
        },
        {
          "internalType": "uint256",
          "name": "perpetualIndex",
          "type": "uint256"
        }
      ],
      "stateMutability": "view",
      "type": "function"
    },
    {
      "inputs": [
        {
          "internalType": "address",
          "name": "liquidityPool",
          "type": "address"
        },
        {
          "internalType": "uint256",
          "name": "perpetualIndex",
          "type": "uint256"
        }
      ],
      "name": "getSymbols",
      "outputs": [
        {
          "internalType": "uint256[]",
          "name": "symbols",
          "type": "uint256[]"
        }
      ],
      "stateMutability": "view",
      "type": "function"
    },
    {
      "inputs": [
        {
          "internalType": "uint256",
          "name": "reservedSymbolCount",
          "type": "uint256"
        }
      ],
      "name": "initialize",
      "outputs": [],
      "stateMutability": "nonpayable",
      "type": "function"
    },
    {
      "inputs": [
        {
          "internalType": "address",
          "name": "factory",
          "type": "address"
        }
      ],
      "name": "isWhitelistedFactory",
      "outputs": [
        {
          "internalType": "bool",
          "name": "",
          "type": "bool"
        }
      ],
      "stateMutability": "view",
      "type": "function"
    },
    {
      "inputs": [],
      "name": "owner",
      "outputs": [
        {
          "internalType": "address",
          "name": "",
          "type": "address"
        }
      ],
      "stateMutability": "view",
      "type": "function"
    },
    {
      "inputs": [
        {
          "internalType": "address",
          "name": "factory",
          "type": "address"
        }
      ],
      "name": "removeWhitelistedFactory",
      "outputs": [],
      "stateMutability": "nonpayable",
      "type": "function"
    },
    {
      "inputs": [],
      "name": "renounceOwnership",
      "outputs": [],
      "stateMutability": "nonpayable",
      "type": "function"
    },
    {
      "inputs": [
        {
          "internalType": "address",
          "name": "newOwner",
          "type": "address"
        }
      ],
      "name": "transferOwnership",
      "outputs": [],
      "stateMutability": "nonpayable",
      "type": "function"
    }
  ],
  "bytecode": "0x608060405234801561001057600080fd5b506117d8806100206000396000f3fe608060405234801561001057600080fd5b50600436106100c95760003560e01c8063b719065811610081578063f2fde38b1161005b578063f2fde38b1461019d578063f3d15042146101b0578063fe4b84df146101c3576100c9565b8063b71906581461014a578063bd086b861461016a578063dcb7a3e01461017d576100c9565b8063735492f7116100b2578063735492f714610102578063745a3f74146101155780638da5cb5b14610135576100c9565b806355467ce1146100ce578063715018a6146100f8575b600080fd5b6100e16100dc366004611344565b6101d6565b6040516100ef929190611392565b60405180910390f35b610100610233565b005b610100610110366004611212565b6102f1565b61012861012336600461122e565b6103d0565b6040516100ef91906113cc565b61013d610497565b6040516100ef919061137e565b61015d61015836600461122e565b6104a6565b6040516100ef91906116ea565b610100610178366004611259565b6106a4565b61019061018b366004611212565b61094a565b6040516100ef9190611410565b6101006101ab366004611212565b61095f565b6101006101be366004611212565b610a74565b6101006101d1366004611344565b610b77565b600081815260656020526040812080548291906001600160a01b03166102175760405162461bcd60e51b815260040161020e9061160e565b60405180910390fd5b80546001909101546001600160a01b0390911694909350915050565b61023b610c2c565b6001600160a01b031661024c610497565b6001600160a01b0316146102a7576040805162461bcd60e51b815260206004820181905260248201527f4f776e61626c653a2063616c6c6572206973206e6f7420746865206f776e6572604482015290519081900360640190fd5b6033546040516000916001600160a01b0316907f8be0079c531659141344cd1fd0a4f28419497f9722a3daafe3b4186f6b6457e0908390a3603380546001600160a01b0319169055565b6102f9610c2c565b6001600160a01b031661030a610497565b6001600160a01b031614610365576040805162461bcd60e51b815260206004820181905260248201527f4f776e61626c653a2063616c6c6572206973206e6f7420746865206f776e6572604482015290519081900360640190fd5b61036e8161094a565b61038a5760405162461bcd60e51b815260040161020e906115a0565b610395606982610c30565b507ff127e51db2d456506cf1c13b384bede8716dd162ed3ac47e59ba5d8f71e79c82816040516103c5919061137e565b60405180910390a150565b606060006103de8484610c4c565b6000818152606660205260408120919250906103f990610c7f565b905080610407575050610491565b8067ffffffffffffffff8111801561041e57600080fd5b50604051908082528060200260200182016040528015610448578160200160208202803683370190505b50925060005b8181101561048d57600083815260666020526040902061046e9082610c8a565b84828151811061047a57fe5b602090810291909101015260010161044e565b5050505b92915050565b6033546001600160a01b031690565b6000336104b281610c96565b6104ce5760405162461bcd60e51b815260040161020e90611645565b6104d6611118565b816001600160a01b0316630cdc105a6040518163ffffffff1660e01b81526004016102806040518083038186803b15801561051057600080fd5b505afa158015610524573d6000803e3d6000fd5b505050506040513d601f19601f82011682018060405250810190610548919061128d565b50509250505061056b8160006007811061055e57fe5b6020020151606990610c9c565b6105875760405162461bcd60e51b815260040161020e90611452565b60006105938686610c4c565b60008181526066602052604090209091506105ad90610c7f565b156105ca5760405162461bcd60e51b815260040161020e9061141b565b606754935060001984106105f05760405162461bcd60e51b815260040161020e906115d7565b6040805180820182526001600160a01b0388811682526020808301898152600089815260658352858120945185546001600160a01b03191694169390931784555160019093019290925583815260669091522061064d9085610cb1565b5060675461065c906001610cbd565b6067556040517f55f7c390672d1d8da79d269a8c6ed5c6bdedcd43ccd36a70772a517c169c52ac90610693908890889088906113ab565b60405180910390a150505092915050565b6106ac610c2c565b6001600160a01b03166106bd610497565b6001600160a01b031614610718576040805162461bcd60e51b815260206004820181905260248201527f4f776e61626c653a2063616c6c6572206973206e6f7420746865206f776e6572604482015290519081900360640190fd5b8261072281610c96565b61073e5760405162461bcd60e51b815260040161020e90611645565b610746611118565b816001600160a01b0316630cdc105a6040518163ffffffff1660e01b81526004016102806040518083038186803b15801561078057600080fd5b505afa158015610794573d6000803e3d6000fd5b505050506040513d601f19601f820116820180604052508101906107b8919061128d565b5050925050506107ce8160006007811061055e57fe5b6107ea5760405162461bcd60e51b815260040161020e90611452565b606854831061080b5760405162461bcd60e51b815260040161020e90611489565b6000838152606560205260409020546001600160a01b0316156108405760405162461bcd60e51b815260040161020e906114e6565b600061084c8686610c4c565b600081815260666020526040902090915061086690610c7f565b600114801561088d5750606854600082815260666020526040812061088a91610c8a565b10155b6108a95760405162461bcd60e51b815260040161020e9061151d565b6040805180820182526001600160a01b0388811682526020808301898152600089815260658352858120945185546001600160a01b0319169416939093178455516001909301929092558381526066909152206109069085610cb1565b507f55f7c390672d1d8da79d269a8c6ed5c6bdedcd43ccd36a70772a517c169c52ac86868660405161093a939291906113ab565b60405180910390a1505050505050565b6000610957606983610c9c565b90505b919050565b610967610c2c565b6001600160a01b0316610978610497565b6001600160a01b0316146109d3576040805162461bcd60e51b815260206004820181905260248201527f4f776e61626c653a2063616c6c6572206973206e6f7420746865206f776e6572604482015290519081900360640190fd5b6001600160a01b038116610a185760405162461bcd60e51b815260040180806020018281038252602681526020018061174f6026913960400191505060405180910390fd5b6033546040516001600160a01b038084169216907f8be0079c531659141344cd1fd0a4f28419497f9722a3daafe3b4186f6b6457e090600090a3603380546001600160a01b0319166001600160a01b0392909216919091179055565b610a7c610c2c565b6001600160a01b0316610a8d610497565b6001600160a01b031614610ae8576040805162461bcd60e51b815260206004820181905260248201527f4f776e61626c653a2063616c6c6572206973206e6f7420746865206f776e6572604482015290519081900360640190fd5b610afa816001600160a01b0316610c96565b610b165760405162461bcd60e51b815260040161020e9061167c565b610b1f8161094a565b15610b3c5760405162461bcd60e51b815260040161020e906116b3565b610b47606982610d17565b507fc8dfd666771ee017e7cf86b4e85b8a1e6a5e8a1b84e33914193996a94d02bb3f816040516103c5919061137e565b600054610100900460ff1680610b905750610b90610d2c565b80610b9e575060005460ff16155b610bd95760405162461bcd60e51b815260040180806020018281038252602e815260200180611775602e913960400191505060405180910390fd5b600054610100900460ff16158015610c04576000805460ff1961ff0019909116610100171660011790555b610c0c610d3d565b606782905560688290558015610c28576000805461ff00191690555b5050565b3390565b6000610c45836001600160a01b038416610def565b9392505050565b60008282604051602001610c6192919061135c565b60405160208183030381529060405280519060200120905092915050565b600061095782610eb5565b6000610c458383610eb9565b3b151590565b6000610c45836001600160a01b038416610f1d565b6000610c458383610f35565b600082820183811015610c45576040805162461bcd60e51b815260206004820152601b60248201527f536166654d6174683a206164646974696f6e206f766572666c6f770000000000604482015290519081900360640190fd5b6000610c45836001600160a01b038416610f35565b6000610d3730610c96565b15905090565b600054610100900460ff1680610d565750610d56610d2c565b80610d64575060005460ff16155b610d9f5760405162461bcd60e51b815260040180806020018281038252602e815260200180611775602e913960400191505060405180910390fd5b600054610100900460ff16158015610dca576000805460ff1961ff0019909116610100171660011790555b610dd2610f7f565b610dda61101f565b8015610dec576000805461ff00191690555b50565b60008181526001830160205260408120548015610eab5783546000198083019190810190600090879083908110610e2257fe5b9060005260206000200154905080876000018481548110610e3f57fe5b600091825260208083209091019290925582815260018981019092526040902090840190558654879080610e6f57fe5b60019003818190600052602060002001600090559055866001016000878152602001908152602001600020600090556001945050505050610491565b6000915050610491565b5490565b81546000908210610efb5760405162461bcd60e51b815260040180806020018281038252602281526020018061172d6022913960400191505060405180910390fd5b826000018281548110610f0a57fe5b9060005260206000200154905092915050565b60009081526001919091016020526040902054151590565b6000610f418383610f1d565b610f7757508154600181810184556000848152602080822090930184905584548482528286019093526040902091909155610491565b506000610491565b600054610100900460ff1680610f985750610f98610d2c565b80610fa6575060005460ff16155b610fe15760405162461bcd60e51b815260040180806020018281038252602e815260200180611775602e913960400191505060405180910390fd5b600054610100900460ff16158015610dda576000805460ff1961ff0019909116610100171660011790558015610dec576000805461ff001916905550565b600054610100900460ff16806110385750611038610d2c565b80611046575060005460ff16155b6110815760405162461bcd60e51b815260040180806020018281038252602e815260200180611775602e913960400191505060405180910390fd5b600054610100900460ff161580156110ac576000805460ff1961ff0019909116610100171660011790555b60006110b6610c2c565b603380546001600160a01b0319166001600160a01b038316908117909155604051919250906000907f8be0079c531659141344cd1fd0a4f28419497f9722a3daafe3b4186f6b6457e0908290a3508015610dec576000805461ff001916905550565b6040518060e001604052806007906020820280368337509192915050565b600082601f830112611146578081fd5b60405160a0810181811067ffffffffffffffff8211171561116357fe5b6040529050808260a0810185101561117a57600080fd5b60005b600581101561048d57815183526020928301929091019060010161117d565b600082601f8301126111ac578081fd5b60405160c0810181811067ffffffffffffffff821117156111c957fe5b6040529050808260c081018510156111e057600080fd5b60005b600681101561048d5781518352602092830192909101906001016111e3565b8051801515811461095a57600080fd5b600060208284031215611223578081fd5b8135610c4581611717565b60008060408385031215611240578081fd5b823561124b81611717565b946020939093013593505050565b60008060006060848603121561126d578081fd5b833561127881611717565b95602085013595506040909401359392505050565b600080600080600061028086880312156112a5578081fd5b6112ae86611202565b945060206112bd818801611202565b945087605f8801126112cd578182fd5b6112d760e06116f3565b80604089016101208a018b8111156112ed578586fd5b855b600781101561131557825161130381611717565b855293850193918501916001016112ef565b508297506113238c82611136565b96505050505050611338876101c0880161119c565b90509295509295909350565b600060208284031215611355578081fd5b5035919050565b60609290921b6bffffffffffffffffffffffff19168252601482015260340190565b6001600160a01b0391909116815260200190565b6001600160a01b03929092168252602082015260400190565b6001600160a01b039390931683526020830191909152604082015260600190565b6020808252825182820181905260009190848201906040850190845b81811015611404578351835292840192918401916001016113e8565b50909695505050505050565b901515815260200190565b60208082526018908201527f70657270657475616c20616c7265616479206578697374730000000000000000604082015260600190565b6020808252600d908201527f77726f6e6720666163746f727900000000000000000000000000000000000000604082015260600190565b60208082526024908201527f73796d626f6c20657863656564732072657365727665642073796d626f6c206360408201527f6f756e7400000000000000000000000000000000000000000000000000000000606082015260800190565b60208082526015908201527f73796d626f6c20616c7265616479206578697374730000000000000000000000604082015260600190565b60208082526042908201527f70657270657475616c206d7573742068617665206e6f726d616c2073796d626f60408201527f6c20616e64206d7573746e277420686176652072657665727365642073796d6260608201527f6f6c000000000000000000000000000000000000000000000000000000000000608082015260a00190565b60208082526011908201527f666163746f7279206e6f7420666f756e64000000000000000000000000000000604082015260600190565b60208082526011908201527f6e6f7420656e6f7567682073796d626f6c000000000000000000000000000000604082015260600190565b60208082526010908201527f73796d626f6c206e6f7420666f756e6400000000000000000000000000000000604082015260600190565b60208082526017908201527f6d7573742063616c6c656420627920636f6e7472616374000000000000000000604082015260600190565b6020808252601a908201527f666163746f7279206d757374206265206120636f6e7472616374000000000000604082015260600190565b60208082526016908201527f666163746f727920616c72656164792065786973747300000000000000000000604082015260600190565b90815260200190565b60405181810167ffffffffffffffff8111828210171561170f57fe5b604052919050565b6001600160a01b0381168114610dec57600080fdfe456e756d657261626c655365743a20696e646578206f7574206f6620626f756e64734f776e61626c653a206e6577206f776e657220697320746865207a65726f2061646472657373496e697469616c697a61626c653a20636f6e747261637420697320616c726561647920696e697469616c697a6564a2646970667358221220651e3a5cff36ac28244079a88f63f8460f9437c1f9793c4efecc45d7eaee01ac64736f6c63430007040033",
  "linkReferences": {},
  "deployedLinkReferences": {}
}