{
  "_format": "hh-sol-artifact-1",
  "contractName": "TestGovernance",
  "sourceName": "contracts/test/TestGovernance.sol",
  "abi": [
    {
      "inputs": [
        {
          "internalType": "uint256",
          "name": "perpetualIndex",
          "type": "uint256"
        },
        {
          "internalType": "address",
          "name": "keeper",
          "type": "address"
        }
      ],
      "name": "addAMMKeeper",
      "outputs": [],
      "stateMutability": "nonpayable",
      "type": "function"
    },
    {
      "inputs": [
        {
          "internalType": "uint256",
          "name": "perpetualIndex",
          "type": "uint256"
        }
      ],
      "name": "ammMaxLeverage",
      "outputs": [
        {
          "internalType": "int256",
          "name": "",
          "type": "int256"
        }
      ],
      "stateMutability": "view",
      "type": "function"
    },
    {
      "inputs": [],
      "name": "checkIn",
      "outputs": [],
      "stateMutability": "nonpayable",
      "type": "function"
    },
    {
      "inputs": [],
      "name": "claimOperator",
      "outputs": [],
      "stateMutability": "nonpayable",
      "type": "function"
    },
    {
      "inputs": [
        {
          "internalType": "uint256",
          "name": "perpetualIndex",
          "type": "uint256"
        }
      ],
      "name": "closeSlippageFactor",
      "outputs": [
        {
          "internalType": "int256",
          "name": "",
          "type": "int256"
        }
      ],
      "stateMutability": "view",
      "type": "function"
    },
    {
      "inputs": [
        {
          "internalType": "int256",
          "name": "amount",
          "type": "int256"
        }
      ],
      "name": "donateInsuranceFund",
      "outputs": [],
      "stateMutability": "nonpayable",
      "type": "function"
    },
    {
      "inputs": [
        {
          "internalType": "uint256",
          "name": "perpetualIndex",
          "type": "uint256"
        },
        {
          "internalType": "int256",
          "name": "settlementPrice",
          "type": "int256"
        }
      ],
      "name": "forceToSetEmergencyState",
      "outputs": [],
      "stateMutability": "nonpayable",
      "type": "function"
    },
    {
      "inputs": [
        {
          "internalType": "uint256",
          "name": "perpetualIndex",
          "type": "uint256"
        }
      ],
      "name": "fundingRateFactor",
      "outputs": [
        {
          "internalType": "int256",
          "name": "",
          "type": "int256"
        }
      ],
      "stateMutability": "view",
      "type": "function"
    },
    {
      "inputs": [
        {
          "internalType": "uint256",
          "name": "perpetualIndex",
          "type": "uint256"
        }
      ],
      "name": "fundingRateLimit",
      "outputs": [
        {
          "internalType": "int256",
          "name": "",
          "type": "int256"
        }
      ],
      "stateMutability": "view",
      "type": "function"
    },
    {
      "inputs": [
        {
          "internalType": "uint256",
          "name": "perpetualIndex",
          "type": "uint256"
        },
        {
          "internalType": "address",
          "name": "trader",
          "type": "address"
        }
      ],
      "name": "getMarginAccount",
      "outputs": [
        {
          "internalType": "int256",
          "name": "cash",
          "type": "int256"
        },
        {
          "internalType": "int256",
          "name": "position",
          "type": "int256"
        }
      ],
      "stateMutability": "view",
      "type": "function"
    },
    {
      "inputs": [],
      "name": "getOperator",
      "outputs": [
        {
          "internalType": "address",
          "name": "",
          "type": "address"
        }
      ],
      "stateMutability": "view",
      "type": "function"
    },
    {
      "inputs": [],
      "name": "getPoolCash",
      "outputs": [
        {
          "internalType": "int256",
          "name": "poolCash",
          "type": "int256"
        }
      ],
      "stateMutability": "view",
      "type": "function"
    },
    {
      "inputs": [
        {
          "internalType": "uint256",
          "name": "perpetualIndex",
          "type": "uint256"
        }
      ],
      "name": "halfSpread",
      "outputs": [
        {
          "internalType": "int256",
          "name": "",
          "type": "int256"
        }
      ],
      "stateMutability": "view",
      "type": "function"
    },
    {
      "inputs": [
        {
          "internalType": "uint256",
          "name": "perpetualIndex",
          "type": "uint256"
        }
      ],
      "name": "initialMarginRate",
      "outputs": [
        {
          "internalType": "int256",
          "name": "",
          "type": "int256"
        }
      ],
      "stateMutability": "view",
      "type": "function"
    },
    {
      "inputs": [
        {
          "internalType": "address",
          "name": "oracle",
          "type": "address"
        },
        {
          "internalType": "int256[9]",
          "name": "baseParams",
          "type": "int256[9]"
        },
        {
          "internalType": "int256[8]",
          "name": "riskParams",
          "type": "int256[8]"
        },
        {
          "internalType": "int256[8]",
          "name": "minRiskParamValues",
          "type": "int256[8]"
        },
        {
          "internalType": "int256[8]",
          "name": "maxRiskParamValues",
          "type": "int256[8]"
        }
      ],
      "name": "initializeParameters",
      "outputs": [],
      "stateMutability": "nonpayable",
      "type": "function"
    },
    {
      "inputs": [
        {
          "internalType": "uint256",
          "name": "perpetualIndex",
          "type": "uint256"
        }
      ],
      "name": "insuranceFundRate",
      "outputs": [
        {
          "internalType": "int256",
          "name": "",
          "type": "int256"
        }
      ],
      "stateMutability": "view",
      "type": "function"
    },
    {
      "inputs": [],
      "name": "isFastCreationEnabled",
      "outputs": [
        {
          "internalType": "bool",
          "name": "",
          "type": "bool"
        }
      ],
      "stateMutability": "view",
      "type": "function"
    },
    {
      "inputs": [
        {
          "internalType": "uint256",
          "name": "perpetualIndex",
          "type": "uint256"
        }
      ],
      "name": "keeperGasReward",
      "outputs": [
        {
          "internalType": "int256",
          "name": "",
          "type": "int256"
        }
      ],
      "stateMutability": "view",
      "type": "function"
    },
    {
      "inputs": [
        {
          "internalType": "uint256",
          "name": "perpetualIndex",
          "type": "uint256"
        }
      ],
      "name": "liquidationPenaltyRate",
      "outputs": [
        {
          "internalType": "int256",
          "name": "",
          "type": "int256"
        }
      ],
      "stateMutability": "view",
      "type": "function"
    },
    {
      "inputs": [
        {
          "internalType": "uint256",
          "name": "perpetualIndex",
          "type": "uint256"
        }
      ],
      "name": "lpFeeRate",
      "outputs": [
        {
          "internalType": "int256",
          "name": "",
          "type": "int256"
        }
      ],
      "stateMutability": "view",
      "type": "function"
    },
    {
      "inputs": [
        {
          "internalType": "uint256",
          "name": "perpetualIndex",
          "type": "uint256"
        }
      ],
      "name": "maintenanceMarginRate",
      "outputs": [
        {
          "internalType": "int256",
          "name": "",
          "type": "int256"
        }
      ],
      "stateMutability": "view",
      "type": "function"
    },
    {
      "inputs": [
        {
          "internalType": "uint256",
          "name": "perpetualIndex",
          "type": "uint256"
        }
      ],
      "name": "maxClosePriceDiscount",
      "outputs": [
        {
          "internalType": "int256",
          "name": "",
          "type": "int256"
        }
      ],
      "stateMutability": "view",
      "type": "function"
    },
    {
      "inputs": [
        {
          "internalType": "uint256",
          "name": "perpetualIndex",
          "type": "uint256"
        }
      ],
      "name": "openSlippageFactor",
      "outputs": [
        {
          "internalType": "int256",
          "name": "",
          "type": "int256"
        }
      ],
      "stateMutability": "view",
      "type": "function"
    },
    {
      "inputs": [],
      "name": "operatorExpiration",
      "outputs": [
        {
          "internalType": "uint256",
          "name": "",
          "type": "uint256"
        }
      ],
      "stateMutability": "view",
      "type": "function"
    },
    {
      "inputs": [
        {
          "internalType": "uint256",
          "name": "perpetualIndex",
          "type": "uint256"
        }
      ],
      "name": "operatorFeeRate",
      "outputs": [
        {
          "internalType": "int256",
          "name": "",
          "type": "int256"
        }
      ],
      "stateMutability": "view",
      "type": "function"
    },
    {
      "inputs": [
        {
          "internalType": "uint256",
          "name": "perpetualIndex",
          "type": "uint256"
        }
      ],
      "name": "oracle",
      "outputs": [
        {
          "internalType": "address",
          "name": "",
          "type": "address"
        }
      ],
      "stateMutability": "view",
      "type": "function"
    },
    {
      "inputs": [
        {
          "internalType": "uint256",
          "name": "perpetualIndex",
          "type": "uint256"
        }
      ],
      "name": "referralRebateRate",
      "outputs": [
        {
          "internalType": "int256",
          "name": "",
          "type": "int256"
        }
      ],
      "stateMutability": "view",
      "type": "function"
    },
    {
      "inputs": [
        {
          "internalType": "uint256",
          "name": "perpetualIndex",
          "type": "uint256"
        },
        {
          "internalType": "address",
          "name": "keeper",
          "type": "address"
        }
      ],
      "name": "removeAMMKeeper",
      "outputs": [],
      "stateMutability": "nonpayable",
      "type": "function"
    },
    {
      "inputs": [],
      "name": "revokeOperator",
      "outputs": [],
      "stateMutability": "nonpayable",
      "type": "function"
    },
    {
      "inputs": [
        {
          "internalType": "address",
          "name": "collateralToken",
          "type": "address"
        },
        {
          "internalType": "uint256",
          "name": "collateralDecimals",
          "type": "uint256"
        }
      ],
      "name": "setCollateralToken",
      "outputs": [],
      "stateMutability": "nonpayable",
      "type": "function"
    },
    {
      "inputs": [
        {
          "internalType": "address",
          "name": "creator",
          "type": "address"
        }
      ],
      "name": "setCreator",
      "outputs": [],
      "stateMutability": "nonpayable",
      "type": "function"
    },
    {
      "inputs": [
        {
          "internalType": "uint256",
          "name": "perpetualIndex",
          "type": "uint256"
        }
      ],
      "name": "setEmergencyState",
      "outputs": [],
      "stateMutability": "nonpayable",
      "type": "function"
    },
    {
      "inputs": [
        {
          "internalType": "address",
          "name": "governor",
          "type": "address"
        }
      ],
      "name": "setGovernor",
      "outputs": [],
      "stateMutability": "nonpayable",
      "type": "function"
    },
    {
      "inputs": [
        {
          "internalType": "int256[4]",
          "name": "params",
          "type": "int256[4]"
        }
      ],
      "name": "setLiquidityPoolParameter",
      "outputs": [],
      "stateMutability": "nonpayable",
      "type": "function"
    },
    {
      "inputs": [
        {
          "internalType": "uint256",
          "name": "perpetualIndex",
          "type": "uint256"
        },
        {
          "internalType": "address",
          "name": "trader",
          "type": "address"
        },
        {
          "internalType": "int256",
          "name": "cash",
          "type": "int256"
        },
        {
          "internalType": "int256",
          "name": "position",
          "type": "int256"
        }
      ],
      "name": "setMarginAccount",
      "outputs": [],
      "stateMutability": "nonpayable",
      "type": "function"
    },
    {
      "inputs": [
        {
          "internalType": "uint256",
          "name": "timestamp",
          "type": "uint256"
        }
      ],
      "name": "setOperatorExpiration",
      "outputs": [],
      "stateMutability": "nonpayable",
      "type": "function"
    },
    {
      "inputs": [
        {
          "internalType": "address",
          "name": "operator",
          "type": "address"
        }
      ],
      "name": "setOperatorNoAuth",
      "outputs": [],
      "stateMutability": "nonpayable",
      "type": "function"
    },
    {
      "inputs": [
        {
          "internalType": "uint256",
          "name": "perpetualIndex",
          "type": "uint256"
        },
        {
          "internalType": "address",
          "name": "oracle",
          "type": "address"
        }
      ],
      "name": "setOracle",
      "outputs": [],
      "stateMutability": "nonpayable",
      "type": "function"
    },
    {
      "inputs": [
        {
          "internalType": "uint256",
          "name": "perpetualIndex",
          "type": "uint256"
        },
        {
          "internalType": "int256[9]",
          "name": "baseParams",
          "type": "int256[9]"
        }
      ],
      "name": "setPerpetualBaseParameter",
      "outputs": [],
      "stateMutability": "nonpayable",
      "type": "function"
    },
    {
      "inputs": [
        {
          "internalType": "uint256",
          "name": "perpetualIndex",
          "type": "uint256"
        },
        {
          "internalType": "int256[8]",
          "name": "riskParams",
          "type": "int256[8]"
        },
        {
          "internalType": "int256[8]",
          "name": "minRiskParamValues",
          "type": "int256[8]"
        },
        {
          "internalType": "int256[8]",
          "name": "maxRiskParamValues",
          "type": "int256[8]"
        }
      ],
      "name": "setPerpetualRiskParameter",
      "outputs": [],
      "stateMutability": "nonpayable",
      "type": "function"
    },
    {
      "inputs": [
        {
          "internalType": "int256",
          "name": "poolCash",
          "type": "int256"
        }
      ],
      "name": "setPoolCash",
      "outputs": [],
      "stateMutability": "nonpayable",
      "type": "function"
    },
    {
      "inputs": [
        {
          "internalType": "uint256",
          "name": "perpetualIndex",
          "type": "uint256"
        },
        {
          "internalType": "enum PerpetualState",
          "name": "_state",
          "type": "uint8"
        }
      ],
      "name": "setState",
      "outputs": [],
      "stateMutability": "nonpayable",
      "type": "function"
    },
    {
      "inputs": [
        {
          "internalType": "uint256",
          "name": "perpetualIndex",
          "type": "uint256"
        },
        {
          "internalType": "int256",
          "name": "amount",
          "type": "int256"
        }
      ],
      "name": "setTotalCollateral",
      "outputs": [],
      "stateMutability": "nonpayable",
      "type": "function"
    },
    {
      "inputs": [
        {
          "internalType": "uint256",
          "name": "perpetualIndex",
          "type": "uint256"
        }
      ],
      "name": "settlementPrice",
      "outputs": [
        {
          "internalType": "int256",
          "name": "",
          "type": "int256"
        },
        {
          "internalType": "uint256",
          "name": "",
          "type": "uint256"
        }
      ],
      "stateMutability": "view",
      "type": "function"
    },
    {
      "inputs": [
        {
          "internalType": "uint256",
          "name": "perpetualIndex",
          "type": "uint256"
        }
      ],
      "name": "state",
      "outputs": [
        {
          "internalType": "enum PerpetualState",
          "name": "",
          "type": "uint8"
        }
      ],
      "stateMutability": "view",
      "type": "function"
    },
    {
      "inputs": [
        {
          "internalType": "address",
          "name": "newOperator",
          "type": "address"
        }
      ],
      "name": "transferOperator",
      "outputs": [],
      "stateMutability": "nonpayable",
      "type": "function"
    },
    {
      "inputs": [
        {
          "internalType": "uint256",
          "name": "perpetualIndex",
          "type": "uint256"
        },
        {
          "internalType": "int256[8]",
          "name": "riskParams",
          "type": "int256[8]"
        }
      ],
      "name": "updatePerpetualRiskParameter",
      "outputs": [],
      "stateMutability": "nonpayable",
      "type": "function"
    }
  ],
  "bytecode": "0x608060405234801561001057600080fd5b506121bc806100206000396000f3fe608060405234801561001057600080fd5b50600436106103135760003560e01c80637d3ba80f116101a7578063c023796a116100ee578063d7ceb0de11610097578063e263a3a511610071578063e263a3a514610667578063e7f43c681461067a578063f95d49361461068257610313565b8063d7ceb0de1461062e578063da13412814610641578063db3411fb1461065457610313565b8063d4e28a12116100c8578063d4e28a1214610600578063d54e65fb14610613578063d73b5e421461061b57610313565b8063c023796a146105c7578063c42cf535146105da578063cfd3b875146105ed57610313565b80639832bf6311610150578063acd639841161012a578063acd6398414610599578063b674759c146105ac578063b9b42e69146105b457610313565b80639832bf63146105605780639db316b814610573578063a05515301461058657610313565b80638fc5f2d6116101815780638fc5f2d6146105275780639482d9f31461053a578063965ff5bc1461054d57610313565b80637d3ba80f146104d357806382ab3ac7146104f45780638874f6281461050757610313565b80633f5160181161026b578063580818e311610214578063675a0aa5116101ee578063675a0aa51461049a578063686e51fd146104ad5780636fca8b99146104c057610313565b8063580818e314610461578063625dee971461047457806366415e171461048757610313565b80634f416d24116102455780634f416d24146104335780635402f6a91461043b57806354a6302e1461044e57610313565b80633f516018146103fa578063432ff04d1461040d578063468c89c31461042057610313565b80632716418f116102cd57806338597530116102a757806338597530146103b25780633a162adb146103c55780633e4f49e6146103da57610313565b80632716418f1461037957806329605e771461038c5780633523c4fb1461039f57610313565b80630789b701116102fe5780630789b7011461034b57806317c675691461035e578063183ff0851461037157610313565b80629f22ae14610318578062f2e4601461032d575b600080fd5b61032b610326366004611ee7565b610695565b005b610335610805565b604051610342919061208f565b60405180910390f35b610335610359366004611ecf565b61080b565b61032b61036c366004611ee7565b610823565b61032b61092f565b610335610387366004611ecf565b610a2a565b61032b61039a366004611df3565b610a3f565b6103356103ad366004611ecf565b610be6565b61032b6103c0366004611ecf565b610bfb565b6103cd610f2c565b6040516103429190612070565b6103ed6103e8366004611ecf565b610f3a565b604051610342919061207b565b61032b610408366004611df3565b610f52565b61033561041b366004611ecf565b610f92565b61033561042e366004611ecf565b610fa7565b610335610fbc565b61032b610449366004611df3565b610fc2565b61032b61045c366004611ecf565b610ffa565b61032b61046f366004611ee7565b610fff565b610335610482366004611ecf565b611152565b61032b610495366004612018565b611167565b61032b6104a8366004611fc2565b61117c565b61032b6104bb366004611ecf565b611282565b61032b6104ce366004611ecf565b611287565b6104e66104e1366004611ee7565b61130f565b604051610342929190612098565b610335610502366004611ecf565b611342565b61051a610515366004611ecf565b611357565b604051610342919061205c565b610335610535366004611ecf565b61137a565b610335610548366004611ecf565b61138f565b61032b61055b366004611fe6565b6113a4565b61033561056e366004611ecf565b6113d7565b61032b610581366004611ea9565b6113ec565b6104e6610594366004611ecf565b6114e6565b61032b6105a7366004611f12565b611503565b61032b611537565b6103356105c2366004611ecf565b611618565b6103356105d5366004611ecf565b61162d565b61032b6105e8366004611df3565b611642565b6103356105fb366004611ecf565b611671565b61032b61060e366004611f4c565b611686565b61032b611793565b61032b610629366004612018565b6117fb565b61032b61063c366004611e80565b611ad9565b61033561064f366004611ecf565b611b46565b610335610662366004611ecf565b611b5b565b61032b610675366004611e14565b611b70565b61051a611c3b565b61032b610690366004611f70565b611c4c565b60006106a16033611d70565b90506001600160a01b0381161561070e57806001600160a01b03166106c4611d9a565b6001600160a01b0316146107095760405162461bcd60e51b81526004018080602001828103825260218152602001806121456021913960400191505060405180910390fd5b610767565b6036546001600160a01b0316610722611d9a565b6001600160a01b0316146107675760405162461bcd60e51b81526004018080602001828103825260218152602001806121666021913960400191505060405180910390fd5b604080517f48ea454c00000000000000000000000000000000000000000000000000000000815260336004820152602481018590526001600160a01b0384166044820152905173__$c7a04b010d7229ccbe3c515e91d1303780$__916348ea454c916064808301926000929190829003018186803b1580156107e857600080fd5b505af41580156107fc573d6000803e3d6000fd5b50505050505050565b603c5490565b6000818152604360205260409020601901545b919050565b6036546001600160a01b0316610837611d9a565b6001600160a01b031614610892576040805162461bcd60e51b815260206004820152601860248201527f6f6e6c7920676f7665726e6f7220697320616c6c6f7765640000000000000000604482015290519081900360640190fd5b604080517f38dbaf7100000000000000000000000000000000000000000000000000000000815260336004820152602481018490526001600160a01b0383166044820152905173__$c7a04b010d7229ccbe3c515e91d1303780$__916338dbaf71916064808301926000929190829003018186803b15801561091357600080fd5b505af4158015610927573d6000803e3d6000fd5b505050505050565b6109396033611d70565b6001600160a01b031661094a611d9a565b6001600160a01b0316146109a5576040805162461bcd60e51b815260206004820152601860248201527f6f6e6c79206f70657261746f7220697320616c6c6f7765640000000000000000604482015290519081900360640190fd5b604080517f5980576b00000000000000000000000000000000000000000000000000000000815260336004820152905173__$c7a04b010d7229ccbe3c515e91d1303780$__91635980576b916024808301926000929190829003018186803b158015610a1057600080fd5b505af4158015610a24573d6000803e3d6000fd5b50505050565b6000908152604360205260409020600e015490565b6000610a4b6033611d70565b90506001600160a01b03811615610ab857806001600160a01b0316610a6e611d9a565b6001600160a01b031614610ab35760405162461bcd60e51b81526004018080602001828103825260218152602001806121456021913960400191505060405180910390fd5b610b11565b6036546001600160a01b0316610acc611d9a565b6001600160a01b031614610b115760405162461bcd60e51b81526004018080602001828103825260218152602001806121666021913960400191505060405180910390fd5b6001600160a01b038216610b6c576040805162461bcd60e51b815260206004820152601c60248201527f6e6577206f70657261746f72206973207a65726f206164647265737300000000604482015290519081900360640190fd5b604080517f4f28feeb000000000000000000000000000000000000000000000000000000008152603360048201526001600160a01b0384166024820152905173__$c7a04b010d7229ccbe3c515e91d1303780$__91634f28feeb916044808301926000929190829003018186803b15801561091357600080fd5b60009081526043602052604090206010015490565b60408051634b071c5760e11b815260336004820152426024820181905291516001929173__$c7a04b010d7229ccbe3c515e91d1303780$__9163960e38ae91604480820192600092909190829003018186803b158015610c5a57600080fd5b505af4158015610c6e573d6000803e3d6000fd5b5050604080516304c43a9960e31b8152603360048201528515156024820152905173__$c7a04b010d7229ccbe3c515e91d1303780$__9350632621d4c892506044808301926000929190829003018186803b158015610ccc57600080fd5b505af4158015610ce0573d6000803e3d6000fd5b50505050600019831415610d7657604080517fa99d455a00000000000000000000000000000000000000000000000000000000815260336004820152905173__$c7a04b010d7229ccbe3c515e91d1303780$__9163a99d455a916024808301926000929190829003018186803b158015610d5957600080fd5b505af4158015610d6d573d6000803e3d6000fd5b50505050610eda565b6000838152604360209081526040808320600181015482517fd1cc9976000000000000000000000000000000000000000000000000000000008152925191946101009091046001600160a01b03169363d1cc9976936004808201949293918390030190829087803b158015610dea57600080fd5b505af1158015610dfe573d6000803e3d6000fd5b505050506040513d6020811015610e1457600080fd5b5051610e67576040805162461bcd60e51b815260206004820152601460248201527f707265726571756973697465206e6f74206d6574000000000000000000000000604482015290519081900360640190fd5b604080516301ec95cd60e51b81526033600482015260248101869052905173__$c7a04b010d7229ccbe3c515e91d1303780$__91633d92b9a0916044808301926000929190829003018186803b158015610ec057600080fd5b505af4158015610ed4573d6000803e3d6000fd5b50505050505b60408051634c86902960e11b815260336004820152905173__$c7a04b010d7229ccbe3c515e91d1303780$__9163990d2052916024808301926000929190829003018186803b1580156107e857600080fd5b603354610100900460ff1690565b60009081526043602052604090206001015460ff1690565b603380546001600160a01b0390921662010000027fffffffffffffffffffff0000000000000000000000000000000000000000ffff909216919091179055565b60009081526043602052604090206013015490565b6000908152604360205260409020601f015490565b603f5490565b6034805473ffffffffffffffffffffffffffffffffffffffff19166001600160a01b0392909216919091179055426201518001603f55565b603f55565b600061100b6033611d70565b90506001600160a01b0381161561107857806001600160a01b031661102e611d9a565b6001600160a01b0316146110735760405162461bcd60e51b81526004018080602001828103825260218152602001806121456021913960400191505060405180910390fd5b6110d1565b6036546001600160a01b031661108c611d9a565b6001600160a01b0316146110d15760405162461bcd60e51b81526004018080602001828103825260218152602001806121666021913960400191505060405180910390fd5b604080517fc01fa80800000000000000000000000000000000000000000000000000000000815260336004820152602481018590526001600160a01b0384166044820152905173__$c7a04b010d7229ccbe3c515e91d1303780$__9163c01fa808916064808301926000929190829003018186803b1580156107e857600080fd5b60009081526043602052604090206016015490565b60009182526043602052604090912060020155565b6036546001600160a01b0316611190611d9a565b6001600160a01b0316146111eb576040805162461bcd60e51b815260206004820152601860248201527f6f6e6c7920676f7665726e6f7220697320616c6c6f7765640000000000000000604482015290519081900360640190fd5b6040517ff20d68960000000000000000000000000000000000000000000000000000000081526033600482018181526024830185905273__$c7a04b010d7229ccbe3c515e91d1303780$__9263f20d6896929186918691906044018261012080828437600081840152601f19601f820116905080830192505050935050505060006040518083038186803b15801561091357600080fd5b603c55565b6040517fd767897e00000000000000000000000000000000000000000000000000000000815273__$c7a04b010d7229ccbe3c515e91d1303780$__9063d767897e906112dc90603390339086906004016120a6565b60006040518083038186803b1580156112f457600080fd5b505af4158015611308573d6000803e3d6000fd5b5050505050565b60009182526043602090815260408084206001600160a01b03909316845260349092019052902080546001909101549091565b60009081526043602052604090206012015490565b60009081526043602052604090206001015461010090046001600160a01b031690565b60009081526043602052604090206011015490565b6000908152604360205260409020600c015490565b600082815260436020526040902060019081018054839260ff19909116908360048111156113ce57fe5b02179055505050565b6000908152604360205260409020601c015490565b6036546001600160a01b0316611400611d9a565b6001600160a01b03161461145b576040805162461bcd60e51b815260206004820152601860248201527f6f6e6c7920676f7665726e6f7220697320616c6c6f7765640000000000000000604482015290519081900360640190fd5b6040517fe3e2898600000000000000000000000000000000000000000000000000000000815260336004820181815273__$c7a04b010d7229ccbe3c515e91d1303780$__9263e3e289869291859160240182608080828437600081840152601f19601f8201169050808301925050509250505060006040518083038186803b1580156112f457600080fd5b600090815260436020526040902060088101546009909101549091565b60009384526043602090815260408086206001600160a01b0390951686526034909401905291909220918255600190910155565b6115416033611d70565b6001600160a01b0316611552611d9a565b6001600160a01b0316146115ad576040805162461bcd60e51b815260206004820152601860248201527f6f6e6c79206f70657261746f7220697320616c6c6f7765640000000000000000604482015290519081900360640190fd5b604080517fbdc5e84900000000000000000000000000000000000000000000000000000000815260336004820152905173__$c7a04b010d7229ccbe3c515e91d1303780$__9163bdc5e849916024808301926000929190829003018186803b158015610a1057600080fd5b60009081526043602052604090206022015490565b6000908152604360205260409020600f015490565b6036805473ffffffffffffffffffffffffffffffffffffffff19166001600160a01b0392909216919091179055565b6000908152604360205260409020600d015490565b6116906033611d70565b6001600160a01b03166116a1611d9a565b6001600160a01b0316146116fc576040805162461bcd60e51b815260206004820152601860248201527f6f6e6c79206f70657261746f7220697320616c6c6f7765640000000000000000604482015290519081900360640190fd5b6040517f697c66880000000000000000000000000000000000000000000000000000000081526033600482018181526024830185905273__$c7a04b010d7229ccbe3c515e91d1303780$__9263697c6688929186918691906044018261010080828437600081840152601f19601f820116905080830192505050935050505060006040518083038186803b15801561091357600080fd5b73__$c7a04b010d7229ccbe3c515e91d1303780$__63299cbfda60336117b7611d9a565b6040518363ffffffff1660e01b815260040180838152602001826001600160a01b031681526020019250505060006040518083038186803b158015610a1057600080fd5b60408051634b071c5760e11b815260336004820152426024820181905291516001929173__$c7a04b010d7229ccbe3c515e91d1303780$__9163960e38ae91604480820192600092909190829003018186803b15801561185a57600080fd5b505af415801561186e573d6000803e3d6000fd5b5050604080516304c43a9960e31b8152603360048201528515156024820152905173__$c7a04b010d7229ccbe3c515e91d1303780$__9350632621d4c892506044808301926000929190829003018186803b1580156118cc57600080fd5b505af41580156118e0573d6000803e3d6000fd5b50506036546001600160a01b031691506118fa9050611d9a565b6001600160a01b031614611955576040805162461bcd60e51b815260206004820152601860248201527f6f6e6c7920676f7665726e6f7220697320616c6c6f7765640000000000000000604482015290519081900360640190fd5b60008312156119ab576040805162461bcd60e51b815260206004820152601960248201527f6e6567617469766520736574746c656d656e7420707269636500000000000000604482015290519081900360640190fd5b6119b3611d9e565b5060408051808201825284815242602080830191825260008881526043909152838120835160068201819055925160078201819055600480830194909455600582015584516301ec95cd60e51b815260339381019390935260248301899052935192939273__$c7a04b010d7229ccbe3c515e91d1303780$__92633d92b9a0926044808301939192829003018186803b158015611a4f57600080fd5b505af4158015611a63573d6000803e3d6000fd5b505060408051634c86902960e11b815260336004820152905173__$c7a04b010d7229ccbe3c515e91d1303780$__955063990d2052945060248083019450600093509091829003018186803b158015611abb57600080fd5b505af4158015611acf573d6000803e3d6000fd5b5050505050505050565b6040517f5fc2e39200000000000000000000000000000000000000000000000000000000815273__$aa0386c1927da8134897d9c67341209872$__90635fc2e39290611b2e90603390869086906004016120a6565b60006040518083038186803b15801561091357600080fd5b60009081526043602052604090206025015490565b60009081526043602052604090206028015490565b6042546000818152604360205260409081902090517f445ab49400000000000000000000000000000000000000000000000000000000815273__$74e2ba5c0a92ec095c0918ea877fa9275f$__9263445ab49492611bdd929091908a908a908a908a908a906004016120c5565b60006040518083038186803b158015611bf557600080fd5b505af4158015611c09573d6000803e3d6000fd5b50506042805460009081526043602052604090206001908101805460ff19166002179055815401905550505050505050565b6000611c476033611d70565b905090565b6036546001600160a01b0316611c60611d9a565b6001600160a01b031614611cbb576040805162461bcd60e51b815260206004820152601860248201527f6f6e6c7920676f7665726e6f7220697320616c6c6f7765640000000000000000604482015290519081900360640190fd5b603373__$c7a04b010d7229ccbe3c515e91d1303780$__6338a825ba9091868686866040518663ffffffff1660e01b81526004018086815260200185815260200184600860200280828437600083820152601f01601f191690910190508361010080828437600083820152601f01601f191690910190508261010080828437600081840152601f19601f8201169050808301925050509550505050505060006040518083038186803b158015611abb57600080fd5b600081600c0154421115611d85576000611d94565b60018201546001600160a01b03165b92915050565b3390565b604051806040016040528060008152602001600081525090565b80356001600160a01b038116811461081e57600080fd5b806101008101831015611d9457600080fd5b806101208101831015611d9457600080fd5b600060208284031215611e04578081fd5b611e0d82611db8565b9392505050565b60008060008060006104408688031215611e2c578081fd5b611e3586611db8565b9450611e448760208801611de1565b9350611e54876101408801611dcf565b9250611e64876102408801611dcf565b9150611e74876103408801611dcf565b90509295509295909350565b60008060408385031215611e92578182fd5b611e9b83611db8565b946020939093013593505050565b600060808284031215611eba578081fd5b82608083011115611ec9578081fd5b50919050565b600060208284031215611ee0578081fd5b5035919050565b60008060408385031215611ef9578182fd5b82359150611f0960208401611db8565b90509250929050565b60008060008060808587031215611f27578384fd5b84359350611f3760208601611db8565b93969395505050506040820135916060013590565b6000806101208385031215611f5f578182fd5b82359150611f098460208501611dcf565b6000806000806103208587031215611f86578384fd5b84359350611f978660208701611dcf565b9250611fa7866101208701611dcf565b9150611fb7866102208701611dcf565b905092959194509250565b6000806101408385031215611fd5578182fd5b82359150611f098460208501611de1565b60008060408385031215611ff8578182fd5b8235915060208301356005811061200d578182fd5b809150509250929050565b6000806040838503121561202a578182fd5b50508035926020909101359150565b8060005b6008811015610a2457813584526020938401939091019060010161203d565b6001600160a01b0391909116815260200190565b901515815260200190565b602081016005831061208957fe5b91905290565b90815260200190565b918252602082015260400190565b9283526001600160a01b03919091166020830152604082015260600190565b87815260208082018890526001600160a01b0387166040830152610480820190606083018760005b600981101561210a578135835291830191908301906001016120ed565b5050505061211c610180830186612039565b61212a610280830185612039565b612138610380830184612039565b9897505050505050505056fe63616e206f6e6c7920626520696e69746961746564206279206f70657261746f7263616e206f6e6c7920626520696e6974696174656420627920676f7665726e6f72a2646970667358221220c38f7ba0261dff064bf01086c270f47dc03763ddab33d438f93fbb338b28a7a364736f6c63430007040033",
  "linkReferences": {
    "contracts/module/CollateralModule.sol": {
      "CollateralModule": [
        {
          "length": 20,
          "start": 6945
        }
      ]
    },
    "contracts/module/LiquidityPoolModule.sol": {
      "LiquidityPoolModule": [
        {
          "length": 20,
          "start": 1999
        },
        {
          "length": 20,
          "start": 2298
        },
        {
          "length": 20,
          "start": 2551
        },
        {
          "length": 20,
          "start": 3021
        },
        {
          "length": 20,
          "start": 3136
        },
        {
          "length": 20,
          "start": 3249
        },
        {
          "length": 20,
          "start": 3392
        },
        {
          "length": 20,
          "start": 3751
        },
        {
          "length": 20,
          "start": 3859
        },
        {
          "length": 20,
          "start": 4409
        },
        {
          "length": 20,
          "start": 4675
        },
        {
          "length": 20,
          "start": 4815
        },
        {
          "length": 20,
          "start": 5292
        },
        {
          "length": 20,
          "start": 5631
        },
        {
          "length": 20,
          "start": 5972
        },
        {
          "length": 20,
          "start": 6069
        },
        {
          "length": 20,
          "start": 6208
        },
        {
          "length": 20,
          "start": 6321
        },
        {
          "length": 20,
          "start": 6713
        },
        {
          "length": 20,
          "start": 6814
        },
        {
          "length": 20,
          "start": 7391
        }
      ]
    },
    "contracts/module/PerpetualModule.sol": {
      "PerpetualModule": [
        {
          "length": 20,
          "start": 7114
        }
      ]
    }
  },
  "deployedLinkReferences": {
    "contracts/module/CollateralModule.sol": {
      "CollateralModule": [
        {
          "length": 20,
          "start": 6913
        }
      ]
    },
    "contracts/module/LiquidityPoolModule.sol": {
      "LiquidityPoolModule": [
        {
          "length": 20,
          "start": 1967
        },
        {
          "length": 20,
          "start": 2266
        },
        {
          "length": 20,
          "start": 2519
        },
        {
          "length": 20,
          "start": 2989
        },
        {
          "length": 20,
          "start": 3104
        },
        {
          "length": 20,
          "start": 3217
        },
        {
          "length": 20,
          "start": 3360
        },
        {
          "length": 20,
          "start": 3719
        },
        {
          "length": 20,
          "start": 3827
        },
        {
          "length": 20,
          "start": 4377
        },
        {
          "length": 20,
          "start": 4643
        },
        {
          "length": 20,
          "start": 4783
        },
        {
          "length": 20,
          "start": 5260
        },
        {
          "length": 20,
          "start": 5599
        },
        {
          "length": 20,
          "start": 5940
        },
        {
          "length": 20,
          "start": 6037
        },
        {
          "length": 20,
          "start": 6176
        },
        {
          "length": 20,
          "start": 6289
        },
        {
          "length": 20,
          "start": 6681
        },
        {
          "length": 20,
          "start": 6782
        },
        {
          "length": 20,
          "start": 7359
        }
      ]
    },
    "contracts/module/PerpetualModule.sol": {
      "PerpetualModule": [
        {
          "length": 20,
          "start": 7082
        }
      ]
    }
  }
}