{
  "_format": "hh-sol-artifact-1",
  "contractName": "Tracer",
  "sourceName": "contracts/factory/Tracer.sol",
  "abi": [
    {
      "inputs": [
        {
          "internalType": "address",
          "name": "trader",
          "type": "address"
        },
        {
          "internalType": "uint256",
          "name": "perpetualIndex",
          "type": "uint256"
        }
      ],
      "name": "activatePerpetualFor",
      "outputs": [
        {
          "internalType": "bool",
          "name": "",
          "type": "bool"
        }
      ],
      "stateMutability": "nonpayable",
      "type": "function"
    },
    {
      "inputs": [
        {
          "internalType": "address",
          "name": "trader",
          "type": "address"
        },
        {
          "internalType": "uint256",
          "name": "perpetualIndex",
          "type": "uint256"
        }
      ],
      "name": "deactivatePerpetualFor",
      "outputs": [
        {
          "internalType": "bool",
          "name": "",
          "type": "bool"
        }
      ],
      "stateMutability": "nonpayable",
      "type": "function"
    },
    {
      "inputs": [
        {
          "internalType": "address",
          "name": "trader",
          "type": "address"
        }
      ],
      "name": "getActiveLiquidityPoolCountOf",
      "outputs": [
        {
          "internalType": "uint256",
          "name": "",
          "type": "uint256"
        }
      ],
      "stateMutability": "view",
      "type": "function"
    },
    {
      "inputs": [],
      "name": "getLiquidityPoolCount",
      "outputs": [
        {
          "internalType": "uint256",
          "name": "",
          "type": "uint256"
        }
      ],
      "stateMutability": "view",
      "type": "function"
    },
    {
      "inputs": [
        {
          "internalType": "address",
          "name": "operator",
          "type": "address"
        }
      ],
      "name": "getOwnedLiquidityPoolsCountOf",
      "outputs": [
        {
          "internalType": "uint256",
          "name": "",
          "type": "uint256"
        }
      ],
      "stateMutability": "view",
      "type": "function"
    },
    {
      "inputs": [
        {
          "internalType": "address",
          "name": "trader",
          "type": "address"
        },
        {
          "internalType": "address",
          "name": "liquidityPool",
          "type": "address"
        },
        {
          "internalType": "uint256",
          "name": "perpetualIndex",
          "type": "uint256"
        }
      ],
      "name": "isActiveLiquidityPoolOf",
      "outputs": [
        {
          "internalType": "bool",
          "name": "",
          "type": "bool"
        }
      ],
      "stateMutability": "view",
      "type": "function"
    },
    {
      "inputs": [
        {
          "internalType": "address",
          "name": "liquidityPool",
          "type": "address"
        }
      ],
      "name": "isLiquidityPool",
      "outputs": [
        {
          "internalType": "bool",
          "name": "",
          "type": "bool"
        }
      ],
      "stateMutability": "view",
      "type": "function"
    },
    {
      "inputs": [
        {
          "internalType": "address",
          "name": "trader",
          "type": "address"
        },
        {
          "internalType": "uint256",
          "name": "begin",
          "type": "uint256"
        },
        {
          "internalType": "uint256",
          "name": "end",
          "type": "uint256"
        }
      ],
      "name": "listActiveLiquidityPoolsOf",
      "outputs": [
        {
          "components": [
            {
              "internalType": "address",
              "name": "liquidityPool",
              "type": "address"
            },
            {
              "internalType": "uint256",
              "name": "perpetualIndex",
              "type": "uint256"
            }
          ],
          "internalType": "struct Tracer.PerpetualUID[]",
          "name": "result",
          "type": "tuple[]"
        }
      ],
      "stateMutability": "view",
      "type": "function"
    },
    {
      "inputs": [
        {
          "internalType": "address",
          "name": "operator",
          "type": "address"
        },
        {
          "internalType": "uint256",
          "name": "begin",
          "type": "uint256"
        },
        {
          "internalType": "uint256",
          "name": "end",
          "type": "uint256"
        }
      ],
      "name": "listLiquidityPoolOwnedBy",
      "outputs": [
        {
          "internalType": "address[]",
          "name": "result",
          "type": "address[]"
        }
      ],
      "stateMutability": "view",
      "type": "function"
    },
    {
      "inputs": [
        {
          "internalType": "uint256",
          "name": "begin",
          "type": "uint256"
        },
        {
          "internalType": "uint256",
          "name": "end",
          "type": "uint256"
        }
      ],
      "name": "listLiquidityPools",
      "outputs": [
        {
          "internalType": "address[]",
          "name": "result",
          "type": "address[]"
        }
      ],
      "stateMutability": "view",
      "type": "function"
    },
    {
      "inputs": [
        {
          "internalType": "address",
          "name": "liquidityPool",
          "type": "address"
        },
        {
          "internalType": "address",
          "name": "operator",
          "type": "address"
        }
      ],
      "name": "registerOperatorOfLiquidityPool",
      "outputs": [],
      "stateMutability": "nonpayable",
      "type": "function"
    }
  ],
  "bytecode": "0x608060405234801561001057600080fd5b50610c92806100206000396000f3fe608060405234801561001057600080fd5b50600436106100c85760003560e01c806372d27c9d11610081578063c1d27fe71161005b578063c1d27fe714610199578063e85455d7146101ac578063f81d65f1146101bf576100c8565b806372d27c9d1461015e5780637a5f0ffd1461017e578063ade7960114610186576100c8565b806325b7f04f116100b257806325b7f04f1461010b578063439adb781461012b578063625fdca31461014b576100c8565b8062dc415a146100cd5780631fe5ee88146100e2575b600080fd5b6100e06100db3660046109e2565b6101d2565b005b6100f56100f0366004610a78565b610295565b6040516101029190610b3a565b60405180910390f35b61011e610119366004610a78565b6103e7565b6040516101029190610aed565b61013e610139366004610a4f565b610415565b6040516101029190610b92565b61011e610159366004610aaa565b6104e6565b61017161016c3660046109c8565b6104f4565b6040516101029190610c31565b61017161051d565b61013e610194366004610a14565b61052e565b6101716101a73660046109c8565b61055b565b61013e6101ba3660046109c8565b61057c565b61013e6101cd366004610a4f565b610588565b6101db3361057c565b6102005760405162461bcd60e51b81526004016101f790610bd4565b60405180910390fd5b6001600160a01b03808316600090815260056020908152604080832054909316808352600490915291902061023590846105da565b506001600160a01b038216600090815260046020526040902061025890846105ef565b50506001600160a01b039182166000908152600560205260409020805473ffffffffffffffffffffffffffffffffffffffff191691909216179055565b60608282116102b65760405162461bcd60e51b81526004016101f790610b9d565b6001600160a01b03841660009081526003602052604081206102d790610604565b90508084106102e657506103e0565b60006102f2848361060f565b90506102fe8186610625565b67ffffffffffffffff8111801561031457600080fd5b5060405190808252806020026020018201604052801561034e57816020015b61033b61099a565b8152602001906001900390816103335790505b509250845b818110156103dc576001600160a01b0387166000908152600360205260408120600291906103819084610682565b81526020808201929092526040908101600020815180830190925280546001600160a01b031682526001015491810191909152846103bf8389610625565b815181106103c957fe5b6020908102919091010152600101610353565b5050505b9392505050565b6001600160a01b038316600090815260046020526040902060609061040d90848461068e565b949350505050565b60006104203361057c565b61043c5760405162461bcd60e51b81526004016101f790610bd4565b600061044833846107a2565b6000818152600260205260409020549091506001600160a01b03166104ba576040805180820182523381526020808201868152600085815260029092529290209051815473ffffffffffffffffffffffffffffffffffffffff19166001600160a01b0390911617815590516001909101555b6001600160a01b03841660009081526003602052604090206104dc90826107d5565b9150505b92915050565b60606103e06000848461068e565b6001600160a01b038116600090815260036020526040812061051590610604565b90505b919050565b60006105296000610604565b905090565b600061040d61053d84846107a2565b6001600160a01b0386166000908152600360205260409020906107e1565b6001600160a01b038116600090815260046020526040812061051590610604565b600061051581836107ed565b60006105933361057c565b6105af5760405162461bcd60e51b81526004016101f790610bd4565b6103e06105bc33846107a2565b6001600160a01b038516600090815260036020526040902090610802565b60006103e0836001600160a01b03841661080a565b60006103e0836001600160a01b0384166108d0565b60006105158261091a565b600081831061061e57816103e0565b5090919050565b60008282111561067c576040805162461bcd60e51b815260206004820152601e60248201527f536166654d6174683a207375627472616374696f6e206f766572666c6f770000604482015290519081900360640190fd5b50900390565b60006103e0838361091e565b60608282116106e4576040805162461bcd60e51b815260206004820152601e60248201527f626567696e2073686f756c64206265206c6f776572207468616e20656e640000604482015290519081900360640190fd5b60006106ef85610604565b90508084106106fe57506103e0565b600061070a848361060f565b90506107168186610625565b67ffffffffffffffff8111801561072c57600080fd5b50604051908082528060200260200182016040528015610756578160200160208202803683370190505b509250845b818110156103dc5761076d8782610682565b846107788389610625565b8151811061078257fe5b6001600160a01b039092166020928302919091019091015260010161075b565b600082826040516020016107b7929190610acb565b60405160208183030381529060405280519060200120905092915050565b60006103e083836108d0565b60006103e08383610982565b60006103e0836001600160a01b038416610982565b60006103e083835b600081815260018301602052604081205480156108c6578354600019808301919081019060009087908390811061083d57fe5b906000526020600020015490508087600001848154811061085a57fe5b60009182526020808320909101929092558281526001898101909252604090209084019055865487908061088a57fe5b600190038181906000526020600020016000905590558660010160008781526020019081526020016000206000905560019450505050506104e0565b60009150506104e0565b60006108dc8383610982565b610912575081546001818101845560008481526020808220909301849055845484825282860190935260409020919091556104e0565b5060006104e0565b5490565b815460009082106109605760405162461bcd60e51b8152600401808060200182810382526022815260200180610c3b6022913960400191505060405180910390fd5b82600001828154811061096f57fe5b9060005260206000200154905092915050565b60009081526001919091016020526040902054151590565b604080518082019091526000808252602082015290565b80356001600160a01b038116811461051857600080fd5b6000602082840312156109d9578081fd5b6103e0826109b1565b600080604083850312156109f4578081fd5b6109fd836109b1565b9150610a0b602084016109b1565b90509250929050565b600080600060608486031215610a28578081fd5b610a31846109b1565b9250610a3f602085016109b1565b9150604084013590509250925092565b60008060408385031215610a61578182fd5b610a6a836109b1565b946020939093013593505050565b600080600060608486031215610a8c578283fd5b610a95846109b1565b95602085013595506040909401359392505050565b60008060408385031215610abc578182fd5b50508035926020909101359150565b60609290921b6bffffffffffffffffffffffff19168252601482015260340190565b6020808252825182820181905260009190848201906040850190845b81811015610b2e5783516001600160a01b031683529284019291840191600101610b09565b50909695505050505050565b602080825282518282018190526000919060409081850190868401855b82811015610b8557815180516001600160a01b03168552860151868501529284019290850190600101610b57565b5091979650505050505050565b901515815260200190565b6020808252601e908201527f626567696e2073686f756c64206265206c6f776572207468616e20656e640000604082015260600190565b60208082526025908201527f63616c6c6572206973206e6f74206c697175696469747920706f6f6c20696e7360408201527f74616e6365000000000000000000000000000000000000000000000000000000606082015260800190565b9081526020019056fe456e756d657261626c655365743a20696e646578206f7574206f6620626f756e6473a2646970667358221220aa07b972fe1f09529ca54aa1103beea46570c0416d820f0fb32f12824e36a54764736f6c63430007040033",
  "linkReferences": {},
  "deployedLinkReferences": {}
}