{
  "_format": "hh-sol-artifact-1",
  "contractName": "Governance",
  "sourceName": "contracts/Governance.sol",
  "abi": [
    {
      "inputs": [
        {
          "internalType": "uint256",
          "name": "perpetualIndex",
          "type": "uint256"
        },
        {
          "internalType": "address",
          "name": "keeper",
          "type": "address"
        }
      ],
      "name": "addAMMKeeper",
      "outputs": [],
      "stateMutability": "nonpayable",
      "type": "function"
    },
    {
      "inputs": [],
      "name": "checkIn",
      "outputs": [],
      "stateMutability": "nonpayable",
      "type": "function"
    },
    {
      "inputs": [],
      "name": "claimOperator",
      "outputs": [],
      "stateMutability": "nonpayable",
      "type": "function"
    },
    {
      "inputs": [
        {
          "internalType": "uint256",
          "name": "perpetualIndex",
          "type": "uint256"
        },
        {
          "internalType": "int256",
          "name": "settlementPrice",
          "type": "int256"
        }
      ],
      "name": "forceToSetEmergencyState",
      "outputs": [],
      "stateMutability": "nonpayable",
      "type": "function"
    },
    {
      "inputs": [
        {
          "internalType": "uint256",
          "name": "perpetualIndex",
          "type": "uint256"
        },
        {
          "internalType": "address",
          "name": "keeper",
          "type": "address"
        }
      ],
      "name": "removeAMMKeeper",
      "outputs": [],
      "stateMutability": "nonpayable",
      "type": "function"
    },
    {
      "inputs": [],
      "name": "revokeOperator",
      "outputs": [],
      "stateMutability": "nonpayable",
      "type": "function"
    },
    {
      "inputs": [
        {
          "internalType": "uint256",
          "name": "perpetualIndex",
          "type": "uint256"
        }
      ],
      "name": "setEmergencyState",
      "outputs": [],
      "stateMutability": "nonpayable",
      "type": "function"
    },
    {
      "inputs": [
        {
          "internalType": "int256[4]",
          "name": "params",
          "type": "int256[4]"
        }
      ],
      "name": "setLiquidityPoolParameter",
      "outputs": [],
      "stateMutability": "nonpayable",
      "type": "function"
    },
    {
      "inputs": [
        {
          "internalType": "uint256",
          "name": "perpetualIndex",
          "type": "uint256"
        },
        {
          "internalType": "address",
          "name": "oracle",
          "type": "address"
        }
      ],
      "name": "setOracle",
      "outputs": [],
      "stateMutability": "nonpayable",
      "type": "function"
    },
    {
      "inputs": [
        {
          "internalType": "uint256",
          "name": "perpetualIndex",
          "type": "uint256"
        },
        {
          "internalType": "int256[9]",
          "name": "baseParams",
          "type": "int256[9]"
        }
      ],
      "name": "setPerpetualBaseParameter",
      "outputs": [],
      "stateMutability": "nonpayable",
      "type": "function"
    },
    {
      "inputs": [
        {
          "internalType": "uint256",
          "name": "perpetualIndex",
          "type": "uint256"
        },
        {
          "internalType": "int256[8]",
          "name": "riskParams",
          "type": "int256[8]"
        },
        {
          "internalType": "int256[8]",
          "name": "minRiskParamValues",
          "type": "int256[8]"
        },
        {
          "internalType": "int256[8]",
          "name": "maxRiskParamValues",
          "type": "int256[8]"
        }
      ],
      "name": "setPerpetualRiskParameter",
      "outputs": [],
      "stateMutability": "nonpayable",
      "type": "function"
    },
    {
      "inputs": [
        {
          "internalType": "address",
          "name": "newOperator",
          "type": "address"
        }
      ],
      "name": "transferOperator",
      "outputs": [],
      "stateMutability": "nonpayable",
      "type": "function"
    },
    {
      "inputs": [
        {
          "internalType": "uint256",
          "name": "perpetualIndex",
          "type": "uint256"
        },
        {
          "internalType": "int256[8]",
          "name": "riskParams",
          "type": "int256[8]"
        }
      ],
      "name": "updatePerpetualRiskParameter",
      "outputs": [],
      "stateMutability": "nonpayable",
      "type": "function"
    }
  ],
  "bytecode": "0x608060405234801561001057600080fd5b5061154d806100206000396000f3fe608060405234801561001057600080fd5b50600436106100de5760003560e01c8063675a0aa51161008c578063d4e28a1211610066578063d4e28a12146101fb578063d54e65fb1461021e578063d73b5e4214610226578063f95d493614610249576100de565b8063675a0aa5146101b45780639db316b8146101d7578063b674759c146101f3576100de565b806329605e77116100bd57806329605e7714610145578063385975301461016b578063580818e314610188576100de565b80629f22ae146100e357806317c6756914610111578063183ff0851461013d575b600080fd5b61010f600480360360408110156100f957600080fd5b50803590602001356001600160a01b0316610278565b005b61010f6004803603604081101561012757600080fd5b50803590602001356001600160a01b03166103e8565b61010f6104f4565b61010f6004803603602081101561015b57600080fd5b50356001600160a01b03166105ef565b61010f6004803603602081101561018157600080fd5b5035610796565b61010f6004803603604081101561019e57600080fd5b50803590602001356001600160a01b0316610ac7565b61010f60048036036101408110156101cb57600080fd5b50803590602001610c1a565b61010f600480360360808110156101ed57600080fd5b50610d20565b61010f610e35565b61010f600480360361012081101561021257600080fd5b50803590602001610f16565b61010f611023565b61010f6004803603604081101561023c57600080fd5b508035906020013561108b565b61010f600480360361032081101561026057600080fd5b50803590602081019061012081019061022001611369565b6000610284603361148d565b90506001600160a01b038116156102f157806001600160a01b03166102a76114b7565b6001600160a01b0316146102ec5760405162461bcd60e51b81526004018080602001828103825260218152602001806114d66021913960400191505060405180910390fd5b61034a565b6036546001600160a01b03166103056114b7565b6001600160a01b03161461034a5760405162461bcd60e51b81526004018080602001828103825260218152602001806114f76021913960400191505060405180910390fd5b604080517f48ea454c00000000000000000000000000000000000000000000000000000000815260336004820152602481018590526001600160a01b0384166044820152905173__$c7a04b010d7229ccbe3c515e91d1303780$__916348ea454c916064808301926000929190829003018186803b1580156103cb57600080fd5b505af41580156103df573d6000803e3d6000fd5b50505050505050565b6036546001600160a01b03166103fc6114b7565b6001600160a01b031614610457576040805162461bcd60e51b815260206004820152601860248201527f6f6e6c7920676f7665726e6f7220697320616c6c6f7765640000000000000000604482015290519081900360640190fd5b604080517f38dbaf7100000000000000000000000000000000000000000000000000000000815260336004820152602481018490526001600160a01b0383166044820152905173__$c7a04b010d7229ccbe3c515e91d1303780$__916338dbaf71916064808301926000929190829003018186803b1580156104d857600080fd5b505af41580156104ec573d6000803e3d6000fd5b505050505050565b6104fe603361148d565b6001600160a01b031661050f6114b7565b6001600160a01b03161461056a576040805162461bcd60e51b815260206004820152601860248201527f6f6e6c79206f70657261746f7220697320616c6c6f7765640000000000000000604482015290519081900360640190fd5b604080517f5980576b00000000000000000000000000000000000000000000000000000000815260336004820152905173__$c7a04b010d7229ccbe3c515e91d1303780$__91635980576b916024808301926000929190829003018186803b1580156105d557600080fd5b505af41580156105e9573d6000803e3d6000fd5b50505050565b60006105fb603361148d565b90506001600160a01b0381161561066857806001600160a01b031661061e6114b7565b6001600160a01b0316146106635760405162461bcd60e51b81526004018080602001828103825260218152602001806114d66021913960400191505060405180910390fd5b6106c1565b6036546001600160a01b031661067c6114b7565b6001600160a01b0316146106c15760405162461bcd60e51b81526004018080602001828103825260218152602001806114f76021913960400191505060405180910390fd5b6001600160a01b03821661071c576040805162461bcd60e51b815260206004820152601c60248201527f6e6577206f70657261746f72206973207a65726f206164647265737300000000604482015290519081900360640190fd5b604080517f4f28feeb000000000000000000000000000000000000000000000000000000008152603360048201526001600160a01b0384166024820152905173__$c7a04b010d7229ccbe3c515e91d1303780$__91634f28feeb916044808301926000929190829003018186803b1580156104d857600080fd5b60408051634b071c5760e11b815260336004820152426024820181905291516001929173__$c7a04b010d7229ccbe3c515e91d1303780$__9163960e38ae91604480820192600092909190829003018186803b1580156107f557600080fd5b505af4158015610809573d6000803e3d6000fd5b5050604080516304c43a9960e31b8152603360048201528515156024820152905173__$c7a04b010d7229ccbe3c515e91d1303780$__9350632621d4c892506044808301926000929190829003018186803b15801561086757600080fd5b505af415801561087b573d6000803e3d6000fd5b5050505060001983141561091157604080517fa99d455a00000000000000000000000000000000000000000000000000000000815260336004820152905173__$c7a04b010d7229ccbe3c515e91d1303780$__9163a99d455a916024808301926000929190829003018186803b1580156108f457600080fd5b505af4158015610908573d6000803e3d6000fd5b50505050610a75565b6000838152604360209081526040808320600181015482517fd1cc9976000000000000000000000000000000000000000000000000000000008152925191946101009091046001600160a01b03169363d1cc9976936004808201949293918390030190829087803b15801561098557600080fd5b505af1158015610999573d6000803e3d6000fd5b505050506040513d60208110156109af57600080fd5b5051610a02576040805162461bcd60e51b815260206004820152601460248201527f707265726571756973697465206e6f74206d6574000000000000000000000000604482015290519081900360640190fd5b604080516301ec95cd60e51b81526033600482015260248101869052905173__$c7a04b010d7229ccbe3c515e91d1303780$__91633d92b9a0916044808301926000929190829003018186803b158015610a5b57600080fd5b505af4158015610a6f573d6000803e3d6000fd5b50505050505b60408051634c86902960e11b815260336004820152905173__$c7a04b010d7229ccbe3c515e91d1303780$__9163990d2052916024808301926000929190829003018186803b1580156103cb57600080fd5b6000610ad3603361148d565b90506001600160a01b03811615610b4057806001600160a01b0316610af66114b7565b6001600160a01b031614610b3b5760405162461bcd60e51b81526004018080602001828103825260218152602001806114d66021913960400191505060405180910390fd5b610b99565b6036546001600160a01b0316610b546114b7565b6001600160a01b031614610b995760405162461bcd60e51b81526004018080602001828103825260218152602001806114f76021913960400191505060405180910390fd5b604080517fc01fa80800000000000000000000000000000000000000000000000000000000815260336004820152602481018590526001600160a01b0384166044820152905173__$c7a04b010d7229ccbe3c515e91d1303780$__9163c01fa808916064808301926000929190829003018186803b1580156103cb57600080fd5b6036546001600160a01b0316610c2e6114b7565b6001600160a01b031614610c89576040805162461bcd60e51b815260206004820152601860248201527f6f6e6c7920676f7665726e6f7220697320616c6c6f7765640000000000000000604482015290519081900360640190fd5b6040517ff20d68960000000000000000000000000000000000000000000000000000000081526033600482018181526024830185905273__$c7a04b010d7229ccbe3c515e91d1303780$__9263f20d6896929186918691906044018261012080828437600081840152601f19601f820116905080830192505050935050505060006040518083038186803b1580156104d857600080fd5b6036546001600160a01b0316610d346114b7565b6001600160a01b031614610d8f576040805162461bcd60e51b815260206004820152601860248201527f6f6e6c7920676f7665726e6f7220697320616c6c6f7765640000000000000000604482015290519081900360640190fd5b6040517fe3e2898600000000000000000000000000000000000000000000000000000000815260336004820181815273__$c7a04b010d7229ccbe3c515e91d1303780$__9263e3e289869291859160240182608080828437600081840152601f19601f8201169050808301925050509250505060006040518083038186803b158015610e1a57600080fd5b505af4158015610e2e573d6000803e3d6000fd5b5050505050565b610e3f603361148d565b6001600160a01b0316610e506114b7565b6001600160a01b031614610eab576040805162461bcd60e51b815260206004820152601860248201527f6f6e6c79206f70657261746f7220697320616c6c6f7765640000000000000000604482015290519081900360640190fd5b604080517fbdc5e84900000000000000000000000000000000000000000000000000000000815260336004820152905173__$c7a04b010d7229ccbe3c515e91d1303780$__9163bdc5e849916024808301926000929190829003018186803b1580156105d557600080fd5b610f20603361148d565b6001600160a01b0316610f316114b7565b6001600160a01b031614610f8c576040805162461bcd60e51b815260206004820152601860248201527f6f6e6c79206f70657261746f7220697320616c6c6f7765640000000000000000604482015290519081900360640190fd5b6040517f697c66880000000000000000000000000000000000000000000000000000000081526033600482018181526024830185905273__$c7a04b010d7229ccbe3c515e91d1303780$__9263697c6688929186918691906044018261010080828437600081840152601f19601f820116905080830192505050935050505060006040518083038186803b1580156104d857600080fd5b73__$c7a04b010d7229ccbe3c515e91d1303780$__63299cbfda60336110476114b7565b6040518363ffffffff1660e01b815260040180838152602001826001600160a01b031681526020019250505060006040518083038186803b1580156105d557600080fd5b60408051634b071c5760e11b815260336004820152426024820181905291516001929173__$c7a04b010d7229ccbe3c515e91d1303780$__9163960e38ae91604480820192600092909190829003018186803b1580156110ea57600080fd5b505af41580156110fe573d6000803e3d6000fd5b5050604080516304c43a9960e31b8152603360048201528515156024820152905173__$c7a04b010d7229ccbe3c515e91d1303780$__9350632621d4c892506044808301926000929190829003018186803b15801561115c57600080fd5b505af4158015611170573d6000803e3d6000fd5b50506036546001600160a01b0316915061118a90506114b7565b6001600160a01b0316146111e5576040805162461bcd60e51b815260206004820152601860248201527f6f6e6c7920676f7665726e6f7220697320616c6c6f7765640000000000000000604482015290519081900360640190fd5b600083121561123b576040805162461bcd60e51b815260206004820152601960248201527f6e6567617469766520736574746c656d656e7420707269636500000000000000604482015290519081900360640190fd5b6112436114bb565b5060408051808201825284815242602080830191825260008881526043909152838120835160068201819055925160078201819055600480830194909455600582015584516301ec95cd60e51b815260339381019390935260248301899052935192939273__$c7a04b010d7229ccbe3c515e91d1303780$__92633d92b9a0926044808301939192829003018186803b1580156112df57600080fd5b505af41580156112f3573d6000803e3d6000fd5b505060408051634c86902960e11b815260336004820152905173__$c7a04b010d7229ccbe3c515e91d1303780$__955063990d2052945060248083019450600093509091829003018186803b15801561134b57600080fd5b505af415801561135f573d6000803e3d6000fd5b5050505050505050565b6036546001600160a01b031661137d6114b7565b6001600160a01b0316146113d8576040805162461bcd60e51b815260206004820152601860248201527f6f6e6c7920676f7665726e6f7220697320616c6c6f7765640000000000000000604482015290519081900360640190fd5b603373__$c7a04b010d7229ccbe3c515e91d1303780$__6338a825ba9091868686866040518663ffffffff1660e01b81526004018086815260200185815260200184600860200280828437600083820152601f01601f191690910190508361010080828437600083820152601f01601f191690910190508261010080828437600081840152601f19601f8201169050808301925050509550505050505060006040518083038186803b15801561134b57600080fd5b600081600c01544211156114a25760006114b1565b60018201546001600160a01b03165b92915050565b3390565b60405180604001604052806000815260200160008152509056fe63616e206f6e6c7920626520696e69746961746564206279206f70657261746f7263616e206f6e6c7920626520696e6974696174656420627920676f7665726e6f72a2646970667358221220e9c63f730b1b5a709e462d7b130b719a9b3914a8bff44013308a4eb07fcede9f64736f6c63430007040033",
  "linkReferences": {
    "contracts/module/LiquidityPoolModule.sol": {
      "LiquidityPoolModule": [
        {
          "length": 20,
          "start": 946
        },
        {
          "length": 20,
          "start": 1215
        },
        {
          "length": 20,
          "start": 1468
        },
        {
          "length": 20,
          "start": 1917
        },
        {
          "length": 20,
          "start": 2011
        },
        {
          "length": 20,
          "start": 2124
        },
        {
          "length": 20,
          "start": 2267
        },
        {
          "length": 20,
          "start": 2626
        },
        {
          "length": 20,
          "start": 2734
        },
        {
          "length": 20,
          "start": 3073
        },
        {
          "length": 20,
          "start": 3297
        },
        {
          "length": 20,
          "start": 3552
        },
        {
          "length": 20,
          "start": 3837
        },
        {
          "length": 20,
          "start": 4068
        },
        {
          "length": 20,
          "start": 4165
        },
        {
          "length": 20,
          "start": 4304
        },
        {
          "length": 20,
          "start": 4417
        },
        {
          "length": 20,
          "start": 4809
        },
        {
          "length": 20,
          "start": 4910
        },
        {
          "length": 20,
          "start": 5116
        }
      ]
    }
  },
  "deployedLinkReferences": {
    "contracts/module/LiquidityPoolModule.sol": {
      "LiquidityPoolModule": [
        {
          "length": 20,
          "start": 914
        },
        {
          "length": 20,
          "start": 1183
        },
        {
          "length": 20,
          "start": 1436
        },
        {
          "length": 20,
          "start": 1885
        },
        {
          "length": 20,
          "start": 1979
        },
        {
          "length": 20,
          "start": 2092
        },
        {
          "length": 20,
          "start": 2235
        },
        {
          "length": 20,
          "start": 2594
        },
        {
          "length": 20,
          "start": 2702
        },
        {
          "length": 20,
          "start": 3041
        },
        {
          "length": 20,
          "start": 3265
        },
        {
          "length": 20,
          "start": 3520
        },
        {
          "length": 20,
          "start": 3805
        },
        {
          "length": 20,
          "start": 4036
        },
        {
          "length": 20,
          "start": 4133
        },
        {
          "length": 20,
          "start": 4272
        },
        {
          "length": 20,
          "start": 4385
        },
        {
          "length": 20,
          "start": 4777
        },
        {
          "length": 20,
          "start": 4878
        },
        {
          "length": 20,
          "start": 5084
        }
      ]
    }
  }
}