{
  "_format": "hh-sol-artifact-1",
  "contractName": "ChainlinkAdaptor",
  "sourceName": "contracts/oracle/chainlink/ChainlinkAdaptor.sol",
  "abi": [
    {
      "anonymous": false,
      "inputs": [
        {
          "indexed": true,
          "internalType": "bytes32",
          "name": "role",
          "type": "bytes32"
        },
        {
          "indexed": true,
          "internalType": "bytes32",
          "name": "previousAdminRole",
          "type": "bytes32"
        },
        {
          "indexed": true,
          "internalType": "bytes32",
          "name": "newAdminRole",
          "type": "bytes32"
        }
      ],
      "name": "RoleAdminChanged",
      "type": "event"
    },
    {
      "anonymous": false,
      "inputs": [
        {
          "indexed": true,
          "internalType": "bytes32",
          "name": "role",
          "type": "bytes32"
        },
        {
          "indexed": true,
          "internalType": "address",
          "name": "account",
          "type": "address"
        },
        {
          "indexed": true,
          "internalType": "address",
          "name": "sender",
          "type": "address"
        }
      ],
      "name": "RoleGranted",
      "type": "event"
    },
    {
      "anonymous": false,
      "inputs": [
        {
          "indexed": true,
          "internalType": "bytes32",
          "name": "role",
          "type": "bytes32"
        },
        {
          "indexed": true,
          "internalType": "address",
          "name": "account",
          "type": "address"
        },
        {
          "indexed": true,
          "internalType": "address",
          "name": "sender",
          "type": "address"
        }
      ],
      "name": "RoleRevoked",
      "type": "event"
    },
    {
      "anonymous": false,
      "inputs": [],
      "name": "SetTerminated",
      "type": "event"
    },
    {
      "inputs": [],
      "name": "DEFAULT_ADMIN_ROLE",
      "outputs": [
        {
          "internalType": "bytes32",
          "name": "",
          "type": "bytes32"
        }
      ],
      "stateMutability": "view",
      "type": "function"
    },
    {
      "inputs": [],
      "name": "chainlink",
      "outputs": [
        {
          "internalType": "address",
          "name": "",
          "type": "address"
        }
      ],
      "stateMutability": "view",
      "type": "function"
    },
    {
      "inputs": [],
      "name": "collateral",
      "outputs": [
        {
          "internalType": "string",
          "name": "",
          "type": "string"
        }
      ],
      "stateMutability": "view",
      "type": "function"
    },
    {
      "inputs": [
        {
          "internalType": "bytes32",
          "name": "role",
          "type": "bytes32"
        }
      ],
      "name": "getRoleAdmin",
      "outputs": [
        {
          "internalType": "bytes32",
          "name": "",
          "type": "bytes32"
        }
      ],
      "stateMutability": "view",
      "type": "function"
    },
    {
      "inputs": [
        {
          "internalType": "bytes32",
          "name": "role",
          "type": "bytes32"
        },
        {
          "internalType": "uint256",
          "name": "index",
          "type": "uint256"
        }
      ],
      "name": "getRoleMember",
      "outputs": [
        {
          "internalType": "address",
          "name": "",
          "type": "address"
        }
      ],
      "stateMutability": "view",
      "type": "function"
    },
    {
      "inputs": [
        {
          "internalType": "bytes32",
          "name": "role",
          "type": "bytes32"
        }
      ],
      "name": "getRoleMemberCount",
      "outputs": [
        {
          "internalType": "uint256",
          "name": "",
          "type": "uint256"
        }
      ],
      "stateMutability": "view",
      "type": "function"
    },
    {
      "inputs": [
        {
          "internalType": "bytes32",
          "name": "role",
          "type": "bytes32"
        },
        {
          "internalType": "address",
          "name": "account",
          "type": "address"
        }
      ],
      "name": "grantRole",
      "outputs": [],
      "stateMutability": "nonpayable",
      "type": "function"
    },
    {
      "inputs": [
        {
          "internalType": "bytes32",
          "name": "role",
          "type": "bytes32"
        },
        {
          "internalType": "address",
          "name": "account",
          "type": "address"
        }
      ],
      "name": "hasRole",
      "outputs": [
        {
          "internalType": "bool",
          "name": "",
          "type": "bool"
        }
      ],
      "stateMutability": "view",
      "type": "function"
    },
    {
      "inputs": [
        {
          "internalType": "address",
          "name": "chainlink_",
          "type": "address"
        },
        {
          "internalType": "string",
          "name": "collateral_",
          "type": "string"
        },
        {
          "internalType": "string",
          "name": "underlyingAsset_",
          "type": "string"
        }
      ],
      "name": "initialize",
      "outputs": [],
      "stateMutability": "nonpayable",
      "type": "function"
    },
    {
      "inputs": [],
      "name": "isMarketClosed",
      "outputs": [
        {
          "internalType": "bool",
          "name": "",
          "type": "bool"
        }
      ],
      "stateMutability": "pure",
      "type": "function"
    },
    {
      "inputs": [],
      "name": "isTerminated",
      "outputs": [
        {
          "internalType": "bool",
          "name": "",
          "type": "bool"
        }
      ],
      "stateMutability": "view",
      "type": "function"
    },
    {
      "inputs": [],
      "name": "priceTWAPLong",
      "outputs": [
        {
          "internalType": "int256",
          "name": "",
          "type": "int256"
        },
        {
          "internalType": "uint256",
          "name": "",
          "type": "uint256"
        }
      ],
      "stateMutability": "nonpayable",
      "type": "function"
    },
    {
      "inputs": [],
      "name": "priceTWAPShort",
      "outputs": [
        {
          "internalType": "int256",
          "name": "",
          "type": "int256"
        },
        {
          "internalType": "uint256",
          "name": "",
          "type": "uint256"
        }
      ],
      "stateMutability": "nonpayable",
      "type": "function"
    },
    {
      "inputs": [
        {
          "internalType": "bytes32",
          "name": "role",
          "type": "bytes32"
        },
        {
          "internalType": "address",
          "name": "account",
          "type": "address"
        }
      ],
      "name": "renounceRole",
      "outputs": [],
      "stateMutability": "nonpayable",
      "type": "function"
    },
    {
      "inputs": [
        {
          "internalType": "bytes32",
          "name": "role",
          "type": "bytes32"
        },
        {
          "internalType": "address",
          "name": "account",
          "type": "address"
        }
      ],
      "name": "revokeRole",
      "outputs": [],
      "stateMutability": "nonpayable",
      "type": "function"
    },
    {
      "inputs": [],
      "name": "setTerminated",
      "outputs": [],
      "stateMutability": "nonpayable",
      "type": "function"
    },
    {
      "inputs": [],
      "name": "underlyingAsset",
      "outputs": [
        {
          "internalType": "string",
          "name": "",
          "type": "string"
        }
      ],
      "stateMutability": "view",
      "type": "function"
    },
    {
      "inputs": [],
      "name": "updatePrice",
      "outputs": [],
      "stateMutability": "nonpayable",
      "type": "function"
    }
  ],
  "bytecode": "0x608060405234801561001057600080fd5b50611192806100206000396000f3fe608060405234801561001057600080fd5b50600436106101365760003560e01c80639c3feeb7116100b2578063ca15c87311610081578063d1cc997611610066578063d1cc99761461046b578063d547741f14610473578063d8dfeb451461049f57610136565b8063ca15c87314610446578063ccbdbee21461046357610136565b80639c3feeb714610426578063a217fddf1461042e578063a720d89c14610436578063b7e86c1f1461043e57610136565b8063673a7e28116101095780639010d07c116100ee5780639010d07c1461026a57806390657147146102a957806391d14854146103e657610136565b8063673a7e28146101e55780637158da7c146101ed57610136565b80630e222f9b1461013b578063248a9ca31461015c5780632f2ff15d1461018b57806336568abe146101b9575b600080fd5b6101436104a7565b6040805192835260208301919091528051918290030190f35b6101796004803603602081101561017257600080fd5b50356104be565b60408051918252519081900360200190f35b6101b7600480360360408110156101a157600080fd5b50803590602001356001600160a01b03166104d3565b005b6101b7600480360360408110156101cf57600080fd5b50803590602001356001600160a01b031661053f565b6101b76105a0565b6101f5610708565b6040805160208082528351818301528351919283929083019185019080838360005b8381101561022f578181015183820152602001610217565b50505050905090810190601f16801561025c5780820380516001836020036101000a031916815260200191505b509250505060405180910390f35b61028d6004803603604081101561028057600080fd5b5080359060200135610796565b604080516001600160a01b039092168252519081900360200190f35b6101b7600480360360608110156102bf57600080fd5b6001600160a01b0382351691908101906040810160208201356401000000008111156102ea57600080fd5b8201836020820111156102fc57600080fd5b8035906020019184600183028401116401000000008311171561031e57600080fd5b91908080601f016020809104026020016040519081016040528093929190818152602001838380828437600092019190915250929594936020810193503591505064010000000081111561037157600080fd5b82018360208201111561038357600080fd5b803590602001918460018302840111640100000000831117156103a557600080fd5b91908080601f0160208091040260200160405190810160405280939291908181526020018383808284376000920191909152509295506107b7945050505050565b610412600480360360408110156103fc57600080fd5b50803590602001356001600160a01b0316610877565b604080519115158252519081900360200190f35b61028d61088f565b61017961089e565b6101b76108a3565b610412610993565b6101796004803603602081101561045c57600080fd5b5035610998565b6101436109af565b6104126109c2565b6101b76004803603604081101561048957600080fd5b50803590602001356001600160a01b03166109cb565b6101f5610a24565b6000806104b26105a0565b50506066546067549091565b60009081526033602052604090206002015490565b6000828152603360205260409020600201546104f6906104f1610a7f565b610877565b6105315760405162461bcd60e51b815260040180806020018281038252602f8152602001806110a1602f913960400191505060405180910390fd5b61053b8282610a83565b5050565b610547610a7f565b6001600160a01b0316816001600160a01b0316146105965760405162461bcd60e51b815260040180806020018281038252602f81526020018061112e602f913960400191505060405180910390fd5b61053b8282610aec565b60685460ff1661070657606560009054906101000a90046001600160a01b03166001600160a01b031663feaf968c6040518163ffffffff1660e01b815260040160a06040518083038186803b1580156105f857600080fd5b505afa15801561060c573d6000803e3d6000fd5b505050506040513d60a081101561062257600080fd5b50602081015160609091015160675560668190556000128015610683575060685460ff610100909104811660120316600a0a7f7fffffffffffffffffffffffffffffffffffffffffffffffffffffffffffffff8161067c57fe5b0560665413155b801561069157506000606754115b6106e2576040805162461bcd60e51b815260206004820152601d60248201527f696e76616c696420636861696e6c696e6b206f7261636c652064617461000000604482015290519081900360640190fd5b606860019054906101000a900460ff1660120360ff16600a0a606654026066819055505b565b606a805460408051602060026001851615610100026000190190941693909304601f8101849004840282018401909252818152929183018282801561078e5780601f106107635761010080835404028352916020019161078e565b820191906000526020600020905b81548152906001019060200180831161077157829003601f168201915b505050505081565b60008281526033602052604081206107ae9083610b55565b90505b92915050565b600054610100900460ff16806107d057506107d0610b61565b806107de575060005460ff16155b6108195760405162461bcd60e51b815260040180806020018281038252602e815260200180611100602e913960400191505060405180910390fd5b600054610100900460ff16158015610844576000805460ff1961ff0019909116610100171660011790555b61084c610b72565b610854610b72565b61085f848484610c14565b8015610871576000805461ff00191690555b50505050565b60008281526033602052604081206107ae9083610dfd565b6065546001600160a01b031681565b600081565b60685460ff16156108fb576040805162461bcd60e51b815260206004820152601260248201527f616c7265616479207465726d696e617465640000000000000000000000000000604482015290519081900360640190fd5b61090860006104f1610a7f565b61095b576040805162461bcd60e51b8152602060048083019190915260248201527f726f6c6500000000000000000000000000000000000000000000000000000000604482015290519081900360640190fd5b6068805460ff191660011790556040517f29967151f11bb81f25b833c76de22c3a7e0fd713f0c8394b150cff45a5f8bb4290600090a1565b600090565b60008181526033602052604081206107b190610e12565b6000806109ba6104a7565b915091509091565b60685460ff1690565b6000828152603360205260409020600201546109e9906104f1610a7f565b6105965760405162461bcd60e51b81526004018080602001828103825260308152602001806110d06030913960400191505060405180910390fd5b6069805460408051602060026001851615610100026000190190941693909304601f8101849004840282018401909252818152929183018282801561078e5780601f106107635761010080835404028352916020019161078e565b3390565b6000828152603360205260409020610a9b9082610e1d565b1561053b57610aa8610a7f565b6001600160a01b0316816001600160a01b0316837f2f8788117e7eff1d82e926ec794901d17c78024a50270940304540a733656f0d60405160405180910390a45050565b6000828152603360205260409020610b049082610e32565b1561053b57610b11610a7f565b6001600160a01b0316816001600160a01b0316837ff6391f5c32d9c69d2a47ea670b442974b53935d1edc7fd64eb21e047a839171b60405160405180910390a45050565b60006107ae8383610e47565b6000610b6c30610eab565b15905090565b600054610100900460ff1680610b8b5750610b8b610b61565b80610b99575060005460ff16155b610bd45760405162461bcd60e51b815260040180806020018281038252602e815260200180611100602e913960400191505060405180910390fd5b600054610100900460ff16158015610bff576000805460ff1961ff0019909116610100171660011790555b8015610c11576000805461ff00191690555b50565b600054610100900460ff1680610c2d5750610c2d610b61565b80610c3b575060005460ff16155b610c765760405162461bcd60e51b815260040180806020018281038252602e815260200180611100602e913960400191505060405180910390fd5b600054610100900460ff16158015610ca1576000805460ff1961ff0019909116610100171660011790555b610cb36000610cae610a7f565b610531565b606580547fffffffffffffffffffffffff0000000000000000000000000000000000000000166001600160a01b0386161790558251610cf9906069906020860190610fdd565b508151610d0d90606a906020850190610fdd565b50606560009054906101000a90046001600160a01b03166001600160a01b031663313ce5676040518163ffffffff1660e01b815260040160206040518083038186803b158015610d5c57600080fd5b505afa158015610d70573d6000803e3d6000fd5b505050506040513d6020811015610d8657600080fd5b50516068805461ff00191661010060ff9384168102919091179182905560129104909116111561085f576040805162461bcd60e51b815260206004820152601360248201527f646563696d616c73206578636565647320313800000000000000000000000000604482015290519081900360640190fd5b60006107ae836001600160a01b038416610eb1565b60006107b182610ec9565b60006107ae836001600160a01b038416610ecd565b60006107ae836001600160a01b038416610f17565b81546000908210610e895760405162461bcd60e51b815260040180806020018281038252602281526020018061107f6022913960400191505060405180910390fd5b826000018281548110610e9857fe5b9060005260206000200154905092915050565b3b151590565b60009081526001919091016020526040902054151590565b5490565b6000610ed98383610eb1565b610f0f575081546001818101845560008481526020808220909301849055845484825282860190935260409020919091556107b1565b5060006107b1565b60008181526001830160205260408120548015610fd35783546000198083019190810190600090879083908110610f4a57fe5b9060005260206000200154905080876000018481548110610f6757fe5b600091825260208083209091019290925582815260018981019092526040902090840190558654879080610f9757fe5b600190038181906000526020600020016000905590558660010160008781526020019081526020016000206000905560019450505050506107b1565b60009150506107b1565b828054600181600116156101000203166002900490600052602060002090601f0160209004810192826110135760008555611059565b82601f1061102c57805160ff1916838001178555611059565b82800160010185558215611059579182015b8281111561105957825182559160200191906001019061103e565b50611065929150611069565b5090565b5b80821115611065576000815560010161106a56fe456e756d657261626c655365743a20696e646578206f7574206f6620626f756e6473416363657373436f6e74726f6c3a2073656e646572206d75737420626520616e2061646d696e20746f206772616e74416363657373436f6e74726f6c3a2073656e646572206d75737420626520616e2061646d696e20746f207265766f6b65496e697469616c697a61626c653a20636f6e747261637420697320616c726561647920696e697469616c697a6564416363657373436f6e74726f6c3a2063616e206f6e6c792072656e6f756e636520726f6c657320666f722073656c66a26469706673582212204cb420d683c23cf8d96a765b1af02ddcd863488f6125e4ae18aab31acffe6ce964736f6c63430007040033",
  "linkReferences": {},
  "deployedLinkReferences": {}
}