{
  "_format": "hh-sol-artifact-1",
  "contractName": "TestLpGovernorUpgraded",
  "sourceName": "contracts/test/TestLpGovernorUpgraded.sol",
  "abi": [
    {
      "anonymous": false,
      "inputs": [
        {
          "indexed": true,
          "internalType": "address",
          "name": "owner",
          "type": "address"
        },
        {
          "indexed": true,
          "internalType": "address",
          "name": "spender",
          "type": "address"
        },
        {
          "indexed": false,
          "internalType": "uint256",
          "name": "value",
          "type": "uint256"
        }
      ],
      "name": "Approval",
      "type": "event"
    },
    {
      "anonymous": false,
      "inputs": [
        {
          "indexed": true,
          "internalType": "bytes32",
          "name": "txHash",
          "type": "bytes32"
        },
        {
          "indexed": true,
          "internalType": "address",
          "name": "target",
          "type": "address"
        },
        {
          "indexed": false,
          "internalType": "string",
          "name": "signature",
          "type": "string"
        },
        {
          "indexed": false,
          "internalType": "bytes",
          "name": "data",
          "type": "bytes"
        },
        {
          "indexed": false,
          "internalType": "uint256",
          "name": "eta",
          "type": "uint256"
        }
      ],
      "name": "ExecuteTransaction",
      "type": "event"
    },
    {
      "anonymous": false,
      "inputs": [
        {
          "indexed": false,
          "internalType": "uint256",
          "name": "id",
          "type": "uint256"
        },
        {
          "indexed": false,
          "internalType": "address",
          "name": "proposer",
          "type": "address"
        },
        {
          "indexed": false,
          "internalType": "address",
          "name": "target",
          "type": "address"
        },
        {
          "indexed": false,
          "internalType": "string[]",
          "name": "signatures",
          "type": "string[]"
        },
        {
          "indexed": false,
          "internalType": "bytes[]",
          "name": "calldatas",
          "type": "bytes[]"
        },
        {
          "indexed": false,
          "internalType": "uint256",
          "name": "startBlock",
          "type": "uint256"
        },
        {
          "indexed": false,
          "internalType": "uint256",
          "name": "endBlock",
          "type": "uint256"
        },
        {
          "indexed": false,
          "internalType": "uint256",
          "name": "quorumVotes",
          "type": "uint256"
        },
        {
          "indexed": false,
          "internalType": "string",
          "name": "description",
          "type": "string"
        }
      ],
      "name": "ProposalCreated",
      "type": "event"
    },
    {
      "anonymous": false,
      "inputs": [
        {
          "indexed": false,
          "internalType": "uint256",
          "name": "id",
          "type": "uint256"
        }
      ],
      "name": "ProposalExecuted",
      "type": "event"
    },
    {
      "anonymous": false,
      "inputs": [
        {
          "indexed": false,
          "internalType": "uint256",
          "name": "reward",
          "type": "uint256"
        },
        {
          "indexed": false,
          "internalType": "uint256",
          "name": "periodFinish",
          "type": "uint256"
        }
      ],
      "name": "RewardAdded",
      "type": "event"
    },
    {
      "anonymous": false,
      "inputs": [
        {
          "indexed": true,
          "internalType": "address",
          "name": "user",
          "type": "address"
        },
        {
          "indexed": false,
          "internalType": "uint256",
          "name": "reward",
          "type": "uint256"
        }
      ],
      "name": "RewardPaid",
      "type": "event"
    },
    {
      "anonymous": false,
      "inputs": [
        {
          "indexed": false,
          "internalType": "uint256",
          "name": "previousRate",
          "type": "uint256"
        },
        {
          "indexed": false,
          "internalType": "uint256",
          "name": "currentRate",
          "type": "uint256"
        },
        {
          "indexed": false,
          "internalType": "uint256",
          "name": "periodFinish",
          "type": "uint256"
        }
      ],
      "name": "RewardRateChanged",
      "type": "event"
    },
    {
      "anonymous": false,
      "inputs": [
        {
          "indexed": true,
          "internalType": "address",
          "name": "from",
          "type": "address"
        },
        {
          "indexed": true,
          "internalType": "address",
          "name": "to",
          "type": "address"
        },
        {
          "indexed": false,
          "internalType": "uint256",
          "name": "value",
          "type": "uint256"
        }
      ],
      "name": "Transfer",
      "type": "event"
    },
    {
      "anonymous": false,
      "inputs": [
        {
          "indexed": false,
          "internalType": "address",
          "name": "account",
          "type": "address"
        },
        {
          "indexed": false,
          "internalType": "uint256",
          "name": "proposalId",
          "type": "uint256"
        },
        {
          "indexed": false,
          "internalType": "bool",
          "name": "support",
          "type": "bool"
        },
        {
          "indexed": false,
          "internalType": "uint256",
          "name": "votes",
          "type": "uint256"
        }
      ],
      "name": "VoteCast",
      "type": "event"
    },
    {
      "inputs": [],
      "name": "SIGNATURE_PERPETUAL_SETTLE",
      "outputs": [
        {
          "internalType": "bytes4",
          "name": "",
          "type": "bytes4"
        }
      ],
      "stateMutability": "view",
      "type": "function"
    },
    {
      "inputs": [],
      "name": "SIGNATURE_PERPETUAL_TRANSFER_OPERATOR",
      "outputs": [
        {
          "internalType": "bytes4",
          "name": "",
          "type": "bytes4"
        }
      ],
      "stateMutability": "view",
      "type": "function"
    },
    {
      "inputs": [],
      "name": "SIGNATURE_PERPETUAL_UPGRADE_AND_CALL",
      "outputs": [
        {
          "internalType": "bytes4",
          "name": "",
          "type": "bytes4"
        }
      ],
      "stateMutability": "view",
      "type": "function"
    },
    {
      "inputs": [
        {
          "internalType": "address",
          "name": "owner",
          "type": "address"
        },
        {
          "internalType": "address",
          "name": "spender",
          "type": "address"
        }
      ],
      "name": "allowance",
      "outputs": [
        {
          "internalType": "uint256",
          "name": "",
          "type": "uint256"
        }
      ],
      "stateMutability": "view",
      "type": "function"
    },
    {
      "inputs": [
        {
          "internalType": "address",
          "name": "spender",
          "type": "address"
        },
        {
          "internalType": "uint256",
          "name": "amount",
          "type": "uint256"
        }
      ],
      "name": "approve",
      "outputs": [
        {
          "internalType": "bool",
          "name": "",
          "type": "bool"
        }
      ],
      "stateMutability": "nonpayable",
      "type": "function"
    },
    {
      "inputs": [
        {
          "internalType": "address",
          "name": "account",
          "type": "address"
        }
      ],
      "name": "balanceOf",
      "outputs": [
        {
          "internalType": "uint256",
          "name": "",
          "type": "uint256"
        }
      ],
      "stateMutability": "view",
      "type": "function"
    },
    {
      "inputs": [
        {
          "internalType": "address",
          "name": "account",
          "type": "address"
        },
        {
          "internalType": "uint256",
          "name": "amount",
          "type": "uint256"
        }
      ],
      "name": "burn",
      "outputs": [],
      "stateMutability": "nonpayable",
      "type": "function"
    },
    {
      "inputs": [
        {
          "internalType": "uint256",
          "name": "proposalId",
          "type": "uint256"
        },
        {
          "internalType": "bool",
          "name": "support",
          "type": "bool"
        }
      ],
      "name": "castVote",
      "outputs": [],
      "stateMutability": "nonpayable",
      "type": "function"
    },
    {
      "inputs": [],
      "name": "criticalQuorumRate",
      "outputs": [
        {
          "internalType": "uint256",
          "name": "",
          "type": "uint256"
        }
      ],
      "stateMutability": "pure",
      "type": "function"
    },
    {
      "inputs": [],
      "name": "decimals",
      "outputs": [
        {
          "internalType": "uint8",
          "name": "",
          "type": "uint8"
        }
      ],
      "stateMutability": "view",
      "type": "function"
    },
    {
      "inputs": [
        {
          "internalType": "address",
          "name": "spender",
          "type": "address"
        },
        {
          "internalType": "uint256",
          "name": "subtractedValue",
          "type": "uint256"
        }
      ],
      "name": "decreaseAllowance",
      "outputs": [
        {
          "internalType": "bool",
          "name": "",
          "type": "bool"
        }
      ],
      "stateMutability": "nonpayable",
      "type": "function"
    },
    {
      "inputs": [
        {
          "internalType": "address",
          "name": "account",
          "type": "address"
        }
      ],
      "name": "earned",
      "outputs": [
        {
          "internalType": "uint256",
          "name": "",
          "type": "uint256"
        }
      ],
      "stateMutability": "view",
      "type": "function"
    },
    {
      "inputs": [
        {
          "internalType": "uint256",
          "name": "proposalId",
          "type": "uint256"
        }
      ],
      "name": "execute",
      "outputs": [],
      "stateMutability": "payable",
      "type": "function"
    },
    {
      "inputs": [],
      "name": "executionDelay",
      "outputs": [
        {
          "internalType": "uint256",
          "name": "",
          "type": "uint256"
        }
      ],
      "stateMutability": "pure",
      "type": "function"
    },
    {
      "inputs": [
        {
          "internalType": "uint256",
          "name": "proposalId",
          "type": "uint256"
        }
      ],
      "name": "getActions",
      "outputs": [
        {
          "internalType": "string[]",
          "name": "signatures",
          "type": "string[]"
        },
        {
          "internalType": "bytes[]",
          "name": "calldatas",
          "type": "bytes[]"
        }
      ],
      "stateMutability": "view",
      "type": "function"
    },
    {
      "inputs": [],
      "name": "getMinter",
      "outputs": [
        {
          "internalType": "address",
          "name": "",
          "type": "address"
        }
      ],
      "stateMutability": "view",
      "type": "function"
    },
    {
      "inputs": [],
      "name": "getProposalThreshold",
      "outputs": [
        {
          "internalType": "uint256",
          "name": "",
          "type": "uint256"
        }
      ],
      "stateMutability": "view",
      "type": "function"
    },
    {
      "inputs": [
        {
          "internalType": "uint256",
          "name": "proposalId",
          "type": "uint256"
        }
      ],
      "name": "getQuorumVotes",
      "outputs": [
        {
          "internalType": "uint256",
          "name": "",
          "type": "uint256"
        }
      ],
      "stateMutability": "view",
      "type": "function"
    },
    {
      "inputs": [
        {
          "internalType": "uint256",
          "name": "proposalId",
          "type": "uint256"
        },
        {
          "internalType": "address",
          "name": "account",
          "type": "address"
        }
      ],
      "name": "getReceipt",
      "outputs": [
        {
          "components": [
            {
              "internalType": "bool",
              "name": "hasVoted",
              "type": "bool"
            },
            {
              "internalType": "bool",
              "name": "support",
              "type": "bool"
            },
            {
              "internalType": "uint256",
              "name": "votes",
              "type": "uint256"
            }
          ],
          "internalType": "struct Receipt",
          "name": "",
          "type": "tuple"
        }
      ],
      "stateMutability": "view",
      "type": "function"
    },
    {
      "inputs": [],
      "name": "getReward",
      "outputs": [],
      "stateMutability": "nonpayable",
      "type": "function"
    },
    {
      "inputs": [],
      "name": "getTarget",
      "outputs": [
        {
          "internalType": "address",
          "name": "",
          "type": "address"
        }
      ],
      "stateMutability": "view",
      "type": "function"
    },
    {
      "inputs": [
        {
          "internalType": "address",
          "name": "account",
          "type": "address"
        }
      ],
      "name": "getUnlockBlock",
      "outputs": [
        {
          "internalType": "uint256",
          "name": "",
          "type": "uint256"
        }
      ],
      "stateMutability": "view",
      "type": "function"
    },
    {
      "inputs": [
        {
          "internalType": "address",
          "name": "spender",
          "type": "address"
        },
        {
          "internalType": "uint256",
          "name": "addedValue",
          "type": "uint256"
        }
      ],
      "name": "increaseAllowance",
      "outputs": [
        {
          "internalType": "bool",
          "name": "",
          "type": "bool"
        }
      ],
      "stateMutability": "nonpayable",
      "type": "function"
    },
    {
      "inputs": [
        {
          "internalType": "string",
          "name": "name",
          "type": "string"
        },
        {
          "internalType": "string",
          "name": "symbol",
          "type": "string"
        },
        {
          "internalType": "address",
          "name": "minter",
          "type": "address"
        },
        {
          "internalType": "address",
          "name": "target",
          "type": "address"
        },
        {
          "internalType": "address",
          "name": "rewardToken",
          "type": "address"
        },
        {
          "internalType": "address",
          "name": "poolCreator",
          "type": "address"
        }
      ],
      "name": "initialize",
      "outputs": [],
      "stateMutability": "nonpayable",
      "type": "function"
    },
    {
      "inputs": [
        {
          "internalType": "string",
          "name": "functionSignature",
          "type": "string"
        }
      ],
      "name": "isCriticalFunction",
      "outputs": [
        {
          "internalType": "bool",
          "name": "",
          "type": "bool"
        }
      ],
      "stateMutability": "pure",
      "type": "function"
    },
    {
      "inputs": [
        {
          "internalType": "address",
          "name": "account",
          "type": "address"
        }
      ],
      "name": "isLocked",
      "outputs": [
        {
          "internalType": "bool",
          "name": "",
          "type": "bool"
        }
      ],
      "stateMutability": "nonpayable",
      "type": "function"
    },
    {
      "inputs": [
        {
          "internalType": "address",
          "name": "account",
          "type": "address"
        }
      ],
      "name": "isLockedByVoting",
      "outputs": [
        {
          "internalType": "bool",
          "name": "",
          "type": "bool"
        }
      ],
      "stateMutability": "nonpayable",
      "type": "function"
    },
    {
      "inputs": [],
      "name": "lastBlockRewardApplicable",
      "outputs": [
        {
          "internalType": "uint256",
          "name": "",
          "type": "uint256"
        }
      ],
      "stateMutability": "view",
      "type": "function"
    },
    {
      "inputs": [
        {
          "internalType": "address",
          "name": "",
          "type": "address"
        }
      ],
      "name": "lastMintBlock",
      "outputs": [
        {
          "internalType": "uint256",
          "name": "",
          "type": "uint256"
        }
      ],
      "stateMutability": "view",
      "type": "function"
    },
    {
      "inputs": [],
      "name": "lastUpdateTime",
      "outputs": [
        {
          "internalType": "uint256",
          "name": "",
          "type": "uint256"
        }
      ],
      "stateMutability": "view",
      "type": "function"
    },
    {
      "inputs": [
        {
          "internalType": "address",
          "name": "",
          "type": "address"
        }
      ],
      "name": "latestProposalIds",
      "outputs": [
        {
          "internalType": "uint256",
          "name": "",
          "type": "uint256"
        }
      ],
      "stateMutability": "view",
      "type": "function"
    },
    {
      "inputs": [
        {
          "internalType": "address",
          "name": "account",
          "type": "address"
        },
        {
          "internalType": "uint256",
          "name": "amount",
          "type": "uint256"
        }
      ],
      "name": "mint",
      "outputs": [],
      "stateMutability": "nonpayable",
      "type": "function"
    },
    {
      "inputs": [],
      "name": "name",
      "outputs": [
        {
          "internalType": "string",
          "name": "",
          "type": "string"
        }
      ],
      "stateMutability": "view",
      "type": "function"
    },
    {
      "inputs": [
        {
          "internalType": "uint256",
          "name": "reward",
          "type": "uint256"
        }
      ],
      "name": "notifyRewardAmount",
      "outputs": [],
      "stateMutability": "nonpayable",
      "type": "function"
    },
    {
      "inputs": [],
      "name": "periodFinish",
      "outputs": [
        {
          "internalType": "uint256",
          "name": "",
          "type": "uint256"
        }
      ],
      "stateMutability": "view",
      "type": "function"
    },
    {
      "inputs": [],
      "name": "poolCreator",
      "outputs": [
        {
          "internalType": "contract IPoolCreatorFull",
          "name": "",
          "type": "address"
        }
      ],
      "stateMutability": "view",
      "type": "function"
    },
    {
      "inputs": [],
      "name": "proposalCount",
      "outputs": [
        {
          "internalType": "uint256",
          "name": "",
          "type": "uint256"
        }
      ],
      "stateMutability": "view",
      "type": "function"
    },
    {
      "inputs": [],
      "name": "proposalMaxOperations",
      "outputs": [
        {
          "internalType": "uint256",
          "name": "",
          "type": "uint256"
        }
      ],
      "stateMutability": "pure",
      "type": "function"
    },
    {
      "inputs": [],
      "name": "proposalThresholdRate",
      "outputs": [
        {
          "internalType": "uint256",
          "name": "",
          "type": "uint256"
        }
      ],
      "stateMutability": "pure",
      "type": "function"
    },
    {
      "inputs": [
        {
          "internalType": "uint256",
          "name": "",
          "type": "uint256"
        }
      ],
      "name": "proposals",
      "outputs": [
        {
          "internalType": "uint256",
          "name": "id",
          "type": "uint256"
        },
        {
          "internalType": "address",
          "name": "target",
          "type": "address"
        },
        {
          "internalType": "address",
          "name": "proposer",
          "type": "address"
        },
        {
          "internalType": "uint256",
          "name": "startBlock",
          "type": "uint256"
        },
        {
          "internalType": "uint256",
          "name": "endBlock",
          "type": "uint256"
        },
        {
          "internalType": "uint256",
          "name": "quorumVotes",
          "type": "uint256"
        },
        {
          "internalType": "uint256",
          "name": "forVotes",
          "type": "uint256"
        },
        {
          "internalType": "uint256",
          "name": "againstVotes",
          "type": "uint256"
        },
        {
          "internalType": "bool",
          "name": "executed",
          "type": "bool"
        }
      ],
      "stateMutability": "view",
      "type": "function"
    },
    {
      "inputs": [
        {
          "internalType": "string[]",
          "name": "signatures",
          "type": "string[]"
        },
        {
          "internalType": "bytes[]",
          "name": "calldatas",
          "type": "bytes[]"
        },
        {
          "internalType": "string",
          "name": "description",
          "type": "string"
        }
      ],
      "name": "propose",
      "outputs": [
        {
          "internalType": "uint256",
          "name": "",
          "type": "uint256"
        }
      ],
      "stateMutability": "nonpayable",
      "type": "function"
    },
    {
      "inputs": [
        {
          "internalType": "bytes32",
          "name": "targetVersionKey",
          "type": "bytes32"
        },
        {
          "internalType": "bytes",
          "name": "dataForLiquidityPool",
          "type": "bytes"
        },
        {
          "internalType": "bytes",
          "name": "dataForGovernor",
          "type": "bytes"
        },
        {
          "internalType": "string",
          "name": "description",
          "type": "string"
        }
      ],
      "name": "proposeToUpgradeAndCall",
      "outputs": [
        {
          "internalType": "uint256",
          "name": "",
          "type": "uint256"
        }
      ],
      "stateMutability": "nonpayable",
      "type": "function"
    },
    {
      "inputs": [],
      "name": "quorumRate",
      "outputs": [
        {
          "internalType": "uint256",
          "name": "",
          "type": "uint256"
        }
      ],
      "stateMutability": "pure",
      "type": "function"
    },
    {
      "inputs": [],
      "name": "rewardDistribution",
      "outputs": [
        {
          "internalType": "address",
          "name": "",
          "type": "address"
        }
      ],
      "stateMutability": "view",
      "type": "function"
    },
    {
      "inputs": [],
      "name": "rewardPerToken",
      "outputs": [
        {
          "internalType": "uint256",
          "name": "",
          "type": "uint256"
        }
      ],
      "stateMutability": "view",
      "type": "function"
    },
    {
      "inputs": [],
      "name": "rewardPerTokenStored",
      "outputs": [
        {
          "internalType": "uint256",
          "name": "",
          "type": "uint256"
        }
      ],
      "stateMutability": "view",
      "type": "function"
    },
    {
      "inputs": [],
      "name": "rewardRate",
      "outputs": [
        {
          "internalType": "uint256",
          "name": "",
          "type": "uint256"
        }
      ],
      "stateMutability": "view",
      "type": "function"
    },
    {
      "inputs": [],
      "name": "rewardToken",
      "outputs": [
        {
          "internalType": "contract IERC20Upgradeable",
          "name": "",
          "type": "address"
        }
      ],
      "stateMutability": "view",
      "type": "function"
    },
    {
      "inputs": [
        {
          "internalType": "address",
          "name": "",
          "type": "address"
        }
      ],
      "name": "rewards",
      "outputs": [
        {
          "internalType": "uint256",
          "name": "",
          "type": "uint256"
        }
      ],
      "stateMutability": "view",
      "type": "function"
    },
    {
      "inputs": [
        {
          "internalType": "uint256",
          "name": "newRewardRate",
          "type": "uint256"
        }
      ],
      "name": "setRewardRate",
      "outputs": [],
      "stateMutability": "nonpayable",
      "type": "function"
    },
    {
      "inputs": [
        {
          "internalType": "uint256",
          "name": "proposalId",
          "type": "uint256"
        }
      ],
      "name": "state",
      "outputs": [
        {
          "internalType": "enum ProposalState",
          "name": "",
          "type": "uint8"
        }
      ],
      "stateMutability": "view",
      "type": "function"
    },
    {
      "inputs": [],
      "name": "symbol",
      "outputs": [
        {
          "internalType": "string",
          "name": "",
          "type": "string"
        }
      ],
      "stateMutability": "view",
      "type": "function"
    },
    {
      "inputs": [],
      "name": "testValue",
      "outputs": [
        {
          "internalType": "uint256",
          "name": "",
          "type": "uint256"
        }
      ],
      "stateMutability": "view",
      "type": "function"
    },
    {
      "inputs": [],
      "name": "totalSupply",
      "outputs": [
        {
          "internalType": "uint256",
          "name": "",
          "type": "uint256"
        }
      ],
      "stateMutability": "view",
      "type": "function"
    },
    {
      "inputs": [
        {
          "internalType": "address",
          "name": "recipient",
          "type": "address"
        },
        {
          "internalType": "uint256",
          "name": "amount",
          "type": "uint256"
        }
      ],
      "name": "transfer",
      "outputs": [
        {
          "internalType": "bool",
          "name": "",
          "type": "bool"
        }
      ],
      "stateMutability": "nonpayable",
      "type": "function"
    },
    {
      "inputs": [
        {
          "internalType": "address",
          "name": "sender",
          "type": "address"
        },
        {
          "internalType": "address",
          "name": "recipient",
          "type": "address"
        },
        {
          "internalType": "uint256",
          "name": "amount",
          "type": "uint256"
        }
      ],
      "name": "transferFrom",
      "outputs": [
        {
          "internalType": "bool",
          "name": "",
          "type": "bool"
        }
      ],
      "stateMutability": "nonpayable",
      "type": "function"
    },
    {
      "inputs": [],
      "name": "unlockDelay",
      "outputs": [
        {
          "internalType": "uint256",
          "name": "",
          "type": "uint256"
        }
      ],
      "stateMutability": "pure",
      "type": "function"
    },
    {
      "inputs": [
        {
          "internalType": "uint256",
          "name": "n",
          "type": "uint256"
        }
      ],
      "name": "upgradePatch",
      "outputs": [],
      "stateMutability": "nonpayable",
      "type": "function"
    },
    {
      "inputs": [
        {
          "internalType": "address",
          "name": "",
          "type": "address"
        }
      ],
      "name": "userRewardPerTokenPaid",
      "outputs": [
        {
          "internalType": "uint256",
          "name": "",
          "type": "uint256"
        }
      ],
      "stateMutability": "view",
      "type": "function"
    },
    {
      "inputs": [],
      "name": "votingDelay",
      "outputs": [
        {
          "internalType": "uint256",
          "name": "",
          "type": "uint256"
        }
      ],
      "stateMutability": "pure",
      "type": "function"
    },
    {
      "inputs": [],
      "name": "votingPeriod",
      "outputs": [
        {
          "internalType": "uint256",
          "name": "",
          "type": "uint256"
        }
      ],
      "stateMutability": "pure",
      "type": "function"
    }
  ],
  "bytecode": "0x608060405234801561001057600080fd5b50614cf3806100206000396000f3fe6080604052600436106103a15760003560e01c80638af5de72116101e7578063c8f33c911161010d578063e56f2fe4116100a0578063f36675171161006f578063f366751714610a1e578063f7c292a214610a33578063f7c618c114610a48578063fe0d94c114610a5d576103a1565b8063e56f2fe4146109b4578063ebe2b12b146109d4578063f00e6a2a146109e9578063f3205ed8146109fe576103a1565b8063dd62ed3e116100dc578063dd62ed3e1461093d578063df136d651461095d578063e1a5407814610972578063e23a9a5214610987576103a1565b8063c8f33c91146108de578063cd3daf9d146108f3578063d08e237314610908578063da35c66414610928576103a1565b80639e447fc611610185578063abe0429c11610154578063abe0429c1461087f578063b4c4e25814610894578063c6c1decd146108a9578063c8eb6902146108be576103a1565b80639e447fc6146107ff5780639f8fec301461081f578063a457c2d71461083f578063a9059cbb1461085f576103a1565b80638b876347116101c15780638b8763471461079557806395d89b41146107b55780639c0784fd146107ca5780639dc29fac146107df576103a1565b80638af5de721461074b5780638b185b35146107605780638b25798914610780576103a1565b8063328dd982116102cc5780634a2355281161026a57806374281ee61161023957806374281ee6146106ea5780637b0a47ee1461070c5780637bdbe4d01461072157806385a21b1914610736576103a1565b80634a235528146106755780634a4fbeec1461068a5780634c852eb2146106aa57806370a08231146106ca576103a1565b80633c6b16ab116102a65780633c6b16ab146105f35780633d18b912146106135780633e4f49e61461062857806340c10f1914610655576103a1565b8063328dd982146105905780633932abb1146105be57806339509351146105d3576103a1565b80630bb4df0c1161034457806318160ddd1161031357806318160ddd1461051957806322ed77f81461052e57806323b872dd1461054e578063313ce5671461056e576103a1565b80630bb4df0c14610495578063101114cf146104b557806315373e3d146104d757806317977c61146104f9576103a1565b80630519da32116103805780630519da321461041157806306fdde03146104265780630700037d14610448578063095ea7b314610468576103a1565b80628cc262146103a6578063013cf08b146103dc57806302a251a314610411575b600080fd5b3480156103b257600080fd5b506103c66103c1366004613cf2565b610a70565b6040516103d3919061431c565b60405180910390f35b3480156103e857600080fd5b506103fc6103f73660046140e3565b610ae0565b6040516103d399989796959493929190614957565b34801561041d57600080fd5b506103c6610b3a565b34801561043257600080fd5b5061043b610b41565b6040516103d391906143a9565b34801561045457600080fd5b506103c6610463366004613cf2565b610bd7565b34801561047457600080fd5b50610488610483366004613d86565b610be9565b6040516103d39190614311565b3480156104a157600080fd5b506103c66104b0366004613cf2565b610c07565b3480156104c157600080fd5b506104ca610c1d565b6040516103d39190614250565b3480156104e357600080fd5b506104f76104f236600461411f565b610c2c565b005b34801561050557600080fd5b506103c6610514366004613cf2565b610c7e565b34801561052557600080fd5b506103c6610c90565b34801561053a57600080fd5b50610488610549366004613cf2565b610c9f565b34801561055a57600080fd5b50610488610569366004613d46565b610cd2565b34801561057a57600080fd5b50610583610d5a565b6040516103d391906149a4565b34801561059c57600080fd5b506105b06105ab3660046140e3565b610d63565b6040516103d39291906142ec565b3480156105ca57600080fd5b506103c6610f33565b3480156105df57600080fd5b506104886105ee366004613d86565b610f38565b3480156105ff57600080fd5b506104f761060e3660046140e3565b610f86565b34801561061f57600080fd5b506104f7611183565b34801561063457600080fd5b506106486106433660046140e3565b611220565b6040516103d39190614395565b34801561066157600080fd5b506104f7610670366004613d86565b61133c565b34801561068157600080fd5b506103c66113a1565b34801561069657600080fd5b506104886106a5366004613cf2565b6113ad565b3480156106b657600080fd5b506103c66106c5366004613f76565b611403565b3480156106d657600080fd5b506103c66106e5366004613cf2565b611537565b3480156106f657600080fd5b506106ff611542565b6040516103d39190614368565b34801561071857600080fd5b506103c661159b565b34801561072d57600080fd5b506103c66115a1565b34801561074257600080fd5b506103c66115a6565b34801561075757600080fd5b506103c66115d7565b34801561076c57600080fd5b506103c661077b366004613cf2565b6115de565b34801561078c57600080fd5b506103c66115f0565b3480156107a157600080fd5b506103c66107b0366004613cf2565b6115f6565b3480156107c157600080fd5b5061043b611608565b3480156107d657600080fd5b506103c6611669565b3480156107eb57600080fd5b506104f76107fa366004613d86565b611674565b34801561080b57600080fd5b506104f761081a3660046140e3565b6116b8565b34801561082b57600080fd5b506104f761083a3660046140e3565b61181e565b34801561084b57600080fd5b5061048861085a366004613d86565b611832565b34801561086b57600080fd5b5061048861087a366004613d86565b61189a565b34801561088b57600080fd5b506103c66118ae565b3480156108a057600080fd5b506106ff6118c7565b3480156108b557600080fd5b506104ca6118ea565b3480156108ca57600080fd5b506103c66108d9366004613db1565b6118f9565b3480156108ea57600080fd5b506103c66119b6565b3480156108ff57600080fd5b506103c66119bc565b34801561091457600080fd5b50610488610923366004614004565b611a0a565b34801561093457600080fd5b506103c6611b11565b34801561094957600080fd5b506103c6610958366004613d0e565b611b17565b34801561096957600080fd5b506103c6611b42565b34801561097e57600080fd5b506106ff611b48565b34801561099357600080fd5b506109a76109a23660046140fb565b611b6b565b6040516103d391906148b4565b3480156109c057600080fd5b506104f76109cf366004614037565b611bcc565b3480156109e057600080fd5b506103c6611cc1565b3480156109f557600080fd5b506104ca611cc7565b348015610a0a57600080fd5b506103c6610a193660046140e3565b611cd1565b348015610a2a57600080fd5b506104ca611df2565b348015610a3f57600080fd5b506103c6611e01565b348015610a5457600080fd5b506104ca611e0d565b6104f7610a6b3660046140e3565b611e1c565b6001600160a01b038116600090815260a6602090815260408083205460a5909252822054610ad89190610ad290670de0b6b3a764000090610acc90610abd90610ab76119bc565b90612022565b610ac688611537565b9061207f565b906120d8565b9061213f565b90505b919050565b606a60205260009081526040902080546001820154600283015460058401546006850154600786015460088701546009880154600a9098015496976001600160a01b03968716979690951695939492939192909160ff1689565b6143805b90565b60368054604080516020601f6002600019610100600188161502019095169490940493840181900481028201810190925282815260609390929091830182828015610bcd5780601f10610ba257610100808354040283529160200191610bcd565b820191906000526020600020905b815481529060010190602001808311610bb057829003601f168201915b5050505050905090565b60a66020526000908152604090205481565b6000610bfd610bf6612199565b848461219d565b5060015b92915050565b600080610c1383612289565b5090949350505050565b60a4546001600160a01b031681565b6001610c3783611220565b6006811115610c4257fe5b14610c685760405162461bcd60e51b8152600401610c5f906145aa565b60405180910390fd5b610c7a610c73612199565b8383612429565b5050565b606b6020526000908152604090205481565b6000610c9a61255d565b905090565b60006001600160a01b038216610cb757506000610adb565b610cc2826000612563565b610cca612605565b111592915050565b6000610cdf848484612609565b610d4f84610ceb612199565b610d4a85604051806060016040528060288152602001614bb5602891396001600160a01b038a16600090815260346020526040812090610d29612199565b6001600160a01b031681526020810191909152604001600020549190612766565b61219d565b5060015b9392505050565b60385460ff1690565b6060806000606a60008581526020019081526020016000209050806003018160040181805480602002602001604051908101604052809291908181526020016000905b82821015610e515760008481526020908190208301805460408051601f6002600019610100600187161502019094169390930492830185900485028101850190915281815292830182828015610e3d5780601f10610e1257610100808354040283529160200191610e3d565b820191906000526020600020905b815481529060010190602001808311610e2057829003601f168201915b505050505081526020019060010190610da6565b50505050915080805480602002602001604051908101604052809291908181526020016000905b82821015610f235760008481526020908190208301805460408051601f6002600019610100600187161502019094169390930492830185900485028101850190915281815292830182828015610f0f5780601f10610ee457610100808354040283529160200191610f0f565b820191906000526020600020905b815481529060010190602001808311610ef257829003601f168201915b505050505081526020019060010190610e78565b5050505090509250925050915091565b600190565b6000610bfd610f45612199565b84610d4a8560346000610f56612199565b6001600160a01b03908116825260208083019390935260409182016000908120918c16815292529020549061213f565b609e60009054906101000a90046001600160a01b03166001600160a01b0316638da5cb5b6040518163ffffffff1660e01b815260040160206040518083038186803b158015610fd457600080fd5b505afa158015610fe8573d6000803e3d6000fd5b505050506040513d6020811015610ffe57600080fd5b50516001600160a01b0316611011612199565b6001600160a01b0316146110565760405162461bcd60e51b8152600401808060200182810382526024815260200180614a486024913960400191505060405180910390fd5b6000611061816127fd565b600060a154116110b8576040805162461bcd60e51b815260206004820152601260248201527f72657761726452617465206973207a65726f0000000000000000000000000000604482015290519081900360640190fd5b60006110cf60a154846120d890919063ffffffff16565b905060a054431115611130574360a28190556110eb908261213f565b60a081905560408051858152602081019290925280517f6c07ee05dcf262f13abf9d87b846ee789d2f90fe991d495acd7d7fc109ee1f559281900390910190a161117e565b60a05461113d908261213f565b60a081905560408051858152602081019290925280517f6c07ee05dcf262f13abf9d87b846ee789d2f90fe991d495acd7d7fc109ee1f559281900390910190a15b505050565b61118b612199565b611194816127fd565b600061119e612199565b905060006111ab82610a70565b9050801561117e576001600160a01b03808316600090815260a66020526040812055609f546111dc9116838361285a565b6040805182815290516001600160a01b038416917fe2403640ba68fed3a2f88b7557551d1993f84b99bb10ff833f0cf8db0c5e0486919081900360200190a2505050565b600081606954101580156112345750600082115b6112505760405162461bcd60e51b8152600401610c5f906143f2565b6000828152606a6020526040902060058101544311611273576000915050610adb565b80600601544311611288576001915050610adb565b806009015481600801541115806112b457506007810154600982015460088301546112b29161213f565b105b156112c3576002915050610adb565b6112d96112ce6115f0565b60068301549061213f565b43116112e9576003915050610adb565b600a81015460ff1615611300576005915050610adb565b61132161130b610b3a565b610ad26113166115f0565b60068501549061213f565b431115611332576006915050610adb565b6004915050610adb565b60d9546001600160a01b0316611350612199565b6001600160a01b0316146113765760405162461bcd60e51b8152600401610c5f906144ce565b61137e612605565b6001600160a01b038316600090815260da6020526040902055610c7a82826128c5565b6702c68af0bb14000090565b6000806113da6113bb6129b7565b6001600160a01b038516600090815260da60205260409020549061213f565b6113e2612605565b10905060006113f084610c9f565b905081806113fb5750805b949350505050565b600061140e85612a66565b6000611418612199565b60408051600180825281830190925291925060609190816020015b6060815260200190600190039081611433579050509050604051806060016040528060258152602001614af5602591398160008151811061147057fe5b6020908102919091010152604080516001808252818301909252606091816020015b60608152602001906001900390816114925790505090508787876040516020016114be93929190614333565b604051602081830303815290604052816000815181106114da57fe5b60209081029190910101526065546000906115029085906001600160a01b031685858a612c5d565b6001600160a01b0385166000908152606b60205260409020819055905061152b84826001612429565b98975050505050505050565b6000610ad882612d92565b60408051808201909152601981527f7472616e736665724f70657261746f72286164647265737329000000000000006020909101527f29605e77570554e17097b370f7d97acbb47139a4d78e46edc79331bbb54c115f81565b60a15481565b600a90565b6000806115b1610c90565b90506115d1670de0b6b3a7640000610acc6115ca611669565b849061207f565b91505090565b61010c5481565b60da6020526000908152604090205481565b612d0090565b60a56020526000908152604090205481565b60378054604080516020601f6002600019610100600188161502019095169490940493840181900481028201810190925282815260609390929091830182828015610bcd5780601f10610ba257610100808354040283529160200191610bcd565b662386f26fc1000090565b60d9546001600160a01b0316611688612199565b6001600160a01b0316146116ae5760405162461bcd60e51b8152600401610c5f906146d2565b610c7a8282612dad565b609e60009054906101000a90046001600160a01b03166001600160a01b0316638da5cb5b6040518163ffffffff1660e01b815260040160206040518083038186803b15801561170657600080fd5b505afa15801561171a573d6000803e3d6000fd5b505050506040513d602081101561173057600080fd5b50516001600160a01b0316611743612199565b6001600160a01b0316146117885760405162461bcd60e51b8152600401808060200182810382526024815260200180614a486024913960400191505060405180910390fd5b6000611793816127fd565b816117a1574360a0556117d2565b60a054156117d2576117ce43610ad284610acc60a154610ac660a25460a05461202290919063ffffffff16565b60a0555b60a15460a054604080519283526020830185905282810191909152517f3d209aed8ecb665e2e6cc55772bfc177e7aa7f6fa40ce4af171a43ed8fa2e2db9181900360600190a15060a155565b61010c541561182c57600080fd5b61010c55565b6000610bfd61183f612199565b84610d4a85604051806060016040528060258152602001614c996025913960346000611869612199565b6001600160a01b03908116825260208083019390935260409182016000908120918d16815292529020549190612766565b6000610bfd6118a7612199565b8484612609565b600060a0544311156118c25760a054610c9a565b504390565b604051806060016040528060258152602001614af5602591398051906020012081565b609e546001600160a01b031681565b6000825184511461191c5760405162461bcd60e51b8152600401610c5f90614820565b835161193a5760405162461bcd60e51b8152600401610c5f90614497565b6119426115a1565b845111156119625760405162461bcd60e51b8152600401610c5f90614429565b600061196c612199565b905060006119848261197c611cc7565b888888612c5d565b6001600160a01b0383166000908152606b6020526040902081905590506119ad82826001612429565b95945050505050565b60a25481565b60006119c6610c90565b6119d3575060a354610b3e565b610c9a611a016119e1610c90565b610acc670de0b6b3a7640000610ac660a154610ac660a254610ab76118ae565b60a3549061213f565b60008082805190602001209050604051806060016040528060258152602001614af560259139805190602001206001600160e01b031916816001600160e01b0319161480611a8a5750604051806060016040528060288152602001614c4760289139805190602001206001600160e01b031916816001600160e01b031916145b80610d53575060408051808201909152601981527f7472616e736665724f70657261746f72286164647265737329000000000000006020909101527fffffffff0000000000000000000000000000000000000000000000000000000081167f29605e7700000000000000000000000000000000000000000000000000000000149392505050565b60695481565b6001600160a01b03918216600090815260346020908152604080832093909416825291909152205490565b60a35481565b604051806060016040528060288152602001614c47602891398051906020012081565b611b73613921565b506000918252606a602090815260408084206001600160a01b03939093168452600b9092018152918190208151606081018352815460ff8082161515835261010090910416151593810193909352600101549082015290565b600054610100900460ff1680611be55750611be5612ea9565b80611bf3575060005460ff16155b611c2e5760405162461bcd60e51b815260040180806020018281038252602e815260200180614b66602e913960400191505060405180910390fd5b600054610100900460ff16158015611c59576000805460ff1961ff0019909116610100171660011790555b611c638787612eba565b611c6c84612f92565b611c768383613077565b60d980546001600160a01b038088166001600160a01b03199283161790925560668054928716929091169190911790558015611cb8576000805461ff00191690555b50505050505050565b60a05481565b6000610c9a61314a565b6000818152606a60205260408120600381015482611ced610c90565b905060005b82811015611dda57611da4846003018281548110611d0c57fe5b600091825260209182902001805460408051601f6002600019610100600187161502019094169390930492830185900485028101850190915281815292830182828015611d9a5780601f10611d6f57610100808354040283529160200191611d9a565b820191906000526020600020905b815481529060010190602001808311611d7d57829003601f168201915b5050505050611a0a565b15611dd257611dc7670de0b6b3a7640000610acc611dc06113a1565b859061207f565b945050505050610adb565b600101611cf2565b506119ad670de0b6b3a7640000610acc6115ca611e01565b60d9546001600160a01b031690565b67016345785d8a000090565b609f546001600160a01b031681565b6004611e2782611220565b6006811115611e3257fe5b14611e4f5760405162461bcd60e51b8152600401610c5f90614709565b6000818152606a60205260408120600a8101805460ff19166001179055905b6003820154811015611fe6576001820154600383018054611fdd926001600160a01b0316919084908110611e9e57fe5b600091825260209182902001805460408051601f6002600019610100600187161502019094169390930492830185900485028101850190915281815292830182828015611f2c5780601f10611f0157610100808354040283529160200191611f2c565b820191906000526020600020905b815481529060010190602001808311611f0f57829003601f168201915b5050505050846004018481548110611f4057fe5b600091825260209182902001805460408051601f6002600019610100600187161502019094169390930492830185900485028101850190915281815292830182828015611fce5780601f10611fa357610100808354040283529160200191611fce565b820191906000526020600020905b815481529060010190602001808311611fb157829003601f168201915b50505050508560060154613159565b50600101611e6e565b507f712ae1383f79ac853f8d882153778e0260ef8f03b504e2866e0593e04d2b291f82604051612016919061431c565b60405180910390a15050565b600082821115612079576040805162461bcd60e51b815260206004820152601e60248201527f536166654d6174683a207375627472616374696f6e206f766572666c6f770000604482015290519081900360640190fd5b50900390565b60008261208e57506000610c01565b8282028284828161209b57fe5b0414610d535760405162461bcd60e51b8152600401808060200182810382526021815260200180614b946021913960400191505060405180910390fd5b600080821161212e576040805162461bcd60e51b815260206004820152601a60248201527f536166654d6174683a206469766973696f6e206279207a65726f000000000000604482015290519081900360640190fd5b81838161213757fe5b049392505050565b600082820183811015610d53576040805162461bcd60e51b815260206004820152601b60248201527f536166654d6174683a206164646974696f6e206f766572666c6f770000000000604482015290519081900360640190fd5b3390565b6001600160a01b0383166121e25760405162461bcd60e51b8152600401808060200182810382526024815260200180614c236024913960400191505060405180910390fd5b6001600160a01b0382166122275760405162461bcd60e51b8152600401808060200182810382526022815260200180614ad36022913960400191505060405180910390fd5b6001600160a01b03808416600081815260346020908152604080832094871680845294825291829020859055815185815291517f8c5be1e5ebec7d5bd14f71427d1e84f3dd0314c0f7b2291e5b200ac8c7c3b9259281900390910190a3505050565b6001600160a01b03811660009081526067602090815260408083205460689092528220909190606090826122bc82613297565b90508015612420578067ffffffffffffffff811180156122db57600080fd5b50604051908082528060200260200182016040528015612305578160200160208202803683370190505b50925060005b8181101561241e57600061231f84836132a2565b9050600061232c82611220565b9050600081600681111561233c57fe5b14806123535750600181600681111561235157fe5b145b1561235f575050612416565b600381600681111561236d57fe5b14806123845750600581600681111561238257fe5b145b8061239a5750600481600681111561239857fe5b145b806123b0575060068160068111156123ae57fe5b145b156123f55760006123e56123cd6123c5610b3a565b610ad26115f0565b6000858152606a60205260409020600601549061213f565b9050888111156123f3578098505b505b8186888151811061240257fe5b602090810291909101015250506001909401935b60010161230b565b505b50509193909250565b6000828152606a602090815260408083206001600160a01b0387168452600b8101909252909120805460ff16156124725760405162461bcd60e51b8152600401610c5f9061453c565b600061247d86611537565b9050831561249e576008830154612494908261213f565b60088401556124b3565b60098301546124ad908261213f565b60098401555b8154600160ff19909116811761ff0019166101008615150217835580830182905560068401546124ed9188916124e89161213f565b612563565b508315612518576001600160a01b038616600090815260686020526040902061251690866132ae565b505b7f877856338e13f63d0c36822ff0ef736b80934cd90574a3a5bc9262c39d217c468686868460405161254d94939291906142c4565b60405180910390a1505050505050565b60355490565b6001600160a01b03821660009081526068602052604081208180606061258887612289565b92509250925060005b828110156125ce5760008282815181106125a757fe5b60200260200101519050806000146125c5576125c386826132ba565b505b50600101612591565b508286116125dc57826125de565b855b6001600160a01b038816600090815260676020526040902081905594505050505092915050565b4390565b6001600160a01b03831661264e5760405162461bcd60e51b8152600401808060200182810382526025815260200180614bfe6025913960400191505060405180910390fd5b6001600160a01b0382166126935760405162461bcd60e51b8152600401808060200182810382526023815260200180614a8e6023913960400191505060405180910390fd5b61269e8383836132c6565b6126db81604051806060016040528060268152602001614b1a602691396001600160a01b0386166000908152603360205260409020549190612766565b6001600160a01b03808516600090815260336020526040808220939093559084168152205461270a908261213f565b6001600160a01b0380841660008181526033602090815260409182902094909455805185815290519193928716927fddf252ad1be2c89b69c2b068fc378daa952ba7f163c4a11628f55a4df523b3ef92918290030190a3505050565b600081848411156127f55760405162461bcd60e51b81526004018080602001828103825283818151815260200191508051906020019080838360005b838110156127ba5781810151838201526020016127a2565b50505050905090810190601f1680156127e75780820380516001836020036101000a031916815260200191505b509250505060405180910390fd5b505050900390565b6128056119bc565b60a3556128106118ae565b60a2556001600160a01b038116156128575761282b81610a70565b6001600160a01b038216600090815260a6602090815260408083209390935560a35460a5909152919020555b50565b604080516001600160a01b038416602482015260448082018490528251808303909101815260649091019091526020810180516001600160e01b03167fa9059cbb0000000000000000000000000000000000000000000000000000000017905261117e908490613309565b6001600160a01b038216612920576040805162461bcd60e51b815260206004820152601f60248201527f45524332303a206d696e7420746f20746865207a65726f206164647265737300604482015290519081900360640190fd5b61292c600083836132c6565b603554612939908261213f565b6035556001600160a01b03821660009081526033602052604090205461295f908261213f565b6001600160a01b03831660008181526033602090815260408083209490945583518581529351929391927fddf252ad1be2c89b69c2b068fc378daa952ba7f163c4a11628f55a4df523b3ef9281900390910190a35050565b60006129c1613941565b606660009054906101000a90046001600160a01b03166001600160a01b0316630cdc105a6040518163ffffffff1660e01b81526004016102806040518083038186803b158015612a1057600080fd5b505afa158015612a24573d6000803e3d6000fd5b505050506040513d601f19601f82011682018060405250810190612a489190613ea1565b94505050505080600560068110612a5b57fe5b602002015191505090565b6065546040517f8277c6510000000000000000000000000000000000000000000000000000000081526001600160a01b0390911690638277c65190612aaf90849060040161431c565b60206040518083038186803b158015612ac757600080fd5b505afa158015612adb573d6000803e3d6000fd5b505050506040513d601f19601f82011682018060405250810190612aff9190613e85565b612b1b5760405162461bcd60e51b8152600401610c5f90614766565b6065546000906001600160a01b031663db7ca94b612b37611cc7565b306040518363ffffffff1660e01b8152600401612b55929190614264565b60206040518083038186803b158015612b6d57600080fd5b505afa158015612b81573d6000803e3d6000fd5b505050506040513d601f19601f82011682018060405250810190612ba59190613f5e565b6065546040517f3c597ff60000000000000000000000000000000000000000000000000000000081529192506001600160a01b031690633c597ff690612bf19085908590600401614325565b60206040518083038186803b158015612c0957600080fd5b505afa158015612c1d573d6000803e3d6000fd5b505050506040513d601f19601f82011682018060405250810190612c419190613e85565b610c7a5760405162461bcd60e51b8152600401610c5f906147c3565b6000612c68866133ba565b6000612c7d612c75610f33565b610ad2612605565b90506000612c93612c8c610b3a565b839061213f565b606980546001908101918290556000828152606a6020908152604090912083815591820180546001600160a01b03808e166001600160a01b031992831617909255600284018054928f1692909116919091179055895193945091929091612d019160038401918b019061395f565b508651612d1790600483019060208a01906139bc565b5060058101849055600681018390556000612d3183611cd1565b90508082600701819055507fc98917001dd55381b0307302ec6f8b757eb673e54d241fdddd6f722e847340bf838c8c8c8c8a8a888f604051612d7b999897969594939291906148d9565b60405180910390a150909998505050505050505050565b6001600160a01b031660009081526033602052604090205490565b6001600160a01b038216612df25760405162461bcd60e51b8152600401808060200182810382526021815260200180614bdd6021913960400191505060405180910390fd5b612dfe826000836132c6565b612e3b81604051806060016040528060228152602001614ab1602291396001600160a01b0385166000908152603360205260409020549190612766565b6001600160a01b038316600090815260336020526040902055603554612e619082612022565b6035556040805182815290516000916001600160a01b038516917fddf252ad1be2c89b69c2b068fc378daa952ba7f163c4a11628f55a4df523b3ef9181900360200190a35050565b6000612eb4306134d4565b15905090565b600054610100900460ff1680612ed35750612ed3612ea9565b80612ee1575060005460ff16155b612f1c5760405162461bcd60e51b815260040180806020018281038252602e815260200180614b66602e913960400191505060405180910390fd5b600054610100900460ff16158015612f47576000805460ff1961ff0019909116610100171660011790555b8251612f5a906036906020860190613a15565b508151612f6e906037906020850190613a15565b506038805460ff19166012179055801561117e576000805461ff0019169055505050565b600054610100900460ff1680612fab5750612fab612ea9565b80612fb9575060005460ff16155b612ff45760405162461bcd60e51b815260040180806020018281038252602e815260200180614b66602e913960400191505060405180910390fd5b600054610100900460ff1615801561301f576000805460ff1961ff0019909116610100171660011790555b606680546001600160a01b0319166001600160a01b038416179055613042612199565b606580546001600160a01b0319166001600160a01b03929092169190911790558015610c7a576000805461ff00191690555050565b600054610100900460ff16806130905750613090612ea9565b8061309e575060005460ff16155b6130d95760405162461bcd60e51b815260040180806020018281038252602e815260200180614b66602e913960400191505060405180910390fd5b600054610100900460ff16158015613104576000805460ff1961ff0019909116610100171660011790555b609f80546001600160a01b038086166001600160a01b031992831617909255609e805492851692909116919091179055801561117e576000805461ff0019169055505050565b6066546001600160a01b031690565b6060600085858585604051602001613174949392919061427e565b6040516020818303038152906040528051906020012090506000613196612605565b90506131aa6131a36115f0565b859061213f565b8110156131c95760405162461bcd60e51b8152600401610c5f90614618565b6131e66131d4610b3a565b610ad26131df6115f0565b879061213f565b8111156132055760405162461bcd60e51b8152600401610c5f9061487d565b6060613244878051906020012087604051602001613224929190614208565b60408051601f198184030181529190526001600160a01b038a16906134da565b9050876001600160a01b0316837f73bcadb73827ad9a900198359278e77086ae03e9e17ef173ad7de9e7e39acaff898989604051613284939291906143bc565b60405180910390a3979650505050505050565b6000610ad88261351c565b6000610d538383613520565b6000610d538383613584565b6000610d5383836135ce565b6132cf836113ad565b156132ec5760405162461bcd60e51b8152600401610c5f90614573565b6132f5836127fd565b6132fe826127fd565b61117e83838361117e565b606061335e826040518060400160405280602081526020017f5361666545524332303a206c6f772d6c6576656c2063616c6c206661696c6564815250856001600160a01b03166136949092919063ffffffff16565b80519091501561117e5780806020019051602081101561337d57600080fd5b505161117e5760405162461bcd60e51b815260040180806020018281038252602a815260200180614c6f602a913960400191505060405180910390fd5b60006133c46136a3565b90506001600160a01b0381161561340b57806001600160a01b0316826001600160a01b0316146134065760405162461bcd60e51b8152600401610c5f90614675565b61343a565b6134136115a6565b61341c83611537565b101561343a5760405162461bcd60e51b8152600401610c5f90614460565b6001600160a01b0382166000908152606b602052604090205415610c7a576001600160a01b0382166000908152606b602052604081205461347a90611220565b9050600081600681111561348a57fe5b14156134a85760405162461bcd60e51b8152600401610c5f90614505565b60018160068111156134b657fe5b141561117e5760405162461bcd60e51b8152600401610c5f906145e1565b3b151590565b6060610d5383836040518060400160405280601e81526020017f416464726573733a206c6f772d6c6576656c2063616c6c206661696c65640000815250613694565b5490565b815460009082106135625760405162461bcd60e51b8152600401808060200182810382526022815260200180614a6c6022913960400191505060405180910390fd5b82600001828154811061357157fe5b9060005260206000200154905092915050565b60006135908383613747565b6135c657508154600181810184556000848152602080822090930184905584548482528286019093526040902091909155610c01565b506000610c01565b6000818152600183016020526040812054801561368a578354600019808301919081019060009087908390811061360157fe5b906000526020600020015490508087600001848154811061361e57fe5b60009182526020808320909101929092558281526001898101909252604090209084019055865487908061364e57fe5b60019003818190600052602060002001600090559055866001016000878152602001908152602001600020600090556001945050505050610c01565b6000915050610c01565b60606113fb848460008561375f565b60006136ad613a9d565b606660009054906101000a90046001600160a01b03166001600160a01b0316630cdc105a6040518163ffffffff1660e01b81526004016102806040518083038186803b1580156136fc57600080fd5b505afa158015613710573d6000803e3d6000fd5b505050506040513d601f19601f820116820180604052508101906137349190613ea1565b50509250505080600160078110612a5b57fe5b60009081526001919091016020526040902054151590565b6060824710156137a05760405162461bcd60e51b8152600401808060200182810382526026815260200180614b406026913960400191505060405180910390fd5b6137a9856134d4565b6137fa576040805162461bcd60e51b815260206004820152601d60248201527f416464726573733a2063616c6c20746f206e6f6e2d636f6e7472616374000000604482015290519081900360640190fd5b60006060866001600160a01b031685876040518082805190602001908083835b602083106138395780518252601f19909201916020918201910161381a565b6001836020036101000a03801982511681845116808217855250505050505090500191505060006040518083038185875af1925050503d806000811461389b576040519150601f19603f3d011682016040523d82523d6000602084013e6138a0565b606091505b50915091506138b08282866138bb565b979650505050505050565b606083156138ca575081610d53565b8251156138da5782518084602001fd5b60405162461bcd60e51b81526020600482018181528451602484015284518593919283926044019190850190808383600083156127ba5781810151838201526020016127a2565b604080516060810182526000808252602082018190529181019190915290565b6040518060c001604052806006906020820280368337509192915050565b8280548282559060005260206000209081019282156139ac579160200282015b828111156139ac578251805161399c918491602090910190613a15565b509160200191906001019061397f565b506139b8929150613abb565b5090565b828054828255906000526020600020908101928215613a09579160200282015b82811115613a0957825180516139f9918491602090910190613a15565b50916020019190600101906139dc565b506139b8929150613ad8565b828054600181600116156101000203166002900490600052602060002090601f016020900481019282613a4b5760008555613a91565b82601f10613a6457805160ff1916838001178555613a91565b82800160010185558215613a91579182015b82811115613a91578251825591602001919060010190613a76565b506139b8929150613af5565b6040518060e001604052806007906020820280368337509192915050565b808211156139b8576000613acf8282613b0a565b50600101613abb565b808211156139b8576000613aec8282613b0a565b50600101613ad8565b5b808211156139b85760008155600101613af6565b50805460018160011615610100020316600290046000825580601f10613b305750612857565b601f0160209004906000526020600020908101906128579190613af5565b600082601f830112613b5e578081fd5b8135613b71613b6c826149d6565b6149b2565b818152915060208083019084810160005b84811015613bab57613b99888484358a0101613c8b565b84529282019290820190600101613b82565b505050505092915050565b600082601f830112613bc6578081fd5b60405160a0810181811067ffffffffffffffff82111715613be357fe5b6040529050808260a08101851015613bfa57600080fd5b60005b6005811015613c1c578151835260209283019290910190600101613bfd565b50505092915050565b600082601f830112613c35578081fd5b60405160c0810181811067ffffffffffffffff82111715613c5257fe5b6040529050808260c08101851015613c6957600080fd5b60005b6006811015613c1c578151835260209283019290910190600101613c6c565b600082601f830112613c9b578081fd5b813567ffffffffffffffff811115613caf57fe5b613cc2601f8201601f19166020016149b2565b9150808252836020828501011115613cd957600080fd5b8060208401602084013760009082016020015292915050565b600060208284031215613d03578081fd5b8135610d5381614a24565b60008060408385031215613d20578081fd5b8235613d2b81614a24565b91506020830135613d3b81614a24565b809150509250929050565b600080600060608486031215613d5a578081fd5b8335613d6581614a24565b92506020840135613d7581614a24565b929592945050506040919091013590565b60008060408385031215613d98578182fd5b8235613da381614a24565b946020939093013593505050565b600080600060608486031215613dc5578283fd5b833567ffffffffffffffff80821115613ddc578485fd5b818601915086601f830112613def578485fd5b8135613dfd613b6c826149d6565b81815260208082019190858101895b85811015613e3557613e238d8484358b0101613c8b565b85529382019390820190600101613e0c565b50919850890135945050505080821115613e4d578384fd5b613e5987838801613b4e565b93506040860135915080821115613e6e578283fd5b50613e7b86828701613c8b565b9150509250925092565b600060208284031215613e96578081fd5b8151610d5381614a39565b60008060008060006102808688031215613eb9578283fd5b8551613ec481614a39565b80955050602080870151613ed781614a39565b9450605f87018813613ee7578384fd5b613ef160e06149b2565b80604089016101208a018b811115613f07578788fd5b875b6007811015613f2f578251613f1d81614a24565b85529385019391850191600101613f09565b50829750613f3d8c82613bb6565b96505050505050613f52876101c08801613c25565b90509295509295909350565b600060208284031215613f6f578081fd5b5051919050565b60008060008060808587031215613f8b578182fd5b84359350602085013567ffffffffffffffff80821115613fa9578384fd5b613fb588838901613c8b565b94506040870135915080821115613fca578384fd5b613fd688838901613c8b565b93506060870135915080821115613feb578283fd5b50613ff887828801613c8b565b91505092959194509250565b600060208284031215614015578081fd5b813567ffffffffffffffff81111561402b578182fd5b6113fb84828501613c8b565b60008060008060008060c0878903121561404f578384fd5b863567ffffffffffffffff80821115614066578586fd5b6140728a838b01613c8b565b97506020890135915080821115614087578586fd5b5061409489828a01613c8b565b95505060408701356140a581614a24565b935060608701356140b581614a24565b925060808701356140c581614a24565b915060a08701356140d581614a24565b809150509295509295509295565b6000602082840312156140f4578081fd5b5035919050565b6000806040838503121561410d578182fd5b823591506020830135613d3b81614a24565b60008060408385031215614131578182fd5b823591506020830135613d3b81614a39565b6000815180845260208085018081965082840281019150828601855b858110156141895782840389526141778483516141dc565b9885019893509084019060010161415f565b5091979650505050505050565b6000815180845260208085018081965082840281019150828601855b858110156141895782840389526141ca8483516141dc565b988501989350908401906001016141b2565b600081518084526141f48160208601602086016149f4565b601f01601f19169290920160200192915050565b60007fffffffff000000000000000000000000000000000000000000000000000000008416825282516142428160048501602087016149f4565b919091016004019392505050565b6001600160a01b0391909116815260200190565b6001600160a01b0392831681529116602082015260400190565b60006001600160a01b0386168252608060208301526142a060808301866141dc565b82810360408401526142b281866141dc565b91505082606083015295945050505050565b6001600160a01b03949094168452602084019290925215156040830152606082015260800190565b6000604082526142ff6040830185614196565b82810360208401526119ad8185614143565b901515815260200190565b90815260200190565b918252602082015260400190565b60008482526060602083015261434c60608301856141dc565b828103604084015261435e81856141dc565b9695505050505050565b7fffffffff0000000000000000000000000000000000000000000000000000000091909116815260200190565b60208101600783106143a357fe5b91905290565b600060208252610d5360208301846141dc565b6000606082526143cf60608301866141dc565b82810360208401526143e181866141dc565b915050826040830152949350505050565b60208082526013908201527f696e76616c69642070726f706f73616c20696400000000000000000000000000604082015260600190565b60208082526010908201527f746f6f206d616e7920616374696f6e7300000000000000000000000000000000604082015260600190565b60208082526018908201527f70726f706f73616c207468726573686f6c6420756e6d65740000000000000000604082015260600190565b60208082526014908201527f6d7573742070726f7669646520616374696f6e73000000000000000000000000604082015260600190565b60208082526016908201527f6d757374206265206d696e74657220746f206d696e7400000000000000000000604082015260600190565b60208082526018908201527f6c6173742070726f706f73616c2069732070656e64696e670000000000000000604082015260600190565b60208082526015908201527f6163636f756e7420616c726561647920766f7465640000000000000000000000604082015260600190565b60208082526010908201527f73656e646572206973206c6f636b656400000000000000000000000000000000604082015260600190565b60208082526010908201527f766f74696e6720697320636c6f73656400000000000000000000000000000000604082015260600190565b60208082526017908201527f6c6173742070726f706f73616c20697320616374697665000000000000000000604082015260600190565b60208082526027908201527f5472616e73616374696f6e206861736e2774207375727061737365642074696d60408201527f65206c6f636b2e00000000000000000000000000000000000000000000000000606082015260800190565b6020808252602e908201527f70726f706f736572206d757374206265206f70657261746f72207768656e206f60408201527f70657261746f7220657869737473000000000000000000000000000000000000606082015260800190565b60208082526016908201527f6d757374206265206d696e74657220746f206275726e00000000000000000000604082015260600190565b60208082526039908201527f70726f706f73616c2063616e206f6e6c7920626520657865637574656420696660408201527f206974206973207375636365737320616e642071756575656400000000000000606082015260800190565b60208082526022908201527f76657273696f6e20746f207570677261646520746f206973206e6f742076616c60408201527f6964000000000000000000000000000000000000000000000000000000000000606082015260800190565b60208082526027908201527f76657273696f6e20746f207570677261646520746f206973206e6f7420636f6d60408201527f70617469626c6500000000000000000000000000000000000000000000000000606082015260800190565b60208082526023908201527f66756e6374696f6e20696e666f726d6174696f6e206172697479206d69736d6160408201527f7463680000000000000000000000000000000000000000000000000000000000606082015260800190565b60208082526015908201527f5472616e73616374696f6e206973207374616c652e0000000000000000000000604082015260600190565b8151151581526020808301511515908201526040918201519181019190915260600190565b60006101208b83526001600160a01b03808c166020850152808b1660408501525080606084015261490c8184018a614196565b905082810360808401526149208189614143565b90508660a08401528560c08401528460e084015282810361010084015261494781856141dc565b9c9b505050505050505050505050565b9889526001600160a01b0397881660208a01529590961660408801526060870193909352608086019190915260a085015260c084015260e083019190915215156101008201526101200190565b60ff91909116815260200190565b60405181810167ffffffffffffffff811182821017156149ce57fe5b604052919050565b600067ffffffffffffffff8211156149ea57fe5b5060209081020190565b60005b83811015614a0f5781810151838201526020016149f7565b83811115614a1e576000848401525b50505050565b6001600160a01b038116811461285757600080fd5b801515811461285757600080fdfe63616c6c6572206d757374206265206f776e6572206f6620706f6f6c2063726561746f72456e756d657261626c655365743a20696e646578206f7574206f6620626f756e647345524332303a207472616e7366657220746f20746865207a65726f206164647265737345524332303a206275726e20616d6f756e7420657863656564732062616c616e636545524332303a20617070726f766520746f20746865207a65726f206164647265737375706772616465546f416e6443616c6c28627974657333322c62797465732c62797465732945524332303a207472616e7366657220616d6f756e7420657863656564732062616c616e6365416464726573733a20696e73756666696369656e742062616c616e636520666f722063616c6c496e697469616c697a61626c653a20636f6e747261637420697320616c726561647920696e697469616c697a6564536166654d6174683a206d756c7469706c69636174696f6e206f766572666c6f7745524332303a207472616e7366657220616d6f756e74206578636565647320616c6c6f77616e636545524332303a206275726e2066726f6d20746865207a65726f206164647265737345524332303a207472616e736665722066726f6d20746865207a65726f206164647265737345524332303a20617070726f76652066726f6d20746865207a65726f2061646472657373666f726365546f536574456d657267656e637953746174652875696e743235362c696e74323536295361666545524332303a204552433230206f7065726174696f6e20646964206e6f74207375636365656445524332303a2064656372656173656420616c6c6f77616e63652062656c6f77207a65726fa264697066735822122052900c77032cc614158d09284e9534578b987cf83d84086cbc794e30da389e3864736f6c63430007040033",
  "linkReferences": {},
  "deployedLinkReferences": {}
}