{
  "_format": "hh-sol-artifact-1",
  "contractName": "TestTrade",
  "sourceName": "contracts/test/TestTrade.sol",
  "abi": [
    {
      "inputs": [],
      "stateMutability": "nonpayable",
      "type": "constructor"
    },
    {
      "inputs": [
        {
          "internalType": "address",
          "name": "trader",
          "type": "address"
        },
        {
          "internalType": "uint256",
          "name": "perpetualIndex",
          "type": "uint256"
        }
      ],
      "name": "activatePerpetualFor",
      "outputs": [
        {
          "internalType": "bool",
          "name": "",
          "type": "bool"
        }
      ],
      "stateMutability": "nonpayable",
      "type": "function"
    },
    {
      "inputs": [
        {
          "internalType": "address",
          "name": "trader",
          "type": "address"
        },
        {
          "internalType": "int256",
          "name": "cashToAdd",
          "type": "int256"
        }
      ],
      "name": "addLiquidity",
      "outputs": [],
      "stateMutability": "nonpayable",
      "type": "function"
    },
    {
      "inputs": [
        {
          "internalType": "bytes",
          "name": "orderData",
          "type": "bytes"
        },
        {
          "internalType": "int256",
          "name": "amount",
          "type": "int256"
        }
      ],
      "name": "brokerTrade",
      "outputs": [
        {
          "internalType": "int256",
          "name": "",
          "type": "int256"
        }
      ],
      "stateMutability": "nonpayable",
      "type": "function"
    },
    {
      "inputs": [],
      "name": "claimOperator",
      "outputs": [],
      "stateMutability": "nonpayable",
      "type": "function"
    },
    {
      "inputs": [
        {
          "internalType": "uint256",
          "name": "perpetualIndex",
          "type": "uint256"
        },
        {
          "internalType": "address",
          "name": "trader",
          "type": "address"
        }
      ],
      "name": "clear",
      "outputs": [
        {
          "internalType": "bool",
          "name": "isAllCleared",
          "type": "bool"
        }
      ],
      "stateMutability": "nonpayable",
      "type": "function"
    },
    {
      "inputs": [
        {
          "internalType": "uint256",
          "name": "perpetualIndex",
          "type": "uint256"
        }
      ],
      "name": "clearP",
      "outputs": [],
      "stateMutability": "nonpayable",
      "type": "function"
    },
    {
      "inputs": [
        {
          "internalType": "address",
          "name": "oracle",
          "type": "address"
        },
        {
          "internalType": "int256[9]",
          "name": "baseParams",
          "type": "int256[9]"
        },
        {
          "internalType": "int256[8]",
          "name": "riskParams",
          "type": "int256[8]"
        }
      ],
      "name": "createPerpetual",
      "outputs": [],
      "stateMutability": "nonpayable",
      "type": "function"
    },
    {
      "inputs": [
        {
          "internalType": "uint256",
          "name": "perpetualIndex",
          "type": "uint256"
        },
        {
          "internalType": "int256",
          "name": "amount",
          "type": "int256"
        }
      ],
      "name": "decreaseTotalCollateral",
      "outputs": [],
      "stateMutability": "nonpayable",
      "type": "function"
    },
    {
      "inputs": [
        {
          "internalType": "uint256",
          "name": "perpetualIndex",
          "type": "uint256"
        },
        {
          "internalType": "address",
          "name": "trader",
          "type": "address"
        },
        {
          "internalType": "int256",
          "name": "amount",
          "type": "int256"
        }
      ],
      "name": "deposit",
      "outputs": [
        {
          "internalType": "bool",
          "name": "isInitialDeposit",
          "type": "bool"
        }
      ],
      "stateMutability": "nonpayable",
      "type": "function"
    },
    {
      "inputs": [
        {
          "internalType": "uint256",
          "name": "perpetualIndex",
          "type": "uint256"
        },
        {
          "internalType": "address",
          "name": "trader",
          "type": "address"
        },
        {
          "internalType": "int256",
          "name": "amount",
          "type": "int256"
        }
      ],
      "name": "depositP",
      "outputs": [],
      "stateMutability": "nonpayable",
      "type": "function"
    },
    {
      "inputs": [
        {
          "internalType": "uint256",
          "name": "perpetualIndex",
          "type": "uint256"
        },
        {
          "internalType": "address",
          "name": "trader",
          "type": "address"
        }
      ],
      "name": "deregisterActiveAccount",
      "outputs": [],
      "stateMutability": "nonpayable",
      "type": "function"
    },
    {
      "inputs": [
        {
          "internalType": "int256",
          "name": "amount",
          "type": "int256"
        }
      ],
      "name": "donateInsuranceFund",
      "outputs": [],
      "stateMutability": "nonpayable",
      "type": "function"
    },
    {
      "inputs": [
        {
          "internalType": "int256",
          "name": "amount",
          "type": "int256"
        }
      ],
      "name": "donateInsuranceFundP",
      "outputs": [],
      "stateMutability": "nonpayable",
      "type": "function"
    },
    {
      "inputs": [
        {
          "internalType": "address",
          "name": "trader",
          "type": "address"
        },
        {
          "internalType": "int256",
          "name": "cashToAdd",
          "type": "int256"
        }
      ],
      "name": "donateLiquidity",
      "outputs": [],
      "stateMutability": "nonpayable",
      "type": "function"
    },
    {
      "inputs": [],
      "name": "getAccessController",
      "outputs": [
        {
          "internalType": "address",
          "name": "",
          "type": "address"
        }
      ],
      "stateMutability": "view",
      "type": "function"
    },
    {
      "inputs": [
        {
          "internalType": "uint256",
          "name": "perpetualIndex",
          "type": "uint256"
        }
      ],
      "name": "getActiveUserCount",
      "outputs": [
        {
          "internalType": "uint256",
          "name": "count",
          "type": "uint256"
        }
      ],
      "stateMutability": "view",
      "type": "function"
    },
    {
      "inputs": [
        {
          "internalType": "uint256",
          "name": "exclusiveIndex",
          "type": "uint256"
        }
      ],
      "name": "getAvailablePoolCash",
      "outputs": [
        {
          "internalType": "int256",
          "name": "availablePoolCash",
          "type": "int256"
        }
      ],
      "stateMutability": "view",
      "type": "function"
    },
    {
      "inputs": [],
      "name": "getDonatedInsuranceFund",
      "outputs": [
        {
          "internalType": "int256",
          "name": "",
          "type": "int256"
        }
      ],
      "stateMutability": "view",
      "type": "function"
    },
    {
      "inputs": [
        {
          "internalType": "uint256",
          "name": "perpetualIndex",
          "type": "uint256"
        },
        {
          "internalType": "address",
          "name": "trader",
          "type": "address"
        },
        {
          "internalType": "address",
          "name": "referrer",
          "type": "address"
        },
        {
          "internalType": "int256",
          "name": "tradeValue",
          "type": "int256"
        },
        {
          "internalType": "bool",
          "name": "hasOpened",
          "type": "bool"
        }
      ],
      "name": "getFees",
      "outputs": [
        {
          "internalType": "int256",
          "name": "lpFee",
          "type": "int256"
        },
        {
          "internalType": "int256",
          "name": "operatorFee",
          "type": "int256"
        },
        {
          "internalType": "int256",
          "name": "vaultFee",
          "type": "int256"
        },
        {
          "internalType": "int256",
          "name": "referralRebate",
          "type": "int256"
        }
      ],
      "stateMutability": "view",
      "type": "function"
    },
    {
      "inputs": [
        {
          "internalType": "uint256",
          "name": "perpetualIndex",
          "type": "uint256"
        }
      ],
      "name": "getFundingRate",
      "outputs": [
        {
          "internalType": "int256",
          "name": "",
          "type": "int256"
        }
      ],
      "stateMutability": "view",
      "type": "function"
    },
    {
      "inputs": [],
      "name": "getFundingTime",
      "outputs": [
        {
          "internalType": "uint256",
          "name": "",
          "type": "uint256"
        }
      ],
      "stateMutability": "view",
      "type": "function"
    },
    {
      "inputs": [
        {
          "internalType": "uint256",
          "name": "perpetualIndex",
          "type": "uint256"
        }
      ],
      "name": "getIndexPrice",
      "outputs": [
        {
          "internalType": "int256",
          "name": "price",
          "type": "int256"
        }
      ],
      "stateMutability": "view",
      "type": "function"
    },
    {
      "inputs": [],
      "name": "getInsuranceFund",
      "outputs": [
        {
          "internalType": "int256",
          "name": "",
          "type": "int256"
        }
      ],
      "stateMutability": "view",
      "type": "function"
    },
    {
      "inputs": [
        {
          "internalType": "uint256",
          "name": "perpetualIndex",
          "type": "uint256"
        },
        {
          "internalType": "address",
          "name": "trader",
          "type": "address"
        }
      ],
      "name": "getMargin",
      "outputs": [
        {
          "internalType": "int256",
          "name": "",
          "type": "int256"
        }
      ],
      "stateMutability": "view",
      "type": "function"
    },
    {
      "inputs": [
        {
          "internalType": "uint256",
          "name": "perpetualIndex",
          "type": "uint256"
        },
        {
          "internalType": "address",
          "name": "trader",
          "type": "address"
        }
      ],
      "name": "getMarginAccount",
      "outputs": [
        {
          "internalType": "int256",
          "name": "cash",
          "type": "int256"
        },
        {
          "internalType": "int256",
          "name": "position",
          "type": "int256"
        }
      ],
      "stateMutability": "view",
      "type": "function"
    },
    {
      "inputs": [
        {
          "internalType": "uint256",
          "name": "perpetualIndex",
          "type": "uint256"
        }
      ],
      "name": "getMarkPrice",
      "outputs": [
        {
          "internalType": "int256",
          "name": "price",
          "type": "int256"
        }
      ],
      "stateMutability": "view",
      "type": "function"
    },
    {
      "inputs": [
        {
          "internalType": "uint256",
          "name": "perpetualIndex",
          "type": "uint256"
        }
      ],
      "name": "getNextActiveAccount",
      "outputs": [
        {
          "internalType": "address",
          "name": "account",
          "type": "address"
        }
      ],
      "stateMutability": "view",
      "type": "function"
    },
    {
      "inputs": [
        {
          "internalType": "uint256",
          "name": "perpetualIndex",
          "type": "uint256"
        }
      ],
      "name": "getOpenInterest",
      "outputs": [
        {
          "internalType": "int256",
          "name": "",
          "type": "int256"
        }
      ],
      "stateMutability": "view",
      "type": "function"
    },
    {
      "inputs": [],
      "name": "getOperator",
      "outputs": [
        {
          "internalType": "address",
          "name": "",
          "type": "address"
        }
      ],
      "stateMutability": "view",
      "type": "function"
    },
    {
      "inputs": [],
      "name": "getPoolCash",
      "outputs": [
        {
          "internalType": "int256",
          "name": "",
          "type": "int256"
        }
      ],
      "stateMutability": "view",
      "type": "function"
    },
    {
      "inputs": [
        {
          "internalType": "uint256",
          "name": "perpetualIndex",
          "type": "uint256"
        }
      ],
      "name": "getRebalanceMargin",
      "outputs": [
        {
          "internalType": "int256",
          "name": "marginToRebalance",
          "type": "int256"
        }
      ],
      "stateMutability": "view",
      "type": "function"
    },
    {
      "inputs": [
        {
          "internalType": "uint256",
          "name": "perpetualIndex",
          "type": "uint256"
        }
      ],
      "name": "getRedemptionRateWithPosition",
      "outputs": [
        {
          "internalType": "int256",
          "name": "",
          "type": "int256"
        }
      ],
      "stateMutability": "view",
      "type": "function"
    },
    {
      "inputs": [
        {
          "internalType": "uint256",
          "name": "perpetualIndex",
          "type": "uint256"
        }
      ],
      "name": "getRedemptionRateWithoutPosition",
      "outputs": [
        {
          "internalType": "int256",
          "name": "",
          "type": "int256"
        }
      ],
      "stateMutability": "view",
      "type": "function"
    },
    {
      "inputs": [
        {
          "internalType": "uint256",
          "name": "perpetualIndex",
          "type": "uint256"
        },
        {
          "internalType": "address",
          "name": "trader",
          "type": "address"
        }
      ],
      "name": "getSettleableMargin",
      "outputs": [
        {
          "internalType": "int256",
          "name": "margin",
          "type": "int256"
        }
      ],
      "stateMutability": "view",
      "type": "function"
    },
    {
      "inputs": [
        {
          "internalType": "uint256",
          "name": "perpetualIndex",
          "type": "uint256"
        }
      ],
      "name": "getState",
      "outputs": [
        {
          "internalType": "enum PerpetualState",
          "name": "",
          "type": "uint8"
        }
      ],
      "stateMutability": "view",
      "type": "function"
    },
    {
      "inputs": [
        {
          "internalType": "uint256",
          "name": "perpetualIndex",
          "type": "uint256"
        }
      ],
      "name": "getTotalCollateral",
      "outputs": [
        {
          "internalType": "int256",
          "name": "",
          "type": "int256"
        }
      ],
      "stateMutability": "view",
      "type": "function"
    },
    {
      "inputs": [
        {
          "internalType": "uint256",
          "name": "perpetualIndex",
          "type": "uint256"
        }
      ],
      "name": "getTotalMarginWithPosition",
      "outputs": [
        {
          "internalType": "int256",
          "name": "",
          "type": "int256"
        }
      ],
      "stateMutability": "view",
      "type": "function"
    },
    {
      "inputs": [
        {
          "internalType": "uint256",
          "name": "perpetualIndex",
          "type": "uint256"
        }
      ],
      "name": "getTotalMarginWithoutPosition",
      "outputs": [
        {
          "internalType": "int256",
          "name": "",
          "type": "int256"
        }
      ],
      "stateMutability": "view",
      "type": "function"
    },
    {
      "inputs": [],
      "name": "getTransferringOperator",
      "outputs": [
        {
          "internalType": "address",
          "name": "",
          "type": "address"
        }
      ],
      "stateMutability": "view",
      "type": "function"
    },
    {
      "inputs": [
        {
          "internalType": "uint256",
          "name": "perpetualIndex",
          "type": "uint256"
        }
      ],
      "name": "getUnitAccumulativeFunding",
      "outputs": [
        {
          "internalType": "int256",
          "name": "unitAccumulativeFunding",
          "type": "int256"
        }
      ],
      "stateMutability": "view",
      "type": "function"
    },
    {
      "inputs": [],
      "name": "getVault",
      "outputs": [
        {
          "internalType": "address",
          "name": "",
          "type": "address"
        }
      ],
      "stateMutability": "view",
      "type": "function"
    },
    {
      "inputs": [],
      "name": "getVaultFeeRate",
      "outputs": [
        {
          "internalType": "int256",
          "name": "",
          "type": "int256"
        }
      ],
      "stateMutability": "view",
      "type": "function"
    },
    {
      "inputs": [
        {
          "internalType": "int256",
          "name": "amount",
          "type": "int256"
        },
        {
          "internalType": "int256",
          "name": "delta",
          "type": "int256"
        }
      ],
      "name": "hasOpenedPosition",
      "outputs": [
        {
          "internalType": "bool",
          "name": "hasOpened",
          "type": "bool"
        }
      ],
      "stateMutability": "pure",
      "type": "function"
    },
    {
      "inputs": [
        {
          "internalType": "uint256",
          "name": "perpetualIndex",
          "type": "uint256"
        },
        {
          "internalType": "int256",
          "name": "amount",
          "type": "int256"
        }
      ],
      "name": "increaseTotalCollateral",
      "outputs": [],
      "stateMutability": "nonpayable",
      "type": "function"
    },
    {
      "inputs": [
        {
          "internalType": "address",
          "name": "trader",
          "type": "address"
        },
        {
          "internalType": "address",
          "name": "grantor",
          "type": "address"
        },
        {
          "internalType": "uint256",
          "name": "privilege",
          "type": "uint256"
        }
      ],
      "name": "isAuthorized",
      "outputs": [
        {
          "internalType": "bool",
          "name": "isGranted",
          "type": "bool"
        }
      ],
      "stateMutability": "view",
      "type": "function"
    },
    {
      "inputs": [
        {
          "internalType": "address",
          "name": "grantor",
          "type": "address"
        },
        {
          "internalType": "address",
          "name": "grantee",
          "type": "address"
        },
        {
          "internalType": "uint256",
          "name": "privilege",
          "type": "uint256"
        }
      ],
      "name": "isGranted",
      "outputs": [
        {
          "internalType": "bool",
          "name": "",
          "type": "bool"
        }
      ],
      "stateMutability": "view",
      "type": "function"
    },
    {
      "inputs": [
        {
          "internalType": "uint256",
          "name": "perpetualIndex",
          "type": "uint256"
        },
        {
          "internalType": "address",
          "name": "trader",
          "type": "address"
        }
      ],
      "name": "isTraderRegistered",
      "outputs": [
        {
          "internalType": "bool",
          "name": "isRegistered",
          "type": "bool"
        }
      ],
      "stateMutability": "view",
      "type": "function"
    },
    {
      "inputs": [
        {
          "internalType": "uint256",
          "name": "perpetualIndex",
          "type": "uint256"
        },
        {
          "internalType": "address",
          "name": "liquidator",
          "type": "address"
        },
        {
          "internalType": "address",
          "name": "trader",
          "type": "address"
        }
      ],
      "name": "liquidateByAMM",
      "outputs": [
        {
          "internalType": "int256",
          "name": "deltaPosition",
          "type": "int256"
        }
      ],
      "stateMutability": "nonpayable",
      "type": "function"
    },
    {
      "inputs": [
        {
          "internalType": "uint256",
          "name": "perpetualIndex",
          "type": "uint256"
        },
        {
          "internalType": "address",
          "name": "trader",
          "type": "address"
        },
        {
          "internalType": "address",
          "name": "referrer",
          "type": "address"
        },
        {
          "internalType": "int256",
          "name": "deltaCash",
          "type": "int256"
        },
        {
          "internalType": "int256",
          "name": "deltaPosition",
          "type": "int256"
        },
        {
          "internalType": "uint32",
          "name": "flags",
          "type": "uint32"
        }
      ],
      "name": "postTrade",
      "outputs": [
        {
          "internalType": "int256",
          "name": "lpFee",
          "type": "int256"
        },
        {
          "internalType": "int256",
          "name": "totalFee",
          "type": "int256"
        }
      ],
      "stateMutability": "nonpayable",
      "type": "function"
    },
    {
      "inputs": [
        {
          "internalType": "uint256",
          "name": "perpetualIndex",
          "type": "uint256"
        }
      ],
      "name": "rebalance",
      "outputs": [],
      "stateMutability": "nonpayable",
      "type": "function"
    },
    {
      "inputs": [
        {
          "internalType": "uint256",
          "name": "perpetualIndex",
          "type": "uint256"
        },
        {
          "internalType": "address",
          "name": "trader",
          "type": "address"
        }
      ],
      "name": "registerActiveAccount",
      "outputs": [],
      "stateMutability": "nonpayable",
      "type": "function"
    },
    {
      "inputs": [
        {
          "internalType": "address",
          "name": "trader",
          "type": "address"
        },
        {
          "internalType": "int256",
          "name": "shareToRemove",
          "type": "int256"
        },
        {
          "internalType": "int256",
          "name": "cashToReturn",
          "type": "int256"
        }
      ],
      "name": "removeLiquidity",
      "outputs": [],
      "stateMutability": "nonpayable",
      "type": "function"
    },
    {
      "inputs": [],
      "name": "revokeOperator",
      "outputs": [],
      "stateMutability": "nonpayable",
      "type": "function"
    },
    {
      "inputs": [],
      "name": "runLiquidityPool",
      "outputs": [],
      "stateMutability": "nonpayable",
      "type": "function"
    },
    {
      "inputs": [
        {
          "internalType": "uint256",
          "name": "perpetualIndex",
          "type": "uint256"
        }
      ],
      "name": "setClearedState",
      "outputs": [],
      "stateMutability": "nonpayable",
      "type": "function"
    },
    {
      "inputs": [
        {
          "internalType": "address",
          "name": "collateralToken",
          "type": "address"
        },
        {
          "internalType": "uint256",
          "name": "collateralDecimals",
          "type": "uint256"
        }
      ],
      "name": "setCollateralToken",
      "outputs": [],
      "stateMutability": "nonpayable",
      "type": "function"
    },
    {
      "inputs": [
        {
          "internalType": "int256",
          "name": "amount",
          "type": "int256"
        }
      ],
      "name": "setDonatedInsuranceFund",
      "outputs": [],
      "stateMutability": "nonpayable",
      "type": "function"
    },
    {
      "inputs": [
        {
          "internalType": "uint256",
          "name": "perpetualIndex",
          "type": "uint256"
        }
      ],
      "name": "setEmergencyState",
      "outputs": [],
      "stateMutability": "nonpayable",
      "type": "function"
    },
    {
      "inputs": [
        {
          "internalType": "address",
          "name": "creator",
          "type": "address"
        }
      ],
      "name": "setFactory",
      "outputs": [],
      "stateMutability": "nonpayable",
      "type": "function"
    },
    {
      "inputs": [
        {
          "internalType": "uint256",
          "name": "perpetualIndex",
          "type": "uint256"
        },
        {
          "internalType": "int256",
          "name": "fundingRate",
          "type": "int256"
        }
      ],
      "name": "setFundingRate",
      "outputs": [],
      "stateMutability": "nonpayable",
      "type": "function"
    },
    {
      "inputs": [
        {
          "internalType": "uint256",
          "name": "fundingTime",
          "type": "uint256"
        }
      ],
      "name": "setFundingTime",
      "outputs": [],
      "stateMutability": "nonpayable",
      "type": "function"
    },
    {
      "inputs": [
        {
          "internalType": "address",
          "name": "governor",
          "type": "address"
        }
      ],
      "name": "setGovernor",
      "outputs": [],
      "stateMutability": "nonpayable",
      "type": "function"
    },
    {
      "inputs": [
        {
          "internalType": "int256",
          "name": "amount",
          "type": "int256"
        }
      ],
      "name": "setInsuranceFund",
      "outputs": [],
      "stateMutability": "nonpayable",
      "type": "function"
    },
    {
      "inputs": [
        {
          "internalType": "int256",
          "name": "insuranceFundCap",
          "type": "int256"
        }
      ],
      "name": "setInsuranceFundCap",
      "outputs": [],
      "stateMutability": "nonpayable",
      "type": "function"
    },
    {
      "inputs": [
        {
          "internalType": "bytes32",
          "name": "key",
          "type": "bytes32"
        },
        {
          "internalType": "int256",
          "name": "newValue",
          "type": "int256"
        }
      ],
      "name": "setLiquidityPoolParameter",
      "outputs": [],
      "stateMutability": "nonpayable",
      "type": "function"
    },
    {
      "inputs": [
        {
          "internalType": "uint256",
          "name": "perpetualIndex",
          "type": "uint256"
        },
        {
          "internalType": "address",
          "name": "trader",
          "type": "address"
        },
        {
          "internalType": "int256",
          "name": "cash",
          "type": "int256"
        },
        {
          "internalType": "int256",
          "name": "position",
          "type": "int256"
        }
      ],
      "name": "setMarginAccount",
      "outputs": [],
      "stateMutability": "nonpayable",
      "type": "function"
    },
    {
      "inputs": [
        {
          "internalType": "uint256",
          "name": "perpetualIndex",
          "type": "uint256"
        }
      ],
      "name": "setNormalState",
      "outputs": [],
      "stateMutability": "nonpayable",
      "type": "function"
    },
    {
      "inputs": [
        {
          "internalType": "address",
          "name": "operator",
          "type": "address"
        }
      ],
      "name": "setOperator",
      "outputs": [],
      "stateMutability": "nonpayable",
      "type": "function"
    },
    {
      "inputs": [
        {
          "internalType": "uint256",
          "name": "perpetualIndex",
          "type": "uint256"
        },
        {
          "internalType": "bytes32",
          "name": "key",
          "type": "bytes32"
        },
        {
          "internalType": "int256",
          "name": "newValue",
          "type": "int256"
        }
      ],
      "name": "setPerpetualBaseParameter",
      "outputs": [],
      "stateMutability": "nonpayable",
      "type": "function"
    },
    {
      "inputs": [
        {
          "internalType": "uint256",
          "name": "perpetualIndex",
          "type": "uint256"
        },
        {
          "internalType": "bytes32",
          "name": "key",
          "type": "bytes32"
        },
        {
          "internalType": "int256",
          "name": "newValue",
          "type": "int256"
        },
        {
          "internalType": "int256",
          "name": "newMinValue",
          "type": "int256"
        },
        {
          "internalType": "int256",
          "name": "newMaxValue",
          "type": "int256"
        }
      ],
      "name": "setPerpetualRiskParameter",
      "outputs": [],
      "stateMutability": "nonpayable",
      "type": "function"
    },
    {
      "inputs": [
        {
          "internalType": "int256",
          "name": "amount",
          "type": "int256"
        }
      ],
      "name": "setPoolCash",
      "outputs": [],
      "stateMutability": "nonpayable",
      "type": "function"
    },
    {
      "inputs": [
        {
          "internalType": "address",
          "name": "shareToken",
          "type": "address"
        }
      ],
      "name": "setShareToken",
      "outputs": [],
      "stateMutability": "nonpayable",
      "type": "function"
    },
    {
      "inputs": [
        {
          "internalType": "uint256",
          "name": "perpetualIndex",
          "type": "uint256"
        },
        {
          "internalType": "enum PerpetualState",
          "name": "state",
          "type": "uint8"
        }
      ],
      "name": "setState",
      "outputs": [],
      "stateMutability": "nonpayable",
      "type": "function"
    },
    {
      "inputs": [
        {
          "internalType": "uint256",
          "name": "perpetualIndex",
          "type": "uint256"
        },
        {
          "internalType": "address",
          "name": "account",
          "type": "address"
        },
        {
          "internalType": "int256",
          "name": "targetLeverage",
          "type": "int256"
        }
      ],
      "name": "setTargetLeverage",
      "outputs": [],
      "stateMutability": "nonpayable",
      "type": "function"
    },
    {
      "inputs": [
        {
          "internalType": "uint256",
          "name": "perpetualIndex",
          "type": "uint256"
        },
        {
          "internalType": "int256",
          "name": "amount",
          "type": "int256"
        }
      ],
      "name": "setTotalCollateral",
      "outputs": [],
      "stateMutability": "nonpayable",
      "type": "function"
    },
    {
      "inputs": [
        {
          "internalType": "uint256",
          "name": "perpetualIndex",
          "type": "uint256"
        },
        {
          "internalType": "int256",
          "name": "unitAccumulativeFunding",
          "type": "int256"
        }
      ],
      "name": "setUnitAccumulativeFunding",
      "outputs": [],
      "stateMutability": "nonpayable",
      "type": "function"
    },
    {
      "inputs": [
        {
          "internalType": "address",
          "name": "vault",
          "type": "address"
        },
        {
          "internalType": "int256",
          "name": "vaultFeeRate",
          "type": "int256"
        }
      ],
      "name": "setVault",
      "outputs": [],
      "stateMutability": "nonpayable",
      "type": "function"
    },
    {
      "inputs": [
        {
          "internalType": "uint256",
          "name": "perpetualIndex",
          "type": "uint256"
        },
        {
          "internalType": "address",
          "name": "trader",
          "type": "address"
        }
      ],
      "name": "settle",
      "outputs": [
        {
          "internalType": "int256",
          "name": "marginToReturn",
          "type": "int256"
        }
      ],
      "stateMutability": "nonpayable",
      "type": "function"
    },
    {
      "inputs": [
        {
          "internalType": "uint256",
          "name": "perpetualIndex",
          "type": "uint256"
        }
      ],
      "name": "settleCollateral",
      "outputs": [],
      "stateMutability": "nonpayable",
      "type": "function"
    },
    {
      "inputs": [
        {
          "internalType": "uint256",
          "name": "perpetualIndex",
          "type": "uint256"
        },
        {
          "internalType": "address",
          "name": "trader",
          "type": "address"
        }
      ],
      "name": "settleP",
      "outputs": [],
      "stateMutability": "nonpayable",
      "type": "function"
    },
    {
      "inputs": [
        {
          "internalType": "uint256",
          "name": "perpetualIndex",
          "type": "uint256"
        },
        {
          "internalType": "address",
          "name": "trader",
          "type": "address"
        },
        {
          "internalType": "int256",
          "name": "amount",
          "type": "int256"
        },
        {
          "internalType": "int256",
          "name": "limitPrice",
          "type": "int256"
        },
        {
          "internalType": "address",
          "name": "referrer",
          "type": "address"
        },
        {
          "internalType": "uint32",
          "name": "flags",
          "type": "uint32"
        }
      ],
      "name": "trade",
      "outputs": [],
      "stateMutability": "nonpayable",
      "type": "function"
    },
    {
      "inputs": [
        {
          "internalType": "address",
          "name": "newOperator",
          "type": "address"
        }
      ],
      "name": "transferOperator",
      "outputs": [],
      "stateMutability": "nonpayable",
      "type": "function"
    },
    {
      "inputs": [
        {
          "internalType": "uint256",
          "name": "perpetualIndex",
          "type": "uint256"
        },
        {
          "internalType": "int256",
          "name": "poolMargin",
          "type": "int256"
        }
      ],
      "name": "updateFundingRate",
      "outputs": [],
      "stateMutability": "nonpayable",
      "type": "function"
    },
    {
      "inputs": [],
      "name": "updateFundingRateP",
      "outputs": [],
      "stateMutability": "nonpayable",
      "type": "function"
    },
    {
      "inputs": [
        {
          "internalType": "uint256",
          "name": "perpetualIndex",
          "type": "uint256"
        },
        {
          "internalType": "int256",
          "name": "timeElapsed",
          "type": "int256"
        }
      ],
      "name": "updateFundingState",
      "outputs": [],
      "stateMutability": "nonpayable",
      "type": "function"
    },
    {
      "inputs": [
        {
          "internalType": "uint256",
          "name": "currentTime",
          "type": "uint256"
        }
      ],
      "name": "updateFundingStateP",
      "outputs": [],
      "stateMutability": "nonpayable",
      "type": "function"
    },
    {
      "inputs": [
        {
          "internalType": "int256",
          "name": "penaltyToFund",
          "type": "int256"
        }
      ],
      "name": "updateInsuranceFund",
      "outputs": [
        {
          "internalType": "int256",
          "name": "penaltyToLP",
          "type": "int256"
        }
      ],
      "stateMutability": "nonpayable",
      "type": "function"
    },
    {
      "inputs": [
        {
          "internalType": "uint256",
          "name": "perpetualIndex",
          "type": "uint256"
        },
        {
          "internalType": "bytes32",
          "name": "key",
          "type": "bytes32"
        },
        {
          "internalType": "int256",
          "name": "newValue",
          "type": "int256"
        }
      ],
      "name": "updatePerpetualRiskParameter",
      "outputs": [],
      "stateMutability": "nonpayable",
      "type": "function"
    },
    {
      "inputs": [
        {
          "internalType": "uint256",
          "name": "currentTime",
          "type": "uint256"
        }
      ],
      "name": "updatePrice",
      "outputs": [],
      "stateMutability": "nonpayable",
      "type": "function"
    },
    {
      "inputs": [
        {
          "internalType": "bool",
          "name": "isLong",
          "type": "bool"
        },
        {
          "internalType": "int256",
          "name": "price",
          "type": "int256"
        },
        {
          "internalType": "int256",
          "name": "limitPrice",
          "type": "int256"
        }
      ],
      "name": "validatePrice",
      "outputs": [],
      "stateMutability": "pure",
      "type": "function"
    },
    {
      "inputs": [
        {
          "internalType": "uint256",
          "name": "perpetualIndex",
          "type": "uint256"
        },
        {
          "internalType": "address",
          "name": "trader",
          "type": "address"
        },
        {
          "internalType": "int256",
          "name": "amount",
          "type": "int256"
        }
      ],
      "name": "withdraw",
      "outputs": [
        {
          "internalType": "bool",
          "name": "isLastWithdrawal",
          "type": "bool"
        }
      ],
      "stateMutability": "nonpayable",
      "type": "function"
    },
    {
      "inputs": [
        {
          "internalType": "uint256",
          "name": "perpetualIndex",
          "type": "uint256"
        },
        {
          "internalType": "address",
          "name": "trader",
          "type": "address"
        },
        {
          "internalType": "int256",
          "name": "amount",
          "type": "int256"
        }
      ],
      "name": "withdrawP",
      "outputs": [],
      "stateMutability": "nonpayable",
      "type": "function"
    }
  ],
  "bytecode": "0x608060405234801561001057600080fd5b506033805462010000600160b01b0319163062010000810291909117909155603880546001600160a01b0319169091179055614a0b806100516000396000f3fe608060405234801561001057600080fd5b50600436106106035760003560e01c806388b3482511610319578063b3ab15fb116101a7578063d19c973c116100f9578063d9339364116100a2578063efd69b021161007c578063efd69b0214610c69578063f499301814610c71578063f955f8a914610c8457610603565b8063d933936414610c3b578063ddc71fa414610c4e578063e7f43c6814610c6157610603565b8063d7ceb0de116100d3578063d7ceb0de14610c0d578063d7e3966f14610c20578063d8009be314610c2857610603565b8063d19c973c14610bdf578063d443df0714610bf2578063d54e65fb14610c0557610603565b8063c18dd1511161015b578063c50aae2f11610135578063c50aae2f14610ba6578063c662136614610bb9578063c9ff79e914610bcc57610603565b8063c18dd15114610b6d578063c2f3da1d14610b80578063c42cf53514610b9357610603565b8063b674759c1161018c578063b674759c14610b3f578063bbb364f214610b47578063c12b9f4214610b5a57610603565b8063b3ab15fb14610b19578063b661abc814610b2c57610603565b80639c89b3f51161026b578063a6d02eef11610214578063af0c98e6116101ee578063af0c98e614610aeb578063afc737d114610afe578063b080445614610b1157610603565b8063a6d02eef14610ab2578063a913523514610ac5578063acd6398414610ad857610603565b80639fe1cbc2116102455780639fe1cbc214610a84578063a35adf1114610a97578063a581171e14610a9f57610603565b80639c89b3f514610a4b5780639d7b175a14610a5e5780639f52a26114610a7157610603565b806392fcbd80116102cd578063965ff5bc116102a7578063965ff5bc14610a1257806396c8172e14610a25578063975d47a514610a3857610603565b806392fcbd80146109d95780639572518e146109ec578063962d1938146109ff57610603565b80638d928af8116102fe5780638d928af8146109b65780638dc7c977146109be578063900470b6146109d157610603565b806388b34825146109905780638d6cc56d146109a357610603565b806344c9af2811610496578063679dd8ec116103e857806378f140ea116103915780638002a9241161036b5780638002a924146107a9578063807b35761461095a57806386d4f7821461096d57610603565b806378f140ea146109215780637d39b294146109345780637d3ba80f1461094757610603565b80636e7fea7b116103c25780636e7fea7b146108e85780636ef05a40146108fb5780636fca8b991461090e57610603565b8063679dd8ec146108af578063686e51fd146108c257806369b990d3146108d557610603565b80634fababb31161044a5780635bb47808116104245780635bb47808146108765780636189b03d1461088957806366415e171461089c57610603565b80634fababb31461083d5780635af3d061146108505780635b1160791461086357610603565b806349f3ea561161047b57806349f3ea56146108045780634e9487fa146108175780634f4c7fa11461082a57610603565b806344c9af28146107dc578063492c26b6146107fc57610603565b8063280beddc1161055a57806334e5d8be1161050357806340f797bb116104dd57806340f797bb146107965780634293911e146107a9578063439adb78146107bc57610603565b806334e5d8be1461075d578063371773a814610770578063385975301461078357610603565b80633049f6fc116105345780633049f6fc146107245780633172f173146107375780633190e48e1461074a57610603565b8063280beddc146106eb57806329605e77146106fe5780632d47ba571461071157610603565b8063158626f7116105bc57806316f1405d1161059657806316f1405d146106b25780631b3ee0f1146106c557806325baaae2146106d857610603565b8063158626f714610682578063158b436c1461068a57806316d6b5f61461069d57610603565b80630b49da58116105ed5780630b49da581461063b578063120806471461065c578063148eba511461066f57610603565b8062f2e4601461060857806301bc09a614610626575b600080fd5b610610610c97565b60405161061d9190614373565b60405180910390f35b61063961063436600461407d565b610c9d565b005b61064e61064936600461401b565b610d29565b60405161061d92919061437c565b61061061066a366004613ee8565b610d4b565b61061061067d366004613ee8565b610d68565b610610610d80565b610639610698366004613ee8565b610d86565b6106a5610d8b565b60405161061d9190614340565b6106106106c0366004613ee8565b610d8f565b6106106106d3366004613ee8565b610e35565b6106396106e6366004613e2b565b610e4a565b6106396106f936600461407d565b610ede565b61063961070c366004613cc5565b610f35565b61063961071f36600461407d565b610fbb565b610610610732366004613ee8565b610fe8565b610610610745366004613f4d565b610ffd565b610639610758366004613ee8565b611028565b61063961076b366004613f4d565b61102d565b61061061077e366004613ee8565b611082565b610639610791366004613ee8565b611097565b6106396107a4366004613cc5565b6110ea565b6106396107b7366004613f4d565b611119565b6107cf6107ca366004613d91565b611136565b60405161061d9190614354565b6107ef6107ea366004613ee8565b61113e565b60405161061d919061435f565b610610611156565b610610610812366004613ee8565b61115c565b6106396108253660046140df565b6111b2565b610639610838366004613dbc565b6113a3565b61061061084b366004613e4c565b6113fa565b61061061085e366004613ee8565b6117ae565b610639610871366004613ee8565b6117c5565b610639610884366004613cc5565b611808565b610639610897366004614135565b611848565b6106396108aa366004613e2b565b611a63565b6106396108bd366004613ee8565b611a78565b6106396108d0366004613ee8565b611ad6565b6106396108e3366004613e2b565b611adb565b6106106108f6366004613ee8565b611af7565b6107cf61090936600461407d565b611b11565b61063961091c366004613ee8565b611bc2565b6107cf61092f36600461407d565b611c17565b610639610942366004613ee8565b611c78565b61064e610955366004613f4d565b611cbb565b610639610968366004614160565b611cee565b61098061097b366004613fbd565b611e6f565b60405161061d949392919061438a565b61063961099e366004614135565b611f43565b6106396109b1366004613ee8565b6120b6565b6106a56120f1565b6106106109cc366004613ee8565b612100565b61061061215d565b6106396109e7366004613e2b565b612163565b6106396109fa366004613ee8565b61217b565b610610610a0d366004613f4d565b6121d9565b610639610a2036600461419a565b61228f565b610639610a33366004613d91565b6122c2565b6106a5610a46366004613ee8565b612317565b610610610a59366004613f7c565b6123c4565b610639610a6c366004613e2b565b61246e565b610610610a7f366004613ee8565b6124e0565b6107cf610a92366004613e2b565b6124f5565b6106a5612501565b610639610aad366004613d91565b612510565b610639610ac0366004613ee8565b612565565b6107cf610ad3366004613f4d565b61256a565b610639610ae63660046140a3565b612585565b6107cf610af9366004613cfd565b6125b9565b610610610b0c366004613ee8565b612613565b610639612628565b610639610b27366004613cc5565b6126a5565b610639610b3a366004613ee8565b6126dd565b610639612717565b6107cf610b55366004613f4d565b612768565b610639610b68366004613e2b565b612817565b610610610b7b366004613ee8565b61282c565b6107cf610b8e366004613cfd565b612841565b610639610ba1366004613cc5565b61284a565b610639610bb4366004613e0c565b612879565b610639610bc7366004613d91565b612884565b610610610bda366004613f4d565b6128b7565b610639610bed366004613ee8565b6128da565b610639610c00366004613ee8565b612938565b61063961293d565b610639610c1b366004613d91565b612990565b6106106129e5565b610610610c36366004613ee8565b6129eb565b610639610c49366004613d3d565b612a00565b610639610c5c366004613e2b565b612aae565b6106a5612b0e565b610639612b1d565b610639610c7f366004613ee8565b612b55565b610639610c92366004613e2b565b612bf8565b603c5490565b6040517fa54b4d7800000000000000000000000000000000000000000000000000000000815273__$c7a04b010d7229ccbe3c515e91d1303780$__9063a54b4d7890610cf4906033908790879087906004016147cb565b60006040518083038186803b158015610d0c57600080fd5b505af4158015610d20573d6000803e3d6000fd5b50505050505050565b600080610d3c6033898989898989612c0d565b90999098509650505050505050565b6000818152604360205260408120610d6290612d45565b92915050565b6000818152604360205260409020602f01545b919050565b60455490565b604655565b3090565b6040517fccef4f1100000000000000000000000000000000000000000000000000000000815260009073__$c7a04b010d7229ccbe3c515e91d1303780$__9063ccef4f1190610de590603390869060040161437c565b60206040518083038186803b158015610dfd57600080fd5b505af4158015610e11573d6000803e3d6000fd5b505050506040513d601f19601f82011682018060405250810190610d629190613f00565b60009081526043602052604090206003015490565b6000828152604360205260409081902090517f3d1e253000000000000000000000000000000000000000000000000000000000815273__$74e2ba5c0a92ec095c0918ea877fa9275f$__91633d1e253091610eaa9190859060040161437c565b60006040518083038186803b158015610ec257600080fd5b505af4158015610ed6573d6000803e3d6000fd5b505050505050565b6040517f028c4ff600000000000000000000000000000000000000000000000000000000815273__$c7a04b010d7229ccbe3c515e91d1303780$__9063028c4ff690610cf4906033908790879087906004016147cb565b6040517f4f28feeb00000000000000000000000000000000000000000000000000000000815273__$c7a04b010d7229ccbe3c515e91d1303780$__90634f28feeb90610f88906033908590600401614617565b60006040518083038186803b158015610fa057600080fd5b505af4158015610fb4573d6000803e3d6000fd5b5050505050565b60009283526043602090815260408085206001600160a01b03909416855260349093019052912060020155565b6000908152604360205260409020600b015490565b60008281526043602052604081206110208361101883612d73565b839190612da1565b949350505050565b604455565b6040517fb2f6decc00000000000000000000000000000000000000000000000000000000815273__$c7a04b010d7229ccbe3c515e91d1303780$__9063b2f6decc90610eaa9060339086908690600401614785565b6000908152604360205260409020602e015490565b6040517f3d92b9a000000000000000000000000000000000000000000000000000000000815273__$c7a04b010d7229ccbe3c515e91d1303780$__90633d92b9a090610f8890603390859060040161437c565b6037805473ffffffffffffffffffffffffffffffffffffffff19166001600160a01b0392909216919091179055565b60008281526043602052604090206111319082612dfa565b505050565b600092915050565b60009081526043602052604090206001015460ff1690565b60755490565b6040517f70f546ce00000000000000000000000000000000000000000000000000000000815260009073__$c7a04b010d7229ccbe3c515e91d1303780$__906370f546ce90610de590603390869060040161437c565b60408051634b071c5760e11b815260336004820152426024820181905291516000929173__$c7a04b010d7229ccbe3c515e91d1303780$__9163960e38ae916044808201928792909190829003018186803b15801561121057600080fd5b505af4158015611224573d6000803e3d6000fd5b5050604080516304c43a9960e31b8152603360048201528515156024820152905173__$c7a04b010d7229ccbe3c515e91d1303780$__9350632621d4c892506044808301926000929190829003018186803b15801561128257600080fd5b505af4158015611296573d6000803e3d6000fd5b505060405163221eb65760e11b815273__$85738a9b50fe147d23ce9080d17e448cc6$__925063443d6cae91506112de906033908c908c908c908c908c908c906004016147ef565b60206040518083038186803b1580156112f657600080fd5b505af415801561130a573d6000803e3d6000fd5b505050506040513d601f19601f8201168201806040525081019061132e9190613f00565b5060408051634c86902960e11b815260336004820152905173__$c7a04b010d7229ccbe3c515e91d1303780$__9163990d2052916024808301926000929190829003018186803b15801561138157600080fd5b505af4158015611395573d6000803e3d6000fd5b505050505050505050505050565b6040517f2d7966d800000000000000000000000000000000000000000000000000000000815273__$c7a04b010d7229ccbe3c515e91d1303780$__90632d7966d890610cf490603390879087908790600401614672565b60408051634b071c5760e11b815260336004820152426024820181905291516000928392909173__$c7a04b010d7229ccbe3c515e91d1303780$__9163960e38ae9160448083019287929190829003018186803b15801561145a57600080fd5b505af415801561146e573d6000803e3d6000fd5b5050604080516304c43a9960e31b8152603360048201528515156024820152905173__$c7a04b010d7229ccbe3c515e91d1303780$__9350632621d4c892506044808301926000929190829003018186803b1580156114cc57600080fd5b505af41580156114e0573d6000803e3d6000fd5b505050506114ec613c35565b6114f586612e09565b9050606061150287612ef5565b6040517f8120e3d100000000000000000000000000000000000000000000000000000000815290915073__$b6905e4a302a713a1eaca5d53b662e815c$__90638120e3d19061155a90603390869086906004016146bb565b60006040518083038186803b15801561157257600080fd5b505af4158015611586573d6000803e3d6000fd5b50506040517ff2ab44c200000000000000000000000000000000000000000000000000000000815273__$b6905e4a302a713a1eaca5d53b662e815c$__925063f2ab44c291506115df9060339086908b9060040161472d565b60006040518083038186803b1580156115f757600080fd5b505af415801561160b573d6000803e3d6000fd5b50506040517f4af2e32700000000000000000000000000000000000000000000000000000000815273__$b6905e4a302a713a1eaca5d53b662e815c$__9250634af2e32791506116629060339086906004016146a6565b60006040518083038186803b15801561167a57600080fd5b505af415801561168e573d6000803e3d6000fd5b505050610160830151835160e085015160608601516101a087015160405163221eb65760e11b815273__$85738a9b50fe147d23ce9080d17e448cc6$__965063443d6cae956116e895603395919490938f9360040161485f565b60206040518083038186803b15801561170057600080fd5b505af4158015611714573d6000803e3d6000fd5b505050506040513d601f19601f820116820180604052508101906117389190613f00565b9450505060408051634c86902960e11b815260336004820152905173__$c7a04b010d7229ccbe3c515e91d1303780$__9163990d2052916024808301926000929190829003018186803b15801561178e57600080fd5b505af41580156117a2573d6000803e3d6000fd5b50505050505092915050565b6000818152604360205260408120610d6290612d73565b73__$c7a04b010d7229ccbe3c515e91d1303780$__632ef9dab96033836117ea612f67565b6040518463ffffffff1660e01b8152600401610f8893929190614785565b603380546001600160a01b0390921662010000027fffffffffffffffffffff0000000000000000000000000000000000000000ffff909216919091179055565b60008381526043602052604090207f696e697469616c4d617267696e526174650000000000000000000000000000008314156118b65780600c015482126118aa5760405162461bcd60e51b81526004016118a1906145ba565b60405180910390fd5b600c8101829055611a5d565b827f6d61696e74656e616e63654d617267696e526174650000000000000000000000141561190d5780600d015482126119015760405162461bcd60e51b81526004016118a1906144b8565b600d8101829055611a5d565b827f6f70657261746f72466565526174650000000000000000000000000000000000141561194157600e8101829055611a5d565b827f6c70466565526174650000000000000000000000000000000000000000000000141561197557600f8101829055611a5d565b827f6c69717569646174696f6e50656e616c7479526174650000000000000000000014156119a95760118101829055611a5d565b827f6b6565706572476173526577617264000000000000000000000000000000000014156119dd5760128101829055611a5d565b827f726566657272616c5265626174655261746500000000000000000000000000001415611a115760108101829055611a5d565b827f696e737572616e636546756e64526174650000000000000000000000000000001415611a455760138101829055611a5d565b60405162461bcd60e51b81526004016118a1906143a5565b50505050565b60009182526043602052604090912060020155565b6000818152604360205260409081902090517fdc28841e00000000000000000000000000000000000000000000000000000000815273__$74e2ba5c0a92ec095c0918ea877fa9275f$__9163dc28841e91610f889190600401614373565b603c55565b6000828152604360205260409020611af39082612f6b565b5050565b6000818152604360205260408120610d6290603001612fc2565b60008381526043602052604080822090517fc480202a00000000000000000000000000000000000000000000000000000000815273__$74e2ba5c0a92ec095c0918ea877fa9275f$__9163c480202a91611b7291908790879060040161462e565b60206040518083038186803b158015611b8a57600080fd5b505af4158015611b9e573d6000803e3d6000fd5b505050506040513d601f19601f820116820180604052508101906110209190613df0565b6040517fd767897e00000000000000000000000000000000000000000000000000000000815273__$c7a04b010d7229ccbe3c515e91d1303780$__9063d767897e90610f88906033903390869060040161462e565b60008381526043602052604080822090517fd13cfaa900000000000000000000000000000000000000000000000000000000815273__$74e2ba5c0a92ec095c0918ea877fa9275f$__9163d13cfaa991611b7291908790879060040161462e565b73__$c7a04b010d7229ccbe3c515e91d1303780$__63d767897e6033611c9c612f67565b846040518463ffffffff1660e01b8152600401610f889392919061462e565b60009182526043602090815260408084206001600160a01b03909316845260349092019052902080546001909101549091565b6000858152604360205260409020691a185b1994dc1c99585960b21b851415611d2557611d2060168201858585612fcd565b610ed6565b847f6f70656e536c697070616765466163746f7200000000000000000000000000001415611d5c57611d2060198201858585612fcd565b847f636c6f7365536c697070616765466163746f72000000000000000000000000001415611d9357611d20601c8201858585612fcd565b847f66756e64696e67526174654c696d6974000000000000000000000000000000001415611dca57611d20601f8201858585612fcd565b847f616d6d4d61784c657665726167650000000000000000000000000000000000001415611e0157611d2060258201858585612fcd565b847f6d6178436c6f73655072696365446973636f756e7400000000000000000000001415611e3857611d2060288201858585612fcd565b847f66756e64696e6752617465466163746f720000000000000000000000000000001415611a4557611d2060228201858585612fcd565b60008581526043602052604080822090517fa7938a300000000000000000000000000000000000000000000000000000000081528291829182919073__$85738a9b50fe147d23ce9080d17e448cc6$__9063a7938a3090611edf9060339085908e908e908e908e90600401614751565b60806040518083038186803b158015611ef757600080fd5b505af4158015611f0b573d6000803e3d6000fd5b505050506040513d601f19601f82011682018060405250810190611f2f9190613f18565b929d919c509a509098509650505050505050565b6000838152604360205260409020691a185b1994dc1c99585960b21b831415611f7857611f736016820183613009565b611a5d565b827f6f70656e536c697070616765466163746f7200000000000000000000000000001415611fad57611f736019820183613009565b827f636c6f7365536c697070616765466163746f72000000000000000000000000001415611fe257611f73601c820183613009565b827f66756e64696e67526174654c696d697400000000000000000000000000000000141561201757611f73601f820183613009565b827f616d6d4d61784c65766572616765000000000000000000000000000000000000141561204c57611f736025820183613009565b827f6d6178436c6f73655072696365446973636f756e740000000000000000000000141561208157611f736028820183613009565b827f66756e64696e6752617465466163746f720000000000000000000000000000001415611a4557611f736022820183613009565b6040516304c43a9960e31b815273__$c7a04b010d7229ccbe3c515e91d1303780$__90632621d4c890610f8890603390600090600401614696565b6074546001600160a01b031690565b60008181526043602052604080822090517f84da931000000000000000000000000000000000000000000000000000000000815273__$74e2ba5c0a92ec095c0918ea877fa9275f$__916384da931091610de59190600401614373565b603d5490565b6000828152604360205260409020611af39082613041565b6000818152604360205260409081902090517f39d281eb00000000000000000000000000000000000000000000000000000000815273__$74e2ba5c0a92ec095c0918ea877fa9275f$__916339d281eb91610f889190600401614373565b60008281526043602052604080822090517f49a837ae00000000000000000000000000000000000000000000000000000000815273__$74e2ba5c0a92ec095c0918ea877fa9275f$__916349a837ae9161223891908690600401614617565b60206040518083038186803b15801561225057600080fd5b505af4158015612264573d6000803e3d6000fd5b505050506040513d601f19601f820116820180604052508101906122889190613f00565b9392505050565b600082815260436020526040902060019081018054839260ff19909116908360048111156122b957fe5b02179055505050565b6040517f83a1eaa800000000000000000000000000000000000000000000000000000000815273__$c7a04b010d7229ccbe3c515e91d1303780$__906383a1eaa890610eaa906033908690869060040161462e565b60008181526043602052604080822090517fd87384fe00000000000000000000000000000000000000000000000000000000815273__$74e2ba5c0a92ec095c0918ea877fa9275f$__9163d87384fe916123749190600401614373565b60206040518083038186803b15801561238c57600080fd5b505af41580156123a0573d6000803e3d6000fd5b505050506040513d601f19601f82011682018060405250810190610d629190613ce1565b6040517fe810d61900000000000000000000000000000000000000000000000000000000815260009073__$85738a9b50fe147d23ce9080d17e448cc6$__9063e810d6199061241e906033908890889088906004016147a4565b60206040518083038186803b15801561243657600080fd5b505af415801561244a573d6000803e3d6000fd5b505050506040513d601f19601f820116820180604052508101906110209190613f00565b817f6973466173744372656174696f6e456e61626c6564000000000000000000000014156124ae576033805461ff00191682151561010002179055611af3565b817f696e737572616e636546756e64436170000000000000000000000000000000001415611a45576044819055611af3565b6000908152604360205260409020600a015490565b6000612288838361307d565b6035546001600160a01b031690565b6040517fdcaf674900000000000000000000000000000000000000000000000000000000815273__$c7a04b010d7229ccbe3c515e91d1303780$__9063dcaf674990610eaa906033908690869060040161462e565b604555565b60008281526043602052604081206122889060300183613096565b60009384526043602090815260408086206001600160a01b0390951686526034909401905291909220918255600190910155565b6040517fe57d06a800000000000000000000000000000000000000000000000000000000815260009073__$c7a04b010d7229ccbe3c515e91d1303780$__9063e57d06a890611b729060339088908890889060040161464d565b60009081526043602052604090206002015490565b6040517f4e74d93000000000000000000000000000000000000000000000000000000000815273__$c7a04b010d7229ccbe3c515e91d1303780$__90634e74d9309061267990603390600401614373565b60006040518083038186803b15801561269157600080fd5b505af4158015611a5d573d6000803e3d6000fd5b6034805473ffffffffffffffffffffffffffffffffffffffff19166001600160a01b039290921691909117905542620d2f0001603f55565b604051634b071c5760e11b815273__$c7a04b010d7229ccbe3c515e91d1303780$__9063960e38ae90610f8890603390859060040161437c565b6040517fbdc5e84900000000000000000000000000000000000000000000000000000000815273__$c7a04b010d7229ccbe3c515e91d1303780$__9063bdc5e8499061267990603390600401614373565b60008281526043602052604080822090517f5e91c9f800000000000000000000000000000000000000000000000000000000815273__$74e2ba5c0a92ec095c0918ea877fa9275f$__91635e91c9f8916127c791908690600401614617565b60206040518083038186803b1580156127df57600080fd5b505af41580156127f3573d6000803e3d6000fd5b505050506040513d601f19601f820116820180604052508101906122889190613df0565b600091825260436020526040909120600a0155565b6000908152604360205260409020602c015490565b60009392505050565b6036805473ffffffffffffffffffffffffffffffffffffffff19166001600160a01b0392909216919091179055565b6111318383836130ab565b6074805473ffffffffffffffffffffffffffffffffffffffff19166001600160a01b039390931692909217909155607555565b6000828152604360205260408120611020836128d283612d73565b8391906130ff565b6000818152604360205260409081902090517fc94606dd00000000000000000000000000000000000000000000000000000000815273__$74e2ba5c0a92ec095c0918ea877fa9275f$__9163c94606dd91610f889190600401614373565b603d55565b6040517f299cbfda00000000000000000000000000000000000000000000000000000000815273__$c7a04b010d7229ccbe3c515e91d1303780$__9063299cbfda90612679906033903390600401614617565b6040517f5fc2e39200000000000000000000000000000000000000000000000000000000815273__$aa0386c1927da8134897d9c67341209872$__90635fc2e39290610eaa906033908690869060040161462e565b60465490565b6000908152604360205260409020602d015490565b6042546000818152604360205260409081902090517f445ab49400000000000000000000000000000000000000000000000000000000815273__$74e2ba5c0a92ec095c0918ea877fa9275f$__9063445ab49490612a6e90849086908a908a908a90819081906004016148a3565b60006040518083038186803b158015612a8657600080fd5b505af4158015612a9a573d6000803e3d6000fd5b505060428054600101905550505050505050565b6000828152604360205260409081902090517f8f27c08f00000000000000000000000000000000000000000000000000000000815273__$74e2ba5c0a92ec095c0918ea877fa9275f$__91638f27c08f91610eaa9190859060040161437c565b6034546001600160a01b031690565b604051634c86902960e11b815273__$c7a04b010d7229ccbe3c515e91d1303780$__9063990d20529061267990603390600401614373565b6040517fcbf231c100000000000000000000000000000000000000000000000000000000815273__$c7a04b010d7229ccbe3c515e91d1303780$__9063cbf231c190612ba890603390859060040161437c565b60206040518083038186803b158015612bc057600080fd5b505af4158015612bd4573d6000803e3d6000fd5b505050506040513d601f19601f82011682018060405250810190611af39190613f00565b600091825260436020526040909120600b0155565b60008681526010880160205260408120819081808080612c3e612c30868e613136565b612c398b613157565b61307d565b9050612c568e868e8e612c508f613164565b86613180565b92995090955093509150612c78905081612c7284818a886133d4565b906133d4565b9450612c8f8b612c8787613157565b869190613439565b612c9e8763ffffffff16613470565b15612d255773__$c7a04b010d7229ccbe3c515e91d1303780$__63e15b15478e8e8e612cc98d613157565b612cd28f613157565b8b6040518763ffffffff1660e01b8152600401612cf49695949392919061482e565b60006040518083038186803b158015612d0c57600080fd5b505af4158015612d20573d6000803e3d6000fd5b505050505b612d358d8d8d8d8a88888861347b565b5050505097509795505050505050565b60006002600183015460ff166004811115612d5c57fe5b14612d6b576008820154610d62565b506004015490565b60006002600183015460ff166004811115612d8a57fe5b14612d99576008820154610d62565b506006015490565b6000612dae8484846130ff565b90506000811315612df0576000612dc58585613136565b15612dd45784602f0154612dda565b84602e01545b9050612de88282600161371a565b915050612288565b5060009392505050565b60006122886030840183613738565b612e11613c35565b61010082511015612e345760405162461bcd60e51b81526004016118a19061444a565b6014820151815260288201516020820152603c82015160408083019190915260508301516060808401919091526064840151608080850191909152608485015160a08086019190915260a486015160c08087019190915260c487015160e087015260e4870151610100870152610104870151610120870152610124909601519586901c61014086015263ffffffff9086901c81166101608601529085901c81166101808501529084901c81166101a084015292901c9091166101c082015290565b606061015e82511015612f1a5760405162461bcd60e51b81526004016118a19061444a565b61013e82015161015e830151610124840151604051601882901a9160191a90612f4d9085908590859085906020016142f9565b604051602081830303815290604052945050505050919050565b3390565b6000811215612f8c5760405162461bcd60e51b81526004016118a1906143dc565b6002820154612f9b908261374d565b6002830181905560001315611af35760405162461bcd60e51b81526004016118a19061454c565b6000610d62826137b2565b818312158015612fdd5750808313155b612ff95760405162461bcd60e51b81526004016118a190614481565b9183556001830155600290910155565b81600101548112158015613021575081600201548113155b61303d5760405162461bcd60e51b81526004016118a190614481565b9055565b60008112156130625760405162461bcd60e51b81526004016118a1906143dc565b600282015461307190826133d4565b82600201819055505050565b60008261308c57506000610d62565b61228883836137b6565b6000612288836001600160a01b0384166137d9565b600082136130cb5760405162461bcd60e51b81526004016118a190614413565b6000836130db57818312156130e0565b818313155b905080611a5d5760405162461bcd60e51b81526004016118a190614583565b600061102061310e85856137f1565b6001600160a01b0385166000908152603487016020526040902060010154612c72908561382b565b6001600160a01b031660009081526034909101602052604090206001015490565b6000610d6260008361374d565b60008082121561317c5761317782613157565b610d62565b5090565b60008060008060008612156131a75760405162461bcd60e51b81526004016118a190614515565b6040517fb1a4182a0000000000000000000000000000000000000000000000000000000081526132529073__$c7a04b010d7229ccbe3c515e91d1303780$__9063b1a4182a906131fb908e90600401614373565b60206040518083038186803b15801561321357600080fd5b505af4158015613227573d6000803e3d6000fd5b505050506040513d601f19601f8201168201806040525081019061324b9190613f00565b879061382b565b915061326b89600f01548761382b90919063ffffffff16565b935060006132788b613860565b6001600160a01b03161461329957600e89015461329690879061382b565b92505b60006132a983612c7287876133d4565b905060006132c28a6132ba8d612d73565b8d9190613886565b90508661333257600081136132e65760009550600094506000935060009250613332565b808213156133325760006132fc828460016138cd565b905061330a8682600161371a565b95506133188582600161371a565b945061332e85613328848961374d565b9061374d565b9650505b6001600160a01b0389161580159061334e575060008b60100154135b80156133635750600061336187876133d4565b135b156133c55760006133818c601001548861382b90919063ffffffff16565b9050600061339c8d601001548861382b90919063ffffffff16565b90506133a882826133d4565b94506133b4888361374d565b97506133c0878261374d565b965050505b50509650965096509692505050565b60008282018183128015906133e95750838112155b806133fe57506000831280156133fe57508381125b6122885760405162461bcd60e51b81526004018080602001828103825260218152602001806149496021913960400191505060405180910390fd5b8061344357611131565b6001600160a01b03821660009081526034840160205260409020805461346990836133d4565b9055505050565b630800000016151590565b60008781526010890160205260409020613496813087613439565b8054604051633a30e31760e21b815273__$c7a04b010d7229ccbe3c515e91d1303780$__9163e8c38c5c916134d3918d918b9088906004016147cb565b60006040518083038186803b1580156134eb57600080fd5b505af41580156134ff573d6000803e3d6000fd5b505082546040517fe1858ce900000000000000000000000000000000000000000000000000000000815273__$c7a04b010d7229ccbe3c515e91d1303780$__935063e8c38c5c92508c9190849063e1858ce990613560908590600401614373565b60206040518083038186803b15801561357857600080fd5b505af415801561358c573d6000803e3d6000fd5b505050506040513d601f19601f820116820180604052508101906135b09190613ce1565b876040518563ffffffff1660e01b81526004016135d094939291906147cb565b60006040518083038186803b1580156135e857600080fd5b505af41580156135fc573d6000803e3d6000fd5b50505050600061360b8a613860565b8254604051633a30e31760e21b815291925073__$c7a04b010d7229ccbe3c515e91d1303780$__9163e8c38c5c9161364c918e919086908b906004016147cb565b60006040518083038186803b15801561366457600080fd5b505af4158015613678573d6000803e3d6000fd5b50505050806001600160a01b03167f1bddc3b9f9ff0fdccd630b34690e40f1812141214929252aacbdba1e96e3d8b2866040516136b59190614373565b60405180910390a2866001600160a01b0316886001600160a01b03167fa4bc2690b4b1c40d064c168e4f2455a96f31e3792cdd3a31821e65d672b33b0c84600001548660405161370692919061437c565b60405180910390a350505050505050505050565b600061102061372985856138eb565b670de0b6b3a764000084613994565b6000612288836001600160a01b038416613a71565b60008183038183128015906137625750838113155b80613777575060008312801561377757508381135b6122885760405162461bcd60e51b81526004018080602001828103825260248152602001806149b26024913960400191505060405180910390fd5b5490565b60008215806137c3575081155b156137d057506001610d62565b501860ff1d1590565b60009081526001919091016020526040902054151590565b6001600160a01b03811660009081526034830160205260408120600b840154600182015461102091613823919061382b565b82549061374d565b6000670de0b6b3a764000061385161384385856138eb565b670de0b6b3a7640000613abb565b8161385857fe5b059392505050565b600081600c0154421115613875576000610d62565b50600101546001600160a01b031690565b6000806138938585613136565b156138b0576138ab8560120154612c72878787613b3a565b6138b3565b60005b90506138c4816133288787876130ff565b95945050505050565b60006110206138e485670de0b6b3a76400006138eb565b8484613994565b6000826138fa57506000610d62565b8260001914801561390e5750600160ff1b82145b1561394a5760405162461bcd60e51b815260040180806020018281038252602781526020018061498b6027913960400191505060405180910390fd5b8282028284828161395757fe5b05146122885760405162461bcd60e51b815260040180806020018281038252602781526020018061498b6027913960400191505060405180910390fd5b6000826139e8576040805162461bcd60e51b815260206004820152601060248201527f6469766973696f6e206279207a65726f00000000000000000000000000000000604482015290519081900360640190fd5b6139f28484613b7d565b90508284816139fd57fe5b07613a0757612288565b6000613a1385856137b6565b90506000836001811115613a2357fe5b148015613a2d5750805b15613a4057613a3d8260016133d4565b91505b6001836001811115613a4e57fe5b148015613a59575080155b15613a69576138c482600161374d565b509392505050565b6000613a7d83836137d9565b613ab357508154600181810184556000848152602080822090930184905584548482528286019093526040902091909155610d62565b506000610d62565b6000808213613b11576040805162461bcd60e51b815260206004820152601f60248201527f726f756e6448616c665570206f6e6c7920737570706f7274732079203e203000604482015290519081900360640190fd5b60008312613b2d57613b2683600284056133d4565b9050610d62565b612288836002840561374d565b600c8301546001600160a01b0383166000908152603485016020526040812060010154909161102091613b789190613b72908661382b565b9061382b565b613164565b600081613bd1576040805162461bcd60e51b815260206004820181905260248201527f5369676e6564536166654d6174683a206469766973696f6e206279207a65726f604482015290519081900360640190fd5b81600019148015613be55750600160ff1b83145b15613c215760405162461bcd60e51b815260040180806020018281038252602181526020018061496a6021913960400191505060405180910390fd5b6000828481613c2c57fe5b05949350505050565b604080516101e081018252600080825260208201819052918101829052606081018290526080810182905260a0810182905260c0810182905260e08101829052610100810182905261012081018290526101408101829052610160810182905261018081018290526101a081018290526101c081019190915290565b803563ffffffff81168114610d7b57600080fd5b600060208284031215613cd6578081fd5b813561228881614922565b600060208284031215613cf2578081fd5b815161228881614922565b600080600060608486031215613d11578182fd5b8335613d1c81614922565b92506020840135613d2c81614922565b929592945050506040919091013590565b6000806000610240808587031215613d53578384fd5b8435613d5e81614922565b9350610140850186811115613d71578384fd5b602086019350868287011115613d85578283fd5b80925050509250925092565b60008060408385031215613da3578182fd5b8235613dae81614922565b946020939093013593505050565b600080600060608486031215613dd0578283fd5b8335613ddb81614922565b95602085013595506040909401359392505050565b600060208284031215613e01578081fd5b81516122888161493a565b600080600060608486031215613e20578283fd5b8335613ddb8161493a565b60008060408385031215613e3d578182fd5b50508035926020909101359150565b60008060408385031215613e5e578182fd5b823567ffffffffffffffff80821115613e75578384fd5b818501915085601f830112613e88578384fd5b813581811115613e9457fe5b6040516020601f8301601f1916820181018481118382101715613eb357fe5b6040528282528483018101891015613ec9578687fd5b8281860182840137918101820195909552939694909301359450505050565b600060208284031215613ef9578081fd5b5035919050565b600060208284031215613f11578081fd5b5051919050565b60008060008060808587031215613f2d578182fd5b505082516020840151604085015160609095015191969095509092509050565b60008060408385031215613f5f578182fd5b823591506020830135613f7181614922565b809150509250929050565b600080600060608486031215613f90578081fd5b833592506020840135613fa281614922565b91506040840135613fb281614922565b809150509250925092565b600080600080600060a08688031215613fd4578283fd5b853594506020860135613fe681614922565b93506040860135613ff681614922565b925060608601359150608086013561400d8161493a565b809150509295509295909350565b60008060008060008060c08789031215614033578384fd5b86359550602087013561404581614922565b9450604087013561405581614922565b9350606087013592506080870135915061407160a08801613cb1565b90509295509295509295565b600080600060608486031215614091578081fd5b833592506020840135613d2c81614922565b600080600080608085870312156140b8578182fd5b8435935060208501356140ca81614922565b93969395505050506040820135916060013590565b60008060008060008060c087890312156140f7578384fd5b86359550602087013561410981614922565b94506040870135935060608701359250608087013561412781614922565b915061407160a08801613cb1565b600080600060608486031215614149578081fd5b505081359360208301359350604090920135919050565b600080600080600060a08688031215614177578283fd5b505083359560208501359550604085013594606081013594506080013592509050565b600080604083850312156141ac578182fd5b82359150602083013560058110613f71578182fd5b6001600160a01b03169052565b8060005b6008811015611a5d5781358452602093840193909101906001016141d2565b6141fc8282516141c1565b602081015161420e60208401826141c1565b50604081015161422160408401826141c1565b50606081015161423460608401826141c1565b50608081015161424760808401826141c1565b5060a081015160a083015260c081015160c083015260e081015160e083015261010080820151818401525061012080820151818401525061014080820151614291828501826142eb565b5050610160808201516142a6828501826142e1565b5050610180808201516142bb828501826142e1565b50506101a0808201516142d0828501826142e1565b50506101c080820151611a5d828501825b63ffffffff169052565b67ffffffffffffffff169052565b93845260208401929092527fff0000000000000000000000000000000000000000000000000000000000000060f891821b8116604085015291901b16604182015260420190565b6001600160a01b0391909116815260200190565b901515815260200190565b602081016005831061436d57fe5b91905290565b90815260200190565b918252602082015260400190565b93845260208401929092526040830152606082015260800190565b6020808252600d908201527f6b6579206e6f7420666f756e6400000000000000000000000000000000000000604082015260600190565b60208082526012908201527f616d6f756e74206973206e656761746976650000000000000000000000000000604082015260600190565b60208082526016908201527f7072696365206d75737420626520706f73697469766500000000000000000000604082015260600190565b6020808252600b908201527f62726f6b656e2064617461000000000000000000000000000000000000000000604082015260600190565b60208082526012908201527f76616c7565206f7574206f662072616e67650000000000000000000000000000604082015260600190565b60208082526031908201527f696e6372656173696e67206d61696e74656e616e6365206d617267696e20726160408201527f7465206973206e6f7420616c6c6f776564000000000000000000000000000000606082015260800190565b60208082526017908201527f74726164652076616c7565206973206e65676174697665000000000000000000604082015260600190565b60208082526016908201527f636f6c6c61746572616c206973206e6567617469766500000000000000000000604082015260600190565b60208082526013908201527f70726963652065786365656473206c696d697400000000000000000000000000604082015260600190565b6020808252602d908201527f696e6372656173696e6720696e697469616c206d617267696e2072617465206960408201527f73206e6f7420616c6c6f77656400000000000000000000000000000000000000606082015260800190565b9182526001600160a01b0316602082015260400190565b9283526001600160a01b03919091166020830152604082015260600190565b9384526001600160a01b03928316602085015291166040830152606082015260800190565b9384526001600160a01b039290921660208401526040830152606082015260800190565b9182521515602082015260400190565b828152610200810161228860208301846141f1565b600061022085835260206146d1818501876141f1565b81610200850152845180838601528392505b80831015614702578583018201518584016102400152918101916146e3565b80831115614714578361024082870101525b601f01601f191693909301610240019695505050505050565b838152610220810161474260208301856141f1565b82610200830152949350505050565b95865260208601949094526001600160a01b039283166040860152911660608401526080830152151560a082015260c00190565b92835260208301919091526001600160a01b0316604082015260600190565b93845260208401929092526001600160a01b03908116604084015216606082015260800190565b93845260208401929092526001600160a01b03166040830152606082015260800190565b96875260208701959095526001600160a01b039384166040870152606086019290925260808501521660a083015263ffffffff1660c082015260e00190565b95865260208601949094526001600160a01b039290921660408501526060840152608083015260a082015260c00190565b96875263ffffffff95861660208801526001600160a01b0394851660408801526060870193909352608086019190915290911660a08401521660c082015260e00190565b87815260208082018890526001600160a01b0387166040830152610480820190606083018760005b60098110156148e8578135835291830191908301906001016148cb565b505050506148fa6101808301866141ce565b6149086102808301856141ce565b6149166103808301846141ce565b98975050505050505050565b6001600160a01b038116811461493757600080fd5b50565b801515811461493757600080fdfe5369676e6564536166654d6174683a206164646974696f6e206f766572666c6f775369676e6564536166654d6174683a206469766973696f6e206f766572666c6f775369676e6564536166654d6174683a206d756c7469706c69636174696f6e206f766572666c6f775369676e6564536166654d6174683a207375627472616374696f6e206f766572666c6f77a2646970667358221220582003698f05b7f260b5210900121bcd210c3897a2788112ce556beeb8bd80a264736f6c63430007040033",
  "linkReferences": {
    "contracts/module/CollateralModule.sol": {
      "CollateralModule": [
        {
          "length": 20,
          "start": 10761
        }
      ]
    },
    "contracts/module/LiquidityPoolModule.sol": {
      "LiquidityPoolModule": [
        {
          "length": 20,
          "start": 3350
        },
        {
          "length": 20,
          "start": 3595
        },
        {
          "length": 20,
          "start": 3927
        },
        {
          "length": 20,
          "start": 4014
        },
        {
          "length": 20,
          "start": 4262
        },
        {
          "length": 20,
          "start": 4368
        },
        {
          "length": 20,
          "start": 4568
        },
        {
          "length": 20,
          "start": 4648
        },
        {
          "length": 20,
          "start": 4760
        },
        {
          "length": 20,
          "start": 5017
        },
        {
          "length": 20,
          "start": 5148
        },
        {
          "length": 20,
          "start": 5235
        },
        {
          "length": 20,
          "start": 5346
        },
        {
          "length": 20,
          "start": 6054
        },
        {
          "length": 20,
          "start": 6168
        },
        {
          "length": 20,
          "start": 7227
        },
        {
          "length": 20,
          "start": 7371
        },
        {
          "length": 20,
          "start": 8470
        },
        {
          "length": 20,
          "start": 9019
        },
        {
          "length": 20,
          "start": 9609
        },
        {
          "length": 20,
          "start": 9781
        },
        {
          "length": 20,
          "start": 9889
        },
        {
          "length": 20,
          "start": 10045
        },
        {
          "length": 20,
          "start": 10128
        },
        {
          "length": 20,
          "start": 10678
        },
        {
          "length": 20,
          "start": 11133
        },
        {
          "length": 20,
          "start": 11214
        },
        {
          "length": 20,
          "start": 11510
        },
        {
          "length": 20,
          "start": 12836
        },
        {
          "length": 20,
          "start": 13560
        },
        {
          "length": 20,
          "start": 13692
        },
        {
          "length": 20,
          "start": 13936
        }
      ]
    },
    "contracts/module/OrderModule.sol": {
      "OrderModule": [
        {
          "length": 20,
          "start": 5502
        },
        {
          "length": 20,
          "start": 5633
        },
        {
          "length": 20,
          "start": 5766
        }
      ]
    },
    "contracts/module/PerpetualModule.sol": {
      "PerpetualModule": [
        {
          "length": 20,
          "start": 3794
        },
        {
          "length": 20,
          "start": 6912
        },
        {
          "length": 20,
          "start": 7064
        },
        {
          "length": 20,
          "start": 7326
        },
        {
          "length": 20,
          "start": 8583
        },
        {
          "length": 20,
          "start": 8707
        },
        {
          "length": 20,
          "start": 8800
        },
        {
          "length": 20,
          "start": 9118
        },
        {
          "length": 20,
          "start": 10223
        },
        {
          "length": 20,
          "start": 10594
        },
        {
          "length": 20,
          "start": 10891
        },
        {
          "length": 20,
          "start": 11062
        }
      ]
    },
    "contracts/module/TradeModule.sol": {
      "TradeModule": [
        {
          "length": 20,
          "start": 4856
        },
        {
          "length": 20,
          "start": 5897
        },
        {
          "length": 20,
          "start": 7933
        },
        {
          "length": 20,
          "start": 9280
        }
      ]
    }
  },
  "deployedLinkReferences": {
    "contracts/module/CollateralModule.sol": {
      "CollateralModule": [
        {
          "length": 20,
          "start": 10680
        }
      ]
    },
    "contracts/module/LiquidityPoolModule.sol": {
      "LiquidityPoolModule": [
        {
          "length": 20,
          "start": 3269
        },
        {
          "length": 20,
          "start": 3514
        },
        {
          "length": 20,
          "start": 3846
        },
        {
          "length": 20,
          "start": 3933
        },
        {
          "length": 20,
          "start": 4181
        },
        {
          "length": 20,
          "start": 4287
        },
        {
          "length": 20,
          "start": 4487
        },
        {
          "length": 20,
          "start": 4567
        },
        {
          "length": 20,
          "start": 4679
        },
        {
          "length": 20,
          "start": 4936
        },
        {
          "length": 20,
          "start": 5067
        },
        {
          "length": 20,
          "start": 5154
        },
        {
          "length": 20,
          "start": 5265
        },
        {
          "length": 20,
          "start": 5973
        },
        {
          "length": 20,
          "start": 6087
        },
        {
          "length": 20,
          "start": 7146
        },
        {
          "length": 20,
          "start": 7290
        },
        {
          "length": 20,
          "start": 8389
        },
        {
          "length": 20,
          "start": 8938
        },
        {
          "length": 20,
          "start": 9528
        },
        {
          "length": 20,
          "start": 9700
        },
        {
          "length": 20,
          "start": 9808
        },
        {
          "length": 20,
          "start": 9964
        },
        {
          "length": 20,
          "start": 10047
        },
        {
          "length": 20,
          "start": 10597
        },
        {
          "length": 20,
          "start": 11052
        },
        {
          "length": 20,
          "start": 11133
        },
        {
          "length": 20,
          "start": 11429
        },
        {
          "length": 20,
          "start": 12755
        },
        {
          "length": 20,
          "start": 13479
        },
        {
          "length": 20,
          "start": 13611
        },
        {
          "length": 20,
          "start": 13855
        }
      ]
    },
    "contracts/module/OrderModule.sol": {
      "OrderModule": [
        {
          "length": 20,
          "start": 5421
        },
        {
          "length": 20,
          "start": 5552
        },
        {
          "length": 20,
          "start": 5685
        }
      ]
    },
    "contracts/module/PerpetualModule.sol": {
      "PerpetualModule": [
        {
          "length": 20,
          "start": 3713
        },
        {
          "length": 20,
          "start": 6831
        },
        {
          "length": 20,
          "start": 6983
        },
        {
          "length": 20,
          "start": 7245
        },
        {
          "length": 20,
          "start": 8502
        },
        {
          "length": 20,
          "start": 8626
        },
        {
          "length": 20,
          "start": 8719
        },
        {
          "length": 20,
          "start": 9037
        },
        {
          "length": 20,
          "start": 10142
        },
        {
          "length": 20,
          "start": 10513
        },
        {
          "length": 20,
          "start": 10810
        },
        {
          "length": 20,
          "start": 10981
        }
      ]
    },
    "contracts/module/TradeModule.sol": {
      "TradeModule": [
        {
          "length": 20,
          "start": 4775
        },
        {
          "length": 20,
          "start": 5816
        },
        {
          "length": 20,
          "start": 7852
        },
        {
          "length": 20,
          "start": 9199
        }
      ]
    }
  }
}