{
  "_format": "hh-sol-artifact-1",
  "contractName": "TestShareToken",
  "sourceName": "contracts/test/TestShareToken.sol",
  "abi": [
    {
      "anonymous": false,
      "inputs": [
        {
          "indexed": true,
          "internalType": "address",
          "name": "owner",
          "type": "address"
        },
        {
          "indexed": true,
          "internalType": "address",
          "name": "spender",
          "type": "address"
        },
        {
          "indexed": false,
          "internalType": "uint256",
          "name": "value",
          "type": "uint256"
        }
      ],
      "name": "Approval",
      "type": "event"
    },
    {
      "anonymous": false,
      "inputs": [
        {
          "indexed": true,
          "internalType": "bytes32",
          "name": "role",
          "type": "bytes32"
        },
        {
          "indexed": true,
          "internalType": "bytes32",
          "name": "previousAdminRole",
          "type": "bytes32"
        },
        {
          "indexed": true,
          "internalType": "bytes32",
          "name": "newAdminRole",
          "type": "bytes32"
        }
      ],
      "name": "RoleAdminChanged",
      "type": "event"
    },
    {
      "anonymous": false,
      "inputs": [
        {
          "indexed": true,
          "internalType": "bytes32",
          "name": "role",
          "type": "bytes32"
        },
        {
          "indexed": true,
          "internalType": "address",
          "name": "account",
          "type": "address"
        },
        {
          "indexed": true,
          "internalType": "address",
          "name": "sender",
          "type": "address"
        }
      ],
      "name": "RoleGranted",
      "type": "event"
    },
    {
      "anonymous": false,
      "inputs": [
        {
          "indexed": true,
          "internalType": "bytes32",
          "name": "role",
          "type": "bytes32"
        },
        {
          "indexed": true,
          "internalType": "address",
          "name": "account",
          "type": "address"
        },
        {
          "indexed": true,
          "internalType": "address",
          "name": "sender",
          "type": "address"
        }
      ],
      "name": "RoleRevoked",
      "type": "event"
    },
    {
      "anonymous": false,
      "inputs": [
        {
          "indexed": true,
          "internalType": "address",
          "name": "from",
          "type": "address"
        },
        {
          "indexed": true,
          "internalType": "address",
          "name": "to",
          "type": "address"
        },
        {
          "indexed": false,
          "internalType": "uint256",
          "name": "value",
          "type": "uint256"
        }
      ],
      "name": "Transfer",
      "type": "event"
    },
    {
      "inputs": [],
      "name": "ADMIN_ROLE",
      "outputs": [
        {
          "internalType": "bytes32",
          "name": "",
          "type": "bytes32"
        }
      ],
      "stateMutability": "view",
      "type": "function"
    },
    {
      "inputs": [],
      "name": "DEFAULT_ADMIN_ROLE",
      "outputs": [
        {
          "internalType": "bytes32",
          "name": "",
          "type": "bytes32"
        }
      ],
      "stateMutability": "view",
      "type": "function"
    },
    {
      "inputs": [
        {
          "internalType": "address",
          "name": "owner",
          "type": "address"
        },
        {
          "internalType": "address",
          "name": "spender",
          "type": "address"
        }
      ],
      "name": "allowance",
      "outputs": [
        {
          "internalType": "uint256",
          "name": "",
          "type": "uint256"
        }
      ],
      "stateMutability": "view",
      "type": "function"
    },
    {
      "inputs": [
        {
          "internalType": "address",
          "name": "spender",
          "type": "address"
        },
        {
          "internalType": "uint256",
          "name": "amount",
          "type": "uint256"
        }
      ],
      "name": "approve",
      "outputs": [
        {
          "internalType": "bool",
          "name": "",
          "type": "bool"
        }
      ],
      "stateMutability": "nonpayable",
      "type": "function"
    },
    {
      "inputs": [
        {
          "internalType": "address",
          "name": "account",
          "type": "address"
        }
      ],
      "name": "balanceOf",
      "outputs": [
        {
          "internalType": "uint256",
          "name": "",
          "type": "uint256"
        }
      ],
      "stateMutability": "view",
      "type": "function"
    },
    {
      "inputs": [
        {
          "internalType": "address",
          "name": "account",
          "type": "address"
        },
        {
          "internalType": "uint256",
          "name": "amount",
          "type": "uint256"
        }
      ],
      "name": "burn",
      "outputs": [],
      "stateMutability": "nonpayable",
      "type": "function"
    },
    {
      "inputs": [
        {
          "internalType": "address",
          "name": "account",
          "type": "address"
        },
        {
          "internalType": "uint256",
          "name": "amount",
          "type": "uint256"
        }
      ],
      "name": "debugMint",
      "outputs": [],
      "stateMutability": "nonpayable",
      "type": "function"
    },
    {
      "inputs": [],
      "name": "decimals",
      "outputs": [
        {
          "internalType": "uint8",
          "name": "",
          "type": "uint8"
        }
      ],
      "stateMutability": "view",
      "type": "function"
    },
    {
      "inputs": [
        {
          "internalType": "address",
          "name": "spender",
          "type": "address"
        },
        {
          "internalType": "uint256",
          "name": "subtractedValue",
          "type": "uint256"
        }
      ],
      "name": "decreaseAllowance",
      "outputs": [
        {
          "internalType": "bool",
          "name": "",
          "type": "bool"
        }
      ],
      "stateMutability": "nonpayable",
      "type": "function"
    },
    {
      "inputs": [
        {
          "internalType": "bytes32",
          "name": "role",
          "type": "bytes32"
        }
      ],
      "name": "getRoleAdmin",
      "outputs": [
        {
          "internalType": "bytes32",
          "name": "",
          "type": "bytes32"
        }
      ],
      "stateMutability": "view",
      "type": "function"
    },
    {
      "inputs": [
        {
          "internalType": "bytes32",
          "name": "role",
          "type": "bytes32"
        },
        {
          "internalType": "uint256",
          "name": "index",
          "type": "uint256"
        }
      ],
      "name": "getRoleMember",
      "outputs": [
        {
          "internalType": "address",
          "name": "",
          "type": "address"
        }
      ],
      "stateMutability": "view",
      "type": "function"
    },
    {
      "inputs": [
        {
          "internalType": "bytes32",
          "name": "role",
          "type": "bytes32"
        }
      ],
      "name": "getRoleMemberCount",
      "outputs": [
        {
          "internalType": "uint256",
          "name": "",
          "type": "uint256"
        }
      ],
      "stateMutability": "view",
      "type": "function"
    },
    {
      "inputs": [
        {
          "internalType": "bytes32",
          "name": "role",
          "type": "bytes32"
        },
        {
          "internalType": "address",
          "name": "account",
          "type": "address"
        }
      ],
      "name": "grantRole",
      "outputs": [],
      "stateMutability": "nonpayable",
      "type": "function"
    },
    {
      "inputs": [
        {
          "internalType": "bytes32",
          "name": "role",
          "type": "bytes32"
        },
        {
          "internalType": "address",
          "name": "account",
          "type": "address"
        }
      ],
      "name": "hasRole",
      "outputs": [
        {
          "internalType": "bool",
          "name": "",
          "type": "bool"
        }
      ],
      "stateMutability": "view",
      "type": "function"
    },
    {
      "inputs": [
        {
          "internalType": "address",
          "name": "spender",
          "type": "address"
        },
        {
          "internalType": "uint256",
          "name": "addedValue",
          "type": "uint256"
        }
      ],
      "name": "increaseAllowance",
      "outputs": [
        {
          "internalType": "bool",
          "name": "",
          "type": "bool"
        }
      ],
      "stateMutability": "nonpayable",
      "type": "function"
    },
    {
      "inputs": [
        {
          "internalType": "string",
          "name": "name",
          "type": "string"
        },
        {
          "internalType": "string",
          "name": "symbol",
          "type": "string"
        },
        {
          "internalType": "address",
          "name": "admin",
          "type": "address"
        }
      ],
      "name": "initialize",
      "outputs": [],
      "stateMutability": "nonpayable",
      "type": "function"
    },
    {
      "inputs": [
        {
          "internalType": "address",
          "name": "account",
          "type": "address"
        },
        {
          "internalType": "uint256",
          "name": "amount",
          "type": "uint256"
        }
      ],
      "name": "mint",
      "outputs": [],
      "stateMutability": "nonpayable",
      "type": "function"
    },
    {
      "inputs": [],
      "name": "name",
      "outputs": [
        {
          "internalType": "string",
          "name": "",
          "type": "string"
        }
      ],
      "stateMutability": "view",
      "type": "function"
    },
    {
      "inputs": [
        {
          "internalType": "bytes32",
          "name": "role",
          "type": "bytes32"
        },
        {
          "internalType": "address",
          "name": "account",
          "type": "address"
        }
      ],
      "name": "renounceRole",
      "outputs": [],
      "stateMutability": "nonpayable",
      "type": "function"
    },
    {
      "inputs": [
        {
          "internalType": "bytes32",
          "name": "role",
          "type": "bytes32"
        },
        {
          "internalType": "address",
          "name": "account",
          "type": "address"
        }
      ],
      "name": "revokeRole",
      "outputs": [],
      "stateMutability": "nonpayable",
      "type": "function"
    },
    {
      "inputs": [],
      "name": "symbol",
      "outputs": [
        {
          "internalType": "string",
          "name": "",
          "type": "string"
        }
      ],
      "stateMutability": "view",
      "type": "function"
    },
    {
      "inputs": [],
      "name": "totalSupply",
      "outputs": [
        {
          "internalType": "uint256",
          "name": "",
          "type": "uint256"
        }
      ],
      "stateMutability": "view",
      "type": "function"
    },
    {
      "inputs": [
        {
          "internalType": "address",
          "name": "recipient",
          "type": "address"
        },
        {
          "internalType": "uint256",
          "name": "amount",
          "type": "uint256"
        }
      ],
      "name": "transfer",
      "outputs": [
        {
          "internalType": "bool",
          "name": "",
          "type": "bool"
        }
      ],
      "stateMutability": "nonpayable",
      "type": "function"
    },
    {
      "inputs": [
        {
          "internalType": "address",
          "name": "sender",
          "type": "address"
        },
        {
          "internalType": "address",
          "name": "recipient",
          "type": "address"
        },
        {
          "internalType": "uint256",
          "name": "amount",
          "type": "uint256"
        }
      ],
      "name": "transferFrom",
      "outputs": [
        {
          "internalType": "bool",
          "name": "",
          "type": "bool"
        }
      ],
      "stateMutability": "nonpayable",
      "type": "function"
    }
  ],
  "bytecode": "0x608060405234801561001057600080fd5b50611b5b806100206000396000f3fe608060405234801561001057600080fd5b50600436106101985760003560e01c806375b238fc116100e3578063a457c2d71161008c578063ca15c87311610066578063ca15c87314610628578063d547741f14610645578063dd62ed3e1461067157610198565b8063a457c2d7146105a4578063a9059cbb146105d0578063b96be29e146105fc57610198565b806395d89b41116100bd57806395d89b41146105685780639dc29fac14610570578063a217fddf1461059c57610198565b806375b238fc146104f55780639010d07c146104fd57806391d148541461053c57610198565b80632f2ff15d11610145578063395093511161011f578063395093511461047757806340c10f19146104a357806370a08231146104cf57610198565b80632f2ff15d14610401578063313ce5671461042d57806336568abe1461044b57610198565b806318160ddd1161017657806318160ddd1461039457806323b872dd146103ae578063248a9ca3146103e457610198565b806306fdde031461019d578063077f224a1461021a578063095ea7b314610354575b600080fd5b6101a561069f565b6040805160208082528351818301528351919283929083019185019080838360005b838110156101df5781810151838201526020016101c7565b50505050905090810190601f16801561020c5780820380516001836020036101000a031916815260200191505b509250505060405180910390f35b6103526004803603606081101561023057600080fd5b81019060208101813564010000000081111561024b57600080fd5b82018360208201111561025d57600080fd5b8035906020019184600183028401116401000000008311171561027f57600080fd5b91908080601f01602080910402602001604051908101604052809392919081815260200183838082843760009201919091525092959493602081019350359150506401000000008111156102d257600080fd5b8201836020820111156102e457600080fd5b8035906020019184600183028401116401000000008311171561030657600080fd5b91908080601f016020809104026020016040519081016040528093929190818152602001838380828437600092019190915250929550505090356001600160a01b031691506107359050565b005b6103806004803603604081101561036a57600080fd5b506001600160a01b0381351690602001356107e5565b604080519115158252519081900360200190f35b61039c610803565b60408051918252519081900360200190f35b610380600480360360608110156103c457600080fd5b506001600160a01b03813581169160208101359091169060400135610809565b61039c600480360360208110156103fa57600080fd5b5035610890565b6103526004803603604081101561041757600080fd5b50803590602001356001600160a01b03166108a5565b610435610911565b6040805160ff9092168252519081900360200190f35b6103526004803603604081101561046157600080fd5b50803590602001356001600160a01b031661091a565b6103806004803603604081101561048d57600080fd5b506001600160a01b03813516906020013561097b565b610352600480360360408110156104b957600080fd5b506001600160a01b0381351690602001356109c9565b61039c600480360360208110156104e557600080fd5b50356001600160a01b0316610a3a565b61039c610a55565b6105206004803603604081101561051357600080fd5b5080359060200135610a79565b604080516001600160a01b039092168252519081900360200190f35b6103806004803603604081101561055257600080fd5b50803590602001356001600160a01b0316610a98565b6101a5610ab0565b6103526004803603604081101561058657600080fd5b506001600160a01b038135169060200135610b11565b61039c610b82565b610380600480360360408110156105ba57600080fd5b506001600160a01b038135169060200135610b87565b610380600480360360408110156105e657600080fd5b506001600160a01b038135169060200135610bef565b6103526004803603604081101561061257600080fd5b506001600160a01b038135169060200135610a30565b61039c6004803603602081101561063e57600080fd5b5035610c03565b6103526004803603604081101561065b57600080fd5b50803590602001356001600160a01b0316610c1a565b61039c6004803603604081101561068757600080fd5b506001600160a01b0381358116916020013516610c73565b60688054604080516020601f600260001961010060018816150201909516949094049384018190048102820181019092528281526060939092909183018282801561072b5780601f106107005761010080835404028352916020019161072b565b820191906000526020600020905b81548152906001019060200180831161070e57829003601f168201915b5050505050905090565b600054610100900460ff168061074e575061074e610c9e565b8061075c575060005460ff16155b6107975760405162461bcd60e51b815260040180806020018281038252602e8152602001806119dd602e913960400191505060405180910390fd5b600054610100900460ff161580156107c2576000805460ff1961ff0019909116610100171660011790555b6107cd848484610caf565b80156107df576000805461ff00191690555b50505050565b60006107f96107f2610d5f565b8484610d63565b5060015b92915050565b60675490565b6000610816848484610e4f565b61088684610822610d5f565b61088185604051806060016040528060288152602001611a0b602891396001600160a01b038a16600090815260666020526040812090610860610d5f565b6001600160a01b031681526020810191909152604001600020549190610fac565b610d63565b5060019392505050565b60009081526033602052604090206002015490565b6000828152603360205260409020600201546108c8906108c3610d5f565b610a98565b6109035760405162461bcd60e51b815260040180806020018281038252602f8152602001806118df602f913960400191505060405180910390fd5b61090d8282611043565b5050565b606a5460ff1690565b610922610d5f565b6001600160a01b0316816001600160a01b0316146109715760405162461bcd60e51b815260040180806020018281038252602f815260200180611af7602f913960400191505060405180910390fd5b61090d82826110ac565b60006107f9610988610d5f565b846108818560666000610999610d5f565b6001600160a01b03908116825260208083019390935260409182016000908120918c168152925290205490611115565b6109f57fa49807205ce4d355092ef5a8a18f56e8913cf4a201fbe287825b095693c217756108c3610d5f565b610a305760405162461bcd60e51b8152600401808060200182810382526035815260200180611a796035913960400191505060405180910390fd5b61090d828261116f565b6001600160a01b031660009081526065602052604090205490565b7fa49807205ce4d355092ef5a8a18f56e8913cf4a201fbe287825b095693c2177581565b6000828152603360205260408120610a919083611261565b9392505050565b6000828152603360205260408120610a91908361126d565b60698054604080516020601f600260001961010060018816150201909516949094049384018190048102820181019092528281526060939092909183018282801561072b5780601f106107005761010080835404028352916020019161072b565b610b3d7fa49807205ce4d355092ef5a8a18f56e8913cf4a201fbe287825b095693c217756108c3610d5f565b610b785760405162461bcd60e51b81526004018080602001828103825260358152602001806119786035913960400191505060405180910390fd5b61090d8282611282565b600081565b60006107f9610b94610d5f565b8461088185604051806060016040528060258152602001611ad26025913960666000610bbe610d5f565b6001600160a01b03908116825260208083019390935260409182016000908120918d16815292529020549190610fac565b60006107f9610bfc610d5f565b8484610e4f565b60008181526033602052604081206107fd9061137e565b600082815260336020526040902060020154610c38906108c3610d5f565b6109715760405162461bcd60e51b81526004018080602001828103825260308152602001806119ad6030913960400191505060405180910390fd5b6001600160a01b03918216600090815260666020908152604080832093909416825291909152205490565b6000610ca930611389565b15905090565b600054610100900460ff1680610cc85750610cc8610c9e565b80610cd6575060005460ff16155b610d115760405162461bcd60e51b815260040180806020018281038252602e8152602001806119dd602e913960400191505060405180910390fd5b600054610100900460ff16158015610d3c576000805460ff1961ff0019909116610100171660011790555b610d4461138f565b610d4c61138f565b610d568484611431565b6107cd8261150a565b3390565b6001600160a01b038316610da85760405162461bcd60e51b8152600401808060200182810382526024815260200180611aae6024913960400191505060405180910390fd5b6001600160a01b038216610ded5760405162461bcd60e51b81526004018080602001828103825260228152602001806119306022913960400191505060405180910390fd5b6001600160a01b03808416600081815260666020908152604080832094871680845294825291829020859055815185815291517f8c5be1e5ebec7d5bd14f71427d1e84f3dd0314c0f7b2291e5b200ac8c7c3b9259281900390910190a3505050565b6001600160a01b038316610e945760405162461bcd60e51b8152600401808060200182810382526025815260200180611a546025913960400191505060405180910390fd5b6001600160a01b038216610ed95760405162461bcd60e51b81526004018080602001828103825260238152602001806118bc6023913960400191505060405180910390fd5b610ee48383836115d6565b610f2181604051806060016040528060268152602001611952602691396001600160a01b0386166000908152606560205260409020549190610fac565b6001600160a01b038085166000908152606560205260408082209390935590841681522054610f509082611115565b6001600160a01b0380841660008181526065602090815260409182902094909455805185815290519193928716927fddf252ad1be2c89b69c2b068fc378daa952ba7f163c4a11628f55a4df523b3ef92918290030190a3505050565b6000818484111561103b5760405162461bcd60e51b81526004018080602001828103825283818151815260200191508051906020019080838360005b83811015611000578181015183820152602001610fe8565b50505050905090810190601f16801561102d5780820380516001836020036101000a031916815260200191505b509250505060405180910390fd5b505050900390565b600082815260336020526040902061105b90826115e1565b1561090d57611068610d5f565b6001600160a01b0316816001600160a01b0316837f2f8788117e7eff1d82e926ec794901d17c78024a50270940304540a733656f0d60405160405180910390a45050565b60008281526033602052604090206110c490826115f6565b1561090d576110d1610d5f565b6001600160a01b0316816001600160a01b0316837ff6391f5c32d9c69d2a47ea670b442974b53935d1edc7fd64eb21e047a839171b60405160405180910390a45050565b600082820183811015610a91576040805162461bcd60e51b815260206004820152601b60248201527f536166654d6174683a206164646974696f6e206f766572666c6f770000000000604482015290519081900360640190fd5b6001600160a01b0382166111ca576040805162461bcd60e51b815260206004820152601f60248201527f45524332303a206d696e7420746f20746865207a65726f206164647265737300604482015290519081900360640190fd5b6111d6600083836115d6565b6067546111e39082611115565b6067556001600160a01b0382166000908152606560205260409020546112099082611115565b6001600160a01b03831660008181526065602090815260408083209490945583518581529351929391927fddf252ad1be2c89b69c2b068fc378daa952ba7f163c4a11628f55a4df523b3ef9281900390910190a35050565b6000610a91838361160b565b6000610a91836001600160a01b03841661166f565b6001600160a01b0382166112c75760405162461bcd60e51b8152600401808060200182810382526021815260200180611a336021913960400191505060405180910390fd5b6112d3826000836115d6565b6113108160405180606001604052806022815260200161190e602291396001600160a01b0385166000908152606560205260409020549190610fac565b6001600160a01b0383166000908152606560205260409020556067546113369082611687565b6067556040805182815290516000916001600160a01b038516917fddf252ad1be2c89b69c2b068fc378daa952ba7f163c4a11628f55a4df523b3ef9181900360200190a35050565b60006107fd826116e4565b3b151590565b600054610100900460ff16806113a857506113a8610c9e565b806113b6575060005460ff16155b6113f15760405162461bcd60e51b815260040180806020018281038252602e8152602001806119dd602e913960400191505060405180910390fd5b600054610100900460ff1615801561141c576000805460ff1961ff0019909116610100171660011790555b801561142e576000805461ff00191690555b50565b600054610100900460ff168061144a575061144a610c9e565b80611458575060005460ff16155b6114935760405162461bcd60e51b815260040180806020018281038252602e8152602001806119dd602e913960400191505060405180910390fd5b600054610100900460ff161580156114be576000805460ff1961ff0019909116610100171660011790555b82516114d19060689060208601906117f8565b5081516114e59060699060208501906117f8565b50606a805460ff191660121790558015611505576000805461ff00191690555b505050565b600054610100900460ff16806115235750611523610c9e565b80611531575060005460ff16155b61156c5760405162461bcd60e51b815260040180806020018281038252602e8152602001806119dd602e913960400191505060405180910390fd5b600054610100900460ff16158015611597576000805460ff1961ff0019909116610100171660011790555b6115c17fa49807205ce4d355092ef5a8a18f56e8913cf4a201fbe287825b095693c2177583610903565b801561090d576000805461ff00191690555050565b611505838383611505565b6000610a91836001600160a01b0384166116e8565b6000610a91836001600160a01b038416611732565b8154600090821061164d5760405162461bcd60e51b815260040180806020018281038252602281526020018061189a6022913960400191505060405180910390fd5b82600001828154811061165c57fe5b9060005260206000200154905092915050565b60009081526001919091016020526040902054151590565b6000828211156116de576040805162461bcd60e51b815260206004820152601e60248201527f536166654d6174683a207375627472616374696f6e206f766572666c6f770000604482015290519081900360640190fd5b50900390565b5490565b60006116f4838361166f565b61172a575081546001818101845560008481526020808220909301849055845484825282860190935260409020919091556107fd565b5060006107fd565b600081815260018301602052604081205480156117ee578354600019808301919081019060009087908390811061176557fe5b906000526020600020015490508087600001848154811061178257fe5b6000918252602080832090910192909255828152600189810190925260409020908401905586548790806117b257fe5b600190038181906000526020600020016000905590558660010160008781526020019081526020016000206000905560019450505050506107fd565b60009150506107fd565b828054600181600116156101000203166002900490600052602060002090601f01602090048101928261182e5760008555611874565b82601f1061184757805160ff1916838001178555611874565b82800160010185558215611874579182015b82811115611874578251825591602001919060010190611859565b50611880929150611884565b5090565b5b80821115611880576000815560010161188556fe456e756d657261626c655365743a20696e646578206f7574206f6620626f756e647345524332303a207472616e7366657220746f20746865207a65726f2061646472657373416363657373436f6e74726f6c3a2073656e646572206d75737420626520616e2061646d696e20746f206772616e7445524332303a206275726e20616d6f756e7420657863656564732062616c616e636545524332303a20617070726f766520746f20746865207a65726f206164647265737345524332303a207472616e7366657220616d6f756e7420657863656564732062616c616e636545524332305072657365744d696e7465725061757365723a206d75737420686176652061646d696e20726f6c6520746f206275726e416363657373436f6e74726f6c3a2073656e646572206d75737420626520616e2061646d696e20746f207265766f6b65496e697469616c697a61626c653a20636f6e747261637420697320616c726561647920696e697469616c697a656445524332303a207472616e7366657220616d6f756e74206578636565647320616c6c6f77616e636545524332303a206275726e2066726f6d20746865207a65726f206164647265737345524332303a207472616e736665722066726f6d20746865207a65726f206164647265737345524332305072657365744d696e7465725061757365723a206d75737420686176652061646d696e20726f6c6520746f206d696e7445524332303a20617070726f76652066726f6d20746865207a65726f206164647265737345524332303a2064656372656173656420616c6c6f77616e63652062656c6f77207a65726f416363657373436f6e74726f6c3a2063616e206f6e6c792072656e6f756e636520726f6c657320666f722073656c66a2646970667358221220eb376f4edb72c226858486594621be112203282c7b41b158e9575798749e8bdb64736f6c63430007040033",
  "linkReferences": {},
  "deployedLinkReferences": {}
}