{
  "_format": "hh-sol-artifact-1",
  "contractName": "MockLiquidityPool",
  "sourceName": "contracts/test/MockLiquidityPool.sol",
  "abi": [
    {
      "inputs": [
        {
          "internalType": "uint256",
          "name": "perpetualIndex",
          "type": "uint256"
        },
        {
          "internalType": "int256",
          "name": "settlementPrice",
          "type": "int256"
        }
      ],
      "name": "forceToSetEmergencyState",
      "outputs": [],
      "stateMutability": "nonpayable",
      "type": "function"
    },
    {
      "inputs": [],
      "name": "getLiquidityPoolInfo",
      "outputs": [
        {
          "internalType": "bool",
          "name": "isRunning",
          "type": "bool"
        },
        {
          "internalType": "bool",
          "name": "isFastCreationEnabled",
          "type": "bool"
        },
        {
          "internalType": "address[7]",
          "name": "addresses",
          "type": "address[7]"
        },
        {
          "internalType": "int256[5]",
          "name": "intNums",
          "type": "int256[5]"
        },
        {
          "internalType": "uint256[6]",
          "name": "uintNums",
          "type": "uint256[6]"
        }
      ],
      "stateMutability": "view",
      "type": "function"
    },
    {
      "inputs": [],
      "name": "operator",
      "outputs": [
        {
          "internalType": "address",
          "name": "",
          "type": "address"
        }
      ],
      "stateMutability": "view",
      "type": "function"
    },
    {
      "inputs": [
        {
          "internalType": "bool",
          "name": "enabled",
          "type": "bool"
        }
      ],
      "name": "setFastCreationEnabled",
      "outputs": [],
      "stateMutability": "nonpayable",
      "type": "function"
    },
    {
      "inputs": [
        {
          "internalType": "address",
          "name": "newOperator",
          "type": "address"
        }
      ],
      "name": "setOperator",
      "outputs": [],
      "stateMutability": "nonpayable",
      "type": "function"
    },
    {
      "inputs": [
        {
          "internalType": "address",
          "name": "operator_",
          "type": "address"
        }
      ],
      "name": "setOperatorDebug",
      "outputs": [],
      "stateMutability": "nonpayable",
      "type": "function"
    }
  ],
  "bytecode": "0x608060405234801561001057600080fd5b5061068d806100206000396000f3fe608060405234801561001057600080fd5b50600436106100725760003560e01c8063d45ceb4b11610050578063d45ceb4b1461016d578063d73b5e4214610193578063e8df2ba8146101b657610072565b80630cdc105a14610077578063570ca73514610121578063b3ab15fb14610145575b600080fd5b61007f6101d5565b60408051861515815285151560208201529081018460e080838360005b838110156100b457818101518382015260200161009c565b5050505090500183600560200280838360005b838110156100df5781810151838201526020016100c7565b5050505090500182600660200280838360005b8381101561010a5781810151838201526020016100f2565b505050509050019550505050505060405180910390f35b61012961020c565b604080516001600160a01b039092168252519081900360200190f35b61016b6004803603602081101561015b57600080fd5b50356001600160a01b031661021b565b005b61016b6004803603602081101561018357600080fd5b50356001600160a01b0316610240565b61016b600480360360408110156101a957600080fd5b508035906020013561027a565b61016b600480360360208110156101cc57600080fd5b503515156102a1565b6000806101e0610560565b6101e861057e565b6101f061059c565b6000546001600160a01b03166020840152939492939192909190565b6000546001600160a01b031681565b61023d6040518060600160405280602b815260200161062d602b9139826102d4565b50565b600080547fffffffffffffffffffffffff0000000000000000000000000000000000000000166001600160a01b0392909216919091179055565b61029d6040518060600160405280603c81526020016105bb603c913983836103a4565b5050565b61023d6040518060600160405280603681526020016105f760369139826102c95760006102cc565b60015b60ff16610478565b61029d82826040516024018080602001836001600160a01b03168152602001828103825284818151815260200191508051906020019080838360005b83811015610328578181015183820152602001610310565b50505050905090810190601f1680156103555780820380516001836020036101000a031916815260200191505b5060408051601f198184030181529190526020810180516001600160e01b03167f319af33300000000000000000000000000000000000000000000000000000000179052935061053f92505050565b6104738383836040516024018080602001848152602001838152602001828103825285818151815260200191508051906020019080838360005b838110156103f65781810151838201526020016103de565b50505050905090810190601f1680156104235780820380516001836020036101000a031916815260200191505b5060408051601f198184030181529190526020810180516001600160e01b03167f969cdd0300000000000000000000000000000000000000000000000000000000179052945061053f9350505050565b505050565b61029d82826040516024018080602001838152602001828103825284818151815260200191508051906020019080838360005b838110156104c35781810151838201526020016104ab565b50505050905090810190601f1680156104f05780820380516001836020036101000a031916815260200191505b5060408051601f198184030181529190526020810180516001600160e01b03167f9710a9d000000000000000000000000000000000000000000000000000000000179052935061053f92505050565b80516a636f6e736f6c652e6c6f67602083016000808483855afa5050505050565b6040518060e001604052806007906020820280368337509192915050565b6040518060a001604052806005906020820280368337509192915050565b6040518060c00160405280600690602082028036833750919291505056fe4d6f636b4c6971756964697479506f6f6c203a3a20666f726365546f536574456d657267656e637953746174652825732c202573292063616c6c65644d6f636b4c6971756964697479506f6f6c203a3a20736574466173744372656174696f6e456e61626c6564282573292063616c6c65644d6f636b4c6971756964697479506f6f6c203a3a207365744f70657261746f72282573292063616c6c6564a264697066735822122024b908acdd0f1a63dc44754de4814caa682c892deaef1466ed24059b99583f9864736f6c63430007040033",
  "linkReferences": {},
  "deployedLinkReferences": {}
}