{
  "_format": "hh-sol-artifact-1",
  "contractName": "LiquidityPool",
  "sourceName": "contracts/LiquidityPool.sol",
  "abi": [
    {
      "anonymous": false,
      "inputs": [
        {
          "indexed": false,
          "internalType": "uint256",
          "name": "perpetualIndex",
          "type": "uint256"
        },
        {
          "indexed": true,
          "internalType": "address",
          "name": "keeper",
          "type": "address"
        }
      ],
      "name": "AddAMMKeeper",
      "type": "event"
    },
    {
      "anonymous": false,
      "inputs": [
        {
          "indexed": true,
          "internalType": "address",
          "name": "trader",
          "type": "address"
        },
        {
          "indexed": false,
          "internalType": "int256",
          "name": "addedCash",
          "type": "int256"
        },
        {
          "indexed": false,
          "internalType": "int256",
          "name": "mintedShare",
          "type": "int256"
        },
        {
          "indexed": false,
          "internalType": "int256",
          "name": "addedPoolMargin",
          "type": "int256"
        }
      ],
      "name": "AddLiquidity",
      "type": "event"
    },
    {
      "anonymous": false,
      "inputs": [
        {
          "indexed": false,
          "internalType": "uint256",
          "name": "perpetualIndex",
          "type": "uint256"
        },
        {
          "indexed": true,
          "internalType": "address",
          "name": "keeper",
          "type": "address"
        }
      ],
      "name": "AddTraderKeeper",
      "type": "event"
    },
    {
      "anonymous": false,
      "inputs": [
        {
          "indexed": true,
          "internalType": "address",
          "name": "newOperator",
          "type": "address"
        }
      ],
      "name": "ClaimOperator",
      "type": "event"
    },
    {
      "anonymous": false,
      "inputs": [
        {
          "indexed": false,
          "internalType": "uint256",
          "name": "perpetualIndex",
          "type": "uint256"
        },
        {
          "indexed": true,
          "internalType": "address",
          "name": "trader",
          "type": "address"
        }
      ],
      "name": "Clear",
      "type": "event"
    },
    {
      "anonymous": false,
      "inputs": [
        {
          "indexed": false,
          "internalType": "uint256",
          "name": "perpetualIndex",
          "type": "uint256"
        },
        {
          "indexed": false,
          "internalType": "address",
          "name": "governor",
          "type": "address"
        },
        {
          "indexed": false,
          "internalType": "address",
          "name": "shareToken",
          "type": "address"
        },
        {
          "indexed": false,
          "internalType": "address",
          "name": "operator",
          "type": "address"
        },
        {
          "indexed": false,
          "internalType": "address",
          "name": "oracle",
          "type": "address"
        },
        {
          "indexed": false,
          "internalType": "address",
          "name": "collateral",
          "type": "address"
        },
        {
          "indexed": false,
          "internalType": "int256[9]",
          "name": "baseParams",
          "type": "int256[9]"
        },
        {
          "indexed": false,
          "internalType": "int256[8]",
          "name": "riskParams",
          "type": "int256[8]"
        }
      ],
      "name": "CreatePerpetual",
      "type": "event"
    },
    {
      "anonymous": false,
      "inputs": [
        {
          "indexed": false,
          "internalType": "uint256",
          "name": "perpetualIndex",
          "type": "uint256"
        },
        {
          "indexed": true,
          "internalType": "address",
          "name": "trader",
          "type": "address"
        },
        {
          "indexed": false,
          "internalType": "int256",
          "name": "amount",
          "type": "int256"
        }
      ],
      "name": "Deposit",
      "type": "event"
    },
    {
      "anonymous": false,
      "inputs": [
        {
          "indexed": false,
          "internalType": "int256",
          "name": "amount",
          "type": "int256"
        }
      ],
      "name": "DonateInsuranceFund",
      "type": "event"
    },
    {
      "anonymous": false,
      "inputs": [
        {
          "indexed": false,
          "internalType": "uint256",
          "name": "perpetualIndex",
          "type": "uint256"
        },
        {
          "indexed": true,
          "internalType": "address",
          "name": "liquidator",
          "type": "address"
        },
        {
          "indexed": true,
          "internalType": "address",
          "name": "trader",
          "type": "address"
        },
        {
          "indexed": false,
          "internalType": "int256",
          "name": "amount",
          "type": "int256"
        },
        {
          "indexed": false,
          "internalType": "int256",
          "name": "price",
          "type": "int256"
        },
        {
          "indexed": false,
          "internalType": "int256",
          "name": "penalty",
          "type": "int256"
        },
        {
          "indexed": false,
          "internalType": "int256",
          "name": "penaltyToLP",
          "type": "int256"
        }
      ],
      "name": "Liquidate",
      "type": "event"
    },
    {
      "anonymous": false,
      "inputs": [
        {
          "indexed": true,
          "internalType": "address",
          "name": "operator",
          "type": "address"
        }
      ],
      "name": "OperatorCheckIn",
      "type": "event"
    },
    {
      "anonymous": false,
      "inputs": [
        {
          "indexed": false,
          "internalType": "uint256",
          "name": "perpetualIndex",
          "type": "uint256"
        },
        {
          "indexed": true,
          "internalType": "address",
          "name": "keeper",
          "type": "address"
        }
      ],
      "name": "RemoveAMMKeeper",
      "type": "event"
    },
    {
      "anonymous": false,
      "inputs": [
        {
          "indexed": true,
          "internalType": "address",
          "name": "trader",
          "type": "address"
        },
        {
          "indexed": false,
          "internalType": "int256",
          "name": "returnedCash",
          "type": "int256"
        },
        {
          "indexed": false,
          "internalType": "int256",
          "name": "burnedShare",
          "type": "int256"
        },
        {
          "indexed": false,
          "internalType": "int256",
          "name": "removedPoolMargin",
          "type": "int256"
        }
      ],
      "name": "RemoveLiquidity",
      "type": "event"
    },
    {
      "anonymous": false,
      "inputs": [
        {
          "indexed": false,
          "internalType": "uint256",
          "name": "perpetualIndex",
          "type": "uint256"
        },
        {
          "indexed": true,
          "internalType": "address",
          "name": "keeper",
          "type": "address"
        }
      ],
      "name": "RemoveTraderKeeper",
      "type": "event"
    },
    {
      "anonymous": false,
      "inputs": [],
      "name": "RevokeOperator",
      "type": "event"
    },
    {
      "anonymous": false,
      "inputs": [],
      "name": "RunLiquidityPool",
      "type": "event"
    },
    {
      "anonymous": false,
      "inputs": [
        {
          "indexed": false,
          "internalType": "uint256",
          "name": "perpetualIndex",
          "type": "uint256"
        }
      ],
      "name": "SetClearedState",
      "type": "event"
    },
    {
      "anonymous": false,
      "inputs": [
        {
          "indexed": false,
          "internalType": "uint256",
          "name": "perpetualIndex",
          "type": "uint256"
        },
        {
          "indexed": false,
          "internalType": "int256",
          "name": "settlementPrice",
          "type": "int256"
        },
        {
          "indexed": false,
          "internalType": "uint256",
          "name": "settlementTime",
          "type": "uint256"
        }
      ],
      "name": "SetEmergencyState",
      "type": "event"
    },
    {
      "anonymous": false,
      "inputs": [
        {
          "indexed": false,
          "internalType": "int256[4]",
          "name": "value",
          "type": "int256[4]"
        }
      ],
      "name": "SetLiquidityPoolParameter",
      "type": "event"
    },
    {
      "anonymous": false,
      "inputs": [
        {
          "indexed": false,
          "internalType": "uint256",
          "name": "perpetualIndex",
          "type": "uint256"
        }
      ],
      "name": "SetNormalState",
      "type": "event"
    },
    {
      "anonymous": false,
      "inputs": [
        {
          "indexed": false,
          "internalType": "uint256",
          "name": "perpetualIndex",
          "type": "uint256"
        },
        {
          "indexed": true,
          "internalType": "address",
          "name": "oldOracle",
          "type": "address"
        },
        {
          "indexed": true,
          "internalType": "address",
          "name": "newOracle",
          "type": "address"
        }
      ],
      "name": "SetOracle",
      "type": "event"
    },
    {
      "anonymous": false,
      "inputs": [
        {
          "indexed": false,
          "internalType": "uint256",
          "name": "perpetualIndex",
          "type": "uint256"
        },
        {
          "indexed": false,
          "internalType": "int256[9]",
          "name": "baseParams",
          "type": "int256[9]"
        }
      ],
      "name": "SetPerpetualBaseParameter",
      "type": "event"
    },
    {
      "anonymous": false,
      "inputs": [
        {
          "indexed": false,
          "internalType": "uint256",
          "name": "perpetualIndex",
          "type": "uint256"
        },
        {
          "indexed": false,
          "internalType": "int256[8]",
          "name": "riskParams",
          "type": "int256[8]"
        },
        {
          "indexed": false,
          "internalType": "int256[8]",
          "name": "minRiskParamValues",
          "type": "int256[8]"
        },
        {
          "indexed": false,
          "internalType": "int256[8]",
          "name": "maxRiskParamValues",
          "type": "int256[8]"
        }
      ],
      "name": "SetPerpetualRiskParameter",
      "type": "event"
    },
    {
      "anonymous": false,
      "inputs": [
        {
          "indexed": false,
          "internalType": "uint256",
          "name": "perpetualIndex",
          "type": "uint256"
        },
        {
          "indexed": true,
          "internalType": "address",
          "name": "trader",
          "type": "address"
        },
        {
          "indexed": false,
          "internalType": "int256",
          "name": "targetLeverage",
          "type": "int256"
        }
      ],
      "name": "SetTargetLeverage",
      "type": "event"
    },
    {
      "anonymous": false,
      "inputs": [
        {
          "indexed": false,
          "internalType": "uint256",
          "name": "perpetualIndex",
          "type": "uint256"
        },
        {
          "indexed": true,
          "internalType": "address",
          "name": "trader",
          "type": "address"
        },
        {
          "indexed": false,
          "internalType": "int256",
          "name": "amount",
          "type": "int256"
        }
      ],
      "name": "Settle",
      "type": "event"
    },
    {
      "anonymous": false,
      "inputs": [
        {
          "indexed": false,
          "internalType": "uint256",
          "name": "perpetualIndex",
          "type": "uint256"
        },
        {
          "indexed": true,
          "internalType": "address",
          "name": "trader",
          "type": "address"
        },
        {
          "indexed": false,
          "internalType": "int256",
          "name": "position",
          "type": "int256"
        },
        {
          "indexed": false,
          "internalType": "int256",
          "name": "price",
          "type": "int256"
        },
        {
          "indexed": false,
          "internalType": "int256",
          "name": "fee",
          "type": "int256"
        },
        {
          "indexed": false,
          "internalType": "int256",
          "name": "lpFee",
          "type": "int256"
        }
      ],
      "name": "Trade",
      "type": "event"
    },
    {
      "anonymous": false,
      "inputs": [
        {
          "indexed": false,
          "internalType": "int256",
          "name": "amount",
          "type": "int256"
        }
      ],
      "name": "TransferExcessInsuranceFundToLP",
      "type": "event"
    },
    {
      "anonymous": false,
      "inputs": [
        {
          "indexed": true,
          "internalType": "address",
          "name": "operator",
          "type": "address"
        },
        {
          "indexed": false,
          "internalType": "int256",
          "name": "operatorFee",
          "type": "int256"
        }
      ],
      "name": "TransferFeeToOperator",
      "type": "event"
    },
    {
      "anonymous": false,
      "inputs": [
        {
          "indexed": false,
          "internalType": "uint256",
          "name": "perpetualIndex",
          "type": "uint256"
        },
        {
          "indexed": true,
          "internalType": "address",
          "name": "trader",
          "type": "address"
        },
        {
          "indexed": true,
          "internalType": "address",
          "name": "referrer",
          "type": "address"
        },
        {
          "indexed": false,
          "internalType": "int256",
          "name": "referralRebate",
          "type": "int256"
        }
      ],
      "name": "TransferFeeToReferrer",
      "type": "event"
    },
    {
      "anonymous": false,
      "inputs": [
        {
          "indexed": true,
          "internalType": "address",
          "name": "newOperator",
          "type": "address"
        }
      ],
      "name": "TransferOperatorTo",
      "type": "event"
    },
    {
      "anonymous": false,
      "inputs": [
        {
          "indexed": false,
          "internalType": "uint256",
          "name": "perpetualIndex",
          "type": "uint256"
        },
        {
          "indexed": false,
          "internalType": "int256",
          "name": "fundingRate",
          "type": "int256"
        }
      ],
      "name": "UpdateFundingRate",
      "type": "event"
    },
    {
      "anonymous": false,
      "inputs": [
        {
          "indexed": false,
          "internalType": "uint256",
          "name": "perpetualIndex",
          "type": "uint256"
        },
        {
          "indexed": false,
          "internalType": "int256[8]",
          "name": "riskParams",
          "type": "int256[8]"
        }
      ],
      "name": "UpdatePerpetualRiskParameter",
      "type": "event"
    },
    {
      "anonymous": false,
      "inputs": [
        {
          "indexed": false,
          "internalType": "int256",
          "name": "poolMargin",
          "type": "int256"
        }
      ],
      "name": "UpdatePoolMargin",
      "type": "event"
    },
    {
      "anonymous": false,
      "inputs": [
        {
          "indexed": false,
          "internalType": "uint256",
          "name": "perpetualIndex",
          "type": "uint256"
        },
        {
          "indexed": true,
          "internalType": "address",
          "name": "oracle",
          "type": "address"
        },
        {
          "indexed": false,
          "internalType": "int256",
          "name": "markPrice",
          "type": "int256"
        },
        {
          "indexed": false,
          "internalType": "uint256",
          "name": "markPriceUpdateTime",
          "type": "uint256"
        },
        {
          "indexed": false,
          "internalType": "int256",
          "name": "indexPrice",
          "type": "int256"
        },
        {
          "indexed": false,
          "internalType": "uint256",
          "name": "indexPriceUpdateTime",
          "type": "uint256"
        }
      ],
      "name": "UpdatePrice",
      "type": "event"
    },
    {
      "anonymous": false,
      "inputs": [
        {
          "indexed": false,
          "internalType": "uint256",
          "name": "perpetualIndex",
          "type": "uint256"
        },
        {
          "indexed": false,
          "internalType": "int256",
          "name": "unitAccumulativeFunding",
          "type": "int256"
        }
      ],
      "name": "UpdateUnitAccumulativeFunding",
      "type": "event"
    },
    {
      "anonymous": false,
      "inputs": [
        {
          "indexed": false,
          "internalType": "uint256",
          "name": "perpetualIndex",
          "type": "uint256"
        },
        {
          "indexed": true,
          "internalType": "address",
          "name": "trader",
          "type": "address"
        },
        {
          "indexed": false,
          "internalType": "int256",
          "name": "amount",
          "type": "int256"
        }
      ],
      "name": "Withdraw",
      "type": "event"
    },
    {
      "inputs": [
        {
          "internalType": "uint256",
          "name": "perpetualIndex",
          "type": "uint256"
        },
        {
          "internalType": "address",
          "name": "keeper",
          "type": "address"
        }
      ],
      "name": "addAMMKeeper",
      "outputs": [],
      "stateMutability": "nonpayable",
      "type": "function"
    },
    {
      "inputs": [
        {
          "internalType": "int256",
          "name": "cashToAdd",
          "type": "int256"
        }
      ],
      "name": "addLiquidity",
      "outputs": [],
      "stateMutability": "nonpayable",
      "type": "function"
    },
    {
      "inputs": [
        {
          "internalType": "bytes",
          "name": "orderData",
          "type": "bytes"
        },
        {
          "internalType": "int256",
          "name": "amount",
          "type": "int256"
        }
      ],
      "name": "brokerTrade",
      "outputs": [
        {
          "internalType": "int256",
          "name": "tradeAmount",
          "type": "int256"
        }
      ],
      "stateMutability": "nonpayable",
      "type": "function"
    },
    {
      "inputs": [],
      "name": "checkIn",
      "outputs": [],
      "stateMutability": "nonpayable",
      "type": "function"
    },
    {
      "inputs": [],
      "name": "claimOperator",
      "outputs": [],
      "stateMutability": "nonpayable",
      "type": "function"
    },
    {
      "inputs": [
        {
          "internalType": "uint256",
          "name": "perpetualIndex",
          "type": "uint256"
        }
      ],
      "name": "clear",
      "outputs": [],
      "stateMutability": "nonpayable",
      "type": "function"
    },
    {
      "inputs": [
        {
          "internalType": "address",
          "name": "oracle",
          "type": "address"
        },
        {
          "internalType": "int256[9]",
          "name": "baseParams",
          "type": "int256[9]"
        },
        {
          "internalType": "int256[8]",
          "name": "riskParams",
          "type": "int256[8]"
        },
        {
          "internalType": "int256[8]",
          "name": "minRiskParamValues",
          "type": "int256[8]"
        },
        {
          "internalType": "int256[8]",
          "name": "maxRiskParamValues",
          "type": "int256[8]"
        }
      ],
      "name": "createPerpetual",
      "outputs": [],
      "stateMutability": "nonpayable",
      "type": "function"
    },
    {
      "inputs": [
        {
          "internalType": "uint256",
          "name": "perpetualIndex",
          "type": "uint256"
        },
        {
          "internalType": "address",
          "name": "trader",
          "type": "address"
        },
        {
          "internalType": "int256",
          "name": "amount",
          "type": "int256"
        }
      ],
      "name": "deposit",
      "outputs": [],
      "stateMutability": "nonpayable",
      "type": "function"
    },
    {
      "inputs": [
        {
          "internalType": "int256",
          "name": "amount",
          "type": "int256"
        }
      ],
      "name": "donateInsuranceFund",
      "outputs": [],
      "stateMutability": "nonpayable",
      "type": "function"
    },
    {
      "inputs": [
        {
          "internalType": "int256",
          "name": "cashToAdd",
          "type": "int256"
        }
      ],
      "name": "donateLiquidity",
      "outputs": [],
      "stateMutability": "nonpayable",
      "type": "function"
    },
    {
      "inputs": [
        {
          "internalType": "uint256",
          "name": "perpetualIndex",
          "type": "uint256"
        },
        {
          "internalType": "int256",
          "name": "settlementPrice",
          "type": "int256"
        }
      ],
      "name": "forceToSetEmergencyState",
      "outputs": [],
      "stateMutability": "nonpayable",
      "type": "function"
    },
    {
      "inputs": [],
      "name": "forceToSyncState",
      "outputs": [],
      "stateMutability": "nonpayable",
      "type": "function"
    },
    {
      "inputs": [
        {
          "internalType": "uint256",
          "name": "perpetualIndex",
          "type": "uint256"
        }
      ],
      "name": "getActiveAccountCount",
      "outputs": [
        {
          "internalType": "uint256",
          "name": "activeAccountCount",
          "type": "uint256"
        }
      ],
      "stateMutability": "view",
      "type": "function"
    },
    {
      "inputs": [
        {
          "internalType": "uint256",
          "name": "perpetualIndex",
          "type": "uint256"
        }
      ],
      "name": "getClearProgress",
      "outputs": [
        {
          "internalType": "uint256",
          "name": "left",
          "type": "uint256"
        },
        {
          "internalType": "uint256",
          "name": "total",
          "type": "uint256"
        }
      ],
      "stateMutability": "view",
      "type": "function"
    },
    {
      "inputs": [],
      "name": "getLiquidityPoolInfo",
      "outputs": [
        {
          "internalType": "bool",
          "name": "isRunning",
          "type": "bool"
        },
        {
          "internalType": "bool",
          "name": "isFastCreationEnabled",
          "type": "bool"
        },
        {
          "internalType": "address[7]",
          "name": "addresses",
          "type": "address[7]"
        },
        {
          "internalType": "int256[5]",
          "name": "intNums",
          "type": "int256[5]"
        },
        {
          "internalType": "uint256[6]",
          "name": "uintNums",
          "type": "uint256[6]"
        }
      ],
      "stateMutability": "view",
      "type": "function"
    },
    {
      "inputs": [
        {
          "internalType": "uint256",
          "name": "perpetualIndex",
          "type": "uint256"
        },
        {
          "internalType": "address",
          "name": "trader",
          "type": "address"
        }
      ],
      "name": "getMarginAccount",
      "outputs": [
        {
          "internalType": "int256",
          "name": "cash",
          "type": "int256"
        },
        {
          "internalType": "int256",
          "name": "position",
          "type": "int256"
        },
        {
          "internalType": "int256",
          "name": "availableMargin",
          "type": "int256"
        },
        {
          "internalType": "int256",
          "name": "margin",
          "type": "int256"
        },
        {
          "internalType": "int256",
          "name": "settleableMargin",
          "type": "int256"
        },
        {
          "internalType": "bool",
          "name": "isInitialMarginSafe",
          "type": "bool"
        },
        {
          "internalType": "bool",
          "name": "isMaintenanceMarginSafe",
          "type": "bool"
        },
        {
          "internalType": "bool",
          "name": "isMarginSafe",
          "type": "bool"
        },
        {
          "internalType": "int256",
          "name": "targetLeverage",
          "type": "int256"
        }
      ],
      "stateMutability": "view",
      "type": "function"
    },
    {
      "inputs": [
        {
          "internalType": "uint256",
          "name": "perpetualIndex",
          "type": "uint256"
        }
      ],
      "name": "getPerpetualInfo",
      "outputs": [
        {
          "internalType": "enum PerpetualState",
          "name": "state",
          "type": "uint8"
        },
        {
          "internalType": "address",
          "name": "oracle",
          "type": "address"
        },
        {
          "internalType": "int256[39]",
          "name": "nums",
          "type": "int256[39]"
        }
      ],
      "stateMutability": "view",
      "type": "function"
    },
    {
      "inputs": [],
      "name": "getPoolMargin",
      "outputs": [
        {
          "internalType": "int256",
          "name": "poolMargin",
          "type": "int256"
        },
        {
          "internalType": "bool",
          "name": "isAMMSafe",
          "type": "bool"
        }
      ],
      "stateMutability": "view",
      "type": "function"
    },
    {
      "inputs": [
        {
          "internalType": "address",
          "name": "operator",
          "type": "address"
        },
        {
          "internalType": "address",
          "name": "collateral",
          "type": "address"
        },
        {
          "internalType": "uint256",
          "name": "collateralDecimals",
          "type": "uint256"
        },
        {
          "internalType": "address",
          "name": "governor",
          "type": "address"
        },
        {
          "internalType": "bytes",
          "name": "initData",
          "type": "bytes"
        }
      ],
      "name": "initialize",
      "outputs": [],
      "stateMutability": "nonpayable",
      "type": "function"
    },
    {
      "inputs": [
        {
          "internalType": "uint256",
          "name": "perpetualIndex",
          "type": "uint256"
        },
        {
          "internalType": "address",
          "name": "trader",
          "type": "address"
        }
      ],
      "name": "liquidateByAMM",
      "outputs": [
        {
          "internalType": "int256",
          "name": "liquidationAmount",
          "type": "int256"
        }
      ],
      "stateMutability": "nonpayable",
      "type": "function"
    },
    {
      "inputs": [
        {
          "internalType": "uint256",
          "name": "perpetualIndex",
          "type": "uint256"
        },
        {
          "internalType": "address",
          "name": "liquidator",
          "type": "address"
        },
        {
          "internalType": "address",
          "name": "trader",
          "type": "address"
        },
        {
          "internalType": "int256",
          "name": "amount",
          "type": "int256"
        },
        {
          "internalType": "int256",
          "name": "limitPrice",
          "type": "int256"
        },
        {
          "internalType": "uint256",
          "name": "deadline",
          "type": "uint256"
        }
      ],
      "name": "liquidateByTrader",
      "outputs": [
        {
          "internalType": "int256",
          "name": "liquidationAmount",
          "type": "int256"
        }
      ],
      "stateMutability": "nonpayable",
      "type": "function"
    },
    {
      "inputs": [
        {
          "internalType": "uint256",
          "name": "perpetualIndex",
          "type": "uint256"
        },
        {
          "internalType": "uint256",
          "name": "begin",
          "type": "uint256"
        },
        {
          "internalType": "uint256",
          "name": "end",
          "type": "uint256"
        }
      ],
      "name": "listActiveAccounts",
      "outputs": [
        {
          "internalType": "address[]",
          "name": "result",
          "type": "address[]"
        }
      ],
      "stateMutability": "view",
      "type": "function"
    },
    {
      "inputs": [
        {
          "internalType": "uint256",
          "name": "perpetualIndex",
          "type": "uint256"
        },
        {
          "internalType": "uint256",
          "name": "begin",
          "type": "uint256"
        },
        {
          "internalType": "uint256",
          "name": "end",
          "type": "uint256"
        }
      ],
      "name": "listByAMMKeepers",
      "outputs": [
        {
          "internalType": "address[]",
          "name": "result",
          "type": "address[]"
        }
      ],
      "stateMutability": "view",
      "type": "function"
    },
    {
      "inputs": [
        {
          "internalType": "int256",
          "name": "cashToAdd",
          "type": "int256"
        },
        {
          "internalType": "int256",
          "name": "shareToMint",
          "type": "int256"
        }
      ],
      "name": "queryAddLiquidity",
      "outputs": [
        {
          "internalType": "int256",
          "name": "cashToAddResult",
          "type": "int256"
        },
        {
          "internalType": "int256",
          "name": "shareToMintResult",
          "type": "int256"
        }
      ],
      "stateMutability": "view",
      "type": "function"
    },
    {
      "inputs": [
        {
          "internalType": "int256",
          "name": "shareToRemove",
          "type": "int256"
        },
        {
          "internalType": "int256",
          "name": "cashToReturn",
          "type": "int256"
        }
      ],
      "name": "queryRemoveLiquidity",
      "outputs": [
        {
          "internalType": "int256",
          "name": "shareToRemoveResult",
          "type": "int256"
        },
        {
          "internalType": "int256",
          "name": "cashToReturnResult",
          "type": "int256"
        }
      ],
      "stateMutability": "view",
      "type": "function"
    },
    {
      "inputs": [
        {
          "internalType": "uint256",
          "name": "perpetualIndex",
          "type": "uint256"
        },
        {
          "internalType": "address",
          "name": "trader",
          "type": "address"
        },
        {
          "internalType": "int256",
          "name": "amount",
          "type": "int256"
        },
        {
          "internalType": "address",
          "name": "referrer",
          "type": "address"
        },
        {
          "internalType": "uint32",
          "name": "flags",
          "type": "uint32"
        }
      ],
      "name": "queryTrade",
      "outputs": [
        {
          "internalType": "int256",
          "name": "tradePrice",
          "type": "int256"
        },
        {
          "internalType": "int256",
          "name": "totalFee",
          "type": "int256"
        },
        {
          "internalType": "int256",
          "name": "cost",
          "type": "int256"
        }
      ],
      "stateMutability": "nonpayable",
      "type": "function"
    },
    {
      "inputs": [
        {
          "internalType": "uint256",
          "name": "perpetualIndex",
          "type": "uint256"
        },
        {
          "internalType": "address",
          "name": "keeper",
          "type": "address"
        }
      ],
      "name": "removeAMMKeeper",
      "outputs": [],
      "stateMutability": "nonpayable",
      "type": "function"
    },
    {
      "inputs": [
        {
          "internalType": "int256",
          "name": "shareToRemove",
          "type": "int256"
        },
        {
          "internalType": "int256",
          "name": "cashToReturn",
          "type": "int256"
        }
      ],
      "name": "removeLiquidity",
      "outputs": [],
      "stateMutability": "nonpayable",
      "type": "function"
    },
    {
      "inputs": [],
      "name": "revokeOperator",
      "outputs": [],
      "stateMutability": "nonpayable",
      "type": "function"
    },
    {
      "inputs": [],
      "name": "runLiquidityPool",
      "outputs": [],
      "stateMutability": "nonpayable",
      "type": "function"
    },
    {
      "inputs": [
        {
          "internalType": "uint256",
          "name": "perpetualIndex",
          "type": "uint256"
        }
      ],
      "name": "setEmergencyState",
      "outputs": [],
      "stateMutability": "nonpayable",
      "type": "function"
    },
    {
      "inputs": [
        {
          "internalType": "int256[4]",
          "name": "params",
          "type": "int256[4]"
        }
      ],
      "name": "setLiquidityPoolParameter",
      "outputs": [],
      "stateMutability": "nonpayable",
      "type": "function"
    },
    {
      "inputs": [
        {
          "internalType": "uint256",
          "name": "perpetualIndex",
          "type": "uint256"
        },
        {
          "internalType": "address",
          "name": "oracle",
          "type": "address"
        }
      ],
      "name": "setOracle",
      "outputs": [],
      "stateMutability": "nonpayable",
      "type": "function"
    },
    {
      "inputs": [
        {
          "internalType": "uint256",
          "name": "perpetualIndex",
          "type": "uint256"
        },
        {
          "internalType": "int256[9]",
          "name": "baseParams",
          "type": "int256[9]"
        }
      ],
      "name": "setPerpetualBaseParameter",
      "outputs": [],
      "stateMutability": "nonpayable",
      "type": "function"
    },
    {
      "inputs": [
        {
          "internalType": "uint256",
          "name": "perpetualIndex",
          "type": "uint256"
        },
        {
          "internalType": "int256[8]",
          "name": "riskParams",
          "type": "int256[8]"
        },
        {
          "internalType": "int256[8]",
          "name": "minRiskParamValues",
          "type": "int256[8]"
        },
        {
          "internalType": "int256[8]",
          "name": "maxRiskParamValues",
          "type": "int256[8]"
        }
      ],
      "name": "setPerpetualRiskParameter",
      "outputs": [],
      "stateMutability": "nonpayable",
      "type": "function"
    },
    {
      "inputs": [
        {
          "internalType": "uint256",
          "name": "perpetualIndex",
          "type": "uint256"
        },
        {
          "internalType": "address",
          "name": "trader",
          "type": "address"
        },
        {
          "internalType": "int256",
          "name": "targetLeverage",
          "type": "int256"
        }
      ],
      "name": "setTargetLeverage",
      "outputs": [],
      "stateMutability": "nonpayable",
      "type": "function"
    },
    {
      "inputs": [
        {
          "internalType": "uint256",
          "name": "perpetualIndex",
          "type": "uint256"
        },
        {
          "internalType": "address",
          "name": "trader",
          "type": "address"
        }
      ],
      "name": "settle",
      "outputs": [],
      "stateMutability": "nonpayable",
      "type": "function"
    },
    {
      "inputs": [
        {
          "internalType": "uint256",
          "name": "perpetualIndex",
          "type": "uint256"
        },
        {
          "internalType": "address",
          "name": "trader",
          "type": "address"
        },
        {
          "internalType": "int256",
          "name": "amount",
          "type": "int256"
        },
        {
          "internalType": "int256",
          "name": "limitPrice",
          "type": "int256"
        },
        {
          "internalType": "uint256",
          "name": "deadline",
          "type": "uint256"
        },
        {
          "internalType": "address",
          "name": "referrer",
          "type": "address"
        },
        {
          "internalType": "uint32",
          "name": "flags",
          "type": "uint32"
        }
      ],
      "name": "trade",
      "outputs": [
        {
          "internalType": "int256",
          "name": "tradeAmount",
          "type": "int256"
        }
      ],
      "stateMutability": "nonpayable",
      "type": "function"
    },
    {
      "inputs": [
        {
          "internalType": "address",
          "name": "newOperator",
          "type": "address"
        }
      ],
      "name": "transferOperator",
      "outputs": [],
      "stateMutability": "nonpayable",
      "type": "function"
    },
    {
      "inputs": [
        {
          "internalType": "uint256",
          "name": "perpetualIndex",
          "type": "uint256"
        },
        {
          "internalType": "int256[8]",
          "name": "riskParams",
          "type": "int256[8]"
        }
      ],
      "name": "updatePerpetualRiskParameter",
      "outputs": [],
      "stateMutability": "nonpayable",
      "type": "function"
    },
    {
      "inputs": [
        {
          "internalType": "uint256",
          "name": "perpetualIndex",
          "type": "uint256"
        },
        {
          "internalType": "address",
          "name": "trader",
          "type": "address"
        },
        {
          "internalType": "int256",
          "name": "amount",
          "type": "int256"
        }
      ],
      "name": "withdraw",
      "outputs": [],
      "stateMutability": "nonpayable",
      "type": "function"
    },
    {
      "stateMutability": "payable",
      "type": "receive"
    }
  ],
  "bytecode": "0x608060405234801561001057600080fd5b5061734f80620000216000396000f3fe6080604052600436106102c85760003560e01c80636fca8b9911610179578063962d1938116100d6578063c0fe1af81161008a578063d73b5e4211610064578063d73b5e42146107e8578063dbabbf7714610808578063f95d49361461082b576102ee565b8063c0fe1af814610793578063d4e28a12146107b3578063d54e65fb146107d3576102ee565b8063b0804456116100bb578063b080445614610749578063b674759c1461075e578063bd5b0a0914610773576102ee565b8063962d1938146107095780639db316b814610729576102ee565b80637d3ba80f1161012d578063896649901161011257806389664990146106a95780638ceef981146106c957806390bbd3e4146106e9576102ee565b80637d3ba80f1461064557806385dcd60a1461067a576102ee565b80637086fd321161015e5780637086fd32146105f0578063709240c41461060557806378f140ea14610625576102ee565b80636fca8b99146105b05780637074020e146105d0576102ee565b806329605e7711610227578063580818e3116101db5780635cfb7f8f116101c05780635cfb7f8f14610550578063675a0aa5146105705780636ef05a4014610590576102ee565b8063580818e3146105105780635b195a8214610530576102ee565b8063385975301161020c57806338597530146104b057806349a60713146104d05780634fababb3146104f0576102ee565b806329605e77146104705780632d47ba5714610490576102ee565b806313f07f451161027e57806317c675691161026357806317c675691461041b578063183ff0851461043b5780631bc5aa2014610450576102ee565b806313f07f45146103c057806316b3dd0e146103ed576102ee565b80630cdc105a116102af5780630cdc105a1461034d5780630f28c8b11461037357806310ec4beb146103a0576102ee565b8062092cce146102f35780629f22ae1461032b576102ee565b366102ee5760405162461bcd60e51b81526004016102e590616d1a565b60405180910390fd5b600080fd5b3480156102ff57600080fd5b5061031361030e3660046164c4565b61084b565b604051610322939291906169d3565b60405180910390f35b34801561033757600080fd5b5061034b610346366004616515565b610a94565b005b34801561035957600080fd5b50610362610c04565b604051610322959493929190616957565b34801561037f57600080fd5b5061039361038e3660046164c4565b610ee1565b6040516103229190616a26565b3480156103ac57600080fd5b5061034b6103bb3660046164c4565b610f54565b3480156103cc57600080fd5b506103e06103db366004616718565b61104e565b604051610322919061690a565b3480156103f957600080fd5b5061040d6104083660046164f4565b6110c6565b604051610322929190616a3f565b34801561042757600080fd5b5061034b610436366004616515565b611380565b34801561044757600080fd5b5061034b61148c565b34801561045c57600080fd5b506103e061046b366004616718565b611587565b34801561047c57600080fd5b5061034b61048b3660046162b4565b6115fe565b34801561049c57600080fd5b5061034b6104ab366004616597565b6117a5565b3480156104bc57600080fd5b5061034b6104cb3660046164c4565b611998565b3480156104dc57600080fd5b506103936104eb366004616540565b611cc9565b3480156104fc57600080fd5b5061039361050b366004616428565b6121ea565b34801561051c57600080fd5b5061034b61052b366004616515565b612522565b34801561053c57600080fd5b5061034b61054b366004616376565b612675565b34801561055c57600080fd5b5061034b61056b3660046164c4565b612830565b34801561057c57600080fd5b5061034b61058b3660046166f4565b612b23565b34801561059c57600080fd5b5061034b6105ab366004616597565b612c29565b3480156105bc57600080fd5b5061034b6105cb3660046164c4565b6130b0565b3480156105dc57600080fd5b5061034b6105eb3660046162ce565b613153565b3480156105fc57600080fd5b5061034b613277565b34801561061157600080fd5b50610393610620366004616615565b6133b1565b34801561063157600080fd5b5061034b610640366004616597565b613699565b34801561065157600080fd5b50610665610660366004616515565b6139a6565b60405161032299989796959493929190616a63565b34801561068657600080fd5b5061069a6106953660046165cb565b613aae565b60405161032293929190616a4d565b3480156106b557600080fd5b5061034b6106c43660046164f4565b613ca1565b3480156106d557600080fd5b5061040d6106e43660046164f4565b613faa565b3480156106f557600080fd5b5061040d6107043660046164c4565b6141ca565b34801561071557600080fd5b5061034b610724366004616515565b614272565b34801561073557600080fd5b5061034b6107443660046163e2565b614498565b34801561075557600080fd5b5061034b6145ad565b34801561076a57600080fd5b5061034b6146af565b34801561077f57600080fd5b5061039361078e366004616515565b614790565b34801561079f57600080fd5b5061034b6107ae3660046164c4565b614b66565b3480156107bf57600080fd5b5061034b6107ce36600461667e565b614c45565b3480156107df57600080fd5b5061034b614d52565b3480156107f457600080fd5b5061034b6108033660046164f4565b614dba565b34801561081457600080fd5b5061081d615098565b604051610322929190616a2f565b34801561083757600080fd5b5061034b6108463660046166a2565b615128565b600080610856616156565b604254849081106108a4576040805162461bcd60e51b81526020600482015260136024820152721c195c9c195d1d585b081b9bdd08195e1a5cdd606a1b604482015290519081900360640190fd5b600085815260436020908152604091829020600181015483516104e081019094526002820154845260ff8116975061010090046001600160a01b03169550919081016108ef8361524c565b81526020016108fd8361527e565b8152600a830154602080830191909152600b8401546040830152600c8401546060830152600d8401546080830152600e84015460a0830152600f84015460c0830152601084015460e08301526011840154610100830152601284015461012083015260138401546101408301526016840154610160830152601784015461018083015260188401546101a083015260198401546101c0830152601a8401546101e0830152601b840154610200830152601c840154610220830152601d840154610240830152601e840154610260830152601f8401546102808301528301546102a082015260218301546102c082015260258301546102e08201526026830154610300820152602783015461032082015260288301546103408201526029830154610360820152602a83015461038082015260038301546103a082015260158301546103c082015260228301546103e082015260238301546104008201526024830154610420820152603583015461044082015260368301546104608201526037909201546104809092019190915293959294505050565b6000610aa060336152ac565b90506001600160a01b03811615610b0d57806001600160a01b0316610ac36152d6565b6001600160a01b031614610b085760405162461bcd60e51b81526004018080602001828103825260218152602001806171b06021913960400191505060405180910390fd5b610b66565b6036546001600160a01b0316610b216152d6565b6001600160a01b031614610b665760405162461bcd60e51b81526004018080602001828103825260218152602001806172376021913960400191505060405180910390fd5b604080517f48ea454c00000000000000000000000000000000000000000000000000000000815260336004820152602481018590526001600160a01b0384166044820152905173__$c7a04b010d7229ccbe3c515e91d1303780$__916348ea454c916064808301926000929190829003018186803b158015610be757600080fd5b505af4158015610bfb573d6000803e3d6000fd5b50505050505050565b600080610c0f616175565b610c17616193565b610c1f6161b1565b603380546040805160e081019091526001600160a01b0362010000830416815260ff80831698506101009092049091169550906020820190610c60906152ac565b6001600160a01b03168152602001610c7860336152da565b6001600160a01b03908116825260365481166020808401919091526037548216604080850191909152603b54909216606084015281517fe1858ce900000000000000000000000000000000000000000000000000000000815260336004820152915160809093019273__$c7a04b010d7229ccbe3c515e91d1303780$__9263e1858ce9926024808301939192829003018186803b158015610d1857600080fd5b505af4158015610d2c573d6000803e3d6000fd5b505050506040513d6020811015610d4257600080fd5b50516001600160a01b03169052604080517fb1a4182a00000000000000000000000000000000000000000000000000000000815260336004820152905191945073__$c7a04b010d7229ccbe3c515e91d1303780$__9163b1a4182a91602480820192602092909190829003018186803b158015610dbe57600080fd5b505af4158015610dd2573d6000803e3d6000fd5b505050506040513d6020811015610de857600080fd5b50518252603c54602080840191909152604454604080850191909152604554606080860191909152604654608080870191909152603a54855260425485850152603d5485840152603f54918501919091526048549084015280517f374331ff00000000000000000000000000000000000000000000000000000000815260336004820152905173__$c7a04b010d7229ccbe3c515e91d1303780$__9263374331ff9260248082019391829003018186803b158015610ea557600080fd5b505af4158015610eb9573d6000803e3d6000fd5b505050506040513d6020811015610ecf57600080fd5b505160a0820152939492939192909190565b6000816033600f01548110610f33576040805162461bcd60e51b81526020600482015260136024820152721c195c9c195d1d585b081b9bdd08195e1a5cdd606a1b604482015290519081900360640190fd5b6000838152604360205260409020610f4d90603001615300565b9392505050565b60026074541415610fac576040805162461bcd60e51b815260206004820152601f60248201527f5265656e7472616e637947756172643a207265656e7472616e742063616c6c00604482015290519081900360640190fd5b600260745560335460ff16610fd35760405162461bcd60e51b81526004016102e590616d51565b73__$c7a04b010d7229ccbe3c515e91d1303780$__6383a1eaa86033610ff76152d6565b846040518463ffffffff1660e01b815260040161101693929190616f77565b60006040518083038186803b15801561102e57600080fd5b505af4158015611042573d6000803e3d6000fd5b50506001607455505050565b6060836033600f015481106110a0576040805162461bcd60e51b81526020600482015260136024820152721c195c9c195d1d585b081b9bdd08195e1a5cdd606a1b604482015290519081900360640190fd5b60008581526043602052604090206110bc60308201868661530b565b9695505050505050565b603354600090819060ff16611122576040805162461bcd60e51b815260206004820152601360248201527f706f6f6c206973206e6f742072756e6e696e6700000000000000000000000000604482015290519081900360640190fd5b60006111a9603360040160009054906101000a90046001600160a01b03166001600160a01b03166318160ddd6040518163ffffffff1660e01b815260040160206040518083038186803b15801561117857600080fd5b505afa15801561118c573d6000803e3d6000fd5b505050506040513d60208110156111a257600080fd5b5051615429565b90506000851380156111b9575083155b1561126957604080517ff72ee9c8000000000000000000000000000000000000000000000000000000008152603360048201526024810183905260448101879052815173__$9dbf359c583e30ecde0fd5d5870700bb49$__9263f72ee9c89260648082019391829003018186803b15801561123357600080fd5b505af4158015611247573d6000803e3d6000fd5b505050506040513d604081101561125d57600080fd5b50518593509150611378565b841580156112775750600084135b1561132b57604080517f89127d52000000000000000000000000000000000000000000000000000000008152603360048201526024810183905260448101869052905173__$9dbf359c583e30ecde0fd5d5870700bb49$__916389127d52916064808301926020929190829003018186803b1580156112f557600080fd5b505af4158015611309573d6000803e3d6000fd5b505050506040513d602081101561131f57600080fd5b50519250839150611378565b6040805162461bcd60e51b815260206004820152601160248201527f696e76616c696420706172616d65746572000000000000000000000000000000604482015290519081900360640190fd5b509250929050565b6036546001600160a01b03166113946152d6565b6001600160a01b0316146113ef576040805162461bcd60e51b815260206004820152601860248201527f6f6e6c7920676f7665726e6f7220697320616c6c6f7765640000000000000000604482015290519081900360640190fd5b604080517f38dbaf7100000000000000000000000000000000000000000000000000000000815260336004820152602481018490526001600160a01b0383166044820152905173__$c7a04b010d7229ccbe3c515e91d1303780$__916338dbaf71916064808301926000929190829003018186803b15801561147057600080fd5b505af4158015611484573d6000803e3d6000fd5b505050505050565b61149660336152ac565b6001600160a01b03166114a76152d6565b6001600160a01b031614611502576040805162461bcd60e51b815260206004820152601860248201527f6f6e6c79206f70657261746f7220697320616c6c6f7765640000000000000000604482015290519081900360640190fd5b604080517f5980576b00000000000000000000000000000000000000000000000000000000815260336004820152905173__$c7a04b010d7229ccbe3c515e91d1303780$__91635980576b916024808301926000929190829003018186803b15801561156d57600080fd5b505af4158015611581573d6000803e3d6000fd5b50505050565b6060836033600f015481106115d9576040805162461bcd60e51b81526020600482015260136024820152721c195c9c195d1d585b081b9bdd08195e1a5cdd606a1b604482015290519081900360640190fd5b60008581526043602052604090206115f590603901858561530b565b95945050505050565b600061160a60336152ac565b90506001600160a01b0381161561167757806001600160a01b031661162d6152d6565b6001600160a01b0316146116725760405162461bcd60e51b81526004018080602001828103825260218152602001806171b06021913960400191505060405180910390fd5b6116d0565b6036546001600160a01b031661168b6152d6565b6001600160a01b0316146116d05760405162461bcd60e51b81526004018080602001828103825260218152602001806172376021913960400191505060405180910390fd5b6001600160a01b03821661172b576040805162461bcd60e51b815260206004820152601c60248201527f6e6577206f70657261746f72206973207a65726f206164647265737300000000604482015290519081900360640190fd5b604080517f4f28feeb000000000000000000000000000000000000000000000000000000008152603360048201526001600160a01b0384166024820152905173__$c7a04b010d7229ccbe3c515e91d1303780$__91634f28feeb916044808301926000929190829003018186803b15801561147057600080fd5b81600773__$c7a04b010d7229ccbe3c515e91d1303780$__63e57d06a86033846117cd6152d6565b856040518563ffffffff1660e01b815260040180858152602001846001600160a01b03168152602001836001600160a01b0316815260200182815260200194505050505060206040518083038186803b15801561182957600080fd5b505af415801561183d573d6000803e3d6000fd5b505050506040513d602081101561185357600080fd5b505161189c576040805162461bcd60e51b81526020600482015260136024820152723ab730baba3437b934bd32b21031b0b63632b960691b604482015290519081900360640190fd5b6001600160a01b0384166118c25760405162461bcd60e51b81526004016102e590616e7a565b670de0b6b3a76400008307156118ea5760405162461bcd60e51b81526004016102e590616b16565b6000831361190a5760405162461bcd60e51b81526004016102e590616c4f565b6040517fdaad7f6900000000000000000000000000000000000000000000000000000000815273__$c7a04b010d7229ccbe3c515e91d1303780$__9063daad7f69906119619060339089908990899060040161714c565b60006040518083038186803b15801561197957600080fd5b505af415801561198d573d6000803e3d6000fd5b505050505050505050565b60408051634b071c5760e11b815260336004820152426024820181905291516001929173__$c7a04b010d7229ccbe3c515e91d1303780$__9163960e38ae91604480820192600092909190829003018186803b1580156119f757600080fd5b505af4158015611a0b573d6000803e3d6000fd5b5050604080516304c43a9960e31b8152603360048201528515156024820152905173__$c7a04b010d7229ccbe3c515e91d1303780$__9350632621d4c892506044808301926000929190829003018186803b158015611a6957600080fd5b505af4158015611a7d573d6000803e3d6000fd5b50505050600019831415611b1357604080517fa99d455a00000000000000000000000000000000000000000000000000000000815260336004820152905173__$c7a04b010d7229ccbe3c515e91d1303780$__9163a99d455a916024808301926000929190829003018186803b158015611af657600080fd5b505af4158015611b0a573d6000803e3d6000fd5b50505050611c77565b6000838152604360209081526040808320600181015482517fd1cc9976000000000000000000000000000000000000000000000000000000008152925191946101009091046001600160a01b03169363d1cc9976936004808201949293918390030190829087803b158015611b8757600080fd5b505af1158015611b9b573d6000803e3d6000fd5b505050506040513d6020811015611bb157600080fd5b5051611c04576040805162461bcd60e51b815260206004820152601460248201527f707265726571756973697465206e6f74206d6574000000000000000000000000604482015290519081900360640190fd5b604080516301ec95cd60e51b81526033600482015260248101869052905173__$c7a04b010d7229ccbe3c515e91d1303780$__91633d92b9a0916044808301926000929190829003018186803b158015611c5d57600080fd5b505af4158015611c71573d6000803e3d6000fd5b50505050505b60408051634c86902960e11b815260336004820152905173__$c7a04b010d7229ccbe3c515e91d1303780$__9163990d2052916024808301926000929190829003018186803b158015610be757600080fd5b600060026074541415611d23576040805162461bcd60e51b815260206004820152601f60248201527f5265656e7472616e637947756172643a207265656e7472616e742063616c6c00604482015290519081900360640190fd5b6002607481905550603360000160029054906101000a90046001600160a01b03166001600160a01b0316634831d32f6040518163ffffffff1660e01b815260040160206040518083038186803b158015611d7c57600080fd5b505afa158015611d90573d6000803e3d6000fd5b505050506040513d6020811015611da657600080fd5b505115611ded576040805162461bcd60e51b815260206004820152601060248201526f1d5b9a5d995c9cd9481cd95d1d1b195960821b604482015290519081900360640190fd5b85600873__$c7a04b010d7229ccbe3c515e91d1303780$__63e57d06a8603384611e156152d6565b856040518563ffffffff1660e01b815260040180858152602001846001600160a01b03168152602001836001600160a01b0316815260200182815260200194505050505060206040518083038186803b158015611e7157600080fd5b505af4158015611e85573d6000803e3d6000fd5b505050506040513d6020811015611e9b57600080fd5b5051611ee4576040805162461bcd60e51b81526020600482015260136024820152723ab730baba3437b934bd32b21031b0b63632b960691b604482015290519081900360640190fd5b60408051634b071c5760e11b815260336004820152426024820181905291516000929173__$c7a04b010d7229ccbe3c515e91d1303780$__9163960e38ae916044808201928792909190829003018186803b158015611f4257600080fd5b505af4158015611f56573d6000803e3d6000fd5b5050604080516304c43a9960e31b8152603360048201528515156024820152905173__$c7a04b010d7229ccbe3c515e91d1303780$__9350632621d4c892506044808301926000929190829003018186803b158015611fb457600080fd5b505af4158015611fc8573d6000803e3d6000fd5b5060029250611fd5915050565b60008c81526043602052604090206001015460ff166004811115611ff557fe5b146120125760405162461bcd60e51b81526004016102e590616bbb565b6001600160a01b0389166120385760405162461bcd60e51b81526004016102e590616e7a565b6001600160a01b0389163014156120615760405162461bcd60e51b81526004016102e590616adf565b8761207e5760405162461bcd60e51b81526004016102e590616b84565b600087121561209f5760405162461bcd60e51b81526004016102e590616aa8565b428610156120bf5760405162461bcd60e51b81526004016102e590616ce3565b6040517f15e4782700000000000000000000000000000000000000000000000000000000815273__$85738a9b50fe147d23ce9080d17e448cc6$__906315e478279061211a906033908f908f908f908f908f9060040161711a565b60206040518083038186803b15801561213257600080fd5b505af4158015612146573d6000803e3d6000fd5b505050506040513d601f19601f8201168201806040525081019061216a91906164dc565b9450603373__$c7a04b010d7229ccbe3c515e91d1303780$__63990d205290916040518263ffffffff1660e01b81526004018082815260200191505060006040518083038186803b1580156121be57600080fd5b505af41580156121d2573d6000803e3d6000fd5b5050600160745550949b9a5050505050505050505050565b60408051634b071c5760e11b815260336004820152426024820181905291516000928392909173__$c7a04b010d7229ccbe3c515e91d1303780$__9163960e38ae9160448083019287929190829003018186803b15801561224a57600080fd5b505af415801561225e573d6000803e3d6000fd5b5050604080516304c43a9960e31b8152603360048201528515156024820152905173__$c7a04b010d7229ccbe3c515e91d1303780$__9350632621d4c892506044808301926000929190829003018186803b1580156122bc57600080fd5b505af41580156122d0573d6000803e3d6000fd5b505050506122dc6161cf565b6122e586615471565b905060606122f28761555d565b6040517f8120e3d100000000000000000000000000000000000000000000000000000000815290915073__$b6905e4a302a713a1eaca5d53b662e815c$__90638120e3d19061234a906033908690869060040161703e565b60006040518083038186803b15801561236257600080fd5b505af4158015612376573d6000803e3d6000fd5b50506040517ff2ab44c200000000000000000000000000000000000000000000000000000000815273__$b6905e4a302a713a1eaca5d53b662e815c$__925063f2ab44c291506123cf9060339086908b906004016170b0565b60006040518083038186803b1580156123e757600080fd5b505af41580156123fb573d6000803e3d6000fd5b50506040517f4af2e32700000000000000000000000000000000000000000000000000000000815273__$b6905e4a302a713a1eaca5d53b662e815c$__9250634af2e3279150612452906033908690600401617029565b60006040518083038186803b15801561246a57600080fd5b505af415801561247e573d6000803e3d6000fd5b505050506124ac82610160015163ffffffff168360000151888560e001518660600151876101a001516155cf565b94505050603373__$c7a04b010d7229ccbe3c515e91d1303780$__63990d205290916040518263ffffffff1660e01b81526004018082815260200191505060006040518083038186803b15801561250257600080fd5b505af4158015612516573d6000803e3d6000fd5b50505050505092915050565b600061252e60336152ac565b90506001600160a01b0381161561259b57806001600160a01b03166125516152d6565b6001600160a01b0316146125965760405162461bcd60e51b81526004018080602001828103825260218152602001806171b06021913960400191505060405180910390fd5b6125f4565b6036546001600160a01b03166125af6152d6565b6001600160a01b0316146125f45760405162461bcd60e51b81526004018080602001828103825260218152602001806172376021913960400191505060405180910390fd5b604080517fc01fa80800000000000000000000000000000000000000000000000000000000815260336004820152602481018590526001600160a01b0384166044820152905173__$c7a04b010d7229ccbe3c515e91d1303780$__9163c01fa808916064808301926000929190829003018186803b158015610be757600080fd5b603360000160029054906101000a90046001600160a01b03166001600160a01b0316634831d32f6040518163ffffffff1660e01b815260040160206040518083038186803b1580156126c657600080fd5b505afa1580156126da573d6000803e3d6000fd5b505050506040513d60208110156126f057600080fd5b505115612737576040805162461bcd60e51b815260206004820152601060248201526f1d5b9a5d995c9cd9481cd95d1d1b195960821b604482015290519081900360640190fd5b60335460ff1615806127505750603354610100900460ff165b1561279b5761275f60336152ac565b6001600160a01b03166127706152d6565b6001600160a01b0316146127965760405162461bcd60e51b81526004016102e590616e01565b6127d5565b6036546001600160a01b03166127af6152d6565b6001600160a01b0316146127d55760405162461bcd60e51b81526004016102e590616dbf565b6040517f01ec9bde00000000000000000000000000000000000000000000000000000000815273__$c7a04b010d7229ccbe3c515e91d1303780$__906301ec9bde906119619060339089908990899089908990600401616fba565b603360000160029054906101000a90046001600160a01b03166001600160a01b0316634831d32f6040518163ffffffff1660e01b815260040160206040518083038186803b15801561288157600080fd5b505afa158015612895573d6000803e3d6000fd5b505050506040513d60208110156128ab57600080fd5b5051156128f2576040805162461bcd60e51b815260206004820152601060248201526f1d5b9a5d995c9cd9481cd95d1d1b195960821b604482015290519081900360640190fd5b60408051634b071c5760e11b815260336004820152426024820181905291516000929173__$c7a04b010d7229ccbe3c515e91d1303780$__9163960e38ae916044808201928792909190829003018186803b15801561295057600080fd5b505af4158015612964573d6000803e3d6000fd5b5050604080516304c43a9960e31b8152603360048201528515156024820152905173__$c7a04b010d7229ccbe3c515e91d1303780$__9350632621d4c892506044808301926000929190829003018186803b1580156129c257600080fd5b505af41580156129d6573d6000803e3d6000fd5b5050505060026074541415612a32576040805162461bcd60e51b815260206004820152601f60248201527f5265656e7472616e637947756172643a207265656e7472616e742063616c6c00604482015290519081900360640190fd5b600260745560335460ff16612a595760405162461bcd60e51b81526004016102e590616d51565b73__$c7a04b010d7229ccbe3c515e91d1303780$__63dcaf67496033612a7d6152d6565b866040518463ffffffff1660e01b8152600401612a9c93929190616f77565b60006040518083038186803b158015612ab457600080fd5b505af4158015612ac8573d6000803e3d6000fd5b50506001607455505060408051634c86902960e11b815260336004820152905173__$c7a04b010d7229ccbe3c515e91d1303780$__9163990d2052916024808301926000929190829003018186803b158015610be757600080fd5b6036546001600160a01b0316612b376152d6565b6001600160a01b031614612b92576040805162461bcd60e51b815260206004820152601860248201527f6f6e6c7920676f7665726e6f7220697320616c6c6f7765640000000000000000604482015290519081900360640190fd5b6040517ff20d68960000000000000000000000000000000000000000000000000000000081526033600482018181526024830185905273__$c7a04b010d7229ccbe3c515e91d1303780$__9263f20d6896929186918691906044018261012080828437600081840152601f19601f820116905080830192505050935050505060006040518083038186803b15801561147057600080fd5b60026074541415612c81576040805162461bcd60e51b815260206004820152601f60248201527f5265656e7472616e637947756172643a207265656e7472616e742063616c6c00604482015290519081900360640190fd5b6002607481905550603360000160029054906101000a90046001600160a01b03166001600160a01b0316634831d32f6040518163ffffffff1660e01b815260040160206040518083038186803b158015612cda57600080fd5b505afa158015612cee573d6000803e3d6000fd5b505050506040513d6020811015612d0457600080fd5b505115612d4b576040805162461bcd60e51b815260206004820152601060248201526f1d5b9a5d995c9cd9481cd95d1d1b195960821b604482015290519081900360640190fd5b60408051634b071c5760e11b815260336004820152426024820181905291516000929173__$c7a04b010d7229ccbe3c515e91d1303780$__9163960e38ae916044808201928792909190829003018186803b158015612da957600080fd5b505af4158015612dbd573d6000803e3d6000fd5b5050604080516304c43a9960e31b8152603360048201528515156024820152905173__$c7a04b010d7229ccbe3c515e91d1303780$__9350632621d4c892506044808301926000929190829003018186803b158015612e1b57600080fd5b505af4158015612e2f573d6000803e3d6000fd5b50505050836002603373__$c7a04b010d7229ccbe3c515e91d1303780$__63e57d06a8909184612e5d6152d6565b856040518563ffffffff1660e01b815260040180858152602001846001600160a01b03168152602001836001600160a01b0316815260200182815260200194505050505060206040518083038186803b158015612eb957600080fd5b505af4158015612ecd573d6000803e3d6000fd5b505050506040513d6020811015612ee357600080fd5b5051612f2c576040805162461bcd60e51b81526020600482015260136024820152723ab730baba3437b934bd32b21031b0b63632b960691b604482015290519081900360640190fd5b600260008881526043602052604090206001015460ff166004811115612f4e57fe5b14612f6b5760405162461bcd60e51b81526004016102e590616bbb565b6001600160a01b038616612f915760405162461bcd60e51b81526004016102e590616e7a565b60008513612fb15760405162461bcd60e51b81526004016102e590616b84565b6040517fa54b4d7800000000000000000000000000000000000000000000000000000000815273__$c7a04b010d7229ccbe3c515e91d1303780$__9063a54b4d7890613008906033908b908b908b9060040161714c565b60006040518083038186803b15801561302057600080fd5b505af4158015613034573d6000803e3d6000fd5b505060408051634c86902960e11b815260336004820152905173__$c7a04b010d7229ccbe3c515e91d1303780$__955063990d2052945060248083019450600093509091829003018186803b15801561308c57600080fd5b505af41580156130a0573d6000803e3d6000fd5b5050600160745550505050505050565b60026074541415613108576040805162461bcd60e51b815260206004820152601f60248201527f5265656e7472616e637947756172643a207265656e7472616e742063616c6c00604482015290519081900360640190fd5b600260745560335460ff1661312f5760405162461bcd60e51b81526004016102e590616d51565b73__$c7a04b010d7229ccbe3c515e91d1303780$__63d767897e6033610ff76152d6565b600054610100900460ff168061316c575061316c61578a565b8061317a575060005460ff16155b6131b55760405162461bcd60e51b815260040180806020018281038252602e815260200180617258602e913960400191505060405180910390fd5b600054610100900460ff161580156131e0576000805460ff1961ff0019909116610100171660011790555b73__$c7a04b010d7229ccbe3c515e91d1303780$__63c9ab757160336132046152d6565b89898c8a8a8a6040518963ffffffff1660e01b815260040161322d989796959493929190616f0e565b60006040518083038186803b15801561324557600080fd5b505af4158015613259573d6000803e3d6000fd5b505050508015610bfb576000805461ff001916905550505050505050565b60408051634b071c5760e11b815260336004820152426024820181905291516000929173__$c7a04b010d7229ccbe3c515e91d1303780$__9163960e38ae916044808201928792909190829003018186803b1580156132d557600080fd5b505af41580156132e9573d6000803e3d6000fd5b5050604080516304c43a9960e31b8152603360048201528515156024820152905173__$c7a04b010d7229ccbe3c515e91d1303780$__9350632621d4c892506044808301926000929190829003018186803b15801561334757600080fd5b505af415801561335b573d6000803e3d6000fd5b505060408051634c86902960e11b815260336004820152905173__$c7a04b010d7229ccbe3c515e91d1303780$__935063990d205292506024808301926000929190829003018186803b15801561147057600080fd5b6000866133c38363ffffffff1661579b565b6133ce5760046133d1565b60075b73__$c7a04b010d7229ccbe3c515e91d1303780$__63e57d06a86033846133f66152d6565b856040518563ffffffff1660e01b815260040180858152602001846001600160a01b03168152602001836001600160a01b0316815260200182815260200194505050505060206040518083038186803b15801561345257600080fd5b505af4158015613466573d6000803e3d6000fd5b505050506040513d602081101561347c57600080fd5b50516134c5576040805162461bcd60e51b81526020600482015260136024820152723ab730baba3437b934bd32b21031b0b63632b960691b604482015290519081900360640190fd5b60408051634b071c5760e11b815260336004820152426024820181905291516000929173__$c7a04b010d7229ccbe3c515e91d1303780$__9163960e38ae916044808201928792909190829003018186803b15801561352357600080fd5b505af4158015613537573d6000803e3d6000fd5b5050604080516304c43a9960e31b8152603360048201528515156024820152905173__$c7a04b010d7229ccbe3c515e91d1303780$__9350632621d4c892506044808301926000929190829003018186803b15801561359557600080fd5b505af41580156135a9573d6000803e3d6000fd5b505050506001600160a01b038b166135d35760405162461bcd60e51b81526004016102e590616e7a565b896135f05760405162461bcd60e51b81526004016102e590616b84565b428810156136105760405162461bcd60e51b81526004016102e590616ce3565b61361e8c8c8c8c8b8b6155cf565b9450603373__$c7a04b010d7229ccbe3c515e91d1303780$__63990d205290916040518263ffffffff1660e01b81526004018082815260200191505060006040518083038186803b15801561367257600080fd5b505af4158015613686573d6000803e3d6000fd5b5050505050505050979650505050505050565b600260745414156136f1576040805162461bcd60e51b815260206004820152601f60248201527f5265656e7472616e637947756172643a207265656e7472616e742063616c6c00604482015290519081900360640190fd5b6002607481905550603360000160029054906101000a90046001600160a01b03166001600160a01b0316634831d32f6040518163ffffffff1660e01b815260040160206040518083038186803b15801561374a57600080fd5b505afa15801561375e573d6000803e3d6000fd5b505050506040513d602081101561377457600080fd5b5051156137bb576040805162461bcd60e51b815260206004820152601060248201526f1d5b9a5d995c9cd9481cd95d1d1b195960821b604482015290519081900360640190fd5b81600173__$c7a04b010d7229ccbe3c515e91d1303780$__63e57d06a86033846137e36152d6565b856040518563ffffffff1660e01b815260040180858152602001846001600160a01b03168152602001836001600160a01b0316815260200182815260200194505050505060206040518083038186803b15801561383f57600080fd5b505af4158015613853573d6000803e3d6000fd5b505050506040513d602081101561386957600080fd5b50516138b2576040805162461bcd60e51b81526020600482015260136024820152723ab730baba3437b934bd32b21031b0b63632b960691b604482015290519081900360640190fd5b600260008681526043602052604090206001015460ff1660048111156138d457fe5b146138f15760405162461bcd60e51b81526004016102e590616bbb565b6001600160a01b0384166139175760405162461bcd60e51b81526004016102e590616e7a565b600083136139375760405162461bcd60e51b81526004016102e590616b84565b6040517f028c4ff600000000000000000000000000000000000000000000000000000000815273__$c7a04b010d7229ccbe3c515e91d1303780$__9063028c4ff69061398e9060339089908990899060040161714c565b60006040518083038186803b15801561308c57600080fd5b60008060008060008060008060008a6033600f01548110613a04576040805162461bcd60e51b81526020600482015260136024820152721c195c9c195d1d585b081b9bdd08195e1a5cdd606a1b604482015290519081900360640190fd5b60008c81526043602090815260408083206001600160a01b038f1684526034810190925282209091613a358361524c565b82546001840154909e509c509050613a4e838f836157a6565b9a50613a5b838f836157f0565b9950613a68838f8361582f565b9850613a75838f83615888565b9750613a82838f836158a0565b9650613a8f838f836158e6565b9550613a9b838f615902565b9450505050509295985092959850929598565b600080806001600160a01b038716613b0d576040805162461bcd60e51b815260206004820152600e60248201527f696e76616c696420747261646572000000000000000000000000000000000000604482015290519081900360640190fd5b85613b5f576040805162461bcd60e51b815260206004820152600e60248201527f696e76616c696420616d6f756e74000000000000000000000000000000000000604482015290519081900360640190fd5b600260008981526043602052604090206001015460ff166004811115613b8157fe5b14613bbd5760405162461bcd60e51b81526004018080602001828103825260238152602001806172146023913960400191505060405180910390fd5b604080517f1c137ad100000000000000000000000000000000000000000000000000000000815260336004820152602481018a90526001600160a01b03808a166044830152606482018990528716608482015263ffffffff861660a4820152905173__$85738a9b50fe147d23ce9080d17e448cc6$__91631c137ad19160c4808301926060929190829003018186803b158015613c5957600080fd5b505af4158015613c6d573d6000803e3d6000fd5b505050506040513d6060811015613c8357600080fd5b5080516020820151604090920151909a919950975095505050505050565b60026074541415613cf9576040805162461bcd60e51b815260206004820152601f60248201527f5265656e7472616e637947756172643a207265656e7472616e742063616c6c00604482015290519081900360640190fd5b600260745560408051634b071c5760e11b815260336004820152426024820181905291516000929173__$c7a04b010d7229ccbe3c515e91d1303780$__9163960e38ae916044808201928792909190829003018186803b158015613d5c57600080fd5b505af4158015613d70573d6000803e3d6000fd5b5050604080516304c43a9960e31b8152603360048201528515156024820152905173__$c7a04b010d7229ccbe3c515e91d1303780$__9350632621d4c892506044808301926000929190829003018186803b158015613dce57600080fd5b505af4158015613de2573d6000803e3d6000fd5b505060335460ff169150613e0a90505760405162461bcd60e51b81526004016102e590616d51565b603360000160029054906101000a90046001600160a01b03166001600160a01b0316634831d32f6040518163ffffffff1660e01b815260040160206040518083038186803b158015613e5b57600080fd5b505afa158015613e6f573d6000803e3d6000fd5b505050506040513d601f19601f82011682018060405250810190613e939190616408565b15613ec057613ea4603360046159be565b613ec05760405162461bcd60e51b81526004016102e590616d88565b73__$c7a04b010d7229ccbe3c515e91d1303780$__632d7966d86033613ee46152d6565b87876040518563ffffffff1660e01b8152600401613f059493929190616f96565b60006040518083038186803b158015613f1d57600080fd5b505af4158015613f31573d6000803e3d6000fd5b505060408051634c86902960e11b815260336004820152905173__$c7a04b010d7229ccbe3c515e91d1303780$__935063990d205292506024808301926000929190829003018186803b158015613f8757600080fd5b505af4158015613f9b573d6000803e3d6000fd5b50506001607455505050505050565b603354600090819060ff16614006576040805162461bcd60e51b815260206004820152601360248201527f706f6f6c206973206e6f742072756e6e696e6700000000000000000000000000604482015290519081900360640190fd5b600061405c603360040160009054906101000a90046001600160a01b03166001600160a01b03166318160ddd6040518163ffffffff1660e01b815260040160206040518083038186803b15801561117857600080fd5b905060008513801561406c575083155b1561411457604080517feeffc15d000000000000000000000000000000000000000000000000000000008152603360048201526024810183905260448101879052905173__$9dbf359c583e30ecde0fd5d5870700bb49$__9163eeffc15d916064808301926080929190829003018186803b1580156140ea57600080fd5b505af41580156140fe573d6000803e3d6000fd5b505050506040513d608081101561125d57600080fd5b841580156141225750600084135b1561132b57604080517f68dddaa6000000000000000000000000000000000000000000000000000000008152603360048201526024810183905260448101869052905173__$9dbf359c583e30ecde0fd5d5870700bb49$__916368dddaa6916064808301926080929190829003018186803b1580156141a057600080fd5b505af41580156141b4573d6000803e3d6000fd5b505050506040513d608081101561131f57600080fd5b600080826033600f0154811061421d576040805162461bcd60e51b81526020600482015260136024820152721c195c9c195d1d585b081b9bdd08195e1a5cdd606a1b604482015290519081900360640190fd5b600084815260436020526040902061423760308201615300565b93506002600182015460ff16600481111561424e57fe5b1461425d5780602b0154614269565b61426981603001615300565b92505050915091565b80600273__$c7a04b010d7229ccbe3c515e91d1303780$__63e57d06a860338461429a6152d6565b856040518563ffffffff1660e01b815260040180858152602001846001600160a01b03168152602001836001600160a01b0316815260200182815260200194505050505060206040518083038186803b1580156142f657600080fd5b505af415801561430a573d6000803e3d6000fd5b505050506040513d602081101561432057600080fd5b5051614369576040805162461bcd60e51b81526020600482015260136024820152723ab730baba3437b934bd32b21031b0b63632b960691b604482015290519081900360640190fd5b600260745414156143c1576040805162461bcd60e51b815260206004820152601f60248201527f5265656e7472616e637947756172643a207265656e7472616e742063616c6c00604482015290519081900360640190fd5b60026074556001600160a01b0383166143ec5760405162461bcd60e51b81526004016102e590616e7a565b600460008581526043602052604090206001015460ff16600481111561440e57fe5b1461442b5760405162461bcd60e51b81526004016102e590616eb1565b6040517fb2f6decc00000000000000000000000000000000000000000000000000000000815273__$c7a04b010d7229ccbe3c515e91d1303780$__9063b2f6decc9061448090603390889088906004016170d4565b60006040518083038186803b158015613f8757600080fd5b6036546001600160a01b03166144ac6152d6565b6001600160a01b031614614507576040805162461bcd60e51b815260206004820152601860248201527f6f6e6c7920676f7665726e6f7220697320616c6c6f7765640000000000000000604482015290519081900360640190fd5b6040517fe3e2898600000000000000000000000000000000000000000000000000000000815260336004820181815273__$c7a04b010d7229ccbe3c515e91d1303780$__9263e3e289869291859160240182608080828437600081840152601f19601f8201169050808301925050509250505060006040518083038186803b15801561459257600080fd5b505af41580156145a6573d6000803e3d6000fd5b5050505050565b6145b760336152ac565b6001600160a01b03166145c86152d6565b6001600160a01b031614614623576040805162461bcd60e51b815260206004820152601860248201527f6f6e6c79206f70657261746f7220697320616c6c6f7765640000000000000000604482015290519081900360640190fd5b60335460ff16156146465760405162461bcd60e51b81526004016102e590616c18565b6040517f4e74d93000000000000000000000000000000000000000000000000000000000815273__$c7a04b010d7229ccbe3c515e91d1303780$__90634e74d9309061469790603390600401616a26565b60006040518083038186803b15801561156d57600080fd5b6146b960336152ac565b6001600160a01b03166146ca6152d6565b6001600160a01b031614614725576040805162461bcd60e51b815260206004820152601860248201527f6f6e6c79206f70657261746f7220697320616c6c6f7765640000000000000000604482015290519081900360640190fd5b604080517fbdc5e84900000000000000000000000000000000000000000000000000000000815260336004820152905173__$c7a04b010d7229ccbe3c515e91d1303780$__9163bdc5e849916024808301926000929190829003018186803b15801561156d57600080fd5b6000600260745414156147ea576040805162461bcd60e51b815260206004820152601f60248201527f5265656e7472616e637947756172643a207265656e7472616e742063616c6c00604482015290519081900360640190fd5b6002607481905550603360000160029054906101000a90046001600160a01b03166001600160a01b0316634831d32f6040518163ffffffff1660e01b815260040160206040518083038186803b15801561484357600080fd5b505afa158015614857573d6000803e3d6000fd5b505050506040513d602081101561486d57600080fd5b5051156148b4576040805162461bcd60e51b815260206004820152601060248201526f1d5b9a5d995c9cd9481cd95d1d1b195960821b604482015290519081900360640190fd5b60408051634b071c5760e11b815260336004820152426024820181905291516000929173__$c7a04b010d7229ccbe3c515e91d1303780$__9163960e38ae916044808201928792909190829003018186803b15801561491257600080fd5b505af4158015614926573d6000803e3d6000fd5b5050604080516304c43a9960e31b8152603360048201528515156024820152905173__$c7a04b010d7229ccbe3c515e91d1303780$__9350632621d4c892506044808301926000929190829003018186803b15801561498457600080fd5b505af4158015614998573d6000803e3d6000fd5b505050506149ad856149a86152d6565b615a21565b6149c95760405162461bcd60e51b81526004016102e590616e43565b600260008681526043602052604090206001015460ff1660048111156149eb57fe5b14614a085760405162461bcd60e51b81526004016102e590616bbb565b6001600160a01b038416614a2e5760405162461bcd60e51b81526004016102e590616e7a565b6001600160a01b038416301415614a575760405162461bcd60e51b81526004016102e590616adf565b73__$85738a9b50fe147d23ce9080d17e448cc6$__63e810d619603387614a7c6152d6565b886040518563ffffffff1660e01b8152600401614a9c94939291906170f3565b60206040518083038186803b158015614ab457600080fd5b505af4158015614ac8573d6000803e3d6000fd5b505050506040513d601f19601f82011682018060405250810190614aec91906164dc565b9250603373__$c7a04b010d7229ccbe3c515e91d1303780$__63990d205290916040518263ffffffff1660e01b81526004018082815260200191505060006040518083038186803b158015614b4057600080fd5b505af4158015614b54573d6000803e3d6000fd5b50506001607455509295945050505050565b60026074541415614bbe576040805162461bcd60e51b815260206004820152601f60248201527f5265656e7472616e637947756172643a207265656e7472616e742063616c6c00604482015290519081900360640190fd5b6002607455600360008281526043602052604090206001015460ff166004811115614be557fe5b14614c025760405162461bcd60e51b81526004016102e590616c86565b73__$c7a04b010d7229ccbe3c515e91d1303780$__632ef9dab9603383614c276152d6565b6040518463ffffffff1660e01b8152600401611016939291906170d4565b614c4f60336152ac565b6001600160a01b0316614c606152d6565b6001600160a01b031614614cbb576040805162461bcd60e51b815260206004820152601860248201527f6f6e6c79206f70657261746f7220697320616c6c6f7765640000000000000000604482015290519081900360640190fd5b6040517f697c66880000000000000000000000000000000000000000000000000000000081526033600482018181526024830185905273__$c7a04b010d7229ccbe3c515e91d1303780$__9263697c6688929186918691906044018261010080828437600081840152601f19601f820116905080830192505050935050505060006040518083038186803b15801561147057600080fd5b73__$c7a04b010d7229ccbe3c515e91d1303780$__63299cbfda6033614d766152d6565b6040518363ffffffff1660e01b815260040180838152602001826001600160a01b031681526020019250505060006040518083038186803b15801561156d57600080fd5b60408051634b071c5760e11b815260336004820152426024820181905291516001929173__$c7a04b010d7229ccbe3c515e91d1303780$__9163960e38ae91604480820192600092909190829003018186803b158015614e1957600080fd5b505af4158015614e2d573d6000803e3d6000fd5b5050604080516304c43a9960e31b8152603360048201528515156024820152905173__$c7a04b010d7229ccbe3c515e91d1303780$__9350632621d4c892506044808301926000929190829003018186803b158015614e8b57600080fd5b505af4158015614e9f573d6000803e3d6000fd5b50506036546001600160a01b03169150614eb990506152d6565b6001600160a01b031614614f14576040805162461bcd60e51b815260206004820152601860248201527f6f6e6c7920676f7665726e6f7220697320616c6c6f7765640000000000000000604482015290519081900360640190fd5b6000831215614f6a576040805162461bcd60e51b815260206004820152601960248201527f6e6567617469766520736574746c656d656e7420707269636500000000000000604482015290519081900360640190fd5b614f7261624b565b5060408051808201825284815242602080830191825260008881526043909152838120835160068201819055925160078201819055600480830194909455600582015584516301ec95cd60e51b815260339381019390935260248301899052935192939273__$c7a04b010d7229ccbe3c515e91d1303780$__92633d92b9a0926044808301939192829003018186803b15801561500e57600080fd5b505af4158015615022573d6000803e3d6000fd5b505060408051634c86902960e11b815260336004820152905173__$c7a04b010d7229ccbe3c515e91d1303780$__955063990d2052945060248083019450600093509091829003018186803b15801561507a57600080fd5b505af415801561508e573d6000803e3d6000fd5b5050505050505050565b600080603373__$9dbf359c583e30ecde0fd5d5870700bb49$__63c12b64d590916040518263ffffffff1660e01b815260040180828152602001915050604080518083038186803b1580156150ec57600080fd5b505af4158015615100573d6000803e3d6000fd5b505050506040513d604081101561511657600080fd5b50805160209091015190939092509050565b6036546001600160a01b031661513c6152d6565b6001600160a01b031614615197576040805162461bcd60e51b815260206004820152601860248201527f6f6e6c7920676f7665726e6f7220697320616c6c6f7765640000000000000000604482015290519081900360640190fd5b603373__$c7a04b010d7229ccbe3c515e91d1303780$__6338a825ba9091868686866040518663ffffffff1660e01b81526004018086815260200185815260200184600860200280828437600083820152601f01601f191690910190508361010080828437600083820152601f01601f191690910190508261010080828437600081840152601f19601f8201169050808301925050509550505050505060006040518083038186803b15801561507a57600080fd5b60006002600183015460ff16600481111561526357fe5b14615272576008820154615278565b60068201545b92915050565b60006002600183015460ff16600481111561529557fe5b146152a4576008820154615278565b506004015490565b600081600c01544211156152c1576000615278565b5060018101546001600160a01b03165b919050565b3390565b600081600c01544211156152ef576000615278565b50600201546001600160a01b031690565b600061527882615aef565b6060828211615361576040805162461bcd60e51b815260206004820152601e60248201527f626567696e2073686f756c64206265206c6f776572207468616e20656e640000604482015290519081900360640190fd5b600061536c85615300565b905080841061537b5750610f4d565b60006153878483615af3565b90506153938186615b09565b67ffffffffffffffff811180156153a957600080fd5b506040519080825280602002602001820160405280156153d3578160200160208202803683370190505b509250845b8181101561541f576153ea8782615b66565b846153f58389615b09565b815181106153ff57fe5b6001600160a01b03909216602092830291909101909101526001016153d8565b5050509392505050565b6000600160ff1b821061546d5760405162461bcd60e51b81526004018080602001828103825260288152602001806172ce6028913960400191505060405180910390fd5b5090565b6154796161cf565b6101008251101561549c5760405162461bcd60e51b81526004016102e590616b4d565b6014820151815260288201516020820152603c82015160408083019190915260508301516060808401919091526064840151608080850191909152608485015160a08086019190915260a486015160c08087019190915260c487015160e087015260e4870151610100870152610104870151610120870152610124909601519586901c61014086015263ffffffff9086901c81166101608601529085901c81166101808501529084901c81166101a084015292901c9091166101c082015290565b606061015e825110156155825760405162461bcd60e51b81526004016102e590616b4d565b61013e82015161015e830151610124840151604051601882901a9160191a906155b59085908590859085906020016168af565b604051602081830303815290604052945050505050919050565b6000603360000160029054906101000a90046001600160a01b03166001600160a01b0316634831d32f6040518163ffffffff1660e01b815260040160206040518083038186803b15801561562257600080fd5b505afa158015615636573d6000803e3d6000fd5b505050506040513d602081101561564c57600080fd5b505115615693576040805162461bcd60e51b815260206004820152601060248201526f1d5b9a5d995c9cd9481cd95d1d1b195960821b604482015290519081900360640190fd5b600260008881526043602052604090206001015460ff1660048111156156b557fe5b146156d25760405162461bcd60e51b81526004016102e590616bbb565b6040517f443d6cae00000000000000000000000000000000000000000000000000000000815273__$85738a9b50fe147d23ce9080d17e448cc6$__9063443d6cae9061572f906033908b908b908b908b908b908b90600401617170565b60206040518083038186803b15801561574757600080fd5b505af415801561575b573d6000803e3d6000fd5b505050506040513d601f19601f8201168201806040525081019061577f91906164dc565b979650505050505050565b600061579530615b72565b15905090565b630800000016151590565b6000806157b38585615b78565b156157d6576157d185601201546157cb878787615b99565b90615bdc565b6157d9565b60005b90506115f5816157ea8787876157f0565b90615c41565b60006158276157ff8585615ca6565b6001600160a01b03851660009081526034870160205260409020600101546157cb9085615ce0565b949350505050565b600061583c8484846157f0565b9050600081131561587e5760006158538585615b78565b156158625784602f0154615868565b84602e01545b905061587682826001615d15565b915050610f4d565b5060009392505050565b6000806158968585856157a6565b1215949350505050565b6000806158ad8585615b78565b156158ca576158c585601201546157cb878787615d33565b6158cd565b60005b9050806158db8686866157f0565b121595945050505050565b6000806158f38585615b78565b156158ca5784601201546158cd565b600082600c01546000141561595e576040805162461bcd60e51b815260206004820152601c60248201527f696e697469616c4d617267696e52617465206973206e6f742073657400000000604482015290519081900360640190fd5b600061597f84600c0154670de0b6b3a7640000615d6b90919063ffffffff16565b6001600160a01b038416600090815260348601602052604090206002015490915080156159ac57806159b2565b60358501545b90506115f58183615db1565b600f820154600090815b81811015615a16578360048111156159dc57fe5b600082815260108701602052604090206001015460ff1660048111156159fe57fe5b14615a0e57600092505050615278565b6001016159c8565b506001949350505050565b6000828152604360205260408120603901615a3b81615300565b615ae5576033546040517f6ba42aaa000000000000000000000000000000000000000000000000000000008152620100009091046001600160a01b031690636ba42aaa90615a8d9086906004016168f6565b60206040518083038186803b158015615aa557600080fd5b505afa158015615ab9573d6000803e3d6000fd5b505050506040513d601f19601f82011682018060405250810190615add9190616408565b915050615278565b615add8184615dc0565b5490565b6000818310615b025781610f4d565b5090919050565b600082821115615b60576040805162461bcd60e51b815260206004820152601e60248201527f536166654d6174683a207375627472616374696f6e206f766572666c6f770000604482015290519081900360640190fd5b50900390565b6000610f4d8383615dd5565b3b151590565b6001600160a01b031660009081526034909101602052604090206001015490565b600c8301546001600160a01b0383166000908152603485016020526040812060010154909161582791615bd79190615bd19086615ce0565b90615ce0565b615e39565b6000828201818312801590615bf15750838112155b80615c065750600083128015615c0657508381125b610f4d5760405162461bcd60e51b81526004018080602001828103825260218152602001806171f36021913960400191505060405180910390fd5b6000818303818312801590615c565750838113155b80615c6b5750600083128015615c6b57508381135b610f4d5760405162461bcd60e51b81526004018080602001828103825260248152602001806172f66024913960400191505060405180910390fd5b6001600160a01b03811660009081526034830160205260408120600b840154600182015461582791615cd89190615ce0565b825490615c41565b6000670de0b6b3a7640000615d06615cf88585615e51565b670de0b6b3a7640000615efa565b81615d0d57fe5b059392505050565b6000615827615d248585615e51565b670de0b6b3a764000084615f79565b600d8301546001600160a01b0383166000908152603485016020526040812060010154909161582791615bd79190615bd19086615ce0565b600080821215615d8c57615d7e82616056565b9150615d8983616056565b92505b610f4d82615dab615da586670de0b6b3a7640000615e51565b85615efa565b90616063565b6000818312615b025781610f4d565b6000610f4d836001600160a01b03841661611b565b81546000908210615e175760405162461bcd60e51b81526004018080602001828103825260228152602001806171d16022913960400191505060405180910390fd5b826000018281548110615e2657fe5b9060005260206000200154905092915050565b60008082121561546d57615e4c82616056565b615278565b600082615e6057506000615278565b82600019148015615e745750600160ff1b82145b15615eb05760405162461bcd60e51b81526004018080602001828103825260278152602001806172a76027913960400191505060405180910390fd5b82820282848281615ebd57fe5b0514610f4d5760405162461bcd60e51b81526004018080602001828103825260278152602001806172a76027913960400191505060405180910390fd5b6000808213615f50576040805162461bcd60e51b815260206004820152601f60248201527f726f756e6448616c665570206f6e6c7920737570706f7274732079203e203000604482015290519081900360640190fd5b60008312615f6c57615f658360028405615bdc565b9050615278565b610f4d8360028405615c41565b600082615fcd576040805162461bcd60e51b815260206004820152601060248201527f6469766973696f6e206279207a65726f00000000000000000000000000000000604482015290519081900360640190fd5b615fd78484616063565b9050828481615fe257fe5b07615fec57610f4d565b6000615ff88585616133565b9050600083600181111561600857fe5b1480156160125750805b1561602557616022826001615bdc565b91505b600183600181111561603357fe5b14801561603e575080155b1561604e576115f5826001615c41565b509392505050565b6000615278600083615c41565b6000816160b7576040805162461bcd60e51b815260206004820181905260248201527f5369676e6564536166654d6174683a206469766973696f6e206279207a65726f604482015290519081900360640190fd5b816000191480156160cb5750600160ff1b83145b156161075760405162461bcd60e51b81526004018080602001828103825260218152602001806172866021913960400191505060405180910390fd5b600082848161611257fe5b05949350505050565b60009081526001919091016020526040902054151590565b6000821580616140575081155b1561614d57506001615278565b501860ff1d1590565b604051806104e001604052806027906020820280368337509192915050565b6040518060e001604052806007906020820280368337509192915050565b6040518060a001604052806005906020820280368337509192915050565b6040518060c001604052806006906020820280368337509192915050565b604080516101e081018252600080825260208201819052918101829052606081018290526080810182905260a0810182905260c0810182905260e08101829052610100810182905261012081018290526101408101829052610160810182905261018081018290526101a081018290526101c081019190915290565b604051806040016040528060008152602001600081525090565b80356001600160a01b03811681146152d157600080fd5b80610100810183101561527857600080fd5b80610120810183101561527857600080fd5b803563ffffffff811681146152d157600080fd5b6000602082840312156162c5578081fd5b610f4d82616265565b60008060008060008060a087890312156162e6578182fd5b6162ef87616265565b95506162fd60208801616265565b94506040870135935061631260608801616265565b9250608087013567ffffffffffffffff8082111561632e578384fd5b818901915089601f830112616341578384fd5b81358181111561634f578485fd5b8a6020828501011115616360578485fd5b6020830194508093505050509295509295509295565b6000806000806000610440868803121561638e578081fd5b61639786616265565b94506163a6876020880161628e565b93506163b687610140880161627c565b92506163c687610240880161627c565b91506163d687610340880161627c565b90509295509295909350565b6000608082840312156163f3578081fd5b82608083011115616402578081fd5b50919050565b600060208284031215616419578081fd5b81518015158114610f4d578182fd5b6000806040838503121561643a578182fd5b823567ffffffffffffffff80821115616451578384fd5b818501915085601f830112616464578384fd5b81358181111561647057fe5b6040516020601f8301601f191682018101848111838210171561648f57fe5b60405282825284830181018910156164a5578687fd5b8281860182840137918101820195909552939694909301359450505050565b6000602082840312156164d5578081fd5b5035919050565b6000602082840312156164ed578081fd5b5051919050565b60008060408385031215616506578182fd5b50508035926020909101359150565b60008060408385031215616527578182fd5b8235915061653760208401616265565b90509250929050565b60008060008060008060c08789031215616558578182fd5b8635955061656860208801616265565b945061657660408801616265565b9350606087013592506080870135915060a087013590509295509295509295565b6000806000606084860312156165ab578081fd5b833592506165bb60208501616265565b9150604084013590509250925092565b600080600080600060a086880312156165e2578283fd5b853594506165f260208701616265565b93506040860135925061660760608701616265565b91506163d6608087016162a0565b600080600080600080600060e0888a03121561662f578485fd5b8735965061663f60208901616265565b955060408801359450606088013593506080880135925061666260a08901616265565b915061667060c089016162a0565b905092959891949750929550565b6000806101208385031215616691578182fd5b82359150616537846020850161627c565b60008060008061032085870312156166b8578182fd5b843593506166c9866020870161627c565b92506166d986610120870161627c565b91506166e986610220870161627c565b905092959194509250565b6000806101408385031215616707578182fd5b82359150616537846020850161628e565b60008060006060848603121561672c578081fd5b505081359360208301359350604090920135919050565b6001600160a01b0316815260200190565b6001600160a01b03169052565b8060005b6008811015611581578135845260209384019390910190600101616765565b8060005b6006811015611581578151845260209384019390910190600101616788565b6167b2828251616754565b60208101516167c46020840182616754565b5060408101516167d76040840182616754565b5060608101516167ea6060840182616754565b5060808101516167fd6080840182616754565b5060a081015160a083015260c081015160c083015260e081015160e083015261010080820151818401525061012080820151818401525061014080820151616847828501826168a1565b50506101608082015161685c82850182616897565b50506101808082015161687182850182616897565b50506101a08082015161688682850182616897565b50506101c080820151611581828501825b63ffffffff169052565b67ffffffffffffffff169052565b93845260208401929092527fff0000000000000000000000000000000000000000000000000000000000000060f891821b8116604085015291901b16604182015260420190565b6001600160a01b0391909116815260200190565b6020808252825182820181905260009190848201906040850190845b8181101561694b5783516001600160a01b031683529284019291840191600101616926565b50909695505050505050565b6000610280820190508615158252602086151581840152604083018660005b60078110156169985761698a838351616743565b925090830190600101616976565b50505061012083018560005b60058110156169c1578151835291830191908301906001016169a4565b505050506110bc6101c0830184616784565b6105208101600585106169e257fe5b84825260206001600160a01b03851681840152604083018460005b6027811015616a1a578151835291830191908301906001016169fd565b50505050949350505050565b90815260200190565b9182521515602082015260400190565b918252602082015260400190565b9283526020830191909152604082015260600190565b9889526020890197909752604088019590955260608701939093526080860191909152151560a0850152151560c0840152151560e08301526101008201526101200190565b60208082526013908201527f696e76616c6964206c696d697420707269636500000000000000000000000000604082015260600190565b60208082526014908201527f63616e6e6f74206c697175696461746520414d4d000000000000000000000000604082015260600190565b6020808252601e908201527f7461726765744c65766572616765206d75737420626520696e74656765720000604082015260600190565b6020808252600b908201527f62726f6b656e2064617461000000000000000000000000000000000000000000604082015260600190565b6020808252600e908201527f696e76616c696420616d6f756e74000000000000000000000000000000000000604082015260600190565b60208082526023908201527f70657270657475616c2073686f756c6420626520696e204e4f524d414c20737460408201527f6174650000000000000000000000000000000000000000000000000000000000606082015260800190565b6020808252600f908201527f616c72656164792072756e6e696e670000000000000000000000000000000000604082015260600190565b6020808252601a908201527f7461726765744c65766572616765206973206e65676174697665000000000000604082015260600190565b60208082526026908201527f70657270657475616c2073686f756c6420626520696e20454d455247454e435960408201527f2073746174650000000000000000000000000000000000000000000000000000606082015260800190565b60208082526011908201527f646561646c696e65206578636565646564000000000000000000000000000000604082015260600190565b6020808252601e908201527f636f6e747261637420646f6573206e6f74206163636570742065746865720000604082015260600190565b60208082526013908201527f706f6f6c206973206e6f742072756e6e696e6700000000000000000000000000604082015260600190565b6020808252601d908201527f616c6c2070657270657475616c206d75737420626520636c6561726564000000604082015260600190565b60208082526022908201527f6f6e6c7920676f7665726e6f722063616e206372656174652070657270657475604082015261185b60f21b606082015260800190565b60208082526022908201527f6f6e6c79206f70657261746f722063616e206372656174652070657270657475604082015261185b60f21b606082015260800190565b60208082526015908201527f63616c6c6572206d757374206265206b65657065720000000000000000000000604082015260600190565b6020808252600e908201527f696e76616c696420747261646572000000000000000000000000000000000000604082015260600190565b60208082526024908201527f70657270657475616c2073686f756c6420626520696e20434c4541524544207360408201527f7461746500000000000000000000000000000000000000000000000000000000606082015260800190565b60008982526001600160a01b03808a1660208401528089166040840152876060840152808716608084015280861660a08401525060e060c08301528260e0830152610100838582850137828401810191909152601f909201601f19160101979650505050505050565b9283526001600160a01b03919091166020830152604082015260600190565b9384526001600160a01b039290921660208401526040830152606082015260800190565b60006104608201905087825260206001600160a01b03881681840152604083018760005b6009811015616ffb57813583529183019190830190600101616fde565b5050505061700d610160830186616761565b61701b610260830185616761565b61577f610360830184616761565b8281526102008101610f4d60208301846167a7565b60006102208583526020617054818501876167a7565b81610200850152845180838601528392505b8083101561708557858301820151858401610240015291810191617066565b80831115617097578361024082870101525b601f01601f191693909301610240019695505050505050565b83815261022081016170c560208301856167a7565b82610200830152949350505050565b92835260208301919091526001600160a01b0316604082015260600190565b93845260208401929092526001600160a01b03908116604084015216606082015260800190565b95865260208601949094526001600160a01b03928316604086015291166060840152608083015260a082015260c00190565b93845260208401929092526001600160a01b03166040830152606082015260800190565b96875260208701959095526001600160a01b039384166040870152606086019290925260808501521660a083015263ffffffff1660c082015260e0019056fe63616e206f6e6c7920626520696e69746961746564206279206f70657261746f72456e756d657261626c655365743a20696e646578206f7574206f6620626f756e64735369676e6564536166654d6174683a206164646974696f6e206f766572666c6f7770657270657475616c2073686f756c6420626520696e204e4f524d414c20737461746563616e206f6e6c7920626520696e6974696174656420627920676f7665726e6f72496e697469616c697a61626c653a20636f6e747261637420697320616c726561647920696e697469616c697a65645369676e6564536166654d6174683a206469766973696f6e206f766572666c6f775369676e6564536166654d6174683a206d756c7469706c69636174696f6e206f766572666c6f7753616665436173743a2076616c756520646f65736e27742066697420696e20616e20696e743235365369676e6564536166654d6174683a207375627472616374696f6e206f766572666c6f77a2646970667358221220069397579360751dd49c5f0c5fcf418e2566b3d81bf95be497c99d53e67d79f564736f6c63430007040033",
  "linkReferences": {
    "contracts/module/AMMModule.sol": {
      "AMMModule": [
        {
          "length": 20,
          "start": 4639
        },
        {
          "length": 20,
          "start": 4829
        },
        {
          "length": 20,
          "start": 16594
        },
        {
          "length": 20,
          "start": 16776
        },
        {
          "length": 20,
          "start": 20672
        }
      ]
    },
    "contracts/module/LiquidityPoolModule.sol": {
      "LiquidityPoolModule": [
        {
          "length": 20,
          "start": 3023
        },
        {
          "length": 20,
          "start": 3331
        },
        {
          "length": 20,
          "start": 3493
        },
        {
          "length": 20,
          "start": 3729
        },
        {
          "length": 20,
          "start": 4086
        },
        {
          "length": 20,
          "start": 5208
        },
        {
          "length": 20,
          "start": 5461
        },
        {
          "length": 20,
          "start": 6029
        },
        {
          "length": 20,
          "start": 6091
        },
        {
          "length": 20,
          "start": 6483
        },
        {
          "length": 20,
          "start": 6622
        },
        {
          "length": 20,
          "start": 6735
        },
        {
          "length": 20,
          "start": 6878
        },
        {
          "length": 20,
          "start": 7237
        },
        {
          "length": 20,
          "start": 7345
        },
        {
          "length": 20,
          "start": 7699
        },
        {
          "length": 20,
          "start": 7978
        },
        {
          "length": 20,
          "start": 8090
        },
        {
          "length": 20,
          "start": 8593
        },
        {
          "length": 20,
          "start": 8755
        },
        {
          "length": 20,
          "start": 8866
        },
        {
          "length": 20,
          "start": 9429
        },
        {
          "length": 20,
          "start": 9821
        },
        {
          "length": 20,
          "start": 10270
        },
        {
          "length": 20,
          "start": 10552
        },
        {
          "length": 20,
          "start": 10664
        },
        {
          "length": 20,
          "start": 10876
        },
        {
          "length": 20,
          "start": 11019
        },
        {
          "length": 20,
          "start": 11243
        },
        {
          "length": 20,
          "start": 11665
        },
        {
          "length": 20,
          "start": 11777
        },
        {
          "length": 20,
          "start": 11867
        },
        {
          "length": 20,
          "start": 12282
        },
        {
          "length": 20,
          "start": 12400
        },
        {
          "length": 20,
          "start": 12626
        },
        {
          "length": 20,
          "start": 12803
        },
        {
          "length": 20,
          "start": 12989
        },
        {
          "length": 20,
          "start": 13101
        },
        {
          "length": 20,
          "start": 13207
        },
        {
          "length": 20,
          "start": 13300
        },
        {
          "length": 20,
          "start": 13579
        },
        {
          "length": 20,
          "start": 13691
        },
        {
          "length": 20,
          "start": 13893
        },
        {
          "length": 20,
          "start": 14305
        },
        {
          "length": 20,
          "start": 14720
        },
        {
          "length": 20,
          "start": 15684
        },
        {
          "length": 20,
          "start": 15796
        },
        {
          "length": 20,
          "start": 16099
        },
        {
          "length": 20,
          "start": 16237
        },
        {
          "length": 20,
          "start": 17048
        },
        {
          "length": 20,
          "start": 17524
        },
        {
          "length": 20,
          "start": 17753
        },
        {
          "length": 20,
          "start": 18063
        },
        {
          "length": 20,
          "start": 18296
        },
        {
          "length": 20,
          "start": 18682
        },
        {
          "length": 20,
          "start": 18794
        },
        {
          "length": 20,
          "start": 19219
        },
        {
          "length": 20,
          "start": 19493
        },
        {
          "length": 20,
          "start": 19732
        },
        {
          "length": 20,
          "start": 19829
        },
        {
          "length": 20,
          "start": 19968
        },
        {
          "length": 20,
          "start": 20081
        },
        {
          "length": 20,
          "start": 20473
        },
        {
          "length": 20,
          "start": 20574
        },
        {
          "length": 20,
          "start": 20924
        }
      ]
    },
    "contracts/module/OrderModule.sol": {
      "OrderModule": [
        {
          "length": 20,
          "start": 9022
        },
        {
          "length": 20,
          "start": 9153
        },
        {
          "length": 20,
          "start": 9286
        }
      ]
    },
    "contracts/module/TradeModule.sol": {
      "TradeModule": [
        {
          "length": 20,
          "start": 8456
        },
        {
          "length": 20,
          "start": 15425
        },
        {
          "length": 20,
          "start": 19066
        },
        {
          "length": 20,
          "start": 22299
        }
      ]
    }
  },
  "deployedLinkReferences": {
    "contracts/module/AMMModule.sol": {
      "AMMModule": [
        {
          "length": 20,
          "start": 4606
        },
        {
          "length": 20,
          "start": 4796
        },
        {
          "length": 20,
          "start": 16561
        },
        {
          "length": 20,
          "start": 16743
        },
        {
          "length": 20,
          "start": 20639
        }
      ]
    },
    "contracts/module/LiquidityPoolModule.sol": {
      "LiquidityPoolModule": [
        {
          "length": 20,
          "start": 2990
        },
        {
          "length": 20,
          "start": 3298
        },
        {
          "length": 20,
          "start": 3460
        },
        {
          "length": 20,
          "start": 3696
        },
        {
          "length": 20,
          "start": 4053
        },
        {
          "length": 20,
          "start": 5175
        },
        {
          "length": 20,
          "start": 5428
        },
        {
          "length": 20,
          "start": 5996
        },
        {
          "length": 20,
          "start": 6058
        },
        {
          "length": 20,
          "start": 6450
        },
        {
          "length": 20,
          "start": 6589
        },
        {
          "length": 20,
          "start": 6702
        },
        {
          "length": 20,
          "start": 6845
        },
        {
          "length": 20,
          "start": 7204
        },
        {
          "length": 20,
          "start": 7312
        },
        {
          "length": 20,
          "start": 7666
        },
        {
          "length": 20,
          "start": 7945
        },
        {
          "length": 20,
          "start": 8057
        },
        {
          "length": 20,
          "start": 8560
        },
        {
          "length": 20,
          "start": 8722
        },
        {
          "length": 20,
          "start": 8833
        },
        {
          "length": 20,
          "start": 9396
        },
        {
          "length": 20,
          "start": 9788
        },
        {
          "length": 20,
          "start": 10237
        },
        {
          "length": 20,
          "start": 10519
        },
        {
          "length": 20,
          "start": 10631
        },
        {
          "length": 20,
          "start": 10843
        },
        {
          "length": 20,
          "start": 10986
        },
        {
          "length": 20,
          "start": 11210
        },
        {
          "length": 20,
          "start": 11632
        },
        {
          "length": 20,
          "start": 11744
        },
        {
          "length": 20,
          "start": 11834
        },
        {
          "length": 20,
          "start": 12249
        },
        {
          "length": 20,
          "start": 12367
        },
        {
          "length": 20,
          "start": 12593
        },
        {
          "length": 20,
          "start": 12770
        },
        {
          "length": 20,
          "start": 12956
        },
        {
          "length": 20,
          "start": 13068
        },
        {
          "length": 20,
          "start": 13174
        },
        {
          "length": 20,
          "start": 13267
        },
        {
          "length": 20,
          "start": 13546
        },
        {
          "length": 20,
          "start": 13658
        },
        {
          "length": 20,
          "start": 13860
        },
        {
          "length": 20,
          "start": 14272
        },
        {
          "length": 20,
          "start": 14687
        },
        {
          "length": 20,
          "start": 15651
        },
        {
          "length": 20,
          "start": 15763
        },
        {
          "length": 20,
          "start": 16066
        },
        {
          "length": 20,
          "start": 16204
        },
        {
          "length": 20,
          "start": 17015
        },
        {
          "length": 20,
          "start": 17491
        },
        {
          "length": 20,
          "start": 17720
        },
        {
          "length": 20,
          "start": 18030
        },
        {
          "length": 20,
          "start": 18263
        },
        {
          "length": 20,
          "start": 18649
        },
        {
          "length": 20,
          "start": 18761
        },
        {
          "length": 20,
          "start": 19186
        },
        {
          "length": 20,
          "start": 19460
        },
        {
          "length": 20,
          "start": 19699
        },
        {
          "length": 20,
          "start": 19796
        },
        {
          "length": 20,
          "start": 19935
        },
        {
          "length": 20,
          "start": 20048
        },
        {
          "length": 20,
          "start": 20440
        },
        {
          "length": 20,
          "start": 20541
        },
        {
          "length": 20,
          "start": 20891
        }
      ]
    },
    "contracts/module/OrderModule.sol": {
      "OrderModule": [
        {
          "length": 20,
          "start": 8989
        },
        {
          "length": 20,
          "start": 9120
        },
        {
          "length": 20,
          "start": 9253
        }
      ]
    },
    "contracts/module/TradeModule.sol": {
      "TradeModule": [
        {
          "length": 20,
          "start": 8423
        },
        {
          "length": 20,
          "start": 15392
        },
        {
          "length": 20,
          "start": 19033
        },
        {
          "length": 20,
          "start": 22266
        }
      ]
    }
  }
}