{
  "_format": "hh-sol-artifact-1",
  "contractName": "MockAMMPriceEntries",
  "sourceName": "contracts/test/MockAMMModule.sol",
  "abi": [
    {
      "inputs": [],
      "name": "price",
      "outputs": [
        {
          "internalType": "int256",
          "name": "",
          "type": "int256"
        }
      ],
      "stateMutability": "view",
      "type": "function"
    },
    {
      "inputs": [
        {
          "internalType": "int256",
          "name": "tradeAmount",
          "type": "int256"
        }
      ],
      "name": "queryPrice",
      "outputs": [
        {
          "internalType": "int256",
          "name": "deltaCash",
          "type": "int256"
        },
        {
          "internalType": "int256",
          "name": "deltaPosition",
          "type": "int256"
        }
      ],
      "stateMutability": "view",
      "type": "function"
    },
    {
      "inputs": [
        {
          "internalType": "int256",
          "name": "expectPrice",
          "type": "int256"
        }
      ],
      "name": "setPrice",
      "outputs": [],
      "stateMutability": "nonpayable",
      "type": "function"
    }
  ],
  "bytecode": "0x608060405234801561001057600080fd5b506103f5806100206000396000f3fe608060405234801561001057600080fd5b50600436106100415760003560e01c8063934d970114610046578063a035b1fe14610070578063f7a3080614610085575b600080fd5b610059610054366004610324565b61009a565b604051610067929190610345565b60405180910390f35b6100786100c0565b604051610067919061033c565b610098610093366004610324565b6100c6565b005b6000806100ba6100b5600054856100cb90919063ffffffff16565b610100565b93915050565b60005481565b600055565b6000670de0b6b3a76400006100f16100e38585610113565b670de0b6b3a76400006101df565b816100f857fe5b059392505050565b600061010d60008361025a565b92915050565b6000826101225750600061010d565b8260001914801561015257507f800000000000000000000000000000000000000000000000000000000000000082145b1561018e5760405162461bcd60e51b81526004018080602001828103825260278152602001806103756027913960400191505060405180910390fd5b8282028284828161019b57fe5b05146101d85760405162461bcd60e51b81526004018080602001828103825260278152602001806103756027913960400191505060405180910390fd5b9392505050565b6000808213610235576040805162461bcd60e51b815260206004820152601f60248201527f726f756e6448616c665570206f6e6c7920737570706f7274732079203e203000604482015290519081900360640190fd5b600083126102515761024a83600284056102bf565b905061010d565b6101d883600284055b600081830381831280159061026f5750838113155b80610284575060008312801561028457508381135b6101d85760405162461bcd60e51b815260040180806020018281038252602481526020018061039c6024913960400191505060405180910390fd5b60008282018183128015906102d45750838112155b806102e957506000831280156102e957508381125b6101d85760405162461bcd60e51b81526004018080602001828103825260218152602001806103546021913960400191505060405180910390fd5b600060208284031215610335578081fd5b5035919050565b90815260200190565b91825260208201526040019056fe5369676e6564536166654d6174683a206164646974696f6e206f766572666c6f775369676e6564536166654d6174683a206d756c7469706c69636174696f6e206f766572666c6f775369676e6564536166654d6174683a207375627472616374696f6e206f766572666c6f77a2646970667358221220fcac06a5a3f069e1b9d331416edeb2a6104c690f3e7c3c5be85beee4ab53e2f164736f6c63430007040033",
  "linkReferences": {},
  "deployedLinkReferences": {}
}