{
  "_format": "hh-sol-artifact-1",
  "contractName": "TestLiquidityPool",
  "sourceName": "contracts/test/TestLiquidityPool.sol",
  "abi": [
    {
      "inputs": [
        {
          "internalType": "address",
          "name": "trader",
          "type": "address"
        },
        {
          "internalType": "int256",
          "name": "cashToAdd",
          "type": "int256"
        }
      ],
      "name": "addLiquidity",
      "outputs": [],
      "stateMutability": "nonpayable",
      "type": "function"
    },
    {
      "inputs": [],
      "name": "claimOperator",
      "outputs": [],
      "stateMutability": "nonpayable",
      "type": "function"
    },
    {
      "inputs": [
        {
          "internalType": "uint256",
          "name": "perpetualIndex",
          "type": "uint256"
        },
        {
          "internalType": "address",
          "name": "trader",
          "type": "address"
        }
      ],
      "name": "clear",
      "outputs": [
        {
          "internalType": "bool",
          "name": "isAllCleared",
          "type": "bool"
        }
      ],
      "stateMutability": "nonpayable",
      "type": "function"
    },
    {
      "inputs": [
        {
          "internalType": "uint256",
          "name": "perpetualIndex",
          "type": "uint256"
        }
      ],
      "name": "clearP",
      "outputs": [],
      "stateMutability": "nonpayable",
      "type": "function"
    },
    {
      "inputs": [
        {
          "internalType": "address",
          "name": "oracle",
          "type": "address"
        },
        {
          "internalType": "int256[9]",
          "name": "baseParams",
          "type": "int256[9]"
        },
        {
          "internalType": "int256[8]",
          "name": "riskParams",
          "type": "int256[8]"
        }
      ],
      "name": "createPerpetual",
      "outputs": [],
      "stateMutability": "nonpayable",
      "type": "function"
    },
    {
      "inputs": [
        {
          "internalType": "uint256",
          "name": "perpetualIndex",
          "type": "uint256"
        },
        {
          "internalType": "int256",
          "name": "amount",
          "type": "int256"
        }
      ],
      "name": "decreaseTotalCollateral",
      "outputs": [],
      "stateMutability": "nonpayable",
      "type": "function"
    },
    {
      "inputs": [
        {
          "internalType": "uint256",
          "name": "perpetualIndex",
          "type": "uint256"
        },
        {
          "internalType": "address",
          "name": "trader",
          "type": "address"
        },
        {
          "internalType": "int256",
          "name": "amount",
          "type": "int256"
        }
      ],
      "name": "deposit",
      "outputs": [
        {
          "internalType": "bool",
          "name": "isInitialDeposit",
          "type": "bool"
        }
      ],
      "stateMutability": "nonpayable",
      "type": "function"
    },
    {
      "inputs": [
        {
          "internalType": "uint256",
          "name": "perpetualIndex",
          "type": "uint256"
        },
        {
          "internalType": "address",
          "name": "trader",
          "type": "address"
        },
        {
          "internalType": "int256",
          "name": "amount",
          "type": "int256"
        }
      ],
      "name": "depositP",
      "outputs": [],
      "stateMutability": "nonpayable",
      "type": "function"
    },
    {
      "inputs": [
        {
          "internalType": "uint256",
          "name": "perpetualIndex",
          "type": "uint256"
        },
        {
          "internalType": "address",
          "name": "trader",
          "type": "address"
        }
      ],
      "name": "deregisterActiveAccount",
      "outputs": [],
      "stateMutability": "nonpayable",
      "type": "function"
    },
    {
      "inputs": [
        {
          "internalType": "int256",
          "name": "amount",
          "type": "int256"
        }
      ],
      "name": "donateInsuranceFund",
      "outputs": [],
      "stateMutability": "nonpayable",
      "type": "function"
    },
    {
      "inputs": [
        {
          "internalType": "int256",
          "name": "amount",
          "type": "int256"
        }
      ],
      "name": "donateInsuranceFundP",
      "outputs": [],
      "stateMutability": "nonpayable",
      "type": "function"
    },
    {
      "inputs": [
        {
          "internalType": "address",
          "name": "trader",
          "type": "address"
        },
        {
          "internalType": "int256",
          "name": "cashToAdd",
          "type": "int256"
        }
      ],
      "name": "donateLiquidity",
      "outputs": [],
      "stateMutability": "nonpayable",
      "type": "function"
    },
    {
      "inputs": [
        {
          "internalType": "uint256",
          "name": "perpetualIndex",
          "type": "uint256"
        }
      ],
      "name": "getActiveUserCount",
      "outputs": [
        {
          "internalType": "uint256",
          "name": "count",
          "type": "uint256"
        }
      ],
      "stateMutability": "view",
      "type": "function"
    },
    {
      "inputs": [
        {
          "internalType": "uint256",
          "name": "exclusiveIndex",
          "type": "uint256"
        }
      ],
      "name": "getAvailablePoolCash",
      "outputs": [
        {
          "internalType": "int256",
          "name": "availablePoolCash",
          "type": "int256"
        }
      ],
      "stateMutability": "view",
      "type": "function"
    },
    {
      "inputs": [],
      "name": "getDonatedInsuranceFund",
      "outputs": [
        {
          "internalType": "int256",
          "name": "",
          "type": "int256"
        }
      ],
      "stateMutability": "view",
      "type": "function"
    },
    {
      "inputs": [
        {
          "internalType": "uint256",
          "name": "perpetualIndex",
          "type": "uint256"
        }
      ],
      "name": "getFundingRate",
      "outputs": [
        {
          "internalType": "int256",
          "name": "",
          "type": "int256"
        }
      ],
      "stateMutability": "view",
      "type": "function"
    },
    {
      "inputs": [],
      "name": "getFundingTime",
      "outputs": [
        {
          "internalType": "uint256",
          "name": "",
          "type": "uint256"
        }
      ],
      "stateMutability": "view",
      "type": "function"
    },
    {
      "inputs": [
        {
          "internalType": "uint256",
          "name": "perpetualIndex",
          "type": "uint256"
        }
      ],
      "name": "getIndexPrice",
      "outputs": [
        {
          "internalType": "int256",
          "name": "price",
          "type": "int256"
        }
      ],
      "stateMutability": "view",
      "type": "function"
    },
    {
      "inputs": [],
      "name": "getInsuranceFund",
      "outputs": [
        {
          "internalType": "int256",
          "name": "",
          "type": "int256"
        }
      ],
      "stateMutability": "view",
      "type": "function"
    },
    {
      "inputs": [
        {
          "internalType": "uint256",
          "name": "perpetualIndex",
          "type": "uint256"
        },
        {
          "internalType": "address",
          "name": "trader",
          "type": "address"
        }
      ],
      "name": "getMarginAccount",
      "outputs": [
        {
          "internalType": "int256",
          "name": "cash",
          "type": "int256"
        },
        {
          "internalType": "int256",
          "name": "position",
          "type": "int256"
        }
      ],
      "stateMutability": "view",
      "type": "function"
    },
    {
      "inputs": [
        {
          "internalType": "uint256",
          "name": "perpetualIndex",
          "type": "uint256"
        }
      ],
      "name": "getMarkPrice",
      "outputs": [
        {
          "internalType": "int256",
          "name": "price",
          "type": "int256"
        }
      ],
      "stateMutability": "view",
      "type": "function"
    },
    {
      "inputs": [
        {
          "internalType": "uint256",
          "name": "perpetualIndex",
          "type": "uint256"
        }
      ],
      "name": "getNextActiveAccount",
      "outputs": [
        {
          "internalType": "address",
          "name": "account",
          "type": "address"
        }
      ],
      "stateMutability": "view",
      "type": "function"
    },
    {
      "inputs": [
        {
          "internalType": "uint256",
          "name": "perpetualIndex",
          "type": "uint256"
        }
      ],
      "name": "getOpenInterest",
      "outputs": [
        {
          "internalType": "int256",
          "name": "",
          "type": "int256"
        }
      ],
      "stateMutability": "view",
      "type": "function"
    },
    {
      "inputs": [],
      "name": "getOperator",
      "outputs": [
        {
          "internalType": "address",
          "name": "",
          "type": "address"
        }
      ],
      "stateMutability": "view",
      "type": "function"
    },
    {
      "inputs": [],
      "name": "getPoolCash",
      "outputs": [
        {
          "internalType": "int256",
          "name": "",
          "type": "int256"
        }
      ],
      "stateMutability": "view",
      "type": "function"
    },
    {
      "inputs": [
        {
          "internalType": "uint256",
          "name": "perpetualIndex",
          "type": "uint256"
        }
      ],
      "name": "getRebalanceMargin",
      "outputs": [
        {
          "internalType": "int256",
          "name": "marginToRebalance",
          "type": "int256"
        }
      ],
      "stateMutability": "view",
      "type": "function"
    },
    {
      "inputs": [
        {
          "internalType": "uint256",
          "name": "perpetualIndex",
          "type": "uint256"
        }
      ],
      "name": "getRedemptionRateWithPosition",
      "outputs": [
        {
          "internalType": "int256",
          "name": "",
          "type": "int256"
        }
      ],
      "stateMutability": "view",
      "type": "function"
    },
    {
      "inputs": [
        {
          "internalType": "uint256",
          "name": "perpetualIndex",
          "type": "uint256"
        }
      ],
      "name": "getRedemptionRateWithoutPosition",
      "outputs": [
        {
          "internalType": "int256",
          "name": "",
          "type": "int256"
        }
      ],
      "stateMutability": "view",
      "type": "function"
    },
    {
      "inputs": [
        {
          "internalType": "uint256",
          "name": "perpetualIndex",
          "type": "uint256"
        },
        {
          "internalType": "address",
          "name": "trader",
          "type": "address"
        }
      ],
      "name": "getSettleableMargin",
      "outputs": [
        {
          "internalType": "int256",
          "name": "margin",
          "type": "int256"
        }
      ],
      "stateMutability": "view",
      "type": "function"
    },
    {
      "inputs": [
        {
          "internalType": "uint256",
          "name": "perpetualIndex",
          "type": "uint256"
        }
      ],
      "name": "getState",
      "outputs": [
        {
          "internalType": "enum PerpetualState",
          "name": "",
          "type": "uint8"
        }
      ],
      "stateMutability": "view",
      "type": "function"
    },
    {
      "inputs": [
        {
          "internalType": "uint256",
          "name": "perpetualIndex",
          "type": "uint256"
        }
      ],
      "name": "getTotalCollateral",
      "outputs": [
        {
          "internalType": "int256",
          "name": "",
          "type": "int256"
        }
      ],
      "stateMutability": "view",
      "type": "function"
    },
    {
      "inputs": [
        {
          "internalType": "uint256",
          "name": "perpetualIndex",
          "type": "uint256"
        }
      ],
      "name": "getTotalMarginWithPosition",
      "outputs": [
        {
          "internalType": "int256",
          "name": "",
          "type": "int256"
        }
      ],
      "stateMutability": "view",
      "type": "function"
    },
    {
      "inputs": [
        {
          "internalType": "uint256",
          "name": "perpetualIndex",
          "type": "uint256"
        }
      ],
      "name": "getTotalMarginWithoutPosition",
      "outputs": [
        {
          "internalType": "int256",
          "name": "",
          "type": "int256"
        }
      ],
      "stateMutability": "view",
      "type": "function"
    },
    {
      "inputs": [],
      "name": "getTransferringOperator",
      "outputs": [
        {
          "internalType": "address",
          "name": "",
          "type": "address"
        }
      ],
      "stateMutability": "view",
      "type": "function"
    },
    {
      "inputs": [
        {
          "internalType": "uint256",
          "name": "perpetualIndex",
          "type": "uint256"
        }
      ],
      "name": "getUnitAccumulativeFunding",
      "outputs": [
        {
          "internalType": "int256",
          "name": "unitAccumulativeFunding",
          "type": "int256"
        }
      ],
      "stateMutability": "view",
      "type": "function"
    },
    {
      "inputs": [
        {
          "internalType": "uint256",
          "name": "perpetualIndex",
          "type": "uint256"
        },
        {
          "internalType": "int256",
          "name": "amount",
          "type": "int256"
        }
      ],
      "name": "increaseTotalCollateral",
      "outputs": [],
      "stateMutability": "nonpayable",
      "type": "function"
    },
    {
      "inputs": [
        {
          "internalType": "address",
          "name": "trader",
          "type": "address"
        },
        {
          "internalType": "address",
          "name": "grantor",
          "type": "address"
        },
        {
          "internalType": "uint256",
          "name": "privilege",
          "type": "uint256"
        }
      ],
      "name": "isAuthorized",
      "outputs": [
        {
          "internalType": "bool",
          "name": "isGranted",
          "type": "bool"
        }
      ],
      "stateMutability": "view",
      "type": "function"
    },
    {
      "inputs": [
        {
          "internalType": "uint256",
          "name": "perpetualIndex",
          "type": "uint256"
        },
        {
          "internalType": "address",
          "name": "trader",
          "type": "address"
        }
      ],
      "name": "isTraderRegistered",
      "outputs": [
        {
          "internalType": "bool",
          "name": "isRegistered",
          "type": "bool"
        }
      ],
      "stateMutability": "view",
      "type": "function"
    },
    {
      "inputs": [
        {
          "internalType": "uint256",
          "name": "perpetualIndex",
          "type": "uint256"
        }
      ],
      "name": "rebalance",
      "outputs": [],
      "stateMutability": "nonpayable",
      "type": "function"
    },
    {
      "inputs": [
        {
          "internalType": "uint256",
          "name": "perpetualIndex",
          "type": "uint256"
        },
        {
          "internalType": "address",
          "name": "trader",
          "type": "address"
        }
      ],
      "name": "registerActiveAccount",
      "outputs": [],
      "stateMutability": "nonpayable",
      "type": "function"
    },
    {
      "inputs": [
        {
          "internalType": "address",
          "name": "trader",
          "type": "address"
        },
        {
          "internalType": "int256",
          "name": "shareToRemove",
          "type": "int256"
        },
        {
          "internalType": "int256",
          "name": "cashToReturn",
          "type": "int256"
        }
      ],
      "name": "removeLiquidity",
      "outputs": [],
      "stateMutability": "nonpayable",
      "type": "function"
    },
    {
      "inputs": [],
      "name": "revokeOperator",
      "outputs": [],
      "stateMutability": "nonpayable",
      "type": "function"
    },
    {
      "inputs": [],
      "name": "runLiquidityPool",
      "outputs": [],
      "stateMutability": "nonpayable",
      "type": "function"
    },
    {
      "inputs": [
        {
          "internalType": "uint256",
          "name": "perpetualIndex",
          "type": "uint256"
        }
      ],
      "name": "setClearedState",
      "outputs": [],
      "stateMutability": "nonpayable",
      "type": "function"
    },
    {
      "inputs": [
        {
          "internalType": "address",
          "name": "collateralToken",
          "type": "address"
        },
        {
          "internalType": "uint256",
          "name": "collateralDecimals",
          "type": "uint256"
        }
      ],
      "name": "setCollateralToken",
      "outputs": [],
      "stateMutability": "nonpayable",
      "type": "function"
    },
    {
      "inputs": [
        {
          "internalType": "int256",
          "name": "amount",
          "type": "int256"
        }
      ],
      "name": "setDonatedInsuranceFund",
      "outputs": [],
      "stateMutability": "nonpayable",
      "type": "function"
    },
    {
      "inputs": [
        {
          "internalType": "uint256",
          "name": "perpetualIndex",
          "type": "uint256"
        }
      ],
      "name": "setEmergencyState",
      "outputs": [],
      "stateMutability": "nonpayable",
      "type": "function"
    },
    {
      "inputs": [
        {
          "internalType": "address",
          "name": "creator",
          "type": "address"
        }
      ],
      "name": "setFactory",
      "outputs": [],
      "stateMutability": "nonpayable",
      "type": "function"
    },
    {
      "inputs": [
        {
          "internalType": "uint256",
          "name": "perpetualIndex",
          "type": "uint256"
        },
        {
          "internalType": "int256",
          "name": "fundingRate",
          "type": "int256"
        }
      ],
      "name": "setFundingRate",
      "outputs": [],
      "stateMutability": "nonpayable",
      "type": "function"
    },
    {
      "inputs": [
        {
          "internalType": "uint256",
          "name": "fundingTime",
          "type": "uint256"
        }
      ],
      "name": "setFundingTime",
      "outputs": [],
      "stateMutability": "nonpayable",
      "type": "function"
    },
    {
      "inputs": [
        {
          "internalType": "address",
          "name": "governor",
          "type": "address"
        }
      ],
      "name": "setGovernor",
      "outputs": [],
      "stateMutability": "nonpayable",
      "type": "function"
    },
    {
      "inputs": [
        {
          "internalType": "int256",
          "name": "amount",
          "type": "int256"
        }
      ],
      "name": "setInsuranceFund",
      "outputs": [],
      "stateMutability": "nonpayable",
      "type": "function"
    },
    {
      "inputs": [
        {
          "internalType": "int256",
          "name": "insuranceFundCap",
          "type": "int256"
        }
      ],
      "name": "setInsuranceFundCap",
      "outputs": [],
      "stateMutability": "nonpayable",
      "type": "function"
    },
    {
      "inputs": [
        {
          "internalType": "bytes32",
          "name": "key",
          "type": "bytes32"
        },
        {
          "internalType": "int256",
          "name": "newValue",
          "type": "int256"
        }
      ],
      "name": "setLiquidityPoolParameter",
      "outputs": [],
      "stateMutability": "nonpayable",
      "type": "function"
    },
    {
      "inputs": [
        {
          "internalType": "uint256",
          "name": "perpetualIndex",
          "type": "uint256"
        },
        {
          "internalType": "address",
          "name": "trader",
          "type": "address"
        },
        {
          "internalType": "int256",
          "name": "cash",
          "type": "int256"
        },
        {
          "internalType": "int256",
          "name": "position",
          "type": "int256"
        }
      ],
      "name": "setMarginAccount",
      "outputs": [],
      "stateMutability": "nonpayable",
      "type": "function"
    },
    {
      "inputs": [
        {
          "internalType": "uint256",
          "name": "perpetualIndex",
          "type": "uint256"
        }
      ],
      "name": "setNormalState",
      "outputs": [],
      "stateMutability": "nonpayable",
      "type": "function"
    },
    {
      "inputs": [
        {
          "internalType": "address",
          "name": "operator",
          "type": "address"
        }
      ],
      "name": "setOperator",
      "outputs": [],
      "stateMutability": "nonpayable",
      "type": "function"
    },
    {
      "inputs": [
        {
          "internalType": "uint256",
          "name": "perpetualIndex",
          "type": "uint256"
        },
        {
          "internalType": "bytes32",
          "name": "key",
          "type": "bytes32"
        },
        {
          "internalType": "int256",
          "name": "newValue",
          "type": "int256"
        }
      ],
      "name": "setPerpetualBaseParameter",
      "outputs": [],
      "stateMutability": "nonpayable",
      "type": "function"
    },
    {
      "inputs": [
        {
          "internalType": "uint256",
          "name": "perpetualIndex",
          "type": "uint256"
        },
        {
          "internalType": "bytes32",
          "name": "key",
          "type": "bytes32"
        },
        {
          "internalType": "int256",
          "name": "newValue",
          "type": "int256"
        },
        {
          "internalType": "int256",
          "name": "newMinValue",
          "type": "int256"
        },
        {
          "internalType": "int256",
          "name": "newMaxValue",
          "type": "int256"
        }
      ],
      "name": "setPerpetualRiskParameter",
      "outputs": [],
      "stateMutability": "nonpayable",
      "type": "function"
    },
    {
      "inputs": [
        {
          "internalType": "int256",
          "name": "amount",
          "type": "int256"
        }
      ],
      "name": "setPoolCash",
      "outputs": [],
      "stateMutability": "nonpayable",
      "type": "function"
    },
    {
      "inputs": [
        {
          "internalType": "address",
          "name": "shareToken",
          "type": "address"
        }
      ],
      "name": "setShareToken",
      "outputs": [],
      "stateMutability": "nonpayable",
      "type": "function"
    },
    {
      "inputs": [
        {
          "internalType": "uint256",
          "name": "perpetualIndex",
          "type": "uint256"
        },
        {
          "internalType": "enum PerpetualState",
          "name": "state",
          "type": "uint8"
        }
      ],
      "name": "setState",
      "outputs": [],
      "stateMutability": "nonpayable",
      "type": "function"
    },
    {
      "inputs": [
        {
          "internalType": "uint256",
          "name": "perpetualIndex",
          "type": "uint256"
        },
        {
          "internalType": "int256",
          "name": "amount",
          "type": "int256"
        }
      ],
      "name": "setTotalCollateral",
      "outputs": [],
      "stateMutability": "nonpayable",
      "type": "function"
    },
    {
      "inputs": [
        {
          "internalType": "uint256",
          "name": "perpetualIndex",
          "type": "uint256"
        },
        {
          "internalType": "int256",
          "name": "unitAccumulativeFunding",
          "type": "int256"
        }
      ],
      "name": "setUnitAccumulativeFunding",
      "outputs": [],
      "stateMutability": "nonpayable",
      "type": "function"
    },
    {
      "inputs": [
        {
          "internalType": "uint256",
          "name": "perpetualIndex",
          "type": "uint256"
        },
        {
          "internalType": "address",
          "name": "trader",
          "type": "address"
        }
      ],
      "name": "settle",
      "outputs": [
        {
          "internalType": "int256",
          "name": "marginToReturn",
          "type": "int256"
        }
      ],
      "stateMutability": "nonpayable",
      "type": "function"
    },
    {
      "inputs": [
        {
          "internalType": "uint256",
          "name": "perpetualIndex",
          "type": "uint256"
        }
      ],
      "name": "settleCollateral",
      "outputs": [],
      "stateMutability": "nonpayable",
      "type": "function"
    },
    {
      "inputs": [
        {
          "internalType": "uint256",
          "name": "perpetualIndex",
          "type": "uint256"
        },
        {
          "internalType": "address",
          "name": "trader",
          "type": "address"
        }
      ],
      "name": "settleP",
      "outputs": [],
      "stateMutability": "nonpayable",
      "type": "function"
    },
    {
      "inputs": [
        {
          "internalType": "address",
          "name": "newOperator",
          "type": "address"
        }
      ],
      "name": "transferOperator",
      "outputs": [],
      "stateMutability": "nonpayable",
      "type": "function"
    },
    {
      "inputs": [
        {
          "internalType": "uint256",
          "name": "perpetualIndex",
          "type": "uint256"
        },
        {
          "internalType": "int256",
          "name": "poolMargin",
          "type": "int256"
        }
      ],
      "name": "updateFundingRate",
      "outputs": [],
      "stateMutability": "nonpayable",
      "type": "function"
    },
    {
      "inputs": [],
      "name": "updateFundingRateP",
      "outputs": [],
      "stateMutability": "nonpayable",
      "type": "function"
    },
    {
      "inputs": [
        {
          "internalType": "uint256",
          "name": "perpetualIndex",
          "type": "uint256"
        },
        {
          "internalType": "int256",
          "name": "timeElapsed",
          "type": "int256"
        }
      ],
      "name": "updateFundingState",
      "outputs": [],
      "stateMutability": "nonpayable",
      "type": "function"
    },
    {
      "inputs": [
        {
          "internalType": "uint256",
          "name": "currentTime",
          "type": "uint256"
        }
      ],
      "name": "updateFundingStateP",
      "outputs": [],
      "stateMutability": "nonpayable",
      "type": "function"
    },
    {
      "inputs": [
        {
          "internalType": "int256",
          "name": "penaltyToFund",
          "type": "int256"
        }
      ],
      "name": "updateInsuranceFund",
      "outputs": [
        {
          "internalType": "int256",
          "name": "penaltyToLP",
          "type": "int256"
        }
      ],
      "stateMutability": "nonpayable",
      "type": "function"
    },
    {
      "inputs": [
        {
          "internalType": "uint256",
          "name": "perpetualIndex",
          "type": "uint256"
        },
        {
          "internalType": "bytes32",
          "name": "key",
          "type": "bytes32"
        },
        {
          "internalType": "int256",
          "name": "newValue",
          "type": "int256"
        }
      ],
      "name": "updatePerpetualRiskParameter",
      "outputs": [],
      "stateMutability": "nonpayable",
      "type": "function"
    },
    {
      "inputs": [
        {
          "internalType": "uint256",
          "name": "currentTime",
          "type": "uint256"
        }
      ],
      "name": "updatePrice",
      "outputs": [],
      "stateMutability": "nonpayable",
      "type": "function"
    },
    {
      "inputs": [
        {
          "internalType": "uint256",
          "name": "perpetualIndex",
          "type": "uint256"
        },
        {
          "internalType": "address",
          "name": "trader",
          "type": "address"
        },
        {
          "internalType": "int256",
          "name": "amount",
          "type": "int256"
        }
      ],
      "name": "withdraw",
      "outputs": [
        {
          "internalType": "bool",
          "name": "isLastWithdrawal",
          "type": "bool"
        }
      ],
      "stateMutability": "nonpayable",
      "type": "function"
    },
    {
      "inputs": [
        {
          "internalType": "uint256",
          "name": "perpetualIndex",
          "type": "uint256"
        },
        {
          "internalType": "address",
          "name": "trader",
          "type": "address"
        },
        {
          "internalType": "int256",
          "name": "amount",
          "type": "int256"
        }
      ],
      "name": "withdrawP",
      "outputs": [],
      "stateMutability": "nonpayable",
      "type": "function"
    }
  ],
  "bytecode": "0x608060405234801561001057600080fd5b50613055806100206000396000f3fe608060405234801561001057600080fd5b506004361061052e5760003560e01c806388b34825116102bc578063b080445611610186578063d54e65fb116100e3578063ddc71fa411610097578063efd69b021161007c578063efd69b0214610a88578063f499301814610a90578063f955f8a914610aa35761052e565b8063ddc71fa414610a6d578063e7f43c6814610a805761052e565b8063d7e3966f116100c8578063d7e3966f14610a3f578063d8009be314610a47578063d933936414610a5a5761052e565b8063d54e65fb14610a24578063d7ceb0de14610a2c5761052e565b8063c12b9f421161013a578063c42cf5351161011f578063c42cf535146109eb578063d19c973c146109fe578063d443df0714610a115761052e565b8063c12b9f42146109c5578063c18dd151146109d85761052e565b8063b661abc81161016b578063b661abc814610997578063b674759c146109aa578063bbb364f2146109b25761052e565b8063b08044561461097c578063b3ab15fb146109845761052e565b8063975d47a511610234578063a6d02eef116101e8578063acd63984116101cd578063acd6398414610943578063af0c98e614610956578063afc737d1146109695761052e565b8063a6d02eef1461091d578063a9135235146109305761052e565b80639f52a261116102195780639f52a261146108ef578063a35adf1114610902578063a581171e1461090a5761052e565b8063975d47a5146108bc5780639d7b175a146108dc5761052e565b806392fcbd801161028b578063962d193811610270578063962d193814610883578063965ff5bc1461089657806396c8172e146108a95761052e565b806392fcbd801461085d5780639572518e146108705761052e565b806388b348251461081c5780638d6cc56d1461082f5780638dc7c97714610842578063900470b6146108555761052e565b806344c9af28116103fd578063686e51fd1161037557806378f140ea116103295780637d3ba80f1161030e5780637d3ba80f146107e85780638002a9241461068b578063807b3576146108095761052e565b806378f140ea146107c25780637d39b294146107d55761052e565b80636e7fea7b1161035a5780636e7fea7b1461077c5780636ef05a401461078f5780636fca8b99146107af5761052e565b8063686e51fd1461075657806369b990d3146107695761052e565b80635b116079116103cc5780636189b03d116103b15780636189b03d1461071d57806366415e1714610730578063679dd8ec146107435761052e565b80635b116079146106f75780635bb478081461070a5761052e565b806344c9af281461069e57806349f3ea56146106be5780634f4c7fa1146106d15780635af3d061146106e45761052e565b8063280beddc116104ab57806334e5d8be1161045f5780633859753011610444578063385975301461066557806340f797bb146106785780634293911e1461068b5761052e565b806334e5d8be1461063f578063371773a8146106525761052e565b80633049f6fc116104905780633049f6fc146106065780633172f173146106195780633190e48e1461062c5761052e565b8063280beddc146105e057806329605e77146105f35761052e565b8063158626f71161050257806316f1405d116104e757806316f1405d146105a75780631b3ee0f1146105ba57806325baaae2146105cd5761052e565b8063158626f71461058c578063158b436c146105945761052e565b8062f2e4601461053357806301bc09a6146105515780631208064714610566578063148eba5114610579575b600080fd5b61053b610ab6565b6040516105489190612c7c565b60405180910390f35b61056461055f366004612b38565b610abc565b005b61053b610574366004612ad9565b610b48565b61053b610587366004612ad9565b610b65565b61053b610b7a565b6105646105a2366004612ad9565b610b80565b61053b6105b5366004612ad9565b610b85565b61053b6105c8366004612ad9565b610c2b565b6105646105db366004612ab8565b610c40565b6105646105ee366004612b38565b610cd4565b61056461060136600461296d565b610d2b565b61053b610614366004612ad9565b610db1565b61053b610627366004612b09565b610dc6565b61056461063a366004612ad9565b610df1565b61056461064d366004612b09565b610df6565b61053b610660366004612ad9565b610e4b565b610564610673366004612ad9565b610e60565b61056461068636600461296d565b610eb3565b610564610699366004612b09565b610ee2565b6106b16106ac366004612ad9565b610eff565b6040516105489190612c68565b61053b6106cc366004612ad9565b610f17565b6105646106df366004612a64565b610f6d565b61053b6106f2366004612ad9565b610fc4565b610564610705366004612ad9565b610fdb565b61056461071836600461296d565b61101e565b61056461072b366004612b9a565b61105e565b61056461073e366004612ab8565b611279565b610564610751366004612ad9565b61128e565b610564610764366004612ad9565b6112ec565b610564610777366004612ab8565b6112f1565b61053b61078a366004612ad9565b61130d565b6107a261079d366004612b38565b611327565b6040516105489190612c5d565b6105646107bd366004612ad9565b6113d8565b6107a26107d0366004612b38565b61142d565b6105646107e3366004612ad9565b61148e565b6107fb6107f6366004612b09565b6114d1565b604051610548929190612c85565b610564610817366004612bc5565b611504565b61056461082a366004612b9a565b611685565b61056461083d366004612ad9565b6117f8565b61053b610850366004612ad9565b61184c565b61053b6118a9565b61056461086b366004612ab8565b6118af565b61056461087e366004612ad9565b6118c7565b61053b610891366004612b09565b611925565b6105646108a4366004612bff565b6119db565b6105646108b7366004612a39565b611a0e565b6108cf6108ca366004612ad9565b611a63565b6040516105489190612c49565b6105646108ea366004612ab8565b611b10565b61053b6108fd366004612ad9565b611b82565b6108cf611b97565b610564610918366004612a39565b611ba6565b61056461092b366004612ad9565b611bfb565b6107a261093e366004612b09565b611c00565b610564610951366004612b5e565b611c1b565b6107a26109643660046129a5565b611c4f565b61053b610977366004612ad9565b611ca9565b610564611cbe565b61056461099236600461296d565b611d3b565b6105646109a5366004612ad9565b611d73565b610564611dc6565b6107a26109c0366004612b09565b611e17565b6105646109d3366004612ab8565b611ec6565b61053b6109e6366004612ad9565b611edb565b6105646109f936600461296d565b611ef0565b610564610a0c366004612ad9565b611f1f565b610564610a1f366004612ad9565b611f7d565b610564611f82565b610564610a3a366004612a39565b611fd5565b61053b61202a565b61053b610a55366004612ad9565b612030565b610564610a683660046129e5565b612045565b610564610a7b366004612ab8565b6120f3565b6108cf612153565b610564612162565b610564610a9e366004612ad9565b6121b3565b610564610ab1366004612ab8565b612256565b603c5490565b6040517fa54b4d7800000000000000000000000000000000000000000000000000000000815273__$c7a04b010d7229ccbe3c515e91d1303780$__9063a54b4d7890610b1390603390879087908790600401612ed7565b60006040518083038186803b158015610b2b57600080fd5b505af4158015610b3f573d6000803e3d6000fd5b50505050505050565b6000818152604360205260408120610b5f9061226b565b92915050565b6000908152604360205260409020602f015490565b60455490565b604655565b6040517fccef4f1100000000000000000000000000000000000000000000000000000000815260009073__$c7a04b010d7229ccbe3c515e91d1303780$__9063ccef4f1190610bdb906033908690600401612c85565b60206040518083038186803b158015610bf357600080fd5b505af4158015610c07573d6000803e3d6000fd5b505050506040513d601f19601f82011682018060405250810190610b5f9190612af1565b60009081526043602052604090206003015490565b6000828152604360205260409081902090517f3d1e253000000000000000000000000000000000000000000000000000000000815273__$74e2ba5c0a92ec095c0918ea877fa9275f$__91633d1e253091610ca091908590600401612c85565b60006040518083038186803b158015610cb857600080fd5b505af4158015610ccc573d6000803e3d6000fd5b505050505050565b6040517f028c4ff600000000000000000000000000000000000000000000000000000000815273__$c7a04b010d7229ccbe3c515e91d1303780$__9063028c4ff690610b1390603390879087908790600401612ed7565b6040517f4f28feeb00000000000000000000000000000000000000000000000000000000815273__$c7a04b010d7229ccbe3c515e91d1303780$__90634f28feeb90610d7e906033908590600401612e29565b60006040518083038186803b158015610d9657600080fd5b505af4158015610daa573d6000803e3d6000fd5b5050505050565b6000908152604360205260409020600b015490565b6000828152604360205260408120610de983610de183612299565b8391906122c7565b949350505050565b604455565b6040517fb2f6decc00000000000000000000000000000000000000000000000000000000815273__$c7a04b010d7229ccbe3c515e91d1303780$__9063b2f6decc90610ca09060339086908690600401612eb8565b6000908152604360205260409020602e015490565b6040517f3d92b9a000000000000000000000000000000000000000000000000000000000815273__$c7a04b010d7229ccbe3c515e91d1303780$__90633d92b9a090610d7e906033908590600401612c85565b6037805473ffffffffffffffffffffffffffffffffffffffff19166001600160a01b0392909216919091179055565b6000828152604360205260409020610efa9082612320565b505050565b60009081526043602052604090206001015460ff1690565b6040517f70f546ce00000000000000000000000000000000000000000000000000000000815260009073__$c7a04b010d7229ccbe3c515e91d1303780$__906370f546ce90610bdb906033908690600401612c85565b6040517f2d7966d800000000000000000000000000000000000000000000000000000000815273__$c7a04b010d7229ccbe3c515e91d1303780$__90632d7966d890610b1390603390879087908790600401612e84565b6000818152604360205260408120610b5f90612299565b73__$c7a04b010d7229ccbe3c515e91d1303780$__632ef9dab960338361100061232f565b6040518463ffffffff1660e01b8152600401610d7e93929190612eb8565b603380546001600160a01b0390921662010000027fffffffffffffffffffff0000000000000000000000000000000000000000ffff909216919091179055565b60008381526043602052604090207f696e697469616c4d617267696e526174650000000000000000000000000000008314156110cc5780600c015482126110c05760405162461bcd60e51b81526004016110b790612dcc565b60405180910390fd5b600c8101829055611273565b827f6d61696e74656e616e63654d617267696e52617465000000000000000000000014156111235780600d015482126111175760405162461bcd60e51b81526004016110b790612d38565b600d8101829055611273565b827f6f70657261746f72466565526174650000000000000000000000000000000000141561115757600e8101829055611273565b827f6c70466565526174650000000000000000000000000000000000000000000000141561118b57600f8101829055611273565b827f6c69717569646174696f6e50656e616c7479526174650000000000000000000014156111bf5760118101829055611273565b827f6b6565706572476173526577617264000000000000000000000000000000000014156111f35760128101829055611273565b827f726566657272616c52656261746552617465000000000000000000000000000014156112275760108101829055611273565b827f696e737572616e636546756e6452617465000000000000000000000000000000141561125b5760138101829055611273565b60405162461bcd60e51b81526004016110b790612c93565b50505050565b60009182526043602052604090912060020155565b6000818152604360205260409081902090517fdc28841e00000000000000000000000000000000000000000000000000000000815273__$74e2ba5c0a92ec095c0918ea877fa9275f$__9163dc28841e91610d7e9190600401612c7c565b603c55565b60008281526043602052604090206113099082612333565b5050565b6000818152604360205260408120610b5f9060300161238a565b60008381526043602052604080822090517fc480202a00000000000000000000000000000000000000000000000000000000815273__$74e2ba5c0a92ec095c0918ea877fa9275f$__9163c480202a91611388919087908790600401612e40565b60206040518083038186803b1580156113a057600080fd5b505af41580156113b4573d6000803e3d6000fd5b505050506040513d601f19601f82011682018060405250810190610de99190612a98565b6040517fd767897e00000000000000000000000000000000000000000000000000000000815273__$c7a04b010d7229ccbe3c515e91d1303780$__9063d767897e90610d7e9060339033908690600401612e40565b60008381526043602052604080822090517fd13cfaa900000000000000000000000000000000000000000000000000000000815273__$74e2ba5c0a92ec095c0918ea877fa9275f$__9163d13cfaa991611388919087908790600401612e40565b73__$c7a04b010d7229ccbe3c515e91d1303780$__63d767897e60336114b261232f565b846040518463ffffffff1660e01b8152600401610d7e93929190612e40565b60009182526043602090815260408084206001600160a01b03909316845260349092019052902080546001909101549091565b6000858152604360205260409020691a185b1994dc1c99585960b21b85141561153b5761153660168201858585612395565b610ccc565b847f6f70656e536c697070616765466163746f72000000000000000000000000000014156115725761153660198201858585612395565b847f636c6f7365536c697070616765466163746f720000000000000000000000000014156115a957611536601c8201858585612395565b847f66756e64696e67526174654c696d69740000000000000000000000000000000014156115e057611536601f8201858585612395565b847f616d6d4d61784c6576657261676500000000000000000000000000000000000014156116175761153660258201858585612395565b847f6d6178436c6f73655072696365446973636f756e740000000000000000000000141561164e5761153660288201858585612395565b847f66756e64696e6752617465466163746f72000000000000000000000000000000141561125b5761153660228201858585612395565b6000838152604360205260409020691a185b1994dc1c99585960b21b8314156116ba576116b560168201836123d1565b611273565b827f6f70656e536c697070616765466163746f72000000000000000000000000000014156116ef576116b560198201836123d1565b827f636c6f7365536c697070616765466163746f72000000000000000000000000001415611724576116b5601c8201836123d1565b827f66756e64696e67526174654c696d6974000000000000000000000000000000001415611759576116b5601f8201836123d1565b827f616d6d4d61784c65766572616765000000000000000000000000000000000000141561178e576116b560258201836123d1565b827f6d6178436c6f73655072696365446973636f756e74000000000000000000000014156117c3576116b560288201836123d1565b827f66756e64696e6752617465466163746f72000000000000000000000000000000141561125b576116b560228201836123d1565b6040517f2621d4c800000000000000000000000000000000000000000000000000000000815273__$c7a04b010d7229ccbe3c515e91d1303780$__90632621d4c890610d7e90603390600090600401612ea8565b60008181526043602052604080822090517f84da931000000000000000000000000000000000000000000000000000000000815273__$74e2ba5c0a92ec095c0918ea877fa9275f$__916384da931091610bdb9190600401612c7c565b603d5490565b60008281526043602052604090206113099082612409565b6000818152604360205260409081902090517f39d281eb00000000000000000000000000000000000000000000000000000000815273__$74e2ba5c0a92ec095c0918ea877fa9275f$__916339d281eb91610d7e9190600401612c7c565b60008281526043602052604080822090517f49a837ae00000000000000000000000000000000000000000000000000000000815273__$74e2ba5c0a92ec095c0918ea877fa9275f$__916349a837ae9161198491908690600401612e29565b60206040518083038186803b15801561199c57600080fd5b505af41580156119b0573d6000803e3d6000fd5b505050506040513d601f19601f820116820180604052508101906119d49190612af1565b9392505050565b600082815260436020526040902060019081018054839260ff1990911690836004811115611a0557fe5b02179055505050565b6040517f83a1eaa800000000000000000000000000000000000000000000000000000000815273__$c7a04b010d7229ccbe3c515e91d1303780$__906383a1eaa890610ca09060339086908690600401612e40565b60008181526043602052604080822090517fd87384fe00000000000000000000000000000000000000000000000000000000815273__$74e2ba5c0a92ec095c0918ea877fa9275f$__9163d87384fe91611ac09190600401612c7c565b60206040518083038186803b158015611ad857600080fd5b505af4158015611aec573d6000803e3d6000fd5b505050506040513d601f19601f82011682018060405250810190610b5f9190612989565b817f6973466173744372656174696f6e456e61626c656400000000000000000000001415611b50576033805461ff00191682151561010002179055611309565b817f696e737572616e636546756e6443617000000000000000000000000000000000141561125b576044819055611309565b6000908152604360205260409020600a015490565b6035546001600160a01b031690565b6040517fdcaf674900000000000000000000000000000000000000000000000000000000815273__$c7a04b010d7229ccbe3c515e91d1303780$__9063dcaf674990610ca09060339086908690600401612e40565b604555565b60008281526043602052604081206119d49060300183612445565b60009384526043602090815260408086206001600160a01b0390951686526034909401905291909220918255600190910155565b6040517fe57d06a800000000000000000000000000000000000000000000000000000000815260009073__$c7a04b010d7229ccbe3c515e91d1303780$__9063e57d06a89061138890603390889088908890600401612e5f565b60009081526043602052604090206002015490565b6040517f4e74d93000000000000000000000000000000000000000000000000000000000815273__$c7a04b010d7229ccbe3c515e91d1303780$__90634e74d93090611d0f90603390600401612c7c565b60006040518083038186803b158015611d2757600080fd5b505af4158015611273573d6000803e3d6000fd5b6034805473ffffffffffffffffffffffffffffffffffffffff19166001600160a01b039290921691909117905542620d2f0001603f55565b6040517f960e38ae00000000000000000000000000000000000000000000000000000000815273__$c7a04b010d7229ccbe3c515e91d1303780$__9063960e38ae90610d7e906033908590600401612c85565b6040517fbdc5e84900000000000000000000000000000000000000000000000000000000815273__$c7a04b010d7229ccbe3c515e91d1303780$__9063bdc5e84990611d0f90603390600401612c7c565b60008281526043602052604080822090517f5e91c9f800000000000000000000000000000000000000000000000000000000815273__$74e2ba5c0a92ec095c0918ea877fa9275f$__91635e91c9f891611e7691908690600401612e29565b60206040518083038186803b158015611e8e57600080fd5b505af4158015611ea2573d6000803e3d6000fd5b505050506040513d601f19601f820116820180604052508101906119d49190612a98565b600091825260436020526040909120600a0155565b6000908152604360205260409020602c015490565b6036805473ffffffffffffffffffffffffffffffffffffffff19166001600160a01b0392909216919091179055565b6000818152604360205260409081902090517fc94606dd00000000000000000000000000000000000000000000000000000000815273__$74e2ba5c0a92ec095c0918ea877fa9275f$__9163c94606dd91610d7e9190600401612c7c565b603d55565b6040517f299cbfda00000000000000000000000000000000000000000000000000000000815273__$c7a04b010d7229ccbe3c515e91d1303780$__9063299cbfda90611d0f906033903390600401612e29565b6040517f5fc2e39200000000000000000000000000000000000000000000000000000000815273__$aa0386c1927da8134897d9c67341209872$__90635fc2e39290610ca09060339086908690600401612e40565b60465490565b6000908152604360205260409020602d015490565b6042546000818152604360205260409081902090517f445ab49400000000000000000000000000000000000000000000000000000000815273__$74e2ba5c0a92ec095c0918ea877fa9275f$__9063445ab494906120b390849086908a908a908a9081908190600401612efb565b60006040518083038186803b1580156120cb57600080fd5b505af41580156120df573d6000803e3d6000fd5b505060428054600101905550505050505050565b6000828152604360205260409081902090517f8f27c08f00000000000000000000000000000000000000000000000000000000815273__$74e2ba5c0a92ec095c0918ea877fa9275f$__91638f27c08f91610ca091908590600401612c85565b6034546001600160a01b031690565b6040517f990d205200000000000000000000000000000000000000000000000000000000815273__$c7a04b010d7229ccbe3c515e91d1303780$__9063990d205290611d0f90603390600401612c7c565b6040517fcbf231c100000000000000000000000000000000000000000000000000000000815273__$c7a04b010d7229ccbe3c515e91d1303780$__9063cbf231c190612206906033908590600401612c85565b60206040518083038186803b15801561221e57600080fd5b505af4158015612232573d6000803e3d6000fd5b505050506040513d601f19601f820116820180604052508101906113099190612af1565b600091825260436020526040909120600b0155565b60006002600183015460ff16600481111561228257fe5b14612291576008820154610b5f565b506004015490565b60006002600183015460ff1660048111156122b057fe5b146122bf576008820154610b5f565b506006015490565b60006122d484848461245a565b905060008113156123165760006122eb8585612497565b156122fa5784602f0154612300565b84602e01545b905061230e828260016124b8565b9150506119d4565b5060009392505050565b60006119d460308401836124d6565b3390565b60008112156123545760405162461bcd60e51b81526004016110b790612cca565b600282015461236390826124eb565b60028301819055600013156113095760405162461bcd60e51b81526004016110b790612d95565b6000610b5f82612550565b8183121580156123a55750808313155b6123c15760405162461bcd60e51b81526004016110b790612d01565b9183556001830155600290910155565b816001015481121580156123e9575081600201548113155b6124055760405162461bcd60e51b81526004016110b790612d01565b9055565b600081121561242a5760405162461bcd60e51b81526004016110b790612cca565b60028201546124399082612554565b82600201819055505050565b60006119d4836001600160a01b0384166125b9565b6000610de961246985856125d1565b6001600160a01b0385166000908152603487016020526040902060010154612491908561260b565b90612554565b6001600160a01b031660009081526034909101602052604090206001015490565b6000610de96124c78585612640565b670de0b6b3a7640000846126e9565b60006119d4836001600160a01b0384166127c9565b60008183038183128015906125005750838113155b80612515575060008312801561251557508381135b6119d45760405162461bcd60e51b8152600401808060200182810382526024815260200180612ffc6024913960400191505060405180910390fd5b5490565b60008282018183128015906125695750838112155b8061257e575060008312801561257e57508381125b6119d45760405162461bcd60e51b8152600401808060200182810382526021815260200180612f936021913960400191505060405180910390fd5b60009081526001919091016020526040902054151590565b6001600160a01b03811660009081526034830160205260408120600b8401546001820154610de991612603919061260b565b8254906124eb565b6000670de0b6b3a76400006126316126238585612640565b670de0b6b3a7640000612813565b8161263857fe5b059392505050565b60008261264f57506000610b5f565b826000191480156126635750600160ff1b82145b1561269f5760405162461bcd60e51b8152600401808060200182810382526027815260200180612fd56027913960400191505060405180910390fd5b828202828482816126ac57fe5b05146119d45760405162461bcd60e51b8152600401808060200182810382526027815260200180612fd56027913960400191505060405180910390fd5b60008261273d576040805162461bcd60e51b815260206004820152601060248201527f6469766973696f6e206279207a65726f00000000000000000000000000000000604482015290519081900360640190fd5b6127478484612892565b905082848161275257fe5b0761275c576119d4565b6000612768858561294a565b9050600083600181111561277857fe5b1480156127825750805b1561279557612792826001612554565b91505b60018360018111156127a357fe5b1480156127ae575080155b156127c1576127be8260016124eb565b91505b509392505050565b60006127d583836125b9565b61280b57508154600181810184556000848152602080822090930184905584548482528286019093526040902091909155610b5f565b506000610b5f565b6000808213612869576040805162461bcd60e51b815260206004820152601f60248201527f726f756e6448616c665570206f6e6c7920737570706f7274732079203e203000604482015290519081900360640190fd5b600083126128855761287e8360028405612554565b9050610b5f565b6119d483600284056124eb565b6000816128e6576040805162461bcd60e51b815260206004820181905260248201527f5369676e6564536166654d6174683a206469766973696f6e206279207a65726f604482015290519081900360640190fd5b816000191480156128fa5750600160ff1b83145b156129365760405162461bcd60e51b8152600401808060200182810382526021815260200180612fb46021913960400191505060405180910390fd5b600082848161294157fe5b05949350505050565b6000821580612957575081155b1561296457506001610b5f565b501860ff1d1590565b60006020828403121561297e578081fd5b81356119d481612f7a565b60006020828403121561299a578081fd5b81516119d481612f7a565b6000806000606084860312156129b9578182fd5b83356129c481612f7a565b925060208401356129d481612f7a565b929592945050506040919091013590565b60008060006102408085870312156129fb578384fd5b8435612a0681612f7a565b9350610140850186811115612a19578384fd5b602086019350868287011115612a2d578283fd5b80925050509250925092565b60008060408385031215612a4b578182fd5b8235612a5681612f7a565b946020939093013593505050565b600080600060608486031215612a78578283fd5b8335612a8381612f7a565b95602085013595506040909401359392505050565b600060208284031215612aa9578081fd5b815180151581146119d4578182fd5b60008060408385031215612aca578182fd5b50508035926020909101359150565b600060208284031215612aea578081fd5b5035919050565b600060208284031215612b02578081fd5b5051919050565b60008060408385031215612b1b578182fd5b823591506020830135612b2d81612f7a565b809150509250929050565b600080600060608486031215612b4c578283fd5b8335925060208401356129d481612f7a565b60008060008060808587031215612b73578182fd5b843593506020850135612b8581612f7a565b93969395505050506040820135916060013590565b600080600060608486031215612bae578081fd5b505081359360208301359350604090920135919050565b600080600080600060a08688031215612bdc578283fd5b505083359560208501359550604085013594606081013594506080013592509050565b60008060408385031215612c11578182fd5b82359150602083013560058110612b2d578182fd5b8060005b6008811015611273578135845260209384019390910190600101612c2a565b6001600160a01b0391909116815260200190565b901515815260200190565b6020810160058310612c7657fe5b91905290565b90815260200190565b918252602082015260400190565b6020808252600d908201527f6b6579206e6f7420666f756e6400000000000000000000000000000000000000604082015260600190565b60208082526012908201527f616d6f756e74206973206e656761746976650000000000000000000000000000604082015260600190565b60208082526012908201527f76616c7565206f7574206f662072616e67650000000000000000000000000000604082015260600190565b60208082526031908201527f696e6372656173696e67206d61696e74656e616e6365206d617267696e20726160408201527f7465206973206e6f7420616c6c6f776564000000000000000000000000000000606082015260800190565b60208082526016908201527f636f6c6c61746572616c206973206e6567617469766500000000000000000000604082015260600190565b6020808252602d908201527f696e6372656173696e6720696e697469616c206d617267696e2072617465206960408201527f73206e6f7420616c6c6f77656400000000000000000000000000000000000000606082015260800190565b9182526001600160a01b0316602082015260400190565b9283526001600160a01b03919091166020830152604082015260600190565b9384526001600160a01b03928316602085015291166040830152606082015260800190565b9384526001600160a01b039290921660208401526040830152606082015260800190565b9182521515602082015260400190565b92835260208301919091526001600160a01b0316604082015260600190565b93845260208401929092526001600160a01b03166040830152606082015260800190565b87815260208082018890526001600160a01b0387166040830152610480820190606083018760005b6009811015612f4057813583529183019190830190600101612f23565b50505050612f52610180830186612c26565b612f60610280830185612c26565b612f6e610380830184612c26565b98975050505050505050565b6001600160a01b0381168114612f8f57600080fd5b5056fe5369676e6564536166654d6174683a206164646974696f6e206f766572666c6f775369676e6564536166654d6174683a206469766973696f6e206f766572666c6f775369676e6564536166654d6174683a206d756c7469706c69636174696f6e206f766572666c6f775369676e6564536166654d6174683a207375627472616374696f6e206f766572666c6f77a2646970667358221220963a7441243a42f57dcd65b0fac8e157f27a74ceb9763f0c9feb32e5589aef6c64736f6c63430007040033",
  "linkReferences": {
    "contracts/module/CollateralModule.sol": {
      "CollateralModule": [
        {
          "length": 20,
          "start": 8221
        }
      ]
    },
    "contracts/module/LiquidityPoolModule.sol": {
      "LiquidityPoolModule": [
        {
          "length": 20,
          "start": 2820
        },
        {
          "length": 20,
          "start": 3024
        },
        {
          "length": 20,
          "start": 3356
        },
        {
          "length": 20,
          "start": 3443
        },
        {
          "length": 20,
          "start": 3646
        },
        {
          "length": 20,
          "start": 3752
        },
        {
          "length": 20,
          "start": 3938
        },
        {
          "length": 20,
          "start": 4021
        },
        {
          "length": 20,
          "start": 4093
        },
        {
          "length": 20,
          "start": 5152
        },
        {
          "length": 20,
          "start": 5296
        },
        {
          "length": 20,
          "start": 6208
        },
        {
          "length": 20,
          "start": 6742
        },
        {
          "length": 20,
          "start": 7150
        },
        {
          "length": 20,
          "start": 7322
        },
        {
          "length": 20,
          "start": 7430
        },
        {
          "length": 20,
          "start": 7611
        },
        {
          "length": 20,
          "start": 7694
        },
        {
          "length": 20,
          "start": 8138
        },
        {
          "length": 20,
          "start": 8618
        },
        {
          "length": 20,
          "start": 8699
        }
      ]
    },
    "contracts/module/PerpetualModule.sol": {
      "PerpetualModule": [
        {
          "length": 20,
          "start": 3223
        },
        {
          "length": 20,
          "start": 4837
        },
        {
          "length": 20,
          "start": 4989
        },
        {
          "length": 20,
          "start": 5251
        },
        {
          "length": 20,
          "start": 6306
        },
        {
          "length": 20,
          "start": 6430
        },
        {
          "length": 20,
          "start": 6523
        },
        {
          "length": 20,
          "start": 6841
        },
        {
          "length": 20,
          "start": 7789
        },
        {
          "length": 20,
          "start": 8054
        },
        {
          "length": 20,
          "start": 8351
        },
        {
          "length": 20,
          "start": 8522
        }
      ]
    }
  },
  "deployedLinkReferences": {
    "contracts/module/CollateralModule.sol": {
      "CollateralModule": [
        {
          "length": 20,
          "start": 8189
        }
      ]
    },
    "contracts/module/LiquidityPoolModule.sol": {
      "LiquidityPoolModule": [
        {
          "length": 20,
          "start": 2788
        },
        {
          "length": 20,
          "start": 2992
        },
        {
          "length": 20,
          "start": 3324
        },
        {
          "length": 20,
          "start": 3411
        },
        {
          "length": 20,
          "start": 3614
        },
        {
          "length": 20,
          "start": 3720
        },
        {
          "length": 20,
          "start": 3906
        },
        {
          "length": 20,
          "start": 3989
        },
        {
          "length": 20,
          "start": 4061
        },
        {
          "length": 20,
          "start": 5120
        },
        {
          "length": 20,
          "start": 5264
        },
        {
          "length": 20,
          "start": 6176
        },
        {
          "length": 20,
          "start": 6710
        },
        {
          "length": 20,
          "start": 7118
        },
        {
          "length": 20,
          "start": 7290
        },
        {
          "length": 20,
          "start": 7398
        },
        {
          "length": 20,
          "start": 7579
        },
        {
          "length": 20,
          "start": 7662
        },
        {
          "length": 20,
          "start": 8106
        },
        {
          "length": 20,
          "start": 8586
        },
        {
          "length": 20,
          "start": 8667
        }
      ]
    },
    "contracts/module/PerpetualModule.sol": {
      "PerpetualModule": [
        {
          "length": 20,
          "start": 3191
        },
        {
          "length": 20,
          "start": 4805
        },
        {
          "length": 20,
          "start": 4957
        },
        {
          "length": 20,
          "start": 5219
        },
        {
          "length": 20,
          "start": 6274
        },
        {
          "length": 20,
          "start": 6398
        },
        {
          "length": 20,
          "start": 6491
        },
        {
          "length": 20,
          "start": 6809
        },
        {
          "length": 20,
          "start": 7757
        },
        {
          "length": 20,
          "start": 8022
        },
        {
          "length": 20,
          "start": 8319
        },
        {
          "length": 20,
          "start": 8490
        }
      ]
    }
  }
}