{
  "_format": "hh-sol-artifact-1",
  "contractName": "TestAccessControl",
  "sourceName": "contracts/test/TestAccessControl.sol",
  "abi": [
    {
      "anonymous": false,
      "inputs": [
        {
          "indexed": true,
          "internalType": "address",
          "name": "grantor",
          "type": "address"
        },
        {
          "indexed": true,
          "internalType": "address",
          "name": "grantee",
          "type": "address"
        },
        {
          "indexed": false,
          "internalType": "uint256",
          "name": "privilege",
          "type": "uint256"
        }
      ],
      "name": "GrantPrivilege",
      "type": "event"
    },
    {
      "anonymous": false,
      "inputs": [
        {
          "indexed": true,
          "internalType": "address",
          "name": "grantor",
          "type": "address"
        },
        {
          "indexed": true,
          "internalType": "address",
          "name": "grantee",
          "type": "address"
        },
        {
          "indexed": false,
          "internalType": "uint256",
          "name": "privilege",
          "type": "uint256"
        }
      ],
      "name": "RevokePrivilege",
      "type": "event"
    },
    {
      "inputs": [
        {
          "internalType": "address",
          "name": "trader",
          "type": "address"
        }
      ],
      "name": "deposit",
      "outputs": [],
      "stateMutability": "nonpayable",
      "type": "function"
    },
    {
      "inputs": [
        {
          "internalType": "address",
          "name": "grantee",
          "type": "address"
        },
        {
          "internalType": "uint256",
          "name": "privilege",
          "type": "uint256"
        }
      ],
      "name": "grantPrivilege",
      "outputs": [],
      "stateMutability": "nonpayable",
      "type": "function"
    },
    {
      "inputs": [
        {
          "internalType": "address",
          "name": "grantor",
          "type": "address"
        },
        {
          "internalType": "address",
          "name": "grantee",
          "type": "address"
        },
        {
          "internalType": "uint256",
          "name": "privilege",
          "type": "uint256"
        }
      ],
      "name": "isGranted",
      "outputs": [
        {
          "internalType": "bool",
          "name": "",
          "type": "bool"
        }
      ],
      "stateMutability": "view",
      "type": "function"
    },
    {
      "inputs": [
        {
          "internalType": "address",
          "name": "account",
          "type": "address"
        },
        {
          "internalType": "address",
          "name": "trader",
          "type": "address"
        }
      ],
      "name": "privileges",
      "outputs": [
        {
          "internalType": "uint256",
          "name": "",
          "type": "uint256"
        }
      ],
      "stateMutability": "view",
      "type": "function"
    },
    {
      "inputs": [
        {
          "internalType": "address",
          "name": "grantee",
          "type": "address"
        },
        {
          "internalType": "uint256",
          "name": "privilege",
          "type": "uint256"
        }
      ],
      "name": "revokePrivilege",
      "outputs": [],
      "stateMutability": "nonpayable",
      "type": "function"
    },
    {
      "inputs": [
        {
          "internalType": "address",
          "name": "trader",
          "type": "address"
        }
      ],
      "name": "trade",
      "outputs": [],
      "stateMutability": "nonpayable",
      "type": "function"
    },
    {
      "inputs": [
        {
          "internalType": "address",
          "name": "trader",
          "type": "address"
        }
      ],
      "name": "withdraw",
      "outputs": [],
      "stateMutability": "nonpayable",
      "type": "function"
    }
  ],
  "bytecode": "0x608060405234801561001057600080fd5b50610848806100206000396000f3fe608060405234801561001057600080fd5b506004361061007d5760003560e01c8063affe5bed1161005b578063affe5bed146100fc578063c2f3da1d14610128578063e5f52de314610172578063f340fa01146101b25761007d565b8063056ba05614610082578063471a4bc6146100aa57806351cff8d9146100d6575b600080fd5b6100a86004803603602081101561009857600080fd5b50356001600160a01b03166101d8565b005b6100a8600480360360408110156100c057600080fd5b506001600160a01b03813516906020013561024e565b6100a8600480360360208110156100ec57600080fd5b50356001600160a01b03166103b1565b6100a86004803603604081101561011257600080fd5b506001600160a01b0381351690602001356103d1565b61015e6004803603606081101561013e57600080fd5b506001600160a01b0381358116916020810135909116906040013561050d565b604080519115158252519081900360200190f35b6101a06004803603604081101561018857600080fd5b506001600160a01b0381358116916020013516610596565b60408051918252519081900360200190f35b6100a8600480360360208110156101c857600080fd5b50356001600160a01b03166105b8565b806004336001600160a01b03831614806101f857506101f882338361050d565b610249576040805162461bcd60e51b815260206004820152601360248201527f6f7065726174696f6e20666f7262696464656e00000000000000000000000000604482015290519081900360640190fd5b505050565b610257816105d8565b6102a8576040805162461bcd60e51b815260206004820152601460248201527f70726976696c65676520697320696e76616c6964000000000000000000000000604482015290519081900360640190fd5b6102b333838361050d565b15610305576040805162461bcd60e51b815260206004820152601c60248201527f70726976696c65676520697320616c7265616479206772616e74656400000000604482015290519081900360640190fd5b33600090815260208190526040812061031e90846105f0565b610329576000610342565b3360009081526020819052604090206103429084610611565b905061034e8183610653565b33600090815260208190526040902090915061036b908483610657565b506040805183815290516001600160a01b0385169133917fb542e9113bf4db53a191bfb69cafe0c1d0647ca432aa8a6d36b6f9b04ec5473b9181900360200190a3505050565b806002336001600160a01b03831614806101f857506101f882338361050d565b6103da816105d8565b61042b576040805162461bcd60e51b815260206004820152601460248201527f70726976696c65676520697320696e76616c6964000000000000000000000000604482015290519081900360640190fd5b61043633838361050d565b610487576040805162461bcd60e51b815260206004820152601860248201527f70726976696c656765206973206e6f74206772616e7465640000000000000000604482015290519081900360640190fd5b3360009081526020819052604090206104c89083906104b29084906104ac9084610611565b90610733565b3360009081526020819052604090209190610657565b506040805182815290516001600160a01b0384169133917f2e910d80b3ddddaff95f2e39c7c226987cd86d56b81c7352b8393efe6f0914709181900360200190a35050565b6000610518826105d8565b6105245750600061058f565b6001600160a01b038416600090815260208190526040902061054690846105f0565b6105525750600061058f565b6001600160a01b03841660009081526020819052604081206105749085610611565b905060008111801561058b575061058b8184610738565b9150505b9392505050565b6001600160a01b038216600090815260208190526040812061058f9083610611565b806001336001600160a01b03831614806101f857506101f882338361050d565b600080821180156105ea5750600f8211155b92915050565b6001600160a01b031660009081526001919091016020526040902054151590565b600061058f83836040518060400160405280601e81526020017f456e756d657261626c654d61703a206e6f6e6578697374656e74206b6579000081525061073e565b1790565b6001600160a01b0382166000908152600184016020526040812054806107015750506040805180820182526001600160a01b038481168083526020808401868152885460018082018b5560008b81528481209751600290930290970180547fffffffffffffffffffffffff0000000000000000000000000000000000000000169290961691909117855590519381019390935587549184528288019052929091209190915561058f565b8285600001600183038154811061071457fe5b906000526020600020906002020160010181905550600091505061058f565b191690565b16151590565b6001600160a01b038216600090815260018401602052604081205482816107e35760405162461bcd60e51b81526004018080602001828103825283818151815260200191508051906020019080838360005b838110156107a8578181015183820152602001610790565b50505050905090810190601f1680156107d55780820380516001836020036101000a031916815260200191505b509250505060405180910390fd5b508460000160018203815481106107f657fe5b906000526020600020906002020160010154915050939250505056fea2646970667358221220cf6987c79b5a27850346f84f9c664c3b2b932beb661a6819f744f004c66a634b64736f6c63430007040033",
  "linkReferences": {},
  "deployedLinkReferences": {}
}