{
  "_format": "hh-sol-artifact-1",
  "contractName": "TestPerpetual",
  "sourceName": "contracts/test/TestPerpetual.sol",
  "abi": [
    {
      "inputs": [
        {
          "internalType": "uint256",
          "name": "perpetualIndex",
          "type": "uint256"
        },
        {
          "internalType": "address",
          "name": "trader",
          "type": "address"
        }
      ],
      "name": "clear",
      "outputs": [
        {
          "internalType": "bool",
          "name": "isAllCleared",
          "type": "bool"
        }
      ],
      "stateMutability": "nonpayable",
      "type": "function"
    },
    {
      "inputs": [
        {
          "internalType": "address",
          "name": "oracle",
          "type": "address"
        },
        {
          "internalType": "int256[9]",
          "name": "baseParams",
          "type": "int256[9]"
        },
        {
          "internalType": "int256[8]",
          "name": "riskParams",
          "type": "int256[8]"
        }
      ],
      "name": "createPerpetual",
      "outputs": [],
      "stateMutability": "nonpayable",
      "type": "function"
    },
    {
      "inputs": [
        {
          "internalType": "uint256",
          "name": "perpetualIndex",
          "type": "uint256"
        },
        {
          "internalType": "int256",
          "name": "amount",
          "type": "int256"
        }
      ],
      "name": "decreaseTotalCollateral",
      "outputs": [],
      "stateMutability": "nonpayable",
      "type": "function"
    },
    {
      "inputs": [
        {
          "internalType": "uint256",
          "name": "perpetualIndex",
          "type": "uint256"
        },
        {
          "internalType": "address",
          "name": "trader",
          "type": "address"
        },
        {
          "internalType": "int256",
          "name": "amount",
          "type": "int256"
        }
      ],
      "name": "deposit",
      "outputs": [
        {
          "internalType": "bool",
          "name": "isInitialDeposit",
          "type": "bool"
        }
      ],
      "stateMutability": "nonpayable",
      "type": "function"
    },
    {
      "inputs": [
        {
          "internalType": "uint256",
          "name": "perpetualIndex",
          "type": "uint256"
        },
        {
          "internalType": "address",
          "name": "trader",
          "type": "address"
        }
      ],
      "name": "deregisterActiveAccount",
      "outputs": [],
      "stateMutability": "nonpayable",
      "type": "function"
    },
    {
      "inputs": [
        {
          "internalType": "uint256",
          "name": "perpetualIndex",
          "type": "uint256"
        }
      ],
      "name": "getActiveUserCount",
      "outputs": [
        {
          "internalType": "uint256",
          "name": "count",
          "type": "uint256"
        }
      ],
      "stateMutability": "view",
      "type": "function"
    },
    {
      "inputs": [
        {
          "internalType": "uint256",
          "name": "perpetualIndex",
          "type": "uint256"
        }
      ],
      "name": "getFundingRate",
      "outputs": [
        {
          "internalType": "int256",
          "name": "",
          "type": "int256"
        }
      ],
      "stateMutability": "view",
      "type": "function"
    },
    {
      "inputs": [
        {
          "internalType": "uint256",
          "name": "perpetualIndex",
          "type": "uint256"
        }
      ],
      "name": "getIndexPrice",
      "outputs": [
        {
          "internalType": "int256",
          "name": "price",
          "type": "int256"
        }
      ],
      "stateMutability": "view",
      "type": "function"
    },
    {
      "inputs": [
        {
          "internalType": "uint256",
          "name": "perpetualIndex",
          "type": "uint256"
        },
        {
          "internalType": "address",
          "name": "trader",
          "type": "address"
        }
      ],
      "name": "getMarginAccount",
      "outputs": [
        {
          "internalType": "int256",
          "name": "cash",
          "type": "int256"
        },
        {
          "internalType": "int256",
          "name": "position",
          "type": "int256"
        }
      ],
      "stateMutability": "view",
      "type": "function"
    },
    {
      "inputs": [
        {
          "internalType": "uint256",
          "name": "perpetualIndex",
          "type": "uint256"
        }
      ],
      "name": "getMarkPrice",
      "outputs": [
        {
          "internalType": "int256",
          "name": "price",
          "type": "int256"
        }
      ],
      "stateMutability": "view",
      "type": "function"
    },
    {
      "inputs": [
        {
          "internalType": "uint256",
          "name": "perpetualIndex",
          "type": "uint256"
        }
      ],
      "name": "getNextActiveAccount",
      "outputs": [
        {
          "internalType": "address",
          "name": "account",
          "type": "address"
        }
      ],
      "stateMutability": "view",
      "type": "function"
    },
    {
      "inputs": [
        {
          "internalType": "uint256",
          "name": "perpetualIndex",
          "type": "uint256"
        }
      ],
      "name": "getOpenInterest",
      "outputs": [
        {
          "internalType": "int256",
          "name": "",
          "type": "int256"
        }
      ],
      "stateMutability": "view",
      "type": "function"
    },
    {
      "inputs": [
        {
          "internalType": "uint256",
          "name": "perpetualIndex",
          "type": "uint256"
        }
      ],
      "name": "getRebalanceMargin",
      "outputs": [
        {
          "internalType": "int256",
          "name": "marginToRebalance",
          "type": "int256"
        }
      ],
      "stateMutability": "view",
      "type": "function"
    },
    {
      "inputs": [
        {
          "internalType": "uint256",
          "name": "perpetualIndex",
          "type": "uint256"
        }
      ],
      "name": "getRedemptionRateWithPosition",
      "outputs": [
        {
          "internalType": "int256",
          "name": "",
          "type": "int256"
        }
      ],
      "stateMutability": "view",
      "type": "function"
    },
    {
      "inputs": [
        {
          "internalType": "uint256",
          "name": "perpetualIndex",
          "type": "uint256"
        }
      ],
      "name": "getRedemptionRateWithoutPosition",
      "outputs": [
        {
          "internalType": "int256",
          "name": "",
          "type": "int256"
        }
      ],
      "stateMutability": "view",
      "type": "function"
    },
    {
      "inputs": [
        {
          "internalType": "uint256",
          "name": "perpetualIndex",
          "type": "uint256"
        },
        {
          "internalType": "address",
          "name": "trader",
          "type": "address"
        }
      ],
      "name": "getSettleableMargin",
      "outputs": [
        {
          "internalType": "int256",
          "name": "margin",
          "type": "int256"
        }
      ],
      "stateMutability": "view",
      "type": "function"
    },
    {
      "inputs": [
        {
          "internalType": "uint256",
          "name": "perpetualIndex",
          "type": "uint256"
        }
      ],
      "name": "getState",
      "outputs": [
        {
          "internalType": "enum PerpetualState",
          "name": "",
          "type": "uint8"
        }
      ],
      "stateMutability": "view",
      "type": "function"
    },
    {
      "inputs": [
        {
          "internalType": "uint256",
          "name": "perpetualIndex",
          "type": "uint256"
        }
      ],
      "name": "getTotalCollateral",
      "outputs": [
        {
          "internalType": "int256",
          "name": "",
          "type": "int256"
        }
      ],
      "stateMutability": "view",
      "type": "function"
    },
    {
      "inputs": [
        {
          "internalType": "uint256",
          "name": "perpetualIndex",
          "type": "uint256"
        }
      ],
      "name": "getTotalMarginWithPosition",
      "outputs": [
        {
          "internalType": "int256",
          "name": "",
          "type": "int256"
        }
      ],
      "stateMutability": "view",
      "type": "function"
    },
    {
      "inputs": [
        {
          "internalType": "uint256",
          "name": "perpetualIndex",
          "type": "uint256"
        }
      ],
      "name": "getTotalMarginWithoutPosition",
      "outputs": [
        {
          "internalType": "int256",
          "name": "",
          "type": "int256"
        }
      ],
      "stateMutability": "view",
      "type": "function"
    },
    {
      "inputs": [
        {
          "internalType": "uint256",
          "name": "perpetualIndex",
          "type": "uint256"
        }
      ],
      "name": "getUnitAccumulativeFunding",
      "outputs": [
        {
          "internalType": "int256",
          "name": "unitAccumulativeFunding",
          "type": "int256"
        }
      ],
      "stateMutability": "view",
      "type": "function"
    },
    {
      "inputs": [
        {
          "internalType": "uint256",
          "name": "perpetualIndex",
          "type": "uint256"
        },
        {
          "internalType": "int256",
          "name": "amount",
          "type": "int256"
        }
      ],
      "name": "increaseTotalCollateral",
      "outputs": [],
      "stateMutability": "nonpayable",
      "type": "function"
    },
    {
      "inputs": [
        {
          "internalType": "uint256",
          "name": "perpetualIndex",
          "type": "uint256"
        },
        {
          "internalType": "address",
          "name": "trader",
          "type": "address"
        }
      ],
      "name": "isTraderRegistered",
      "outputs": [
        {
          "internalType": "bool",
          "name": "isRegistered",
          "type": "bool"
        }
      ],
      "stateMutability": "view",
      "type": "function"
    },
    {
      "inputs": [
        {
          "internalType": "uint256",
          "name": "perpetualIndex",
          "type": "uint256"
        },
        {
          "internalType": "address",
          "name": "trader",
          "type": "address"
        }
      ],
      "name": "registerActiveAccount",
      "outputs": [],
      "stateMutability": "nonpayable",
      "type": "function"
    },
    {
      "inputs": [
        {
          "internalType": "uint256",
          "name": "perpetualIndex",
          "type": "uint256"
        }
      ],
      "name": "setClearedState",
      "outputs": [],
      "stateMutability": "nonpayable",
      "type": "function"
    },
    {
      "inputs": [
        {
          "internalType": "uint256",
          "name": "perpetualIndex",
          "type": "uint256"
        }
      ],
      "name": "setEmergencyState",
      "outputs": [],
      "stateMutability": "nonpayable",
      "type": "function"
    },
    {
      "inputs": [
        {
          "internalType": "uint256",
          "name": "perpetualIndex",
          "type": "uint256"
        },
        {
          "internalType": "int256",
          "name": "fundingRate",
          "type": "int256"
        }
      ],
      "name": "setFundingRate",
      "outputs": [],
      "stateMutability": "nonpayable",
      "type": "function"
    },
    {
      "inputs": [
        {
          "internalType": "int256",
          "name": "insuranceFundCap",
          "type": "int256"
        }
      ],
      "name": "setInsuranceFundCap",
      "outputs": [],
      "stateMutability": "nonpayable",
      "type": "function"
    },
    {
      "inputs": [
        {
          "internalType": "uint256",
          "name": "perpetualIndex",
          "type": "uint256"
        },
        {
          "internalType": "address",
          "name": "trader",
          "type": "address"
        },
        {
          "internalType": "int256",
          "name": "cash",
          "type": "int256"
        },
        {
          "internalType": "int256",
          "name": "position",
          "type": "int256"
        }
      ],
      "name": "setMarginAccount",
      "outputs": [],
      "stateMutability": "nonpayable",
      "type": "function"
    },
    {
      "inputs": [
        {
          "internalType": "uint256",
          "name": "perpetualIndex",
          "type": "uint256"
        }
      ],
      "name": "setNormalState",
      "outputs": [],
      "stateMutability": "nonpayable",
      "type": "function"
    },
    {
      "inputs": [
        {
          "internalType": "uint256",
          "name": "perpetualIndex",
          "type": "uint256"
        },
        {
          "internalType": "bytes32",
          "name": "key",
          "type": "bytes32"
        },
        {
          "internalType": "int256",
          "name": "newValue",
          "type": "int256"
        }
      ],
      "name": "setPerpetualBaseParameter",
      "outputs": [],
      "stateMutability": "nonpayable",
      "type": "function"
    },
    {
      "inputs": [
        {
          "internalType": "uint256",
          "name": "perpetualIndex",
          "type": "uint256"
        },
        {
          "internalType": "bytes32",
          "name": "key",
          "type": "bytes32"
        },
        {
          "internalType": "int256",
          "name": "newValue",
          "type": "int256"
        },
        {
          "internalType": "int256",
          "name": "newMinValue",
          "type": "int256"
        },
        {
          "internalType": "int256",
          "name": "newMaxValue",
          "type": "int256"
        }
      ],
      "name": "setPerpetualRiskParameter",
      "outputs": [],
      "stateMutability": "nonpayable",
      "type": "function"
    },
    {
      "inputs": [
        {
          "internalType": "uint256",
          "name": "perpetualIndex",
          "type": "uint256"
        },
        {
          "internalType": "enum PerpetualState",
          "name": "state",
          "type": "uint8"
        }
      ],
      "name": "setState",
      "outputs": [],
      "stateMutability": "nonpayable",
      "type": "function"
    },
    {
      "inputs": [
        {
          "internalType": "uint256",
          "name": "perpetualIndex",
          "type": "uint256"
        },
        {
          "internalType": "int256",
          "name": "amount",
          "type": "int256"
        }
      ],
      "name": "setTotalCollateral",
      "outputs": [],
      "stateMutability": "nonpayable",
      "type": "function"
    },
    {
      "inputs": [
        {
          "internalType": "uint256",
          "name": "perpetualIndex",
          "type": "uint256"
        },
        {
          "internalType": "int256",
          "name": "unitAccumulativeFunding",
          "type": "int256"
        }
      ],
      "name": "setUnitAccumulativeFunding",
      "outputs": [],
      "stateMutability": "nonpayable",
      "type": "function"
    },
    {
      "inputs": [
        {
          "internalType": "uint256",
          "name": "perpetualIndex",
          "type": "uint256"
        },
        {
          "internalType": "address",
          "name": "trader",
          "type": "address"
        }
      ],
      "name": "settle",
      "outputs": [
        {
          "internalType": "int256",
          "name": "marginToReturn",
          "type": "int256"
        }
      ],
      "stateMutability": "nonpayable",
      "type": "function"
    },
    {
      "inputs": [
        {
          "internalType": "uint256",
          "name": "perpetualIndex",
          "type": "uint256"
        }
      ],
      "name": "settleCollateral",
      "outputs": [],
      "stateMutability": "nonpayable",
      "type": "function"
    },
    {
      "inputs": [
        {
          "internalType": "uint256",
          "name": "perpetualIndex",
          "type": "uint256"
        },
        {
          "internalType": "int256",
          "name": "poolMargin",
          "type": "int256"
        }
      ],
      "name": "updateFundingRate",
      "outputs": [],
      "stateMutability": "nonpayable",
      "type": "function"
    },
    {
      "inputs": [
        {
          "internalType": "uint256",
          "name": "perpetualIndex",
          "type": "uint256"
        },
        {
          "internalType": "int256",
          "name": "timeElapsed",
          "type": "int256"
        }
      ],
      "name": "updateFundingState",
      "outputs": [],
      "stateMutability": "nonpayable",
      "type": "function"
    },
    {
      "inputs": [
        {
          "internalType": "uint256",
          "name": "perpetualIndex",
          "type": "uint256"
        },
        {
          "internalType": "bytes32",
          "name": "key",
          "type": "bytes32"
        },
        {
          "internalType": "int256",
          "name": "newValue",
          "type": "int256"
        }
      ],
      "name": "updatePerpetualRiskParameter",
      "outputs": [],
      "stateMutability": "nonpayable",
      "type": "function"
    },
    {
      "inputs": [
        {
          "internalType": "uint256",
          "name": "perpetualIndex",
          "type": "uint256"
        }
      ],
      "name": "updatePrice",
      "outputs": [],
      "stateMutability": "nonpayable",
      "type": "function"
    },
    {
      "inputs": [
        {
          "internalType": "uint256",
          "name": "perpetualIndex",
          "type": "uint256"
        },
        {
          "internalType": "address",
          "name": "trader",
          "type": "address"
        },
        {
          "internalType": "int256",
          "name": "amount",
          "type": "int256"
        }
      ],
      "name": "withdraw",
      "outputs": [
        {
          "internalType": "bool",
          "name": "isLastWithdrawal",
          "type": "bool"
        }
      ],
      "stateMutability": "nonpayable",
      "type": "function"
    }
  ],
  "bytecode": "0x608060405234801561001057600080fd5b50612375806100206000396000f3fe608060405234801561001057600080fd5b50600436106102de5760003560e01c8063807b357611610186578063a9135235116100e3578063c18dd15111610097578063d933936411610071578063d933936414610602578063ddc71fa414610615578063f955f8a914610628576102de565b8063c18dd151146105c9578063d19c973c146105dc578063d8009be3146105ef576102de565b8063afc737d1116100c8578063afc737d114610590578063bbb364f2146105a3578063c12b9f42146105b6576102de565b8063a91352351461056a578063acd639841461057d576102de565b80639572518e1161013a578063965ff5bc1161011f578063965ff5bc14610524578063975d47a5146105375780639f52a26114610557576102de565b80639572518e146104fe578063962d193814610511576102de565b80638d6cc56d1161016b5780638d6cc56d146104c55780638dc7c977146104d857806392fcbd80146104eb576102de565b8063807b35761461049f57806388b34825146104b2576102de565b806344c9af281161023f57806369b990d3116101f357806378f140ea116101cd57806378f140ea1461046b5780637d3ba80f1461047e5780638002a924146103a6576102de565b806369b990d3146104255780636e7fea7b146104385780636ef05a401461044b576102de565b80636189b03d116102245780636189b03d146103ec57806366415e17146103ff578063679dd8ec14610412576102de565b806344c9af28146103b95780635af3d061146103d9576102de565b80633172f17311610296578063371773a81161027b578063371773a81461038057806338597530146103935780634293911e146103a6576102de565b80633172f1731461035a5780633190e48e1461036d576102de565b80631b3ee0f1116102c75780631b3ee0f11461031f57806325baaae2146103325780633049f6fc14610347576102de565b806312080647146102e3578063148eba511461030c575b600080fd5b6102f66102f1366004611de9565b61063b565b6040516103039190611fe1565b60405180910390f35b6102f661031a366004611de9565b610658565b6102f661032d366004611de9565b61066d565b610345610340366004611f6a565b610682565b005b6102f6610355366004611de9565b610716565b6102f6610368366004611e3c565b61072b565b61034561037b366004611de9565b610756565b6102f661038e366004611de9565b61075b565b6103456103a1366004611de9565b610770565b6103456103b4366004611e3c565b610801565b6103cc6103c7366004611de9565b61081e565b6040516103039190611fcd565b6102f66103e7366004611de9565b610836565b6103456103fa366004611ede565b61084d565b61034561040d366004611f6a565b610a68565b610345610420366004611de9565b610a7d565b610345610433366004611f6a565b610adb565b6102f6610446366004611de9565b610af7565b61045e610459366004611e6b565b610b11565b6040516103039190611fc2565b61045e610479366004611e6b565b610bc2565b61049161048c366004611e3c565b610c23565b604051610303929190611fea565b6103456104ad366004611f09565b610c56565b6103456104c0366004611ede565b610dd7565b6103456104d3366004611de9565b610f4a565b6102f66104e6366004611de9565b610f64565b6103456104f9366004611f6a565b611011565b61034561050c366004611de9565b611029565b6102f661051f366004611e3c565b611087565b610345610532366004611f43565b61113d565b61054a610545366004611de9565b611170565b6040516103039190611fae565b6102f6610565366004611de9565b61121d565b61045e610578366004611e3c565b611232565b61034561058b366004611ea2565b61124d565b6102f661059e366004611de9565b611281565b61045e6105b1366004611e3c565b611296565b6103456105c4366004611f6a565b611345565b6102f66105d7366004611de9565b61135a565b6103456105ea366004611de9565b61136f565b6102f66105fd366004611de9565b6113cd565b610345610610366004611d75565b6113e2565b610345610623366004611f6a565b611490565b610345610636366004611f6a565b6114f0565b600081815260436020526040812061065290611505565b92915050565b6000908152604360205260409020602f015490565b60009081526043602052604090206003015490565b6000828152604360205260409081902090517f3d1e253000000000000000000000000000000000000000000000000000000000815273__$74e2ba5c0a92ec095c0918ea877fa9275f$__91633d1e2530916106e291908590600401611fea565b60006040518083038186803b1580156106fa57600080fd5b505af415801561070e573d6000803e3d6000fd5b505050505050565b6000908152604360205260409020600b015490565b600082815260436020526040812061074e8361074683611533565b839190611561565b949350505050565b604455565b6000908152604360205260409020602e015490565b6000818152604360205260409081902090517f9ba1d11800000000000000000000000000000000000000000000000000000000815273__$74e2ba5c0a92ec095c0918ea877fa9275f$__91639ba1d118916107ce9190600401611fe1565b60006040518083038186803b1580156107e657600080fd5b505af41580156107fa573d6000803e3d6000fd5b5050505050565b600082815260436020526040902061081990826115ba565b505050565b60009081526043602052604090206001015460ff1690565b600081815260436020526040812061065290611533565b60008381526043602052604090207f696e697469616c4d617267696e526174650000000000000000000000000000008314156108bb5780600c015482126108af5760405162461bcd60e51b81526004016108a690612168565b60405180910390fd5b600c8101829055610a62565b827f6d61696e74656e616e63654d617267696e52617465000000000000000000000014156109125780600d015482126109065760405162461bcd60e51b81526004016108a6906120d4565b600d8101829055610a62565b827f6f70657261746f72466565526174650000000000000000000000000000000000141561094657600e8101829055610a62565b827f6c70466565526174650000000000000000000000000000000000000000000000141561097a57600f8101829055610a62565b827f6c69717569646174696f6e50656e616c7479526174650000000000000000000014156109ae5760118101829055610a62565b827f6b6565706572476173526577617264000000000000000000000000000000000014156109e25760128101829055610a62565b827f726566657272616c5265626174655261746500000000000000000000000000001415610a165760108101829055610a62565b827f696e737572616e636546756e64526174650000000000000000000000000000001415610a4a5760138101829055610a62565b60405162461bcd60e51b81526004016108a69061202f565b50505050565b60009182526043602052604090912060020155565b6000818152604360205260409081902090517fdc28841e00000000000000000000000000000000000000000000000000000000815273__$74e2ba5c0a92ec095c0918ea877fa9275f$__9163dc28841e916107ce9190600401611fe1565b6000828152604360205260409020610af390826115c9565b5050565b600081815260436020526040812061065290603001611620565b60008381526043602052604080822090517fc480202a00000000000000000000000000000000000000000000000000000000815273__$74e2ba5c0a92ec095c0918ea877fa9275f$__9163c480202a91610b729190879087906004016121dc565b60206040518083038186803b158015610b8a57600080fd5b505af4158015610b9e573d6000803e3d6000fd5b505050506040513d601f19601f8201168201806040525081019061074e9190611dc9565b60008381526043602052604080822090517fd13cfaa900000000000000000000000000000000000000000000000000000000815273__$74e2ba5c0a92ec095c0918ea877fa9275f$__9163d13cfaa991610b729190879087906004016121dc565b60009182526043602090815260408084206001600160a01b03909316845260349092019052902080546001909101549091565b6000858152604360205260409020691a185b1994dc1c99585960b21b851415610c8d57610c886016820185858561162b565b61070e565b847f6f70656e536c697070616765466163746f7200000000000000000000000000001415610cc457610c886019820185858561162b565b847f636c6f7365536c697070616765466163746f72000000000000000000000000001415610cfb57610c88601c820185858561162b565b847f66756e64696e67526174654c696d6974000000000000000000000000000000001415610d3257610c88601f820185858561162b565b847f616d6d4d61784c657665726167650000000000000000000000000000000000001415610d6957610c886025820185858561162b565b847f6d6178436c6f73655072696365446973636f756e7400000000000000000000001415610da057610c886028820185858561162b565b847f66756e64696e6752617465466163746f720000000000000000000000000000001415610a4a57610c886022820185858561162b565b6000838152604360205260409020691a185b1994dc1c99585960b21b831415610e0c57610e076016820183611667565b610a62565b827f6f70656e536c697070616765466163746f7200000000000000000000000000001415610e4157610e076019820183611667565b827f636c6f7365536c697070616765466163746f72000000000000000000000000001415610e7657610e07601c820183611667565b827f66756e64696e67526174654c696d6974000000000000000000000000000000001415610eab57610e07601f820183611667565b827f616d6d4d61784c657665726167650000000000000000000000000000000000001415610ee057610e076025820183611667565b827f6d6178436c6f73655072696365446973636f756e7400000000000000000000001415610f1557610e076028820183611667565b827f66756e64696e6752617465466163746f720000000000000000000000000000001415610a4a57610e076022820183611667565b6000818152604360205260409020610f619061169f565b50565b60008181526043602052604080822090517f84da931000000000000000000000000000000000000000000000000000000000815273__$74e2ba5c0a92ec095c0918ea877fa9275f$__916384da931091610fc19190600401611fe1565b60206040518083038186803b158015610fd957600080fd5b505af4158015610fed573d6000803e3d6000fd5b505050506040513d601f19601f820116820180604052508101906106529190611e01565b6000828152604360205260409020610af39082611743565b6000818152604360205260409081902090517f39d281eb00000000000000000000000000000000000000000000000000000000815273__$74e2ba5c0a92ec095c0918ea877fa9275f$__916339d281eb916107ce9190600401611fe1565b60008281526043602052604080822090517f49a837ae00000000000000000000000000000000000000000000000000000000815273__$74e2ba5c0a92ec095c0918ea877fa9275f$__916349a837ae916110e6919086906004016121c5565b60206040518083038186803b1580156110fe57600080fd5b505af4158015611112573d6000803e3d6000fd5b505050506040513d601f19601f820116820180604052508101906111369190611e01565b9392505050565b600082815260436020526040902060019081018054839260ff199091169083600481111561116757fe5b02179055505050565b60008181526043602052604080822090517fd87384fe00000000000000000000000000000000000000000000000000000000815273__$74e2ba5c0a92ec095c0918ea877fa9275f$__9163d87384fe916111cd9190600401611fe1565b60206040518083038186803b1580156111e557600080fd5b505af41580156111f9573d6000803e3d6000fd5b505050506040513d601f19601f820116820180604052508101906106529190611d59565b6000908152604360205260409020600a015490565b6000828152604360205260408120611136906030018361177f565b60009384526043602090815260408086206001600160a01b0390951686526034909401905291909220918255600190910155565b60009081526043602052604090206002015490565b60008281526043602052604080822090517f5e91c9f800000000000000000000000000000000000000000000000000000000815273__$74e2ba5c0a92ec095c0918ea877fa9275f$__91635e91c9f8916112f5919086906004016121c5565b60206040518083038186803b15801561130d57600080fd5b505af4158015611321573d6000803e3d6000fd5b505050506040513d601f19601f820116820180604052508101906111369190611dc9565b600091825260436020526040909120600a0155565b6000908152604360205260409020602c015490565b6000818152604360205260409081902090517fc94606dd00000000000000000000000000000000000000000000000000000000815273__$74e2ba5c0a92ec095c0918ea877fa9275f$__9163c94606dd916107ce9190600401611fe1565b6000908152604360205260409020602d015490565b6042546000818152604360205260409081902090517f445ab49400000000000000000000000000000000000000000000000000000000815273__$74e2ba5c0a92ec095c0918ea877fa9275f$__9063445ab4949061145090849086908a908a908a90819081906004016121fb565b60006040518083038186803b15801561146857600080fd5b505af415801561147c573d6000803e3d6000fd5b505060428054600101905550505050505050565b6000828152604360205260409081902090517f8f27c08f00000000000000000000000000000000000000000000000000000000815273__$74e2ba5c0a92ec095c0918ea877fa9275f$__91638f27c08f916106e291908590600401611fea565b600091825260436020526040909120600b0155565b60006002600183015460ff16600481111561151c57fe5b1461152b576008820154610652565b506004015490565b60006002600183015460ff16600481111561154a57fe5b14611559576008820154610652565b506006015490565b600061156e848484611794565b905060008113156115b057600061158585856117d1565b156115945784602f015461159a565b84602e01545b90506115a8828260016117f2565b915050611136565b5060009392505050565b60006111366030840183611810565b60008112156115ea5760405162461bcd60e51b81526004016108a690612066565b60028201546115f99082611825565b6002830181905560001315610af35760405162461bcd60e51b81526004016108a690612131565b60006106528261188a565b81831215801561163b5750808313155b6116575760405162461bcd60e51b81526004016108a69061209d565b9183556001830155600290910155565b8160010154811215801561167f575081600201548113155b61169b5760405162461bcd60e51b81526004016108a69061209d565b9055565b600181015461010090046001600160a01b03166116c46006830182630e222f9b61188e565b6116df82600401826001600160a01b031663ccbdbee261188e565b815460068301546007840154600485015460058601546040516001600160a01b038716957fec91322ffa6f23802efae915b1fc28a37d2d0986d25d2073c0a661498ad00767956117379591949093919290919061227a565b60405180910390a25050565b60008112156117645760405162461bcd60e51b81526004016108a690612066565b60028201546117739082611940565b82600201819055505050565b6000611136836001600160a01b0384166119a5565b600061074e6117a385856119bd565b6001600160a01b03851660009081526034870160205260409020600101546117cb90856119f7565b90611940565b6001600160a01b031660009081526034909101602052604090206001015490565b600061074e6118018585611a2c565b670de0b6b3a764000084611ad5565b6000611136836001600160a01b038416611bb5565b600081830381831280159061183a5750838113155b8061184f575060008312801561184f57508381135b6111365760405162461bcd60e51b815260040180806020018281038252602481526020018061231c6024913960400191505060405180910390fd5b5490565b60008083836040518163ffffffff1660e01b81526004016040805180830381600087803b1580156118be57600080fd5b505af11580156118d2573d6000803e3d6000fd5b505050506040513d601f19601f820116820180604052508101906118f69190611e19565b9150915060008213801561190957508015155b6119255760405162461bcd60e51b81526004016108a690611ff8565b846001015481106107fa579084556001909301929092555050565b60008282018183128015906119555750838112155b8061196a575060008312801561196a57508381125b6111365760405162461bcd60e51b81526004018080602001828103825260218152602001806122b36021913960400191505060405180910390fd5b60009081526001919091016020526040902054151590565b6001600160a01b03811660009081526034830160205260408120600b840154600182015461074e916119ef91906119f7565b825490611825565b6000670de0b6b3a7640000611a1d611a0f8585611a2c565b670de0b6b3a7640000611bff565b81611a2457fe5b059392505050565b600082611a3b57506000610652565b82600019148015611a4f5750600160ff1b82145b15611a8b5760405162461bcd60e51b81526004018080602001828103825260278152602001806122f56027913960400191505060405180910390fd5b82820282848281611a9857fe5b05146111365760405162461bcd60e51b81526004018080602001828103825260278152602001806122f56027913960400191505060405180910390fd5b600082611b29576040805162461bcd60e51b815260206004820152601060248201527f6469766973696f6e206279207a65726f00000000000000000000000000000000604482015290519081900360640190fd5b611b338484611c7e565b9050828481611b3e57fe5b07611b4857611136565b6000611b548585611d36565b90506000836001811115611b6457fe5b148015611b6e5750805b15611b8157611b7e826001611940565b91505b6001836001811115611b8f57fe5b148015611b9a575080155b15611bad57611baa826001611825565b91505b509392505050565b6000611bc183836119a5565b611bf757508154600181810184556000848152602080822090930184905584548482528286019093526040902091909155610652565b506000610652565b6000808213611c55576040805162461bcd60e51b815260206004820152601f60248201527f726f756e6448616c665570206f6e6c7920737570706f7274732079203e203000604482015290519081900360640190fd5b60008312611c7157611c6a8360028405611940565b9050610652565b6111368360028405611825565b600081611cd2576040805162461bcd60e51b815260206004820181905260248201527f5369676e6564536166654d6174683a206469766973696f6e206279207a65726f604482015290519081900360640190fd5b81600019148015611ce65750600160ff1b83145b15611d225760405162461bcd60e51b81526004018080602001828103825260218152602001806122d46021913960400191505060405180910390fd5b6000828481611d2d57fe5b05949350505050565b6000821580611d43575081155b15611d5057506001610652565b501860ff1d1590565b600060208284031215611d6a578081fd5b81516111368161229d565b6000806000610240808587031215611d8b578283fd5b8435611d968161229d565b9350610140850186811115611da9578384fd5b602086019350868287011115611dbd578283fd5b80925050509250925092565b600060208284031215611dda578081fd5b81518015158114611136578182fd5b600060208284031215611dfa578081fd5b5035919050565b600060208284031215611e12578081fd5b5051919050565b60008060408385031215611e2b578182fd5b505080516020909101519092909150565b60008060408385031215611e4e578182fd5b823591506020830135611e608161229d565b809150509250929050565b600080600060608486031215611e7f578283fd5b833592506020840135611e918161229d565b929592945050506040919091013590565b60008060008060808587031215611eb7578081fd5b843593506020850135611ec98161229d565b93969395505050506040820135916060013590565b600080600060608486031215611ef2578283fd5b505081359360208301359350604090920135919050565b600080600080600060a08688031215611f20578081fd5b505083359560208501359550604085013594606081013594506080013592509050565b60008060408385031215611f55578182fd5b82359150602083013560058110611e60578182fd5b60008060408385031215611f7c578182fd5b50508035926020909101359150565b8060005b6008811015610a62578135845260209384019390910190600101611f8f565b6001600160a01b0391909116815260200190565b901515815260200190565b6020810160058310611fdb57fe5b91905290565b90815260200190565b918252602082015260400190565b60208082526012908201527f696e76616c696420707269636520646174610000000000000000000000000000604082015260600190565b6020808252600d908201527f6b6579206e6f7420666f756e6400000000000000000000000000000000000000604082015260600190565b60208082526012908201527f616d6f756e74206973206e656761746976650000000000000000000000000000604082015260600190565b60208082526012908201527f76616c7565206f7574206f662072616e67650000000000000000000000000000604082015260600190565b60208082526031908201527f696e6372656173696e67206d61696e74656e616e6365206d617267696e20726160408201527f7465206973206e6f7420616c6c6f776564000000000000000000000000000000606082015260800190565b60208082526016908201527f636f6c6c61746572616c206973206e6567617469766500000000000000000000604082015260600190565b6020808252602d908201527f696e6372656173696e6720696e697469616c206d617267696e2072617465206960408201527f73206e6f7420616c6c6f77656400000000000000000000000000000000000000606082015260800190565b9182526001600160a01b0316602082015260400190565b9283526001600160a01b03919091166020830152604082015260600190565b87815260208082018890526001600160a01b0387166040830152610480820190606083018760005b600981101561224057813583529183019190830190600101612223565b50505050612252610180830186611f8b565b612260610280830185611f8b565b61226e610380830184611f8b565b98975050505050505050565b948552602085019390935260408401919091526060830152608082015260a00190565b6001600160a01b0381168114610f6157600080fdfe5369676e6564536166654d6174683a206164646974696f6e206f766572666c6f775369676e6564536166654d6174683a206469766973696f6e206f766572666c6f775369676e6564536166654d6174683a206d756c7469706c69636174696f6e206f766572666c6f775369676e6564536166654d6174683a207375627472616374696f6e206f766572666c6f77a2646970667358221220526273253ec7f2985e76e5a5c2e771b771306cf0faa171ba78b42bf8a551ff6264736f6c63430007040033",
  "linkReferences": {
    "contracts/module/PerpetualModule.sol": {
      "PerpetualModule": [
        {
          "length": 20,
          "start": 1753
        },
        {
          "length": 20,
          "start": 1991
        },
        {
          "length": 20,
          "start": 2772
        },
        {
          "length": 20,
          "start": 2919
        },
        {
          "length": 20,
          "start": 3096
        },
        {
          "length": 20,
          "start": 4026
        },
        {
          "length": 20,
          "start": 4224
        },
        {
          "length": 20,
          "start": 4317
        },
        {
          "length": 20,
          "start": 4550
        },
        {
          "length": 20,
          "start": 4844
        },
        {
          "length": 20,
          "start": 5062
        },
        {
          "length": 20,
          "start": 5180
        },
        {
          "length": 20,
          "start": 5351
        }
      ]
    }
  },
  "deployedLinkReferences": {
    "contracts/module/PerpetualModule.sol": {
      "PerpetualModule": [
        {
          "length": 20,
          "start": 1721
        },
        {
          "length": 20,
          "start": 1959
        },
        {
          "length": 20,
          "start": 2740
        },
        {
          "length": 20,
          "start": 2887
        },
        {
          "length": 20,
          "start": 3064
        },
        {
          "length": 20,
          "start": 3994
        },
        {
          "length": 20,
          "start": 4192
        },
        {
          "length": 20,
          "start": 4285
        },
        {
          "length": 20,
          "start": 4518
        },
        {
          "length": 20,
          "start": 4812
        },
        {
          "length": 20,
          "start": 5030
        },
        {
          "length": 20,
          "start": 5148
        },
        {
          "length": 20,
          "start": 5319
        }
      ]
    }
  }
}