{
  "_format": "hh-sol-artifact-1",
  "contractName": "VersionControl",
  "sourceName": "contracts/factory/VersionControl.sol",
  "abi": [
    {
      "anonymous": false,
      "inputs": [
        {
          "indexed": false,
          "internalType": "bytes32",
          "name": "versionKey",
          "type": "bytes32"
        },
        {
          "indexed": true,
          "internalType": "address",
          "name": "liquidityPoolTemplate",
          "type": "address"
        },
        {
          "indexed": true,
          "internalType": "address",
          "name": "governorTemplate",
          "type": "address"
        },
        {
          "indexed": true,
          "internalType": "address",
          "name": "creator",
          "type": "address"
        },
        {
          "indexed": false,
          "internalType": "uint256",
          "name": "compatibility",
          "type": "uint256"
        },
        {
          "indexed": false,
          "internalType": "string",
          "name": "note",
          "type": "string"
        }
      ],
      "name": "AddVersion",
      "type": "event"
    },
    {
      "anonymous": false,
      "inputs": [
        {
          "indexed": true,
          "internalType": "address",
          "name": "previousOwner",
          "type": "address"
        },
        {
          "indexed": true,
          "internalType": "address",
          "name": "newOwner",
          "type": "address"
        }
      ],
      "name": "OwnershipTransferred",
      "type": "event"
    },
    {
      "inputs": [
        {
          "internalType": "address",
          "name": "liquidityPoolTemplate",
          "type": "address"
        },
        {
          "internalType": "address",
          "name": "governorTemplate",
          "type": "address"
        },
        {
          "internalType": "uint256",
          "name": "compatibility",
          "type": "uint256"
        },
        {
          "internalType": "string",
          "name": "note",
          "type": "string"
        }
      ],
      "name": "addVersion",
      "outputs": [
        {
          "internalType": "bytes32",
          "name": "versionKey",
          "type": "bytes32"
        }
      ],
      "stateMutability": "nonpayable",
      "type": "function"
    },
    {
      "inputs": [
        {
          "internalType": "address",
          "name": "liquidityPool",
          "type": "address"
        },
        {
          "internalType": "address",
          "name": "governor",
          "type": "address"
        }
      ],
      "name": "getAppliedVersionKey",
      "outputs": [
        {
          "internalType": "bytes32",
          "name": "appliedVersionKey",
          "type": "bytes32"
        }
      ],
      "stateMutability": "view",
      "type": "function"
    },
    {
      "inputs": [],
      "name": "getLatestVersion",
      "outputs": [
        {
          "internalType": "bytes32",
          "name": "latestVersionKey",
          "type": "bytes32"
        }
      ],
      "stateMutability": "view",
      "type": "function"
    },
    {
      "inputs": [
        {
          "internalType": "bytes32",
          "name": "versionKey",
          "type": "bytes32"
        }
      ],
      "name": "getVersion",
      "outputs": [
        {
          "internalType": "address",
          "name": "liquidityPoolTemplate",
          "type": "address"
        },
        {
          "internalType": "address",
          "name": "governorTemplate",
          "type": "address"
        },
        {
          "internalType": "uint256",
          "name": "compatibility",
          "type": "uint256"
        }
      ],
      "stateMutability": "view",
      "type": "function"
    },
    {
      "inputs": [
        {
          "internalType": "bytes32",
          "name": "targetVersionKey",
          "type": "bytes32"
        },
        {
          "internalType": "bytes32",
          "name": "baseVersionKey",
          "type": "bytes32"
        }
      ],
      "name": "isVersionCompatible",
      "outputs": [
        {
          "internalType": "bool",
          "name": "isCompatible",
          "type": "bool"
        }
      ],
      "stateMutability": "view",
      "type": "function"
    },
    {
      "inputs": [
        {
          "internalType": "bytes32",
          "name": "versionKey",
          "type": "bytes32"
        }
      ],
      "name": "isVersionKeyValid",
      "outputs": [
        {
          "internalType": "bool",
          "name": "isValid",
          "type": "bool"
        }
      ],
      "stateMutability": "view",
      "type": "function"
    },
    {
      "inputs": [
        {
          "internalType": "uint256",
          "name": "begin",
          "type": "uint256"
        },
        {
          "internalType": "uint256",
          "name": "end",
          "type": "uint256"
        }
      ],
      "name": "listAvailableVersions",
      "outputs": [
        {
          "internalType": "bytes32[]",
          "name": "versionKeys",
          "type": "bytes32[]"
        }
      ],
      "stateMutability": "view",
      "type": "function"
    },
    {
      "inputs": [],
      "name": "owner",
      "outputs": [
        {
          "internalType": "address",
          "name": "",
          "type": "address"
        }
      ],
      "stateMutability": "view",
      "type": "function"
    },
    {
      "inputs": [],
      "name": "renounceOwnership",
      "outputs": [],
      "stateMutability": "nonpayable",
      "type": "function"
    },
    {
      "inputs": [
        {
          "internalType": "address",
          "name": "newOwner",
          "type": "address"
        }
      ],
      "name": "transferOwnership",
      "outputs": [],
      "stateMutability": "nonpayable",
      "type": "function"
    }
  ],
  "bytecode": "0x608060405234801561001057600080fd5b50610d37806100206000396000f3fe608060405234801561001057600080fd5b50600436106100be5760003560e01c806384452fef116100765780639aaf9f081161005b5780639aaf9f0814610262578063db7ca94b146102a9578063f2fde38b146102d7576100be565b806384452fef146101ae5780638da5cb5b1461023e576100be565b8063715018a6116100a7578063715018a614610114578063824372c71461011e5780638277c65114610191576100be565b80630e6d1de9146100c35780633c597ff6146100dd575b600080fd5b6100cb6102fd565b60408051918252519081900360200190f35b610100600480360360408110156100f357600080fd5b508035906020013561037a565b604080519115158252519081900360200190f35b61011c610452565b005b6101416004803603604081101561013457600080fd5b508035906020013561051d565b60408051602080825283518183015283519192839290830191858101910280838360005b8381101561017d578181015183820152602001610165565b505050509050019250505060405180910390f35b610100600480360360208110156101a757600080fd5b5035610532565b6100cb600480360360808110156101c457600080fd5b6001600160a01b038235811692602081013590911691604082013591908101906080810160608201356401000000008111156101ff57600080fd5b82018360208201111561021157600080fd5b8035906020019184600183028401116401000000008311171561023357600080fd5b509092509050610545565b6102466107fc565b604080516001600160a01b039092168252519081900360200190f35b61027f6004803603602081101561027857600080fd5b5035610806565b604080516001600160a01b0394851681529290931660208301528183015290519081900360600190f35b6100cb600480360360408110156102bf57600080fd5b506001600160a01b0381358116916020013516610896565b61011c600480360360208110156102ed57600080fd5b50356001600160a01b03166108ba565b60008061030a60656109dc565b1161035c576040805162461bcd60e51b815260206004820152600a60248201527f6e6f2076657273696f6e00000000000000000000000000000000000000000000604482015290519081900360640190fd5b610375600161036b60656109dc565b60659190036109e7565b905090565b600061038583610532565b6103d6576040805162461bcd60e51b815260206004820152601960248201527f7461726765742076657273696f6e20697320696e76616c696400000000000000604482015290519081900360640190fd5b6103df82610532565b610430576040805162461bcd60e51b815260206004820152601760248201527f626173652076657273696f6e20697320696e76616c6964000000000000000000604482015290519081900360640190fd5b5060009081526067602052604080822060029081015493835291200154101590565b61045a6109f3565b6001600160a01b031661046b6107fc565b6001600160a01b0316146104c6576040805162461bcd60e51b815260206004820181905260248201527f4f776e61626c653a2063616c6c6572206973206e6f7420746865206f776e6572604482015290519081900360640190fd5b6033546040516000916001600160a01b0316907f8be0079c531659141344cd1fd0a4f28419497f9722a3daafe3b4186f6b6457e0908390a36033805473ffffffffffffffffffffffffffffffffffffffff19169055565b606061052b606584846109f7565b9392505050565b600061053f606583610b08565b92915050565b600061054f6109f3565b6001600160a01b03166105606107fc565b6001600160a01b0316146105bb576040805162461bcd60e51b815260206004820181905260248201527f4f776e61626c653a2063616c6c6572206973206e6f7420746865206f776e6572604482015290519081900360640190fd5b6105cd866001600160a01b0316610b14565b61061e576040805162461bcd60e51b815260206004820152601f60248201527f696d706c656d656e746174696f6e206d75737420626520636f6e747261637400604482015290519081900360640190fd5b610630856001600160a01b0316610b14565b610681576040805162461bcd60e51b815260206004820152601f60248201527f696d706c656d656e746174696f6e206d75737420626520636f6e747261637400604482015290519081900360640190fd5b61068b8686610b1a565b905061069681610532565b156106e8576040805162461bcd60e51b815260206004820152601d60248201527f696d706c656d656e746174696f6e20616c726561647920657869737473000000604482015290519081900360640190fd5b604080516060810182526001600160a01b0380891682528781166020808401918252838501898152600087815260679092529490209251835490831673ffffffffffffffffffffffffffffffffffffffff1991821617845590516001840180549190931691161790559051600290910155610764606582610b61565b50336001600160a01b0316856001600160a01b0316876001600160a01b03167f1ae7782997ea5d0490cc9c4db962cfb50f949390e7b99082d3df8ac5d58eaef98488888860405180858152602001848152602001806020018281038252848482818152602001925080828437600083820152604051601f909101601f191690920182900397509095505050505050a495945050505050565b6000610375610b6d565b600080600061081484610532565b610865576040805162461bcd60e51b815260206004820152601960248201527f696d706c656d656e746174696f6e20697320696e76616c696400000000000000604482015290519081900360640190fd5b5050506000908152606760205260409020805460018201546002909201546001600160a01b03918216939290911691565b6000806108a38484610b1a565b600090815260686020526040902054949350505050565b6108c26109f3565b6001600160a01b03166108d36107fc565b6001600160a01b03161461092e576040805162461bcd60e51b815260206004820181905260248201527f4f776e61626c653a2063616c6c6572206973206e6f7420746865206f776e6572604482015290519081900360640190fd5b6001600160a01b0381166109735760405162461bcd60e51b8152600401808060200182810382526026815260200180610cdc6026913960400191505060405180910390fd5b6033546040516001600160a01b038084169216907f8be0079c531659141344cd1fd0a4f28419497f9722a3daafe3b4186f6b6457e090600090a36033805473ffffffffffffffffffffffffffffffffffffffff19166001600160a01b0392909216919091179055565b600061053f82610b7c565b600061052b8383610b80565b3390565b6060828211610a4d576040805162461bcd60e51b815260206004820152601e60248201527f626567696e2073686f756c64206265206c6f776572207468616e20656e640000604482015290519081900360640190fd5b6000610a58856109dc565b9050808410610a67575061052b565b6000610a738483610be4565b9050610a7f8186610bfa565b67ffffffffffffffff81118015610a9557600080fd5b50604051908082528060200260200182016040528015610abf578160200160208202803683370190505b509250845b81811015610afe57610ad687826109e7565b84610ae18389610bfa565b81518110610aeb57fe5b6020908102919091010152600101610ac4565b5050509392505050565b600061052b8383610c57565b3b151590565b604080516bffffffffffffffffffffffff19606094851b81166020808401919091529390941b90931660348401528051602881850301815260489093019052815191012090565b600061052b8383610c6f565b6033546001600160a01b031690565b5490565b81546000908210610bc25760405162461bcd60e51b8152600401808060200182810382526022815260200180610cba6022913960400191505060405180910390fd5b826000018281548110610bd157fe5b9060005260206000200154905092915050565b6000818310610bf3578161052b565b5090919050565b600082821115610c51576040805162461bcd60e51b815260206004820152601e60248201527f536166654d6174683a207375627472616374696f6e206f766572666c6f770000604482015290519081900360640190fd5b50900390565b60009081526001919091016020526040902054151590565b6000610c7b8383610c57565b610cb15750815460018181018455600084815260208082209093018490558454848252828601909352604090209190915561053f565b50600061053f56fe456e756d657261626c655365743a20696e646578206f7574206f6620626f756e64734f776e61626c653a206e6577206f776e657220697320746865207a65726f2061646472657373a2646970667358221220e6cc1c8a0b426a5693719bc9548969774caa00df244912be9fa48a3f2ac7540964736f6c63430007040033",
  "linkReferences": {},
  "deployedLinkReferences": {}
}